{
	"s1911027.sol": {
		"DiceRoll": {
			"abi": [
				{
					"inputs": [],
					"name": "Deposit",
					"outputs": [],
					"stateMutability": "payable",
					"type": "function"
				},
				{
					"inputs": [],
					"name": "GetGameResult",
					"outputs": [
						{
							"internalType": "uint256",
							"name": "",
							"type": "uint256"
						}
					],
					"stateMutability": "view",
					"type": "function"
				},
				{
					"inputs": [
						{
							"internalType": "uint256",
							"name": "secretNumber",
							"type": "uint256"
						}
					],
					"name": "GetSecretHash",
					"outputs": [
						{
							"internalType": "bytes32",
							"name": "",
							"type": "bytes32"
						}
					],
					"stateMutability": "pure",
					"type": "function"
				},
				{
					"inputs": [
						{
							"internalType": "bytes32",
							"name": "hashvalue",
							"type": "bytes32"
						}
					],
					"name": "RegisterPlayerA",
					"outputs": [],
					"stateMutability": "nonpayable",
					"type": "function"
				},
				{
					"inputs": [
						{
							"internalType": "bytes32",
							"name": "hashvalue",
							"type": "bytes32"
						}
					],
					"name": "RegisterPlayerB",
					"outputs": [],
					"stateMutability": "nonpayable",
					"type": "function"
				},
				{
					"inputs": [
						{
							"internalType": "bool",
							"name": "withdraw",
							"type": "bool"
						}
					],
					"name": "ResetGame",
					"outputs": [],
					"stateMutability": "nonpayable",
					"type": "function"
				},
				{
					"inputs": [
						{
							"internalType": "uint256",
							"name": "secretNumber",
							"type": "uint256"
						}
					],
					"name": "StartRoll",
					"outputs": [
						{
							"internalType": "uint256",
							"name": "",
							"type": "uint256"
						}
					],
					"stateMutability": "nonpayable",
					"type": "function"
				}
			],
			"devdoc": {
				"kind": "dev",
				"methods": {},
				"version": 1
			},
			"evm": {
				"assembly": "    /* \"s1911027.sol\":856:4013  contract DiceRoll {\r... */\n  mstore(0x40, 0x80)\n    /* \"s1911027.sol\":1032:1033  0 */\n  0x00\n    /* \"s1911027.sol\":1017:1033  uint256 dice = 0 */\n  0x03\n  sstore\n    /* \"s1911027.sol\":856:4013  contract DiceRoll {\r... */\n  callvalue\n  dup1\n  iszero\n  tag_1\n  jumpi\n  0x00\n  dup1\n  revert\ntag_1:\n  pop\n  dataSize(sub_0)\n  dup1\n  dataOffset(sub_0)\n  0x00\n  codecopy\n  0x00\n  return\nstop\n\nsub_0: assembly {\n        /* \"s1911027.sol\":856:4013  contract DiceRoll {\r... */\n      mstore(0x40, 0x80)\n      jumpi(tag_1, lt(calldatasize, 0x04))\n      shr(0xe0, calldataload(0x00))\n      dup1\n      0x56c332fc\n      gt\n      tag_9\n      jumpi\n      dup1\n      0x56c332fc\n      eq\n      tag_5\n      jumpi\n      dup1\n      0x85bdc22f\n      eq\n      tag_6\n      jumpi\n      dup1\n      0xed21248c\n      eq\n      tag_7\n      jumpi\n      dup1\n      0xff2ddb0e\n      eq\n      tag_8\n      jumpi\n      jump(tag_1)\n    tag_9:\n      dup1\n      0x2c6c73a6\n      eq\n      tag_2\n      jumpi\n      dup1\n      0x490b63e1\n      eq\n      tag_3\n      jumpi\n      dup1\n      0x4adf554c\n      eq\n      tag_4\n      jumpi\n    tag_1:\n      0x00\n      dup1\n      revert\n        /* \"s1911027.sol\":3177:3277  function GetGameResult() public view returns (uint256) {\r... */\n    tag_2:\n      callvalue\n      dup1\n      iszero\n      tag_10\n      jumpi\n      0x00\n      dup1\n      revert\n    tag_10:\n      pop\n      tag_11\n      tag_12\n      jump\t// in\n    tag_11:\n      mload(0x40)\n      tag_13\n      swap2\n      swap1\n      tag_14\n      jump\t// in\n    tag_13:\n      mload(0x40)\n      dup1\n      swap2\n      sub\n      swap1\n      return\n        /* \"s1911027.sol\":1450:1806  function RegisterPlayerB(bytes32 hashvalue) public {\r... */\n    tag_3:\n      callvalue\n      dup1\n      iszero\n      tag_15\n      jumpi\n      0x00\n      dup1\n      revert\n    tag_15:\n      pop\n      tag_16\n      0x04\n      dup1\n      calldatasize\n      sub\n      dup2\n      add\n      swap1\n      tag_17\n      swap2\n      swap1\n      tag_18\n      jump\t// in\n    tag_17:\n      tag_19\n      jump\t// in\n    tag_16:\n      stop\n        /* \"s1911027.sol\":2239:3169  function StartRoll(uint256 secretNumber) public returns (uint256) {\r... */\n    tag_4:\n      callvalue\n      dup1\n      iszero\n      tag_20\n      jumpi\n      0x00\n      dup1\n      revert\n    tag_20:\n      pop\n      tag_21\n      0x04\n      dup1\n      calldatasize\n      sub\n      dup2\n      add\n      swap1\n      tag_22\n      swap2\n      swap1\n      tag_23\n      jump\t// in\n    tag_22:\n      tag_24\n      jump\t// in\n    tag_21:\n      mload(0x40)\n      tag_25\n      swap2\n      swap1\n      tag_14\n      jump\t// in\n    tag_25:\n      mload(0x40)\n      dup1\n      swap2\n      sub\n      swap1\n      return\n        /* \"s1911027.sol\":3868:4010  function GetSecretHash(uint256 secretNumber) public pure returns (bytes32) {\r... */\n    tag_5:\n      callvalue\n      dup1\n      iszero\n      tag_26\n      jumpi\n      0x00\n      dup1\n      revert\n    tag_26:\n      pop\n      tag_27\n      0x04\n      dup1\n      calldatasize\n      sub\n      dup2\n      add\n      swap1\n      tag_28\n      swap2\n      swap1\n      tag_23\n      jump\t// in\n    tag_28:\n      tag_29\n      jump\t// in\n    tag_27:\n      mload(0x40)\n      tag_30\n      swap2\n      swap1\n      tag_31\n      jump\t// in\n    tag_30:\n      mload(0x40)\n      dup1\n      swap2\n      sub\n      swap1\n      return\n        /* \"s1911027.sol\":3285:3858  function ResetGame(bool withdraw) public {\r... */\n    tag_6:\n      callvalue\n      dup1\n      iszero\n      tag_32\n      jumpi\n      0x00\n      dup1\n      revert\n    tag_32:\n      pop\n      tag_33\n      0x04\n      dup1\n      calldatasize\n      sub\n      dup2\n      add\n      swap1\n      tag_34\n      swap2\n      swap1\n      tag_35\n      jump\t// in\n    tag_34:\n      tag_36\n      jump\t// in\n    tag_33:\n      stop\n        /* \"s1911027.sol\":1868:2229  function Deposit() public payable {\r... */\n    tag_7:\n      tag_37\n      tag_38\n      jump\t// in\n    tag_37:\n      stop\n        /* \"s1911027.sol\":1086:1442  function RegisterPlayerA(bytes32 hashvalue) public {\r... */\n    tag_8:\n      callvalue\n      dup1\n      iszero\n      tag_39\n      jumpi\n      0x00\n      dup1\n      revert\n    tag_39:\n      pop\n      tag_40\n      0x04\n      dup1\n      calldatasize\n      sub\n      dup2\n      add\n      swap1\n      tag_41\n      swap2\n      swap1\n      tag_18\n      jump\t// in\n    tag_41:\n      tag_42\n      jump\t// in\n    tag_40:\n      stop\n        /* \"s1911027.sol\":3177:3277  function GetGameResult() public view returns (uint256) {\r... */\n    tag_12:\n        /* \"s1911027.sol\":3223:3230  uint256 */\n      0x00\n        /* \"s1911027.sol\":3250:3257  balance */\n      dup1\n        /* \"s1911027.sol\":3250:3269  balance[msg.sender] */\n      0x00\n        /* \"s1911027.sol\":3258:3268  msg.sender */\n      caller\n        /* \"s1911027.sol\":3250:3269  balance[msg.sender] */\n      0xffffffffffffffffffffffffffffffffffffffff\n      and\n      0xffffffffffffffffffffffffffffffffffffffff\n      and\n      dup2\n      mstore\n      0x20\n      add\n      swap1\n      dup2\n      mstore\n      0x20\n      add\n      0x00\n      keccak256\n      sload\n        /* \"s1911027.sol\":3243:3269  return balance[msg.sender] */\n      swap1\n      pop\n        /* \"s1911027.sol\":3177:3277  function GetGameResult() public view returns (uint256) {\r... */\n      swap1\n      jump\t// out\n        /* \"s1911027.sol\":1450:1806  function RegisterPlayerB(bytes32 hashvalue) public {\r... */\n    tag_19:\n        /* \"s1911027.sol\":1533:1534  0 */\n      0x00\n        /* \"s1911027.sol\":1520:1534  hashvalue != 0 */\n      dup1\n      shl\n        /* \"s1911027.sol\":1520:1529  hashvalue */\n      dup2\n        /* \"s1911027.sol\":1520:1534  hashvalue != 0 */\n      eq\n      iszero\n        /* \"s1911027.sol\":1512:1567  require(hashvalue != 0, \"please enter your commitment\") */\n      tag_45\n      jumpi\n      mload(0x40)\n      0x08c379a000000000000000000000000000000000000000000000000000000000\n      dup2\n      mstore\n      0x04\n      add\n      tag_46\n      swap1\n      tag_47\n      jump\t// in\n    tag_46:\n      mload(0x40)\n      dup1\n      swap2\n      sub\n      swap1\n      revert\n    tag_45:\n        /* \"s1911027.sol\":1605:1606  0 */\n      0x00\n        /* \"s1911027.sol\":1586:1607  playerB == address(0) */\n      0xffffffffffffffffffffffffffffffffffffffff\n      and\n        /* \"s1911027.sol\":1586:1593  playerB */\n      0x05\n      0x00\n      swap1\n      sload\n      swap1\n      0x0100\n      exp\n      swap1\n      div\n      0xffffffffffffffffffffffffffffffffffffffff\n      and\n        /* \"s1911027.sol\":1586:1607  playerB == address(0) */\n      0xffffffffffffffffffffffffffffffffffffffff\n      and\n      eq\n        /* \"s1911027.sol\":1578:1640  require(playerB == address(0), \"Player B has been registered\") */\n      tag_48\n      jumpi\n      mload(0x40)\n      0x08c379a000000000000000000000000000000000000000000000000000000000\n      dup2\n      mstore\n      0x04\n      add\n      tag_49\n      swap1\n      tag_50\n      jump\t// in\n    tag_49:\n      mload(0x40)\n      dup1\n      swap2\n      sub\n      swap1\n      revert\n    tag_48:\n        /* \"s1911027.sol\":1670:1680  msg.sender */\n      caller\n        /* \"s1911027.sol\":1659:1680  playerA != msg.sender */\n      0xffffffffffffffffffffffffffffffffffffffff\n      and\n        /* \"s1911027.sol\":1659:1666  playerA */\n      0x04\n      0x00\n      swap1\n      sload\n      swap1\n      0x0100\n      exp\n      swap1\n      div\n      0xffffffffffffffffffffffffffffffffffffffff\n      and\n        /* \"s1911027.sol\":1659:1680  playerA != msg.sender */\n      0xffffffffffffffffffffffffffffffffffffffff\n      and\n      eq\n      iszero\n        /* \"s1911027.sol\":1651:1720  require(playerA != msg.sender, \"You has been registered as player A\") */\n      tag_51\n      jumpi\n      mload(0x40)\n      0x08c379a000000000000000000000000000000000000000000000000000000000\n      dup2\n      mstore\n      0x04\n      add\n      tag_52\n      swap1\n      tag_53\n      jump\t// in\n    tag_52:\n      mload(0x40)\n      dup1\n      swap2\n      sub\n      swap1\n      revert\n    tag_51:\n        /* \"s1911027.sol\":1743:1753  msg.sender */\n      caller\n        /* \"s1911027.sol\":1733:1740  playerB */\n      0x05\n      0x00\n        /* \"s1911027.sol\":1733:1753  playerB = msg.sender */\n      0x0100\n      exp\n      dup2\n      sload\n      dup2\n      0xffffffffffffffffffffffffffffffffffffffff\n      mul\n      not\n      and\n      swap1\n      dup4\n      0xffffffffffffffffffffffffffffffffffffffff\n      and\n      mul\n      or\n      swap1\n      sstore\n      pop\n        /* \"s1911027.sol\":1789:1798  hashvalue */\n      dup1\n        /* \"s1911027.sol\":1764:1774  commitment */\n      0x01\n        /* \"s1911027.sol\":1764:1786  commitment[msg.sender] */\n      0x00\n        /* \"s1911027.sol\":1775:1785  msg.sender */\n      caller\n        /* \"s1911027.sol\":1764:1786  commitment[msg.sender] */\n      0xffffffffffffffffffffffffffffffffffffffff\n      and\n      0xffffffffffffffffffffffffffffffffffffffff\n      and\n      dup2\n      mstore\n      0x20\n      add\n      swap1\n      dup2\n      mstore\n      0x20\n      add\n      0x00\n      keccak256\n        /* \"s1911027.sol\":1764:1798  commitment[msg.sender] = hashvalue */\n      dup2\n      swap1\n      sstore\n      pop\n        /* \"s1911027.sol\":1450:1806  function RegisterPlayerB(bytes32 hashvalue) public {\r... */\n      pop\n      jump\t// out\n        /* \"s1911027.sol\":2239:3169  function StartRoll(uint256 secretNumber) public returns (uint256) {\r... */\n    tag_24:\n        /* \"s1911027.sol\":2296:2303  uint256 */\n      0x00\n        /* \"s1911027.sol\":2377:2389  secretNumber */\n      dup2\n        /* \"s1911027.sol\":2360:2390  abi.encodePacked(secretNumber) */\n      add(0x20, mload(0x40))\n      tag_55\n      swap2\n      swap1\n      tag_56\n      jump\t// in\n    tag_55:\n      mload(0x40)\n      0x20\n      dup2\n      dup4\n      sub\n      sub\n      dup2\n      mstore\n      swap1\n      0x40\n      mstore\n        /* \"s1911027.sol\":2350:2391  keccak256(abi.encodePacked(secretNumber)) */\n      dup1\n      mload\n      swap1\n      0x20\n      add\n      keccak256\n        /* \"s1911027.sol\":2324:2334  commitment */\n      0x01\n        /* \"s1911027.sol\":2324:2346  commitment[msg.sender] */\n      0x00\n        /* \"s1911027.sol\":2335:2345  msg.sender */\n      caller\n        /* \"s1911027.sol\":2324:2346  commitment[msg.sender] */\n      0xffffffffffffffffffffffffffffffffffffffff\n      and\n      0xffffffffffffffffffffffffffffffffffffffff\n      and\n      dup2\n      mstore\n      0x20\n      add\n      swap1\n      dup2\n      mstore\n      0x20\n      add\n      0x00\n      keccak256\n      sload\n        /* \"s1911027.sol\":2324:2391  commitment[msg.sender] == keccak256(abi.encodePacked(secretNumber)) */\n      eq\n        /* \"s1911027.sol\":2316:2414  require(commitment[msg.sender] == keccak256(abi.encodePacked(secretNumber)), \"Wrong secretNumber\") */\n      tag_57\n      jumpi\n      mload(0x40)\n      0x08c379a000000000000000000000000000000000000000000000000000000000\n      dup2\n      mstore\n      0x04\n      add\n      tag_58\n      swap1\n      tag_59\n      jump\t// in\n    tag_58:\n      mload(0x40)\n      dup1\n      swap2\n      sub\n      swap1\n      revert\n    tag_57:\n        /* \"s1911027.sol\":2452:2453  0 */\n      0x00\n        /* \"s1911027.sol\":2433:2454  playerA != address(0) */\n      0xffffffffffffffffffffffffffffffffffffffff\n      and\n        /* \"s1911027.sol\":2433:2440  playerA */\n      0x04\n      0x00\n      swap1\n      sload\n      swap1\n      0x0100\n      exp\n      swap1\n      div\n      0xffffffffffffffffffffffffffffffffffffffff\n      and\n        /* \"s1911027.sol\":2433:2454  playerA != address(0) */\n      0xffffffffffffffffffffffffffffffffffffffff\n      and\n      eq\n      iszero\n        /* \"s1911027.sol\":2425:2481  require(playerA != address(0), \"PlayerA not registered\") */\n      tag_60\n      jumpi\n      mload(0x40)\n      0x08c379a000000000000000000000000000000000000000000000000000000000\n      dup2\n      mstore\n      0x04\n      add\n      tag_61\n      swap1\n      tag_62\n      jump\t// in\n    tag_61:\n      mload(0x40)\n      dup1\n      swap2\n      sub\n      swap1\n      revert\n    tag_60:\n        /* \"s1911027.sol\":2519:2520  0 */\n      0x00\n        /* \"s1911027.sol\":2500:2521  playerB != address(0) */\n      0xffffffffffffffffffffffffffffffffffffffff\n      and\n        /* \"s1911027.sol\":2500:2507  playerB */\n      0x05\n      0x00\n      swap1\n      sload\n      swap1\n      0x0100\n      exp\n      swap1\n      div\n      0xffffffffffffffffffffffffffffffffffffffff\n      and\n        /* \"s1911027.sol\":2500:2521  playerB != address(0) */\n      0xffffffffffffffffffffffffffffffffffffffff\n      and\n      eq\n      iszero\n        /* \"s1911027.sol\":2492:2548  require(playerB != address(0), \"PlayerB not registered\") */\n      tag_63\n      jumpi\n      mload(0x40)\n      0x08c379a000000000000000000000000000000000000000000000000000000000\n      dup2\n      mstore\n      0x04\n      add\n      tag_64\n      swap1\n      tag_65\n      jump\t// in\n    tag_64:\n      mload(0x40)\n      dup1\n      swap2\n      sub\n      swap1\n      revert\n    tag_63:\n        /* \"s1911027.sol\":2575:2576  0 */\n      0x00\n        /* \"s1911027.sol\":2567:2571  dice */\n      sload(0x03)\n        /* \"s1911027.sol\":2567:2576  dice == 0 */\n      eq\n        /* \"s1911027.sol\":2559:2619  require(dice == 0, \"Game can start until all players reset\") */\n      tag_66\n      jumpi\n      mload(0x40)\n      0x08c379a000000000000000000000000000000000000000000000000000000000\n      dup2\n      mstore\n      0x04\n      add\n      tag_67\n      swap1\n      tag_68\n      jump\t// in\n    tag_67:\n      mload(0x40)\n      dup1\n      swap2\n      sub\n      swap1\n      revert\n    tag_66:\n        /* \"s1911027.sol\":2733:2745  secretNumber */\n      dup2\n        /* \"s1911027.sol\":2706:2718  randomNumber */\n      0x02\n        /* \"s1911027.sol\":2706:2730  randomNumber[msg.sender] */\n      0x00\n        /* \"s1911027.sol\":2719:2729  msg.sender */\n      caller\n        /* \"s1911027.sol\":2706:2730  randomNumber[msg.sender] */\n      0xffffffffffffffffffffffffffffffffffffffff\n      and\n      0xffffffffffffffffffffffffffffffffffffffff\n      and\n      dup2\n      mstore\n      0x20\n      add\n      swap1\n      dup2\n      mstore\n      0x20\n      add\n      0x00\n      keccak256\n        /* \"s1911027.sol\":2706:2745  randomNumber[msg.sender] = secretNumber */\n      dup2\n      swap1\n      sstore\n      pop\n        /* \"s1911027.sol\":2901:2902  6 */\n      0x06\n        /* \"s1911027.sol\":2874:2886  randomNumber */\n      0x02\n        /* \"s1911027.sol\":2874:2895  randomNumber[playerB] */\n      0x00\n        /* \"s1911027.sol\":2887:2894  playerB */\n      0x05\n      0x00\n      swap1\n      sload\n      swap1\n      0x0100\n      exp\n      swap1\n      div\n      0xffffffffffffffffffffffffffffffffffffffff\n      and\n        /* \"s1911027.sol\":2874:2895  randomNumber[playerB] */\n      0xffffffffffffffffffffffffffffffffffffffff\n      and\n      0xffffffffffffffffffffffffffffffffffffffff\n      and\n      dup2\n      mstore\n      0x20\n      add\n      swap1\n      dup2\n      mstore\n      0x20\n      add\n      0x00\n      keccak256\n      sload\n        /* \"s1911027.sol\":2850:2862  randomNumber */\n      0x02\n        /* \"s1911027.sol\":2850:2871  randomNumber[playerA] */\n      0x00\n        /* \"s1911027.sol\":2863:2870  playerA */\n      0x04\n      0x00\n      swap1\n      sload\n      swap1\n      0x0100\n      exp\n      swap1\n      div\n      0xffffffffffffffffffffffffffffffffffffffff\n      and\n        /* \"s1911027.sol\":2850:2871  randomNumber[playerA] */\n      0xffffffffffffffffffffffffffffffffffffffff\n      and\n      0xffffffffffffffffffffffffffffffffffffffff\n      and\n      dup2\n      mstore\n      0x20\n      add\n      swap1\n      dup2\n      mstore\n      0x20\n      add\n      0x00\n      keccak256\n      sload\n        /* \"s1911027.sol\":2850:2895  randomNumber[playerA] ^ randomNumber[playerB] */\n      xor\n        /* \"s1911027.sol\":2833:2896  abi.encodePacked(randomNumber[playerA] ^ randomNumber[playerB]) */\n      add(0x20, mload(0x40))\n      tag_69\n      swap2\n      swap1\n      tag_56\n      jump\t// in\n    tag_69:\n      mload(0x40)\n      0x20\n      dup2\n      dup4\n      sub\n      sub\n      dup2\n      mstore\n      swap1\n      0x40\n      mstore\n        /* \"s1911027.sol\":2823:2897  keccak256(abi.encodePacked(randomNumber[playerA] ^ randomNumber[playerB])) */\n      dup1\n      mload\n      swap1\n      0x20\n      add\n      keccak256\n        /* \"s1911027.sol\":2815:2898  uint256(keccak256(abi.encodePacked(randomNumber[playerA] ^ randomNumber[playerB]))) */\n      0x00\n      shr\n        /* \"s1911027.sol\":2815:2902  uint256(keccak256(abi.encodePacked(randomNumber[playerA] ^ randomNumber[playerB]))) % 6 */\n      tag_70\n      swap2\n      swap1\n      tag_71\n      jump\t// in\n    tag_70:\n        /* \"s1911027.sol\":2811:2812  1 */\n      0x01\n        /* \"s1911027.sol\":2811:2902  1 + uint256(keccak256(abi.encodePacked(randomNumber[playerA] ^ randomNumber[playerB]))) % 6 */\n      tag_72\n      swap2\n      swap1\n      tag_73\n      jump\t// in\n    tag_72:\n        /* \"s1911027.sol\":2804:2808  dice */\n      0x03\n        /* \"s1911027.sol\":2804:2902  dice = 1 + uint256(keccak256(abi.encodePacked(randomNumber[playerA] ^ randomNumber[playerB]))) % 6 */\n      dup2\n      swap1\n      sstore\n      pop\n        /* \"s1911027.sol\":2939:2940  4 */\n      0x04\n        /* \"s1911027.sol\":2932:2936  dice */\n      sload(0x03)\n        /* \"s1911027.sol\":2932:2940  dice < 4 */\n      lt\n        /* \"s1911027.sol\":2928:3140  if (dice < 4) {\r... */\n      iszero\n      tag_74\n      jumpi\n        /* \"s1911027.sol\":2977:2981  dice */\n      sload(0x03)\n        /* \"s1911027.sol\":2957:2964  balance */\n      0x00\n        /* \"s1911027.sol\":2957:2973  balance[playerA] */\n      dup1\n        /* \"s1911027.sol\":2965:2972  playerA */\n      0x04\n      0x00\n      swap1\n      sload\n      swap1\n      0x0100\n      exp\n      swap1\n      div\n      0xffffffffffffffffffffffffffffffffffffffff\n      and\n        /* \"s1911027.sol\":2957:2973  balance[playerA] */\n      0xffffffffffffffffffffffffffffffffffffffff\n      and\n      0xffffffffffffffffffffffffffffffffffffffff\n      and\n      dup2\n      mstore\n      0x20\n      add\n      swap1\n      dup2\n      mstore\n      0x20\n      add\n      0x00\n      keccak256\n      0x00\n        /* \"s1911027.sol\":2957:2981  balance[playerA] += dice */\n      dup3\n      dup3\n      sload\n      tag_75\n      swap2\n      swap1\n      tag_73\n      jump\t// in\n    tag_75:\n      swap3\n      pop\n      pop\n      dup2\n      swap1\n      sstore\n      pop\n        /* \"s1911027.sol\":3016:3020  dice */\n      sload(0x03)\n        /* \"s1911027.sol\":2996:3003  balance */\n      0x00\n        /* \"s1911027.sol\":2996:3012  balance[playerB] */\n      dup1\n        /* \"s1911027.sol\":3004:3011  playerB */\n      0x05\n      0x00\n      swap1\n      sload\n      swap1\n      0x0100\n      exp\n      swap1\n      div\n      0xffffffffffffffffffffffffffffffffffffffff\n      and\n        /* \"s1911027.sol\":2996:3012  balance[playerB] */\n      0xffffffffffffffffffffffffffffffffffffffff\n      and\n      0xffffffffffffffffffffffffffffffffffffffff\n      and\n      dup2\n      mstore\n      0x20\n      add\n      swap1\n      dup2\n      mstore\n      0x20\n      add\n      0x00\n      keccak256\n      0x00\n        /* \"s1911027.sol\":2996:3020  balance[playerB] -= dice */\n      dup3\n      dup3\n      sload\n      tag_76\n      swap2\n      swap1\n      tag_77\n      jump\t// in\n    tag_76:\n      swap3\n      pop\n      pop\n      dup2\n      swap1\n      sstore\n      pop\n        /* \"s1911027.sol\":2928:3140  if (dice < 4) {\r... */\n      jump(tag_78)\n    tag_74:\n        /* \"s1911027.sol\":3081:3082  3 */\n      0x03\n        /* \"s1911027.sol\":3074:3078  dice */\n      dup1\n      sload\n        /* \"s1911027.sol\":3074:3082  dice - 3 */\n      tag_79\n      swap2\n      swap1\n      tag_77\n      jump\t// in\n    tag_79:\n        /* \"s1911027.sol\":3053:3060  balance */\n      0x00\n        /* \"s1911027.sol\":3053:3069  balance[playerA] */\n      dup1\n        /* \"s1911027.sol\":3061:3068  playerA */\n      0x04\n      0x00\n      swap1\n      sload\n      swap1\n      0x0100\n      exp\n      swap1\n      div\n      0xffffffffffffffffffffffffffffffffffffffff\n      and\n        /* \"s1911027.sol\":3053:3069  balance[playerA] */\n      0xffffffffffffffffffffffffffffffffffffffff\n      and\n      0xffffffffffffffffffffffffffffffffffffffff\n      and\n      dup2\n      mstore\n      0x20\n      add\n      swap1\n      dup2\n      mstore\n      0x20\n      add\n      0x00\n      keccak256\n      0x00\n        /* \"s1911027.sol\":3053:3083  balance[playerA] -= (dice - 3) */\n      dup3\n      dup3\n      sload\n      tag_80\n      swap2\n      swap1\n      tag_77\n      jump\t// in\n    tag_80:\n      swap3\n      pop\n      pop\n      dup2\n      swap1\n      sstore\n      pop\n        /* \"s1911027.sol\":3126:3127  3 */\n      0x03\n        /* \"s1911027.sol\":3119:3123  dice */\n      dup1\n      sload\n        /* \"s1911027.sol\":3119:3127  dice - 3 */\n      tag_81\n      swap2\n      swap1\n      tag_77\n      jump\t// in\n    tag_81:\n        /* \"s1911027.sol\":3098:3105  balance */\n      0x00\n        /* \"s1911027.sol\":3098:3114  balance[playerB] */\n      dup1\n        /* \"s1911027.sol\":3106:3113  playerB */\n      0x05\n      0x00\n      swap1\n      sload\n      swap1\n      0x0100\n      exp\n      swap1\n      div\n      0xffffffffffffffffffffffffffffffffffffffff\n      and\n        /* \"s1911027.sol\":3098:3114  balance[playerB] */\n      0xffffffffffffffffffffffffffffffffffffffff\n      and\n      0xffffffffffffffffffffffffffffffffffffffff\n      and\n      dup2\n      mstore\n      0x20\n      add\n      swap1\n      dup2\n      mstore\n      0x20\n      add\n      0x00\n      keccak256\n      0x00\n        /* \"s1911027.sol\":3098:3128  balance[playerB] += (dice - 3) */\n      dup3\n      dup3\n      sload\n      tag_82\n      swap2\n      swap1\n      tag_73\n      jump\t// in\n    tag_82:\n      swap3\n      pop\n      pop\n      dup2\n      swap1\n      sstore\n      pop\n        /* \"s1911027.sol\":2928:3140  if (dice < 4) {\r... */\n    tag_78:\n        /* \"s1911027.sol\":3157:3161  dice */\n      sload(0x03)\n        /* \"s1911027.sol\":3150:3161  return dice */\n      swap1\n      pop\n        /* \"s1911027.sol\":2239:3169  function StartRoll(uint256 secretNumber) public returns (uint256) {\r... */\n      swap2\n      swap1\n      pop\n      jump\t// out\n        /* \"s1911027.sol\":3868:4010  function GetSecretHash(uint256 secretNumber) public pure returns (bytes32) {\r... */\n    tag_29:\n        /* \"s1911027.sol\":3934:3941  bytes32 */\n      0x00\n        /* \"s1911027.sol\":3988:4000  secretNumber */\n      dup2\n        /* \"s1911027.sol\":3971:4001  abi.encodePacked(secretNumber) */\n      add(0x20, mload(0x40))\n      tag_84\n      swap2\n      swap1\n      tag_56\n      jump\t// in\n    tag_84:\n      mload(0x40)\n      0x20\n      dup2\n      dup4\n      sub\n      sub\n      dup2\n      mstore\n      swap1\n      0x40\n      mstore\n        /* \"s1911027.sol\":3961:4002  keccak256(abi.encodePacked(secretNumber)) */\n      dup1\n      mload\n      swap1\n      0x20\n      add\n      keccak256\n        /* \"s1911027.sol\":3954:4002  return keccak256(abi.encodePacked(secretNumber)) */\n      swap1\n      pop\n        /* \"s1911027.sol\":3868:4010  function GetSecretHash(uint256 secretNumber) public pure returns (bytes32) {\r... */\n      swap2\n      swap1\n      pop\n      jump\t// out\n        /* \"s1911027.sol\":3285:3858  function ResetGame(bool withdraw) public {\r... */\n    tag_36:\n        /* \"s1911027.sol\":3354:3361  playerA */\n      0x04\n      0x00\n      swap1\n      sload\n      swap1\n      0x0100\n      exp\n      swap1\n      div\n      0xffffffffffffffffffffffffffffffffffffffff\n      and\n        /* \"s1911027.sol\":3340:3361  msg.sender == playerA */\n      0xffffffffffffffffffffffffffffffffffffffff\n      and\n        /* \"s1911027.sol\":3340:3350  msg.sender */\n      caller\n        /* \"s1911027.sol\":3340:3361  msg.sender == playerA */\n      0xffffffffffffffffffffffffffffffffffffffff\n      and\n      eq\n        /* \"s1911027.sol\":3337:3568  if(msg.sender == playerA){\r... */\n      iszero\n      tag_86\n      jumpi\n        /* \"s1911027.sol\":3395:3396  0 */\n      0x00\n        /* \"s1911027.sol\":3377:3384  playerA */\n      0x04\n      0x00\n        /* \"s1911027.sol\":3377:3397  playerA = address(0) */\n      0x0100\n      exp\n      dup2\n      sload\n      dup2\n      0xffffffffffffffffffffffffffffffffffffffff\n      mul\n      not\n      and\n      swap1\n      dup4\n      0xffffffffffffffffffffffffffffffffffffffff\n      and\n      mul\n      or\n      swap1\n      sstore\n      pop\n        /* \"s1911027.sol\":3436:3437  0 */\n      0x00\n        /* \"s1911027.sol\":3412:3424  randomNumber */\n      0x02\n        /* \"s1911027.sol\":3412:3433  randomNumber[playerA] */\n      0x00\n        /* \"s1911027.sol\":3425:3432  playerA */\n      0x04\n      0x00\n      swap1\n      sload\n      swap1\n      0x0100\n      exp\n      swap1\n      div\n      0xffffffffffffffffffffffffffffffffffffffff\n      and\n        /* \"s1911027.sol\":3412:3433  randomNumber[playerA] */\n      0xffffffffffffffffffffffffffffffffffffffff\n      and\n      0xffffffffffffffffffffffffffffffffffffffff\n      and\n      dup2\n      mstore\n      0x20\n      add\n      swap1\n      dup2\n      mstore\n      0x20\n      add\n      0x00\n      keccak256\n        /* \"s1911027.sol\":3412:3437  randomNumber[playerA] = 0 */\n      dup2\n      swap1\n      sstore\n      pop\n        /* \"s1911027.sol\":3337:3568  if(msg.sender == playerA){\r... */\n      jump(tag_87)\n    tag_86:\n        /* \"s1911027.sol\":3473:3480  playerB */\n      0x05\n      0x00\n      swap1\n      sload\n      swap1\n      0x0100\n      exp\n      swap1\n      div\n      0xffffffffffffffffffffffffffffffffffffffff\n      and\n        /* \"s1911027.sol\":3459:3480  msg.sender == playerB */\n      0xffffffffffffffffffffffffffffffffffffffff\n      and\n        /* \"s1911027.sol\":3459:3469  msg.sender */\n      caller\n        /* \"s1911027.sol\":3459:3480  msg.sender == playerB */\n      0xffffffffffffffffffffffffffffffffffffffff\n      and\n      eq\n        /* \"s1911027.sol\":3455:3568  if (msg.sender == playerB){\r... */\n      iszero\n      tag_88\n      jumpi\n        /* \"s1911027.sol\":3514:3515  0 */\n      0x00\n        /* \"s1911027.sol\":3496:3503  playerB */\n      0x05\n      0x00\n        /* \"s1911027.sol\":3496:3516  playerB = address(0) */\n      0x0100\n      exp\n      dup2\n      sload\n      dup2\n      0xffffffffffffffffffffffffffffffffffffffff\n      mul\n      not\n      and\n      swap1\n      dup4\n      0xffffffffffffffffffffffffffffffffffffffff\n      and\n      mul\n      or\n      swap1\n      sstore\n      pop\n        /* \"s1911027.sol\":3555:3556  0 */\n      0x00\n        /* \"s1911027.sol\":3531:3543  randomNumber */\n      0x02\n        /* \"s1911027.sol\":3531:3552  randomNumber[playerB] */\n      0x00\n        /* \"s1911027.sol\":3544:3551  playerB */\n      0x05\n      0x00\n      swap1\n      sload\n      swap1\n      0x0100\n      exp\n      swap1\n      div\n      0xffffffffffffffffffffffffffffffffffffffff\n      and\n        /* \"s1911027.sol\":3531:3552  randomNumber[playerB] */\n      0xffffffffffffffffffffffffffffffffffffffff\n      and\n      0xffffffffffffffffffffffffffffffffffffffff\n      and\n      dup2\n      mstore\n      0x20\n      add\n      swap1\n      dup2\n      mstore\n      0x20\n      add\n      0x00\n      keccak256\n        /* \"s1911027.sol\":3531:3556  randomNumber[playerB] = 0 */\n      dup2\n      swap1\n      sstore\n      pop\n        /* \"s1911027.sol\":3455:3568  if (msg.sender == playerB){\r... */\n    tag_88:\n        /* \"s1911027.sol\":3337:3568  if(msg.sender == playerA){\r... */\n    tag_87:\n        /* \"s1911027.sol\":3603:3604  0 */\n      0x00\n        /* \"s1911027.sol\":3584:3605  playerA == address(0) */\n      0xffffffffffffffffffffffffffffffffffffffff\n      and\n        /* \"s1911027.sol\":3584:3591  playerA */\n      0x04\n      0x00\n      swap1\n      sload\n      swap1\n      0x0100\n      exp\n      swap1\n      div\n      0xffffffffffffffffffffffffffffffffffffffff\n      and\n        /* \"s1911027.sol\":3584:3605  playerA == address(0) */\n      0xffffffffffffffffffffffffffffffffffffffff\n      and\n      eq\n        /* \"s1911027.sol\":3584:3630  playerA == address(0) && playerB == address(0) */\n      dup1\n      iszero\n      tag_89\n      jumpi\n      pop\n        /* \"s1911027.sol\":3628:3629  0 */\n      0x00\n        /* \"s1911027.sol\":3609:3630  playerB == address(0) */\n      0xffffffffffffffffffffffffffffffffffffffff\n      and\n        /* \"s1911027.sol\":3609:3616  playerB */\n      0x05\n      0x00\n      swap1\n      sload\n      swap1\n      0x0100\n      exp\n      swap1\n      div\n      0xffffffffffffffffffffffffffffffffffffffff\n      and\n        /* \"s1911027.sol\":3609:3630  playerB == address(0) */\n      0xffffffffffffffffffffffffffffffffffffffff\n      and\n      eq\n        /* \"s1911027.sol\":3584:3630  playerA == address(0) && playerB == address(0) */\n    tag_89:\n        /* \"s1911027.sol\":3580:3667  if (playerA == address(0) && playerB == address(0)) {\r... */\n      iszero\n      tag_90\n      jumpi\n        /* \"s1911027.sol\":3654:3655  0 */\n      0x00\n        /* \"s1911027.sol\":3647:3651  dice */\n      0x03\n        /* \"s1911027.sol\":3647:3655  dice = 0 */\n      dup2\n      swap1\n      sstore\n      pop\n        /* \"s1911027.sol\":3580:3667  if (playerA == address(0) && playerB == address(0)) {\r... */\n    tag_90:\n        /* \"s1911027.sol\":3695:3699  true */\n      0x01\n        /* \"s1911027.sol\":3683:3699  withdraw == true */\n      iszero\n      iszero\n        /* \"s1911027.sol\":3683:3691  withdraw */\n      dup2\n        /* \"s1911027.sol\":3683:3699  withdraw == true */\n      iszero\n      iszero\n      eq\n        /* \"s1911027.sol\":3679:3851  if (withdraw == true) {\r... */\n      iszero\n      tag_91\n      jumpi\n        /* \"s1911027.sol\":3716:3729  uint256 value */\n      0x00\n        /* \"s1911027.sol\":3732:3739  balance */\n      dup1\n        /* \"s1911027.sol\":3732:3751  balance[msg.sender] */\n      0x00\n        /* \"s1911027.sol\":3740:3750  msg.sender */\n      caller\n        /* \"s1911027.sol\":3732:3751  balance[msg.sender] */\n      0xffffffffffffffffffffffffffffffffffffffff\n      and\n      0xffffffffffffffffffffffffffffffffffffffff\n      and\n      dup2\n      mstore\n      0x20\n      add\n      swap1\n      dup2\n      mstore\n      0x20\n      add\n      0x00\n      keccak256\n      sload\n        /* \"s1911027.sol\":3716:3751  uint256 value = balance[msg.sender] */\n      swap1\n      pop\n        /* \"s1911027.sol\":3788:3789  0 */\n      0x00\n        /* \"s1911027.sol\":3766:3773  balance */\n      dup1\n        /* \"s1911027.sol\":3766:3785  balance[msg.sender] */\n      0x00\n        /* \"s1911027.sol\":3774:3784  msg.sender */\n      caller\n        /* \"s1911027.sol\":3766:3785  balance[msg.sender] */\n      0xffffffffffffffffffffffffffffffffffffffff\n      and\n      0xffffffffffffffffffffffffffffffffffffffff\n      and\n      dup2\n      mstore\n      0x20\n      add\n      swap1\n      dup2\n      mstore\n      0x20\n      add\n      0x00\n      keccak256\n        /* \"s1911027.sol\":3766:3789  balance[msg.sender] = 0 */\n      dup2\n      swap1\n      sstore\n      pop\n        /* \"s1911027.sol\":3812:3822  msg.sender */\n      caller\n        /* \"s1911027.sol\":3804:3832  payable(msg.sender).transfer */\n      0xffffffffffffffffffffffffffffffffffffffff\n      and\n        /* \"s1911027.sol\":3804:3839  payable(msg.sender).transfer(value) */\n      0x08fc\n        /* \"s1911027.sol\":3833:3838  value */\n      dup3\n        /* \"s1911027.sol\":3804:3839  payable(msg.sender).transfer(value) */\n      swap1\n      dup2\n      iszero\n      mul\n      swap1\n      mload(0x40)\n      0x00\n      mload(0x40)\n      dup1\n      dup4\n      sub\n      dup2\n      dup6\n      dup9\n      dup9\n      call\n      swap4\n      pop\n      pop\n      pop\n      pop\n      iszero\n      dup1\n      iszero\n      tag_93\n      jumpi\n      returndatasize\n      0x00\n      dup1\n      returndatacopy\n      revert(0x00, returndatasize)\n    tag_93:\n      pop\n        /* \"s1911027.sol\":3701:3851  {\r... */\n      pop\n        /* \"s1911027.sol\":3679:3851  if (withdraw == true) {\r... */\n    tag_91:\n        /* \"s1911027.sol\":3285:3858  function ResetGame(bool withdraw) public {\r... */\n      pop\n      jump\t// out\n        /* \"s1911027.sol\":1868:2229  function Deposit() public payable {\r... */\n    tag_38:\n        /* \"s1911027.sol\":2016:2020  3e18 */\n      0x29a2241af62c0000\n        /* \"s1911027.sol\":2004:2013  msg.value */\n      callvalue\n        /* \"s1911027.sol\":1982:1989  balance */\n      0x00\n        /* \"s1911027.sol\":1982:2001  balance[msg.sender] */\n      dup1\n        /* \"s1911027.sol\":1990:2000  msg.sender */\n      caller\n        /* \"s1911027.sol\":1982:2001  balance[msg.sender] */\n      0xffffffffffffffffffffffffffffffffffffffff\n      and\n      0xffffffffffffffffffffffffffffffffffffffff\n      and\n      dup2\n      mstore\n      0x20\n      add\n      swap1\n      dup2\n      mstore\n      0x20\n      add\n      0x00\n      keccak256\n      sload\n        /* \"s1911027.sol\":1982:2013  balance[msg.sender] + msg.value */\n      tag_95\n      swap2\n      swap1\n      tag_73\n      jump\t// in\n    tag_95:\n        /* \"s1911027.sol\":1982:2020  balance[msg.sender] + msg.value > 3e18 */\n      gt\n        /* \"s1911027.sol\":1974:2072  require(balance[msg.sender] + msg.value > 3e18, \"You must have at least 3 eth to start the game.\") */\n      tag_96\n      jumpi\n      mload(0x40)\n      0x08c379a000000000000000000000000000000000000000000000000000000000\n      dup2\n      mstore\n      0x04\n      add\n      tag_97\n      swap1\n      tag_98\n      jump\t// in\n    tag_97:\n      mload(0x40)\n      dup1\n      swap2\n      sub\n      swap1\n      revert\n    tag_96:\n        /* \"s1911027.sol\":2102:2112  msg.sender */\n      caller\n        /* \"s1911027.sol\":2091:2112  playerA == msg.sender */\n      0xffffffffffffffffffffffffffffffffffffffff\n      and\n        /* \"s1911027.sol\":2091:2098  playerA */\n      0x04\n      0x00\n      swap1\n      sload\n      swap1\n      0x0100\n      exp\n      swap1\n      div\n      0xffffffffffffffffffffffffffffffffffffffff\n      and\n        /* \"s1911027.sol\":2091:2112  playerA == msg.sender */\n      0xffffffffffffffffffffffffffffffffffffffff\n      and\n      eq\n        /* \"s1911027.sol\":2091:2137  playerA == msg.sender || playerB == msg.sender */\n      dup1\n      tag_99\n      jumpi\n      pop\n        /* \"s1911027.sol\":2127:2137  msg.sender */\n      caller\n        /* \"s1911027.sol\":2116:2137  playerB == msg.sender */\n      0xffffffffffffffffffffffffffffffffffffffff\n      and\n        /* \"s1911027.sol\":2116:2123  playerB */\n      0x05\n      0x00\n      swap1\n      sload\n      swap1\n      0x0100\n      exp\n      swap1\n      div\n      0xffffffffffffffffffffffffffffffffffffffff\n      and\n        /* \"s1911027.sol\":2116:2137  playerB == msg.sender */\n      0xffffffffffffffffffffffffffffffffffffffff\n      and\n      eq\n        /* \"s1911027.sol\":2091:2137  playerA == msg.sender || playerB == msg.sender */\n    tag_99:\n        /* \"s1911027.sol\":2083:2176  require(playerA == msg.sender || playerB == msg.sender, \"You are not registered as a player\") */\n      tag_100\n      jumpi\n      mload(0x40)\n      0x08c379a000000000000000000000000000000000000000000000000000000000\n      dup2\n      mstore\n      0x04\n      add\n      tag_101\n      swap1\n      tag_102\n      jump\t// in\n    tag_101:\n      mload(0x40)\n      dup1\n      swap2\n      sub\n      swap1\n      revert\n    tag_100:\n        /* \"s1911027.sol\":2212:2221  msg.value */\n      callvalue\n        /* \"s1911027.sol\":2189:2196  balance */\n      0x00\n        /* \"s1911027.sol\":2189:2208  balance[msg.sender] */\n      dup1\n        /* \"s1911027.sol\":2197:2207  msg.sender */\n      caller\n        /* \"s1911027.sol\":2189:2208  balance[msg.sender] */\n      0xffffffffffffffffffffffffffffffffffffffff\n      and\n      0xffffffffffffffffffffffffffffffffffffffff\n      and\n      dup2\n      mstore\n      0x20\n      add\n      swap1\n      dup2\n      mstore\n      0x20\n      add\n      0x00\n      keccak256\n      0x00\n        /* \"s1911027.sol\":2189:2221  balance[msg.sender] += msg.value */\n      dup3\n      dup3\n      sload\n      tag_103\n      swap2\n      swap1\n      tag_73\n      jump\t// in\n    tag_103:\n      swap3\n      pop\n      pop\n      dup2\n      swap1\n      sstore\n      pop\n        /* \"s1911027.sol\":1868:2229  function Deposit() public payable {\r... */\n      jump\t// out\n        /* \"s1911027.sol\":1086:1442  function RegisterPlayerA(bytes32 hashvalue) public {\r... */\n    tag_42:\n        /* \"s1911027.sol\":1169:1170  0 */\n      0x00\n        /* \"s1911027.sol\":1156:1170  hashvalue != 0 */\n      dup1\n      shl\n        /* \"s1911027.sol\":1156:1165  hashvalue */\n      dup2\n        /* \"s1911027.sol\":1156:1170  hashvalue != 0 */\n      eq\n      iszero\n        /* \"s1911027.sol\":1148:1203  require(hashvalue != 0, \"please enter your commitment\") */\n      tag_105\n      jumpi\n      mload(0x40)\n      0x08c379a000000000000000000000000000000000000000000000000000000000\n      dup2\n      mstore\n      0x04\n      add\n      tag_106\n      swap1\n      tag_47\n      jump\t// in\n    tag_106:\n      mload(0x40)\n      dup1\n      swap2\n      sub\n      swap1\n      revert\n    tag_105:\n        /* \"s1911027.sol\":1241:1242  0 */\n      0x00\n        /* \"s1911027.sol\":1222:1243  playerA == address(0) */\n      0xffffffffffffffffffffffffffffffffffffffff\n      and\n        /* \"s1911027.sol\":1222:1229  playerA */\n      0x04\n      0x00\n      swap1\n      sload\n      swap1\n      0x0100\n      exp\n      swap1\n      div\n      0xffffffffffffffffffffffffffffffffffffffff\n      and\n        /* \"s1911027.sol\":1222:1243  playerA == address(0) */\n      0xffffffffffffffffffffffffffffffffffffffff\n      and\n      eq\n        /* \"s1911027.sol\":1214:1276  require(playerA == address(0), \"Player A has been registered\") */\n      tag_107\n      jumpi\n      mload(0x40)\n      0x08c379a000000000000000000000000000000000000000000000000000000000\n      dup2\n      mstore\n      0x04\n      add\n      tag_108\n      swap1\n      tag_109\n      jump\t// in\n    tag_108:\n      mload(0x40)\n      dup1\n      swap2\n      sub\n      swap1\n      revert\n    tag_107:\n        /* \"s1911027.sol\":1306:1316  msg.sender */\n      caller\n        /* \"s1911027.sol\":1295:1316  playerB != msg.sender */\n      0xffffffffffffffffffffffffffffffffffffffff\n      and\n        /* \"s1911027.sol\":1295:1302  playerB */\n      0x05\n      0x00\n      swap1\n      sload\n      swap1\n      0x0100\n      exp\n      swap1\n      div\n      0xffffffffffffffffffffffffffffffffffffffff\n      and\n        /* \"s1911027.sol\":1295:1316  playerB != msg.sender */\n      0xffffffffffffffffffffffffffffffffffffffff\n      and\n      eq\n      iszero\n        /* \"s1911027.sol\":1287:1356  require(playerB != msg.sender, \"You has been registered as player B\") */\n      tag_110\n      jumpi\n      mload(0x40)\n      0x08c379a000000000000000000000000000000000000000000000000000000000\n      dup2\n      mstore\n      0x04\n      add\n      tag_111\n      swap1\n      tag_112\n      jump\t// in\n    tag_111:\n      mload(0x40)\n      dup1\n      swap2\n      sub\n      swap1\n      revert\n    tag_110:\n        /* \"s1911027.sol\":1379:1389  msg.sender */\n      caller\n        /* \"s1911027.sol\":1369:1376  playerA */\n      0x04\n      0x00\n        /* \"s1911027.sol\":1369:1389  playerA = msg.sender */\n      0x0100\n      exp\n      dup2\n      sload\n      dup2\n      0xffffffffffffffffffffffffffffffffffffffff\n      mul\n      not\n      and\n      swap1\n      dup4\n      0xffffffffffffffffffffffffffffffffffffffff\n      and\n      mul\n      or\n      swap1\n      sstore\n      pop\n        /* \"s1911027.sol\":1425:1434  hashvalue */\n      dup1\n        /* \"s1911027.sol\":1400:1410  commitment */\n      0x01\n        /* \"s1911027.sol\":1400:1422  commitment[msg.sender] */\n      0x00\n        /* \"s1911027.sol\":1411:1421  msg.sender */\n      caller\n        /* \"s1911027.sol\":1400:1422  commitment[msg.sender] */\n      0xffffffffffffffffffffffffffffffffffffffff\n      and\n      0xffffffffffffffffffffffffffffffffffffffff\n      and\n      dup2\n      mstore\n      0x20\n      add\n      swap1\n      dup2\n      mstore\n      0x20\n      add\n      0x00\n      keccak256\n        /* \"s1911027.sol\":1400:1434  commitment[msg.sender] = hashvalue */\n      dup2\n      swap1\n      sstore\n      pop\n        /* \"s1911027.sol\":1086:1442  function RegisterPlayerA(bytes32 hashvalue) public {\r... */\n      pop\n      jump\t// out\n        /* \"#utility.yul\":7:140   */\n    tag_114:\n        /* \"#utility.yul\":50:55   */\n      0x00\n        /* \"#utility.yul\":88:94   */\n      dup2\n        /* \"#utility.yul\":75:95   */\n      calldataload\n        /* \"#utility.yul\":66:95   */\n      swap1\n      pop\n        /* \"#utility.yul\":104:134   */\n      tag_116\n        /* \"#utility.yul\":128:133   */\n      dup2\n        /* \"#utility.yul\":104:134   */\n      tag_117\n      jump\t// in\n    tag_116:\n        /* \"#utility.yul\":7:140   */\n      swap3\n      swap2\n      pop\n      pop\n      jump\t// out\n        /* \"#utility.yul\":146:285   */\n    tag_118:\n        /* \"#utility.yul\":192:197   */\n      0x00\n        /* \"#utility.yul\":230:236   */\n      dup2\n        /* \"#utility.yul\":217:237   */\n      calldataload\n        /* \"#utility.yul\":208:237   */\n      swap1\n      pop\n        /* \"#utility.yul\":246:279   */\n      tag_120\n        /* \"#utility.yul\":273:278   */\n      dup2\n        /* \"#utility.yul\":246:279   */\n      tag_121\n      jump\t// in\n    tag_120:\n        /* \"#utility.yul\":146:285   */\n      swap3\n      swap2\n      pop\n      pop\n      jump\t// out\n        /* \"#utility.yul\":291:430   */\n    tag_122:\n        /* \"#utility.yul\":337:342   */\n      0x00\n        /* \"#utility.yul\":375:381   */\n      dup2\n        /* \"#utility.yul\":362:382   */\n      calldataload\n        /* \"#utility.yul\":353:382   */\n      swap1\n      pop\n        /* \"#utility.yul\":391:424   */\n      tag_124\n        /* \"#utility.yul\":418:423   */\n      dup2\n        /* \"#utility.yul\":391:424   */\n      tag_125\n      jump\t// in\n    tag_124:\n        /* \"#utility.yul\":291:430   */\n      swap3\n      swap2\n      pop\n      pop\n      jump\t// out\n        /* \"#utility.yul\":436:759   */\n    tag_35:\n        /* \"#utility.yul\":492:498   */\n      0x00\n        /* \"#utility.yul\":541:543   */\n      0x20\n        /* \"#utility.yul\":529:538   */\n      dup3\n        /* \"#utility.yul\":520:527   */\n      dup5\n        /* \"#utility.yul\":516:539   */\n      sub\n        /* \"#utility.yul\":512:544   */\n      slt\n        /* \"#utility.yul\":509:628   */\n      iszero\n      tag_127\n      jumpi\n        /* \"#utility.yul\":547:626   */\n      tag_128\n      tag_129\n      jump\t// in\n    tag_128:\n        /* \"#utility.yul\":509:628   */\n    tag_127:\n        /* \"#utility.yul\":667:668   */\n      0x00\n        /* \"#utility.yul\":692:742   */\n      tag_130\n        /* \"#utility.yul\":734:741   */\n      dup5\n        /* \"#utility.yul\":725:731   */\n      dup3\n        /* \"#utility.yul\":714:723   */\n      dup6\n        /* \"#utility.yul\":710:732   */\n      add\n        /* \"#utility.yul\":692:742   */\n      tag_114\n      jump\t// in\n    tag_130:\n        /* \"#utility.yul\":682:742   */\n      swap2\n      pop\n        /* \"#utility.yul\":638:752   */\n      pop\n        /* \"#utility.yul\":436:759   */\n      swap3\n      swap2\n      pop\n      pop\n      jump\t// out\n        /* \"#utility.yul\":765:1094   */\n    tag_18:\n        /* \"#utility.yul\":824:830   */\n      0x00\n        /* \"#utility.yul\":873:875   */\n      0x20\n        /* \"#utility.yul\":861:870   */\n      dup3\n        /* \"#utility.yul\":852:859   */\n      dup5\n        /* \"#utility.yul\":848:871   */\n      sub\n        /* \"#utility.yul\":844:876   */\n      slt\n        /* \"#utility.yul\":841:960   */\n      iszero\n      tag_132\n      jumpi\n        /* \"#utility.yul\":879:958   */\n      tag_133\n      tag_129\n      jump\t// in\n    tag_133:\n        /* \"#utility.yul\":841:960   */\n    tag_132:\n        /* \"#utility.yul\":999:1000   */\n      0x00\n        /* \"#utility.yul\":1024:1077   */\n      tag_134\n        /* \"#utility.yul\":1069:1076   */\n      dup5\n        /* \"#utility.yul\":1060:1066   */\n      dup3\n        /* \"#utility.yul\":1049:1058   */\n      dup6\n        /* \"#utility.yul\":1045:1067   */\n      add\n        /* \"#utility.yul\":1024:1077   */\n      tag_118\n      jump\t// in\n    tag_134:\n        /* \"#utility.yul\":1014:1077   */\n      swap2\n      pop\n        /* \"#utility.yul\":970:1087   */\n      pop\n        /* \"#utility.yul\":765:1094   */\n      swap3\n      swap2\n      pop\n      pop\n      jump\t// out\n        /* \"#utility.yul\":1100:1429   */\n    tag_23:\n        /* \"#utility.yul\":1159:1165   */\n      0x00\n        /* \"#utility.yul\":1208:1210   */\n      0x20\n        /* \"#utility.yul\":1196:1205   */\n      dup3\n        /* \"#utility.yul\":1187:1194   */\n      dup5\n        /* \"#utility.yul\":1183:1206   */\n      sub\n        /* \"#utility.yul\":1179:1211   */\n      slt\n        /* \"#utility.yul\":1176:1295   */\n      iszero\n      tag_136\n      jumpi\n        /* \"#utility.yul\":1214:1293   */\n      tag_137\n      tag_129\n      jump\t// in\n    tag_137:\n        /* \"#utility.yul\":1176:1295   */\n    tag_136:\n        /* \"#utility.yul\":1334:1335   */\n      0x00\n        /* \"#utility.yul\":1359:1412   */\n      tag_138\n        /* \"#utility.yul\":1404:1411   */\n      dup5\n        /* \"#utility.yul\":1395:1401   */\n      dup3\n        /* \"#utility.yul\":1384:1393   */\n      dup6\n        /* \"#utility.yul\":1380:1402   */\n      add\n        /* \"#utility.yul\":1359:1412   */\n      tag_122\n      jump\t// in\n    tag_138:\n        /* \"#utility.yul\":1349:1412   */\n      swap2\n      pop\n        /* \"#utility.yul\":1305:1422   */\n      pop\n        /* \"#utility.yul\":1100:1429   */\n      swap3\n      swap2\n      pop\n      pop\n      jump\t// out\n        /* \"#utility.yul\":1435:1553   */\n    tag_139:\n        /* \"#utility.yul\":1522:1546   */\n      tag_141\n        /* \"#utility.yul\":1540:1545   */\n      dup2\n        /* \"#utility.yul\":1522:1546   */\n      tag_142\n      jump\t// in\n    tag_141:\n        /* \"#utility.yul\":1517:1520   */\n      dup3\n        /* \"#utility.yul\":1510:1547   */\n      mstore\n        /* \"#utility.yul\":1435:1553   */\n      pop\n      pop\n      jump\t// out\n        /* \"#utility.yul\":1559:1925   */\n    tag_143:\n        /* \"#utility.yul\":1701:1704   */\n      0x00\n        /* \"#utility.yul\":1722:1789   */\n      tag_145\n        /* \"#utility.yul\":1786:1788   */\n      0x2f\n        /* \"#utility.yul\":1781:1784   */\n      dup4\n        /* \"#utility.yul\":1722:1789   */\n      tag_146\n      jump\t// in\n    tag_145:\n        /* \"#utility.yul\":1715:1789   */\n      swap2\n      pop\n        /* \"#utility.yul\":1798:1891   */\n      tag_147\n        /* \"#utility.yul\":1887:1890   */\n      dup3\n        /* \"#utility.yul\":1798:1891   */\n      tag_148\n      jump\t// in\n    tag_147:\n        /* \"#utility.yul\":1916:1918   */\n      0x40\n        /* \"#utility.yul\":1911:1914   */\n      dup3\n        /* \"#utility.yul\":1907:1919   */\n      add\n        /* \"#utility.yul\":1900:1919   */\n      swap1\n      pop\n        /* \"#utility.yul\":1559:1925   */\n      swap2\n      swap1\n      pop\n      jump\t// out\n        /* \"#utility.yul\":1931:2297   */\n    tag_149:\n        /* \"#utility.yul\":2073:2076   */\n      0x00\n        /* \"#utility.yul\":2094:2161   */\n      tag_151\n        /* \"#utility.yul\":2158:2160   */\n      0x23\n        /* \"#utility.yul\":2153:2156   */\n      dup4\n        /* \"#utility.yul\":2094:2161   */\n      tag_146\n      jump\t// in\n    tag_151:\n        /* \"#utility.yul\":2087:2161   */\n      swap2\n      pop\n        /* \"#utility.yul\":2170:2263   */\n      tag_152\n        /* \"#utility.yul\":2259:2262   */\n      dup3\n        /* \"#utility.yul\":2170:2263   */\n      tag_153\n      jump\t// in\n    tag_152:\n        /* \"#utility.yul\":2288:2290   */\n      0x40\n        /* \"#utility.yul\":2283:2286   */\n      dup3\n        /* \"#utility.yul\":2279:2291   */\n      add\n        /* \"#utility.yul\":2272:2291   */\n      swap1\n      pop\n        /* \"#utility.yul\":1931:2297   */\n      swap2\n      swap1\n      pop\n      jump\t// out\n        /* \"#utility.yul\":2303:2669   */\n    tag_154:\n        /* \"#utility.yul\":2445:2448   */\n      0x00\n        /* \"#utility.yul\":2466:2533   */\n      tag_156\n        /* \"#utility.yul\":2530:2532   */\n      0x1c\n        /* \"#utility.yul\":2525:2528   */\n      dup4\n        /* \"#utility.yul\":2466:2533   */\n      tag_146\n      jump\t// in\n    tag_156:\n        /* \"#utility.yul\":2459:2533   */\n      swap2\n      pop\n        /* \"#utility.yul\":2542:2635   */\n      tag_157\n        /* \"#utility.yul\":2631:2634   */\n      dup3\n        /* \"#utility.yul\":2542:2635   */\n      tag_158\n      jump\t// in\n    tag_157:\n        /* \"#utility.yul\":2660:2662   */\n      0x20\n        /* \"#utility.yul\":2655:2658   */\n      dup3\n        /* \"#utility.yul\":2651:2663   */\n      add\n        /* \"#utility.yul\":2644:2663   */\n      swap1\n      pop\n        /* \"#utility.yul\":2303:2669   */\n      swap2\n      swap1\n      pop\n      jump\t// out\n        /* \"#utility.yul\":2675:3041   */\n    tag_159:\n        /* \"#utility.yul\":2817:2820   */\n      0x00\n        /* \"#utility.yul\":2838:2905   */\n      tag_161\n        /* \"#utility.yul\":2902:2904   */\n      0x26\n        /* \"#utility.yul\":2897:2900   */\n      dup4\n        /* \"#utility.yul\":2838:2905   */\n      tag_146\n      jump\t// in\n    tag_161:\n        /* \"#utility.yul\":2831:2905   */\n      swap2\n      pop\n        /* \"#utility.yul\":2914:3007   */\n      tag_162\n        /* \"#utility.yul\":3003:3006   */\n      dup3\n        /* \"#utility.yul\":2914:3007   */\n      tag_163\n      jump\t// in\n    tag_162:\n        /* \"#utility.yul\":3032:3034   */\n      0x40\n        /* \"#utility.yul\":3027:3030   */\n      dup3\n        /* \"#utility.yul\":3023:3035   */\n      add\n        /* \"#utility.yul\":3016:3035   */\n      swap1\n      pop\n        /* \"#utility.yul\":2675:3041   */\n      swap2\n      swap1\n      pop\n      jump\t// out\n        /* \"#utility.yul\":3047:3413   */\n    tag_164:\n        /* \"#utility.yul\":3189:3192   */\n      0x00\n        /* \"#utility.yul\":3210:3277   */\n      tag_166\n        /* \"#utility.yul\":3274:3276   */\n      0x22\n        /* \"#utility.yul\":3269:3272   */\n      dup4\n        /* \"#utility.yul\":3210:3277   */\n      tag_146\n      jump\t// in\n    tag_166:\n        /* \"#utility.yul\":3203:3277   */\n      swap2\n      pop\n        /* \"#utility.yul\":3286:3379   */\n      tag_167\n        /* \"#utility.yul\":3375:3378   */\n      dup3\n        /* \"#utility.yul\":3286:3379   */\n      tag_168\n      jump\t// in\n    tag_167:\n        /* \"#utility.yul\":3404:3406   */\n      0x40\n        /* \"#utility.yul\":3399:3402   */\n      dup3\n        /* \"#utility.yul\":3395:3407   */\n      add\n        /* \"#utility.yul\":3388:3407   */\n      swap1\n      pop\n        /* \"#utility.yul\":3047:3413   */\n      swap2\n      swap1\n      pop\n      jump\t// out\n        /* \"#utility.yul\":3419:3785   */\n    tag_169:\n        /* \"#utility.yul\":3561:3564   */\n      0x00\n        /* \"#utility.yul\":3582:3649   */\n      tag_171\n        /* \"#utility.yul\":3646:3648   */\n      0x16\n        /* \"#utility.yul\":3641:3644   */\n      dup4\n        /* \"#utility.yul\":3582:3649   */\n      tag_146\n      jump\t// in\n    tag_171:\n        /* \"#utility.yul\":3575:3649   */\n      swap2\n      pop\n        /* \"#utility.yul\":3658:3751   */\n      tag_172\n        /* \"#utility.yul\":3747:3750   */\n      dup3\n        /* \"#utility.yul\":3658:3751   */\n      tag_173\n      jump\t// in\n    tag_172:\n        /* \"#utility.yul\":3776:3778   */\n      0x20\n        /* \"#utility.yul\":3771:3774   */\n      dup3\n        /* \"#utility.yul\":3767:3779   */\n      add\n        /* \"#utility.yul\":3760:3779   */\n      swap1\n      pop\n        /* \"#utility.yul\":3419:3785   */\n      swap2\n      swap1\n      pop\n      jump\t// out\n        /* \"#utility.yul\":3791:4157   */\n    tag_174:\n        /* \"#utility.yul\":3933:3936   */\n      0x00\n        /* \"#utility.yul\":3954:4021   */\n      tag_176\n        /* \"#utility.yul\":4018:4020   */\n      0x16\n        /* \"#utility.yul\":4013:4016   */\n      dup4\n        /* \"#utility.yul\":3954:4021   */\n      tag_146\n      jump\t// in\n    tag_176:\n        /* \"#utility.yul\":3947:4021   */\n      swap2\n      pop\n        /* \"#utility.yul\":4030:4123   */\n      tag_177\n        /* \"#utility.yul\":4119:4122   */\n      dup3\n        /* \"#utility.yul\":4030:4123   */\n      tag_178\n      jump\t// in\n    tag_177:\n        /* \"#utility.yul\":4148:4150   */\n      0x20\n        /* \"#utility.yul\":4143:4146   */\n      dup3\n        /* \"#utility.yul\":4139:4151   */\n      add\n        /* \"#utility.yul\":4132:4151   */\n      swap1\n      pop\n        /* \"#utility.yul\":3791:4157   */\n      swap2\n      swap1\n      pop\n      jump\t// out\n        /* \"#utility.yul\":4163:4529   */\n    tag_179:\n        /* \"#utility.yul\":4305:4308   */\n      0x00\n        /* \"#utility.yul\":4326:4393   */\n      tag_181\n        /* \"#utility.yul\":4390:4392   */\n      0x1c\n        /* \"#utility.yul\":4385:4388   */\n      dup4\n        /* \"#utility.yul\":4326:4393   */\n      tag_146\n      jump\t// in\n    tag_181:\n        /* \"#utility.yul\":4319:4393   */\n      swap2\n      pop\n        /* \"#utility.yul\":4402:4495   */\n      tag_182\n        /* \"#utility.yul\":4491:4494   */\n      dup3\n        /* \"#utility.yul\":4402:4495   */\n      tag_183\n      jump\t// in\n    tag_182:\n        /* \"#utility.yul\":4520:4522   */\n      0x20\n        /* \"#utility.yul\":4515:4518   */\n      dup3\n        /* \"#utility.yul\":4511:4523   */\n      add\n        /* \"#utility.yul\":4504:4523   */\n      swap1\n      pop\n        /* \"#utility.yul\":4163:4529   */\n      swap2\n      swap1\n      pop\n      jump\t// out\n        /* \"#utility.yul\":4535:4901   */\n    tag_184:\n        /* \"#utility.yul\":4677:4680   */\n      0x00\n        /* \"#utility.yul\":4698:4765   */\n      tag_186\n        /* \"#utility.yul\":4762:4764   */\n      0x12\n        /* \"#utility.yul\":4757:4760   */\n      dup4\n        /* \"#utility.yul\":4698:4765   */\n      tag_146\n      jump\t// in\n    tag_186:\n        /* \"#utility.yul\":4691:4765   */\n      swap2\n      pop\n        /* \"#utility.yul\":4774:4867   */\n      tag_187\n        /* \"#utility.yul\":4863:4866   */\n      dup3\n        /* \"#utility.yul\":4774:4867   */\n      tag_188\n      jump\t// in\n    tag_187:\n        /* \"#utility.yul\":4892:4894   */\n      0x20\n        /* \"#utility.yul\":4887:4890   */\n      dup3\n        /* \"#utility.yul\":4883:4895   */\n      add\n        /* \"#utility.yul\":4876:4895   */\n      swap1\n      pop\n        /* \"#utility.yul\":4535:4901   */\n      swap2\n      swap1\n      pop\n      jump\t// out\n        /* \"#utility.yul\":4907:5273   */\n    tag_189:\n        /* \"#utility.yul\":5049:5052   */\n      0x00\n        /* \"#utility.yul\":5070:5137   */\n      tag_191\n        /* \"#utility.yul\":5134:5136   */\n      0x23\n        /* \"#utility.yul\":5129:5132   */\n      dup4\n        /* \"#utility.yul\":5070:5137   */\n      tag_146\n      jump\t// in\n    tag_191:\n        /* \"#utility.yul\":5063:5137   */\n      swap2\n      pop\n        /* \"#utility.yul\":5146:5239   */\n      tag_192\n        /* \"#utility.yul\":5235:5238   */\n      dup3\n        /* \"#utility.yul\":5146:5239   */\n      tag_193\n      jump\t// in\n    tag_192:\n        /* \"#utility.yul\":5264:5266   */\n      0x40\n        /* \"#utility.yul\":5259:5262   */\n      dup3\n        /* \"#utility.yul\":5255:5267   */\n      add\n        /* \"#utility.yul\":5248:5267   */\n      swap1\n      pop\n        /* \"#utility.yul\":4907:5273   */\n      swap2\n      swap1\n      pop\n      jump\t// out\n        /* \"#utility.yul\":5279:5645   */\n    tag_194:\n        /* \"#utility.yul\":5421:5424   */\n      0x00\n        /* \"#utility.yul\":5442:5509   */\n      tag_196\n        /* \"#utility.yul\":5506:5508   */\n      0x1c\n        /* \"#utility.yul\":5501:5504   */\n      dup4\n        /* \"#utility.yul\":5442:5509   */\n      tag_146\n      jump\t// in\n    tag_196:\n        /* \"#utility.yul\":5435:5509   */\n      swap2\n      pop\n        /* \"#utility.yul\":5518:5611   */\n      tag_197\n        /* \"#utility.yul\":5607:5610   */\n      dup3\n        /* \"#utility.yul\":5518:5611   */\n      tag_198\n      jump\t// in\n    tag_197:\n        /* \"#utility.yul\":5636:5638   */\n      0x20\n        /* \"#utility.yul\":5631:5634   */\n      dup3\n        /* \"#utility.yul\":5627:5639   */\n      add\n        /* \"#utility.yul\":5620:5639   */\n      swap1\n      pop\n        /* \"#utility.yul\":5279:5645   */\n      swap2\n      swap1\n      pop\n      jump\t// out\n        /* \"#utility.yul\":5651:5769   */\n    tag_199:\n        /* \"#utility.yul\":5738:5762   */\n      tag_201\n        /* \"#utility.yul\":5756:5761   */\n      dup2\n        /* \"#utility.yul\":5738:5762   */\n      tag_202\n      jump\t// in\n    tag_201:\n        /* \"#utility.yul\":5733:5736   */\n      dup3\n        /* \"#utility.yul\":5726:5763   */\n      mstore\n        /* \"#utility.yul\":5651:5769   */\n      pop\n      pop\n      jump\t// out\n        /* \"#utility.yul\":5775:5932   */\n    tag_203:\n        /* \"#utility.yul\":5880:5925   */\n      tag_205\n        /* \"#utility.yul\":5900:5924   */\n      tag_206\n        /* \"#utility.yul\":5918:5923   */\n      dup3\n        /* \"#utility.yul\":5900:5924   */\n      tag_202\n      jump\t// in\n    tag_206:\n        /* \"#utility.yul\":5880:5925   */\n      tag_207\n      jump\t// in\n    tag_205:\n        /* \"#utility.yul\":5875:5878   */\n      dup3\n        /* \"#utility.yul\":5868:5926   */\n      mstore\n        /* \"#utility.yul\":5775:5932   */\n      pop\n      pop\n      jump\t// out\n        /* \"#utility.yul\":5938:6194   */\n    tag_56:\n        /* \"#utility.yul\":6050:6053   */\n      0x00\n        /* \"#utility.yul\":6065:6140   */\n      tag_209\n        /* \"#utility.yul\":6136:6139   */\n      dup3\n        /* \"#utility.yul\":6127:6133   */\n      dup5\n        /* \"#utility.yul\":6065:6140   */\n      tag_203\n      jump\t// in\n    tag_209:\n        /* \"#utility.yul\":6165:6167   */\n      0x20\n        /* \"#utility.yul\":6160:6163   */\n      dup3\n        /* \"#utility.yul\":6156:6168   */\n      add\n        /* \"#utility.yul\":6149:6168   */\n      swap2\n      pop\n        /* \"#utility.yul\":6185:6188   */\n      dup2\n        /* \"#utility.yul\":6178:6188   */\n      swap1\n      pop\n        /* \"#utility.yul\":5938:6194   */\n      swap3\n      swap2\n      pop\n      pop\n      jump\t// out\n        /* \"#utility.yul\":6200:6422   */\n    tag_31:\n        /* \"#utility.yul\":6293:6297   */\n      0x00\n        /* \"#utility.yul\":6331:6333   */\n      0x20\n        /* \"#utility.yul\":6320:6329   */\n      dup3\n        /* \"#utility.yul\":6316:6334   */\n      add\n        /* \"#utility.yul\":6308:6334   */\n      swap1\n      pop\n        /* \"#utility.yul\":6344:6415   */\n      tag_211\n        /* \"#utility.yul\":6412:6413   */\n      0x00\n        /* \"#utility.yul\":6401:6410   */\n      dup4\n        /* \"#utility.yul\":6397:6414   */\n      add\n        /* \"#utility.yul\":6388:6394   */\n      dup5\n        /* \"#utility.yul\":6344:6415   */\n      tag_139\n      jump\t// in\n    tag_211:\n        /* \"#utility.yul\":6200:6422   */\n      swap3\n      swap2\n      pop\n      pop\n      jump\t// out\n        /* \"#utility.yul\":6428:6847   */\n    tag_98:\n        /* \"#utility.yul\":6594:6598   */\n      0x00\n        /* \"#utility.yul\":6632:6634   */\n      0x20\n        /* \"#utility.yul\":6621:6630   */\n      dup3\n        /* \"#utility.yul\":6617:6635   */\n      add\n        /* \"#utility.yul\":6609:6635   */\n      swap1\n      pop\n        /* \"#utility.yul\":6681:6690   */\n      dup2\n        /* \"#utility.yul\":6675:6679   */\n      dup2\n        /* \"#utility.yul\":6671:6691   */\n      sub\n        /* \"#utility.yul\":6667:6668   */\n      0x00\n        /* \"#utility.yul\":6656:6665   */\n      dup4\n        /* \"#utility.yul\":6652:6669   */\n      add\n        /* \"#utility.yul\":6645:6692   */\n      mstore\n        /* \"#utility.yul\":6709:6840   */\n      tag_213\n        /* \"#utility.yul\":6835:6839   */\n      dup2\n        /* \"#utility.yul\":6709:6840   */\n      tag_143\n      jump\t// in\n    tag_213:\n        /* \"#utility.yul\":6701:6840   */\n      swap1\n      pop\n        /* \"#utility.yul\":6428:6847   */\n      swap2\n      swap1\n      pop\n      jump\t// out\n        /* \"#utility.yul\":6853:7272   */\n    tag_53:\n        /* \"#utility.yul\":7019:7023   */\n      0x00\n        /* \"#utility.yul\":7057:7059   */\n      0x20\n        /* \"#utility.yul\":7046:7055   */\n      dup3\n        /* \"#utility.yul\":7042:7060   */\n      add\n        /* \"#utility.yul\":7034:7060   */\n      swap1\n      pop\n        /* \"#utility.yul\":7106:7115   */\n      dup2\n        /* \"#utility.yul\":7100:7104   */\n      dup2\n        /* \"#utility.yul\":7096:7116   */\n      sub\n        /* \"#utility.yul\":7092:7093   */\n      0x00\n        /* \"#utility.yul\":7081:7090   */\n      dup4\n        /* \"#utility.yul\":7077:7094   */\n      add\n        /* \"#utility.yul\":7070:7117   */\n      mstore\n        /* \"#utility.yul\":7134:7265   */\n      tag_215\n        /* \"#utility.yul\":7260:7264   */\n      dup2\n        /* \"#utility.yul\":7134:7265   */\n      tag_149\n      jump\t// in\n    tag_215:\n        /* \"#utility.yul\":7126:7265   */\n      swap1\n      pop\n        /* \"#utility.yul\":6853:7272   */\n      swap2\n      swap1\n      pop\n      jump\t// out\n        /* \"#utility.yul\":7278:7697   */\n    tag_109:\n        /* \"#utility.yul\":7444:7448   */\n      0x00\n        /* \"#utility.yul\":7482:7484   */\n      0x20\n        /* \"#utility.yul\":7471:7480   */\n      dup3\n        /* \"#utility.yul\":7467:7485   */\n      add\n        /* \"#utility.yul\":7459:7485   */\n      swap1\n      pop\n        /* \"#utility.yul\":7531:7540   */\n      dup2\n        /* \"#utility.yul\":7525:7529   */\n      dup2\n        /* \"#utility.yul\":7521:7541   */\n      sub\n        /* \"#utility.yul\":7517:7518   */\n      0x00\n        /* \"#utility.yul\":7506:7515   */\n      dup4\n        /* \"#utility.yul\":7502:7519   */\n      add\n        /* \"#utility.yul\":7495:7542   */\n      mstore\n        /* \"#utility.yul\":7559:7690   */\n      tag_217\n        /* \"#utility.yul\":7685:7689   */\n      dup2\n        /* \"#utility.yul\":7559:7690   */\n      tag_154\n      jump\t// in\n    tag_217:\n        /* \"#utility.yul\":7551:7690   */\n      swap1\n      pop\n        /* \"#utility.yul\":7278:7697   */\n      swap2\n      swap1\n      pop\n      jump\t// out\n        /* \"#utility.yul\":7703:8122   */\n    tag_68:\n        /* \"#utility.yul\":7869:7873   */\n      0x00\n        /* \"#utility.yul\":7907:7909   */\n      0x20\n        /* \"#utility.yul\":7896:7905   */\n      dup3\n        /* \"#utility.yul\":7892:7910   */\n      add\n        /* \"#utility.yul\":7884:7910   */\n      swap1\n      pop\n        /* \"#utility.yul\":7956:7965   */\n      dup2\n        /* \"#utility.yul\":7950:7954   */\n      dup2\n        /* \"#utility.yul\":7946:7966   */\n      sub\n        /* \"#utility.yul\":7942:7943   */\n      0x00\n        /* \"#utility.yul\":7931:7940   */\n      dup4\n        /* \"#utility.yul\":7927:7944   */\n      add\n        /* \"#utility.yul\":7920:7967   */\n      mstore\n        /* \"#utility.yul\":7984:8115   */\n      tag_219\n        /* \"#utility.yul\":8110:8114   */\n      dup2\n        /* \"#utility.yul\":7984:8115   */\n      tag_159\n      jump\t// in\n    tag_219:\n        /* \"#utility.yul\":7976:8115   */\n      swap1\n      pop\n        /* \"#utility.yul\":7703:8122   */\n      swap2\n      swap1\n      pop\n      jump\t// out\n        /* \"#utility.yul\":8128:8547   */\n    tag_102:\n        /* \"#utility.yul\":8294:8298   */\n      0x00\n        /* \"#utility.yul\":8332:8334   */\n      0x20\n        /* \"#utility.yul\":8321:8330   */\n      dup3\n        /* \"#utility.yul\":8317:8335   */\n      add\n        /* \"#utility.yul\":8309:8335   */\n      swap1\n      pop\n        /* \"#utility.yul\":8381:8390   */\n      dup2\n        /* \"#utility.yul\":8375:8379   */\n      dup2\n        /* \"#utility.yul\":8371:8391   */\n      sub\n        /* \"#utility.yul\":8367:8368   */\n      0x00\n        /* \"#utility.yul\":8356:8365   */\n      dup4\n        /* \"#utility.yul\":8352:8369   */\n      add\n        /* \"#utility.yul\":8345:8392   */\n      mstore\n        /* \"#utility.yul\":8409:8540   */\n      tag_221\n        /* \"#utility.yul\":8535:8539   */\n      dup2\n        /* \"#utility.yul\":8409:8540   */\n      tag_164\n      jump\t// in\n    tag_221:\n        /* \"#utility.yul\":8401:8540   */\n      swap1\n      pop\n        /* \"#utility.yul\":8128:8547   */\n      swap2\n      swap1\n      pop\n      jump\t// out\n        /* \"#utility.yul\":8553:8972   */\n    tag_65:\n        /* \"#utility.yul\":8719:8723   */\n      0x00\n        /* \"#utility.yul\":8757:8759   */\n      0x20\n        /* \"#utility.yul\":8746:8755   */\n      dup3\n        /* \"#utility.yul\":8742:8760   */\n      add\n        /* \"#utility.yul\":8734:8760   */\n      swap1\n      pop\n        /* \"#utility.yul\":8806:8815   */\n      dup2\n        /* \"#utility.yul\":8800:8804   */\n      dup2\n        /* \"#utility.yul\":8796:8816   */\n      sub\n        /* \"#utility.yul\":8792:8793   */\n      0x00\n        /* \"#utility.yul\":8781:8790   */\n      dup4\n        /* \"#utility.yul\":8777:8794   */\n      add\n        /* \"#utility.yul\":8770:8817   */\n      mstore\n        /* \"#utility.yul\":8834:8965   */\n      tag_223\n        /* \"#utility.yul\":8960:8964   */\n      dup2\n        /* \"#utility.yul\":8834:8965   */\n      tag_169\n      jump\t// in\n    tag_223:\n        /* \"#utility.yul\":8826:8965   */\n      swap1\n      pop\n        /* \"#utility.yul\":8553:8972   */\n      swap2\n      swap1\n      pop\n      jump\t// out\n        /* \"#utility.yul\":8978:9397   */\n    tag_62:\n        /* \"#utility.yul\":9144:9148   */\n      0x00\n        /* \"#utility.yul\":9182:9184   */\n      0x20\n        /* \"#utility.yul\":9171:9180   */\n      dup3\n        /* \"#utility.yul\":9167:9185   */\n      add\n        /* \"#utility.yul\":9159:9185   */\n      swap1\n      pop\n        /* \"#utility.yul\":9231:9240   */\n      dup2\n        /* \"#utility.yul\":9225:9229   */\n      dup2\n        /* \"#utility.yul\":9221:9241   */\n      sub\n        /* \"#utility.yul\":9217:9218   */\n      0x00\n        /* \"#utility.yul\":9206:9215   */\n      dup4\n        /* \"#utility.yul\":9202:9219   */\n      add\n        /* \"#utility.yul\":9195:9242   */\n      mstore\n        /* \"#utility.yul\":9259:9390   */\n      tag_225\n        /* \"#utility.yul\":9385:9389   */\n      dup2\n        /* \"#utility.yul\":9259:9390   */\n      tag_174\n      jump\t// in\n    tag_225:\n        /* \"#utility.yul\":9251:9390   */\n      swap1\n      pop\n        /* \"#utility.yul\":8978:9397   */\n      swap2\n      swap1\n      pop\n      jump\t// out\n        /* \"#utility.yul\":9403:9822   */\n    tag_47:\n        /* \"#utility.yul\":9569:9573   */\n      0x00\n        /* \"#utility.yul\":9607:9609   */\n      0x20\n        /* \"#utility.yul\":9596:9605   */\n      dup3\n        /* \"#utility.yul\":9592:9610   */\n      add\n        /* \"#utility.yul\":9584:9610   */\n      swap1\n      pop\n        /* \"#utility.yul\":9656:9665   */\n      dup2\n        /* \"#utility.yul\":9650:9654   */\n      dup2\n        /* \"#utility.yul\":9646:9666   */\n      sub\n        /* \"#utility.yul\":9642:9643   */\n      0x00\n        /* \"#utility.yul\":9631:9640   */\n      dup4\n        /* \"#utility.yul\":9627:9644   */\n      add\n        /* \"#utility.yul\":9620:9667   */\n      mstore\n        /* \"#utility.yul\":9684:9815   */\n      tag_227\n        /* \"#utility.yul\":9810:9814   */\n      dup2\n        /* \"#utility.yul\":9684:9815   */\n      tag_179\n      jump\t// in\n    tag_227:\n        /* \"#utility.yul\":9676:9815   */\n      swap1\n      pop\n        /* \"#utility.yul\":9403:9822   */\n      swap2\n      swap1\n      pop\n      jump\t// out\n        /* \"#utility.yul\":9828:10247   */\n    tag_59:\n        /* \"#utility.yul\":9994:9998   */\n      0x00\n        /* \"#utility.yul\":10032:10034   */\n      0x20\n        /* \"#utility.yul\":10021:10030   */\n      dup3\n        /* \"#utility.yul\":10017:10035   */\n      add\n        /* \"#utility.yul\":10009:10035   */\n      swap1\n      pop\n        /* \"#utility.yul\":10081:10090   */\n      dup2\n        /* \"#utility.yul\":10075:10079   */\n      dup2\n        /* \"#utility.yul\":10071:10091   */\n      sub\n        /* \"#utility.yul\":10067:10068   */\n      0x00\n        /* \"#utility.yul\":10056:10065   */\n      dup4\n        /* \"#utility.yul\":10052:10069   */\n      add\n        /* \"#utility.yul\":10045:10092   */\n      mstore\n        /* \"#utility.yul\":10109:10240   */\n      tag_229\n        /* \"#utility.yul\":10235:10239   */\n      dup2\n        /* \"#utility.yul\":10109:10240   */\n      tag_184\n      jump\t// in\n    tag_229:\n        /* \"#utility.yul\":10101:10240   */\n      swap1\n      pop\n        /* \"#utility.yul\":9828:10247   */\n      swap2\n      swap1\n      pop\n      jump\t// out\n        /* \"#utility.yul\":10253:10672   */\n    tag_112:\n        /* \"#utility.yul\":10419:10423   */\n      0x00\n        /* \"#utility.yul\":10457:10459   */\n      0x20\n        /* \"#utility.yul\":10446:10455   */\n      dup3\n        /* \"#utility.yul\":10442:10460   */\n      add\n        /* \"#utility.yul\":10434:10460   */\n      swap1\n      pop\n        /* \"#utility.yul\":10506:10515   */\n      dup2\n        /* \"#utility.yul\":10500:10504   */\n      dup2\n        /* \"#utility.yul\":10496:10516   */\n      sub\n        /* \"#utility.yul\":10492:10493   */\n      0x00\n        /* \"#utility.yul\":10481:10490   */\n      dup4\n        /* \"#utility.yul\":10477:10494   */\n      add\n        /* \"#utility.yul\":10470:10517   */\n      mstore\n        /* \"#utility.yul\":10534:10665   */\n      tag_231\n        /* \"#utility.yul\":10660:10664   */\n      dup2\n        /* \"#utility.yul\":10534:10665   */\n      tag_189\n      jump\t// in\n    tag_231:\n        /* \"#utility.yul\":10526:10665   */\n      swap1\n      pop\n        /* \"#utility.yul\":10253:10672   */\n      swap2\n      swap1\n      pop\n      jump\t// out\n        /* \"#utility.yul\":10678:11097   */\n    tag_50:\n        /* \"#utility.yul\":10844:10848   */\n      0x00\n        /* \"#utility.yul\":10882:10884   */\n      0x20\n        /* \"#utility.yul\":10871:10880   */\n      dup3\n        /* \"#utility.yul\":10867:10885   */\n      add\n        /* \"#utility.yul\":10859:10885   */\n      swap1\n      pop\n        /* \"#utility.yul\":10931:10940   */\n      dup2\n        /* \"#utility.yul\":10925:10929   */\n      dup2\n        /* \"#utility.yul\":10921:10941   */\n      sub\n        /* \"#utility.yul\":10917:10918   */\n      0x00\n        /* \"#utility.yul\":10906:10915   */\n      dup4\n        /* \"#utility.yul\":10902:10919   */\n      add\n        /* \"#utility.yul\":10895:10942   */\n      mstore\n        /* \"#utility.yul\":10959:11090   */\n      tag_233\n        /* \"#utility.yul\":11085:11089   */\n      dup2\n        /* \"#utility.yul\":10959:11090   */\n      tag_194\n      jump\t// in\n    tag_233:\n        /* \"#utility.yul\":10951:11090   */\n      swap1\n      pop\n        /* \"#utility.yul\":10678:11097   */\n      swap2\n      swap1\n      pop\n      jump\t// out\n        /* \"#utility.yul\":11103:11325   */\n    tag_14:\n        /* \"#utility.yul\":11196:11200   */\n      0x00\n        /* \"#utility.yul\":11234:11236   */\n      0x20\n        /* \"#utility.yul\":11223:11232   */\n      dup3\n        /* \"#utility.yul\":11219:11237   */\n      add\n        /* \"#utility.yul\":11211:11237   */\n      swap1\n      pop\n        /* \"#utility.yul\":11247:11318   */\n      tag_235\n        /* \"#utility.yul\":11315:11316   */\n      0x00\n        /* \"#utility.yul\":11304:11313   */\n      dup4\n        /* \"#utility.yul\":11300:11317   */\n      add\n        /* \"#utility.yul\":11291:11297   */\n      dup5\n        /* \"#utility.yul\":11247:11318   */\n      tag_199\n      jump\t// in\n    tag_235:\n        /* \"#utility.yul\":11103:11325   */\n      swap3\n      swap2\n      pop\n      pop\n      jump\t// out\n        /* \"#utility.yul\":11412:11581   */\n    tag_146:\n        /* \"#utility.yul\":11496:11507   */\n      0x00\n        /* \"#utility.yul\":11530:11536   */\n      dup3\n        /* \"#utility.yul\":11525:11528   */\n      dup3\n        /* \"#utility.yul\":11518:11537   */\n      mstore\n        /* \"#utility.yul\":11570:11574   */\n      0x20\n        /* \"#utility.yul\":11565:11568   */\n      dup3\n        /* \"#utility.yul\":11561:11575   */\n      add\n        /* \"#utility.yul\":11546:11575   */\n      swap1\n      pop\n        /* \"#utility.yul\":11412:11581   */\n      swap3\n      swap2\n      pop\n      pop\n      jump\t// out\n        /* \"#utility.yul\":11587:11892   */\n    tag_73:\n        /* \"#utility.yul\":11627:11630   */\n      0x00\n        /* \"#utility.yul\":11646:11666   */\n      tag_240\n        /* \"#utility.yul\":11664:11665   */\n      dup3\n        /* \"#utility.yul\":11646:11666   */\n      tag_202\n      jump\t// in\n    tag_240:\n        /* \"#utility.yul\":11641:11666   */\n      swap2\n      pop\n        /* \"#utility.yul\":11680:11700   */\n      tag_241\n        /* \"#utility.yul\":11698:11699   */\n      dup4\n        /* \"#utility.yul\":11680:11700   */\n      tag_202\n      jump\t// in\n    tag_241:\n        /* \"#utility.yul\":11675:11700   */\n      swap3\n      pop\n        /* \"#utility.yul\":11834:11835   */\n      dup3\n        /* \"#utility.yul\":11766:11832   */\n      0xffffffffffffffffffffffffffffffffffffffffffffffffffffffffffffffff\n        /* \"#utility.yul\":11762:11836   */\n      sub\n        /* \"#utility.yul\":11759:11760   */\n      dup3\n        /* \"#utility.yul\":11756:11837   */\n      gt\n        /* \"#utility.yul\":11753:11860   */\n      iszero\n      tag_242\n      jumpi\n        /* \"#utility.yul\":11840:11858   */\n      tag_243\n      tag_244\n      jump\t// in\n    tag_243:\n        /* \"#utility.yul\":11753:11860   */\n    tag_242:\n        /* \"#utility.yul\":11884:11885   */\n      dup3\n        /* \"#utility.yul\":11881:11882   */\n      dup3\n        /* \"#utility.yul\":11877:11886   */\n      add\n        /* \"#utility.yul\":11870:11886   */\n      swap1\n      pop\n        /* \"#utility.yul\":11587:11892   */\n      swap3\n      swap2\n      pop\n      pop\n      jump\t// out\n        /* \"#utility.yul\":11898:12089   */\n    tag_77:\n        /* \"#utility.yul\":11938:11942   */\n      0x00\n        /* \"#utility.yul\":11958:11978   */\n      tag_246\n        /* \"#utility.yul\":11976:11977   */\n      dup3\n        /* \"#utility.yul\":11958:11978   */\n      tag_202\n      jump\t// in\n    tag_246:\n        /* \"#utility.yul\":11953:11978   */\n      swap2\n      pop\n        /* \"#utility.yul\":11992:12012   */\n      tag_247\n        /* \"#utility.yul\":12010:12011   */\n      dup4\n        /* \"#utility.yul\":11992:12012   */\n      tag_202\n      jump\t// in\n    tag_247:\n        /* \"#utility.yul\":11987:12012   */\n      swap3\n      pop\n        /* \"#utility.yul\":12031:12032   */\n      dup3\n        /* \"#utility.yul\":12028:12029   */\n      dup3\n        /* \"#utility.yul\":12025:12033   */\n      lt\n        /* \"#utility.yul\":12022:12056   */\n      iszero\n      tag_248\n      jumpi\n        /* \"#utility.yul\":12036:12054   */\n      tag_249\n      tag_244\n      jump\t// in\n    tag_249:\n        /* \"#utility.yul\":12022:12056   */\n    tag_248:\n        /* \"#utility.yul\":12081:12082   */\n      dup3\n        /* \"#utility.yul\":12078:12079   */\n      dup3\n        /* \"#utility.yul\":12074:12083   */\n      sub\n        /* \"#utility.yul\":12066:12083   */\n      swap1\n      pop\n        /* \"#utility.yul\":11898:12089   */\n      swap3\n      swap2\n      pop\n      pop\n      jump\t// out\n        /* \"#utility.yul\":12095:12185   */\n    tag_250:\n        /* \"#utility.yul\":12129:12136   */\n      0x00\n        /* \"#utility.yul\":12172:12177   */\n      dup2\n        /* \"#utility.yul\":12165:12178   */\n      iszero\n        /* \"#utility.yul\":12158:12179   */\n      iszero\n        /* \"#utility.yul\":12147:12179   */\n      swap1\n      pop\n        /* \"#utility.yul\":12095:12185   */\n      swap2\n      swap1\n      pop\n      jump\t// out\n        /* \"#utility.yul\":12191:12268   */\n    tag_142:\n        /* \"#utility.yul\":12228:12235   */\n      0x00\n        /* \"#utility.yul\":12257:12262   */\n      dup2\n        /* \"#utility.yul\":12246:12262   */\n      swap1\n      pop\n        /* \"#utility.yul\":12191:12268   */\n      swap2\n      swap1\n      pop\n      jump\t// out\n        /* \"#utility.yul\":12274:12351   */\n    tag_202:\n        /* \"#utility.yul\":12311:12318   */\n      0x00\n        /* \"#utility.yul\":12340:12345   */\n      dup2\n        /* \"#utility.yul\":12329:12345   */\n      swap1\n      pop\n        /* \"#utility.yul\":12274:12351   */\n      swap2\n      swap1\n      pop\n      jump\t// out\n        /* \"#utility.yul\":12357:12436   */\n    tag_207:\n        /* \"#utility.yul\":12396:12403   */\n      0x00\n        /* \"#utility.yul\":12425:12430   */\n      dup2\n        /* \"#utility.yul\":12414:12430   */\n      swap1\n      pop\n        /* \"#utility.yul\":12357:12436   */\n      swap2\n      swap1\n      pop\n      jump\t// out\n        /* \"#utility.yul\":12442:12618   */\n    tag_71:\n        /* \"#utility.yul\":12474:12475   */\n      0x00\n        /* \"#utility.yul\":12491:12511   */\n      tag_256\n        /* \"#utility.yul\":12509:12510   */\n      dup3\n        /* \"#utility.yul\":12491:12511   */\n      tag_202\n      jump\t// in\n    tag_256:\n        /* \"#utility.yul\":12486:12511   */\n      swap2\n      pop\n        /* \"#utility.yul\":12525:12545   */\n      tag_257\n        /* \"#utility.yul\":12543:12544   */\n      dup4\n        /* \"#utility.yul\":12525:12545   */\n      tag_202\n      jump\t// in\n    tag_257:\n        /* \"#utility.yul\":12520:12545   */\n      swap3\n      pop\n        /* \"#utility.yul\":12564:12565   */\n      dup3\n        /* \"#utility.yul\":12554:12589   */\n      tag_258\n      jumpi\n        /* \"#utility.yul\":12569:12587   */\n      tag_259\n      tag_260\n      jump\t// in\n    tag_259:\n        /* \"#utility.yul\":12554:12589   */\n    tag_258:\n        /* \"#utility.yul\":12610:12611   */\n      dup3\n        /* \"#utility.yul\":12607:12608   */\n      dup3\n        /* \"#utility.yul\":12603:12612   */\n      mod\n        /* \"#utility.yul\":12598:12612   */\n      swap1\n      pop\n        /* \"#utility.yul\":12442:12618   */\n      swap3\n      swap2\n      pop\n      pop\n      jump\t// out\n        /* \"#utility.yul\":12624:12804   */\n    tag_244:\n        /* \"#utility.yul\":12672:12749   */\n      0x4e487b7100000000000000000000000000000000000000000000000000000000\n        /* \"#utility.yul\":12669:12670   */\n      0x00\n        /* \"#utility.yul\":12662:12750   */\n      mstore\n        /* \"#utility.yul\":12769:12773   */\n      0x11\n        /* \"#utility.yul\":12766:12767   */\n      0x04\n        /* \"#utility.yul\":12759:12774   */\n      mstore\n        /* \"#utility.yul\":12793:12797   */\n      0x24\n        /* \"#utility.yul\":12790:12791   */\n      0x00\n        /* \"#utility.yul\":12783:12798   */\n      revert\n        /* \"#utility.yul\":12810:12990   */\n    tag_260:\n        /* \"#utility.yul\":12858:12935   */\n      0x4e487b7100000000000000000000000000000000000000000000000000000000\n        /* \"#utility.yul\":12855:12856   */\n      0x00\n        /* \"#utility.yul\":12848:12936   */\n      mstore\n        /* \"#utility.yul\":12955:12959   */\n      0x12\n        /* \"#utility.yul\":12952:12953   */\n      0x04\n        /* \"#utility.yul\":12945:12960   */\n      mstore\n        /* \"#utility.yul\":12979:12983   */\n      0x24\n        /* \"#utility.yul\":12976:12977   */\n      0x00\n        /* \"#utility.yul\":12969:12984   */\n      revert\n        /* \"#utility.yul\":13119:13236   */\n    tag_129:\n        /* \"#utility.yul\":13228:13229   */\n      0x00\n        /* \"#utility.yul\":13225:13226   */\n      dup1\n        /* \"#utility.yul\":13218:13230   */\n      revert\n        /* \"#utility.yul\":13242:13476   */\n    tag_148:\n        /* \"#utility.yul\":13382:13416   */\n      0x596f75206d7573742068617665206174206c6561737420332065746820746f20\n        /* \"#utility.yul\":13378:13379   */\n      0x00\n        /* \"#utility.yul\":13370:13376   */\n      dup3\n        /* \"#utility.yul\":13366:13380   */\n      add\n        /* \"#utility.yul\":13359:13417   */\n      mstore\n        /* \"#utility.yul\":13451:13468   */\n      0x7374617274207468652067616d652e0000000000000000000000000000000000\n        /* \"#utility.yul\":13446:13448   */\n      0x20\n        /* \"#utility.yul\":13438:13444   */\n      dup3\n        /* \"#utility.yul\":13434:13449   */\n      add\n        /* \"#utility.yul\":13427:13469   */\n      mstore\n        /* \"#utility.yul\":13242:13476   */\n      pop\n      jump\t// out\n        /* \"#utility.yul\":13482:13704   */\n    tag_153:\n        /* \"#utility.yul\":13622:13656   */\n      0x596f7520686173206265656e207265676973746572656420617320706c617965\n        /* \"#utility.yul\":13618:13619   */\n      0x00\n        /* \"#utility.yul\":13610:13616   */\n      dup3\n        /* \"#utility.yul\":13606:13620   */\n      add\n        /* \"#utility.yul\":13599:13657   */\n      mstore\n        /* \"#utility.yul\":13691:13696   */\n      0x7220410000000000000000000000000000000000000000000000000000000000\n        /* \"#utility.yul\":13686:13688   */\n      0x20\n        /* \"#utility.yul\":13678:13684   */\n      dup3\n        /* \"#utility.yul\":13674:13689   */\n      add\n        /* \"#utility.yul\":13667:13697   */\n      mstore\n        /* \"#utility.yul\":13482:13704   */\n      pop\n      jump\t// out\n        /* \"#utility.yul\":13710:13888   */\n    tag_158:\n        /* \"#utility.yul\":13850:13880   */\n      0x506c61796572204120686173206265656e207265676973746572656400000000\n        /* \"#utility.yul\":13846:13847   */\n      0x00\n        /* \"#utility.yul\":13838:13844   */\n      dup3\n        /* \"#utility.yul\":13834:13848   */\n      add\n        /* \"#utility.yul\":13827:13881   */\n      mstore\n        /* \"#utility.yul\":13710:13888   */\n      pop\n      jump\t// out\n        /* \"#utility.yul\":13894:14119   */\n    tag_163:\n        /* \"#utility.yul\":14034:14068   */\n      0x47616d652063616e20737461727420756e74696c20616c6c20706c6179657273\n        /* \"#utility.yul\":14030:14031   */\n      0x00\n        /* \"#utility.yul\":14022:14028   */\n      dup3\n        /* \"#utility.yul\":14018:14032   */\n      add\n        /* \"#utility.yul\":14011:14069   */\n      mstore\n        /* \"#utility.yul\":14103:14111   */\n      0x2072657365740000000000000000000000000000000000000000000000000000\n        /* \"#utility.yul\":14098:14100   */\n      0x20\n        /* \"#utility.yul\":14090:14096   */\n      dup3\n        /* \"#utility.yul\":14086:14101   */\n      add\n        /* \"#utility.yul\":14079:14112   */\n      mstore\n        /* \"#utility.yul\":13894:14119   */\n      pop\n      jump\t// out\n        /* \"#utility.yul\":14125:14346   */\n    tag_168:\n        /* \"#utility.yul\":14265:14299   */\n      0x596f7520617265206e6f742072656769737465726564206173206120706c6179\n        /* \"#utility.yul\":14261:14262   */\n      0x00\n        /* \"#utility.yul\":14253:14259   */\n      dup3\n        /* \"#utility.yul\":14249:14263   */\n      add\n        /* \"#utility.yul\":14242:14300   */\n      mstore\n        /* \"#utility.yul\":14334:14338   */\n      0x6572000000000000000000000000000000000000000000000000000000000000\n        /* \"#utility.yul\":14329:14331   */\n      0x20\n        /* \"#utility.yul\":14321:14327   */\n      dup3\n        /* \"#utility.yul\":14317:14332   */\n      add\n        /* \"#utility.yul\":14310:14339   */\n      mstore\n        /* \"#utility.yul\":14125:14346   */\n      pop\n      jump\t// out\n        /* \"#utility.yul\":14352:14524   */\n    tag_173:\n        /* \"#utility.yul\":14492:14516   */\n      0x506c6179657242206e6f74207265676973746572656400000000000000000000\n        /* \"#utility.yul\":14488:14489   */\n      0x00\n        /* \"#utility.yul\":14480:14486   */\n      dup3\n        /* \"#utility.yul\":14476:14490   */\n      add\n        /* \"#utility.yul\":14469:14517   */\n      mstore\n        /* \"#utility.yul\":14352:14524   */\n      pop\n      jump\t// out\n        /* \"#utility.yul\":14530:14702   */\n    tag_178:\n        /* \"#utility.yul\":14670:14694   */\n      0x506c6179657241206e6f74207265676973746572656400000000000000000000\n        /* \"#utility.yul\":14666:14667   */\n      0x00\n        /* \"#utility.yul\":14658:14664   */\n      dup3\n        /* \"#utility.yul\":14654:14668   */\n      add\n        /* \"#utility.yul\":14647:14695   */\n      mstore\n        /* \"#utility.yul\":14530:14702   */\n      pop\n      jump\t// out\n        /* \"#utility.yul\":14708:14886   */\n    tag_183:\n        /* \"#utility.yul\":14848:14878   */\n      0x706c6561736520656e74657220796f757220636f6d6d69746d656e7400000000\n        /* \"#utility.yul\":14844:14845   */\n      0x00\n        /* \"#utility.yul\":14836:14842   */\n      dup3\n        /* \"#utility.yul\":14832:14846   */\n      add\n        /* \"#utility.yul\":14825:14879   */\n      mstore\n        /* \"#utility.yul\":14708:14886   */\n      pop\n      jump\t// out\n        /* \"#utility.yul\":14892:15060   */\n    tag_188:\n        /* \"#utility.yul\":15032:15052   */\n      0x57726f6e67207365637265744e756d6265720000000000000000000000000000\n        /* \"#utility.yul\":15028:15029   */\n      0x00\n        /* \"#utility.yul\":15020:15026   */\n      dup3\n        /* \"#utility.yul\":15016:15030   */\n      add\n        /* \"#utility.yul\":15009:15053   */\n      mstore\n        /* \"#utility.yul\":14892:15060   */\n      pop\n      jump\t// out\n        /* \"#utility.yul\":15066:15288   */\n    tag_193:\n        /* \"#utility.yul\":15206:15240   */\n      0x596f7520686173206265656e207265676973746572656420617320706c617965\n        /* \"#utility.yul\":15202:15203   */\n      0x00\n        /* \"#utility.yul\":15194:15200   */\n      dup3\n        /* \"#utility.yul\":15190:15204   */\n      add\n        /* \"#utility.yul\":15183:15241   */\n      mstore\n        /* \"#utility.yul\":15275:15280   */\n      0x7220420000000000000000000000000000000000000000000000000000000000\n        /* \"#utility.yul\":15270:15272   */\n      0x20\n        /* \"#utility.yul\":15262:15268   */\n      dup3\n        /* \"#utility.yul\":15258:15273   */\n      add\n        /* \"#utility.yul\":15251:15281   */\n      mstore\n        /* \"#utility.yul\":15066:15288   */\n      pop\n      jump\t// out\n        /* \"#utility.yul\":15294:15472   */\n    tag_198:\n        /* \"#utility.yul\":15434:15464   */\n      0x506c61796572204220686173206265656e207265676973746572656400000000\n        /* \"#utility.yul\":15430:15431   */\n      0x00\n        /* \"#utility.yul\":15422:15428   */\n      dup3\n        /* \"#utility.yul\":15418:15432   */\n      add\n        /* \"#utility.yul\":15411:15465   */\n      mstore\n        /* \"#utility.yul\":15294:15472   */\n      pop\n      jump\t// out\n        /* \"#utility.yul\":15478:15594   */\n    tag_117:\n        /* \"#utility.yul\":15548:15569   */\n      tag_278\n        /* \"#utility.yul\":15563:15568   */\n      dup2\n        /* \"#utility.yul\":15548:15569   */\n      tag_250\n      jump\t// in\n    tag_278:\n        /* \"#utility.yul\":15541:15546   */\n      dup2\n        /* \"#utility.yul\":15538:15570   */\n      eq\n        /* \"#utility.yul\":15528:15588   */\n      tag_279\n      jumpi\n        /* \"#utility.yul\":15584:15585   */\n      0x00\n        /* \"#utility.yul\":15581:15582   */\n      dup1\n        /* \"#utility.yul\":15574:15586   */\n      revert\n        /* \"#utility.yul\":15528:15588   */\n    tag_279:\n        /* \"#utility.yul\":15478:15594   */\n      pop\n      jump\t// out\n        /* \"#utility.yul\":15600:15722   */\n    tag_121:\n        /* \"#utility.yul\":15673:15697   */\n      tag_281\n        /* \"#utility.yul\":15691:15696   */\n      dup2\n        /* \"#utility.yul\":15673:15697   */\n      tag_142\n      jump\t// in\n    tag_281:\n        /* \"#utility.yul\":15666:15671   */\n      dup2\n        /* \"#utility.yul\":15663:15698   */\n      eq\n        /* \"#utility.yul\":15653:15716   */\n      tag_282\n      jumpi\n        /* \"#utility.yul\":15712:15713   */\n      0x00\n        /* \"#utility.yul\":15709:15710   */\n      dup1\n        /* \"#utility.yul\":15702:15714   */\n      revert\n        /* \"#utility.yul\":15653:15716   */\n    tag_282:\n        /* \"#utility.yul\":15600:15722   */\n      pop\n      jump\t// out\n        /* \"#utility.yul\":15728:15850   */\n    tag_125:\n        /* \"#utility.yul\":15801:15825   */\n      tag_284\n        /* \"#utility.yul\":15819:15824   */\n      dup2\n        /* \"#utility.yul\":15801:15825   */\n      tag_202\n      jump\t// in\n    tag_284:\n        /* \"#utility.yul\":15794:15799   */\n      dup2\n        /* \"#utility.yul\":15791:15826   */\n      eq\n        /* \"#utility.yul\":15781:15844   */\n      tag_285\n      jumpi\n        /* \"#utility.yul\":15840:15841   */\n      0x00\n        /* \"#utility.yul\":15837:15838   */\n      dup1\n        /* \"#utility.yul\":15830:15842   */\n      revert\n        /* \"#utility.yul\":15781:15844   */\n    tag_285:\n        /* \"#utility.yul\":15728:15850   */\n      pop\n      jump\t// out\n\n    auxdata: 0xa26469706673582212208d473d6305d190805b27b163f6a865fe19a50d2dd90b99407bd9609ce736cd4764736f6c63430008070033\n}\n",
				"bytecode": {
					"linkReferences": {},
					"object": "6080604052600060035534801561001557600080fd5b5061195f806100256000396000f3fe6080604052600436106100705760003560e01c806356c332fc1161004e57806356c332fc1461010657806385bdc22f14610143578063ed21248c1461016c578063ff2ddb0e1461017657610070565b80632c6c73a614610075578063490b63e1146100a05780634adf554c146100c9575b600080fd5b34801561008157600080fd5b5061008a61019f565b60405161009791906114ef565b60405180910390f35b3480156100ac57600080fd5b506100c760048036038101906100c29190611149565b6101e5565b005b3480156100d557600080fd5b506100f060048036038101906100eb9190611176565b6103d5565b6040516100fd91906114ef565b60405180910390f35b34801561011257600080fd5b5061012d60048036038101906101289190611176565b61094c565b60405161013a9190611374565b60405180910390f35b34801561014f57600080fd5b5061016a6004803603810190610165919061111c565b61097c565b005b610174610d1b565b005b34801561018257600080fd5b5061019d60048036038101906101989190611149565b610eed565b005b60008060003373ffffffffffffffffffffffffffffffffffffffff1673ffffffffffffffffffffffffffffffffffffffff16815260200190815260200160002054905090565b6000801b81141561022b576040517f08c379a00000000000000000000000000000000000000000000000000000000081526004016102229061146f565b60405180910390fd5b600073ffffffffffffffffffffffffffffffffffffffff16600560009054906101000a900473ffffffffffffffffffffffffffffffffffffffff1673ffffffffffffffffffffffffffffffffffffffff16146102bc576040517f08c379a00000000000000000000000000000000000000000000000000000000081526004016102b3906114cf565b60405180910390fd5b3373ffffffffffffffffffffffffffffffffffffffff16600460009054906101000a900473ffffffffffffffffffffffffffffffffffffffff1673ffffffffffffffffffffffffffffffffffffffff16141561034d576040517f08c379a0000000000000000000000000000000000000000000000000000000008152600401610344906113af565b60405180910390fd5b33600560006101000a81548173ffffffffffffffffffffffffffffffffffffffff021916908373ffffffffffffffffffffffffffffffffffffffff16021790555080600160003373ffffffffffffffffffffffffffffffffffffffff1673ffffffffffffffffffffffffffffffffffffffff1681526020019081526020016000208190555050565b6000816040516020016103e89190611359565b60405160208183030381529060405280519060200120600160003373ffffffffffffffffffffffffffffffffffffffff1673ffffffffffffffffffffffffffffffffffffffff168152602001908152602001600020541461047e576040517f08c379a00000000000000000000000000000000000000000000000000000000081526004016104759061148f565b60405180910390fd5b600073ffffffffffffffffffffffffffffffffffffffff16600460009054906101000a900473ffffffffffffffffffffffffffffffffffffffff1673ffffffffffffffffffffffffffffffffffffffff161415610510576040517f08c379a00000000000000000000000000000000000000000000000000000000081526004016105079061144f565b60405180910390fd5b600073ffffffffffffffffffffffffffffffffffffffff16600560009054906101000a900473ffffffffffffffffffffffffffffffffffffffff1673ffffffffffffffffffffffffffffffffffffffff1614156105a2576040517f08c379a00000000000000000000000000000000000000000000000000000000081526004016105999061142f565b60405180910390fd5b6000600354146105e7576040517f08c379a00000000000000000000000000000000000000000000000000000000081526004016105de906113ef565b60405180910390fd5b81600260003373ffffffffffffffffffffffffffffffffffffffff1673ffffffffffffffffffffffffffffffffffffffff16815260200190815260200160002081905550600660026000600560009054906101000a900473ffffffffffffffffffffffffffffffffffffffff1673ffffffffffffffffffffffffffffffffffffffff1673ffffffffffffffffffffffffffffffffffffffff1681526020019081526020016000205460026000600460009054906101000a900473ffffffffffffffffffffffffffffffffffffffff1673ffffffffffffffffffffffffffffffffffffffff1673ffffffffffffffffffffffffffffffffffffffff16815260200190815260200160002054186040516020016107029190611359565b6040516020818303038152906040528051906020012060001c61072591906115cf565b6001610731919061151b565b6003819055506004600354101561083957600354600080600460009054906101000a900473ffffffffffffffffffffffffffffffffffffffff1673ffffffffffffffffffffffffffffffffffffffff1673ffffffffffffffffffffffffffffffffffffffff16815260200190815260200160002060008282546107b4919061151b565b92505081905550600354600080600560009054906101000a900473ffffffffffffffffffffffffffffffffffffffff1673ffffffffffffffffffffffffffffffffffffffff1673ffffffffffffffffffffffffffffffffffffffff168152602001908152602001600020600082825461082d9190611571565b92505081905550610942565b600380546108479190611571565b600080600460009054906101000a900473ffffffffffffffffffffffffffffffffffffffff1673ffffffffffffffffffffffffffffffffffffffff1673ffffffffffffffffffffffffffffffffffffffff16815260200190815260200160002060008282546108b69190611571565b92505081905550600380546108cb9190611571565b600080600560009054906101000a900473ffffffffffffffffffffffffffffffffffffffff1673ffffffffffffffffffffffffffffffffffffffff1673ffffffffffffffffffffffffffffffffffffffff168152602001908152602001600020600082825461093a919061151b565b925050819055505b6003549050919050565b60008160405160200161095f9190611359565b604051602081830303815290604052805190602001209050919050565b600460009054906101000a900473ffffffffffffffffffffffffffffffffffffffff1673ffffffffffffffffffffffffffffffffffffffff163373ffffffffffffffffffffffffffffffffffffffff161415610a80576000600460006101000a81548173ffffffffffffffffffffffffffffffffffffffff021916908373ffffffffffffffffffffffffffffffffffffffff160217905550600060026000600460009054906101000a900473ffffffffffffffffffffffffffffffffffffffff1673ffffffffffffffffffffffffffffffffffffffff1673ffffffffffffffffffffffffffffffffffffffff16815260200190815260200160002081905550610b81565b600560009054906101000a900473ffffffffffffffffffffffffffffffffffffffff1673ffffffffffffffffffffffffffffffffffffffff163373ffffffffffffffffffffffffffffffffffffffff161415610b80576000600560006101000a81548173ffffffffffffffffffffffffffffffffffffffff021916908373ffffffffffffffffffffffffffffffffffffffff160217905550600060026000600560009054906101000a900473ffffffffffffffffffffffffffffffffffffffff1673ffffffffffffffffffffffffffffffffffffffff1673ffffffffffffffffffffffffffffffffffffffff168152602001908152602001600020819055505b5b600073ffffffffffffffffffffffffffffffffffffffff16600460009054906101000a900473ffffffffffffffffffffffffffffffffffffffff1673ffffffffffffffffffffffffffffffffffffffff16148015610c2d5750600073ffffffffffffffffffffffffffffffffffffffff16600560009054906101000a900473ffffffffffffffffffffffffffffffffffffffff1673ffffffffffffffffffffffffffffffffffffffff16145b15610c3b5760006003819055505b600115158115151415610d185760008060003373ffffffffffffffffffffffffffffffffffffffff1673ffffffffffffffffffffffffffffffffffffffff16815260200190815260200160002054905060008060003373ffffffffffffffffffffffffffffffffffffffff1673ffffffffffffffffffffffffffffffffffffffff168152602001908152602001600020819055503373ffffffffffffffffffffffffffffffffffffffff166108fc829081150290604051600060405180830381858888f19350505050158015610d15573d6000803e3d6000fd5b50505b50565b6729a2241af62c0000346000803373ffffffffffffffffffffffffffffffffffffffff1673ffffffffffffffffffffffffffffffffffffffff16815260200190815260200160002054610d6e919061151b565b11610dae576040517f08c379a0000000000000000000000000000000000000000000000000000000008152600401610da59061138f565b60405180910390fd5b3373ffffffffffffffffffffffffffffffffffffffff16600460009054906101000a900473ffffffffffffffffffffffffffffffffffffffff1673ffffffffffffffffffffffffffffffffffffffff161480610e5757503373ffffffffffffffffffffffffffffffffffffffff16600560009054906101000a900473ffffffffffffffffffffffffffffffffffffffff1673ffffffffffffffffffffffffffffffffffffffff16145b610e96576040517f08c379a0000000000000000000000000000000000000000000000000000000008152600401610e8d9061140f565b60405180910390fd5b346000803373ffffffffffffffffffffffffffffffffffffffff1673ffffffffffffffffffffffffffffffffffffffff1681526020019081526020016000206000828254610ee4919061151b565b92505081905550565b6000801b811415610f33576040517f08c379a0000000000000000000000000000000000000000000000000000000008152600401610f2a9061146f565b60405180910390fd5b600073ffffffffffffffffffffffffffffffffffffffff16600460009054906101000a900473ffffffffffffffffffffffffffffffffffffffff1673ffffffffffffffffffffffffffffffffffffffff1614610fc4576040517f08c379a0000000000000000000000000000000000000000000000000000000008152600401610fbb906113cf565b60405180910390fd5b3373ffffffffffffffffffffffffffffffffffffffff16600560009054906101000a900473ffffffffffffffffffffffffffffffffffffffff1673ffffffffffffffffffffffffffffffffffffffff161415611055576040517f08c379a000000000000000000000000000000000000000000000000000000000815260040161104c906114af565b60405180910390fd5b33600460006101000a81548173ffffffffffffffffffffffffffffffffffffffff021916908373ffffffffffffffffffffffffffffffffffffffff16021790555080600160003373ffffffffffffffffffffffffffffffffffffffff1673ffffffffffffffffffffffffffffffffffffffff1681526020019081526020016000208190555050565b6000813590506110ec816118e4565b92915050565b600081359050611101816118fb565b92915050565b60008135905061111681611912565b92915050565b6000602082840312156111325761113161165e565b5b6000611140848285016110dd565b91505092915050565b60006020828403121561115f5761115e61165e565b5b600061116d848285016110f2565b91505092915050565b60006020828403121561118c5761118b61165e565b5b600061119a84828501611107565b91505092915050565b6111ac816115b1565b82525050565b60006111bf602f8361150a565b91506111ca82611663565b604082019050919050565b60006111e260238361150a565b91506111ed826116b2565b604082019050919050565b6000611205601c8361150a565b915061121082611701565b602082019050919050565b600061122860268361150a565b91506112338261172a565b604082019050919050565b600061124b60228361150a565b915061125682611779565b604082019050919050565b600061126e60168361150a565b9150611279826117c8565b602082019050919050565b600061129160168361150a565b915061129c826117f1565b602082019050919050565b60006112b4601c8361150a565b91506112bf8261181a565b602082019050919050565b60006112d760128361150a565b91506112e282611843565b602082019050919050565b60006112fa60238361150a565b91506113058261186c565b604082019050919050565b600061131d601c8361150a565b9150611328826118bb565b602082019050919050565b61133c816115bb565b82525050565b61135361134e826115bb565b6115c5565b82525050565b60006113658284611342565b60208201915081905092915050565b600060208201905061138960008301846111a3565b92915050565b600060208201905081810360008301526113a8816111b2565b9050919050565b600060208201905081810360008301526113c8816111d5565b9050919050565b600060208201905081810360008301526113e8816111f8565b9050919050565b600060208201905081810360008301526114088161121b565b9050919050565b600060208201905081810360008301526114288161123e565b9050919050565b6000602082019050818103600083015261144881611261565b9050919050565b6000602082019050818103600083015261146881611284565b9050919050565b60006020820190508181036000830152611488816112a7565b9050919050565b600060208201905081810360008301526114a8816112ca565b9050919050565b600060208201905081810360008301526114c8816112ed565b9050919050565b600060208201905081810360008301526114e881611310565b9050919050565b60006020820190506115046000830184611333565b92915050565b600082825260208201905092915050565b6000611526826115bb565b9150611531836115bb565b9250827fffffffffffffffffffffffffffffffffffffffffffffffffffffffffffffffff0382111561156657611565611600565b5b828201905092915050565b600061157c826115bb565b9150611587836115bb565b92508282101561159a57611599611600565b5b828203905092915050565b60008115159050919050565b6000819050919050565b6000819050919050565b6000819050919050565b60006115da826115bb565b91506115e5836115bb565b9250826115f5576115f461162f565b5b828206905092915050565b7f4e487b7100000000000000000000000000000000000000000000000000000000600052601160045260246000fd5b7f4e487b7100000000000000000000000000000000000000000000000000000000600052601260045260246000fd5b600080fd5b7f596f75206d7573742068617665206174206c6561737420332065746820746f2060008201527f7374617274207468652067616d652e0000000000000000000000000000000000602082015250565b7f596f7520686173206265656e207265676973746572656420617320706c61796560008201527f7220410000000000000000000000000000000000000000000000000000000000602082015250565b7f506c61796572204120686173206265656e207265676973746572656400000000600082015250565b7f47616d652063616e20737461727420756e74696c20616c6c20706c617965727360008201527f2072657365740000000000000000000000000000000000000000000000000000602082015250565b7f596f7520617265206e6f742072656769737465726564206173206120706c617960008201527f6572000000000000000000000000000000000000000000000000000000000000602082015250565b7f506c6179657242206e6f74207265676973746572656400000000000000000000600082015250565b7f506c6179657241206e6f74207265676973746572656400000000000000000000600082015250565b7f706c6561736520656e74657220796f757220636f6d6d69746d656e7400000000600082015250565b7f57726f6e67207365637265744e756d6265720000000000000000000000000000600082015250565b7f596f7520686173206265656e207265676973746572656420617320706c61796560008201527f7220420000000000000000000000000000000000000000000000000000000000602082015250565b7f506c61796572204220686173206265656e207265676973746572656400000000600082015250565b6118ed816115a5565b81146118f857600080fd5b50565b611904816115b1565b811461190f57600080fd5b50565b61191b816115bb565b811461192657600080fd5b5056fea26469706673582212208d473d6305d190805b27b163f6a865fe19a50d2dd90b99407bd9609ce736cd4764736f6c63430008070033",
					"opcodes": "PUSH1 0x80 PUSH1 0x40 MSTORE PUSH1 0x0 PUSH1 0x3 SSTORE CALLVALUE DUP1 ISZERO PUSH2 0x15 JUMPI PUSH1 0x0 DUP1 REVERT JUMPDEST POP PUSH2 0x195F DUP1 PUSH2 0x25 PUSH1 0x0 CODECOPY PUSH1 0x0 RETURN INVALID PUSH1 0x80 PUSH1 0x40 MSTORE PUSH1 0x4 CALLDATASIZE LT PUSH2 0x70 JUMPI PUSH1 0x0 CALLDATALOAD PUSH1 0xE0 SHR DUP1 PUSH4 0x56C332FC GT PUSH2 0x4E JUMPI DUP1 PUSH4 0x56C332FC EQ PUSH2 0x106 JUMPI DUP1 PUSH4 0x85BDC22F EQ PUSH2 0x143 JUMPI DUP1 PUSH4 0xED21248C EQ PUSH2 0x16C JUMPI DUP1 PUSH4 0xFF2DDB0E EQ PUSH2 0x176 JUMPI PUSH2 0x70 JUMP JUMPDEST DUP1 PUSH4 0x2C6C73A6 EQ PUSH2 0x75 JUMPI DUP1 PUSH4 0x490B63E1 EQ PUSH2 0xA0 JUMPI DUP1 PUSH4 0x4ADF554C EQ PUSH2 0xC9 JUMPI JUMPDEST PUSH1 0x0 DUP1 REVERT JUMPDEST CALLVALUE DUP1 ISZERO PUSH2 0x81 JUMPI PUSH1 0x0 DUP1 REVERT JUMPDEST POP PUSH2 0x8A PUSH2 0x19F JUMP JUMPDEST PUSH1 0x40 MLOAD PUSH2 0x97 SWAP2 SWAP1 PUSH2 0x14EF JUMP JUMPDEST PUSH1 0x40 MLOAD DUP1 SWAP2 SUB SWAP1 RETURN JUMPDEST CALLVALUE DUP1 ISZERO PUSH2 0xAC JUMPI PUSH1 0x0 DUP1 REVERT JUMPDEST POP PUSH2 0xC7 PUSH1 0x4 DUP1 CALLDATASIZE SUB DUP2 ADD SWAP1 PUSH2 0xC2 SWAP2 SWAP1 PUSH2 0x1149 JUMP JUMPDEST PUSH2 0x1E5 JUMP JUMPDEST STOP JUMPDEST CALLVALUE DUP1 ISZERO PUSH2 0xD5 JUMPI PUSH1 0x0 DUP1 REVERT JUMPDEST POP PUSH2 0xF0 PUSH1 0x4 DUP1 CALLDATASIZE SUB DUP2 ADD SWAP1 PUSH2 0xEB SWAP2 SWAP1 PUSH2 0x1176 JUMP JUMPDEST PUSH2 0x3D5 JUMP JUMPDEST PUSH1 0x40 MLOAD PUSH2 0xFD SWAP2 SWAP1 PUSH2 0x14EF JUMP JUMPDEST PUSH1 0x40 MLOAD DUP1 SWAP2 SUB SWAP1 RETURN JUMPDEST CALLVALUE DUP1 ISZERO PUSH2 0x112 JUMPI PUSH1 0x0 DUP1 REVERT JUMPDEST POP PUSH2 0x12D PUSH1 0x4 DUP1 CALLDATASIZE SUB DUP2 ADD SWAP1 PUSH2 0x128 SWAP2 SWAP1 PUSH2 0x1176 JUMP JUMPDEST PUSH2 0x94C JUMP JUMPDEST PUSH1 0x40 MLOAD PUSH2 0x13A SWAP2 SWAP1 PUSH2 0x1374 JUMP JUMPDEST PUSH1 0x40 MLOAD DUP1 SWAP2 SUB SWAP1 RETURN JUMPDEST CALLVALUE DUP1 ISZERO PUSH2 0x14F JUMPI PUSH1 0x0 DUP1 REVERT JUMPDEST POP PUSH2 0x16A PUSH1 0x4 DUP1 CALLDATASIZE SUB DUP2 ADD SWAP1 PUSH2 0x165 SWAP2 SWAP1 PUSH2 0x111C JUMP JUMPDEST PUSH2 0x97C JUMP JUMPDEST STOP JUMPDEST PUSH2 0x174 PUSH2 0xD1B JUMP JUMPDEST STOP JUMPDEST CALLVALUE DUP1 ISZERO PUSH2 0x182 JUMPI PUSH1 0x0 DUP1 REVERT JUMPDEST POP PUSH2 0x19D PUSH1 0x4 DUP1 CALLDATASIZE SUB DUP2 ADD SWAP1 PUSH2 0x198 SWAP2 SWAP1 PUSH2 0x1149 JUMP JUMPDEST PUSH2 0xEED JUMP JUMPDEST STOP JUMPDEST PUSH1 0x0 DUP1 PUSH1 0x0 CALLER PUSH20 0xFFFFFFFFFFFFFFFFFFFFFFFFFFFFFFFFFFFFFFFF AND PUSH20 0xFFFFFFFFFFFFFFFFFFFFFFFFFFFFFFFFFFFFFFFF AND DUP2 MSTORE PUSH1 0x20 ADD SWAP1 DUP2 MSTORE PUSH1 0x20 ADD PUSH1 0x0 KECCAK256 SLOAD SWAP1 POP SWAP1 JUMP JUMPDEST PUSH1 0x0 DUP1 SHL DUP2 EQ ISZERO PUSH2 0x22B JUMPI PUSH1 0x40 MLOAD PUSH32 0x8C379A000000000000000000000000000000000000000000000000000000000 DUP2 MSTORE PUSH1 0x4 ADD PUSH2 0x222 SWAP1 PUSH2 0x146F JUMP JUMPDEST PUSH1 0x40 MLOAD DUP1 SWAP2 SUB SWAP1 REVERT JUMPDEST PUSH1 0x0 PUSH20 0xFFFFFFFFFFFFFFFFFFFFFFFFFFFFFFFFFFFFFFFF AND PUSH1 0x5 PUSH1 0x0 SWAP1 SLOAD SWAP1 PUSH2 0x100 EXP SWAP1 DIV PUSH20 0xFFFFFFFFFFFFFFFFFFFFFFFFFFFFFFFFFFFFFFFF AND PUSH20 0xFFFFFFFFFFFFFFFFFFFFFFFFFFFFFFFFFFFFFFFF AND EQ PUSH2 0x2BC JUMPI PUSH1 0x40 MLOAD PUSH32 0x8C379A000000000000000000000000000000000000000000000000000000000 DUP2 MSTORE PUSH1 0x4 ADD PUSH2 0x2B3 SWAP1 PUSH2 0x14CF JUMP JUMPDEST PUSH1 0x40 MLOAD DUP1 SWAP2 SUB SWAP1 REVERT JUMPDEST CALLER PUSH20 0xFFFFFFFFFFFFFFFFFFFFFFFFFFFFFFFFFFFFFFFF AND PUSH1 0x4 PUSH1 0x0 SWAP1 SLOAD SWAP1 PUSH2 0x100 EXP SWAP1 DIV PUSH20 0xFFFFFFFFFFFFFFFFFFFFFFFFFFFFFFFFFFFFFFFF AND PUSH20 0xFFFFFFFFFFFFFFFFFFFFFFFFFFFFFFFFFFFFFFFF AND EQ ISZERO PUSH2 0x34D JUMPI PUSH1 0x40 MLOAD PUSH32 0x8C379A000000000000000000000000000000000000000000000000000000000 DUP2 MSTORE PUSH1 0x4 ADD PUSH2 0x344 SWAP1 PUSH2 0x13AF JUMP JUMPDEST PUSH1 0x40 MLOAD DUP1 SWAP2 SUB SWAP1 REVERT JUMPDEST CALLER PUSH1 0x5 PUSH1 0x0 PUSH2 0x100 EXP DUP2 SLOAD DUP2 PUSH20 0xFFFFFFFFFFFFFFFFFFFFFFFFFFFFFFFFFFFFFFFF MUL NOT AND SWAP1 DUP4 PUSH20 0xFFFFFFFFFFFFFFFFFFFFFFFFFFFFFFFFFFFFFFFF AND MUL OR SWAP1 SSTORE POP DUP1 PUSH1 0x1 PUSH1 0x0 CALLER PUSH20 0xFFFFFFFFFFFFFFFFFFFFFFFFFFFFFFFFFFFFFFFF AND PUSH20 0xFFFFFFFFFFFFFFFFFFFFFFFFFFFFFFFFFFFFFFFF AND DUP2 MSTORE PUSH1 0x20 ADD SWAP1 DUP2 MSTORE PUSH1 0x20 ADD PUSH1 0x0 KECCAK256 DUP2 SWAP1 SSTORE POP POP JUMP JUMPDEST PUSH1 0x0 DUP2 PUSH1 0x40 MLOAD PUSH1 0x20 ADD PUSH2 0x3E8 SWAP2 SWAP1 PUSH2 0x1359 JUMP JUMPDEST PUSH1 0x40 MLOAD PUSH1 0x20 DUP2 DUP4 SUB SUB DUP2 MSTORE SWAP1 PUSH1 0x40 MSTORE DUP1 MLOAD SWAP1 PUSH1 0x20 ADD KECCAK256 PUSH1 0x1 PUSH1 0x0 CALLER PUSH20 0xFFFFFFFFFFFFFFFFFFFFFFFFFFFFFFFFFFFFFFFF AND PUSH20 0xFFFFFFFFFFFFFFFFFFFFFFFFFFFFFFFFFFFFFFFF AND DUP2 MSTORE PUSH1 0x20 ADD SWAP1 DUP2 MSTORE PUSH1 0x20 ADD PUSH1 0x0 KECCAK256 SLOAD EQ PUSH2 0x47E JUMPI PUSH1 0x40 MLOAD PUSH32 0x8C379A000000000000000000000000000000000000000000000000000000000 DUP2 MSTORE PUSH1 0x4 ADD PUSH2 0x475 SWAP1 PUSH2 0x148F JUMP JUMPDEST PUSH1 0x40 MLOAD DUP1 SWAP2 SUB SWAP1 REVERT JUMPDEST PUSH1 0x0 PUSH20 0xFFFFFFFFFFFFFFFFFFFFFFFFFFFFFFFFFFFFFFFF AND PUSH1 0x4 PUSH1 0x0 SWAP1 SLOAD SWAP1 PUSH2 0x100 EXP SWAP1 DIV PUSH20 0xFFFFFFFFFFFFFFFFFFFFFFFFFFFFFFFFFFFFFFFF AND PUSH20 0xFFFFFFFFFFFFFFFFFFFFFFFFFFFFFFFFFFFFFFFF AND EQ ISZERO PUSH2 0x510 JUMPI PUSH1 0x40 MLOAD PUSH32 0x8C379A000000000000000000000000000000000000000000000000000000000 DUP2 MSTORE PUSH1 0x4 ADD PUSH2 0x507 SWAP1 PUSH2 0x144F JUMP JUMPDEST PUSH1 0x40 MLOAD DUP1 SWAP2 SUB SWAP1 REVERT JUMPDEST PUSH1 0x0 PUSH20 0xFFFFFFFFFFFFFFFFFFFFFFFFFFFFFFFFFFFFFFFF AND PUSH1 0x5 PUSH1 0x0 SWAP1 SLOAD SWAP1 PUSH2 0x100 EXP SWAP1 DIV PUSH20 0xFFFFFFFFFFFFFFFFFFFFFFFFFFFFFFFFFFFFFFFF AND PUSH20 0xFFFFFFFFFFFFFFFFFFFFFFFFFFFFFFFFFFFFFFFF AND EQ ISZERO PUSH2 0x5A2 JUMPI PUSH1 0x40 MLOAD PUSH32 0x8C379A000000000000000000000000000000000000000000000000000000000 DUP2 MSTORE PUSH1 0x4 ADD PUSH2 0x599 SWAP1 PUSH2 0x142F JUMP JUMPDEST PUSH1 0x40 MLOAD DUP1 SWAP2 SUB SWAP1 REVERT JUMPDEST PUSH1 0x0 PUSH1 0x3 SLOAD EQ PUSH2 0x5E7 JUMPI PUSH1 0x40 MLOAD PUSH32 0x8C379A000000000000000000000000000000000000000000000000000000000 DUP2 MSTORE PUSH1 0x4 ADD PUSH2 0x5DE SWAP1 PUSH2 0x13EF JUMP JUMPDEST PUSH1 0x40 MLOAD DUP1 SWAP2 SUB SWAP1 REVERT JUMPDEST DUP2 PUSH1 0x2 PUSH1 0x0 CALLER PUSH20 0xFFFFFFFFFFFFFFFFFFFFFFFFFFFFFFFFFFFFFFFF AND PUSH20 0xFFFFFFFFFFFFFFFFFFFFFFFFFFFFFFFFFFFFFFFF AND DUP2 MSTORE PUSH1 0x20 ADD SWAP1 DUP2 MSTORE PUSH1 0x20 ADD PUSH1 0x0 KECCAK256 DUP2 SWAP1 SSTORE POP PUSH1 0x6 PUSH1 0x2 PUSH1 0x0 PUSH1 0x5 PUSH1 0x0 SWAP1 SLOAD SWAP1 PUSH2 0x100 EXP SWAP1 DIV PUSH20 0xFFFFFFFFFFFFFFFFFFFFFFFFFFFFFFFFFFFFFFFF AND PUSH20 0xFFFFFFFFFFFFFFFFFFFFFFFFFFFFFFFFFFFFFFFF AND PUSH20 0xFFFFFFFFFFFFFFFFFFFFFFFFFFFFFFFFFFFFFFFF AND DUP2 MSTORE PUSH1 0x20 ADD SWAP1 DUP2 MSTORE PUSH1 0x20 ADD PUSH1 0x0 KECCAK256 SLOAD PUSH1 0x2 PUSH1 0x0 PUSH1 0x4 PUSH1 0x0 SWAP1 SLOAD SWAP1 PUSH2 0x100 EXP SWAP1 DIV PUSH20 0xFFFFFFFFFFFFFFFFFFFFFFFFFFFFFFFFFFFFFFFF AND PUSH20 0xFFFFFFFFFFFFFFFFFFFFFFFFFFFFFFFFFFFFFFFF AND PUSH20 0xFFFFFFFFFFFFFFFFFFFFFFFFFFFFFFFFFFFFFFFF AND DUP2 MSTORE PUSH1 0x20 ADD SWAP1 DUP2 MSTORE PUSH1 0x20 ADD PUSH1 0x0 KECCAK256 SLOAD XOR PUSH1 0x40 MLOAD PUSH1 0x20 ADD PUSH2 0x702 SWAP2 SWAP1 PUSH2 0x1359 JUMP JUMPDEST PUSH1 0x40 MLOAD PUSH1 0x20 DUP2 DUP4 SUB SUB DUP2 MSTORE SWAP1 PUSH1 0x40 MSTORE DUP1 MLOAD SWAP1 PUSH1 0x20 ADD KECCAK256 PUSH1 0x0 SHR PUSH2 0x725 SWAP2 SWAP1 PUSH2 0x15CF JUMP JUMPDEST PUSH1 0x1 PUSH2 0x731 SWAP2 SWAP1 PUSH2 0x151B JUMP JUMPDEST PUSH1 0x3 DUP2 SWAP1 SSTORE POP PUSH1 0x4 PUSH1 0x3 SLOAD LT ISZERO PUSH2 0x839 JUMPI PUSH1 0x3 SLOAD PUSH1 0x0 DUP1 PUSH1 0x4 PUSH1 0x0 SWAP1 SLOAD SWAP1 PUSH2 0x100 EXP SWAP1 DIV PUSH20 0xFFFFFFFFFFFFFFFFFFFFFFFFFFFFFFFFFFFFFFFF AND PUSH20 0xFFFFFFFFFFFFFFFFFFFFFFFFFFFFFFFFFFFFFFFF AND PUSH20 0xFFFFFFFFFFFFFFFFFFFFFFFFFFFFFFFFFFFFFFFF AND DUP2 MSTORE PUSH1 0x20 ADD SWAP1 DUP2 MSTORE PUSH1 0x20 ADD PUSH1 0x0 KECCAK256 PUSH1 0x0 DUP3 DUP3 SLOAD PUSH2 0x7B4 SWAP2 SWAP1 PUSH2 0x151B JUMP JUMPDEST SWAP3 POP POP DUP2 SWAP1 SSTORE POP PUSH1 0x3 SLOAD PUSH1 0x0 DUP1 PUSH1 0x5 PUSH1 0x0 SWAP1 SLOAD SWAP1 PUSH2 0x100 EXP SWAP1 DIV PUSH20 0xFFFFFFFFFFFFFFFFFFFFFFFFFFFFFFFFFFFFFFFF AND PUSH20 0xFFFFFFFFFFFFFFFFFFFFFFFFFFFFFFFFFFFFFFFF AND PUSH20 0xFFFFFFFFFFFFFFFFFFFFFFFFFFFFFFFFFFFFFFFF AND DUP2 MSTORE PUSH1 0x20 ADD SWAP1 DUP2 MSTORE PUSH1 0x20 ADD PUSH1 0x0 KECCAK256 PUSH1 0x0 DUP3 DUP3 SLOAD PUSH2 0x82D SWAP2 SWAP1 PUSH2 0x1571 JUMP JUMPDEST SWAP3 POP POP DUP2 SWAP1 SSTORE POP PUSH2 0x942 JUMP JUMPDEST PUSH1 0x3 DUP1 SLOAD PUSH2 0x847 SWAP2 SWAP1 PUSH2 0x1571 JUMP JUMPDEST PUSH1 0x0 DUP1 PUSH1 0x4 PUSH1 0x0 SWAP1 SLOAD SWAP1 PUSH2 0x100 EXP SWAP1 DIV PUSH20 0xFFFFFFFFFFFFFFFFFFFFFFFFFFFFFFFFFFFFFFFF AND PUSH20 0xFFFFFFFFFFFFFFFFFFFFFFFFFFFFFFFFFFFFFFFF AND PUSH20 0xFFFFFFFFFFFFFFFFFFFFFFFFFFFFFFFFFFFFFFFF AND DUP2 MSTORE PUSH1 0x20 ADD SWAP1 DUP2 MSTORE PUSH1 0x20 ADD PUSH1 0x0 KECCAK256 PUSH1 0x0 DUP3 DUP3 SLOAD PUSH2 0x8B6 SWAP2 SWAP1 PUSH2 0x1571 JUMP JUMPDEST SWAP3 POP POP DUP2 SWAP1 SSTORE POP PUSH1 0x3 DUP1 SLOAD PUSH2 0x8CB SWAP2 SWAP1 PUSH2 0x1571 JUMP JUMPDEST PUSH1 0x0 DUP1 PUSH1 0x5 PUSH1 0x0 SWAP1 SLOAD SWAP1 PUSH2 0x100 EXP SWAP1 DIV PUSH20 0xFFFFFFFFFFFFFFFFFFFFFFFFFFFFFFFFFFFFFFFF AND PUSH20 0xFFFFFFFFFFFFFFFFFFFFFFFFFFFFFFFFFFFFFFFF AND PUSH20 0xFFFFFFFFFFFFFFFFFFFFFFFFFFFFFFFFFFFFFFFF AND DUP2 MSTORE PUSH1 0x20 ADD SWAP1 DUP2 MSTORE PUSH1 0x20 ADD PUSH1 0x0 KECCAK256 PUSH1 0x0 DUP3 DUP3 SLOAD PUSH2 0x93A SWAP2 SWAP1 PUSH2 0x151B JUMP JUMPDEST SWAP3 POP POP DUP2 SWAP1 SSTORE POP JUMPDEST PUSH1 0x3 SLOAD SWAP1 POP SWAP2 SWAP1 POP JUMP JUMPDEST PUSH1 0x0 DUP2 PUSH1 0x40 MLOAD PUSH1 0x20 ADD PUSH2 0x95F SWAP2 SWAP1 PUSH2 0x1359 JUMP JUMPDEST PUSH1 0x40 MLOAD PUSH1 0x20 DUP2 DUP4 SUB SUB DUP2 MSTORE SWAP1 PUSH1 0x40 MSTORE DUP1 MLOAD SWAP1 PUSH1 0x20 ADD KECCAK256 SWAP1 POP SWAP2 SWAP1 POP JUMP JUMPDEST PUSH1 0x4 PUSH1 0x0 SWAP1 SLOAD SWAP1 PUSH2 0x100 EXP SWAP1 DIV PUSH20 0xFFFFFFFFFFFFFFFFFFFFFFFFFFFFFFFFFFFFFFFF AND PUSH20 0xFFFFFFFFFFFFFFFFFFFFFFFFFFFFFFFFFFFFFFFF AND CALLER PUSH20 0xFFFFFFFFFFFFFFFFFFFFFFFFFFFFFFFFFFFFFFFF AND EQ ISZERO PUSH2 0xA80 JUMPI PUSH1 0x0 PUSH1 0x4 PUSH1 0x0 PUSH2 0x100 EXP DUP2 SLOAD DUP2 PUSH20 0xFFFFFFFFFFFFFFFFFFFFFFFFFFFFFFFFFFFFFFFF MUL NOT AND SWAP1 DUP4 PUSH20 0xFFFFFFFFFFFFFFFFFFFFFFFFFFFFFFFFFFFFFFFF AND MUL OR SWAP1 SSTORE POP PUSH1 0x0 PUSH1 0x2 PUSH1 0x0 PUSH1 0x4 PUSH1 0x0 SWAP1 SLOAD SWAP1 PUSH2 0x100 EXP SWAP1 DIV PUSH20 0xFFFFFFFFFFFFFFFFFFFFFFFFFFFFFFFFFFFFFFFF AND PUSH20 0xFFFFFFFFFFFFFFFFFFFFFFFFFFFFFFFFFFFFFFFF AND PUSH20 0xFFFFFFFFFFFFFFFFFFFFFFFFFFFFFFFFFFFFFFFF AND DUP2 MSTORE PUSH1 0x20 ADD SWAP1 DUP2 MSTORE PUSH1 0x20 ADD PUSH1 0x0 KECCAK256 DUP2 SWAP1 SSTORE POP PUSH2 0xB81 JUMP JUMPDEST PUSH1 0x5 PUSH1 0x0 SWAP1 SLOAD SWAP1 PUSH2 0x100 EXP SWAP1 DIV PUSH20 0xFFFFFFFFFFFFFFFFFFFFFFFFFFFFFFFFFFFFFFFF AND PUSH20 0xFFFFFFFFFFFFFFFFFFFFFFFFFFFFFFFFFFFFFFFF AND CALLER PUSH20 0xFFFFFFFFFFFFFFFFFFFFFFFFFFFFFFFFFFFFFFFF AND EQ ISZERO PUSH2 0xB80 JUMPI PUSH1 0x0 PUSH1 0x5 PUSH1 0x0 PUSH2 0x100 EXP DUP2 SLOAD DUP2 PUSH20 0xFFFFFFFFFFFFFFFFFFFFFFFFFFFFFFFFFFFFFFFF MUL NOT AND SWAP1 DUP4 PUSH20 0xFFFFFFFFFFFFFFFFFFFFFFFFFFFFFFFFFFFFFFFF AND MUL OR SWAP1 SSTORE POP PUSH1 0x0 PUSH1 0x2 PUSH1 0x0 PUSH1 0x5 PUSH1 0x0 SWAP1 SLOAD SWAP1 PUSH2 0x100 EXP SWAP1 DIV PUSH20 0xFFFFFFFFFFFFFFFFFFFFFFFFFFFFFFFFFFFFFFFF AND PUSH20 0xFFFFFFFFFFFFFFFFFFFFFFFFFFFFFFFFFFFFFFFF AND PUSH20 0xFFFFFFFFFFFFFFFFFFFFFFFFFFFFFFFFFFFFFFFF AND DUP2 MSTORE PUSH1 0x20 ADD SWAP1 DUP2 MSTORE PUSH1 0x20 ADD PUSH1 0x0 KECCAK256 DUP2 SWAP1 SSTORE POP JUMPDEST JUMPDEST PUSH1 0x0 PUSH20 0xFFFFFFFFFFFFFFFFFFFFFFFFFFFFFFFFFFFFFFFF AND PUSH1 0x4 PUSH1 0x0 SWAP1 SLOAD SWAP1 PUSH2 0x100 EXP SWAP1 DIV PUSH20 0xFFFFFFFFFFFFFFFFFFFFFFFFFFFFFFFFFFFFFFFF AND PUSH20 0xFFFFFFFFFFFFFFFFFFFFFFFFFFFFFFFFFFFFFFFF AND EQ DUP1 ISZERO PUSH2 0xC2D JUMPI POP PUSH1 0x0 PUSH20 0xFFFFFFFFFFFFFFFFFFFFFFFFFFFFFFFFFFFFFFFF AND PUSH1 0x5 PUSH1 0x0 SWAP1 SLOAD SWAP1 PUSH2 0x100 EXP SWAP1 DIV PUSH20 0xFFFFFFFFFFFFFFFFFFFFFFFFFFFFFFFFFFFFFFFF AND PUSH20 0xFFFFFFFFFFFFFFFFFFFFFFFFFFFFFFFFFFFFFFFF AND EQ JUMPDEST ISZERO PUSH2 0xC3B JUMPI PUSH1 0x0 PUSH1 0x3 DUP2 SWAP1 SSTORE POP JUMPDEST PUSH1 0x1 ISZERO ISZERO DUP2 ISZERO ISZERO EQ ISZERO PUSH2 0xD18 JUMPI PUSH1 0x0 DUP1 PUSH1 0x0 CALLER PUSH20 0xFFFFFFFFFFFFFFFFFFFFFFFFFFFFFFFFFFFFFFFF AND PUSH20 0xFFFFFFFFFFFFFFFFFFFFFFFFFFFFFFFFFFFFFFFF AND DUP2 MSTORE PUSH1 0x20 ADD SWAP1 DUP2 MSTORE PUSH1 0x20 ADD PUSH1 0x0 KECCAK256 SLOAD SWAP1 POP PUSH1 0x0 DUP1 PUSH1 0x0 CALLER PUSH20 0xFFFFFFFFFFFFFFFFFFFFFFFFFFFFFFFFFFFFFFFF AND PUSH20 0xFFFFFFFFFFFFFFFFFFFFFFFFFFFFFFFFFFFFFFFF AND DUP2 MSTORE PUSH1 0x20 ADD SWAP1 DUP2 MSTORE PUSH1 0x20 ADD PUSH1 0x0 KECCAK256 DUP2 SWAP1 SSTORE POP CALLER PUSH20 0xFFFFFFFFFFFFFFFFFFFFFFFFFFFFFFFFFFFFFFFF AND PUSH2 0x8FC DUP3 SWAP1 DUP2 ISZERO MUL SWAP1 PUSH1 0x40 MLOAD PUSH1 0x0 PUSH1 0x40 MLOAD DUP1 DUP4 SUB DUP2 DUP6 DUP9 DUP9 CALL SWAP4 POP POP POP POP ISZERO DUP1 ISZERO PUSH2 0xD15 JUMPI RETURNDATASIZE PUSH1 0x0 DUP1 RETURNDATACOPY RETURNDATASIZE PUSH1 0x0 REVERT JUMPDEST POP POP JUMPDEST POP JUMP JUMPDEST PUSH8 0x29A2241AF62C0000 CALLVALUE PUSH1 0x0 DUP1 CALLER PUSH20 0xFFFFFFFFFFFFFFFFFFFFFFFFFFFFFFFFFFFFFFFF AND PUSH20 0xFFFFFFFFFFFFFFFFFFFFFFFFFFFFFFFFFFFFFFFF AND DUP2 MSTORE PUSH1 0x20 ADD SWAP1 DUP2 MSTORE PUSH1 0x20 ADD PUSH1 0x0 KECCAK256 SLOAD PUSH2 0xD6E SWAP2 SWAP1 PUSH2 0x151B JUMP JUMPDEST GT PUSH2 0xDAE JUMPI PUSH1 0x40 MLOAD PUSH32 0x8C379A000000000000000000000000000000000000000000000000000000000 DUP2 MSTORE PUSH1 0x4 ADD PUSH2 0xDA5 SWAP1 PUSH2 0x138F JUMP JUMPDEST PUSH1 0x40 MLOAD DUP1 SWAP2 SUB SWAP1 REVERT JUMPDEST CALLER PUSH20 0xFFFFFFFFFFFFFFFFFFFFFFFFFFFFFFFFFFFFFFFF AND PUSH1 0x4 PUSH1 0x0 SWAP1 SLOAD SWAP1 PUSH2 0x100 EXP SWAP1 DIV PUSH20 0xFFFFFFFFFFFFFFFFFFFFFFFFFFFFFFFFFFFFFFFF AND PUSH20 0xFFFFFFFFFFFFFFFFFFFFFFFFFFFFFFFFFFFFFFFF AND EQ DUP1 PUSH2 0xE57 JUMPI POP CALLER PUSH20 0xFFFFFFFFFFFFFFFFFFFFFFFFFFFFFFFFFFFFFFFF AND PUSH1 0x5 PUSH1 0x0 SWAP1 SLOAD SWAP1 PUSH2 0x100 EXP SWAP1 DIV PUSH20 0xFFFFFFFFFFFFFFFFFFFFFFFFFFFFFFFFFFFFFFFF AND PUSH20 0xFFFFFFFFFFFFFFFFFFFFFFFFFFFFFFFFFFFFFFFF AND EQ JUMPDEST PUSH2 0xE96 JUMPI PUSH1 0x40 MLOAD PUSH32 0x8C379A000000000000000000000000000000000000000000000000000000000 DUP2 MSTORE PUSH1 0x4 ADD PUSH2 0xE8D SWAP1 PUSH2 0x140F JUMP JUMPDEST PUSH1 0x40 MLOAD DUP1 SWAP2 SUB SWAP1 REVERT JUMPDEST CALLVALUE PUSH1 0x0 DUP1 CALLER PUSH20 0xFFFFFFFFFFFFFFFFFFFFFFFFFFFFFFFFFFFFFFFF AND PUSH20 0xFFFFFFFFFFFFFFFFFFFFFFFFFFFFFFFFFFFFFFFF AND DUP2 MSTORE PUSH1 0x20 ADD SWAP1 DUP2 MSTORE PUSH1 0x20 ADD PUSH1 0x0 KECCAK256 PUSH1 0x0 DUP3 DUP3 SLOAD PUSH2 0xEE4 SWAP2 SWAP1 PUSH2 0x151B JUMP JUMPDEST SWAP3 POP POP DUP2 SWAP1 SSTORE POP JUMP JUMPDEST PUSH1 0x0 DUP1 SHL DUP2 EQ ISZERO PUSH2 0xF33 JUMPI PUSH1 0x40 MLOAD PUSH32 0x8C379A000000000000000000000000000000000000000000000000000000000 DUP2 MSTORE PUSH1 0x4 ADD PUSH2 0xF2A SWAP1 PUSH2 0x146F JUMP JUMPDEST PUSH1 0x40 MLOAD DUP1 SWAP2 SUB SWAP1 REVERT JUMPDEST PUSH1 0x0 PUSH20 0xFFFFFFFFFFFFFFFFFFFFFFFFFFFFFFFFFFFFFFFF AND PUSH1 0x4 PUSH1 0x0 SWAP1 SLOAD SWAP1 PUSH2 0x100 EXP SWAP1 DIV PUSH20 0xFFFFFFFFFFFFFFFFFFFFFFFFFFFFFFFFFFFFFFFF AND PUSH20 0xFFFFFFFFFFFFFFFFFFFFFFFFFFFFFFFFFFFFFFFF AND EQ PUSH2 0xFC4 JUMPI PUSH1 0x40 MLOAD PUSH32 0x8C379A000000000000000000000000000000000000000000000000000000000 DUP2 MSTORE PUSH1 0x4 ADD PUSH2 0xFBB SWAP1 PUSH2 0x13CF JUMP JUMPDEST PUSH1 0x40 MLOAD DUP1 SWAP2 SUB SWAP1 REVERT JUMPDEST CALLER PUSH20 0xFFFFFFFFFFFFFFFFFFFFFFFFFFFFFFFFFFFFFFFF AND PUSH1 0x5 PUSH1 0x0 SWAP1 SLOAD SWAP1 PUSH2 0x100 EXP SWAP1 DIV PUSH20 0xFFFFFFFFFFFFFFFFFFFFFFFFFFFFFFFFFFFFFFFF AND PUSH20 0xFFFFFFFFFFFFFFFFFFFFFFFFFFFFFFFFFFFFFFFF AND EQ ISZERO PUSH2 0x1055 JUMPI PUSH1 0x40 MLOAD PUSH32 0x8C379A000000000000000000000000000000000000000000000000000000000 DUP2 MSTORE PUSH1 0x4 ADD PUSH2 0x104C SWAP1 PUSH2 0x14AF JUMP JUMPDEST PUSH1 0x40 MLOAD DUP1 SWAP2 SUB SWAP1 REVERT JUMPDEST CALLER PUSH1 0x4 PUSH1 0x0 PUSH2 0x100 EXP DUP2 SLOAD DUP2 PUSH20 0xFFFFFFFFFFFFFFFFFFFFFFFFFFFFFFFFFFFFFFFF MUL NOT AND SWAP1 DUP4 PUSH20 0xFFFFFFFFFFFFFFFFFFFFFFFFFFFFFFFFFFFFFFFF AND MUL OR SWAP1 SSTORE POP DUP1 PUSH1 0x1 PUSH1 0x0 CALLER PUSH20 0xFFFFFFFFFFFFFFFFFFFFFFFFFFFFFFFFFFFFFFFF AND PUSH20 0xFFFFFFFFFFFFFFFFFFFFFFFFFFFFFFFFFFFFFFFF AND DUP2 MSTORE PUSH1 0x20 ADD SWAP1 DUP2 MSTORE PUSH1 0x20 ADD PUSH1 0x0 KECCAK256 DUP2 SWAP1 SSTORE POP POP JUMP JUMPDEST PUSH1 0x0 DUP2 CALLDATALOAD SWAP1 POP PUSH2 0x10EC DUP2 PUSH2 0x18E4 JUMP JUMPDEST SWAP3 SWAP2 POP POP JUMP JUMPDEST PUSH1 0x0 DUP2 CALLDATALOAD SWAP1 POP PUSH2 0x1101 DUP2 PUSH2 0x18FB JUMP JUMPDEST SWAP3 SWAP2 POP POP JUMP JUMPDEST PUSH1 0x0 DUP2 CALLDATALOAD SWAP1 POP PUSH2 0x1116 DUP2 PUSH2 0x1912 JUMP JUMPDEST SWAP3 SWAP2 POP POP JUMP JUMPDEST PUSH1 0x0 PUSH1 0x20 DUP3 DUP5 SUB SLT ISZERO PUSH2 0x1132 JUMPI PUSH2 0x1131 PUSH2 0x165E JUMP JUMPDEST JUMPDEST PUSH1 0x0 PUSH2 0x1140 DUP5 DUP3 DUP6 ADD PUSH2 0x10DD JUMP JUMPDEST SWAP2 POP POP SWAP3 SWAP2 POP POP JUMP JUMPDEST PUSH1 0x0 PUSH1 0x20 DUP3 DUP5 SUB SLT ISZERO PUSH2 0x115F JUMPI PUSH2 0x115E PUSH2 0x165E JUMP JUMPDEST JUMPDEST PUSH1 0x0 PUSH2 0x116D DUP5 DUP3 DUP6 ADD PUSH2 0x10F2 JUMP JUMPDEST SWAP2 POP POP SWAP3 SWAP2 POP POP JUMP JUMPDEST PUSH1 0x0 PUSH1 0x20 DUP3 DUP5 SUB SLT ISZERO PUSH2 0x118C JUMPI PUSH2 0x118B PUSH2 0x165E JUMP JUMPDEST JUMPDEST PUSH1 0x0 PUSH2 0x119A DUP5 DUP3 DUP6 ADD PUSH2 0x1107 JUMP JUMPDEST SWAP2 POP POP SWAP3 SWAP2 POP POP JUMP JUMPDEST PUSH2 0x11AC DUP2 PUSH2 0x15B1 JUMP JUMPDEST DUP3 MSTORE POP POP JUMP JUMPDEST PUSH1 0x0 PUSH2 0x11BF PUSH1 0x2F DUP4 PUSH2 0x150A JUMP JUMPDEST SWAP2 POP PUSH2 0x11CA DUP3 PUSH2 0x1663 JUMP JUMPDEST PUSH1 0x40 DUP3 ADD SWAP1 POP SWAP2 SWAP1 POP JUMP JUMPDEST PUSH1 0x0 PUSH2 0x11E2 PUSH1 0x23 DUP4 PUSH2 0x150A JUMP JUMPDEST SWAP2 POP PUSH2 0x11ED DUP3 PUSH2 0x16B2 JUMP JUMPDEST PUSH1 0x40 DUP3 ADD SWAP1 POP SWAP2 SWAP1 POP JUMP JUMPDEST PUSH1 0x0 PUSH2 0x1205 PUSH1 0x1C DUP4 PUSH2 0x150A JUMP JUMPDEST SWAP2 POP PUSH2 0x1210 DUP3 PUSH2 0x1701 JUMP JUMPDEST PUSH1 0x20 DUP3 ADD SWAP1 POP SWAP2 SWAP1 POP JUMP JUMPDEST PUSH1 0x0 PUSH2 0x1228 PUSH1 0x26 DUP4 PUSH2 0x150A JUMP JUMPDEST SWAP2 POP PUSH2 0x1233 DUP3 PUSH2 0x172A JUMP JUMPDEST PUSH1 0x40 DUP3 ADD SWAP1 POP SWAP2 SWAP1 POP JUMP JUMPDEST PUSH1 0x0 PUSH2 0x124B PUSH1 0x22 DUP4 PUSH2 0x150A JUMP JUMPDEST SWAP2 POP PUSH2 0x1256 DUP3 PUSH2 0x1779 JUMP JUMPDEST PUSH1 0x40 DUP3 ADD SWAP1 POP SWAP2 SWAP1 POP JUMP JUMPDEST PUSH1 0x0 PUSH2 0x126E PUSH1 0x16 DUP4 PUSH2 0x150A JUMP JUMPDEST SWAP2 POP PUSH2 0x1279 DUP3 PUSH2 0x17C8 JUMP JUMPDEST PUSH1 0x20 DUP3 ADD SWAP1 POP SWAP2 SWAP1 POP JUMP JUMPDEST PUSH1 0x0 PUSH2 0x1291 PUSH1 0x16 DUP4 PUSH2 0x150A JUMP JUMPDEST SWAP2 POP PUSH2 0x129C DUP3 PUSH2 0x17F1 JUMP JUMPDEST PUSH1 0x20 DUP3 ADD SWAP1 POP SWAP2 SWAP1 POP JUMP JUMPDEST PUSH1 0x0 PUSH2 0x12B4 PUSH1 0x1C DUP4 PUSH2 0x150A JUMP JUMPDEST SWAP2 POP PUSH2 0x12BF DUP3 PUSH2 0x181A JUMP JUMPDEST PUSH1 0x20 DUP3 ADD SWAP1 POP SWAP2 SWAP1 POP JUMP JUMPDEST PUSH1 0x0 PUSH2 0x12D7 PUSH1 0x12 DUP4 PUSH2 0x150A JUMP JUMPDEST SWAP2 POP PUSH2 0x12E2 DUP3 PUSH2 0x1843 JUMP JUMPDEST PUSH1 0x20 DUP3 ADD SWAP1 POP SWAP2 SWAP1 POP JUMP JUMPDEST PUSH1 0x0 PUSH2 0x12FA PUSH1 0x23 DUP4 PUSH2 0x150A JUMP JUMPDEST SWAP2 POP PUSH2 0x1305 DUP3 PUSH2 0x186C JUMP JUMPDEST PUSH1 0x40 DUP3 ADD SWAP1 POP SWAP2 SWAP1 POP JUMP JUMPDEST PUSH1 0x0 PUSH2 0x131D PUSH1 0x1C DUP4 PUSH2 0x150A JUMP JUMPDEST SWAP2 POP PUSH2 0x1328 DUP3 PUSH2 0x18BB JUMP JUMPDEST PUSH1 0x20 DUP3 ADD SWAP1 POP SWAP2 SWAP1 POP JUMP JUMPDEST PUSH2 0x133C DUP2 PUSH2 0x15BB JUMP JUMPDEST DUP3 MSTORE POP POP JUMP JUMPDEST PUSH2 0x1353 PUSH2 0x134E DUP3 PUSH2 0x15BB JUMP JUMPDEST PUSH2 0x15C5 JUMP JUMPDEST DUP3 MSTORE POP POP JUMP JUMPDEST PUSH1 0x0 PUSH2 0x1365 DUP3 DUP5 PUSH2 0x1342 JUMP JUMPDEST PUSH1 0x20 DUP3 ADD SWAP2 POP DUP2 SWAP1 POP SWAP3 SWAP2 POP POP JUMP JUMPDEST PUSH1 0x0 PUSH1 0x20 DUP3 ADD SWAP1 POP PUSH2 0x1389 PUSH1 0x0 DUP4 ADD DUP5 PUSH2 0x11A3 JUMP JUMPDEST SWAP3 SWAP2 POP POP JUMP JUMPDEST PUSH1 0x0 PUSH1 0x20 DUP3 ADD SWAP1 POP DUP2 DUP2 SUB PUSH1 0x0 DUP4 ADD MSTORE PUSH2 0x13A8 DUP2 PUSH2 0x11B2 JUMP JUMPDEST SWAP1 POP SWAP2 SWAP1 POP JUMP JUMPDEST PUSH1 0x0 PUSH1 0x20 DUP3 ADD SWAP1 POP DUP2 DUP2 SUB PUSH1 0x0 DUP4 ADD MSTORE PUSH2 0x13C8 DUP2 PUSH2 0x11D5 JUMP JUMPDEST SWAP1 POP SWAP2 SWAP1 POP JUMP JUMPDEST PUSH1 0x0 PUSH1 0x20 DUP3 ADD SWAP1 POP DUP2 DUP2 SUB PUSH1 0x0 DUP4 ADD MSTORE PUSH2 0x13E8 DUP2 PUSH2 0x11F8 JUMP JUMPDEST SWAP1 POP SWAP2 SWAP1 POP JUMP JUMPDEST PUSH1 0x0 PUSH1 0x20 DUP3 ADD SWAP1 POP DUP2 DUP2 SUB PUSH1 0x0 DUP4 ADD MSTORE PUSH2 0x1408 DUP2 PUSH2 0x121B JUMP JUMPDEST SWAP1 POP SWAP2 SWAP1 POP JUMP JUMPDEST PUSH1 0x0 PUSH1 0x20 DUP3 ADD SWAP1 POP DUP2 DUP2 SUB PUSH1 0x0 DUP4 ADD MSTORE PUSH2 0x1428 DUP2 PUSH2 0x123E JUMP JUMPDEST SWAP1 POP SWAP2 SWAP1 POP JUMP JUMPDEST PUSH1 0x0 PUSH1 0x20 DUP3 ADD SWAP1 POP DUP2 DUP2 SUB PUSH1 0x0 DUP4 ADD MSTORE PUSH2 0x1448 DUP2 PUSH2 0x1261 JUMP JUMPDEST SWAP1 POP SWAP2 SWAP1 POP JUMP JUMPDEST PUSH1 0x0 PUSH1 0x20 DUP3 ADD SWAP1 POP DUP2 DUP2 SUB PUSH1 0x0 DUP4 ADD MSTORE PUSH2 0x1468 DUP2 PUSH2 0x1284 JUMP JUMPDEST SWAP1 POP SWAP2 SWAP1 POP JUMP JUMPDEST PUSH1 0x0 PUSH1 0x20 DUP3 ADD SWAP1 POP DUP2 DUP2 SUB PUSH1 0x0 DUP4 ADD MSTORE PUSH2 0x1488 DUP2 PUSH2 0x12A7 JUMP JUMPDEST SWAP1 POP SWAP2 SWAP1 POP JUMP JUMPDEST PUSH1 0x0 PUSH1 0x20 DUP3 ADD SWAP1 POP DUP2 DUP2 SUB PUSH1 0x0 DUP4 ADD MSTORE PUSH2 0x14A8 DUP2 PUSH2 0x12CA JUMP JUMPDEST SWAP1 POP SWAP2 SWAP1 POP JUMP JUMPDEST PUSH1 0x0 PUSH1 0x20 DUP3 ADD SWAP1 POP DUP2 DUP2 SUB PUSH1 0x0 DUP4 ADD MSTORE PUSH2 0x14C8 DUP2 PUSH2 0x12ED JUMP JUMPDEST SWAP1 POP SWAP2 SWAP1 POP JUMP JUMPDEST PUSH1 0x0 PUSH1 0x20 DUP3 ADD SWAP1 POP DUP2 DUP2 SUB PUSH1 0x0 DUP4 ADD MSTORE PUSH2 0x14E8 DUP2 PUSH2 0x1310 JUMP JUMPDEST SWAP1 POP SWAP2 SWAP1 POP JUMP JUMPDEST PUSH1 0x0 PUSH1 0x20 DUP3 ADD SWAP1 POP PUSH2 0x1504 PUSH1 0x0 DUP4 ADD DUP5 PUSH2 0x1333 JUMP JUMPDEST SWAP3 SWAP2 POP POP JUMP JUMPDEST PUSH1 0x0 DUP3 DUP3 MSTORE PUSH1 0x20 DUP3 ADD SWAP1 POP SWAP3 SWAP2 POP POP JUMP JUMPDEST PUSH1 0x0 PUSH2 0x1526 DUP3 PUSH2 0x15BB JUMP JUMPDEST SWAP2 POP PUSH2 0x1531 DUP4 PUSH2 0x15BB JUMP JUMPDEST SWAP3 POP DUP3 PUSH32 0xFFFFFFFFFFFFFFFFFFFFFFFFFFFFFFFFFFFFFFFFFFFFFFFFFFFFFFFFFFFFFFFF SUB DUP3 GT ISZERO PUSH2 0x1566 JUMPI PUSH2 0x1565 PUSH2 0x1600 JUMP JUMPDEST JUMPDEST DUP3 DUP3 ADD SWAP1 POP SWAP3 SWAP2 POP POP JUMP JUMPDEST PUSH1 0x0 PUSH2 0x157C DUP3 PUSH2 0x15BB JUMP JUMPDEST SWAP2 POP PUSH2 0x1587 DUP4 PUSH2 0x15BB JUMP JUMPDEST SWAP3 POP DUP3 DUP3 LT ISZERO PUSH2 0x159A JUMPI PUSH2 0x1599 PUSH2 0x1600 JUMP JUMPDEST JUMPDEST DUP3 DUP3 SUB SWAP1 POP SWAP3 SWAP2 POP POP JUMP JUMPDEST PUSH1 0x0 DUP2 ISZERO ISZERO SWAP1 POP SWAP2 SWAP1 POP JUMP JUMPDEST PUSH1 0x0 DUP2 SWAP1 POP SWAP2 SWAP1 POP JUMP JUMPDEST PUSH1 0x0 DUP2 SWAP1 POP SWAP2 SWAP1 POP JUMP JUMPDEST PUSH1 0x0 DUP2 SWAP1 POP SWAP2 SWAP1 POP JUMP JUMPDEST PUSH1 0x0 PUSH2 0x15DA DUP3 PUSH2 0x15BB JUMP JUMPDEST SWAP2 POP PUSH2 0x15E5 DUP4 PUSH2 0x15BB JUMP JUMPDEST SWAP3 POP DUP3 PUSH2 0x15F5 JUMPI PUSH2 0x15F4 PUSH2 0x162F JUMP JUMPDEST JUMPDEST DUP3 DUP3 MOD SWAP1 POP SWAP3 SWAP2 POP POP JUMP JUMPDEST PUSH32 0x4E487B7100000000000000000000000000000000000000000000000000000000 PUSH1 0x0 MSTORE PUSH1 0x11 PUSH1 0x4 MSTORE PUSH1 0x24 PUSH1 0x0 REVERT JUMPDEST PUSH32 0x4E487B7100000000000000000000000000000000000000000000000000000000 PUSH1 0x0 MSTORE PUSH1 0x12 PUSH1 0x4 MSTORE PUSH1 0x24 PUSH1 0x0 REVERT JUMPDEST PUSH1 0x0 DUP1 REVERT JUMPDEST PUSH32 0x596F75206D7573742068617665206174206C6561737420332065746820746F20 PUSH1 0x0 DUP3 ADD MSTORE PUSH32 0x7374617274207468652067616D652E0000000000000000000000000000000000 PUSH1 0x20 DUP3 ADD MSTORE POP JUMP JUMPDEST PUSH32 0x596F7520686173206265656E207265676973746572656420617320706C617965 PUSH1 0x0 DUP3 ADD MSTORE PUSH32 0x7220410000000000000000000000000000000000000000000000000000000000 PUSH1 0x20 DUP3 ADD MSTORE POP JUMP JUMPDEST PUSH32 0x506C61796572204120686173206265656E207265676973746572656400000000 PUSH1 0x0 DUP3 ADD MSTORE POP JUMP JUMPDEST PUSH32 0x47616D652063616E20737461727420756E74696C20616C6C20706C6179657273 PUSH1 0x0 DUP3 ADD MSTORE PUSH32 0x2072657365740000000000000000000000000000000000000000000000000000 PUSH1 0x20 DUP3 ADD MSTORE POP JUMP JUMPDEST PUSH32 0x596F7520617265206E6F742072656769737465726564206173206120706C6179 PUSH1 0x0 DUP3 ADD MSTORE PUSH32 0x6572000000000000000000000000000000000000000000000000000000000000 PUSH1 0x20 DUP3 ADD MSTORE POP JUMP JUMPDEST PUSH32 0x506C6179657242206E6F74207265676973746572656400000000000000000000 PUSH1 0x0 DUP3 ADD MSTORE POP JUMP JUMPDEST PUSH32 0x506C6179657241206E6F74207265676973746572656400000000000000000000 PUSH1 0x0 DUP3 ADD MSTORE POP JUMP JUMPDEST PUSH32 0x706C6561736520656E74657220796F757220636F6D6D69746D656E7400000000 PUSH1 0x0 DUP3 ADD MSTORE POP JUMP JUMPDEST PUSH32 0x57726F6E67207365637265744E756D6265720000000000000000000000000000 PUSH1 0x0 DUP3 ADD MSTORE POP JUMP JUMPDEST PUSH32 0x596F7520686173206265656E207265676973746572656420617320706C617965 PUSH1 0x0 DUP3 ADD MSTORE PUSH32 0x7220420000000000000000000000000000000000000000000000000000000000 PUSH1 0x20 DUP3 ADD MSTORE POP JUMP JUMPDEST PUSH32 0x506C61796572204220686173206265656E207265676973746572656400000000 PUSH1 0x0 DUP3 ADD MSTORE POP JUMP JUMPDEST PUSH2 0x18ED DUP2 PUSH2 0x15A5 JUMP JUMPDEST DUP2 EQ PUSH2 0x18F8 JUMPI PUSH1 0x0 DUP1 REVERT JUMPDEST POP JUMP JUMPDEST PUSH2 0x1904 DUP2 PUSH2 0x15B1 JUMP JUMPDEST DUP2 EQ PUSH2 0x190F JUMPI PUSH1 0x0 DUP1 REVERT JUMPDEST POP JUMP JUMPDEST PUSH2 0x191B DUP2 PUSH2 0x15BB JUMP JUMPDEST DUP2 EQ PUSH2 0x1926 JUMPI PUSH1 0x0 DUP1 REVERT JUMPDEST POP JUMP INVALID LOG2 PUSH5 0x6970667358 0x22 SLT KECCAK256 DUP14 SELFBALANCE RETURNDATASIZE PUSH4 0x5D19080 JUMPDEST 0x27 0xB1 PUSH4 0xF6A865FE NOT 0xA5 0xD 0x2D 0xD9 SIGNEXTEND SWAP10 BLOCKHASH PUSH28 0xD9609CE736CD4764736F6C6343000807003300000000000000000000 "
				},
				"gasEstimates": {
					"creation": {
						"codeDepositCost": "1299000",
						"executionCost": "6355",
						"totalCost": "1305355"
					},
					"external": {
						"Deposit()": "infinite",
						"GetGameResult()": "2527",
						"GetSecretHash(uint256)": "infinite",
						"RegisterPlayerA(bytes32)": "51317",
						"RegisterPlayerB(bytes32)": "51274",
						"ResetGame(bool)": "infinite",
						"StartRoll(uint256)": "infinite"
					}
				},
				"methodIdentifiers": {
					"Deposit()": "ed21248c",
					"GetGameResult()": "2c6c73a6",
					"GetSecretHash(uint256)": "56c332fc",
					"RegisterPlayerA(bytes32)": "ff2ddb0e",
					"RegisterPlayerB(bytes32)": "490b63e1",
					"ResetGame(bool)": "85bdc22f",
					"StartRoll(uint256)": "4adf554c"
				}
			},
			"storageLayout": {
				"storage": [
					{
						"astId": 6,
						"contract": "s1911027.sol:DiceRoll",
						"label": "balance",
						"offset": 0,
						"slot": "0",
						"type": "t_mapping(t_address,t_uint256)"
					},
					{
						"astId": 10,
						"contract": "s1911027.sol:DiceRoll",
						"label": "commitment",
						"offset": 0,
						"slot": "1",
						"type": "t_mapping(t_address,t_bytes32)"
					},
					{
						"astId": 14,
						"contract": "s1911027.sol:DiceRoll",
						"label": "randomNumber",
						"offset": 0,
						"slot": "2",
						"type": "t_mapping(t_address,t_uint256)"
					},
					{
						"astId": 17,
						"contract": "s1911027.sol:DiceRoll",
						"label": "dice",
						"offset": 0,
						"slot": "3",
						"type": "t_uint256"
					},
					{
						"astId": 19,
						"contract": "s1911027.sol:DiceRoll",
						"label": "playerA",
						"offset": 0,
						"slot": "4",
						"type": "t_address"
					},
					{
						"astId": 21,
						"contract": "s1911027.sol:DiceRoll",
						"label": "playerB",
						"offset": 0,
						"slot": "5",
						"type": "t_address"
					}
				],
				"types": {
					"t_address": {
						"encoding": "inplace",
						"label": "address",
						"numberOfBytes": "20"
					},
					"t_bytes32": {
						"encoding": "inplace",
						"label": "bytes32",
						"numberOfBytes": "32"
					},
					"t_mapping(t_address,t_bytes32)": {
						"encoding": "mapping",
						"key": "t_address",
						"label": "mapping(address => bytes32)",
						"numberOfBytes": "32",
						"value": "t_bytes32"
					},
					"t_mapping(t_address,t_uint256)": {
						"encoding": "mapping",
						"key": "t_address",
						"label": "mapping(address => uint256)",
						"numberOfBytes": "32",
						"value": "t_uint256"
					},
					"t_uint256": {
						"encoding": "inplace",
						"label": "uint256",
						"numberOfBytes": "32"
					}
				}
			},
			"userdoc": {
				"kind": "user",
				"methods": {},
				"notice": "Game Process 1. Player Registration - player A call RegisterPlayerA(), sending a hashvalue of the secretNumber - player B call RegisterPlayerB(), sending a hashvalue of the secretNumber 2. Deposit - player need to deposit the money to the game balance. The value of deposit should larger than the gas fee. 3. Roll Dice - player A call StartRoll(), with the secretNumber as a proof of authentication. - player B call StartRoll(), with the secretNumber as a proof of authentication. - The balance for both players should greater than 3 eth. 4. reset and restart the game - reset the dice without withdrowing the money 5. reset and withdrowing the money - reset the dice with withdrowing the money",
				"version": 1
			}
		}
	}
}