{
	"s1911027.sol": {
		"DiceRoll": {
			"abi": [
				{
					"anonymous": false,
					"inputs": [
						{
							"indexed": false,
							"internalType": "address",
							"name": "player",
							"type": "address"
						},
						{
							"indexed": false,
							"internalType": "string",
							"name": "message",
							"type": "string"
						}
					],
					"name": "Deposit",
					"type": "event"
				},
				{
					"anonymous": false,
					"inputs": [
						{
							"indexed": false,
							"internalType": "address",
							"name": "player",
							"type": "address"
						}
					],
					"name": "Registration",
					"type": "event"
				},
				{
					"anonymous": false,
					"inputs": [
						{
							"indexed": false,
							"internalType": "uint256",
							"name": "dice",
							"type": "uint256"
						}
					],
					"name": "Roll",
					"type": "event"
				},
				{
					"inputs": [
						{
							"internalType": "string",
							"name": "message",
							"type": "string"
						}
					],
					"name": "deposit",
					"outputs": [],
					"stateMutability": "payable",
					"type": "function"
				},
				{
					"inputs": [],
					"name": "getResult",
					"outputs": [
						{
							"internalType": "uint256",
							"name": "",
							"type": "uint256"
						}
					],
					"stateMutability": "view",
					"type": "function"
				},
				{
					"inputs": [
						{
							"internalType": "uint256",
							"name": "secretNumber",
							"type": "uint256"
						}
					],
					"name": "getSecretHash",
					"outputs": [
						{
							"internalType": "bytes32",
							"name": "",
							"type": "bytes32"
						}
					],
					"stateMutability": "pure",
					"type": "function"
				},
				{
					"inputs": [
						{
							"internalType": "bytes32",
							"name": "hashvalue",
							"type": "bytes32"
						}
					],
					"name": "registerPlayerA",
					"outputs": [],
					"stateMutability": "nonpayable",
					"type": "function"
				},
				{
					"inputs": [
						{
							"internalType": "bytes32",
							"name": "hashvalue",
							"type": "bytes32"
						}
					],
					"name": "registerPlayerB",
					"outputs": [],
					"stateMutability": "nonpayable",
					"type": "function"
				},
				{
					"inputs": [
						{
							"internalType": "bool",
							"name": "withdraw",
							"type": "bool"
						}
					],
					"name": "resetGame",
					"outputs": [],
					"stateMutability": "nonpayable",
					"type": "function"
				},
				{
					"inputs": [
						{
							"internalType": "uint256",
							"name": "secretNumber",
							"type": "uint256"
						}
					],
					"name": "roll",
					"outputs": [
						{
							"internalType": "uint256",
							"name": "",
							"type": "uint256"
						}
					],
					"stateMutability": "nonpayable",
					"type": "function"
				}
			],
			"devdoc": {
				"kind": "dev",
				"methods": {},
				"version": 1
			},
			"evm": {
				"assembly": "    /* \"s1911027.sol\":856:4285  contract DiceRoll {\r... */\n  mstore(0x40, 0x80)\n    /* \"s1911027.sol\":1076:1077  0 */\n  0x00\n    /* \"s1911027.sol\":1061:1077  uint256 dice = 0 */\n  0x05\n  sstore\n    /* \"s1911027.sol\":856:4285  contract DiceRoll {\r... */\n  callvalue\n  dup1\n  iszero\n  tag_1\n  jumpi\n  0x00\n  dup1\n  revert\ntag_1:\n  pop\n  dataSize(sub_0)\n  dup1\n  dataOffset(sub_0)\n  0x00\n  codecopy\n  0x00\n  return\nstop\n\nsub_0: assembly {\n        /* \"s1911027.sol\":856:4285  contract DiceRoll {\r... */\n      mstore(0x40, 0x80)\n      jumpi(tag_1, lt(calldatasize, 0x04))\n      shr(0xe0, calldataload(0x00))\n      dup1\n      0x40165194\n      gt\n      tag_9\n      jumpi\n      dup1\n      0x40165194\n      eq\n      tag_5\n      jumpi\n      dup1\n      0x82022a87\n      eq\n      tag_6\n      jumpi\n      dup1\n      0xa26e1186\n      eq\n      tag_7\n      jumpi\n      dup1\n      0xde292789\n      eq\n      tag_8\n      jumpi\n      jump(tag_1)\n    tag_9:\n      dup1\n      0x134ee552\n      eq\n      tag_2\n      jumpi\n      dup1\n      0x1f7b4f30\n      eq\n      tag_3\n      jumpi\n      dup1\n      0x24287504\n      eq\n      tag_4\n      jumpi\n    tag_1:\n      0x00\n      dup1\n      revert\n        /* \"s1911027.sol\":1218:1614  function registerPlayerA(bytes32 hashvalue) public {\r... */\n    tag_2:\n      callvalue\n      dup1\n      iszero\n      tag_10\n      jumpi\n      0x00\n      dup1\n      revert\n    tag_10:\n      pop\n      tag_11\n      0x04\n      dup1\n      calldatasize\n      sub\n      dup2\n      add\n      swap1\n      tag_12\n      swap2\n      swap1\n      tag_13\n      jump\t// in\n    tag_12:\n      tag_14\n      jump\t// in\n    tag_11:\n      stop\n        /* \"s1911027.sol\":2352:3445  function roll(uint256 secretNumber) public returns (uint256) {\r... */\n    tag_3:\n      callvalue\n      dup1\n      iszero\n      tag_15\n      jumpi\n      0x00\n      dup1\n      revert\n    tag_15:\n      pop\n      tag_16\n      0x04\n      dup1\n      calldatasize\n      sub\n      dup2\n      add\n      swap1\n      tag_17\n      swap2\n      swap1\n      tag_18\n      jump\t// in\n    tag_17:\n      tag_19\n      jump\t// in\n    tag_16:\n      mload(0x40)\n      tag_20\n      swap2\n      swap1\n      tag_21\n      jump\t// in\n    tag_20:\n      mload(0x40)\n      dup1\n      swap2\n      sub\n      swap1\n      return\n        /* \"s1911027.sol\":4140:4282  function getSecretHash(uint256 secretNumber) public pure returns (bytes32) {\r... */\n    tag_4:\n      callvalue\n      dup1\n      iszero\n      tag_22\n      jumpi\n      0x00\n      dup1\n      revert\n    tag_22:\n      pop\n      tag_23\n      0x04\n      dup1\n      calldatasize\n      sub\n      dup2\n      add\n      swap1\n      tag_24\n      swap2\n      swap1\n      tag_18\n      jump\t// in\n    tag_24:\n      tag_25\n      jump\t// in\n    tag_23:\n      mload(0x40)\n      tag_26\n      swap2\n      swap1\n      tag_27\n      jump\t// in\n    tag_26:\n      mload(0x40)\n      dup1\n      swap2\n      sub\n      swap1\n      return\n        /* \"s1911027.sol\":3557:4130  function resetGame(bool withdraw) public {\r... */\n    tag_5:\n      callvalue\n      dup1\n      iszero\n      tag_28\n      jumpi\n      0x00\n      dup1\n      revert\n    tag_28:\n      pop\n      tag_29\n      0x04\n      dup1\n      calldatasize\n      sub\n      dup2\n      add\n      swap1\n      tag_30\n      swap2\n      swap1\n      tag_31\n      jump\t// in\n    tag_30:\n      tag_32\n      jump\t// in\n    tag_29:\n      stop\n        /* \"s1911027.sol\":1622:2018  function registerPlayerB(bytes32 hashvalue) public {\r... */\n    tag_6:\n      callvalue\n      dup1\n      iszero\n      tag_33\n      jumpi\n      0x00\n      dup1\n      revert\n    tag_33:\n      pop\n      tag_34\n      0x04\n      dup1\n      calldatasize\n      sub\n      dup2\n      add\n      swap1\n      tag_35\n      swap2\n      swap1\n      tag_13\n      jump\t// in\n    tag_35:\n      tag_36\n      jump\t// in\n    tag_34:\n      stop\n        /* \"s1911027.sol\":2080:2344  function deposit(string memory message) public payable {\r... */\n    tag_7:\n      tag_37\n      0x04\n      dup1\n      calldatasize\n      sub\n      dup2\n      add\n      swap1\n      tag_38\n      swap2\n      swap1\n      tag_39\n      jump\t// in\n    tag_38:\n      tag_40\n      jump\t// in\n    tag_37:\n      stop\n        /* \"s1911027.sol\":3453:3549  function getResult() public view returns (uint256) {\r... */\n    tag_8:\n      callvalue\n      dup1\n      iszero\n      tag_41\n      jumpi\n      0x00\n      dup1\n      revert\n    tag_41:\n      pop\n      tag_42\n      tag_43\n      jump\t// in\n    tag_42:\n      mload(0x40)\n      tag_44\n      swap2\n      swap1\n      tag_21\n      jump\t// in\n    tag_44:\n      mload(0x40)\n      dup1\n      swap2\n      sub\n      swap1\n      return\n        /* \"s1911027.sol\":1218:1614  function registerPlayerA(bytes32 hashvalue) public {\r... */\n    tag_14:\n        /* \"s1911027.sol\":1301:1302  0 */\n      0x00\n        /* \"s1911027.sol\":1288:1302  hashvalue != 0 */\n      dup1\n      shl\n        /* \"s1911027.sol\":1288:1297  hashvalue */\n      dup2\n        /* \"s1911027.sol\":1288:1302  hashvalue != 0 */\n      eq\n      iszero\n        /* \"s1911027.sol\":1280:1335  require(hashvalue != 0, \"please enter your commitment\") */\n      tag_46\n      jumpi\n      mload(0x40)\n      0x08c379a000000000000000000000000000000000000000000000000000000000\n      dup2\n      mstore\n      0x04\n      add\n      tag_47\n      swap1\n      tag_48\n      jump\t// in\n    tag_47:\n      mload(0x40)\n      dup1\n      swap2\n      sub\n      swap1\n      revert\n    tag_46:\n        /* \"s1911027.sol\":1373:1374  0 */\n      0x00\n        /* \"s1911027.sol\":1354:1375  playerA == address(0) */\n      0xffffffffffffffffffffffffffffffffffffffff\n      and\n        /* \"s1911027.sol\":1354:1361  playerA */\n      0x03\n      0x00\n      swap1\n      sload\n      swap1\n      0x0100\n      exp\n      swap1\n      div\n      0xffffffffffffffffffffffffffffffffffffffff\n      and\n        /* \"s1911027.sol\":1354:1375  playerA == address(0) */\n      0xffffffffffffffffffffffffffffffffffffffff\n      and\n      eq\n        /* \"s1911027.sol\":1346:1408  require(playerA == address(0), \"Player A has been registered\") */\n      tag_49\n      jumpi\n      mload(0x40)\n      0x08c379a000000000000000000000000000000000000000000000000000000000\n      dup2\n      mstore\n      0x04\n      add\n      tag_50\n      swap1\n      tag_51\n      jump\t// in\n    tag_50:\n      mload(0x40)\n      dup1\n      swap2\n      sub\n      swap1\n      revert\n    tag_49:\n        /* \"s1911027.sol\":1438:1448  msg.sender */\n      caller\n        /* \"s1911027.sol\":1427:1448  playerB != msg.sender */\n      0xffffffffffffffffffffffffffffffffffffffff\n      and\n        /* \"s1911027.sol\":1427:1434  playerB */\n      0x04\n      0x00\n      swap1\n      sload\n      swap1\n      0x0100\n      exp\n      swap1\n      div\n      0xffffffffffffffffffffffffffffffffffffffff\n      and\n        /* \"s1911027.sol\":1427:1448  playerB != msg.sender */\n      0xffffffffffffffffffffffffffffffffffffffff\n      and\n      eq\n      iszero\n        /* \"s1911027.sol\":1419:1488  require(playerB != msg.sender, \"You has been registered as player B\") */\n      tag_52\n      jumpi\n      mload(0x40)\n      0x08c379a000000000000000000000000000000000000000000000000000000000\n      dup2\n      mstore\n      0x04\n      add\n      tag_53\n      swap1\n      tag_54\n      jump\t// in\n    tag_53:\n      mload(0x40)\n      dup1\n      swap2\n      sub\n      swap1\n      revert\n    tag_52:\n        /* \"s1911027.sol\":1511:1521  msg.sender */\n      caller\n        /* \"s1911027.sol\":1501:1508  playerA */\n      0x03\n      0x00\n        /* \"s1911027.sol\":1501:1521  playerA = msg.sender */\n      0x0100\n      exp\n      dup2\n      sload\n      dup2\n      0xffffffffffffffffffffffffffffffffffffffff\n      mul\n      not\n      and\n      swap1\n      dup4\n      0xffffffffffffffffffffffffffffffffffffffff\n      and\n      mul\n      or\n      swap1\n      sstore\n      pop\n        /* \"s1911027.sol\":1557:1566  hashvalue */\n      dup1\n        /* \"s1911027.sol\":1532:1542  commitment */\n      0x01\n        /* \"s1911027.sol\":1532:1554  commitment[msg.sender] */\n      0x00\n        /* \"s1911027.sol\":1543:1553  msg.sender */\n      caller\n        /* \"s1911027.sol\":1532:1554  commitment[msg.sender] */\n      0xffffffffffffffffffffffffffffffffffffffff\n      and\n      0xffffffffffffffffffffffffffffffffffffffff\n      and\n      dup2\n      mstore\n      0x20\n      add\n      swap1\n      dup2\n      mstore\n      0x20\n      add\n      0x00\n      keccak256\n        /* \"s1911027.sol\":1532:1566  commitment[msg.sender] = hashvalue */\n      dup2\n      swap1\n      sstore\n      pop\n        /* \"s1911027.sol\":1582:1606  Registration(msg.sender) */\n      0x478f5152d8fc568db3f8de9fb402fd9d98a1a7541ecfe434e59cf574fbfc5524\n        /* \"s1911027.sol\":1595:1605  msg.sender */\n      caller\n        /* \"s1911027.sol\":1582:1606  Registration(msg.sender) */\n      mload(0x40)\n      tag_55\n      swap2\n      swap1\n      tag_56\n      jump\t// in\n    tag_55:\n      mload(0x40)\n      dup1\n      swap2\n      sub\n      swap1\n      log1\n        /* \"s1911027.sol\":1218:1614  function registerPlayerA(bytes32 hashvalue) public {\r... */\n      pop\n      jump\t// out\n        /* \"s1911027.sol\":2352:3445  function roll(uint256 secretNumber) public returns (uint256) {\r... */\n    tag_19:\n        /* \"s1911027.sol\":2404:2411  uint256 */\n      0x00\n        /* \"s1911027.sol\":2454:2461  3 ether */\n      0x29a2241af62c0000\n        /* \"s1911027.sol\":2432:2439  balance */\n      0x00\n        /* \"s1911027.sol\":2432:2451  balance[msg.sender] */\n      dup1\n        /* \"s1911027.sol\":2440:2450  msg.sender */\n      caller\n        /* \"s1911027.sol\":2432:2451  balance[msg.sender] */\n      0xffffffffffffffffffffffffffffffffffffffff\n      and\n      0xffffffffffffffffffffffffffffffffffffffff\n      and\n      dup2\n      mstore\n      0x20\n      add\n      swap1\n      dup2\n      mstore\n      0x20\n      add\n      0x00\n      keccak256\n      sload\n        /* \"s1911027.sol\":2432:2461  balance[msg.sender] > 3 ether */\n      gt\n        /* \"s1911027.sol\":2424:2512  require(balance[msg.sender] > 3 ether, \"You must have at least 3 eth to start the game\") */\n      tag_58\n      jumpi\n      mload(0x40)\n      0x08c379a000000000000000000000000000000000000000000000000000000000\n      dup2\n      mstore\n      0x04\n      add\n      tag_59\n      swap1\n      tag_60\n      jump\t// in\n    tag_59:\n      mload(0x40)\n      dup1\n      swap2\n      sub\n      swap1\n      revert\n    tag_58:\n        /* \"s1911027.sol\":2557:2584  getSecretHash(secretNumber) */\n      tag_61\n        /* \"s1911027.sol\":2571:2583  secretNumber */\n      dup3\n        /* \"s1911027.sol\":2557:2570  getSecretHash */\n      tag_25\n        /* \"s1911027.sol\":2557:2584  getSecretHash(secretNumber) */\n      jump\t// in\n    tag_61:\n        /* \"s1911027.sol\":2531:2541  commitment */\n      0x01\n        /* \"s1911027.sol\":2531:2553  commitment[msg.sender] */\n      0x00\n        /* \"s1911027.sol\":2542:2552  msg.sender */\n      caller\n        /* \"s1911027.sol\":2531:2553  commitment[msg.sender] */\n      0xffffffffffffffffffffffffffffffffffffffff\n      and\n      0xffffffffffffffffffffffffffffffffffffffff\n      and\n      dup2\n      mstore\n      0x20\n      add\n      swap1\n      dup2\n      mstore\n      0x20\n      add\n      0x00\n      keccak256\n      sload\n        /* \"s1911027.sol\":2531:2584  commitment[msg.sender] == getSecretHash(secretNumber) */\n      eq\n        /* \"s1911027.sol\":2523:2607  require(commitment[msg.sender] == getSecretHash(secretNumber), \"Wrong secretNumber\") */\n      tag_62\n      jumpi\n      mload(0x40)\n      0x08c379a000000000000000000000000000000000000000000000000000000000\n      dup2\n      mstore\n      0x04\n      add\n      tag_63\n      swap1\n      tag_64\n      jump\t// in\n    tag_63:\n      mload(0x40)\n      dup1\n      swap2\n      sub\n      swap1\n      revert\n    tag_62:\n        /* \"s1911027.sol\":2645:2646  0 */\n      0x00\n        /* \"s1911027.sol\":2626:2647  playerA != address(0) */\n      0xffffffffffffffffffffffffffffffffffffffff\n      and\n        /* \"s1911027.sol\":2626:2633  playerA */\n      0x03\n      0x00\n      swap1\n      sload\n      swap1\n      0x0100\n      exp\n      swap1\n      div\n      0xffffffffffffffffffffffffffffffffffffffff\n      and\n        /* \"s1911027.sol\":2626:2647  playerA != address(0) */\n      0xffffffffffffffffffffffffffffffffffffffff\n      and\n      eq\n      iszero\n        /* \"s1911027.sol\":2618:2674  require(playerA != address(0), \"PlayerA not registered\") */\n      tag_65\n      jumpi\n      mload(0x40)\n      0x08c379a000000000000000000000000000000000000000000000000000000000\n      dup2\n      mstore\n      0x04\n      add\n      tag_66\n      swap1\n      tag_67\n      jump\t// in\n    tag_66:\n      mload(0x40)\n      dup1\n      swap2\n      sub\n      swap1\n      revert\n    tag_65:\n        /* \"s1911027.sol\":2712:2713  0 */\n      0x00\n        /* \"s1911027.sol\":2693:2714  playerB != address(0) */\n      0xffffffffffffffffffffffffffffffffffffffff\n      and\n        /* \"s1911027.sol\":2693:2700  playerB */\n      0x04\n      0x00\n      swap1\n      sload\n      swap1\n      0x0100\n      exp\n      swap1\n      div\n      0xffffffffffffffffffffffffffffffffffffffff\n      and\n        /* \"s1911027.sol\":2693:2714  playerB != address(0) */\n      0xffffffffffffffffffffffffffffffffffffffff\n      and\n      eq\n      iszero\n        /* \"s1911027.sol\":2685:2741  require(playerB != address(0), \"PlayerB not registered\") */\n      tag_68\n      jumpi\n      mload(0x40)\n      0x08c379a000000000000000000000000000000000000000000000000000000000\n      dup2\n      mstore\n      0x04\n      add\n      tag_69\n      swap1\n      tag_70\n      jump\t// in\n    tag_69:\n      mload(0x40)\n      dup1\n      swap2\n      sub\n      swap1\n      revert\n    tag_68:\n        /* \"s1911027.sol\":2767:2777  Roll(dice) */\n      0xb682b75453cfd68407d152acdf75c3ae0088182f59191a7006c09071adad76a3\n        /* \"s1911027.sol\":2772:2776  dice */\n      sload(0x05)\n        /* \"s1911027.sol\":2767:2777  Roll(dice) */\n      mload(0x40)\n      tag_71\n      swap2\n      swap1\n      tag_21\n      jump\t// in\n    tag_71:\n      mload(0x40)\n      dup1\n      swap2\n      sub\n      swap1\n      log1\n        /* \"s1911027.sol\":2806:2807  0 */\n      0x00\n        /* \"s1911027.sol\":2798:2802  dice */\n      sload(0x05)\n        /* \"s1911027.sol\":2798:2807  dice == 0 */\n      eq\n        /* \"s1911027.sol\":2790:2853  require(dice == 0, \"Game cannot start until all players reset\") */\n      tag_72\n      jumpi\n      mload(0x40)\n      0x08c379a000000000000000000000000000000000000000000000000000000000\n      dup2\n      mstore\n      0x04\n      add\n      tag_73\n      swap1\n      tag_74\n      jump\t// in\n    tag_73:\n      mload(0x40)\n      dup1\n      swap2\n      sub\n      swap1\n      revert\n    tag_72:\n        /* \"s1911027.sol\":2967:2979  secretNumber */\n      dup2\n        /* \"s1911027.sol\":2940:2952  randomNumber */\n      0x02\n        /* \"s1911027.sol\":2940:2964  randomNumber[msg.sender] */\n      0x00\n        /* \"s1911027.sol\":2953:2963  msg.sender */\n      caller\n        /* \"s1911027.sol\":2940:2964  randomNumber[msg.sender] */\n      0xffffffffffffffffffffffffffffffffffffffff\n      and\n      0xffffffffffffffffffffffffffffffffffffffff\n      and\n      dup2\n      mstore\n      0x20\n      add\n      swap1\n      dup2\n      mstore\n      0x20\n      add\n      0x00\n      keccak256\n        /* \"s1911027.sol\":2940:2979  randomNumber[msg.sender] = secretNumber */\n      dup2\n      swap1\n      sstore\n      pop\n        /* \"s1911027.sol\":3135:3136  6 */\n      0x06\n        /* \"s1911027.sol\":3108:3120  randomNumber */\n      0x02\n        /* \"s1911027.sol\":3108:3129  randomNumber[playerB] */\n      0x00\n        /* \"s1911027.sol\":3121:3128  playerB */\n      0x04\n      0x00\n      swap1\n      sload\n      swap1\n      0x0100\n      exp\n      swap1\n      div\n      0xffffffffffffffffffffffffffffffffffffffff\n      and\n        /* \"s1911027.sol\":3108:3129  randomNumber[playerB] */\n      0xffffffffffffffffffffffffffffffffffffffff\n      and\n      0xffffffffffffffffffffffffffffffffffffffff\n      and\n      dup2\n      mstore\n      0x20\n      add\n      swap1\n      dup2\n      mstore\n      0x20\n      add\n      0x00\n      keccak256\n      sload\n        /* \"s1911027.sol\":3084:3096  randomNumber */\n      0x02\n        /* \"s1911027.sol\":3084:3105  randomNumber[playerA] */\n      0x00\n        /* \"s1911027.sol\":3097:3104  playerA */\n      0x03\n      0x00\n      swap1\n      sload\n      swap1\n      0x0100\n      exp\n      swap1\n      div\n      0xffffffffffffffffffffffffffffffffffffffff\n      and\n        /* \"s1911027.sol\":3084:3105  randomNumber[playerA] */\n      0xffffffffffffffffffffffffffffffffffffffff\n      and\n      0xffffffffffffffffffffffffffffffffffffffff\n      and\n      dup2\n      mstore\n      0x20\n      add\n      swap1\n      dup2\n      mstore\n      0x20\n      add\n      0x00\n      keccak256\n      sload\n        /* \"s1911027.sol\":3084:3129  randomNumber[playerA] ^ randomNumber[playerB] */\n      xor\n        /* \"s1911027.sol\":3067:3130  abi.encodePacked(randomNumber[playerA] ^ randomNumber[playerB]) */\n      add(0x20, mload(0x40))\n      tag_75\n      swap2\n      swap1\n      tag_76\n      jump\t// in\n    tag_75:\n      mload(0x40)\n      0x20\n      dup2\n      dup4\n      sub\n      sub\n      dup2\n      mstore\n      swap1\n      0x40\n      mstore\n        /* \"s1911027.sol\":3057:3131  keccak256(abi.encodePacked(randomNumber[playerA] ^ randomNumber[playerB])) */\n      dup1\n      mload\n      swap1\n      0x20\n      add\n      keccak256\n        /* \"s1911027.sol\":3049:3132  uint256(keccak256(abi.encodePacked(randomNumber[playerA] ^ randomNumber[playerB]))) */\n      0x00\n      shr\n        /* \"s1911027.sol\":3049:3136  uint256(keccak256(abi.encodePacked(randomNumber[playerA] ^ randomNumber[playerB]))) % 6 */\n      tag_77\n      swap2\n      swap1\n      tag_78\n      jump\t// in\n    tag_77:\n        /* \"s1911027.sol\":3045:3046  1 */\n      0x01\n        /* \"s1911027.sol\":3045:3136  1 + uint256(keccak256(abi.encodePacked(randomNumber[playerA] ^ randomNumber[playerB]))) % 6 */\n      tag_79\n      swap2\n      swap1\n      tag_80\n      jump\t// in\n    tag_79:\n        /* \"s1911027.sol\":3038:3042  dice */\n      0x05\n        /* \"s1911027.sol\":3038:3136  dice = 1 + uint256(keccak256(abi.encodePacked(randomNumber[playerA] ^ randomNumber[playerB]))) % 6 */\n      dup2\n      swap1\n      sstore\n      pop\n        /* \"s1911027.sol\":3215:3216  4 */\n      0x04\n        /* \"s1911027.sol\":3208:3212  dice */\n      sload(0x05)\n        /* \"s1911027.sol\":3208:3216  dice < 4 */\n      lt\n        /* \"s1911027.sol\":3204:3416  if (dice < 4) {\r... */\n      iszero\n      tag_81\n      jumpi\n        /* \"s1911027.sol\":3253:3257  dice */\n      sload(0x05)\n        /* \"s1911027.sol\":3233:3240  balance */\n      0x00\n        /* \"s1911027.sol\":3233:3249  balance[playerA] */\n      dup1\n        /* \"s1911027.sol\":3241:3248  playerA */\n      0x03\n      0x00\n      swap1\n      sload\n      swap1\n      0x0100\n      exp\n      swap1\n      div\n      0xffffffffffffffffffffffffffffffffffffffff\n      and\n        /* \"s1911027.sol\":3233:3249  balance[playerA] */\n      0xffffffffffffffffffffffffffffffffffffffff\n      and\n      0xffffffffffffffffffffffffffffffffffffffff\n      and\n      dup2\n      mstore\n      0x20\n      add\n      swap1\n      dup2\n      mstore\n      0x20\n      add\n      0x00\n      keccak256\n      0x00\n        /* \"s1911027.sol\":3233:3257  balance[playerA] += dice */\n      dup3\n      dup3\n      sload\n      tag_82\n      swap2\n      swap1\n      tag_80\n      jump\t// in\n    tag_82:\n      swap3\n      pop\n      pop\n      dup2\n      swap1\n      sstore\n      pop\n        /* \"s1911027.sol\":3292:3296  dice */\n      sload(0x05)\n        /* \"s1911027.sol\":3272:3279  balance */\n      0x00\n        /* \"s1911027.sol\":3272:3288  balance[playerB] */\n      dup1\n        /* \"s1911027.sol\":3280:3287  playerB */\n      0x04\n      0x00\n      swap1\n      sload\n      swap1\n      0x0100\n      exp\n      swap1\n      div\n      0xffffffffffffffffffffffffffffffffffffffff\n      and\n        /* \"s1911027.sol\":3272:3288  balance[playerB] */\n      0xffffffffffffffffffffffffffffffffffffffff\n      and\n      0xffffffffffffffffffffffffffffffffffffffff\n      and\n      dup2\n      mstore\n      0x20\n      add\n      swap1\n      dup2\n      mstore\n      0x20\n      add\n      0x00\n      keccak256\n      0x00\n        /* \"s1911027.sol\":3272:3296  balance[playerB] -= dice */\n      dup3\n      dup3\n      sload\n      tag_83\n      swap2\n      swap1\n      tag_84\n      jump\t// in\n    tag_83:\n      swap3\n      pop\n      pop\n      dup2\n      swap1\n      sstore\n      pop\n        /* \"s1911027.sol\":3204:3416  if (dice < 4) {\r... */\n      jump(tag_85)\n    tag_81:\n        /* \"s1911027.sol\":3357:3358  3 */\n      0x03\n        /* \"s1911027.sol\":3350:3354  dice */\n      sload(0x05)\n        /* \"s1911027.sol\":3350:3358  dice - 3 */\n      tag_86\n      swap2\n      swap1\n      tag_84\n      jump\t// in\n    tag_86:\n        /* \"s1911027.sol\":3329:3336  balance */\n      0x00\n        /* \"s1911027.sol\":3329:3345  balance[playerA] */\n      dup1\n        /* \"s1911027.sol\":3337:3344  playerA */\n      0x03\n      0x00\n      swap1\n      sload\n      swap1\n      0x0100\n      exp\n      swap1\n      div\n      0xffffffffffffffffffffffffffffffffffffffff\n      and\n        /* \"s1911027.sol\":3329:3345  balance[playerA] */\n      0xffffffffffffffffffffffffffffffffffffffff\n      and\n      0xffffffffffffffffffffffffffffffffffffffff\n      and\n      dup2\n      mstore\n      0x20\n      add\n      swap1\n      dup2\n      mstore\n      0x20\n      add\n      0x00\n      keccak256\n      0x00\n        /* \"s1911027.sol\":3329:3359  balance[playerA] -= (dice - 3) */\n      dup3\n      dup3\n      sload\n      tag_87\n      swap2\n      swap1\n      tag_84\n      jump\t// in\n    tag_87:\n      swap3\n      pop\n      pop\n      dup2\n      swap1\n      sstore\n      pop\n        /* \"s1911027.sol\":3402:3403  3 */\n      0x03\n        /* \"s1911027.sol\":3395:3399  dice */\n      sload(0x05)\n        /* \"s1911027.sol\":3395:3403  dice - 3 */\n      tag_88\n      swap2\n      swap1\n      tag_84\n      jump\t// in\n    tag_88:\n        /* \"s1911027.sol\":3374:3381  balance */\n      0x00\n        /* \"s1911027.sol\":3374:3390  balance[playerB] */\n      dup1\n        /* \"s1911027.sol\":3382:3389  playerB */\n      0x04\n      0x00\n      swap1\n      sload\n      swap1\n      0x0100\n      exp\n      swap1\n      div\n      0xffffffffffffffffffffffffffffffffffffffff\n      and\n        /* \"s1911027.sol\":3374:3390  balance[playerB] */\n      0xffffffffffffffffffffffffffffffffffffffff\n      and\n      0xffffffffffffffffffffffffffffffffffffffff\n      and\n      dup2\n      mstore\n      0x20\n      add\n      swap1\n      dup2\n      mstore\n      0x20\n      add\n      0x00\n      keccak256\n      0x00\n        /* \"s1911027.sol\":3374:3404  balance[playerB] += (dice - 3) */\n      dup3\n      dup3\n      sload\n      tag_89\n      swap2\n      swap1\n      tag_80\n      jump\t// in\n    tag_89:\n      swap3\n      pop\n      pop\n      dup2\n      swap1\n      sstore\n      pop\n        /* \"s1911027.sol\":3204:3416  if (dice < 4) {\r... */\n    tag_85:\n        /* \"s1911027.sol\":3433:3437  dice */\n      sload(0x05)\n        /* \"s1911027.sol\":3426:3437  return dice */\n      swap1\n      pop\n        /* \"s1911027.sol\":2352:3445  function roll(uint256 secretNumber) public returns (uint256) {\r... */\n      swap2\n      swap1\n      pop\n      jump\t// out\n        /* \"s1911027.sol\":4140:4282  function getSecretHash(uint256 secretNumber) public pure returns (bytes32) {\r... */\n    tag_25:\n        /* \"s1911027.sol\":4206:4213  bytes32 */\n      0x00\n        /* \"s1911027.sol\":4260:4272  secretNumber */\n      dup2\n        /* \"s1911027.sol\":4243:4273  abi.encodePacked(secretNumber) */\n      add(0x20, mload(0x40))\n      tag_91\n      swap2\n      swap1\n      tag_76\n      jump\t// in\n    tag_91:\n      mload(0x40)\n      0x20\n      dup2\n      dup4\n      sub\n      sub\n      dup2\n      mstore\n      swap1\n      0x40\n      mstore\n        /* \"s1911027.sol\":4233:4274  keccak256(abi.encodePacked(secretNumber)) */\n      dup1\n      mload\n      swap1\n      0x20\n      add\n      keccak256\n        /* \"s1911027.sol\":4226:4274  return keccak256(abi.encodePacked(secretNumber)) */\n      swap1\n      pop\n        /* \"s1911027.sol\":4140:4282  function getSecretHash(uint256 secretNumber) public pure returns (bytes32) {\r... */\n      swap2\n      swap1\n      pop\n      jump\t// out\n        /* \"s1911027.sol\":3557:4130  function resetGame(bool withdraw) public {\r... */\n    tag_32:\n        /* \"s1911027.sol\":3626:3633  playerA */\n      0x03\n      0x00\n      swap1\n      sload\n      swap1\n      0x0100\n      exp\n      swap1\n      div\n      0xffffffffffffffffffffffffffffffffffffffff\n      and\n        /* \"s1911027.sol\":3612:3633  msg.sender == playerA */\n      0xffffffffffffffffffffffffffffffffffffffff\n      and\n        /* \"s1911027.sol\":3612:3622  msg.sender */\n      caller\n        /* \"s1911027.sol\":3612:3633  msg.sender == playerA */\n      0xffffffffffffffffffffffffffffffffffffffff\n      and\n      eq\n        /* \"s1911027.sol\":3609:3840  if(msg.sender == playerA){\r... */\n      iszero\n      tag_93\n      jumpi\n        /* \"s1911027.sol\":3667:3668  0 */\n      0x00\n        /* \"s1911027.sol\":3649:3656  playerA */\n      0x03\n      0x00\n        /* \"s1911027.sol\":3649:3669  playerA = address(0) */\n      0x0100\n      exp\n      dup2\n      sload\n      dup2\n      0xffffffffffffffffffffffffffffffffffffffff\n      mul\n      not\n      and\n      swap1\n      dup4\n      0xffffffffffffffffffffffffffffffffffffffff\n      and\n      mul\n      or\n      swap1\n      sstore\n      pop\n        /* \"s1911027.sol\":3708:3709  0 */\n      0x00\n        /* \"s1911027.sol\":3684:3696  randomNumber */\n      0x02\n        /* \"s1911027.sol\":3684:3705  randomNumber[playerA] */\n      0x00\n        /* \"s1911027.sol\":3697:3704  playerA */\n      0x03\n      0x00\n      swap1\n      sload\n      swap1\n      0x0100\n      exp\n      swap1\n      div\n      0xffffffffffffffffffffffffffffffffffffffff\n      and\n        /* \"s1911027.sol\":3684:3705  randomNumber[playerA] */\n      0xffffffffffffffffffffffffffffffffffffffff\n      and\n      0xffffffffffffffffffffffffffffffffffffffff\n      and\n      dup2\n      mstore\n      0x20\n      add\n      swap1\n      dup2\n      mstore\n      0x20\n      add\n      0x00\n      keccak256\n        /* \"s1911027.sol\":3684:3709  randomNumber[playerA] = 0 */\n      dup2\n      swap1\n      sstore\n      pop\n        /* \"s1911027.sol\":3609:3840  if(msg.sender == playerA){\r... */\n      jump(tag_94)\n    tag_93:\n        /* \"s1911027.sol\":3745:3752  playerB */\n      0x04\n      0x00\n      swap1\n      sload\n      swap1\n      0x0100\n      exp\n      swap1\n      div\n      0xffffffffffffffffffffffffffffffffffffffff\n      and\n        /* \"s1911027.sol\":3731:3752  msg.sender == playerB */\n      0xffffffffffffffffffffffffffffffffffffffff\n      and\n        /* \"s1911027.sol\":3731:3741  msg.sender */\n      caller\n        /* \"s1911027.sol\":3731:3752  msg.sender == playerB */\n      0xffffffffffffffffffffffffffffffffffffffff\n      and\n      eq\n        /* \"s1911027.sol\":3727:3840  if (msg.sender == playerB){\r... */\n      iszero\n      tag_95\n      jumpi\n        /* \"s1911027.sol\":3786:3787  0 */\n      0x00\n        /* \"s1911027.sol\":3768:3775  playerB */\n      0x04\n      0x00\n        /* \"s1911027.sol\":3768:3788  playerB = address(0) */\n      0x0100\n      exp\n      dup2\n      sload\n      dup2\n      0xffffffffffffffffffffffffffffffffffffffff\n      mul\n      not\n      and\n      swap1\n      dup4\n      0xffffffffffffffffffffffffffffffffffffffff\n      and\n      mul\n      or\n      swap1\n      sstore\n      pop\n        /* \"s1911027.sol\":3827:3828  0 */\n      0x00\n        /* \"s1911027.sol\":3803:3815  randomNumber */\n      0x02\n        /* \"s1911027.sol\":3803:3824  randomNumber[playerB] */\n      0x00\n        /* \"s1911027.sol\":3816:3823  playerB */\n      0x04\n      0x00\n      swap1\n      sload\n      swap1\n      0x0100\n      exp\n      swap1\n      div\n      0xffffffffffffffffffffffffffffffffffffffff\n      and\n        /* \"s1911027.sol\":3803:3824  randomNumber[playerB] */\n      0xffffffffffffffffffffffffffffffffffffffff\n      and\n      0xffffffffffffffffffffffffffffffffffffffff\n      and\n      dup2\n      mstore\n      0x20\n      add\n      swap1\n      dup2\n      mstore\n      0x20\n      add\n      0x00\n      keccak256\n        /* \"s1911027.sol\":3803:3828  randomNumber[playerB] = 0 */\n      dup2\n      swap1\n      sstore\n      pop\n        /* \"s1911027.sol\":3727:3840  if (msg.sender == playerB){\r... */\n    tag_95:\n        /* \"s1911027.sol\":3609:3840  if(msg.sender == playerA){\r... */\n    tag_94:\n        /* \"s1911027.sol\":3875:3876  0 */\n      0x00\n        /* \"s1911027.sol\":3856:3877  playerA == address(0) */\n      0xffffffffffffffffffffffffffffffffffffffff\n      and\n        /* \"s1911027.sol\":3856:3863  playerA */\n      0x03\n      0x00\n      swap1\n      sload\n      swap1\n      0x0100\n      exp\n      swap1\n      div\n      0xffffffffffffffffffffffffffffffffffffffff\n      and\n        /* \"s1911027.sol\":3856:3877  playerA == address(0) */\n      0xffffffffffffffffffffffffffffffffffffffff\n      and\n      eq\n        /* \"s1911027.sol\":3856:3902  playerA == address(0) && playerB == address(0) */\n      dup1\n      iszero\n      tag_96\n      jumpi\n      pop\n        /* \"s1911027.sol\":3900:3901  0 */\n      0x00\n        /* \"s1911027.sol\":3881:3902  playerB == address(0) */\n      0xffffffffffffffffffffffffffffffffffffffff\n      and\n        /* \"s1911027.sol\":3881:3888  playerB */\n      0x04\n      0x00\n      swap1\n      sload\n      swap1\n      0x0100\n      exp\n      swap1\n      div\n      0xffffffffffffffffffffffffffffffffffffffff\n      and\n        /* \"s1911027.sol\":3881:3902  playerB == address(0) */\n      0xffffffffffffffffffffffffffffffffffffffff\n      and\n      eq\n        /* \"s1911027.sol\":3856:3902  playerA == address(0) && playerB == address(0) */\n    tag_96:\n        /* \"s1911027.sol\":3852:3939  if (playerA == address(0) && playerB == address(0)) {\r... */\n      iszero\n      tag_97\n      jumpi\n        /* \"s1911027.sol\":3926:3927  0 */\n      0x00\n        /* \"s1911027.sol\":3919:3923  dice */\n      0x05\n        /* \"s1911027.sol\":3919:3927  dice = 0 */\n      dup2\n      swap1\n      sstore\n      pop\n        /* \"s1911027.sol\":3852:3939  if (playerA == address(0) && playerB == address(0)) {\r... */\n    tag_97:\n        /* \"s1911027.sol\":3967:3971  true */\n      0x01\n        /* \"s1911027.sol\":3955:3971  withdraw == true */\n      iszero\n      iszero\n        /* \"s1911027.sol\":3955:3963  withdraw */\n      dup2\n        /* \"s1911027.sol\":3955:3971  withdraw == true */\n      iszero\n      iszero\n      eq\n        /* \"s1911027.sol\":3951:4123  if (withdraw == true) {\r... */\n      iszero\n      tag_98\n      jumpi\n        /* \"s1911027.sol\":3988:4001  uint256 value */\n      0x00\n        /* \"s1911027.sol\":4004:4011  balance */\n      dup1\n        /* \"s1911027.sol\":4004:4023  balance[msg.sender] */\n      0x00\n        /* \"s1911027.sol\":4012:4022  msg.sender */\n      caller\n        /* \"s1911027.sol\":4004:4023  balance[msg.sender] */\n      0xffffffffffffffffffffffffffffffffffffffff\n      and\n      0xffffffffffffffffffffffffffffffffffffffff\n      and\n      dup2\n      mstore\n      0x20\n      add\n      swap1\n      dup2\n      mstore\n      0x20\n      add\n      0x00\n      keccak256\n      sload\n        /* \"s1911027.sol\":3988:4023  uint256 value = balance[msg.sender] */\n      swap1\n      pop\n        /* \"s1911027.sol\":4060:4061  0 */\n      0x00\n        /* \"s1911027.sol\":4038:4045  balance */\n      dup1\n        /* \"s1911027.sol\":4038:4057  balance[msg.sender] */\n      0x00\n        /* \"s1911027.sol\":4046:4056  msg.sender */\n      caller\n        /* \"s1911027.sol\":4038:4057  balance[msg.sender] */\n      0xffffffffffffffffffffffffffffffffffffffff\n      and\n      0xffffffffffffffffffffffffffffffffffffffff\n      and\n      dup2\n      mstore\n      0x20\n      add\n      swap1\n      dup2\n      mstore\n      0x20\n      add\n      0x00\n      keccak256\n        /* \"s1911027.sol\":4038:4061  balance[msg.sender] = 0 */\n      dup2\n      swap1\n      sstore\n      pop\n        /* \"s1911027.sol\":4084:4094  msg.sender */\n      caller\n        /* \"s1911027.sol\":4076:4104  payable(msg.sender).transfer */\n      0xffffffffffffffffffffffffffffffffffffffff\n      and\n        /* \"s1911027.sol\":4076:4111  payable(msg.sender).transfer(value) */\n      0x08fc\n        /* \"s1911027.sol\":4105:4110  value */\n      dup3\n        /* \"s1911027.sol\":4076:4111  payable(msg.sender).transfer(value) */\n      swap1\n      dup2\n      iszero\n      mul\n      swap1\n      mload(0x40)\n      0x00\n      mload(0x40)\n      dup1\n      dup4\n      sub\n      dup2\n      dup6\n      dup9\n      dup9\n      call\n      swap4\n      pop\n      pop\n      pop\n      pop\n      iszero\n      dup1\n      iszero\n      tag_100\n      jumpi\n      returndatasize\n      0x00\n      dup1\n      returndatacopy\n      revert(0x00, returndatasize)\n    tag_100:\n      pop\n        /* \"s1911027.sol\":3973:4123  {\r... */\n      pop\n        /* \"s1911027.sol\":3951:4123  if (withdraw == true) {\r... */\n    tag_98:\n        /* \"s1911027.sol\":3557:4130  function resetGame(bool withdraw) public {\r... */\n      pop\n      jump\t// out\n        /* \"s1911027.sol\":1622:2018  function registerPlayerB(bytes32 hashvalue) public {\r... */\n    tag_36:\n        /* \"s1911027.sol\":1705:1706  0 */\n      0x00\n        /* \"s1911027.sol\":1692:1706  hashvalue != 0 */\n      dup1\n      shl\n        /* \"s1911027.sol\":1692:1701  hashvalue */\n      dup2\n        /* \"s1911027.sol\":1692:1706  hashvalue != 0 */\n      eq\n      iszero\n        /* \"s1911027.sol\":1684:1739  require(hashvalue != 0, \"please enter your commitment\") */\n      tag_102\n      jumpi\n      mload(0x40)\n      0x08c379a000000000000000000000000000000000000000000000000000000000\n      dup2\n      mstore\n      0x04\n      add\n      tag_103\n      swap1\n      tag_48\n      jump\t// in\n    tag_103:\n      mload(0x40)\n      dup1\n      swap2\n      sub\n      swap1\n      revert\n    tag_102:\n        /* \"s1911027.sol\":1777:1778  0 */\n      0x00\n        /* \"s1911027.sol\":1758:1779  playerB == address(0) */\n      0xffffffffffffffffffffffffffffffffffffffff\n      and\n        /* \"s1911027.sol\":1758:1765  playerB */\n      0x04\n      0x00\n      swap1\n      sload\n      swap1\n      0x0100\n      exp\n      swap1\n      div\n      0xffffffffffffffffffffffffffffffffffffffff\n      and\n        /* \"s1911027.sol\":1758:1779  playerB == address(0) */\n      0xffffffffffffffffffffffffffffffffffffffff\n      and\n      eq\n        /* \"s1911027.sol\":1750:1812  require(playerB == address(0), \"Player B has been registered\") */\n      tag_104\n      jumpi\n      mload(0x40)\n      0x08c379a000000000000000000000000000000000000000000000000000000000\n      dup2\n      mstore\n      0x04\n      add\n      tag_105\n      swap1\n      tag_106\n      jump\t// in\n    tag_105:\n      mload(0x40)\n      dup1\n      swap2\n      sub\n      swap1\n      revert\n    tag_104:\n        /* \"s1911027.sol\":1842:1852  msg.sender */\n      caller\n        /* \"s1911027.sol\":1831:1852  playerA != msg.sender */\n      0xffffffffffffffffffffffffffffffffffffffff\n      and\n        /* \"s1911027.sol\":1831:1838  playerA */\n      0x03\n      0x00\n      swap1\n      sload\n      swap1\n      0x0100\n      exp\n      swap1\n      div\n      0xffffffffffffffffffffffffffffffffffffffff\n      and\n        /* \"s1911027.sol\":1831:1852  playerA != msg.sender */\n      0xffffffffffffffffffffffffffffffffffffffff\n      and\n      eq\n      iszero\n        /* \"s1911027.sol\":1823:1892  require(playerA != msg.sender, \"You has been registered as player A\") */\n      tag_107\n      jumpi\n      mload(0x40)\n      0x08c379a000000000000000000000000000000000000000000000000000000000\n      dup2\n      mstore\n      0x04\n      add\n      tag_108\n      swap1\n      tag_109\n      jump\t// in\n    tag_108:\n      mload(0x40)\n      dup1\n      swap2\n      sub\n      swap1\n      revert\n    tag_107:\n        /* \"s1911027.sol\":1915:1925  msg.sender */\n      caller\n        /* \"s1911027.sol\":1905:1912  playerB */\n      0x04\n      0x00\n        /* \"s1911027.sol\":1905:1925  playerB = msg.sender */\n      0x0100\n      exp\n      dup2\n      sload\n      dup2\n      0xffffffffffffffffffffffffffffffffffffffff\n      mul\n      not\n      and\n      swap1\n      dup4\n      0xffffffffffffffffffffffffffffffffffffffff\n      and\n      mul\n      or\n      swap1\n      sstore\n      pop\n        /* \"s1911027.sol\":1961:1970  hashvalue */\n      dup1\n        /* \"s1911027.sol\":1936:1946  commitment */\n      0x01\n        /* \"s1911027.sol\":1936:1958  commitment[msg.sender] */\n      0x00\n        /* \"s1911027.sol\":1947:1957  msg.sender */\n      caller\n        /* \"s1911027.sol\":1936:1958  commitment[msg.sender] */\n      0xffffffffffffffffffffffffffffffffffffffff\n      and\n      0xffffffffffffffffffffffffffffffffffffffff\n      and\n      dup2\n      mstore\n      0x20\n      add\n      swap1\n      dup2\n      mstore\n      0x20\n      add\n      0x00\n      keccak256\n        /* \"s1911027.sol\":1936:1970  commitment[msg.sender] = hashvalue */\n      dup2\n      swap1\n      sstore\n      pop\n        /* \"s1911027.sol\":1986:2010  Registration(msg.sender) */\n      0x478f5152d8fc568db3f8de9fb402fd9d98a1a7541ecfe434e59cf574fbfc5524\n        /* \"s1911027.sol\":1999:2009  msg.sender */\n      caller\n        /* \"s1911027.sol\":1986:2010  Registration(msg.sender) */\n      mload(0x40)\n      tag_110\n      swap2\n      swap1\n      tag_56\n      jump\t// in\n    tag_110:\n      mload(0x40)\n      dup1\n      swap2\n      sub\n      swap1\n      log1\n        /* \"s1911027.sol\":1622:2018  function registerPlayerB(bytes32 hashvalue) public {\r... */\n      pop\n      jump\t// out\n        /* \"s1911027.sol\":2080:2344  function deposit(string memory message) public payable {\r... */\n    tag_40:\n        /* \"s1911027.sol\":2165:2175  msg.sender */\n      caller\n        /* \"s1911027.sol\":2154:2175  playerA == msg.sender */\n      0xffffffffffffffffffffffffffffffffffffffff\n      and\n        /* \"s1911027.sol\":2154:2161  playerA */\n      0x03\n      0x00\n      swap1\n      sload\n      swap1\n      0x0100\n      exp\n      swap1\n      div\n      0xffffffffffffffffffffffffffffffffffffffff\n      and\n        /* \"s1911027.sol\":2154:2175  playerA == msg.sender */\n      0xffffffffffffffffffffffffffffffffffffffff\n      and\n      eq\n        /* \"s1911027.sol\":2154:2200  playerA == msg.sender || playerB == msg.sender */\n      dup1\n      tag_112\n      jumpi\n      pop\n        /* \"s1911027.sol\":2190:2200  msg.sender */\n      caller\n        /* \"s1911027.sol\":2179:2200  playerB == msg.sender */\n      0xffffffffffffffffffffffffffffffffffffffff\n      and\n        /* \"s1911027.sol\":2179:2186  playerB */\n      0x04\n      0x00\n      swap1\n      sload\n      swap1\n      0x0100\n      exp\n      swap1\n      div\n      0xffffffffffffffffffffffffffffffffffffffff\n      and\n        /* \"s1911027.sol\":2179:2200  playerB == msg.sender */\n      0xffffffffffffffffffffffffffffffffffffffff\n      and\n      eq\n        /* \"s1911027.sol\":2154:2200  playerA == msg.sender || playerB == msg.sender */\n    tag_112:\n        /* \"s1911027.sol\":2146:2239  require(playerA == msg.sender || playerB == msg.sender, \"You are not registered as a player\") */\n      tag_113\n      jumpi\n      mload(0x40)\n      0x08c379a000000000000000000000000000000000000000000000000000000000\n      dup2\n      mstore\n      0x04\n      add\n      tag_114\n      swap1\n      tag_115\n      jump\t// in\n    tag_114:\n      mload(0x40)\n      dup1\n      swap2\n      sub\n      swap1\n      revert\n    tag_113:\n        /* \"s1911027.sol\":2283:2292  msg.value */\n      callvalue\n        /* \"s1911027.sol\":2260:2267  balance */\n      0x00\n        /* \"s1911027.sol\":2260:2279  balance[msg.sender] */\n      dup1\n        /* \"s1911027.sol\":2268:2278  msg.sender */\n      caller\n        /* \"s1911027.sol\":2260:2279  balance[msg.sender] */\n      0xffffffffffffffffffffffffffffffffffffffff\n      and\n      0xffffffffffffffffffffffffffffffffffffffff\n      and\n      dup2\n      mstore\n      0x20\n      add\n      swap1\n      dup2\n      mstore\n      0x20\n      add\n      0x00\n      keccak256\n      0x00\n        /* \"s1911027.sol\":2260:2292  balance[msg.sender] += msg.value */\n      dup3\n      dup3\n      sload\n      tag_116\n      swap2\n      swap1\n      tag_80\n      jump\t// in\n    tag_116:\n      swap3\n      pop\n      pop\n      dup2\n      swap1\n      sstore\n      pop\n        /* \"s1911027.sol\":2308:2336  Deposit(msg.sender, message) */\n      0x68a331f033c1e5ce4f6a0fc484b20cb8368bf28a77b6468a762241c0fc202d67\n        /* \"s1911027.sol\":2316:2326  msg.sender */\n      caller\n        /* \"s1911027.sol\":2328:2335  message */\n      dup3\n        /* \"s1911027.sol\":2308:2336  Deposit(msg.sender, message) */\n      mload(0x40)\n      tag_117\n      swap3\n      swap2\n      swap1\n      tag_118\n      jump\t// in\n    tag_117:\n      mload(0x40)\n      dup1\n      swap2\n      sub\n      swap1\n      log1\n        /* \"s1911027.sol\":2080:2344  function deposit(string memory message) public payable {\r... */\n      pop\n      jump\t// out\n        /* \"s1911027.sol\":3453:3549  function getResult() public view returns (uint256) {\r... */\n    tag_43:\n        /* \"s1911027.sol\":3495:3502  uint256 */\n      0x00\n        /* \"s1911027.sol\":3522:3529  balance */\n      dup1\n        /* \"s1911027.sol\":3522:3541  balance[msg.sender] */\n      0x00\n        /* \"s1911027.sol\":3530:3540  msg.sender */\n      caller\n        /* \"s1911027.sol\":3522:3541  balance[msg.sender] */\n      0xffffffffffffffffffffffffffffffffffffffff\n      and\n      0xffffffffffffffffffffffffffffffffffffffff\n      and\n      dup2\n      mstore\n      0x20\n      add\n      swap1\n      dup2\n      mstore\n      0x20\n      add\n      0x00\n      keccak256\n      sload\n        /* \"s1911027.sol\":3515:3541  return balance[msg.sender] */\n      swap1\n      pop\n        /* \"s1911027.sol\":3453:3549  function getResult() public view returns (uint256) {\r... */\n      swap1\n      jump\t// out\n        /* \"#utility.yul\":7:419   */\n    tag_121:\n        /* \"#utility.yul\":85:90   */\n      0x00\n        /* \"#utility.yul\":110:176   */\n      tag_123\n        /* \"#utility.yul\":126:175   */\n      tag_124\n        /* \"#utility.yul\":168:174   */\n      dup5\n        /* \"#utility.yul\":126:175   */\n      tag_125\n      jump\t// in\n    tag_124:\n        /* \"#utility.yul\":110:176   */\n      tag_126\n      jump\t// in\n    tag_123:\n        /* \"#utility.yul\":101:176   */\n      swap1\n      pop\n        /* \"#utility.yul\":199:205   */\n      dup3\n        /* \"#utility.yul\":192:197   */\n      dup2\n        /* \"#utility.yul\":185:206   */\n      mstore\n        /* \"#utility.yul\":237:241   */\n      0x20\n        /* \"#utility.yul\":230:235   */\n      dup2\n        /* \"#utility.yul\":226:242   */\n      add\n        /* \"#utility.yul\":275:278   */\n      dup5\n        /* \"#utility.yul\":266:272   */\n      dup5\n        /* \"#utility.yul\":261:264   */\n      dup5\n        /* \"#utility.yul\":257:273   */\n      add\n        /* \"#utility.yul\":254:279   */\n      gt\n        /* \"#utility.yul\":251:363   */\n      iszero\n      tag_127\n      jumpi\n        /* \"#utility.yul\":282:361   */\n      tag_128\n      tag_129\n      jump\t// in\n    tag_128:\n        /* \"#utility.yul\":251:363   */\n    tag_127:\n        /* \"#utility.yul\":372:413   */\n      tag_130\n        /* \"#utility.yul\":406:412   */\n      dup5\n        /* \"#utility.yul\":401:404   */\n      dup3\n        /* \"#utility.yul\":396:399   */\n      dup6\n        /* \"#utility.yul\":372:413   */\n      tag_131\n      jump\t// in\n    tag_130:\n        /* \"#utility.yul\":91:419   */\n      pop\n        /* \"#utility.yul\":7:419   */\n      swap4\n      swap3\n      pop\n      pop\n      pop\n      jump\t// out\n        /* \"#utility.yul\":425:558   */\n    tag_132:\n        /* \"#utility.yul\":468:473   */\n      0x00\n        /* \"#utility.yul\":506:512   */\n      dup2\n        /* \"#utility.yul\":493:513   */\n      calldataload\n        /* \"#utility.yul\":484:513   */\n      swap1\n      pop\n        /* \"#utility.yul\":522:552   */\n      tag_134\n        /* \"#utility.yul\":546:551   */\n      dup2\n        /* \"#utility.yul\":522:552   */\n      tag_135\n      jump\t// in\n    tag_134:\n        /* \"#utility.yul\":425:558   */\n      swap3\n      swap2\n      pop\n      pop\n      jump\t// out\n        /* \"#utility.yul\":564:703   */\n    tag_136:\n        /* \"#utility.yul\":610:615   */\n      0x00\n        /* \"#utility.yul\":648:654   */\n      dup2\n        /* \"#utility.yul\":635:655   */\n      calldataload\n        /* \"#utility.yul\":626:655   */\n      swap1\n      pop\n        /* \"#utility.yul\":664:697   */\n      tag_138\n        /* \"#utility.yul\":691:696   */\n      dup2\n        /* \"#utility.yul\":664:697   */\n      tag_139\n      jump\t// in\n    tag_138:\n        /* \"#utility.yul\":564:703   */\n      swap3\n      swap2\n      pop\n      pop\n      jump\t// out\n        /* \"#utility.yul\":723:1063   */\n    tag_140:\n        /* \"#utility.yul\":779:784   */\n      0x00\n        /* \"#utility.yul\":828:831   */\n      dup3\n        /* \"#utility.yul\":821:825   */\n      0x1f\n        /* \"#utility.yul\":813:819   */\n      dup4\n        /* \"#utility.yul\":809:826   */\n      add\n        /* \"#utility.yul\":805:832   */\n      slt\n        /* \"#utility.yul\":795:917   */\n      tag_142\n      jumpi\n        /* \"#utility.yul\":836:915   */\n      tag_143\n      tag_144\n      jump\t// in\n    tag_143:\n        /* \"#utility.yul\":795:917   */\n    tag_142:\n        /* \"#utility.yul\":953:959   */\n      dup2\n        /* \"#utility.yul\":940:960   */\n      calldataload\n        /* \"#utility.yul\":978:1057   */\n      tag_145\n        /* \"#utility.yul\":1053:1056   */\n      dup5\n        /* \"#utility.yul\":1045:1051   */\n      dup3\n        /* \"#utility.yul\":1038:1042   */\n      0x20\n        /* \"#utility.yul\":1030:1036   */\n      dup7\n        /* \"#utility.yul\":1026:1043   */\n      add\n        /* \"#utility.yul\":978:1057   */\n      tag_121\n      jump\t// in\n    tag_145:\n        /* \"#utility.yul\":969:1057   */\n      swap2\n      pop\n        /* \"#utility.yul\":785:1063   */\n      pop\n        /* \"#utility.yul\":723:1063   */\n      swap3\n      swap2\n      pop\n      pop\n      jump\t// out\n        /* \"#utility.yul\":1069:1208   */\n    tag_146:\n        /* \"#utility.yul\":1115:1120   */\n      0x00\n        /* \"#utility.yul\":1153:1159   */\n      dup2\n        /* \"#utility.yul\":1140:1160   */\n      calldataload\n        /* \"#utility.yul\":1131:1160   */\n      swap1\n      pop\n        /* \"#utility.yul\":1169:1202   */\n      tag_148\n        /* \"#utility.yul\":1196:1201   */\n      dup2\n        /* \"#utility.yul\":1169:1202   */\n      tag_149\n      jump\t// in\n    tag_148:\n        /* \"#utility.yul\":1069:1208   */\n      swap3\n      swap2\n      pop\n      pop\n      jump\t// out\n        /* \"#utility.yul\":1214:1537   */\n    tag_31:\n        /* \"#utility.yul\":1270:1276   */\n      0x00\n        /* \"#utility.yul\":1319:1321   */\n      0x20\n        /* \"#utility.yul\":1307:1316   */\n      dup3\n        /* \"#utility.yul\":1298:1305   */\n      dup5\n        /* \"#utility.yul\":1294:1317   */\n      sub\n        /* \"#utility.yul\":1290:1322   */\n      slt\n        /* \"#utility.yul\":1287:1406   */\n      iszero\n      tag_151\n      jumpi\n        /* \"#utility.yul\":1325:1404   */\n      tag_152\n      tag_153\n      jump\t// in\n    tag_152:\n        /* \"#utility.yul\":1287:1406   */\n    tag_151:\n        /* \"#utility.yul\":1445:1446   */\n      0x00\n        /* \"#utility.yul\":1470:1520   */\n      tag_154\n        /* \"#utility.yul\":1512:1519   */\n      dup5\n        /* \"#utility.yul\":1503:1509   */\n      dup3\n        /* \"#utility.yul\":1492:1501   */\n      dup6\n        /* \"#utility.yul\":1488:1510   */\n      add\n        /* \"#utility.yul\":1470:1520   */\n      tag_132\n      jump\t// in\n    tag_154:\n        /* \"#utility.yul\":1460:1520   */\n      swap2\n      pop\n        /* \"#utility.yul\":1416:1530   */\n      pop\n        /* \"#utility.yul\":1214:1537   */\n      swap3\n      swap2\n      pop\n      pop\n      jump\t// out\n        /* \"#utility.yul\":1543:1872   */\n    tag_13:\n        /* \"#utility.yul\":1602:1608   */\n      0x00\n        /* \"#utility.yul\":1651:1653   */\n      0x20\n        /* \"#utility.yul\":1639:1648   */\n      dup3\n        /* \"#utility.yul\":1630:1637   */\n      dup5\n        /* \"#utility.yul\":1626:1649   */\n      sub\n        /* \"#utility.yul\":1622:1654   */\n      slt\n        /* \"#utility.yul\":1619:1738   */\n      iszero\n      tag_156\n      jumpi\n        /* \"#utility.yul\":1657:1736   */\n      tag_157\n      tag_153\n      jump\t// in\n    tag_157:\n        /* \"#utility.yul\":1619:1738   */\n    tag_156:\n        /* \"#utility.yul\":1777:1778   */\n      0x00\n        /* \"#utility.yul\":1802:1855   */\n      tag_158\n        /* \"#utility.yul\":1847:1854   */\n      dup5\n        /* \"#utility.yul\":1838:1844   */\n      dup3\n        /* \"#utility.yul\":1827:1836   */\n      dup6\n        /* \"#utility.yul\":1823:1845   */\n      add\n        /* \"#utility.yul\":1802:1855   */\n      tag_136\n      jump\t// in\n    tag_158:\n        /* \"#utility.yul\":1792:1855   */\n      swap2\n      pop\n        /* \"#utility.yul\":1748:1865   */\n      pop\n        /* \"#utility.yul\":1543:1872   */\n      swap3\n      swap2\n      pop\n      pop\n      jump\t// out\n        /* \"#utility.yul\":1878:2387   */\n    tag_39:\n        /* \"#utility.yul\":1947:1953   */\n      0x00\n        /* \"#utility.yul\":1996:1998   */\n      0x20\n        /* \"#utility.yul\":1984:1993   */\n      dup3\n        /* \"#utility.yul\":1975:1982   */\n      dup5\n        /* \"#utility.yul\":1971:1994   */\n      sub\n        /* \"#utility.yul\":1967:1999   */\n      slt\n        /* \"#utility.yul\":1964:2083   */\n      iszero\n      tag_160\n      jumpi\n        /* \"#utility.yul\":2002:2081   */\n      tag_161\n      tag_153\n      jump\t// in\n    tag_161:\n        /* \"#utility.yul\":1964:2083   */\n    tag_160:\n        /* \"#utility.yul\":2150:2151   */\n      0x00\n        /* \"#utility.yul\":2139:2148   */\n      dup3\n        /* \"#utility.yul\":2135:2152   */\n      add\n        /* \"#utility.yul\":2122:2153   */\n      calldataload\n        /* \"#utility.yul\":2180:2198   */\n      0xffffffffffffffff\n        /* \"#utility.yul\":2172:2178   */\n      dup2\n        /* \"#utility.yul\":2169:2199   */\n      gt\n        /* \"#utility.yul\":2166:2283   */\n      iszero\n      tag_162\n      jumpi\n        /* \"#utility.yul\":2202:2281   */\n      tag_163\n      tag_164\n      jump\t// in\n    tag_163:\n        /* \"#utility.yul\":2166:2283   */\n    tag_162:\n        /* \"#utility.yul\":2307:2370   */\n      tag_165\n        /* \"#utility.yul\":2362:2369   */\n      dup5\n        /* \"#utility.yul\":2353:2359   */\n      dup3\n        /* \"#utility.yul\":2342:2351   */\n      dup6\n        /* \"#utility.yul\":2338:2360   */\n      add\n        /* \"#utility.yul\":2307:2370   */\n      tag_140\n      jump\t// in\n    tag_165:\n        /* \"#utility.yul\":2297:2370   */\n      swap2\n      pop\n        /* \"#utility.yul\":2093:2380   */\n      pop\n        /* \"#utility.yul\":1878:2387   */\n      swap3\n      swap2\n      pop\n      pop\n      jump\t// out\n        /* \"#utility.yul\":2393:2722   */\n    tag_18:\n        /* \"#utility.yul\":2452:2458   */\n      0x00\n        /* \"#utility.yul\":2501:2503   */\n      0x20\n        /* \"#utility.yul\":2489:2498   */\n      dup3\n        /* \"#utility.yul\":2480:2487   */\n      dup5\n        /* \"#utility.yul\":2476:2499   */\n      sub\n        /* \"#utility.yul\":2472:2504   */\n      slt\n        /* \"#utility.yul\":2469:2588   */\n      iszero\n      tag_167\n      jumpi\n        /* \"#utility.yul\":2507:2586   */\n      tag_168\n      tag_153\n      jump\t// in\n    tag_168:\n        /* \"#utility.yul\":2469:2588   */\n    tag_167:\n        /* \"#utility.yul\":2627:2628   */\n      0x00\n        /* \"#utility.yul\":2652:2705   */\n      tag_169\n        /* \"#utility.yul\":2697:2704   */\n      dup5\n        /* \"#utility.yul\":2688:2694   */\n      dup3\n        /* \"#utility.yul\":2677:2686   */\n      dup6\n        /* \"#utility.yul\":2673:2695   */\n      add\n        /* \"#utility.yul\":2652:2705   */\n      tag_146\n      jump\t// in\n    tag_169:\n        /* \"#utility.yul\":2642:2705   */\n      swap2\n      pop\n        /* \"#utility.yul\":2598:2715   */\n      pop\n        /* \"#utility.yul\":2393:2722   */\n      swap3\n      swap2\n      pop\n      pop\n      jump\t// out\n        /* \"#utility.yul\":2728:2846   */\n    tag_170:\n        /* \"#utility.yul\":2815:2839   */\n      tag_172\n        /* \"#utility.yul\":2833:2838   */\n      dup2\n        /* \"#utility.yul\":2815:2839   */\n      tag_173\n      jump\t// in\n    tag_172:\n        /* \"#utility.yul\":2810:2813   */\n      dup3\n        /* \"#utility.yul\":2803:2840   */\n      mstore\n        /* \"#utility.yul\":2728:2846   */\n      pop\n      pop\n      jump\t// out\n        /* \"#utility.yul\":2852:2970   */\n    tag_174:\n        /* \"#utility.yul\":2939:2963   */\n      tag_176\n        /* \"#utility.yul\":2957:2962   */\n      dup2\n        /* \"#utility.yul\":2939:2963   */\n      tag_177\n      jump\t// in\n    tag_176:\n        /* \"#utility.yul\":2934:2937   */\n      dup3\n        /* \"#utility.yul\":2927:2964   */\n      mstore\n        /* \"#utility.yul\":2852:2970   */\n      pop\n      pop\n      jump\t// out\n        /* \"#utility.yul\":2976:3340   */\n    tag_178:\n        /* \"#utility.yul\":3064:3067   */\n      0x00\n        /* \"#utility.yul\":3092:3131   */\n      tag_180\n        /* \"#utility.yul\":3125:3130   */\n      dup3\n        /* \"#utility.yul\":3092:3131   */\n      tag_181\n      jump\t// in\n    tag_180:\n        /* \"#utility.yul\":3147:3218   */\n      tag_182\n        /* \"#utility.yul\":3211:3217   */\n      dup2\n        /* \"#utility.yul\":3206:3209   */\n      dup6\n        /* \"#utility.yul\":3147:3218   */\n      tag_183\n      jump\t// in\n    tag_182:\n        /* \"#utility.yul\":3140:3218   */\n      swap4\n      pop\n        /* \"#utility.yul\":3227:3279   */\n      tag_184\n        /* \"#utility.yul\":3272:3278   */\n      dup2\n        /* \"#utility.yul\":3267:3270   */\n      dup6\n        /* \"#utility.yul\":3260:3264   */\n      0x20\n        /* \"#utility.yul\":3253:3258   */\n      dup7\n        /* \"#utility.yul\":3249:3265   */\n      add\n        /* \"#utility.yul\":3227:3279   */\n      tag_185\n      jump\t// in\n    tag_184:\n        /* \"#utility.yul\":3304:3333   */\n      tag_186\n        /* \"#utility.yul\":3326:3332   */\n      dup2\n        /* \"#utility.yul\":3304:3333   */\n      tag_187\n      jump\t// in\n    tag_186:\n        /* \"#utility.yul\":3299:3302   */\n      dup5\n        /* \"#utility.yul\":3295:3334   */\n      add\n        /* \"#utility.yul\":3288:3334   */\n      swap2\n      pop\n        /* \"#utility.yul\":3068:3340   */\n      pop\n        /* \"#utility.yul\":2976:3340   */\n      swap3\n      swap2\n      pop\n      pop\n      jump\t// out\n        /* \"#utility.yul\":3346:3712   */\n    tag_188:\n        /* \"#utility.yul\":3488:3491   */\n      0x00\n        /* \"#utility.yul\":3509:3576   */\n      tag_190\n        /* \"#utility.yul\":3573:3575   */\n      0x23\n        /* \"#utility.yul\":3568:3571   */\n      dup4\n        /* \"#utility.yul\":3509:3576   */\n      tag_183\n      jump\t// in\n    tag_190:\n        /* \"#utility.yul\":3502:3576   */\n      swap2\n      pop\n        /* \"#utility.yul\":3585:3678   */\n      tag_191\n        /* \"#utility.yul\":3674:3677   */\n      dup3\n        /* \"#utility.yul\":3585:3678   */\n      tag_192\n      jump\t// in\n    tag_191:\n        /* \"#utility.yul\":3703:3705   */\n      0x40\n        /* \"#utility.yul\":3698:3701   */\n      dup3\n        /* \"#utility.yul\":3694:3706   */\n      add\n        /* \"#utility.yul\":3687:3706   */\n      swap1\n      pop\n        /* \"#utility.yul\":3346:3712   */\n      swap2\n      swap1\n      pop\n      jump\t// out\n        /* \"#utility.yul\":3718:4084   */\n    tag_193:\n        /* \"#utility.yul\":3860:3863   */\n      0x00\n        /* \"#utility.yul\":3881:3948   */\n      tag_195\n        /* \"#utility.yul\":3945:3947   */\n      0x1c\n        /* \"#utility.yul\":3940:3943   */\n      dup4\n        /* \"#utility.yul\":3881:3948   */\n      tag_183\n      jump\t// in\n    tag_195:\n        /* \"#utility.yul\":3874:3948   */\n      swap2\n      pop\n        /* \"#utility.yul\":3957:4050   */\n      tag_196\n        /* \"#utility.yul\":4046:4049   */\n      dup3\n        /* \"#utility.yul\":3957:4050   */\n      tag_197\n      jump\t// in\n    tag_196:\n        /* \"#utility.yul\":4075:4077   */\n      0x20\n        /* \"#utility.yul\":4070:4073   */\n      dup3\n        /* \"#utility.yul\":4066:4078   */\n      add\n        /* \"#utility.yul\":4059:4078   */\n      swap1\n      pop\n        /* \"#utility.yul\":3718:4084   */\n      swap2\n      swap1\n      pop\n      jump\t// out\n        /* \"#utility.yul\":4090:4456   */\n    tag_198:\n        /* \"#utility.yul\":4232:4235   */\n      0x00\n        /* \"#utility.yul\":4253:4320   */\n      tag_200\n        /* \"#utility.yul\":4317:4319   */\n      0x22\n        /* \"#utility.yul\":4312:4315   */\n      dup4\n        /* \"#utility.yul\":4253:4320   */\n      tag_183\n      jump\t// in\n    tag_200:\n        /* \"#utility.yul\":4246:4320   */\n      swap2\n      pop\n        /* \"#utility.yul\":4329:4422   */\n      tag_201\n        /* \"#utility.yul\":4418:4421   */\n      dup3\n        /* \"#utility.yul\":4329:4422   */\n      tag_202\n      jump\t// in\n    tag_201:\n        /* \"#utility.yul\":4447:4449   */\n      0x40\n        /* \"#utility.yul\":4442:4445   */\n      dup3\n        /* \"#utility.yul\":4438:4450   */\n      add\n        /* \"#utility.yul\":4431:4450   */\n      swap1\n      pop\n        /* \"#utility.yul\":4090:4456   */\n      swap2\n      swap1\n      pop\n      jump\t// out\n        /* \"#utility.yul\":4462:4828   */\n    tag_203:\n        /* \"#utility.yul\":4604:4607   */\n      0x00\n        /* \"#utility.yul\":4625:4692   */\n      tag_205\n        /* \"#utility.yul\":4689:4691   */\n      0x16\n        /* \"#utility.yul\":4684:4687   */\n      dup4\n        /* \"#utility.yul\":4625:4692   */\n      tag_183\n      jump\t// in\n    tag_205:\n        /* \"#utility.yul\":4618:4692   */\n      swap2\n      pop\n        /* \"#utility.yul\":4701:4794   */\n      tag_206\n        /* \"#utility.yul\":4790:4793   */\n      dup3\n        /* \"#utility.yul\":4701:4794   */\n      tag_207\n      jump\t// in\n    tag_206:\n        /* \"#utility.yul\":4819:4821   */\n      0x20\n        /* \"#utility.yul\":4814:4817   */\n      dup3\n        /* \"#utility.yul\":4810:4822   */\n      add\n        /* \"#utility.yul\":4803:4822   */\n      swap1\n      pop\n        /* \"#utility.yul\":4462:4828   */\n      swap2\n      swap1\n      pop\n      jump\t// out\n        /* \"#utility.yul\":4834:5200   */\n    tag_208:\n        /* \"#utility.yul\":4976:4979   */\n      0x00\n        /* \"#utility.yul\":4997:5064   */\n      tag_210\n        /* \"#utility.yul\":5061:5063   */\n      0x16\n        /* \"#utility.yul\":5056:5059   */\n      dup4\n        /* \"#utility.yul\":4997:5064   */\n      tag_183\n      jump\t// in\n    tag_210:\n        /* \"#utility.yul\":4990:5064   */\n      swap2\n      pop\n        /* \"#utility.yul\":5073:5166   */\n      tag_211\n        /* \"#utility.yul\":5162:5165   */\n      dup3\n        /* \"#utility.yul\":5073:5166   */\n      tag_212\n      jump\t// in\n    tag_211:\n        /* \"#utility.yul\":5191:5193   */\n      0x20\n        /* \"#utility.yul\":5186:5189   */\n      dup3\n        /* \"#utility.yul\":5182:5194   */\n      add\n        /* \"#utility.yul\":5175:5194   */\n      swap1\n      pop\n        /* \"#utility.yul\":4834:5200   */\n      swap2\n      swap1\n      pop\n      jump\t// out\n        /* \"#utility.yul\":5206:5572   */\n    tag_213:\n        /* \"#utility.yul\":5348:5351   */\n      0x00\n        /* \"#utility.yul\":5369:5436   */\n      tag_215\n        /* \"#utility.yul\":5433:5435   */\n      0x2e\n        /* \"#utility.yul\":5428:5431   */\n      dup4\n        /* \"#utility.yul\":5369:5436   */\n      tag_183\n      jump\t// in\n    tag_215:\n        /* \"#utility.yul\":5362:5436   */\n      swap2\n      pop\n        /* \"#utility.yul\":5445:5538   */\n      tag_216\n        /* \"#utility.yul\":5534:5537   */\n      dup3\n        /* \"#utility.yul\":5445:5538   */\n      tag_217\n      jump\t// in\n    tag_216:\n        /* \"#utility.yul\":5563:5565   */\n      0x40\n        /* \"#utility.yul\":5558:5561   */\n      dup3\n        /* \"#utility.yul\":5554:5566   */\n      add\n        /* \"#utility.yul\":5547:5566   */\n      swap1\n      pop\n        /* \"#utility.yul\":5206:5572   */\n      swap2\n      swap1\n      pop\n      jump\t// out\n        /* \"#utility.yul\":5578:5944   */\n    tag_218:\n        /* \"#utility.yul\":5720:5723   */\n      0x00\n        /* \"#utility.yul\":5741:5808   */\n      tag_220\n        /* \"#utility.yul\":5805:5807   */\n      0x1c\n        /* \"#utility.yul\":5800:5803   */\n      dup4\n        /* \"#utility.yul\":5741:5808   */\n      tag_183\n      jump\t// in\n    tag_220:\n        /* \"#utility.yul\":5734:5808   */\n      swap2\n      pop\n        /* \"#utility.yul\":5817:5910   */\n      tag_221\n        /* \"#utility.yul\":5906:5909   */\n      dup3\n        /* \"#utility.yul\":5817:5910   */\n      tag_222\n      jump\t// in\n    tag_221:\n        /* \"#utility.yul\":5935:5937   */\n      0x20\n        /* \"#utility.yul\":5930:5933   */\n      dup3\n        /* \"#utility.yul\":5926:5938   */\n      add\n        /* \"#utility.yul\":5919:5938   */\n      swap1\n      pop\n        /* \"#utility.yul\":5578:5944   */\n      swap2\n      swap1\n      pop\n      jump\t// out\n        /* \"#utility.yul\":5950:6316   */\n    tag_223:\n        /* \"#utility.yul\":6092:6095   */\n      0x00\n        /* \"#utility.yul\":6113:6180   */\n      tag_225\n        /* \"#utility.yul\":6177:6179   */\n      0x12\n        /* \"#utility.yul\":6172:6175   */\n      dup4\n        /* \"#utility.yul\":6113:6180   */\n      tag_183\n      jump\t// in\n    tag_225:\n        /* \"#utility.yul\":6106:6180   */\n      swap2\n      pop\n        /* \"#utility.yul\":6189:6282   */\n      tag_226\n        /* \"#utility.yul\":6278:6281   */\n      dup3\n        /* \"#utility.yul\":6189:6282   */\n      tag_227\n      jump\t// in\n    tag_226:\n        /* \"#utility.yul\":6307:6309   */\n      0x20\n        /* \"#utility.yul\":6302:6305   */\n      dup3\n        /* \"#utility.yul\":6298:6310   */\n      add\n        /* \"#utility.yul\":6291:6310   */\n      swap1\n      pop\n        /* \"#utility.yul\":5950:6316   */\n      swap2\n      swap1\n      pop\n      jump\t// out\n        /* \"#utility.yul\":6322:6688   */\n    tag_228:\n        /* \"#utility.yul\":6464:6467   */\n      0x00\n        /* \"#utility.yul\":6485:6552   */\n      tag_230\n        /* \"#utility.yul\":6549:6551   */\n      0x29\n        /* \"#utility.yul\":6544:6547   */\n      dup4\n        /* \"#utility.yul\":6485:6552   */\n      tag_183\n      jump\t// in\n    tag_230:\n        /* \"#utility.yul\":6478:6552   */\n      swap2\n      pop\n        /* \"#utility.yul\":6561:6654   */\n      tag_231\n        /* \"#utility.yul\":6650:6653   */\n      dup3\n        /* \"#utility.yul\":6561:6654   */\n      tag_232\n      jump\t// in\n    tag_231:\n        /* \"#utility.yul\":6679:6681   */\n      0x40\n        /* \"#utility.yul\":6674:6677   */\n      dup3\n        /* \"#utility.yul\":6670:6682   */\n      add\n        /* \"#utility.yul\":6663:6682   */\n      swap1\n      pop\n        /* \"#utility.yul\":6322:6688   */\n      swap2\n      swap1\n      pop\n      jump\t// out\n        /* \"#utility.yul\":6694:7060   */\n    tag_233:\n        /* \"#utility.yul\":6836:6839   */\n      0x00\n        /* \"#utility.yul\":6857:6924   */\n      tag_235\n        /* \"#utility.yul\":6921:6923   */\n      0x23\n        /* \"#utility.yul\":6916:6919   */\n      dup4\n        /* \"#utility.yul\":6857:6924   */\n      tag_183\n      jump\t// in\n    tag_235:\n        /* \"#utility.yul\":6850:6924   */\n      swap2\n      pop\n        /* \"#utility.yul\":6933:7026   */\n      tag_236\n        /* \"#utility.yul\":7022:7025   */\n      dup3\n        /* \"#utility.yul\":6933:7026   */\n      tag_237\n      jump\t// in\n    tag_236:\n        /* \"#utility.yul\":7051:7053   */\n      0x40\n        /* \"#utility.yul\":7046:7049   */\n      dup3\n        /* \"#utility.yul\":7042:7054   */\n      add\n        /* \"#utility.yul\":7035:7054   */\n      swap1\n      pop\n        /* \"#utility.yul\":6694:7060   */\n      swap2\n      swap1\n      pop\n      jump\t// out\n        /* \"#utility.yul\":7066:7432   */\n    tag_238:\n        /* \"#utility.yul\":7208:7211   */\n      0x00\n        /* \"#utility.yul\":7229:7296   */\n      tag_240\n        /* \"#utility.yul\":7293:7295   */\n      0x1c\n        /* \"#utility.yul\":7288:7291   */\n      dup4\n        /* \"#utility.yul\":7229:7296   */\n      tag_183\n      jump\t// in\n    tag_240:\n        /* \"#utility.yul\":7222:7296   */\n      swap2\n      pop\n        /* \"#utility.yul\":7305:7398   */\n      tag_241\n        /* \"#utility.yul\":7394:7397   */\n      dup3\n        /* \"#utility.yul\":7305:7398   */\n      tag_242\n      jump\t// in\n    tag_241:\n        /* \"#utility.yul\":7423:7425   */\n      0x20\n        /* \"#utility.yul\":7418:7421   */\n      dup3\n        /* \"#utility.yul\":7414:7426   */\n      add\n        /* \"#utility.yul\":7407:7426   */\n      swap1\n      pop\n        /* \"#utility.yul\":7066:7432   */\n      swap2\n      swap1\n      pop\n      jump\t// out\n        /* \"#utility.yul\":7438:7556   */\n    tag_243:\n        /* \"#utility.yul\":7525:7549   */\n      tag_245\n        /* \"#utility.yul\":7543:7548   */\n      dup2\n        /* \"#utility.yul\":7525:7549   */\n      tag_246\n      jump\t// in\n    tag_245:\n        /* \"#utility.yul\":7520:7523   */\n      dup3\n        /* \"#utility.yul\":7513:7550   */\n      mstore\n        /* \"#utility.yul\":7438:7556   */\n      pop\n      pop\n      jump\t// out\n        /* \"#utility.yul\":7562:7719   */\n    tag_247:\n        /* \"#utility.yul\":7667:7712   */\n      tag_249\n        /* \"#utility.yul\":7687:7711   */\n      tag_250\n        /* \"#utility.yul\":7705:7710   */\n      dup3\n        /* \"#utility.yul\":7687:7711   */\n      tag_246\n      jump\t// in\n    tag_250:\n        /* \"#utility.yul\":7667:7712   */\n      tag_251\n      jump\t// in\n    tag_249:\n        /* \"#utility.yul\":7662:7665   */\n      dup3\n        /* \"#utility.yul\":7655:7713   */\n      mstore\n        /* \"#utility.yul\":7562:7719   */\n      pop\n      pop\n      jump\t// out\n        /* \"#utility.yul\":7725:7981   */\n    tag_76:\n        /* \"#utility.yul\":7837:7840   */\n      0x00\n        /* \"#utility.yul\":7852:7927   */\n      tag_253\n        /* \"#utility.yul\":7923:7926   */\n      dup3\n        /* \"#utility.yul\":7914:7920   */\n      dup5\n        /* \"#utility.yul\":7852:7927   */\n      tag_247\n      jump\t// in\n    tag_253:\n        /* \"#utility.yul\":7952:7954   */\n      0x20\n        /* \"#utility.yul\":7947:7950   */\n      dup3\n        /* \"#utility.yul\":7943:7955   */\n      add\n        /* \"#utility.yul\":7936:7955   */\n      swap2\n      pop\n        /* \"#utility.yul\":7972:7975   */\n      dup2\n        /* \"#utility.yul\":7965:7975   */\n      swap1\n      pop\n        /* \"#utility.yul\":7725:7981   */\n      swap3\n      swap2\n      pop\n      pop\n      jump\t// out\n        /* \"#utility.yul\":7987:8209   */\n    tag_56:\n        /* \"#utility.yul\":8080:8084   */\n      0x00\n        /* \"#utility.yul\":8118:8120   */\n      0x20\n        /* \"#utility.yul\":8107:8116   */\n      dup3\n        /* \"#utility.yul\":8103:8121   */\n      add\n        /* \"#utility.yul\":8095:8121   */\n      swap1\n      pop\n        /* \"#utility.yul\":8131:8202   */\n      tag_255\n        /* \"#utility.yul\":8199:8200   */\n      0x00\n        /* \"#utility.yul\":8188:8197   */\n      dup4\n        /* \"#utility.yul\":8184:8201   */\n      add\n        /* \"#utility.yul\":8175:8181   */\n      dup5\n        /* \"#utility.yul\":8131:8202   */\n      tag_170\n      jump\t// in\n    tag_255:\n        /* \"#utility.yul\":7987:8209   */\n      swap3\n      swap2\n      pop\n      pop\n      jump\t// out\n        /* \"#utility.yul\":8215:8638   */\n    tag_118:\n        /* \"#utility.yul\":8356:8360   */\n      0x00\n        /* \"#utility.yul\":8394:8396   */\n      0x40\n        /* \"#utility.yul\":8383:8392   */\n      dup3\n        /* \"#utility.yul\":8379:8397   */\n      add\n        /* \"#utility.yul\":8371:8397   */\n      swap1\n      pop\n        /* \"#utility.yul\":8407:8478   */\n      tag_257\n        /* \"#utility.yul\":8475:8476   */\n      0x00\n        /* \"#utility.yul\":8464:8473   */\n      dup4\n        /* \"#utility.yul\":8460:8477   */\n      add\n        /* \"#utility.yul\":8451:8457   */\n      dup6\n        /* \"#utility.yul\":8407:8478   */\n      tag_170\n      jump\t// in\n    tag_257:\n        /* \"#utility.yul\":8525:8534   */\n      dup2\n        /* \"#utility.yul\":8519:8523   */\n      dup2\n        /* \"#utility.yul\":8515:8535   */\n      sub\n        /* \"#utility.yul\":8510:8512   */\n      0x20\n        /* \"#utility.yul\":8499:8508   */\n      dup4\n        /* \"#utility.yul\":8495:8513   */\n      add\n        /* \"#utility.yul\":8488:8536   */\n      mstore\n        /* \"#utility.yul\":8553:8631   */\n      tag_258\n        /* \"#utility.yul\":8626:8630   */\n      dup2\n        /* \"#utility.yul\":8617:8623   */\n      dup5\n        /* \"#utility.yul\":8553:8631   */\n      tag_178\n      jump\t// in\n    tag_258:\n        /* \"#utility.yul\":8545:8631   */\n      swap1\n      pop\n        /* \"#utility.yul\":8215:8638   */\n      swap4\n      swap3\n      pop\n      pop\n      pop\n      jump\t// out\n        /* \"#utility.yul\":8644:8866   */\n    tag_27:\n        /* \"#utility.yul\":8737:8741   */\n      0x00\n        /* \"#utility.yul\":8775:8777   */\n      0x20\n        /* \"#utility.yul\":8764:8773   */\n      dup3\n        /* \"#utility.yul\":8760:8778   */\n      add\n        /* \"#utility.yul\":8752:8778   */\n      swap1\n      pop\n        /* \"#utility.yul\":8788:8859   */\n      tag_260\n        /* \"#utility.yul\":8856:8857   */\n      0x00\n        /* \"#utility.yul\":8845:8854   */\n      dup4\n        /* \"#utility.yul\":8841:8858   */\n      add\n        /* \"#utility.yul\":8832:8838   */\n      dup5\n        /* \"#utility.yul\":8788:8859   */\n      tag_174\n      jump\t// in\n    tag_260:\n        /* \"#utility.yul\":8644:8866   */\n      swap3\n      swap2\n      pop\n      pop\n      jump\t// out\n        /* \"#utility.yul\":8872:9291   */\n    tag_109:\n        /* \"#utility.yul\":9038:9042   */\n      0x00\n        /* \"#utility.yul\":9076:9078   */\n      0x20\n        /* \"#utility.yul\":9065:9074   */\n      dup3\n        /* \"#utility.yul\":9061:9079   */\n      add\n        /* \"#utility.yul\":9053:9079   */\n      swap1\n      pop\n        /* \"#utility.yul\":9125:9134   */\n      dup2\n        /* \"#utility.yul\":9119:9123   */\n      dup2\n        /* \"#utility.yul\":9115:9135   */\n      sub\n        /* \"#utility.yul\":9111:9112   */\n      0x00\n        /* \"#utility.yul\":9100:9109   */\n      dup4\n        /* \"#utility.yul\":9096:9113   */\n      add\n        /* \"#utility.yul\":9089:9136   */\n      mstore\n        /* \"#utility.yul\":9153:9284   */\n      tag_262\n        /* \"#utility.yul\":9279:9283   */\n      dup2\n        /* \"#utility.yul\":9153:9284   */\n      tag_188\n      jump\t// in\n    tag_262:\n        /* \"#utility.yul\":9145:9284   */\n      swap1\n      pop\n        /* \"#utility.yul\":8872:9291   */\n      swap2\n      swap1\n      pop\n      jump\t// out\n        /* \"#utility.yul\":9297:9716   */\n    tag_51:\n        /* \"#utility.yul\":9463:9467   */\n      0x00\n        /* \"#utility.yul\":9501:9503   */\n      0x20\n        /* \"#utility.yul\":9490:9499   */\n      dup3\n        /* \"#utility.yul\":9486:9504   */\n      add\n        /* \"#utility.yul\":9478:9504   */\n      swap1\n      pop\n        /* \"#utility.yul\":9550:9559   */\n      dup2\n        /* \"#utility.yul\":9544:9548   */\n      dup2\n        /* \"#utility.yul\":9540:9560   */\n      sub\n        /* \"#utility.yul\":9536:9537   */\n      0x00\n        /* \"#utility.yul\":9525:9534   */\n      dup4\n        /* \"#utility.yul\":9521:9538   */\n      add\n        /* \"#utility.yul\":9514:9561   */\n      mstore\n        /* \"#utility.yul\":9578:9709   */\n      tag_264\n        /* \"#utility.yul\":9704:9708   */\n      dup2\n        /* \"#utility.yul\":9578:9709   */\n      tag_193\n      jump\t// in\n    tag_264:\n        /* \"#utility.yul\":9570:9709   */\n      swap1\n      pop\n        /* \"#utility.yul\":9297:9716   */\n      swap2\n      swap1\n      pop\n      jump\t// out\n        /* \"#utility.yul\":9722:10141   */\n    tag_115:\n        /* \"#utility.yul\":9888:9892   */\n      0x00\n        /* \"#utility.yul\":9926:9928   */\n      0x20\n        /* \"#utility.yul\":9915:9924   */\n      dup3\n        /* \"#utility.yul\":9911:9929   */\n      add\n        /* \"#utility.yul\":9903:9929   */\n      swap1\n      pop\n        /* \"#utility.yul\":9975:9984   */\n      dup2\n        /* \"#utility.yul\":9969:9973   */\n      dup2\n        /* \"#utility.yul\":9965:9985   */\n      sub\n        /* \"#utility.yul\":9961:9962   */\n      0x00\n        /* \"#utility.yul\":9950:9959   */\n      dup4\n        /* \"#utility.yul\":9946:9963   */\n      add\n        /* \"#utility.yul\":9939:9986   */\n      mstore\n        /* \"#utility.yul\":10003:10134   */\n      tag_266\n        /* \"#utility.yul\":10129:10133   */\n      dup2\n        /* \"#utility.yul\":10003:10134   */\n      tag_198\n      jump\t// in\n    tag_266:\n        /* \"#utility.yul\":9995:10134   */\n      swap1\n      pop\n        /* \"#utility.yul\":9722:10141   */\n      swap2\n      swap1\n      pop\n      jump\t// out\n        /* \"#utility.yul\":10147:10566   */\n    tag_70:\n        /* \"#utility.yul\":10313:10317   */\n      0x00\n        /* \"#utility.yul\":10351:10353   */\n      0x20\n        /* \"#utility.yul\":10340:10349   */\n      dup3\n        /* \"#utility.yul\":10336:10354   */\n      add\n        /* \"#utility.yul\":10328:10354   */\n      swap1\n      pop\n        /* \"#utility.yul\":10400:10409   */\n      dup2\n        /* \"#utility.yul\":10394:10398   */\n      dup2\n        /* \"#utility.yul\":10390:10410   */\n      sub\n        /* \"#utility.yul\":10386:10387   */\n      0x00\n        /* \"#utility.yul\":10375:10384   */\n      dup4\n        /* \"#utility.yul\":10371:10388   */\n      add\n        /* \"#utility.yul\":10364:10411   */\n      mstore\n        /* \"#utility.yul\":10428:10559   */\n      tag_268\n        /* \"#utility.yul\":10554:10558   */\n      dup2\n        /* \"#utility.yul\":10428:10559   */\n      tag_203\n      jump\t// in\n    tag_268:\n        /* \"#utility.yul\":10420:10559   */\n      swap1\n      pop\n        /* \"#utility.yul\":10147:10566   */\n      swap2\n      swap1\n      pop\n      jump\t// out\n        /* \"#utility.yul\":10572:10991   */\n    tag_67:\n        /* \"#utility.yul\":10738:10742   */\n      0x00\n        /* \"#utility.yul\":10776:10778   */\n      0x20\n        /* \"#utility.yul\":10765:10774   */\n      dup3\n        /* \"#utility.yul\":10761:10779   */\n      add\n        /* \"#utility.yul\":10753:10779   */\n      swap1\n      pop\n        /* \"#utility.yul\":10825:10834   */\n      dup2\n        /* \"#utility.yul\":10819:10823   */\n      dup2\n        /* \"#utility.yul\":10815:10835   */\n      sub\n        /* \"#utility.yul\":10811:10812   */\n      0x00\n        /* \"#utility.yul\":10800:10809   */\n      dup4\n        /* \"#utility.yul\":10796:10813   */\n      add\n        /* \"#utility.yul\":10789:10836   */\n      mstore\n        /* \"#utility.yul\":10853:10984   */\n      tag_270\n        /* \"#utility.yul\":10979:10983   */\n      dup2\n        /* \"#utility.yul\":10853:10984   */\n      tag_208\n      jump\t// in\n    tag_270:\n        /* \"#utility.yul\":10845:10984   */\n      swap1\n      pop\n        /* \"#utility.yul\":10572:10991   */\n      swap2\n      swap1\n      pop\n      jump\t// out\n        /* \"#utility.yul\":10997:11416   */\n    tag_60:\n        /* \"#utility.yul\":11163:11167   */\n      0x00\n        /* \"#utility.yul\":11201:11203   */\n      0x20\n        /* \"#utility.yul\":11190:11199   */\n      dup3\n        /* \"#utility.yul\":11186:11204   */\n      add\n        /* \"#utility.yul\":11178:11204   */\n      swap1\n      pop\n        /* \"#utility.yul\":11250:11259   */\n      dup2\n        /* \"#utility.yul\":11244:11248   */\n      dup2\n        /* \"#utility.yul\":11240:11260   */\n      sub\n        /* \"#utility.yul\":11236:11237   */\n      0x00\n        /* \"#utility.yul\":11225:11234   */\n      dup4\n        /* \"#utility.yul\":11221:11238   */\n      add\n        /* \"#utility.yul\":11214:11261   */\n      mstore\n        /* \"#utility.yul\":11278:11409   */\n      tag_272\n        /* \"#utility.yul\":11404:11408   */\n      dup2\n        /* \"#utility.yul\":11278:11409   */\n      tag_213\n      jump\t// in\n    tag_272:\n        /* \"#utility.yul\":11270:11409   */\n      swap1\n      pop\n        /* \"#utility.yul\":10997:11416   */\n      swap2\n      swap1\n      pop\n      jump\t// out\n        /* \"#utility.yul\":11422:11841   */\n    tag_48:\n        /* \"#utility.yul\":11588:11592   */\n      0x00\n        /* \"#utility.yul\":11626:11628   */\n      0x20\n        /* \"#utility.yul\":11615:11624   */\n      dup3\n        /* \"#utility.yul\":11611:11629   */\n      add\n        /* \"#utility.yul\":11603:11629   */\n      swap1\n      pop\n        /* \"#utility.yul\":11675:11684   */\n      dup2\n        /* \"#utility.yul\":11669:11673   */\n      dup2\n        /* \"#utility.yul\":11665:11685   */\n      sub\n        /* \"#utility.yul\":11661:11662   */\n      0x00\n        /* \"#utility.yul\":11650:11659   */\n      dup4\n        /* \"#utility.yul\":11646:11663   */\n      add\n        /* \"#utility.yul\":11639:11686   */\n      mstore\n        /* \"#utility.yul\":11703:11834   */\n      tag_274\n        /* \"#utility.yul\":11829:11833   */\n      dup2\n        /* \"#utility.yul\":11703:11834   */\n      tag_218\n      jump\t// in\n    tag_274:\n        /* \"#utility.yul\":11695:11834   */\n      swap1\n      pop\n        /* \"#utility.yul\":11422:11841   */\n      swap2\n      swap1\n      pop\n      jump\t// out\n        /* \"#utility.yul\":11847:12266   */\n    tag_64:\n        /* \"#utility.yul\":12013:12017   */\n      0x00\n        /* \"#utility.yul\":12051:12053   */\n      0x20\n        /* \"#utility.yul\":12040:12049   */\n      dup3\n        /* \"#utility.yul\":12036:12054   */\n      add\n        /* \"#utility.yul\":12028:12054   */\n      swap1\n      pop\n        /* \"#utility.yul\":12100:12109   */\n      dup2\n        /* \"#utility.yul\":12094:12098   */\n      dup2\n        /* \"#utility.yul\":12090:12110   */\n      sub\n        /* \"#utility.yul\":12086:12087   */\n      0x00\n        /* \"#utility.yul\":12075:12084   */\n      dup4\n        /* \"#utility.yul\":12071:12088   */\n      add\n        /* \"#utility.yul\":12064:12111   */\n      mstore\n        /* \"#utility.yul\":12128:12259   */\n      tag_276\n        /* \"#utility.yul\":12254:12258   */\n      dup2\n        /* \"#utility.yul\":12128:12259   */\n      tag_223\n      jump\t// in\n    tag_276:\n        /* \"#utility.yul\":12120:12259   */\n      swap1\n      pop\n        /* \"#utility.yul\":11847:12266   */\n      swap2\n      swap1\n      pop\n      jump\t// out\n        /* \"#utility.yul\":12272:12691   */\n    tag_74:\n        /* \"#utility.yul\":12438:12442   */\n      0x00\n        /* \"#utility.yul\":12476:12478   */\n      0x20\n        /* \"#utility.yul\":12465:12474   */\n      dup3\n        /* \"#utility.yul\":12461:12479   */\n      add\n        /* \"#utility.yul\":12453:12479   */\n      swap1\n      pop\n        /* \"#utility.yul\":12525:12534   */\n      dup2\n        /* \"#utility.yul\":12519:12523   */\n      dup2\n        /* \"#utility.yul\":12515:12535   */\n      sub\n        /* \"#utility.yul\":12511:12512   */\n      0x00\n        /* \"#utility.yul\":12500:12509   */\n      dup4\n        /* \"#utility.yul\":12496:12513   */\n      add\n        /* \"#utility.yul\":12489:12536   */\n      mstore\n        /* \"#utility.yul\":12553:12684   */\n      tag_278\n        /* \"#utility.yul\":12679:12683   */\n      dup2\n        /* \"#utility.yul\":12553:12684   */\n      tag_228\n      jump\t// in\n    tag_278:\n        /* \"#utility.yul\":12545:12684   */\n      swap1\n      pop\n        /* \"#utility.yul\":12272:12691   */\n      swap2\n      swap1\n      pop\n      jump\t// out\n        /* \"#utility.yul\":12697:13116   */\n    tag_54:\n        /* \"#utility.yul\":12863:12867   */\n      0x00\n        /* \"#utility.yul\":12901:12903   */\n      0x20\n        /* \"#utility.yul\":12890:12899   */\n      dup3\n        /* \"#utility.yul\":12886:12904   */\n      add\n        /* \"#utility.yul\":12878:12904   */\n      swap1\n      pop\n        /* \"#utility.yul\":12950:12959   */\n      dup2\n        /* \"#utility.yul\":12944:12948   */\n      dup2\n        /* \"#utility.yul\":12940:12960   */\n      sub\n        /* \"#utility.yul\":12936:12937   */\n      0x00\n        /* \"#utility.yul\":12925:12934   */\n      dup4\n        /* \"#utility.yul\":12921:12938   */\n      add\n        /* \"#utility.yul\":12914:12961   */\n      mstore\n        /* \"#utility.yul\":12978:13109   */\n      tag_280\n        /* \"#utility.yul\":13104:13108   */\n      dup2\n        /* \"#utility.yul\":12978:13109   */\n      tag_233\n      jump\t// in\n    tag_280:\n        /* \"#utility.yul\":12970:13109   */\n      swap1\n      pop\n        /* \"#utility.yul\":12697:13116   */\n      swap2\n      swap1\n      pop\n      jump\t// out\n        /* \"#utility.yul\":13122:13541   */\n    tag_106:\n        /* \"#utility.yul\":13288:13292   */\n      0x00\n        /* \"#utility.yul\":13326:13328   */\n      0x20\n        /* \"#utility.yul\":13315:13324   */\n      dup3\n        /* \"#utility.yul\":13311:13329   */\n      add\n        /* \"#utility.yul\":13303:13329   */\n      swap1\n      pop\n        /* \"#utility.yul\":13375:13384   */\n      dup2\n        /* \"#utility.yul\":13369:13373   */\n      dup2\n        /* \"#utility.yul\":13365:13385   */\n      sub\n        /* \"#utility.yul\":13361:13362   */\n      0x00\n        /* \"#utility.yul\":13350:13359   */\n      dup4\n        /* \"#utility.yul\":13346:13363   */\n      add\n        /* \"#utility.yul\":13339:13386   */\n      mstore\n        /* \"#utility.yul\":13403:13534   */\n      tag_282\n        /* \"#utility.yul\":13529:13533   */\n      dup2\n        /* \"#utility.yul\":13403:13534   */\n      tag_238\n      jump\t// in\n    tag_282:\n        /* \"#utility.yul\":13395:13534   */\n      swap1\n      pop\n        /* \"#utility.yul\":13122:13541   */\n      swap2\n      swap1\n      pop\n      jump\t// out\n        /* \"#utility.yul\":13547:13769   */\n    tag_21:\n        /* \"#utility.yul\":13640:13644   */\n      0x00\n        /* \"#utility.yul\":13678:13680   */\n      0x20\n        /* \"#utility.yul\":13667:13676   */\n      dup3\n        /* \"#utility.yul\":13663:13681   */\n      add\n        /* \"#utility.yul\":13655:13681   */\n      swap1\n      pop\n        /* \"#utility.yul\":13691:13762   */\n      tag_284\n        /* \"#utility.yul\":13759:13760   */\n      0x00\n        /* \"#utility.yul\":13748:13757   */\n      dup4\n        /* \"#utility.yul\":13744:13761   */\n      add\n        /* \"#utility.yul\":13735:13741   */\n      dup5\n        /* \"#utility.yul\":13691:13762   */\n      tag_243\n      jump\t// in\n    tag_284:\n        /* \"#utility.yul\":13547:13769   */\n      swap3\n      swap2\n      pop\n      pop\n      jump\t// out\n        /* \"#utility.yul\":13775:13904   */\n    tag_126:\n        /* \"#utility.yul\":13809:13815   */\n      0x00\n        /* \"#utility.yul\":13836:13856   */\n      tag_286\n      tag_287\n      jump\t// in\n    tag_286:\n        /* \"#utility.yul\":13826:13856   */\n      swap1\n      pop\n        /* \"#utility.yul\":13865:13898   */\n      tag_288\n        /* \"#utility.yul\":13893:13897   */\n      dup3\n        /* \"#utility.yul\":13885:13891   */\n      dup3\n        /* \"#utility.yul\":13865:13898   */\n      tag_289\n      jump\t// in\n    tag_288:\n        /* \"#utility.yul\":13775:13904   */\n      swap2\n      swap1\n      pop\n      jump\t// out\n        /* \"#utility.yul\":13910:13985   */\n    tag_287:\n        /* \"#utility.yul\":13943:13949   */\n      0x00\n        /* \"#utility.yul\":13976:13978   */\n      0x40\n        /* \"#utility.yul\":13970:13979   */\n      mload\n        /* \"#utility.yul\":13960:13979   */\n      swap1\n      pop\n        /* \"#utility.yul\":13910:13985   */\n      swap1\n      jump\t// out\n        /* \"#utility.yul\":13991:14299   */\n    tag_125:\n        /* \"#utility.yul\":14053:14057   */\n      0x00\n        /* \"#utility.yul\":14143:14161   */\n      0xffffffffffffffff\n        /* \"#utility.yul\":14135:14141   */\n      dup3\n        /* \"#utility.yul\":14132:14162   */\n      gt\n        /* \"#utility.yul\":14129:14185   */\n      iszero\n      tag_292\n      jumpi\n        /* \"#utility.yul\":14165:14183   */\n      tag_293\n      tag_294\n      jump\t// in\n    tag_293:\n        /* \"#utility.yul\":14129:14185   */\n    tag_292:\n        /* \"#utility.yul\":14203:14232   */\n      tag_295\n        /* \"#utility.yul\":14225:14231   */\n      dup3\n        /* \"#utility.yul\":14203:14232   */\n      tag_187\n      jump\t// in\n    tag_295:\n        /* \"#utility.yul\":14195:14232   */\n      swap1\n      pop\n        /* \"#utility.yul\":14287:14291   */\n      0x20\n        /* \"#utility.yul\":14281:14285   */\n      dup2\n        /* \"#utility.yul\":14277:14292   */\n      add\n        /* \"#utility.yul\":14269:14292   */\n      swap1\n      pop\n        /* \"#utility.yul\":13991:14299   */\n      swap2\n      swap1\n      pop\n      jump\t// out\n        /* \"#utility.yul\":14305:14404   */\n    tag_181:\n        /* \"#utility.yul\":14357:14363   */\n      0x00\n        /* \"#utility.yul\":14391:14396   */\n      dup2\n        /* \"#utility.yul\":14385:14397   */\n      mload\n        /* \"#utility.yul\":14375:14397   */\n      swap1\n      pop\n        /* \"#utility.yul\":14305:14404   */\n      swap2\n      swap1\n      pop\n      jump\t// out\n        /* \"#utility.yul\":14410:14579   */\n    tag_183:\n        /* \"#utility.yul\":14494:14505   */\n      0x00\n        /* \"#utility.yul\":14528:14534   */\n      dup3\n        /* \"#utility.yul\":14523:14526   */\n      dup3\n        /* \"#utility.yul\":14516:14535   */\n      mstore\n        /* \"#utility.yul\":14568:14572   */\n      0x20\n        /* \"#utility.yul\":14563:14566   */\n      dup3\n        /* \"#utility.yul\":14559:14573   */\n      add\n        /* \"#utility.yul\":14544:14573   */\n      swap1\n      pop\n        /* \"#utility.yul\":14410:14579   */\n      swap3\n      swap2\n      pop\n      pop\n      jump\t// out\n        /* \"#utility.yul\":14585:14890   */\n    tag_80:\n        /* \"#utility.yul\":14625:14628   */\n      0x00\n        /* \"#utility.yul\":14644:14664   */\n      tag_299\n        /* \"#utility.yul\":14662:14663   */\n      dup3\n        /* \"#utility.yul\":14644:14664   */\n      tag_246\n      jump\t// in\n    tag_299:\n        /* \"#utility.yul\":14639:14664   */\n      swap2\n      pop\n        /* \"#utility.yul\":14678:14698   */\n      tag_300\n        /* \"#utility.yul\":14696:14697   */\n      dup4\n        /* \"#utility.yul\":14678:14698   */\n      tag_246\n      jump\t// in\n    tag_300:\n        /* \"#utility.yul\":14673:14698   */\n      swap3\n      pop\n        /* \"#utility.yul\":14832:14833   */\n      dup3\n        /* \"#utility.yul\":14764:14830   */\n      0xffffffffffffffffffffffffffffffffffffffffffffffffffffffffffffffff\n        /* \"#utility.yul\":14760:14834   */\n      sub\n        /* \"#utility.yul\":14757:14758   */\n      dup3\n        /* \"#utility.yul\":14754:14835   */\n      gt\n        /* \"#utility.yul\":14751:14858   */\n      iszero\n      tag_301\n      jumpi\n        /* \"#utility.yul\":14838:14856   */\n      tag_302\n      tag_303\n      jump\t// in\n    tag_302:\n        /* \"#utility.yul\":14751:14858   */\n    tag_301:\n        /* \"#utility.yul\":14882:14883   */\n      dup3\n        /* \"#utility.yul\":14879:14880   */\n      dup3\n        /* \"#utility.yul\":14875:14884   */\n      add\n        /* \"#utility.yul\":14868:14884   */\n      swap1\n      pop\n        /* \"#utility.yul\":14585:14890   */\n      swap3\n      swap2\n      pop\n      pop\n      jump\t// out\n        /* \"#utility.yul\":14896:15087   */\n    tag_84:\n        /* \"#utility.yul\":14936:14940   */\n      0x00\n        /* \"#utility.yul\":14956:14976   */\n      tag_305\n        /* \"#utility.yul\":14974:14975   */\n      dup3\n        /* \"#utility.yul\":14956:14976   */\n      tag_246\n      jump\t// in\n    tag_305:\n        /* \"#utility.yul\":14951:14976   */\n      swap2\n      pop\n        /* \"#utility.yul\":14990:15010   */\n      tag_306\n        /* \"#utility.yul\":15008:15009   */\n      dup4\n        /* \"#utility.yul\":14990:15010   */\n      tag_246\n      jump\t// in\n    tag_306:\n        /* \"#utility.yul\":14985:15010   */\n      swap3\n      pop\n        /* \"#utility.yul\":15029:15030   */\n      dup3\n        /* \"#utility.yul\":15026:15027   */\n      dup3\n        /* \"#utility.yul\":15023:15031   */\n      lt\n        /* \"#utility.yul\":15020:15054   */\n      iszero\n      tag_307\n      jumpi\n        /* \"#utility.yul\":15034:15052   */\n      tag_308\n      tag_303\n      jump\t// in\n    tag_308:\n        /* \"#utility.yul\":15020:15054   */\n    tag_307:\n        /* \"#utility.yul\":15079:15080   */\n      dup3\n        /* \"#utility.yul\":15076:15077   */\n      dup3\n        /* \"#utility.yul\":15072:15081   */\n      sub\n        /* \"#utility.yul\":15064:15081   */\n      swap1\n      pop\n        /* \"#utility.yul\":14896:15087   */\n      swap3\n      swap2\n      pop\n      pop\n      jump\t// out\n        /* \"#utility.yul\":15093:15189   */\n    tag_173:\n        /* \"#utility.yul\":15130:15137   */\n      0x00\n        /* \"#utility.yul\":15159:15183   */\n      tag_310\n        /* \"#utility.yul\":15177:15182   */\n      dup3\n        /* \"#utility.yul\":15159:15183   */\n      tag_311\n      jump\t// in\n    tag_310:\n        /* \"#utility.yul\":15148:15183   */\n      swap1\n      pop\n        /* \"#utility.yul\":15093:15189   */\n      swap2\n      swap1\n      pop\n      jump\t// out\n        /* \"#utility.yul\":15195:15285   */\n    tag_312:\n        /* \"#utility.yul\":15229:15236   */\n      0x00\n        /* \"#utility.yul\":15272:15277   */\n      dup2\n        /* \"#utility.yul\":15265:15278   */\n      iszero\n        /* \"#utility.yul\":15258:15279   */\n      iszero\n        /* \"#utility.yul\":15247:15279   */\n      swap1\n      pop\n        /* \"#utility.yul\":15195:15285   */\n      swap2\n      swap1\n      pop\n      jump\t// out\n        /* \"#utility.yul\":15291:15368   */\n    tag_177:\n        /* \"#utility.yul\":15328:15335   */\n      0x00\n        /* \"#utility.yul\":15357:15362   */\n      dup2\n        /* \"#utility.yul\":15346:15362   */\n      swap1\n      pop\n        /* \"#utility.yul\":15291:15368   */\n      swap2\n      swap1\n      pop\n      jump\t// out\n        /* \"#utility.yul\":15374:15500   */\n    tag_311:\n        /* \"#utility.yul\":15411:15418   */\n      0x00\n        /* \"#utility.yul\":15451:15493   */\n      0xffffffffffffffffffffffffffffffffffffffff\n        /* \"#utility.yul\":15444:15449   */\n      dup3\n        /* \"#utility.yul\":15440:15494   */\n      and\n        /* \"#utility.yul\":15429:15494   */\n      swap1\n      pop\n        /* \"#utility.yul\":15374:15500   */\n      swap2\n      swap1\n      pop\n      jump\t// out\n        /* \"#utility.yul\":15506:15583   */\n    tag_246:\n        /* \"#utility.yul\":15543:15550   */\n      0x00\n        /* \"#utility.yul\":15572:15577   */\n      dup2\n        /* \"#utility.yul\":15561:15577   */\n      swap1\n      pop\n        /* \"#utility.yul\":15506:15583   */\n      swap2\n      swap1\n      pop\n      jump\t// out\n        /* \"#utility.yul\":15589:15743   */\n    tag_131:\n        /* \"#utility.yul\":15673:15679   */\n      dup3\n        /* \"#utility.yul\":15668:15671   */\n      dup2\n        /* \"#utility.yul\":15663:15666   */\n      dup4\n        /* \"#utility.yul\":15650:15680   */\n      calldatacopy\n        /* \"#utility.yul\":15735:15736   */\n      0x00\n        /* \"#utility.yul\":15726:15732   */\n      dup4\n        /* \"#utility.yul\":15721:15724   */\n      dup4\n        /* \"#utility.yul\":15717:15733   */\n      add\n        /* \"#utility.yul\":15710:15737   */\n      mstore\n        /* \"#utility.yul\":15589:15743   */\n      pop\n      pop\n      pop\n      jump\t// out\n        /* \"#utility.yul\":15749:16056   */\n    tag_185:\n        /* \"#utility.yul\":15817:15818   */\n      0x00\n        /* \"#utility.yul\":15827:15940   */\n    tag_319:\n        /* \"#utility.yul\":15841:15847   */\n      dup4\n        /* \"#utility.yul\":15838:15839   */\n      dup2\n        /* \"#utility.yul\":15835:15848   */\n      lt\n        /* \"#utility.yul\":15827:15940   */\n      iszero\n      tag_321\n      jumpi\n        /* \"#utility.yul\":15926:15927   */\n      dup1\n        /* \"#utility.yul\":15921:15924   */\n      dup3\n        /* \"#utility.yul\":15917:15928   */\n      add\n        /* \"#utility.yul\":15911:15929   */\n      mload\n        /* \"#utility.yul\":15907:15908   */\n      dup2\n        /* \"#utility.yul\":15902:15905   */\n      dup5\n        /* \"#utility.yul\":15898:15909   */\n      add\n        /* \"#utility.yul\":15891:15930   */\n      mstore\n        /* \"#utility.yul\":15863:15865   */\n      0x20\n        /* \"#utility.yul\":15860:15861   */\n      dup2\n        /* \"#utility.yul\":15856:15866   */\n      add\n        /* \"#utility.yul\":15851:15866   */\n      swap1\n      pop\n        /* \"#utility.yul\":15827:15940   */\n      jump(tag_319)\n    tag_321:\n        /* \"#utility.yul\":15958:15964   */\n      dup4\n        /* \"#utility.yul\":15955:15956   */\n      dup2\n        /* \"#utility.yul\":15952:15965   */\n      gt\n        /* \"#utility.yul\":15949:16050   */\n      iszero\n      tag_322\n      jumpi\n        /* \"#utility.yul\":16038:16039   */\n      0x00\n        /* \"#utility.yul\":16029:16035   */\n      dup5\n        /* \"#utility.yul\":16024:16027   */\n      dup5\n        /* \"#utility.yul\":16020:16036   */\n      add\n        /* \"#utility.yul\":16013:16040   */\n      mstore\n        /* \"#utility.yul\":15949:16050   */\n    tag_322:\n        /* \"#utility.yul\":15798:16056   */\n      pop\n        /* \"#utility.yul\":15749:16056   */\n      pop\n      pop\n      pop\n      jump\t// out\n        /* \"#utility.yul\":16062:16343   */\n    tag_289:\n        /* \"#utility.yul\":16145:16172   */\n      tag_324\n        /* \"#utility.yul\":16167:16171   */\n      dup3\n        /* \"#utility.yul\":16145:16172   */\n      tag_187\n      jump\t// in\n    tag_324:\n        /* \"#utility.yul\":16137:16143   */\n      dup2\n        /* \"#utility.yul\":16133:16173   */\n      add\n        /* \"#utility.yul\":16275:16281   */\n      dup2\n        /* \"#utility.yul\":16263:16273   */\n      dup2\n        /* \"#utility.yul\":16260:16282   */\n      lt\n        /* \"#utility.yul\":16239:16257   */\n      0xffffffffffffffff\n        /* \"#utility.yul\":16227:16237   */\n      dup3\n        /* \"#utility.yul\":16224:16258   */\n      gt\n        /* \"#utility.yul\":16221:16283   */\n      or\n        /* \"#utility.yul\":16218:16306   */\n      iszero\n      tag_325\n      jumpi\n        /* \"#utility.yul\":16286:16304   */\n      tag_326\n      tag_294\n      jump\t// in\n    tag_326:\n        /* \"#utility.yul\":16218:16306   */\n    tag_325:\n        /* \"#utility.yul\":16326:16336   */\n      dup1\n        /* \"#utility.yul\":16322:16324   */\n      0x40\n        /* \"#utility.yul\":16315:16337   */\n      mstore\n        /* \"#utility.yul\":16105:16343   */\n      pop\n        /* \"#utility.yul\":16062:16343   */\n      pop\n      pop\n      jump\t// out\n        /* \"#utility.yul\":16349:16428   */\n    tag_251:\n        /* \"#utility.yul\":16388:16395   */\n      0x00\n        /* \"#utility.yul\":16417:16422   */\n      dup2\n        /* \"#utility.yul\":16406:16422   */\n      swap1\n      pop\n        /* \"#utility.yul\":16349:16428   */\n      swap2\n      swap1\n      pop\n      jump\t// out\n        /* \"#utility.yul\":16434:16610   */\n    tag_78:\n        /* \"#utility.yul\":16466:16467   */\n      0x00\n        /* \"#utility.yul\":16483:16503   */\n      tag_329\n        /* \"#utility.yul\":16501:16502   */\n      dup3\n        /* \"#utility.yul\":16483:16503   */\n      tag_246\n      jump\t// in\n    tag_329:\n        /* \"#utility.yul\":16478:16503   */\n      swap2\n      pop\n        /* \"#utility.yul\":16517:16537   */\n      tag_330\n        /* \"#utility.yul\":16535:16536   */\n      dup4\n        /* \"#utility.yul\":16517:16537   */\n      tag_246\n      jump\t// in\n    tag_330:\n        /* \"#utility.yul\":16512:16537   */\n      swap3\n      pop\n        /* \"#utility.yul\":16556:16557   */\n      dup3\n        /* \"#utility.yul\":16546:16581   */\n      tag_331\n      jumpi\n        /* \"#utility.yul\":16561:16579   */\n      tag_332\n      tag_333\n      jump\t// in\n    tag_332:\n        /* \"#utility.yul\":16546:16581   */\n    tag_331:\n        /* \"#utility.yul\":16602:16603   */\n      dup3\n        /* \"#utility.yul\":16599:16600   */\n      dup3\n        /* \"#utility.yul\":16595:16604   */\n      mod\n        /* \"#utility.yul\":16590:16604   */\n      swap1\n      pop\n        /* \"#utility.yul\":16434:16610   */\n      swap3\n      swap2\n      pop\n      pop\n      jump\t// out\n        /* \"#utility.yul\":16616:16796   */\n    tag_303:\n        /* \"#utility.yul\":16664:16741   */\n      0x4e487b7100000000000000000000000000000000000000000000000000000000\n        /* \"#utility.yul\":16661:16662   */\n      0x00\n        /* \"#utility.yul\":16654:16742   */\n      mstore\n        /* \"#utility.yul\":16761:16765   */\n      0x11\n        /* \"#utility.yul\":16758:16759   */\n      0x04\n        /* \"#utility.yul\":16751:16766   */\n      mstore\n        /* \"#utility.yul\":16785:16789   */\n      0x24\n        /* \"#utility.yul\":16782:16783   */\n      0x00\n        /* \"#utility.yul\":16775:16790   */\n      revert\n        /* \"#utility.yul\":16802:16982   */\n    tag_333:\n        /* \"#utility.yul\":16850:16927   */\n      0x4e487b7100000000000000000000000000000000000000000000000000000000\n        /* \"#utility.yul\":16847:16848   */\n      0x00\n        /* \"#utility.yul\":16840:16928   */\n      mstore\n        /* \"#utility.yul\":16947:16951   */\n      0x12\n        /* \"#utility.yul\":16944:16945   */\n      0x04\n        /* \"#utility.yul\":16937:16952   */\n      mstore\n        /* \"#utility.yul\":16971:16975   */\n      0x24\n        /* \"#utility.yul\":16968:16969   */\n      0x00\n        /* \"#utility.yul\":16961:16976   */\n      revert\n        /* \"#utility.yul\":16988:17168   */\n    tag_294:\n        /* \"#utility.yul\":17036:17113   */\n      0x4e487b7100000000000000000000000000000000000000000000000000000000\n        /* \"#utility.yul\":17033:17034   */\n      0x00\n        /* \"#utility.yul\":17026:17114   */\n      mstore\n        /* \"#utility.yul\":17133:17137   */\n      0x41\n        /* \"#utility.yul\":17130:17131   */\n      0x04\n        /* \"#utility.yul\":17123:17138   */\n      mstore\n        /* \"#utility.yul\":17157:17161   */\n      0x24\n        /* \"#utility.yul\":17154:17155   */\n      0x00\n        /* \"#utility.yul\":17147:17162   */\n      revert\n        /* \"#utility.yul\":17174:17291   */\n    tag_144:\n        /* \"#utility.yul\":17283:17284   */\n      0x00\n        /* \"#utility.yul\":17280:17281   */\n      dup1\n        /* \"#utility.yul\":17273:17285   */\n      revert\n        /* \"#utility.yul\":17297:17414   */\n    tag_129:\n        /* \"#utility.yul\":17406:17407   */\n      0x00\n        /* \"#utility.yul\":17403:17404   */\n      dup1\n        /* \"#utility.yul\":17396:17408   */\n      revert\n        /* \"#utility.yul\":17420:17537   */\n    tag_164:\n        /* \"#utility.yul\":17529:17530   */\n      0x00\n        /* \"#utility.yul\":17526:17527   */\n      dup1\n        /* \"#utility.yul\":17519:17531   */\n      revert\n        /* \"#utility.yul\":17543:17660   */\n    tag_153:\n        /* \"#utility.yul\":17652:17653   */\n      0x00\n        /* \"#utility.yul\":17649:17650   */\n      dup1\n        /* \"#utility.yul\":17642:17654   */\n      revert\n        /* \"#utility.yul\":17666:17768   */\n    tag_187:\n        /* \"#utility.yul\":17707:17713   */\n      0x00\n        /* \"#utility.yul\":17758:17760   */\n      0x1f\n        /* \"#utility.yul\":17754:17761   */\n      not\n        /* \"#utility.yul\":17749:17751   */\n      0x1f\n        /* \"#utility.yul\":17742:17747   */\n      dup4\n        /* \"#utility.yul\":17738:17752   */\n      add\n        /* \"#utility.yul\":17734:17762   */\n      and\n        /* \"#utility.yul\":17724:17762   */\n      swap1\n      pop\n        /* \"#utility.yul\":17666:17768   */\n      swap2\n      swap1\n      pop\n      jump\t// out\n        /* \"#utility.yul\":17774:17996   */\n    tag_192:\n        /* \"#utility.yul\":17914:17948   */\n      0x596f7520686173206265656e207265676973746572656420617320706c617965\n        /* \"#utility.yul\":17910:17911   */\n      0x00\n        /* \"#utility.yul\":17902:17908   */\n      dup3\n        /* \"#utility.yul\":17898:17912   */\n      add\n        /* \"#utility.yul\":17891:17949   */\n      mstore\n        /* \"#utility.yul\":17983:17988   */\n      0x7220410000000000000000000000000000000000000000000000000000000000\n        /* \"#utility.yul\":17978:17980   */\n      0x20\n        /* \"#utility.yul\":17970:17976   */\n      dup3\n        /* \"#utility.yul\":17966:17981   */\n      add\n        /* \"#utility.yul\":17959:17989   */\n      mstore\n        /* \"#utility.yul\":17774:17996   */\n      pop\n      jump\t// out\n        /* \"#utility.yul\":18002:18180   */\n    tag_197:\n        /* \"#utility.yul\":18142:18172   */\n      0x506c61796572204120686173206265656e207265676973746572656400000000\n        /* \"#utility.yul\":18138:18139   */\n      0x00\n        /* \"#utility.yul\":18130:18136   */\n      dup3\n        /* \"#utility.yul\":18126:18140   */\n      add\n        /* \"#utility.yul\":18119:18173   */\n      mstore\n        /* \"#utility.yul\":18002:18180   */\n      pop\n      jump\t// out\n        /* \"#utility.yul\":18186:18407   */\n    tag_202:\n        /* \"#utility.yul\":18326:18360   */\n      0x596f7520617265206e6f742072656769737465726564206173206120706c6179\n        /* \"#utility.yul\":18322:18323   */\n      0x00\n        /* \"#utility.yul\":18314:18320   */\n      dup3\n        /* \"#utility.yul\":18310:18324   */\n      add\n        /* \"#utility.yul\":18303:18361   */\n      mstore\n        /* \"#utility.yul\":18395:18399   */\n      0x6572000000000000000000000000000000000000000000000000000000000000\n        /* \"#utility.yul\":18390:18392   */\n      0x20\n        /* \"#utility.yul\":18382:18388   */\n      dup3\n        /* \"#utility.yul\":18378:18393   */\n      add\n        /* \"#utility.yul\":18371:18400   */\n      mstore\n        /* \"#utility.yul\":18186:18407   */\n      pop\n      jump\t// out\n        /* \"#utility.yul\":18413:18585   */\n    tag_207:\n        /* \"#utility.yul\":18553:18577   */\n      0x506c6179657242206e6f74207265676973746572656400000000000000000000\n        /* \"#utility.yul\":18549:18550   */\n      0x00\n        /* \"#utility.yul\":18541:18547   */\n      dup3\n        /* \"#utility.yul\":18537:18551   */\n      add\n        /* \"#utility.yul\":18530:18578   */\n      mstore\n        /* \"#utility.yul\":18413:18585   */\n      pop\n      jump\t// out\n        /* \"#utility.yul\":18591:18763   */\n    tag_212:\n        /* \"#utility.yul\":18731:18755   */\n      0x506c6179657241206e6f74207265676973746572656400000000000000000000\n        /* \"#utility.yul\":18727:18728   */\n      0x00\n        /* \"#utility.yul\":18719:18725   */\n      dup3\n        /* \"#utility.yul\":18715:18729   */\n      add\n        /* \"#utility.yul\":18708:18756   */\n      mstore\n        /* \"#utility.yul\":18591:18763   */\n      pop\n      jump\t// out\n        /* \"#utility.yul\":18769:19002   */\n    tag_217:\n        /* \"#utility.yul\":18909:18943   */\n      0x596f75206d7573742068617665206174206c6561737420332065746820746f20\n        /* \"#utility.yul\":18905:18906   */\n      0x00\n        /* \"#utility.yul\":18897:18903   */\n      dup3\n        /* \"#utility.yul\":18893:18907   */\n      add\n        /* \"#utility.yul\":18886:18944   */\n      mstore\n        /* \"#utility.yul\":18978:18994   */\n      0x7374617274207468652067616d65000000000000000000000000000000000000\n        /* \"#utility.yul\":18973:18975   */\n      0x20\n        /* \"#utility.yul\":18965:18971   */\n      dup3\n        /* \"#utility.yul\":18961:18976   */\n      add\n        /* \"#utility.yul\":18954:18995   */\n      mstore\n        /* \"#utility.yul\":18769:19002   */\n      pop\n      jump\t// out\n        /* \"#utility.yul\":19008:19186   */\n    tag_222:\n        /* \"#utility.yul\":19148:19178   */\n      0x706c6561736520656e74657220796f757220636f6d6d69746d656e7400000000\n        /* \"#utility.yul\":19144:19145   */\n      0x00\n        /* \"#utility.yul\":19136:19142   */\n      dup3\n        /* \"#utility.yul\":19132:19146   */\n      add\n        /* \"#utility.yul\":19125:19179   */\n      mstore\n        /* \"#utility.yul\":19008:19186   */\n      pop\n      jump\t// out\n        /* \"#utility.yul\":19192:19360   */\n    tag_227:\n        /* \"#utility.yul\":19332:19352   */\n      0x57726f6e67207365637265744e756d6265720000000000000000000000000000\n        /* \"#utility.yul\":19328:19329   */\n      0x00\n        /* \"#utility.yul\":19320:19326   */\n      dup3\n        /* \"#utility.yul\":19316:19330   */\n      add\n        /* \"#utility.yul\":19309:19353   */\n      mstore\n        /* \"#utility.yul\":19192:19360   */\n      pop\n      jump\t// out\n        /* \"#utility.yul\":19366:19594   */\n    tag_232:\n        /* \"#utility.yul\":19506:19540   */\n      0x47616d652063616e6e6f7420737461727420756e74696c20616c6c20706c6179\n        /* \"#utility.yul\":19502:19503   */\n      0x00\n        /* \"#utility.yul\":19494:19500   */\n      dup3\n        /* \"#utility.yul\":19490:19504   */\n      add\n        /* \"#utility.yul\":19483:19541   */\n      mstore\n        /* \"#utility.yul\":19575:19586   */\n      0x6572732072657365740000000000000000000000000000000000000000000000\n        /* \"#utility.yul\":19570:19572   */\n      0x20\n        /* \"#utility.yul\":19562:19568   */\n      dup3\n        /* \"#utility.yul\":19558:19573   */\n      add\n        /* \"#utility.yul\":19551:19587   */\n      mstore\n        /* \"#utility.yul\":19366:19594   */\n      pop\n      jump\t// out\n        /* \"#utility.yul\":19600:19822   */\n    tag_237:\n        /* \"#utility.yul\":19740:19774   */\n      0x596f7520686173206265656e207265676973746572656420617320706c617965\n        /* \"#utility.yul\":19736:19737   */\n      0x00\n        /* \"#utility.yul\":19728:19734   */\n      dup3\n        /* \"#utility.yul\":19724:19738   */\n      add\n        /* \"#utility.yul\":19717:19775   */\n      mstore\n        /* \"#utility.yul\":19809:19814   */\n      0x7220420000000000000000000000000000000000000000000000000000000000\n        /* \"#utility.yul\":19804:19806   */\n      0x20\n        /* \"#utility.yul\":19796:19802   */\n      dup3\n        /* \"#utility.yul\":19792:19807   */\n      add\n        /* \"#utility.yul\":19785:19815   */\n      mstore\n        /* \"#utility.yul\":19600:19822   */\n      pop\n      jump\t// out\n        /* \"#utility.yul\":19828:20006   */\n    tag_242:\n        /* \"#utility.yul\":19968:19998   */\n      0x506c61796572204220686173206265656e207265676973746572656400000000\n        /* \"#utility.yul\":19964:19965   */\n      0x00\n        /* \"#utility.yul\":19956:19962   */\n      dup3\n        /* \"#utility.yul\":19952:19966   */\n      add\n        /* \"#utility.yul\":19945:19999   */\n      mstore\n        /* \"#utility.yul\":19828:20006   */\n      pop\n      jump\t// out\n        /* \"#utility.yul\":20012:20128   */\n    tag_135:\n        /* \"#utility.yul\":20082:20103   */\n      tag_354\n        /* \"#utility.yul\":20097:20102   */\n      dup2\n        /* \"#utility.yul\":20082:20103   */\n      tag_312\n      jump\t// in\n    tag_354:\n        /* \"#utility.yul\":20075:20080   */\n      dup2\n        /* \"#utility.yul\":20072:20104   */\n      eq\n        /* \"#utility.yul\":20062:20122   */\n      tag_355\n      jumpi\n        /* \"#utility.yul\":20118:20119   */\n      0x00\n        /* \"#utility.yul\":20115:20116   */\n      dup1\n        /* \"#utility.yul\":20108:20120   */\n      revert\n        /* \"#utility.yul\":20062:20122   */\n    tag_355:\n        /* \"#utility.yul\":20012:20128   */\n      pop\n      jump\t// out\n        /* \"#utility.yul\":20134:20256   */\n    tag_139:\n        /* \"#utility.yul\":20207:20231   */\n      tag_357\n        /* \"#utility.yul\":20225:20230   */\n      dup2\n        /* \"#utility.yul\":20207:20231   */\n      tag_177\n      jump\t// in\n    tag_357:\n        /* \"#utility.yul\":20200:20205   */\n      dup2\n        /* \"#utility.yul\":20197:20232   */\n      eq\n        /* \"#utility.yul\":20187:20250   */\n      tag_358\n      jumpi\n        /* \"#utility.yul\":20246:20247   */\n      0x00\n        /* \"#utility.yul\":20243:20244   */\n      dup1\n        /* \"#utility.yul\":20236:20248   */\n      revert\n        /* \"#utility.yul\":20187:20250   */\n    tag_358:\n        /* \"#utility.yul\":20134:20256   */\n      pop\n      jump\t// out\n        /* \"#utility.yul\":20262:20384   */\n    tag_149:\n        /* \"#utility.yul\":20335:20359   */\n      tag_360\n        /* \"#utility.yul\":20353:20358   */\n      dup2\n        /* \"#utility.yul\":20335:20359   */\n      tag_246\n      jump\t// in\n    tag_360:\n        /* \"#utility.yul\":20328:20333   */\n      dup2\n        /* \"#utility.yul\":20325:20360   */\n      eq\n        /* \"#utility.yul\":20315:20378   */\n      tag_361\n      jumpi\n        /* \"#utility.yul\":20374:20375   */\n      0x00\n        /* \"#utility.yul\":20371:20372   */\n      dup1\n        /* \"#utility.yul\":20364:20376   */\n      revert\n        /* \"#utility.yul\":20315:20378   */\n    tag_361:\n        /* \"#utility.yul\":20262:20384   */\n      pop\n      jump\t// out\n\n    auxdata: 0xa264697066735822122093c8055d5d78dfa24114d5dc183b273228432e98931d2ccd8bd5862d9af5529a64736f6c63430008070033\n}\n",
				"bytecode": {
					"linkReferences": {},
					"object": "6080604052600060055534801561001557600080fd5b50611ccc806100256000396000f3fe6080604052600436106100705760003560e01c8063401651941161004e578063401651941461011857806382022a8714610141578063a26e11861461016a578063de2927891461018657610070565b8063134ee552146100755780631f7b4f301461009e57806324287504146100db575b600080fd5b34801561008157600080fd5b5061009c60048036038101906100979190611285565b6101b1565b005b3480156100aa57600080fd5b506100c560048036038101906100c091906112fb565b6103d8565b6040516100d29190611707565b60405180910390f35b3480156100e757600080fd5b5061010260048036038101906100fd91906112fb565b6109f4565b60405161010f919061158c565b60405180910390f35b34801561012457600080fd5b5061013f600480360381019061013a9190611258565b610a24565b005b34801561014d57600080fd5b5061016860048036038101906101639190611285565b610dc3565b005b610184600480360381019061017f91906112b2565b610fea565b005b34801561019257600080fd5b5061019b611163565b6040516101a89190611707565b60405180910390f35b6000801b8114156101f7576040517f08c379a00000000000000000000000000000000000000000000000000000000081526004016101ee90611667565b60405180910390fd5b600073ffffffffffffffffffffffffffffffffffffffff16600360009054906101000a900473ffffffffffffffffffffffffffffffffffffffff1673ffffffffffffffffffffffffffffffffffffffff1614610288576040517f08c379a000000000000000000000000000000000000000000000000000000000815260040161027f906115c7565b60405180910390fd5b3373ffffffffffffffffffffffffffffffffffffffff16600460009054906101000a900473ffffffffffffffffffffffffffffffffffffffff1673ffffffffffffffffffffffffffffffffffffffff161415610319576040517f08c379a0000000000000000000000000000000000000000000000000000000008152600401610310906116c7565b60405180910390fd5b33600360006101000a81548173ffffffffffffffffffffffffffffffffffffffff021916908373ffffffffffffffffffffffffffffffffffffffff16021790555080600160003373ffffffffffffffffffffffffffffffffffffffff1673ffffffffffffffffffffffffffffffffffffffff168152602001908152602001600020819055507f478f5152d8fc568db3f8de9fb402fd9d98a1a7541ecfe434e59cf574fbfc5524336040516103cd9190611541565b60405180910390a150565b60006729a2241af62c00006000803373ffffffffffffffffffffffffffffffffffffffff1673ffffffffffffffffffffffffffffffffffffffff1681526020019081526020016000205411610462576040517f08c379a000000000000000000000000000000000000000000000000000000000815260040161045990611647565b60405180910390fd5b61046b826109f4565b600160003373ffffffffffffffffffffffffffffffffffffffff1673ffffffffffffffffffffffffffffffffffffffff16815260200190815260200160002054146104eb576040517f08c379a00000000000000000000000000000000000000000000000000000000081526004016104e290611687565b60405180910390fd5b600073ffffffffffffffffffffffffffffffffffffffff16600360009054906101000a900473ffffffffffffffffffffffffffffffffffffffff1673ffffffffffffffffffffffffffffffffffffffff16141561057d576040517f08c379a000000000000000000000000000000000000000000000000000000000815260040161057490611627565b60405180910390fd5b600073ffffffffffffffffffffffffffffffffffffffff16600460009054906101000a900473ffffffffffffffffffffffffffffffffffffffff1673ffffffffffffffffffffffffffffffffffffffff16141561060f576040517f08c379a000000000000000000000000000000000000000000000000000000000815260040161060690611607565b60405180910390fd5b7fb682b75453cfd68407d152acdf75c3ae0088182f59191a7006c09071adad76a36005546040516106409190611707565b60405180910390a160006005541461068d576040517f08c379a0000000000000000000000000000000000000000000000000000000008152600401610684906116a7565b60405180910390fd5b81600260003373ffffffffffffffffffffffffffffffffffffffff1673ffffffffffffffffffffffffffffffffffffffff16815260200190815260200160002081905550600660026000600460009054906101000a900473ffffffffffffffffffffffffffffffffffffffff1673ffffffffffffffffffffffffffffffffffffffff1673ffffffffffffffffffffffffffffffffffffffff1681526020019081526020016000205460026000600360009054906101000a900473ffffffffffffffffffffffffffffffffffffffff1673ffffffffffffffffffffffffffffffffffffffff1673ffffffffffffffffffffffffffffffffffffffff16815260200190815260200160002054186040516020016107a89190611526565b6040516020818303038152906040528051906020012060001c6107cb91906118ed565b60016107d79190611794565b600581905550600460055410156108df57600554600080600360009054906101000a900473ffffffffffffffffffffffffffffffffffffffff1673ffffffffffffffffffffffffffffffffffffffff1673ffffffffffffffffffffffffffffffffffffffff168152602001908152602001600020600082825461085a9190611794565b92505081905550600554600080600460009054906101000a900473ffffffffffffffffffffffffffffffffffffffff1673ffffffffffffffffffffffffffffffffffffffff1673ffffffffffffffffffffffffffffffffffffffff16815260200190815260200160002060008282546108d391906117ea565b925050819055506109ea565b60036005546108ee91906117ea565b600080600360009054906101000a900473ffffffffffffffffffffffffffffffffffffffff1673ffffffffffffffffffffffffffffffffffffffff1673ffffffffffffffffffffffffffffffffffffffff168152602001908152602001600020600082825461095d91906117ea565b92505081905550600360055461097391906117ea565b600080600460009054906101000a900473ffffffffffffffffffffffffffffffffffffffff1673ffffffffffffffffffffffffffffffffffffffff1673ffffffffffffffffffffffffffffffffffffffff16815260200190815260200160002060008282546109e29190611794565b925050819055505b6005549050919050565b600081604051602001610a079190611526565b604051602081830303815290604052805190602001209050919050565b600360009054906101000a900473ffffffffffffffffffffffffffffffffffffffff1673ffffffffffffffffffffffffffffffffffffffff163373ffffffffffffffffffffffffffffffffffffffff161415610b28576000600360006101000a81548173ffffffffffffffffffffffffffffffffffffffff021916908373ffffffffffffffffffffffffffffffffffffffff160217905550600060026000600360009054906101000a900473ffffffffffffffffffffffffffffffffffffffff1673ffffffffffffffffffffffffffffffffffffffff1673ffffffffffffffffffffffffffffffffffffffff16815260200190815260200160002081905550610c29565b600460009054906101000a900473ffffffffffffffffffffffffffffffffffffffff1673ffffffffffffffffffffffffffffffffffffffff163373ffffffffffffffffffffffffffffffffffffffff161415610c28576000600460006101000a81548173ffffffffffffffffffffffffffffffffffffffff021916908373ffffffffffffffffffffffffffffffffffffffff160217905550600060026000600460009054906101000a900473ffffffffffffffffffffffffffffffffffffffff1673ffffffffffffffffffffffffffffffffffffffff1673ffffffffffffffffffffffffffffffffffffffff168152602001908152602001600020819055505b5b600073ffffffffffffffffffffffffffffffffffffffff16600360009054906101000a900473ffffffffffffffffffffffffffffffffffffffff1673ffffffffffffffffffffffffffffffffffffffff16148015610cd55750600073ffffffffffffffffffffffffffffffffffffffff16600460009054906101000a900473ffffffffffffffffffffffffffffffffffffffff1673ffffffffffffffffffffffffffffffffffffffff16145b15610ce35760006005819055505b600115158115151415610dc05760008060003373ffffffffffffffffffffffffffffffffffffffff1673ffffffffffffffffffffffffffffffffffffffff16815260200190815260200160002054905060008060003373ffffffffffffffffffffffffffffffffffffffff1673ffffffffffffffffffffffffffffffffffffffff168152602001908152602001600020819055503373ffffffffffffffffffffffffffffffffffffffff166108fc829081150290604051600060405180830381858888f19350505050158015610dbd573d6000803e3d6000fd5b50505b50565b6000801b811415610e09576040517f08c379a0000000000000000000000000000000000000000000000000000000008152600401610e0090611667565b60405180910390fd5b600073ffffffffffffffffffffffffffffffffffffffff16600460009054906101000a900473ffffffffffffffffffffffffffffffffffffffff1673ffffffffffffffffffffffffffffffffffffffff1614610e9a576040517f08c379a0000000000000000000000000000000000000000000000000000000008152600401610e91906116e7565b60405180910390fd5b3373ffffffffffffffffffffffffffffffffffffffff16600360009054906101000a900473ffffffffffffffffffffffffffffffffffffffff1673ffffffffffffffffffffffffffffffffffffffff161415610f2b576040517f08c379a0000000000000000000000000000000000000000000000000000000008152600401610f22906115a7565b60405180910390fd5b33600460006101000a81548173ffffffffffffffffffffffffffffffffffffffff021916908373ffffffffffffffffffffffffffffffffffffffff16021790555080600160003373ffffffffffffffffffffffffffffffffffffffff1673ffffffffffffffffffffffffffffffffffffffff168152602001908152602001600020819055507f478f5152d8fc568db3f8de9fb402fd9d98a1a7541ecfe434e59cf574fbfc552433604051610fdf9190611541565b60405180910390a150565b3373ffffffffffffffffffffffffffffffffffffffff16600360009054906101000a900473ffffffffffffffffffffffffffffffffffffffff1673ffffffffffffffffffffffffffffffffffffffff16148061109357503373ffffffffffffffffffffffffffffffffffffffff16600460009054906101000a900473ffffffffffffffffffffffffffffffffffffffff1673ffffffffffffffffffffffffffffffffffffffff16145b6110d2576040517f08c379a00000000000000000000000000000000000000000000000000000000081526004016110c9906115e7565b60405180910390fd5b346000803373ffffffffffffffffffffffffffffffffffffffff1673ffffffffffffffffffffffffffffffffffffffff16815260200190815260200160002060008282546111209190611794565b925050819055507f68a331f033c1e5ce4f6a0fc484b20cb8368bf28a77b6468a762241c0fc202d67338260405161115892919061155c565b60405180910390a150565b60008060003373ffffffffffffffffffffffffffffffffffffffff1673ffffffffffffffffffffffffffffffffffffffff16815260200190815260200160002054905090565b60006111bc6111b784611747565b611722565b9050828152602081018484840111156111d8576111d76119b0565b5b6111e3848285611870565b509392505050565b6000813590506111fa81611c51565b92915050565b60008135905061120f81611c68565b92915050565b600082601f83011261122a576112296119ab565b5b813561123a8482602086016111a9565b91505092915050565b60008135905061125281611c7f565b92915050565b60006020828403121561126e5761126d6119ba565b5b600061127c848285016111eb565b91505092915050565b60006020828403121561129b5761129a6119ba565b5b60006112a984828501611200565b91505092915050565b6000602082840312156112c8576112c76119ba565b5b600082013567ffffffffffffffff8111156112e6576112e56119b5565b5b6112f284828501611215565b91505092915050565b600060208284031215611311576113106119ba565b5b600061131f84828501611243565b91505092915050565b6113318161181e565b82525050565b6113408161183c565b82525050565b600061135182611778565b61135b8185611783565b935061136b81856020860161187f565b611374816119bf565b840191505092915050565b600061138c602383611783565b9150611397826119d0565b604082019050919050565b60006113af601c83611783565b91506113ba82611a1f565b602082019050919050565b60006113d2602283611783565b91506113dd82611a48565b604082019050919050565b60006113f5601683611783565b915061140082611a97565b602082019050919050565b6000611418601683611783565b915061142382611ac0565b602082019050919050565b600061143b602e83611783565b915061144682611ae9565b604082019050919050565b600061145e601c83611783565b915061146982611b38565b602082019050919050565b6000611481601283611783565b915061148c82611b61565b602082019050919050565b60006114a4602983611783565b91506114af82611b8a565b604082019050919050565b60006114c7602383611783565b91506114d282611bd9565b604082019050919050565b60006114ea601c83611783565b91506114f582611c28565b602082019050919050565b61150981611866565b82525050565b61152061151b82611866565b6118e3565b82525050565b6000611532828461150f565b60208201915081905092915050565b60006020820190506115566000830184611328565b92915050565b60006040820190506115716000830185611328565b81810360208301526115838184611346565b90509392505050565b60006020820190506115a16000830184611337565b92915050565b600060208201905081810360008301526115c08161137f565b9050919050565b600060208201905081810360008301526115e0816113a2565b9050919050565b60006020820190508181036000830152611600816113c5565b9050919050565b60006020820190508181036000830152611620816113e8565b9050919050565b600060208201905081810360008301526116408161140b565b9050919050565b600060208201905081810360008301526116608161142e565b9050919050565b6000602082019050818103600083015261168081611451565b9050919050565b600060208201905081810360008301526116a081611474565b9050919050565b600060208201905081810360008301526116c081611497565b9050919050565b600060208201905081810360008301526116e0816114ba565b9050919050565b60006020820190508181036000830152611700816114dd565b9050919050565b600060208201905061171c6000830184611500565b92915050565b600061172c61173d565b905061173882826118b2565b919050565b6000604051905090565b600067ffffffffffffffff8211156117625761176161197c565b5b61176b826119bf565b9050602081019050919050565b600081519050919050565b600082825260208201905092915050565b600061179f82611866565b91506117aa83611866565b9250827fffffffffffffffffffffffffffffffffffffffffffffffffffffffffffffffff038211156117df576117de61191e565b5b828201905092915050565b60006117f582611866565b915061180083611866565b9250828210156118135761181261191e565b5b828203905092915050565b600061182982611846565b9050919050565b60008115159050919050565b6000819050919050565b600073ffffffffffffffffffffffffffffffffffffffff82169050919050565b6000819050919050565b82818337600083830152505050565b60005b8381101561189d578082015181840152602081019050611882565b838111156118ac576000848401525b50505050565b6118bb826119bf565b810181811067ffffffffffffffff821117156118da576118d961197c565b5b80604052505050565b6000819050919050565b60006118f882611866565b915061190383611866565b9250826119135761191261194d565b5b828206905092915050565b7f4e487b7100000000000000000000000000000000000000000000000000000000600052601160045260246000fd5b7f4e487b7100000000000000000000000000000000000000000000000000000000600052601260045260246000fd5b7f4e487b7100000000000000000000000000000000000000000000000000000000600052604160045260246000fd5b600080fd5b600080fd5b600080fd5b600080fd5b6000601f19601f8301169050919050565b7f596f7520686173206265656e207265676973746572656420617320706c61796560008201527f7220410000000000000000000000000000000000000000000000000000000000602082015250565b7f506c61796572204120686173206265656e207265676973746572656400000000600082015250565b7f596f7520617265206e6f742072656769737465726564206173206120706c617960008201527f6572000000000000000000000000000000000000000000000000000000000000602082015250565b7f506c6179657242206e6f74207265676973746572656400000000000000000000600082015250565b7f506c6179657241206e6f74207265676973746572656400000000000000000000600082015250565b7f596f75206d7573742068617665206174206c6561737420332065746820746f2060008201527f7374617274207468652067616d65000000000000000000000000000000000000602082015250565b7f706c6561736520656e74657220796f757220636f6d6d69746d656e7400000000600082015250565b7f57726f6e67207365637265744e756d6265720000000000000000000000000000600082015250565b7f47616d652063616e6e6f7420737461727420756e74696c20616c6c20706c617960008201527f6572732072657365740000000000000000000000000000000000000000000000602082015250565b7f596f7520686173206265656e207265676973746572656420617320706c61796560008201527f7220420000000000000000000000000000000000000000000000000000000000602082015250565b7f506c61796572204220686173206265656e207265676973746572656400000000600082015250565b611c5a81611830565b8114611c6557600080fd5b50565b611c718161183c565b8114611c7c57600080fd5b50565b611c8881611866565b8114611c9357600080fd5b5056fea264697066735822122093c8055d5d78dfa24114d5dc183b273228432e98931d2ccd8bd5862d9af5529a64736f6c63430008070033",
					"opcodes": "PUSH1 0x80 PUSH1 0x40 MSTORE PUSH1 0x0 PUSH1 0x5 SSTORE CALLVALUE DUP1 ISZERO PUSH2 0x15 JUMPI PUSH1 0x0 DUP1 REVERT JUMPDEST POP PUSH2 0x1CCC DUP1 PUSH2 0x25 PUSH1 0x0 CODECOPY PUSH1 0x0 RETURN INVALID PUSH1 0x80 PUSH1 0x40 MSTORE PUSH1 0x4 CALLDATASIZE LT PUSH2 0x70 JUMPI PUSH1 0x0 CALLDATALOAD PUSH1 0xE0 SHR DUP1 PUSH4 0x40165194 GT PUSH2 0x4E JUMPI DUP1 PUSH4 0x40165194 EQ PUSH2 0x118 JUMPI DUP1 PUSH4 0x82022A87 EQ PUSH2 0x141 JUMPI DUP1 PUSH4 0xA26E1186 EQ PUSH2 0x16A JUMPI DUP1 PUSH4 0xDE292789 EQ PUSH2 0x186 JUMPI PUSH2 0x70 JUMP JUMPDEST DUP1 PUSH4 0x134EE552 EQ PUSH2 0x75 JUMPI DUP1 PUSH4 0x1F7B4F30 EQ PUSH2 0x9E JUMPI DUP1 PUSH4 0x24287504 EQ PUSH2 0xDB JUMPI JUMPDEST PUSH1 0x0 DUP1 REVERT JUMPDEST CALLVALUE DUP1 ISZERO PUSH2 0x81 JUMPI PUSH1 0x0 DUP1 REVERT JUMPDEST POP PUSH2 0x9C PUSH1 0x4 DUP1 CALLDATASIZE SUB DUP2 ADD SWAP1 PUSH2 0x97 SWAP2 SWAP1 PUSH2 0x1285 JUMP JUMPDEST PUSH2 0x1B1 JUMP JUMPDEST STOP JUMPDEST CALLVALUE DUP1 ISZERO PUSH2 0xAA JUMPI PUSH1 0x0 DUP1 REVERT JUMPDEST POP PUSH2 0xC5 PUSH1 0x4 DUP1 CALLDATASIZE SUB DUP2 ADD SWAP1 PUSH2 0xC0 SWAP2 SWAP1 PUSH2 0x12FB JUMP JUMPDEST PUSH2 0x3D8 JUMP JUMPDEST PUSH1 0x40 MLOAD PUSH2 0xD2 SWAP2 SWAP1 PUSH2 0x1707 JUMP JUMPDEST PUSH1 0x40 MLOAD DUP1 SWAP2 SUB SWAP1 RETURN JUMPDEST CALLVALUE DUP1 ISZERO PUSH2 0xE7 JUMPI PUSH1 0x0 DUP1 REVERT JUMPDEST POP PUSH2 0x102 PUSH1 0x4 DUP1 CALLDATASIZE SUB DUP2 ADD SWAP1 PUSH2 0xFD SWAP2 SWAP1 PUSH2 0x12FB JUMP JUMPDEST PUSH2 0x9F4 JUMP JUMPDEST PUSH1 0x40 MLOAD PUSH2 0x10F SWAP2 SWAP1 PUSH2 0x158C JUMP JUMPDEST PUSH1 0x40 MLOAD DUP1 SWAP2 SUB SWAP1 RETURN JUMPDEST CALLVALUE DUP1 ISZERO PUSH2 0x124 JUMPI PUSH1 0x0 DUP1 REVERT JUMPDEST POP PUSH2 0x13F PUSH1 0x4 DUP1 CALLDATASIZE SUB DUP2 ADD SWAP1 PUSH2 0x13A SWAP2 SWAP1 PUSH2 0x1258 JUMP JUMPDEST PUSH2 0xA24 JUMP JUMPDEST STOP JUMPDEST CALLVALUE DUP1 ISZERO PUSH2 0x14D JUMPI PUSH1 0x0 DUP1 REVERT JUMPDEST POP PUSH2 0x168 PUSH1 0x4 DUP1 CALLDATASIZE SUB DUP2 ADD SWAP1 PUSH2 0x163 SWAP2 SWAP1 PUSH2 0x1285 JUMP JUMPDEST PUSH2 0xDC3 JUMP JUMPDEST STOP JUMPDEST PUSH2 0x184 PUSH1 0x4 DUP1 CALLDATASIZE SUB DUP2 ADD SWAP1 PUSH2 0x17F SWAP2 SWAP1 PUSH2 0x12B2 JUMP JUMPDEST PUSH2 0xFEA JUMP JUMPDEST STOP JUMPDEST CALLVALUE DUP1 ISZERO PUSH2 0x192 JUMPI PUSH1 0x0 DUP1 REVERT JUMPDEST POP PUSH2 0x19B PUSH2 0x1163 JUMP JUMPDEST PUSH1 0x40 MLOAD PUSH2 0x1A8 SWAP2 SWAP1 PUSH2 0x1707 JUMP JUMPDEST PUSH1 0x40 MLOAD DUP1 SWAP2 SUB SWAP1 RETURN JUMPDEST PUSH1 0x0 DUP1 SHL DUP2 EQ ISZERO PUSH2 0x1F7 JUMPI PUSH1 0x40 MLOAD PUSH32 0x8C379A000000000000000000000000000000000000000000000000000000000 DUP2 MSTORE PUSH1 0x4 ADD PUSH2 0x1EE SWAP1 PUSH2 0x1667 JUMP JUMPDEST PUSH1 0x40 MLOAD DUP1 SWAP2 SUB SWAP1 REVERT JUMPDEST PUSH1 0x0 PUSH20 0xFFFFFFFFFFFFFFFFFFFFFFFFFFFFFFFFFFFFFFFF AND PUSH1 0x3 PUSH1 0x0 SWAP1 SLOAD SWAP1 PUSH2 0x100 EXP SWAP1 DIV PUSH20 0xFFFFFFFFFFFFFFFFFFFFFFFFFFFFFFFFFFFFFFFF AND PUSH20 0xFFFFFFFFFFFFFFFFFFFFFFFFFFFFFFFFFFFFFFFF AND EQ PUSH2 0x288 JUMPI PUSH1 0x40 MLOAD PUSH32 0x8C379A000000000000000000000000000000000000000000000000000000000 DUP2 MSTORE PUSH1 0x4 ADD PUSH2 0x27F SWAP1 PUSH2 0x15C7 JUMP JUMPDEST PUSH1 0x40 MLOAD DUP1 SWAP2 SUB SWAP1 REVERT JUMPDEST CALLER PUSH20 0xFFFFFFFFFFFFFFFFFFFFFFFFFFFFFFFFFFFFFFFF AND PUSH1 0x4 PUSH1 0x0 SWAP1 SLOAD SWAP1 PUSH2 0x100 EXP SWAP1 DIV PUSH20 0xFFFFFFFFFFFFFFFFFFFFFFFFFFFFFFFFFFFFFFFF AND PUSH20 0xFFFFFFFFFFFFFFFFFFFFFFFFFFFFFFFFFFFFFFFF AND EQ ISZERO PUSH2 0x319 JUMPI PUSH1 0x40 MLOAD PUSH32 0x8C379A000000000000000000000000000000000000000000000000000000000 DUP2 MSTORE PUSH1 0x4 ADD PUSH2 0x310 SWAP1 PUSH2 0x16C7 JUMP JUMPDEST PUSH1 0x40 MLOAD DUP1 SWAP2 SUB SWAP1 REVERT JUMPDEST CALLER PUSH1 0x3 PUSH1 0x0 PUSH2 0x100 EXP DUP2 SLOAD DUP2 PUSH20 0xFFFFFFFFFFFFFFFFFFFFFFFFFFFFFFFFFFFFFFFF MUL NOT AND SWAP1 DUP4 PUSH20 0xFFFFFFFFFFFFFFFFFFFFFFFFFFFFFFFFFFFFFFFF AND MUL OR SWAP1 SSTORE POP DUP1 PUSH1 0x1 PUSH1 0x0 CALLER PUSH20 0xFFFFFFFFFFFFFFFFFFFFFFFFFFFFFFFFFFFFFFFF AND PUSH20 0xFFFFFFFFFFFFFFFFFFFFFFFFFFFFFFFFFFFFFFFF AND DUP2 MSTORE PUSH1 0x20 ADD SWAP1 DUP2 MSTORE PUSH1 0x20 ADD PUSH1 0x0 KECCAK256 DUP2 SWAP1 SSTORE POP PUSH32 0x478F5152D8FC568DB3F8DE9FB402FD9D98A1A7541ECFE434E59CF574FBFC5524 CALLER PUSH1 0x40 MLOAD PUSH2 0x3CD SWAP2 SWAP1 PUSH2 0x1541 JUMP JUMPDEST PUSH1 0x40 MLOAD DUP1 SWAP2 SUB SWAP1 LOG1 POP JUMP JUMPDEST PUSH1 0x0 PUSH8 0x29A2241AF62C0000 PUSH1 0x0 DUP1 CALLER PUSH20 0xFFFFFFFFFFFFFFFFFFFFFFFFFFFFFFFFFFFFFFFF AND PUSH20 0xFFFFFFFFFFFFFFFFFFFFFFFFFFFFFFFFFFFFFFFF AND DUP2 MSTORE PUSH1 0x20 ADD SWAP1 DUP2 MSTORE PUSH1 0x20 ADD PUSH1 0x0 KECCAK256 SLOAD GT PUSH2 0x462 JUMPI PUSH1 0x40 MLOAD PUSH32 0x8C379A000000000000000000000000000000000000000000000000000000000 DUP2 MSTORE PUSH1 0x4 ADD PUSH2 0x459 SWAP1 PUSH2 0x1647 JUMP JUMPDEST PUSH1 0x40 MLOAD DUP1 SWAP2 SUB SWAP1 REVERT JUMPDEST PUSH2 0x46B DUP3 PUSH2 0x9F4 JUMP JUMPDEST PUSH1 0x1 PUSH1 0x0 CALLER PUSH20 0xFFFFFFFFFFFFFFFFFFFFFFFFFFFFFFFFFFFFFFFF AND PUSH20 0xFFFFFFFFFFFFFFFFFFFFFFFFFFFFFFFFFFFFFFFF AND DUP2 MSTORE PUSH1 0x20 ADD SWAP1 DUP2 MSTORE PUSH1 0x20 ADD PUSH1 0x0 KECCAK256 SLOAD EQ PUSH2 0x4EB JUMPI PUSH1 0x40 MLOAD PUSH32 0x8C379A000000000000000000000000000000000000000000000000000000000 DUP2 MSTORE PUSH1 0x4 ADD PUSH2 0x4E2 SWAP1 PUSH2 0x1687 JUMP JUMPDEST PUSH1 0x40 MLOAD DUP1 SWAP2 SUB SWAP1 REVERT JUMPDEST PUSH1 0x0 PUSH20 0xFFFFFFFFFFFFFFFFFFFFFFFFFFFFFFFFFFFFFFFF AND PUSH1 0x3 PUSH1 0x0 SWAP1 SLOAD SWAP1 PUSH2 0x100 EXP SWAP1 DIV PUSH20 0xFFFFFFFFFFFFFFFFFFFFFFFFFFFFFFFFFFFFFFFF AND PUSH20 0xFFFFFFFFFFFFFFFFFFFFFFFFFFFFFFFFFFFFFFFF AND EQ ISZERO PUSH2 0x57D JUMPI PUSH1 0x40 MLOAD PUSH32 0x8C379A000000000000000000000000000000000000000000000000000000000 DUP2 MSTORE PUSH1 0x4 ADD PUSH2 0x574 SWAP1 PUSH2 0x1627 JUMP JUMPDEST PUSH1 0x40 MLOAD DUP1 SWAP2 SUB SWAP1 REVERT JUMPDEST PUSH1 0x0 PUSH20 0xFFFFFFFFFFFFFFFFFFFFFFFFFFFFFFFFFFFFFFFF AND PUSH1 0x4 PUSH1 0x0 SWAP1 SLOAD SWAP1 PUSH2 0x100 EXP SWAP1 DIV PUSH20 0xFFFFFFFFFFFFFFFFFFFFFFFFFFFFFFFFFFFFFFFF AND PUSH20 0xFFFFFFFFFFFFFFFFFFFFFFFFFFFFFFFFFFFFFFFF AND EQ ISZERO PUSH2 0x60F JUMPI PUSH1 0x40 MLOAD PUSH32 0x8C379A000000000000000000000000000000000000000000000000000000000 DUP2 MSTORE PUSH1 0x4 ADD PUSH2 0x606 SWAP1 PUSH2 0x1607 JUMP JUMPDEST PUSH1 0x40 MLOAD DUP1 SWAP2 SUB SWAP1 REVERT JUMPDEST PUSH32 0xB682B75453CFD68407D152ACDF75C3AE0088182F59191A7006C09071ADAD76A3 PUSH1 0x5 SLOAD PUSH1 0x40 MLOAD PUSH2 0x640 SWAP2 SWAP1 PUSH2 0x1707 JUMP JUMPDEST PUSH1 0x40 MLOAD DUP1 SWAP2 SUB SWAP1 LOG1 PUSH1 0x0 PUSH1 0x5 SLOAD EQ PUSH2 0x68D JUMPI PUSH1 0x40 MLOAD PUSH32 0x8C379A000000000000000000000000000000000000000000000000000000000 DUP2 MSTORE PUSH1 0x4 ADD PUSH2 0x684 SWAP1 PUSH2 0x16A7 JUMP JUMPDEST PUSH1 0x40 MLOAD DUP1 SWAP2 SUB SWAP1 REVERT JUMPDEST DUP2 PUSH1 0x2 PUSH1 0x0 CALLER PUSH20 0xFFFFFFFFFFFFFFFFFFFFFFFFFFFFFFFFFFFFFFFF AND PUSH20 0xFFFFFFFFFFFFFFFFFFFFFFFFFFFFFFFFFFFFFFFF AND DUP2 MSTORE PUSH1 0x20 ADD SWAP1 DUP2 MSTORE PUSH1 0x20 ADD PUSH1 0x0 KECCAK256 DUP2 SWAP1 SSTORE POP PUSH1 0x6 PUSH1 0x2 PUSH1 0x0 PUSH1 0x4 PUSH1 0x0 SWAP1 SLOAD SWAP1 PUSH2 0x100 EXP SWAP1 DIV PUSH20 0xFFFFFFFFFFFFFFFFFFFFFFFFFFFFFFFFFFFFFFFF AND PUSH20 0xFFFFFFFFFFFFFFFFFFFFFFFFFFFFFFFFFFFFFFFF AND PUSH20 0xFFFFFFFFFFFFFFFFFFFFFFFFFFFFFFFFFFFFFFFF AND DUP2 MSTORE PUSH1 0x20 ADD SWAP1 DUP2 MSTORE PUSH1 0x20 ADD PUSH1 0x0 KECCAK256 SLOAD PUSH1 0x2 PUSH1 0x0 PUSH1 0x3 PUSH1 0x0 SWAP1 SLOAD SWAP1 PUSH2 0x100 EXP SWAP1 DIV PUSH20 0xFFFFFFFFFFFFFFFFFFFFFFFFFFFFFFFFFFFFFFFF AND PUSH20 0xFFFFFFFFFFFFFFFFFFFFFFFFFFFFFFFFFFFFFFFF AND PUSH20 0xFFFFFFFFFFFFFFFFFFFFFFFFFFFFFFFFFFFFFFFF AND DUP2 MSTORE PUSH1 0x20 ADD SWAP1 DUP2 MSTORE PUSH1 0x20 ADD PUSH1 0x0 KECCAK256 SLOAD XOR PUSH1 0x40 MLOAD PUSH1 0x20 ADD PUSH2 0x7A8 SWAP2 SWAP1 PUSH2 0x1526 JUMP JUMPDEST PUSH1 0x40 MLOAD PUSH1 0x20 DUP2 DUP4 SUB SUB DUP2 MSTORE SWAP1 PUSH1 0x40 MSTORE DUP1 MLOAD SWAP1 PUSH1 0x20 ADD KECCAK256 PUSH1 0x0 SHR PUSH2 0x7CB SWAP2 SWAP1 PUSH2 0x18ED JUMP JUMPDEST PUSH1 0x1 PUSH2 0x7D7 SWAP2 SWAP1 PUSH2 0x1794 JUMP JUMPDEST PUSH1 0x5 DUP2 SWAP1 SSTORE POP PUSH1 0x4 PUSH1 0x5 SLOAD LT ISZERO PUSH2 0x8DF JUMPI PUSH1 0x5 SLOAD PUSH1 0x0 DUP1 PUSH1 0x3 PUSH1 0x0 SWAP1 SLOAD SWAP1 PUSH2 0x100 EXP SWAP1 DIV PUSH20 0xFFFFFFFFFFFFFFFFFFFFFFFFFFFFFFFFFFFFFFFF AND PUSH20 0xFFFFFFFFFFFFFFFFFFFFFFFFFFFFFFFFFFFFFFFF AND PUSH20 0xFFFFFFFFFFFFFFFFFFFFFFFFFFFFFFFFFFFFFFFF AND DUP2 MSTORE PUSH1 0x20 ADD SWAP1 DUP2 MSTORE PUSH1 0x20 ADD PUSH1 0x0 KECCAK256 PUSH1 0x0 DUP3 DUP3 SLOAD PUSH2 0x85A SWAP2 SWAP1 PUSH2 0x1794 JUMP JUMPDEST SWAP3 POP POP DUP2 SWAP1 SSTORE POP PUSH1 0x5 SLOAD PUSH1 0x0 DUP1 PUSH1 0x4 PUSH1 0x0 SWAP1 SLOAD SWAP1 PUSH2 0x100 EXP SWAP1 DIV PUSH20 0xFFFFFFFFFFFFFFFFFFFFFFFFFFFFFFFFFFFFFFFF AND PUSH20 0xFFFFFFFFFFFFFFFFFFFFFFFFFFFFFFFFFFFFFFFF AND PUSH20 0xFFFFFFFFFFFFFFFFFFFFFFFFFFFFFFFFFFFFFFFF AND DUP2 MSTORE PUSH1 0x20 ADD SWAP1 DUP2 MSTORE PUSH1 0x20 ADD PUSH1 0x0 KECCAK256 PUSH1 0x0 DUP3 DUP3 SLOAD PUSH2 0x8D3 SWAP2 SWAP1 PUSH2 0x17EA JUMP JUMPDEST SWAP3 POP POP DUP2 SWAP1 SSTORE POP PUSH2 0x9EA JUMP JUMPDEST PUSH1 0x3 PUSH1 0x5 SLOAD PUSH2 0x8EE SWAP2 SWAP1 PUSH2 0x17EA JUMP JUMPDEST PUSH1 0x0 DUP1 PUSH1 0x3 PUSH1 0x0 SWAP1 SLOAD SWAP1 PUSH2 0x100 EXP SWAP1 DIV PUSH20 0xFFFFFFFFFFFFFFFFFFFFFFFFFFFFFFFFFFFFFFFF AND PUSH20 0xFFFFFFFFFFFFFFFFFFFFFFFFFFFFFFFFFFFFFFFF AND PUSH20 0xFFFFFFFFFFFFFFFFFFFFFFFFFFFFFFFFFFFFFFFF AND DUP2 MSTORE PUSH1 0x20 ADD SWAP1 DUP2 MSTORE PUSH1 0x20 ADD PUSH1 0x0 KECCAK256 PUSH1 0x0 DUP3 DUP3 SLOAD PUSH2 0x95D SWAP2 SWAP1 PUSH2 0x17EA JUMP JUMPDEST SWAP3 POP POP DUP2 SWAP1 SSTORE POP PUSH1 0x3 PUSH1 0x5 SLOAD PUSH2 0x973 SWAP2 SWAP1 PUSH2 0x17EA JUMP JUMPDEST PUSH1 0x0 DUP1 PUSH1 0x4 PUSH1 0x0 SWAP1 SLOAD SWAP1 PUSH2 0x100 EXP SWAP1 DIV PUSH20 0xFFFFFFFFFFFFFFFFFFFFFFFFFFFFFFFFFFFFFFFF AND PUSH20 0xFFFFFFFFFFFFFFFFFFFFFFFFFFFFFFFFFFFFFFFF AND PUSH20 0xFFFFFFFFFFFFFFFFFFFFFFFFFFFFFFFFFFFFFFFF AND DUP2 MSTORE PUSH1 0x20 ADD SWAP1 DUP2 MSTORE PUSH1 0x20 ADD PUSH1 0x0 KECCAK256 PUSH1 0x0 DUP3 DUP3 SLOAD PUSH2 0x9E2 SWAP2 SWAP1 PUSH2 0x1794 JUMP JUMPDEST SWAP3 POP POP DUP2 SWAP1 SSTORE POP JUMPDEST PUSH1 0x5 SLOAD SWAP1 POP SWAP2 SWAP1 POP JUMP JUMPDEST PUSH1 0x0 DUP2 PUSH1 0x40 MLOAD PUSH1 0x20 ADD PUSH2 0xA07 SWAP2 SWAP1 PUSH2 0x1526 JUMP JUMPDEST PUSH1 0x40 MLOAD PUSH1 0x20 DUP2 DUP4 SUB SUB DUP2 MSTORE SWAP1 PUSH1 0x40 MSTORE DUP1 MLOAD SWAP1 PUSH1 0x20 ADD KECCAK256 SWAP1 POP SWAP2 SWAP1 POP JUMP JUMPDEST PUSH1 0x3 PUSH1 0x0 SWAP1 SLOAD SWAP1 PUSH2 0x100 EXP SWAP1 DIV PUSH20 0xFFFFFFFFFFFFFFFFFFFFFFFFFFFFFFFFFFFFFFFF AND PUSH20 0xFFFFFFFFFFFFFFFFFFFFFFFFFFFFFFFFFFFFFFFF AND CALLER PUSH20 0xFFFFFFFFFFFFFFFFFFFFFFFFFFFFFFFFFFFFFFFF AND EQ ISZERO PUSH2 0xB28 JUMPI PUSH1 0x0 PUSH1 0x3 PUSH1 0x0 PUSH2 0x100 EXP DUP2 SLOAD DUP2 PUSH20 0xFFFFFFFFFFFFFFFFFFFFFFFFFFFFFFFFFFFFFFFF MUL NOT AND SWAP1 DUP4 PUSH20 0xFFFFFFFFFFFFFFFFFFFFFFFFFFFFFFFFFFFFFFFF AND MUL OR SWAP1 SSTORE POP PUSH1 0x0 PUSH1 0x2 PUSH1 0x0 PUSH1 0x3 PUSH1 0x0 SWAP1 SLOAD SWAP1 PUSH2 0x100 EXP SWAP1 DIV PUSH20 0xFFFFFFFFFFFFFFFFFFFFFFFFFFFFFFFFFFFFFFFF AND PUSH20 0xFFFFFFFFFFFFFFFFFFFFFFFFFFFFFFFFFFFFFFFF AND PUSH20 0xFFFFFFFFFFFFFFFFFFFFFFFFFFFFFFFFFFFFFFFF AND DUP2 MSTORE PUSH1 0x20 ADD SWAP1 DUP2 MSTORE PUSH1 0x20 ADD PUSH1 0x0 KECCAK256 DUP2 SWAP1 SSTORE POP PUSH2 0xC29 JUMP JUMPDEST PUSH1 0x4 PUSH1 0x0 SWAP1 SLOAD SWAP1 PUSH2 0x100 EXP SWAP1 DIV PUSH20 0xFFFFFFFFFFFFFFFFFFFFFFFFFFFFFFFFFFFFFFFF AND PUSH20 0xFFFFFFFFFFFFFFFFFFFFFFFFFFFFFFFFFFFFFFFF AND CALLER PUSH20 0xFFFFFFFFFFFFFFFFFFFFFFFFFFFFFFFFFFFFFFFF AND EQ ISZERO PUSH2 0xC28 JUMPI PUSH1 0x0 PUSH1 0x4 PUSH1 0x0 PUSH2 0x100 EXP DUP2 SLOAD DUP2 PUSH20 0xFFFFFFFFFFFFFFFFFFFFFFFFFFFFFFFFFFFFFFFF MUL NOT AND SWAP1 DUP4 PUSH20 0xFFFFFFFFFFFFFFFFFFFFFFFFFFFFFFFFFFFFFFFF AND MUL OR SWAP1 SSTORE POP PUSH1 0x0 PUSH1 0x2 PUSH1 0x0 PUSH1 0x4 PUSH1 0x0 SWAP1 SLOAD SWAP1 PUSH2 0x100 EXP SWAP1 DIV PUSH20 0xFFFFFFFFFFFFFFFFFFFFFFFFFFFFFFFFFFFFFFFF AND PUSH20 0xFFFFFFFFFFFFFFFFFFFFFFFFFFFFFFFFFFFFFFFF AND PUSH20 0xFFFFFFFFFFFFFFFFFFFFFFFFFFFFFFFFFFFFFFFF AND DUP2 MSTORE PUSH1 0x20 ADD SWAP1 DUP2 MSTORE PUSH1 0x20 ADD PUSH1 0x0 KECCAK256 DUP2 SWAP1 SSTORE POP JUMPDEST JUMPDEST PUSH1 0x0 PUSH20 0xFFFFFFFFFFFFFFFFFFFFFFFFFFFFFFFFFFFFFFFF AND PUSH1 0x3 PUSH1 0x0 SWAP1 SLOAD SWAP1 PUSH2 0x100 EXP SWAP1 DIV PUSH20 0xFFFFFFFFFFFFFFFFFFFFFFFFFFFFFFFFFFFFFFFF AND PUSH20 0xFFFFFFFFFFFFFFFFFFFFFFFFFFFFFFFFFFFFFFFF AND EQ DUP1 ISZERO PUSH2 0xCD5 JUMPI POP PUSH1 0x0 PUSH20 0xFFFFFFFFFFFFFFFFFFFFFFFFFFFFFFFFFFFFFFFF AND PUSH1 0x4 PUSH1 0x0 SWAP1 SLOAD SWAP1 PUSH2 0x100 EXP SWAP1 DIV PUSH20 0xFFFFFFFFFFFFFFFFFFFFFFFFFFFFFFFFFFFFFFFF AND PUSH20 0xFFFFFFFFFFFFFFFFFFFFFFFFFFFFFFFFFFFFFFFF AND EQ JUMPDEST ISZERO PUSH2 0xCE3 JUMPI PUSH1 0x0 PUSH1 0x5 DUP2 SWAP1 SSTORE POP JUMPDEST PUSH1 0x1 ISZERO ISZERO DUP2 ISZERO ISZERO EQ ISZERO PUSH2 0xDC0 JUMPI PUSH1 0x0 DUP1 PUSH1 0x0 CALLER PUSH20 0xFFFFFFFFFFFFFFFFFFFFFFFFFFFFFFFFFFFFFFFF AND PUSH20 0xFFFFFFFFFFFFFFFFFFFFFFFFFFFFFFFFFFFFFFFF AND DUP2 MSTORE PUSH1 0x20 ADD SWAP1 DUP2 MSTORE PUSH1 0x20 ADD PUSH1 0x0 KECCAK256 SLOAD SWAP1 POP PUSH1 0x0 DUP1 PUSH1 0x0 CALLER PUSH20 0xFFFFFFFFFFFFFFFFFFFFFFFFFFFFFFFFFFFFFFFF AND PUSH20 0xFFFFFFFFFFFFFFFFFFFFFFFFFFFFFFFFFFFFFFFF AND DUP2 MSTORE PUSH1 0x20 ADD SWAP1 DUP2 MSTORE PUSH1 0x20 ADD PUSH1 0x0 KECCAK256 DUP2 SWAP1 SSTORE POP CALLER PUSH20 0xFFFFFFFFFFFFFFFFFFFFFFFFFFFFFFFFFFFFFFFF AND PUSH2 0x8FC DUP3 SWAP1 DUP2 ISZERO MUL SWAP1 PUSH1 0x40 MLOAD PUSH1 0x0 PUSH1 0x40 MLOAD DUP1 DUP4 SUB DUP2 DUP6 DUP9 DUP9 CALL SWAP4 POP POP POP POP ISZERO DUP1 ISZERO PUSH2 0xDBD JUMPI RETURNDATASIZE PUSH1 0x0 DUP1 RETURNDATACOPY RETURNDATASIZE PUSH1 0x0 REVERT JUMPDEST POP POP JUMPDEST POP JUMP JUMPDEST PUSH1 0x0 DUP1 SHL DUP2 EQ ISZERO PUSH2 0xE09 JUMPI PUSH1 0x40 MLOAD PUSH32 0x8C379A000000000000000000000000000000000000000000000000000000000 DUP2 MSTORE PUSH1 0x4 ADD PUSH2 0xE00 SWAP1 PUSH2 0x1667 JUMP JUMPDEST PUSH1 0x40 MLOAD DUP1 SWAP2 SUB SWAP1 REVERT JUMPDEST PUSH1 0x0 PUSH20 0xFFFFFFFFFFFFFFFFFFFFFFFFFFFFFFFFFFFFFFFF AND PUSH1 0x4 PUSH1 0x0 SWAP1 SLOAD SWAP1 PUSH2 0x100 EXP SWAP1 DIV PUSH20 0xFFFFFFFFFFFFFFFFFFFFFFFFFFFFFFFFFFFFFFFF AND PUSH20 0xFFFFFFFFFFFFFFFFFFFFFFFFFFFFFFFFFFFFFFFF AND EQ PUSH2 0xE9A JUMPI PUSH1 0x40 MLOAD PUSH32 0x8C379A000000000000000000000000000000000000000000000000000000000 DUP2 MSTORE PUSH1 0x4 ADD PUSH2 0xE91 SWAP1 PUSH2 0x16E7 JUMP JUMPDEST PUSH1 0x40 MLOAD DUP1 SWAP2 SUB SWAP1 REVERT JUMPDEST CALLER PUSH20 0xFFFFFFFFFFFFFFFFFFFFFFFFFFFFFFFFFFFFFFFF AND PUSH1 0x3 PUSH1 0x0 SWAP1 SLOAD SWAP1 PUSH2 0x100 EXP SWAP1 DIV PUSH20 0xFFFFFFFFFFFFFFFFFFFFFFFFFFFFFFFFFFFFFFFF AND PUSH20 0xFFFFFFFFFFFFFFFFFFFFFFFFFFFFFFFFFFFFFFFF AND EQ ISZERO PUSH2 0xF2B JUMPI PUSH1 0x40 MLOAD PUSH32 0x8C379A000000000000000000000000000000000000000000000000000000000 DUP2 MSTORE PUSH1 0x4 ADD PUSH2 0xF22 SWAP1 PUSH2 0x15A7 JUMP JUMPDEST PUSH1 0x40 MLOAD DUP1 SWAP2 SUB SWAP1 REVERT JUMPDEST CALLER PUSH1 0x4 PUSH1 0x0 PUSH2 0x100 EXP DUP2 SLOAD DUP2 PUSH20 0xFFFFFFFFFFFFFFFFFFFFFFFFFFFFFFFFFFFFFFFF MUL NOT AND SWAP1 DUP4 PUSH20 0xFFFFFFFFFFFFFFFFFFFFFFFFFFFFFFFFFFFFFFFF AND MUL OR SWAP1 SSTORE POP DUP1 PUSH1 0x1 PUSH1 0x0 CALLER PUSH20 0xFFFFFFFFFFFFFFFFFFFFFFFFFFFFFFFFFFFFFFFF AND PUSH20 0xFFFFFFFFFFFFFFFFFFFFFFFFFFFFFFFFFFFFFFFF AND DUP2 MSTORE PUSH1 0x20 ADD SWAP1 DUP2 MSTORE PUSH1 0x20 ADD PUSH1 0x0 KECCAK256 DUP2 SWAP1 SSTORE POP PUSH32 0x478F5152D8FC568DB3F8DE9FB402FD9D98A1A7541ECFE434E59CF574FBFC5524 CALLER PUSH1 0x40 MLOAD PUSH2 0xFDF SWAP2 SWAP1 PUSH2 0x1541 JUMP JUMPDEST PUSH1 0x40 MLOAD DUP1 SWAP2 SUB SWAP1 LOG1 POP JUMP JUMPDEST CALLER PUSH20 0xFFFFFFFFFFFFFFFFFFFFFFFFFFFFFFFFFFFFFFFF AND PUSH1 0x3 PUSH1 0x0 SWAP1 SLOAD SWAP1 PUSH2 0x100 EXP SWAP1 DIV PUSH20 0xFFFFFFFFFFFFFFFFFFFFFFFFFFFFFFFFFFFFFFFF AND PUSH20 0xFFFFFFFFFFFFFFFFFFFFFFFFFFFFFFFFFFFFFFFF AND EQ DUP1 PUSH2 0x1093 JUMPI POP CALLER PUSH20 0xFFFFFFFFFFFFFFFFFFFFFFFFFFFFFFFFFFFFFFFF AND PUSH1 0x4 PUSH1 0x0 SWAP1 SLOAD SWAP1 PUSH2 0x100 EXP SWAP1 DIV PUSH20 0xFFFFFFFFFFFFFFFFFFFFFFFFFFFFFFFFFFFFFFFF AND PUSH20 0xFFFFFFFFFFFFFFFFFFFFFFFFFFFFFFFFFFFFFFFF AND EQ JUMPDEST PUSH2 0x10D2 JUMPI PUSH1 0x40 MLOAD PUSH32 0x8C379A000000000000000000000000000000000000000000000000000000000 DUP2 MSTORE PUSH1 0x4 ADD PUSH2 0x10C9 SWAP1 PUSH2 0x15E7 JUMP JUMPDEST PUSH1 0x40 MLOAD DUP1 SWAP2 SUB SWAP1 REVERT JUMPDEST CALLVALUE PUSH1 0x0 DUP1 CALLER PUSH20 0xFFFFFFFFFFFFFFFFFFFFFFFFFFFFFFFFFFFFFFFF AND PUSH20 0xFFFFFFFFFFFFFFFFFFFFFFFFFFFFFFFFFFFFFFFF AND DUP2 MSTORE PUSH1 0x20 ADD SWAP1 DUP2 MSTORE PUSH1 0x20 ADD PUSH1 0x0 KECCAK256 PUSH1 0x0 DUP3 DUP3 SLOAD PUSH2 0x1120 SWAP2 SWAP1 PUSH2 0x1794 JUMP JUMPDEST SWAP3 POP POP DUP2 SWAP1 SSTORE POP PUSH32 0x68A331F033C1E5CE4F6A0FC484B20CB8368BF28A77B6468A762241C0FC202D67 CALLER DUP3 PUSH1 0x40 MLOAD PUSH2 0x1158 SWAP3 SWAP2 SWAP1 PUSH2 0x155C JUMP JUMPDEST PUSH1 0x40 MLOAD DUP1 SWAP2 SUB SWAP1 LOG1 POP JUMP JUMPDEST PUSH1 0x0 DUP1 PUSH1 0x0 CALLER PUSH20 0xFFFFFFFFFFFFFFFFFFFFFFFFFFFFFFFFFFFFFFFF AND PUSH20 0xFFFFFFFFFFFFFFFFFFFFFFFFFFFFFFFFFFFFFFFF AND DUP2 MSTORE PUSH1 0x20 ADD SWAP1 DUP2 MSTORE PUSH1 0x20 ADD PUSH1 0x0 KECCAK256 SLOAD SWAP1 POP SWAP1 JUMP JUMPDEST PUSH1 0x0 PUSH2 0x11BC PUSH2 0x11B7 DUP5 PUSH2 0x1747 JUMP JUMPDEST PUSH2 0x1722 JUMP JUMPDEST SWAP1 POP DUP3 DUP2 MSTORE PUSH1 0x20 DUP2 ADD DUP5 DUP5 DUP5 ADD GT ISZERO PUSH2 0x11D8 JUMPI PUSH2 0x11D7 PUSH2 0x19B0 JUMP JUMPDEST JUMPDEST PUSH2 0x11E3 DUP5 DUP3 DUP6 PUSH2 0x1870 JUMP JUMPDEST POP SWAP4 SWAP3 POP POP POP JUMP JUMPDEST PUSH1 0x0 DUP2 CALLDATALOAD SWAP1 POP PUSH2 0x11FA DUP2 PUSH2 0x1C51 JUMP JUMPDEST SWAP3 SWAP2 POP POP JUMP JUMPDEST PUSH1 0x0 DUP2 CALLDATALOAD SWAP1 POP PUSH2 0x120F DUP2 PUSH2 0x1C68 JUMP JUMPDEST SWAP3 SWAP2 POP POP JUMP JUMPDEST PUSH1 0x0 DUP3 PUSH1 0x1F DUP4 ADD SLT PUSH2 0x122A JUMPI PUSH2 0x1229 PUSH2 0x19AB JUMP JUMPDEST JUMPDEST DUP2 CALLDATALOAD PUSH2 0x123A DUP5 DUP3 PUSH1 0x20 DUP7 ADD PUSH2 0x11A9 JUMP JUMPDEST SWAP2 POP POP SWAP3 SWAP2 POP POP JUMP JUMPDEST PUSH1 0x0 DUP2 CALLDATALOAD SWAP1 POP PUSH2 0x1252 DUP2 PUSH2 0x1C7F JUMP JUMPDEST SWAP3 SWAP2 POP POP JUMP JUMPDEST PUSH1 0x0 PUSH1 0x20 DUP3 DUP5 SUB SLT ISZERO PUSH2 0x126E JUMPI PUSH2 0x126D PUSH2 0x19BA JUMP JUMPDEST JUMPDEST PUSH1 0x0 PUSH2 0x127C DUP5 DUP3 DUP6 ADD PUSH2 0x11EB JUMP JUMPDEST SWAP2 POP POP SWAP3 SWAP2 POP POP JUMP JUMPDEST PUSH1 0x0 PUSH1 0x20 DUP3 DUP5 SUB SLT ISZERO PUSH2 0x129B JUMPI PUSH2 0x129A PUSH2 0x19BA JUMP JUMPDEST JUMPDEST PUSH1 0x0 PUSH2 0x12A9 DUP5 DUP3 DUP6 ADD PUSH2 0x1200 JUMP JUMPDEST SWAP2 POP POP SWAP3 SWAP2 POP POP JUMP JUMPDEST PUSH1 0x0 PUSH1 0x20 DUP3 DUP5 SUB SLT ISZERO PUSH2 0x12C8 JUMPI PUSH2 0x12C7 PUSH2 0x19BA JUMP JUMPDEST JUMPDEST PUSH1 0x0 DUP3 ADD CALLDATALOAD PUSH8 0xFFFFFFFFFFFFFFFF DUP2 GT ISZERO PUSH2 0x12E6 JUMPI PUSH2 0x12E5 PUSH2 0x19B5 JUMP JUMPDEST JUMPDEST PUSH2 0x12F2 DUP5 DUP3 DUP6 ADD PUSH2 0x1215 JUMP JUMPDEST SWAP2 POP POP SWAP3 SWAP2 POP POP JUMP JUMPDEST PUSH1 0x0 PUSH1 0x20 DUP3 DUP5 SUB SLT ISZERO PUSH2 0x1311 JUMPI PUSH2 0x1310 PUSH2 0x19BA JUMP JUMPDEST JUMPDEST PUSH1 0x0 PUSH2 0x131F DUP5 DUP3 DUP6 ADD PUSH2 0x1243 JUMP JUMPDEST SWAP2 POP POP SWAP3 SWAP2 POP POP JUMP JUMPDEST PUSH2 0x1331 DUP2 PUSH2 0x181E JUMP JUMPDEST DUP3 MSTORE POP POP JUMP JUMPDEST PUSH2 0x1340 DUP2 PUSH2 0x183C JUMP JUMPDEST DUP3 MSTORE POP POP JUMP JUMPDEST PUSH1 0x0 PUSH2 0x1351 DUP3 PUSH2 0x1778 JUMP JUMPDEST PUSH2 0x135B DUP2 DUP6 PUSH2 0x1783 JUMP JUMPDEST SWAP4 POP PUSH2 0x136B DUP2 DUP6 PUSH1 0x20 DUP7 ADD PUSH2 0x187F JUMP JUMPDEST PUSH2 0x1374 DUP2 PUSH2 0x19BF JUMP JUMPDEST DUP5 ADD SWAP2 POP POP SWAP3 SWAP2 POP POP JUMP JUMPDEST PUSH1 0x0 PUSH2 0x138C PUSH1 0x23 DUP4 PUSH2 0x1783 JUMP JUMPDEST SWAP2 POP PUSH2 0x1397 DUP3 PUSH2 0x19D0 JUMP JUMPDEST PUSH1 0x40 DUP3 ADD SWAP1 POP SWAP2 SWAP1 POP JUMP JUMPDEST PUSH1 0x0 PUSH2 0x13AF PUSH1 0x1C DUP4 PUSH2 0x1783 JUMP JUMPDEST SWAP2 POP PUSH2 0x13BA DUP3 PUSH2 0x1A1F JUMP JUMPDEST PUSH1 0x20 DUP3 ADD SWAP1 POP SWAP2 SWAP1 POP JUMP JUMPDEST PUSH1 0x0 PUSH2 0x13D2 PUSH1 0x22 DUP4 PUSH2 0x1783 JUMP JUMPDEST SWAP2 POP PUSH2 0x13DD DUP3 PUSH2 0x1A48 JUMP JUMPDEST PUSH1 0x40 DUP3 ADD SWAP1 POP SWAP2 SWAP1 POP JUMP JUMPDEST PUSH1 0x0 PUSH2 0x13F5 PUSH1 0x16 DUP4 PUSH2 0x1783 JUMP JUMPDEST SWAP2 POP PUSH2 0x1400 DUP3 PUSH2 0x1A97 JUMP JUMPDEST PUSH1 0x20 DUP3 ADD SWAP1 POP SWAP2 SWAP1 POP JUMP JUMPDEST PUSH1 0x0 PUSH2 0x1418 PUSH1 0x16 DUP4 PUSH2 0x1783 JUMP JUMPDEST SWAP2 POP PUSH2 0x1423 DUP3 PUSH2 0x1AC0 JUMP JUMPDEST PUSH1 0x20 DUP3 ADD SWAP1 POP SWAP2 SWAP1 POP JUMP JUMPDEST PUSH1 0x0 PUSH2 0x143B PUSH1 0x2E DUP4 PUSH2 0x1783 JUMP JUMPDEST SWAP2 POP PUSH2 0x1446 DUP3 PUSH2 0x1AE9 JUMP JUMPDEST PUSH1 0x40 DUP3 ADD SWAP1 POP SWAP2 SWAP1 POP JUMP JUMPDEST PUSH1 0x0 PUSH2 0x145E PUSH1 0x1C DUP4 PUSH2 0x1783 JUMP JUMPDEST SWAP2 POP PUSH2 0x1469 DUP3 PUSH2 0x1B38 JUMP JUMPDEST PUSH1 0x20 DUP3 ADD SWAP1 POP SWAP2 SWAP1 POP JUMP JUMPDEST PUSH1 0x0 PUSH2 0x1481 PUSH1 0x12 DUP4 PUSH2 0x1783 JUMP JUMPDEST SWAP2 POP PUSH2 0x148C DUP3 PUSH2 0x1B61 JUMP JUMPDEST PUSH1 0x20 DUP3 ADD SWAP1 POP SWAP2 SWAP1 POP JUMP JUMPDEST PUSH1 0x0 PUSH2 0x14A4 PUSH1 0x29 DUP4 PUSH2 0x1783 JUMP JUMPDEST SWAP2 POP PUSH2 0x14AF DUP3 PUSH2 0x1B8A JUMP JUMPDEST PUSH1 0x40 DUP3 ADD SWAP1 POP SWAP2 SWAP1 POP JUMP JUMPDEST PUSH1 0x0 PUSH2 0x14C7 PUSH1 0x23 DUP4 PUSH2 0x1783 JUMP JUMPDEST SWAP2 POP PUSH2 0x14D2 DUP3 PUSH2 0x1BD9 JUMP JUMPDEST PUSH1 0x40 DUP3 ADD SWAP1 POP SWAP2 SWAP1 POP JUMP JUMPDEST PUSH1 0x0 PUSH2 0x14EA PUSH1 0x1C DUP4 PUSH2 0x1783 JUMP JUMPDEST SWAP2 POP PUSH2 0x14F5 DUP3 PUSH2 0x1C28 JUMP JUMPDEST PUSH1 0x20 DUP3 ADD SWAP1 POP SWAP2 SWAP1 POP JUMP JUMPDEST PUSH2 0x1509 DUP2 PUSH2 0x1866 JUMP JUMPDEST DUP3 MSTORE POP POP JUMP JUMPDEST PUSH2 0x1520 PUSH2 0x151B DUP3 PUSH2 0x1866 JUMP JUMPDEST PUSH2 0x18E3 JUMP JUMPDEST DUP3 MSTORE POP POP JUMP JUMPDEST PUSH1 0x0 PUSH2 0x1532 DUP3 DUP5 PUSH2 0x150F JUMP JUMPDEST PUSH1 0x20 DUP3 ADD SWAP2 POP DUP2 SWAP1 POP SWAP3 SWAP2 POP POP JUMP JUMPDEST PUSH1 0x0 PUSH1 0x20 DUP3 ADD SWAP1 POP PUSH2 0x1556 PUSH1 0x0 DUP4 ADD DUP5 PUSH2 0x1328 JUMP JUMPDEST SWAP3 SWAP2 POP POP JUMP JUMPDEST PUSH1 0x0 PUSH1 0x40 DUP3 ADD SWAP1 POP PUSH2 0x1571 PUSH1 0x0 DUP4 ADD DUP6 PUSH2 0x1328 JUMP JUMPDEST DUP2 DUP2 SUB PUSH1 0x20 DUP4 ADD MSTORE PUSH2 0x1583 DUP2 DUP5 PUSH2 0x1346 JUMP JUMPDEST SWAP1 POP SWAP4 SWAP3 POP POP POP JUMP JUMPDEST PUSH1 0x0 PUSH1 0x20 DUP3 ADD SWAP1 POP PUSH2 0x15A1 PUSH1 0x0 DUP4 ADD DUP5 PUSH2 0x1337 JUMP JUMPDEST SWAP3 SWAP2 POP POP JUMP JUMPDEST PUSH1 0x0 PUSH1 0x20 DUP3 ADD SWAP1 POP DUP2 DUP2 SUB PUSH1 0x0 DUP4 ADD MSTORE PUSH2 0x15C0 DUP2 PUSH2 0x137F JUMP JUMPDEST SWAP1 POP SWAP2 SWAP1 POP JUMP JUMPDEST PUSH1 0x0 PUSH1 0x20 DUP3 ADD SWAP1 POP DUP2 DUP2 SUB PUSH1 0x0 DUP4 ADD MSTORE PUSH2 0x15E0 DUP2 PUSH2 0x13A2 JUMP JUMPDEST SWAP1 POP SWAP2 SWAP1 POP JUMP JUMPDEST PUSH1 0x0 PUSH1 0x20 DUP3 ADD SWAP1 POP DUP2 DUP2 SUB PUSH1 0x0 DUP4 ADD MSTORE PUSH2 0x1600 DUP2 PUSH2 0x13C5 JUMP JUMPDEST SWAP1 POP SWAP2 SWAP1 POP JUMP JUMPDEST PUSH1 0x0 PUSH1 0x20 DUP3 ADD SWAP1 POP DUP2 DUP2 SUB PUSH1 0x0 DUP4 ADD MSTORE PUSH2 0x1620 DUP2 PUSH2 0x13E8 JUMP JUMPDEST SWAP1 POP SWAP2 SWAP1 POP JUMP JUMPDEST PUSH1 0x0 PUSH1 0x20 DUP3 ADD SWAP1 POP DUP2 DUP2 SUB PUSH1 0x0 DUP4 ADD MSTORE PUSH2 0x1640 DUP2 PUSH2 0x140B JUMP JUMPDEST SWAP1 POP SWAP2 SWAP1 POP JUMP JUMPDEST PUSH1 0x0 PUSH1 0x20 DUP3 ADD SWAP1 POP DUP2 DUP2 SUB PUSH1 0x0 DUP4 ADD MSTORE PUSH2 0x1660 DUP2 PUSH2 0x142E JUMP JUMPDEST SWAP1 POP SWAP2 SWAP1 POP JUMP JUMPDEST PUSH1 0x0 PUSH1 0x20 DUP3 ADD SWAP1 POP DUP2 DUP2 SUB PUSH1 0x0 DUP4 ADD MSTORE PUSH2 0x1680 DUP2 PUSH2 0x1451 JUMP JUMPDEST SWAP1 POP SWAP2 SWAP1 POP JUMP JUMPDEST PUSH1 0x0 PUSH1 0x20 DUP3 ADD SWAP1 POP DUP2 DUP2 SUB PUSH1 0x0 DUP4 ADD MSTORE PUSH2 0x16A0 DUP2 PUSH2 0x1474 JUMP JUMPDEST SWAP1 POP SWAP2 SWAP1 POP JUMP JUMPDEST PUSH1 0x0 PUSH1 0x20 DUP3 ADD SWAP1 POP DUP2 DUP2 SUB PUSH1 0x0 DUP4 ADD MSTORE PUSH2 0x16C0 DUP2 PUSH2 0x1497 JUMP JUMPDEST SWAP1 POP SWAP2 SWAP1 POP JUMP JUMPDEST PUSH1 0x0 PUSH1 0x20 DUP3 ADD SWAP1 POP DUP2 DUP2 SUB PUSH1 0x0 DUP4 ADD MSTORE PUSH2 0x16E0 DUP2 PUSH2 0x14BA JUMP JUMPDEST SWAP1 POP SWAP2 SWAP1 POP JUMP JUMPDEST PUSH1 0x0 PUSH1 0x20 DUP3 ADD SWAP1 POP DUP2 DUP2 SUB PUSH1 0x0 DUP4 ADD MSTORE PUSH2 0x1700 DUP2 PUSH2 0x14DD JUMP JUMPDEST SWAP1 POP SWAP2 SWAP1 POP JUMP JUMPDEST PUSH1 0x0 PUSH1 0x20 DUP3 ADD SWAP1 POP PUSH2 0x171C PUSH1 0x0 DUP4 ADD DUP5 PUSH2 0x1500 JUMP JUMPDEST SWAP3 SWAP2 POP POP JUMP JUMPDEST PUSH1 0x0 PUSH2 0x172C PUSH2 0x173D JUMP JUMPDEST SWAP1 POP PUSH2 0x1738 DUP3 DUP3 PUSH2 0x18B2 JUMP JUMPDEST SWAP2 SWAP1 POP JUMP JUMPDEST PUSH1 0x0 PUSH1 0x40 MLOAD SWAP1 POP SWAP1 JUMP JUMPDEST PUSH1 0x0 PUSH8 0xFFFFFFFFFFFFFFFF DUP3 GT ISZERO PUSH2 0x1762 JUMPI PUSH2 0x1761 PUSH2 0x197C JUMP JUMPDEST JUMPDEST PUSH2 0x176B DUP3 PUSH2 0x19BF JUMP JUMPDEST SWAP1 POP PUSH1 0x20 DUP2 ADD SWAP1 POP SWAP2 SWAP1 POP JUMP JUMPDEST PUSH1 0x0 DUP2 MLOAD SWAP1 POP SWAP2 SWAP1 POP JUMP JUMPDEST PUSH1 0x0 DUP3 DUP3 MSTORE PUSH1 0x20 DUP3 ADD SWAP1 POP SWAP3 SWAP2 POP POP JUMP JUMPDEST PUSH1 0x0 PUSH2 0x179F DUP3 PUSH2 0x1866 JUMP JUMPDEST SWAP2 POP PUSH2 0x17AA DUP4 PUSH2 0x1866 JUMP JUMPDEST SWAP3 POP DUP3 PUSH32 0xFFFFFFFFFFFFFFFFFFFFFFFFFFFFFFFFFFFFFFFFFFFFFFFFFFFFFFFFFFFFFFFF SUB DUP3 GT ISZERO PUSH2 0x17DF JUMPI PUSH2 0x17DE PUSH2 0x191E JUMP JUMPDEST JUMPDEST DUP3 DUP3 ADD SWAP1 POP SWAP3 SWAP2 POP POP JUMP JUMPDEST PUSH1 0x0 PUSH2 0x17F5 DUP3 PUSH2 0x1866 JUMP JUMPDEST SWAP2 POP PUSH2 0x1800 DUP4 PUSH2 0x1866 JUMP JUMPDEST SWAP3 POP DUP3 DUP3 LT ISZERO PUSH2 0x1813 JUMPI PUSH2 0x1812 PUSH2 0x191E JUMP JUMPDEST JUMPDEST DUP3 DUP3 SUB SWAP1 POP SWAP3 SWAP2 POP POP JUMP JUMPDEST PUSH1 0x0 PUSH2 0x1829 DUP3 PUSH2 0x1846 JUMP JUMPDEST SWAP1 POP SWAP2 SWAP1 POP JUMP JUMPDEST PUSH1 0x0 DUP2 ISZERO ISZERO SWAP1 POP SWAP2 SWAP1 POP JUMP JUMPDEST PUSH1 0x0 DUP2 SWAP1 POP SWAP2 SWAP1 POP JUMP JUMPDEST PUSH1 0x0 PUSH20 0xFFFFFFFFFFFFFFFFFFFFFFFFFFFFFFFFFFFFFFFF DUP3 AND SWAP1 POP SWAP2 SWAP1 POP JUMP JUMPDEST PUSH1 0x0 DUP2 SWAP1 POP SWAP2 SWAP1 POP JUMP JUMPDEST DUP3 DUP2 DUP4 CALLDATACOPY PUSH1 0x0 DUP4 DUP4 ADD MSTORE POP POP POP JUMP JUMPDEST PUSH1 0x0 JUMPDEST DUP4 DUP2 LT ISZERO PUSH2 0x189D JUMPI DUP1 DUP3 ADD MLOAD DUP2 DUP5 ADD MSTORE PUSH1 0x20 DUP2 ADD SWAP1 POP PUSH2 0x1882 JUMP JUMPDEST DUP4 DUP2 GT ISZERO PUSH2 0x18AC JUMPI PUSH1 0x0 DUP5 DUP5 ADD MSTORE JUMPDEST POP POP POP POP JUMP JUMPDEST PUSH2 0x18BB DUP3 PUSH2 0x19BF JUMP JUMPDEST DUP2 ADD DUP2 DUP2 LT PUSH8 0xFFFFFFFFFFFFFFFF DUP3 GT OR ISZERO PUSH2 0x18DA JUMPI PUSH2 0x18D9 PUSH2 0x197C JUMP JUMPDEST JUMPDEST DUP1 PUSH1 0x40 MSTORE POP POP POP JUMP JUMPDEST PUSH1 0x0 DUP2 SWAP1 POP SWAP2 SWAP1 POP JUMP JUMPDEST PUSH1 0x0 PUSH2 0x18F8 DUP3 PUSH2 0x1866 JUMP JUMPDEST SWAP2 POP PUSH2 0x1903 DUP4 PUSH2 0x1866 JUMP JUMPDEST SWAP3 POP DUP3 PUSH2 0x1913 JUMPI PUSH2 0x1912 PUSH2 0x194D JUMP JUMPDEST JUMPDEST DUP3 DUP3 MOD SWAP1 POP SWAP3 SWAP2 POP POP JUMP JUMPDEST PUSH32 0x4E487B7100000000000000000000000000000000000000000000000000000000 PUSH1 0x0 MSTORE PUSH1 0x11 PUSH1 0x4 MSTORE PUSH1 0x24 PUSH1 0x0 REVERT JUMPDEST PUSH32 0x4E487B7100000000000000000000000000000000000000000000000000000000 PUSH1 0x0 MSTORE PUSH1 0x12 PUSH1 0x4 MSTORE PUSH1 0x24 PUSH1 0x0 REVERT JUMPDEST PUSH32 0x4E487B7100000000000000000000000000000000000000000000000000000000 PUSH1 0x0 MSTORE PUSH1 0x41 PUSH1 0x4 MSTORE PUSH1 0x24 PUSH1 0x0 REVERT JUMPDEST PUSH1 0x0 DUP1 REVERT JUMPDEST PUSH1 0x0 DUP1 REVERT JUMPDEST PUSH1 0x0 DUP1 REVERT JUMPDEST PUSH1 0x0 DUP1 REVERT JUMPDEST PUSH1 0x0 PUSH1 0x1F NOT PUSH1 0x1F DUP4 ADD AND SWAP1 POP SWAP2 SWAP1 POP JUMP JUMPDEST PUSH32 0x596F7520686173206265656E207265676973746572656420617320706C617965 PUSH1 0x0 DUP3 ADD MSTORE PUSH32 0x7220410000000000000000000000000000000000000000000000000000000000 PUSH1 0x20 DUP3 ADD MSTORE POP JUMP JUMPDEST PUSH32 0x506C61796572204120686173206265656E207265676973746572656400000000 PUSH1 0x0 DUP3 ADD MSTORE POP JUMP JUMPDEST PUSH32 0x596F7520617265206E6F742072656769737465726564206173206120706C6179 PUSH1 0x0 DUP3 ADD MSTORE PUSH32 0x6572000000000000000000000000000000000000000000000000000000000000 PUSH1 0x20 DUP3 ADD MSTORE POP JUMP JUMPDEST PUSH32 0x506C6179657242206E6F74207265676973746572656400000000000000000000 PUSH1 0x0 DUP3 ADD MSTORE POP JUMP JUMPDEST PUSH32 0x506C6179657241206E6F74207265676973746572656400000000000000000000 PUSH1 0x0 DUP3 ADD MSTORE POP JUMP JUMPDEST PUSH32 0x596F75206D7573742068617665206174206C6561737420332065746820746F20 PUSH1 0x0 DUP3 ADD MSTORE PUSH32 0x7374617274207468652067616D65000000000000000000000000000000000000 PUSH1 0x20 DUP3 ADD MSTORE POP JUMP JUMPDEST PUSH32 0x706C6561736520656E74657220796F757220636F6D6D69746D656E7400000000 PUSH1 0x0 DUP3 ADD MSTORE POP JUMP JUMPDEST PUSH32 0x57726F6E67207365637265744E756D6265720000000000000000000000000000 PUSH1 0x0 DUP3 ADD MSTORE POP JUMP JUMPDEST PUSH32 0x47616D652063616E6E6F7420737461727420756E74696C20616C6C20706C6179 PUSH1 0x0 DUP3 ADD MSTORE PUSH32 0x6572732072657365740000000000000000000000000000000000000000000000 PUSH1 0x20 DUP3 ADD MSTORE POP JUMP JUMPDEST PUSH32 0x596F7520686173206265656E207265676973746572656420617320706C617965 PUSH1 0x0 DUP3 ADD MSTORE PUSH32 0x7220420000000000000000000000000000000000000000000000000000000000 PUSH1 0x20 DUP3 ADD MSTORE POP JUMP JUMPDEST PUSH32 0x506C61796572204220686173206265656E207265676973746572656400000000 PUSH1 0x0 DUP3 ADD MSTORE POP JUMP JUMPDEST PUSH2 0x1C5A DUP2 PUSH2 0x1830 JUMP JUMPDEST DUP2 EQ PUSH2 0x1C65 JUMPI PUSH1 0x0 DUP1 REVERT JUMPDEST POP JUMP JUMPDEST PUSH2 0x1C71 DUP2 PUSH2 0x183C JUMP JUMPDEST DUP2 EQ PUSH2 0x1C7C JUMPI PUSH1 0x0 DUP1 REVERT JUMPDEST POP JUMP JUMPDEST PUSH2 0x1C88 DUP2 PUSH2 0x1866 JUMP JUMPDEST DUP2 EQ PUSH2 0x1C93 JUMPI PUSH1 0x0 DUP1 REVERT JUMPDEST POP JUMP INVALID LOG2 PUSH5 0x6970667358 0x22 SLT KECCAK256 SWAP4 0xC8 SDIV 0x5D 0x5D PUSH25 0xDFA24114D5DC183B273228432E98931D2CCD8BD5862D9AF552 SWAP11 PUSH5 0x736F6C6343 STOP ADDMOD SMOD STOP CALLER "
				},
				"gasEstimates": {
					"creation": {
						"codeDepositCost": "1474400",
						"executionCost": "6547",
						"totalCost": "1480947"
					},
					"external": {
						"deposit(string)": "infinite",
						"getResult()": "2592",
						"getSecretHash(uint256)": "infinite",
						"registerPlayerA(bytes32)": "52491",
						"registerPlayerB(bytes32)": "52512",
						"resetGame(bool)": "infinite",
						"roll(uint256)": "infinite"
					}
				},
				"methodIdentifiers": {
					"deposit(string)": "a26e1186",
					"getResult()": "de292789",
					"getSecretHash(uint256)": "24287504",
					"registerPlayerA(bytes32)": "134ee552",
					"registerPlayerB(bytes32)": "82022a87",
					"resetGame(bool)": "40165194",
					"roll(uint256)": "1f7b4f30"
				}
			},
			"storageLayout": {
				"storage": [
					{
						"astId": 6,
						"contract": "s1911027.sol:DiceRoll",
						"label": "balance",
						"offset": 0,
						"slot": "0",
						"type": "t_mapping(t_address,t_uint256)"
					},
					{
						"astId": 10,
						"contract": "s1911027.sol:DiceRoll",
						"label": "commitment",
						"offset": 0,
						"slot": "1",
						"type": "t_mapping(t_address,t_bytes32)"
					},
					{
						"astId": 14,
						"contract": "s1911027.sol:DiceRoll",
						"label": "randomNumber",
						"offset": 0,
						"slot": "2",
						"type": "t_mapping(t_address,t_uint256)"
					},
					{
						"astId": 16,
						"contract": "s1911027.sol:DiceRoll",
						"label": "playerA",
						"offset": 0,
						"slot": "3",
						"type": "t_address"
					},
					{
						"astId": 18,
						"contract": "s1911027.sol:DiceRoll",
						"label": "playerB",
						"offset": 0,
						"slot": "4",
						"type": "t_address"
					},
					{
						"astId": 21,
						"contract": "s1911027.sol:DiceRoll",
						"label": "dice",
						"offset": 0,
						"slot": "5",
						"type": "t_uint256"
					}
				],
				"types": {
					"t_address": {
						"encoding": "inplace",
						"label": "address",
						"numberOfBytes": "20"
					},
					"t_bytes32": {
						"encoding": "inplace",
						"label": "bytes32",
						"numberOfBytes": "32"
					},
					"t_mapping(t_address,t_bytes32)": {
						"encoding": "mapping",
						"key": "t_address",
						"label": "mapping(address => bytes32)",
						"numberOfBytes": "32",
						"value": "t_bytes32"
					},
					"t_mapping(t_address,t_uint256)": {
						"encoding": "mapping",
						"key": "t_address",
						"label": "mapping(address => uint256)",
						"numberOfBytes": "32",
						"value": "t_uint256"
					},
					"t_uint256": {
						"encoding": "inplace",
						"label": "uint256",
						"numberOfBytes": "32"
					}
				}
			},
			"userdoc": {
				"kind": "user",
				"methods": {},
				"notice": "Game Process 1. Player Registration - player A call RegisterPlayerA(), sending a hashvalue of the secretNumber - player B call RegisterPlayerB(), sending a hashvalue of the secretNumber 2. Deposit - player need to deposit the money to the game balance. The value of deposit should larger than the gas fee. 3. Roll Dice - player A call StartRoll(), with the secretNumber as a proof of authentication. - player B call StartRoll(), with the secretNumber as a proof of authentication. - The balance for both players should greater than 3 eth. 4. reset and restart the game - reset the dice without withdrowing the money 5. reset and withdrowing the money - reset the dice with withdrowing the money",
				"version": 1
			}
		}
	}
}