{
	"s1911027_2.sol": {
		"DiceGame": {
			"abi": [
				{
					"inputs": [
						{
							"internalType": "address",
							"name": "",
							"type": "address"
						}
					],
					"name": "Games",
					"outputs": [
						{
							"internalType": "address",
							"name": "host",
							"type": "address"
						},
						{
							"internalType": "bytes32",
							"name": "hostHash",
							"type": "bytes32"
						},
						{
							"internalType": "uint256",
							"name": "hostSecretNumber",
							"type": "uint256"
						},
						{
							"internalType": "address",
							"name": "guest",
							"type": "address"
						},
						{
							"internalType": "bytes32",
							"name": "guestHash",
							"type": "bytes32"
						},
						{
							"internalType": "uint256",
							"name": "guestSecretNumber",
							"type": "uint256"
						},
						{
							"internalType": "uint256",
							"name": "lastBlock",
							"type": "uint256"
						},
						{
							"internalType": "bool",
							"name": "withdrawPermit",
							"type": "bool"
						}
					],
					"stateMutability": "view",
					"type": "function"
				},
				{
					"inputs": [
						{
							"internalType": "address",
							"name": "",
							"type": "address"
						}
					],
					"name": "Players",
					"outputs": [
						{
							"internalType": "uint256",
							"name": "balance",
							"type": "uint256"
						},
						{
							"internalType": "address",
							"name": "hostAddress",
							"type": "address"
						}
					],
					"stateMutability": "view",
					"type": "function"
				},
				{
					"inputs": [
						{
							"internalType": "address",
							"name": "guestAddress",
							"type": "address"
						},
						{
							"internalType": "bytes32",
							"name": "hostHash",
							"type": "bytes32"
						}
					],
					"name": "createPrivateGame",
					"outputs": [],
					"stateMutability": "payable",
					"type": "function"
				},
				{
					"inputs": [
						{
							"internalType": "bytes32",
							"name": "hostHash",
							"type": "bytes32"
						}
					],
					"name": "createPublicGame",
					"outputs": [],
					"stateMutability": "payable",
					"type": "function"
				},
				{
					"inputs": [
						{
							"internalType": "uint256",
							"name": "secretNumber",
							"type": "uint256"
						}
					],
					"name": "getHash",
					"outputs": [
						{
							"internalType": "bytes32",
							"name": "",
							"type": "bytes32"
						}
					],
					"stateMutability": "nonpayable",
					"type": "function"
				},
				{
					"inputs": [
						{
							"internalType": "address",
							"name": "hostAddress",
							"type": "address"
						},
						{
							"internalType": "bytes32",
							"name": "guestHash",
							"type": "bytes32"
						}
					],
					"name": "joinGame",
					"outputs": [],
					"stateMutability": "payable",
					"type": "function"
				},
				{
					"inputs": [],
					"name": "roll",
					"outputs": [],
					"stateMutability": "nonpayable",
					"type": "function"
				},
				{
					"inputs": [],
					"name": "terminateGame",
					"outputs": [],
					"stateMutability": "nonpayable",
					"type": "function"
				},
				{
					"inputs": [
						{
							"internalType": "uint256",
							"name": "secretNumber",
							"type": "uint256"
						}
					],
					"name": "verification",
					"outputs": [],
					"stateMutability": "nonpayable",
					"type": "function"
				},
				{
					"inputs": [
						{
							"internalType": "address",
							"name": "previousHostAddress",
							"type": "address"
						}
					],
					"name": "withdraw",
					"outputs": [],
					"stateMutability": "payable",
					"type": "function"
				}
			],
			"devdoc": {
				"kind": "dev",
				"methods": {},
				"version": 1
			},
			"evm": {
				"assembly": "    /* \"s1911027_2.sol\":1508:10796  contract DiceGame {\r... */\n  mstore(0x40, 0x80)\n    /* \"s1911027_2.sol\":1591:1633  0xed047bbD6CdbF009Bd7788eB93192b630baB4a5e */\n  0xed047bbd6cdbf009bd7788eb93192b630bab4a5e\n    /* \"s1911027_2.sol\":1567:1633  address private owner = 0xed047bbD6CdbF009Bd7788eB93192b630baB4a5e */\n  0x00\n  dup1\n  0x0100\n  exp\n  dup2\n  sload\n  dup2\n  0xffffffffffffffffffffffffffffffffffffffff\n  mul\n  not\n  and\n  swap1\n  dup4\n  0xffffffffffffffffffffffffffffffffffffffff\n  and\n  mul\n  or\n  swap1\n  sstore\n  pop\n    /* \"s1911027_2.sol\":1508:10796  contract DiceGame {\r... */\n  callvalue\n  dup1\n  iszero\n  tag_1\n  jumpi\n  0x00\n  dup1\n  revert\ntag_1:\n  pop\n  dataSize(sub_0)\n  dup1\n  dataOffset(sub_0)\n  0x00\n  codecopy\n  0x00\n  return\nstop\n\nsub_0: assembly {\n        /* \"s1911027_2.sol\":1508:10796  contract DiceGame {\r... */\n      mstore(0x40, 0x80)\n      jumpi(tag_1, lt(calldatasize, 0x04))\n      shr(0xe0, calldataload(0x00))\n      dup1\n      0xc05a911c\n      gt\n      tag_12\n      jumpi\n      dup1\n      0xc05a911c\n      eq\n      tag_7\n      jumpi\n      dup1\n      0xcd5e3c5d\n      eq\n      tag_8\n      jumpi\n      dup1\n      0xe367b5d5\n      eq\n      tag_9\n      jumpi\n      dup1\n      0xe810c81f\n      eq\n      tag_10\n      jumpi\n      dup1\n      0xed02cb7c\n      eq\n      tag_11\n      jumpi\n      jump(tag_1)\n    tag_12:\n      dup1\n      0x2bff8dd6\n      eq\n      tag_2\n      jumpi\n      dup1\n      0x51cff8d9\n      eq\n      tag_3\n      jumpi\n      dup1\n      0x6b2fafa9\n      eq\n      tag_4\n      jumpi\n      dup1\n      0x97661f31\n      eq\n      tag_5\n      jumpi\n      dup1\n      0xc0277338\n      eq\n      tag_6\n      jumpi\n    tag_1:\n      0x00\n      dup1\n      revert\n        /* \"s1911027_2.sol\":2587:2628  mapping(address => Player) public Players */\n    tag_2:\n      callvalue\n      dup1\n      iszero\n      tag_13\n      jumpi\n      0x00\n      dup1\n      revert\n    tag_13:\n      pop\n      tag_14\n      0x04\n      dup1\n      calldatasize\n      sub\n      dup2\n      add\n      swap1\n      tag_15\n      swap2\n      swap1\n      tag_16\n      jump\t// in\n    tag_15:\n      tag_17\n      jump\t// in\n    tag_14:\n      mload(0x40)\n      tag_18\n      swap3\n      swap2\n      swap1\n      tag_19\n      jump\t// in\n    tag_18:\n      mload(0x40)\n      dup1\n      swap2\n      sub\n      swap1\n      return\n        /* \"s1911027_2.sol\":10186:10585  function withdraw(address previousHostAddress) public payable{\r... */\n    tag_3:\n      tag_20\n      0x04\n      dup1\n      calldatasize\n      sub\n      dup2\n      add\n      swap1\n      tag_21\n      swap2\n      swap1\n      tag_16\n      jump\t// in\n    tag_21:\n      tag_22\n      jump\t// in\n    tag_20:\n      stop\n        /* \"s1911027_2.sol\":10660:10791  function getHash(uint256 secretNumber) public returns (bytes32) {\r... */\n    tag_4:\n      callvalue\n      dup1\n      iszero\n      tag_23\n      jumpi\n      0x00\n      dup1\n      revert\n    tag_23:\n      pop\n      tag_24\n      0x04\n      dup1\n      calldatasize\n      sub\n      dup2\n      add\n      swap1\n      tag_25\n      swap2\n      swap1\n      tag_26\n      jump\t// in\n    tag_25:\n      tag_27\n      jump\t// in\n    tag_24:\n      mload(0x40)\n      tag_28\n      swap2\n      swap1\n      tag_29\n      jump\t// in\n    tag_28:\n      mload(0x40)\n      dup1\n      swap2\n      sub\n      swap1\n      return\n        /* \"s1911027_2.sol\":8306:10075  function terminateGame() public {\r... */\n    tag_5:\n      callvalue\n      dup1\n      iszero\n      tag_30\n      jumpi\n      0x00\n      dup1\n      revert\n    tag_30:\n      pop\n      tag_31\n      tag_32\n      jump\t// in\n    tag_31:\n      stop\n        /* \"s1911027_2.sol\":2741:3265  function createPublicGame(bytes32 hostHash) payable public {\r... */\n    tag_6:\n      tag_33\n      0x04\n      dup1\n      calldatasize\n      sub\n      dup2\n      add\n      swap1\n      tag_34\n      swap2\n      swap1\n      tag_35\n      jump\t// in\n    tag_34:\n      tag_36\n      jump\t// in\n    tag_33:\n      stop\n        /* \"s1911027_2.sol\":5131:6629  function verification(uint256 secretNumber) public {\r... */\n    tag_7:\n      callvalue\n      dup1\n      iszero\n      tag_37\n      jumpi\n      0x00\n      dup1\n      revert\n    tag_37:\n      pop\n      tag_38\n      0x04\n      dup1\n      calldatasize\n      sub\n      dup2\n      add\n      swap1\n      tag_39\n      swap2\n      swap1\n      tag_26\n      jump\t// in\n    tag_39:\n      tag_40\n      jump\t// in\n    tag_38:\n      stop\n        /* \"s1911027_2.sol\":6637:7972  function roll() public {\r... */\n    tag_8:\n      callvalue\n      dup1\n      iszero\n      tag_41\n      jumpi\n      0x00\n      dup1\n      revert\n    tag_41:\n      pop\n      tag_42\n      tag_43\n      jump\t// in\n    tag_42:\n      stop\n        /* \"s1911027_2.sol\":2635:2672  mapping(address => Game) public Games */\n    tag_9:\n      callvalue\n      dup1\n      iszero\n      tag_44\n      jumpi\n      0x00\n      dup1\n      revert\n    tag_44:\n      pop\n      tag_45\n      0x04\n      dup1\n      calldatasize\n      sub\n      dup2\n      add\n      swap1\n      tag_46\n      swap2\n      swap1\n      tag_16\n      jump\t// in\n    tag_46:\n      tag_47\n      jump\t// in\n    tag_45:\n      mload(0x40)\n      tag_48\n      swap9\n      swap8\n      swap7\n      swap6\n      swap5\n      swap4\n      swap3\n      swap2\n      swap1\n      tag_49\n      jump\t// in\n    tag_48:\n      mload(0x40)\n      dup1\n      swap2\n      sub\n      swap1\n      return\n        /* \"s1911027_2.sol\":4074:5054  function joinGame(address hostAddress, bytes32 guestHash) payable public {\r... */\n    tag_10:\n      tag_50\n      0x04\n      dup1\n      calldatasize\n      sub\n      dup2\n      add\n      swap1\n      tag_51\n      swap2\n      swap1\n      tag_52\n      jump\t// in\n    tag_51:\n      tag_53\n      jump\t// in\n    tag_50:\n      stop\n        /* \"s1911027_2.sol\":3332:3971  function createPrivateGame(address guestAddress, bytes32 hostHash) payable public{\r... */\n    tag_11:\n      tag_54\n      0x04\n      dup1\n      calldatasize\n      sub\n      dup2\n      add\n      swap1\n      tag_55\n      swap2\n      swap1\n      tag_52\n      jump\t// in\n    tag_55:\n      tag_56\n      jump\t// in\n    tag_54:\n      stop\n        /* \"s1911027_2.sol\":2587:2628  mapping(address => Player) public Players */\n    tag_17:\n      mstore(0x20, 0x01)\n      dup1\n      0x00\n      mstore\n      keccak256(0x00, 0x40)\n      0x00\n      swap2\n      pop\n      swap1\n      pop\n      dup1\n      0x00\n      add\n      sload\n      swap1\n      dup1\n      0x01\n      add\n      0x00\n      swap1\n      sload\n      swap1\n      0x0100\n      exp\n      swap1\n      div\n      0xffffffffffffffffffffffffffffffffffffffff\n      and\n      swap1\n      pop\n      dup3\n      jump\t// out\n        /* \"s1911027_2.sol\":10186:10585  function withdraw(address previousHostAddress) public payable{\r... */\n    tag_22:\n        /* \"s1911027_2.sol\":10296:10303  0 ether */\n      0x00\n        /* \"s1911027_2.sol\":10266:10273  Players */\n      0x01\n        /* \"s1911027_2.sol\":10266:10285  Players[msg.sender] */\n      0x00\n        /* \"s1911027_2.sol\":10274:10284  msg.sender */\n      caller\n        /* \"s1911027_2.sol\":10266:10285  Players[msg.sender] */\n      0xffffffffffffffffffffffffffffffffffffffff\n      and\n      0xffffffffffffffffffffffffffffffffffffffff\n      and\n      dup2\n      mstore\n      0x20\n      add\n      swap1\n      dup2\n      mstore\n      0x20\n      add\n      0x00\n      keccak256\n        /* \"s1911027_2.sol\":10266:10293  Players[msg.sender].balance */\n      0x00\n      add\n      sload\n        /* \"s1911027_2.sol\":10266:10303  Players[msg.sender].balance > 0 ether */\n      gt\n        /* \"s1911027_2.sol\":10258:10327  require(Players[msg.sender].balance > 0 ether, \"No money in balance\") */\n      tag_58\n      jumpi\n      mload(0x40)\n      0x08c379a000000000000000000000000000000000000000000000000000000000\n      dup2\n      mstore\n      0x04\n      add\n      tag_59\n      swap1\n      tag_60\n      jump\t// in\n    tag_59:\n      mload(0x40)\n      dup1\n      swap2\n      sub\n      swap1\n      revert\n    tag_58:\n        /* \"s1911027_2.sol\":10391:10395  true */\n      0x01\n        /* \"s1911027_2.sol\":10346:10395  Games[previousHostAddress].withdrawPermit == true */\n      iszero\n      iszero\n        /* \"s1911027_2.sol\":10346:10351  Games */\n      0x02\n        /* \"s1911027_2.sol\":10346:10372  Games[previousHostAddress] */\n      0x00\n        /* \"s1911027_2.sol\":10352:10371  previousHostAddress */\n      dup4\n        /* \"s1911027_2.sol\":10346:10372  Games[previousHostAddress] */\n      0xffffffffffffffffffffffffffffffffffffffff\n      and\n      0xffffffffffffffffffffffffffffffffffffffff\n      and\n      dup2\n      mstore\n      0x20\n      add\n      swap1\n      dup2\n      mstore\n      0x20\n      add\n      0x00\n      keccak256\n        /* \"s1911027_2.sol\":10346:10387  Games[previousHostAddress].withdrawPermit */\n      0x07\n      add\n      0x00\n      swap1\n      sload\n      swap1\n      0x0100\n      exp\n      swap1\n      div\n      0xff\n      and\n        /* \"s1911027_2.sol\":10346:10395  Games[previousHostAddress].withdrawPermit == true */\n      iszero\n      iszero\n      eq\n        /* \"s1911027_2.sol\":10338:10431  require(Games[previousHostAddress].withdrawPermit == true, \"Cannot withdraw during the game\") */\n      tag_61\n      jumpi\n      mload(0x40)\n      0x08c379a000000000000000000000000000000000000000000000000000000000\n      dup2\n      mstore\n      0x04\n      add\n      tag_62\n      swap1\n      tag_63\n      jump\t// in\n    tag_62:\n      mload(0x40)\n      dup1\n      swap2\n      sub\n      swap1\n      revert\n    tag_61:\n        /* \"s1911027_2.sol\":10444:10458  uint256 reward */\n      0x00\n        /* \"s1911027_2.sol\":10461:10468  Players */\n      0x01\n        /* \"s1911027_2.sol\":10461:10480  Players[msg.sender] */\n      0x00\n        /* \"s1911027_2.sol\":10469:10479  msg.sender */\n      caller\n        /* \"s1911027_2.sol\":10461:10480  Players[msg.sender] */\n      0xffffffffffffffffffffffffffffffffffffffff\n      and\n      0xffffffffffffffffffffffffffffffffffffffff\n      and\n      dup2\n      mstore\n      0x20\n      add\n      swap1\n      dup2\n      mstore\n      0x20\n      add\n      0x00\n      keccak256\n        /* \"s1911027_2.sol\":10461:10488  Players[msg.sender].balance */\n      0x00\n      add\n      sload\n        /* \"s1911027_2.sol\":10444:10488  uint256 reward = Players[msg.sender].balance */\n      swap1\n      pop\n        /* \"s1911027_2.sol\":10529:10530  0 */\n      0x00\n        /* \"s1911027_2.sol\":10499:10506  Players */\n      0x01\n        /* \"s1911027_2.sol\":10499:10518  Players[msg.sender] */\n      0x00\n        /* \"s1911027_2.sol\":10507:10517  msg.sender */\n      caller\n        /* \"s1911027_2.sol\":10499:10518  Players[msg.sender] */\n      0xffffffffffffffffffffffffffffffffffffffff\n      and\n      0xffffffffffffffffffffffffffffffffffffffff\n      and\n      dup2\n      mstore\n      0x20\n      add\n      swap1\n      dup2\n      mstore\n      0x20\n      add\n      0x00\n      keccak256\n        /* \"s1911027_2.sol\":10499:10526  Players[msg.sender].balance */\n      0x00\n      add\n        /* \"s1911027_2.sol\":10499:10530  Players[msg.sender].balance = 0 */\n      dup2\n      swap1\n      sstore\n      pop\n        /* \"s1911027_2.sol\":10549:10559  msg.sender */\n      caller\n        /* \"s1911027_2.sol\":10541:10569  payable(msg.sender).transfer */\n      0xffffffffffffffffffffffffffffffffffffffff\n      and\n        /* \"s1911027_2.sol\":10541:10577  payable(msg.sender).transfer(reward) */\n      0x08fc\n        /* \"s1911027_2.sol\":10570:10576  reward */\n      dup3\n        /* \"s1911027_2.sol\":10541:10577  payable(msg.sender).transfer(reward) */\n      swap1\n      dup2\n      iszero\n      mul\n      swap1\n      mload(0x40)\n      0x00\n      mload(0x40)\n      dup1\n      dup4\n      sub\n      dup2\n      dup6\n      dup9\n      dup9\n      call\n      swap4\n      pop\n      pop\n      pop\n      pop\n      iszero\n      dup1\n      iszero\n      tag_65\n      jumpi\n      returndatasize\n      0x00\n      dup1\n      returndatacopy\n      revert(0x00, returndatasize)\n    tag_65:\n      pop\n        /* \"s1911027_2.sol\":10247:10585  {\r... */\n      pop\n        /* \"s1911027_2.sol\":10186:10585  function withdraw(address previousHostAddress) public payable{\r... */\n      pop\n      jump\t// out\n        /* \"s1911027_2.sol\":10660:10791  function getHash(uint256 secretNumber) public returns (bytes32) {\r... */\n    tag_27:\n        /* \"s1911027_2.sol\":10715:10722  bytes32 */\n      0x00\n        /* \"s1911027_2.sol\":10769:10781  secretNumber */\n      dup2\n        /* \"s1911027_2.sol\":10752:10782  abi.encodePacked(secretNumber) */\n      add(0x20, mload(0x40))\n      tag_67\n      swap2\n      swap1\n      tag_68\n      jump\t// in\n    tag_67:\n      mload(0x40)\n      0x20\n      dup2\n      dup4\n      sub\n      sub\n      dup2\n      mstore\n      swap1\n      0x40\n      mstore\n        /* \"s1911027_2.sol\":10742:10783  keccak256(abi.encodePacked(secretNumber)) */\n      dup1\n      mload\n      swap1\n      0x20\n      add\n      keccak256\n        /* \"s1911027_2.sol\":10735:10783  return keccak256(abi.encodePacked(secretNumber)) */\n      swap1\n      pop\n        /* \"s1911027_2.sol\":10660:10791  function getHash(uint256 secretNumber) public returns (bytes32) {\r... */\n      swap2\n      swap1\n      pop\n      jump\t// out\n        /* \"s1911027_2.sol\":8306:10075  function terminateGame() public {\r... */\n    tag_32:\n        /* \"s1911027_2.sol\":8400:8401  0 */\n      0x00\n        /* \"s1911027_2.sol\":8357:8402  Players[msg.sender].hostAddress != address(0) */\n      0xffffffffffffffffffffffffffffffffffffffff\n      and\n        /* \"s1911027_2.sol\":8357:8364  Players */\n      0x01\n        /* \"s1911027_2.sol\":8357:8376  Players[msg.sender] */\n      0x00\n        /* \"s1911027_2.sol\":8365:8375  msg.sender */\n      caller\n        /* \"s1911027_2.sol\":8357:8376  Players[msg.sender] */\n      0xffffffffffffffffffffffffffffffffffffffff\n      and\n      0xffffffffffffffffffffffffffffffffffffffff\n      and\n      dup2\n      mstore\n      0x20\n      add\n      swap1\n      dup2\n      mstore\n      0x20\n      add\n      0x00\n      keccak256\n        /* \"s1911027_2.sol\":8357:8388  Players[msg.sender].hostAddress */\n      0x01\n      add\n      0x00\n      swap1\n      sload\n      swap1\n      0x0100\n      exp\n      swap1\n      div\n      0xffffffffffffffffffffffffffffffffffffffff\n      and\n        /* \"s1911027_2.sol\":8357:8402  Players[msg.sender].hostAddress != address(0) */\n      0xffffffffffffffffffffffffffffffffffffffff\n      and\n      eq\n      iszero\n        /* \"s1911027_2.sol\":8349:8428  require(Players[msg.sender].hostAddress != address(0), \"You are not in a game\") */\n      tag_70\n      jumpi\n      mload(0x40)\n      0x08c379a000000000000000000000000000000000000000000000000000000000\n      dup2\n      mstore\n      0x04\n      add\n      tag_71\n      swap1\n      tag_72\n      jump\t// in\n    tag_71:\n      mload(0x40)\n      dup1\n      swap2\n      sub\n      swap1\n      revert\n    tag_70:\n        /* \"s1911027_2.sol\":8441:8461  Game memory currGame */\n      0x00\n        /* \"s1911027_2.sol\":8464:8469  Games */\n      0x02\n        /* \"s1911027_2.sol\":8464:8502  Games[Players[msg.sender].hostAddress] */\n      0x00\n        /* \"s1911027_2.sol\":8470:8477  Players */\n      0x01\n        /* \"s1911027_2.sol\":8470:8489  Players[msg.sender] */\n      0x00\n        /* \"s1911027_2.sol\":8478:8488  msg.sender */\n      caller\n        /* \"s1911027_2.sol\":8470:8489  Players[msg.sender] */\n      0xffffffffffffffffffffffffffffffffffffffff\n      and\n      0xffffffffffffffffffffffffffffffffffffffff\n      and\n      dup2\n      mstore\n      0x20\n      add\n      swap1\n      dup2\n      mstore\n      0x20\n      add\n      0x00\n      keccak256\n        /* \"s1911027_2.sol\":8470:8501  Players[msg.sender].hostAddress */\n      0x01\n      add\n      0x00\n      swap1\n      sload\n      swap1\n      0x0100\n      exp\n      swap1\n      div\n      0xffffffffffffffffffffffffffffffffffffffff\n      and\n        /* \"s1911027_2.sol\":8464:8502  Games[Players[msg.sender].hostAddress] */\n      0xffffffffffffffffffffffffffffffffffffffff\n      and\n      0xffffffffffffffffffffffffffffffffffffffff\n      and\n      dup2\n      mstore\n      0x20\n      add\n      swap1\n      dup2\n      mstore\n      0x20\n      add\n      0x00\n      keccak256\n        /* \"s1911027_2.sol\":8441:8502  Game memory currGame = Games[Players[msg.sender].hostAddress] */\n      mload(0x40)\n      dup1\n      0x0100\n      add\n      0x40\n      mstore\n      swap1\n      dup2\n      0x00\n      dup3\n      add\n      0x00\n      swap1\n      sload\n      swap1\n      0x0100\n      exp\n      swap1\n      div\n      0xffffffffffffffffffffffffffffffffffffffff\n      and\n      0xffffffffffffffffffffffffffffffffffffffff\n      and\n      0xffffffffffffffffffffffffffffffffffffffff\n      and\n      dup2\n      mstore\n      0x20\n      add\n      0x01\n      dup3\n      add\n      sload\n      dup2\n      mstore\n      0x20\n      add\n      0x02\n      dup3\n      add\n      sload\n      dup2\n      mstore\n      0x20\n      add\n      0x03\n      dup3\n      add\n      0x00\n      swap1\n      sload\n      swap1\n      0x0100\n      exp\n      swap1\n      div\n      0xffffffffffffffffffffffffffffffffffffffff\n      and\n      0xffffffffffffffffffffffffffffffffffffffff\n      and\n      0xffffffffffffffffffffffffffffffffffffffff\n      and\n      dup2\n      mstore\n      0x20\n      add\n      0x04\n      dup3\n      add\n      sload\n      dup2\n      mstore\n      0x20\n      add\n      0x05\n      dup3\n      add\n      sload\n      dup2\n      mstore\n      0x20\n      add\n      0x06\n      dup3\n      add\n      sload\n      dup2\n      mstore\n      0x20\n      add\n      0x07\n      dup3\n      add\n      0x00\n      swap1\n      sload\n      swap1\n      0x0100\n      exp\n      swap1\n      div\n      0xff\n      and\n      iszero\n      iszero\n      iszero\n      iszero\n      dup2\n      mstore\n      pop\n      pop\n      swap1\n      pop\n        /* \"s1911027_2.sol\":8595:8596  0 */\n      0x00\n        /* \"s1911027_2.sol\":8573:8596  currGame.guestHash == 0 */\n      dup1\n      shl\n        /* \"s1911027_2.sol\":8573:8581  currGame */\n      dup2\n        /* \"s1911027_2.sol\":8573:8591  currGame.guestHash */\n      0x80\n      add\n      mload\n        /* \"s1911027_2.sol\":8573:8596  currGame.guestHash == 0 */\n      eq\n        /* \"s1911027_2.sol\":8569:9490  if (currGame.guestHash == 0) {\r... */\n      iszero\n      tag_73\n      jumpi\n        /* \"s1911027_2.sol\":8658:8659  3 */\n      0x03\n        /* \"s1911027_2.sol\":8636:8644  currGame */\n      dup2\n        /* \"s1911027_2.sol\":8636:8654  currGame.lastBlock */\n      0xc0\n      add\n      mload\n        /* \"s1911027_2.sol\":8621:8633  block.number */\n      number\n        /* \"s1911027_2.sol\":8621:8654  block.number - currGame.lastBlock */\n      tag_74\n      swap2\n      swap1\n      tag_75\n      jump\t// in\n    tag_74:\n        /* \"s1911027_2.sol\":8621:8659  block.number - currGame.lastBlock >= 3 */\n      lt\n      iszero\n        /* \"s1911027_2.sol\":8613:8706  require(block.number - currGame.lastBlock >= 3, \"You cannot terminate the game now, check 1\") */\n      tag_76\n      jumpi\n      mload(0x40)\n      0x08c379a000000000000000000000000000000000000000000000000000000000\n      dup2\n      mstore\n      0x04\n      add\n      tag_77\n      swap1\n      tag_78\n      jump\t// in\n    tag_77:\n      mload(0x40)\n      dup1\n      swap2\n      sub\n      swap1\n      revert\n    tag_76:\n        /* \"s1911027_2.sol\":8721:8766  resetGameAll(Players[msg.sender].hostAddress) */\n      tag_79\n        /* \"s1911027_2.sol\":8734:8741  Players */\n      0x01\n        /* \"s1911027_2.sol\":8734:8753  Players[msg.sender] */\n      0x00\n        /* \"s1911027_2.sol\":8742:8752  msg.sender */\n      caller\n        /* \"s1911027_2.sol\":8734:8753  Players[msg.sender] */\n      0xffffffffffffffffffffffffffffffffffffffff\n      and\n      0xffffffffffffffffffffffffffffffffffffffff\n      and\n      dup2\n      mstore\n      0x20\n      add\n      swap1\n      dup2\n      mstore\n      0x20\n      add\n      0x00\n      keccak256\n        /* \"s1911027_2.sol\":8734:8765  Players[msg.sender].hostAddress */\n      0x01\n      add\n      0x00\n      swap1\n      sload\n      swap1\n      0x0100\n      exp\n      swap1\n      div\n      0xffffffffffffffffffffffffffffffffffffffff\n      and\n        /* \"s1911027_2.sol\":8721:8733  resetGameAll */\n      tag_80\n        /* \"s1911027_2.sol\":8721:8766  resetGameAll(Players[msg.sender].hostAddress) */\n      jump\t// in\n    tag_79:\n        /* \"s1911027_2.sol\":8569:9490  if (currGame.guestHash == 0) {\r... */\n      jump(tag_81)\n    tag_73:\n        /* \"s1911027_2.sol\":8818:8819  0 */\n      0x00\n        /* \"s1911027_2.sol\":8788:8796  currGame */\n      dup2\n        /* \"s1911027_2.sol\":8788:8814  currGame.guestSecretNumber */\n      0xa0\n      add\n      mload\n        /* \"s1911027_2.sol\":8788:8819  currGame.guestSecretNumber == 0 */\n      eq\n        /* \"s1911027_2.sol\":8784:9490  if (currGame.guestSecretNumber == 0) {    // host can cancel the game if the guest join but not verify\r... */\n      iszero\n      tag_82\n      jumpi\n        /* \"s1911027_2.sol\":8945:8947  20 */\n      0x14\n        /* \"s1911027_2.sol\":8923:8931  currGame */\n      dup2\n        /* \"s1911027_2.sol\":8923:8941  currGame.lastBlock */\n      0xc0\n      add\n      mload\n        /* \"s1911027_2.sol\":8908:8920  block.number */\n      number\n        /* \"s1911027_2.sol\":8908:8941  block.number - currGame.lastBlock */\n      tag_83\n      swap2\n      swap1\n      tag_75\n      jump\t// in\n    tag_83:\n        /* \"s1911027_2.sol\":8908:8947  block.number - currGame.lastBlock >= 20 */\n      lt\n      iszero\n        /* \"s1911027_2.sol\":8900:8994  require(block.number - currGame.lastBlock >= 20, \"You cannot terminate the game now, check 2\") */\n      tag_84\n      jumpi\n      mload(0x40)\n      0x08c379a000000000000000000000000000000000000000000000000000000000\n      dup2\n      mstore\n      0x04\n      add\n      tag_85\n      swap1\n      tag_86\n      jump\t// in\n    tag_85:\n      mload(0x40)\n      dup1\n      swap2\n      sub\n      swap1\n      revert\n    tag_84:\n        /* \"s1911027_2.sol\":9042:9043  0 */\n      0x00\n        /* \"s1911027_2.sol\":9013:9021  currGame */\n      dup2\n        /* \"s1911027_2.sol\":9013:9038  currGame.hostSecretNumber */\n      0x40\n      add\n      mload\n        /* \"s1911027_2.sol\":9013:9043  currGame.hostSecretNumber != 0 */\n      eq\n        /* \"s1911027_2.sol\":9009:9478  if (currGame.hostSecretNumber != 0) { // host verified, guest not verified, host get guest deposit and terminate the game\r... */\n      tag_87\n      jumpi\n        /* \"s1911027_2.sol\":9183:9190  1 ether */\n      0x0de0b6b3a7640000\n        /* \"s1911027_2.sol\":9148:9155  Players */\n      0x01\n        /* \"s1911027_2.sol\":9148:9171  Players[currGame.guest] */\n      0x00\n        /* \"s1911027_2.sol\":9156:9164  currGame */\n      dup4\n        /* \"s1911027_2.sol\":9156:9170  currGame.guest */\n      0x60\n      add\n      mload\n        /* \"s1911027_2.sol\":9148:9171  Players[currGame.guest] */\n      0xffffffffffffffffffffffffffffffffffffffff\n      and\n      0xffffffffffffffffffffffffffffffffffffffff\n      and\n      dup2\n      mstore\n      0x20\n      add\n      swap1\n      dup2\n      mstore\n      0x20\n      add\n      0x00\n      keccak256\n        /* \"s1911027_2.sol\":9148:9179  Players[currGame.guest].balance */\n      0x00\n      add\n      0x00\n        /* \"s1911027_2.sol\":9148:9190  Players[currGame.guest].balance -= 1 ether */\n      dup3\n      dup3\n      sload\n      tag_88\n      swap2\n      swap1\n      tag_75\n      jump\t// in\n    tag_88:\n      swap3\n      pop\n      pop\n      dup2\n      swap1\n      sstore\n      pop\n        /* \"s1911027_2.sol\":9243:9250  1 ether */\n      0x0de0b6b3a7640000\n        /* \"s1911027_2.sol\":9209:9216  Players */\n      0x01\n        /* \"s1911027_2.sol\":9209:9231  Players[currGame.host] */\n      0x00\n        /* \"s1911027_2.sol\":9217:9225  currGame */\n      dup4\n        /* \"s1911027_2.sol\":9217:9230  currGame.host */\n      0x00\n      add\n      mload\n        /* \"s1911027_2.sol\":9209:9231  Players[currGame.host] */\n      0xffffffffffffffffffffffffffffffffffffffff\n      and\n      0xffffffffffffffffffffffffffffffffffffffff\n      and\n      dup2\n      mstore\n      0x20\n      add\n      swap1\n      dup2\n      mstore\n      0x20\n      add\n      0x00\n      keccak256\n        /* \"s1911027_2.sol\":9209:9239  Players[currGame.host].balance */\n      0x00\n      add\n      0x00\n        /* \"s1911027_2.sol\":9209:9250  Players[currGame.host].balance += 1 ether */\n      dup3\n      dup3\n      sload\n      tag_89\n      swap2\n      swap1\n      tag_90\n      jump\t// in\n    tag_89:\n      swap3\n      pop\n      pop\n      dup2\n      swap1\n      sstore\n      pop\n        /* \"s1911027_2.sol\":9269:9314  resetGameAll(Players[msg.sender].hostAddress) */\n      tag_91\n        /* \"s1911027_2.sol\":9282:9289  Players */\n      0x01\n        /* \"s1911027_2.sol\":9282:9301  Players[msg.sender] */\n      0x00\n        /* \"s1911027_2.sol\":9290:9300  msg.sender */\n      caller\n        /* \"s1911027_2.sol\":9282:9301  Players[msg.sender] */\n      0xffffffffffffffffffffffffffffffffffffffff\n      and\n      0xffffffffffffffffffffffffffffffffffffffff\n      and\n      dup2\n      mstore\n      0x20\n      add\n      swap1\n      dup2\n      mstore\n      0x20\n      add\n      0x00\n      keccak256\n        /* \"s1911027_2.sol\":9282:9313  Players[msg.sender].hostAddress */\n      0x01\n      add\n      0x00\n      swap1\n      sload\n      swap1\n      0x0100\n      exp\n      swap1\n      div\n      0xffffffffffffffffffffffffffffffffffffffff\n      and\n        /* \"s1911027_2.sol\":9269:9281  resetGameAll */\n      tag_80\n        /* \"s1911027_2.sol\":9269:9314  resetGameAll(Players[msg.sender].hostAddress) */\n      jump\t// in\n    tag_91:\n        /* \"s1911027_2.sol\":9009:9478  if (currGame.hostSecretNumber != 0) { // host verified, guest not verified, host get guest deposit and terminate the game\r... */\n      jump(tag_92)\n    tag_87:\n        /* \"s1911027_2.sol\":9433:9478  resetGameAll(Players[msg.sender].hostAddress) */\n      tag_93\n        /* \"s1911027_2.sol\":9446:9453  Players */\n      0x01\n        /* \"s1911027_2.sol\":9446:9465  Players[msg.sender] */\n      0x00\n        /* \"s1911027_2.sol\":9454:9464  msg.sender */\n      caller\n        /* \"s1911027_2.sol\":9446:9465  Players[msg.sender] */\n      0xffffffffffffffffffffffffffffffffffffffff\n      and\n      0xffffffffffffffffffffffffffffffffffffffff\n      and\n      dup2\n      mstore\n      0x20\n      add\n      swap1\n      dup2\n      mstore\n      0x20\n      add\n      0x00\n      keccak256\n        /* \"s1911027_2.sol\":9446:9477  Players[msg.sender].hostAddress */\n      0x01\n      add\n      0x00\n      swap1\n      sload\n      swap1\n      0x0100\n      exp\n      swap1\n      div\n      0xffffffffffffffffffffffffffffffffffffffff\n      and\n        /* \"s1911027_2.sol\":9433:9445  resetGameAll */\n      tag_80\n        /* \"s1911027_2.sol\":9433:9478  resetGameAll(Players[msg.sender].hostAddress) */\n      jump\t// in\n    tag_93:\n        /* \"s1911027_2.sol\":9009:9478  if (currGame.hostSecretNumber != 0) { // host verified, guest not verified, host get guest deposit and terminate the game\r... */\n    tag_92:\n        /* \"s1911027_2.sol\":8784:9490  if (currGame.guestSecretNumber == 0) {    // host can cancel the game if the guest join but not verify\r... */\n    tag_82:\n        /* \"s1911027_2.sol\":8569:9490  if (currGame.guestHash == 0) {\r... */\n    tag_81:\n        /* \"s1911027_2.sol\":9614:9615  0 */\n      0x00\n        /* \"s1911027_2.sol\":9585:9593  currGame */\n      dup2\n        /* \"s1911027_2.sol\":9585:9610  currGame.hostSecretNumber */\n      0x40\n      add\n      mload\n        /* \"s1911027_2.sol\":9585:9615  currGame.hostSecretNumber == 0 */\n      eq\n        /* \"s1911027_2.sol\":9581:9725  if (currGame.hostSecretNumber == 0) \r... */\n      iszero\n      tag_94\n      jumpi\n        /* \"s1911027_2.sol\":9676:9678  20 */\n      0x14\n        /* \"s1911027_2.sol\":9654:9662  currGame */\n      dup2\n        /* \"s1911027_2.sol\":9654:9672  currGame.lastBlock */\n      0xc0\n      add\n      mload\n        /* \"s1911027_2.sol\":9639:9651  block.number */\n      number\n        /* \"s1911027_2.sol\":9639:9672  block.number - currGame.lastBlock */\n      tag_95\n      swap2\n      swap1\n      tag_75\n      jump\t// in\n    tag_95:\n        /* \"s1911027_2.sol\":9639:9678  block.number - currGame.lastBlock >= 20 */\n      lt\n      iszero\n        /* \"s1911027_2.sol\":9631:9725  require(block.number - currGame.lastBlock >= 20, \"You cannot terminate the game now, check 3\") */\n      tag_96\n      jumpi\n      mload(0x40)\n      0x08c379a000000000000000000000000000000000000000000000000000000000\n      dup2\n      mstore\n      0x04\n      add\n      tag_97\n      swap1\n      tag_98\n      jump\t// in\n    tag_97:\n      mload(0x40)\n      dup1\n      swap2\n      sub\n      swap1\n      revert\n    tag_96:\n        /* \"s1911027_2.sol\":9581:9725  if (currGame.hostSecretNumber == 0) \r... */\n    tag_94:\n        /* \"s1911027_2.sol\":9774:9775  0 */\n      0x00\n        /* \"s1911027_2.sol\":9744:9752  currGame */\n      dup2\n        /* \"s1911027_2.sol\":9744:9770  currGame.guestSecretNumber */\n      0xa0\n      add\n      mload\n        /* \"s1911027_2.sol\":9744:9775  currGame.guestSecretNumber != 0 */\n      eq\n        /* \"s1911027_2.sol\":9740:10064  if (currGame.guestSecretNumber != 0) {\r... */\n      tag_99\n      jumpi\n        /* \"s1911027_2.sol\":9830:9837  1 ether */\n      0x0de0b6b3a7640000\n        /* \"s1911027_2.sol\":9796:9803  Players */\n      0x01\n        /* \"s1911027_2.sol\":9796:9818  Players[currGame.host] */\n      0x00\n        /* \"s1911027_2.sol\":9804:9812  currGame */\n      dup4\n        /* \"s1911027_2.sol\":9804:9817  currGame.host */\n      0x00\n      add\n      mload\n        /* \"s1911027_2.sol\":9796:9818  Players[currGame.host] */\n      0xffffffffffffffffffffffffffffffffffffffff\n      and\n      0xffffffffffffffffffffffffffffffffffffffff\n      and\n      dup2\n      mstore\n      0x20\n      add\n      swap1\n      dup2\n      mstore\n      0x20\n      add\n      0x00\n      keccak256\n        /* \"s1911027_2.sol\":9796:9826  Players[currGame.host].balance */\n      0x00\n      add\n      0x00\n        /* \"s1911027_2.sol\":9796:9837  Players[currGame.host].balance -= 1 ether */\n      dup3\n      dup3\n      sload\n      tag_100\n      swap2\n      swap1\n      tag_75\n      jump\t// in\n    tag_100:\n      swap3\n      pop\n      pop\n      dup2\n      swap1\n      sstore\n      pop\n        /* \"s1911027_2.sol\":9891:9898  1 ether */\n      0x0de0b6b3a7640000\n        /* \"s1911027_2.sol\":9856:9863  Players */\n      0x01\n        /* \"s1911027_2.sol\":9856:9879  Players[currGame.guest] */\n      0x00\n        /* \"s1911027_2.sol\":9864:9872  currGame */\n      dup4\n        /* \"s1911027_2.sol\":9864:9878  currGame.guest */\n      0x60\n      add\n      mload\n        /* \"s1911027_2.sol\":9856:9879  Players[currGame.guest] */\n      0xffffffffffffffffffffffffffffffffffffffff\n      and\n      0xffffffffffffffffffffffffffffffffffffffff\n      and\n      dup2\n      mstore\n      0x20\n      add\n      swap1\n      dup2\n      mstore\n      0x20\n      add\n      0x00\n      keccak256\n        /* \"s1911027_2.sol\":9856:9887  Players[currGame.guest].balance */\n      0x00\n      add\n      0x00\n        /* \"s1911027_2.sol\":9856:9898  Players[currGame.guest].balance += 1 ether */\n      dup3\n      dup3\n      sload\n      tag_101\n      swap2\n      swap1\n      tag_90\n      jump\t// in\n    tag_101:\n      swap3\n      pop\n      pop\n      dup2\n      swap1\n      sstore\n      pop\n        /* \"s1911027_2.sol\":9917:9962  resetGameAll(Players[msg.sender].hostAddress) */\n      tag_102\n        /* \"s1911027_2.sol\":9930:9937  Players */\n      0x01\n        /* \"s1911027_2.sol\":9930:9949  Players[msg.sender] */\n      0x00\n        /* \"s1911027_2.sol\":9938:9948  msg.sender */\n      caller\n        /* \"s1911027_2.sol\":9930:9949  Players[msg.sender] */\n      0xffffffffffffffffffffffffffffffffffffffff\n      and\n      0xffffffffffffffffffffffffffffffffffffffff\n      and\n      dup2\n      mstore\n      0x20\n      add\n      swap1\n      dup2\n      mstore\n      0x20\n      add\n      0x00\n      keccak256\n        /* \"s1911027_2.sol\":9930:9961  Players[msg.sender].hostAddress */\n      0x01\n      add\n      0x00\n      swap1\n      sload\n      swap1\n      0x0100\n      exp\n      swap1\n      div\n      0xffffffffffffffffffffffffffffffffffffffff\n      and\n        /* \"s1911027_2.sol\":9917:9929  resetGameAll */\n      tag_80\n        /* \"s1911027_2.sol\":9917:9962  resetGameAll(Players[msg.sender].hostAddress) */\n      jump\t// in\n    tag_102:\n        /* \"s1911027_2.sol\":9740:10064  if (currGame.guestSecretNumber != 0) {\r... */\n      jump(tag_103)\n    tag_99:\n        /* \"s1911027_2.sol\":10003:10048  resetGameAll(Players[msg.sender].hostAddress) */\n      tag_104\n        /* \"s1911027_2.sol\":10016:10023  Players */\n      0x01\n        /* \"s1911027_2.sol\":10016:10035  Players[msg.sender] */\n      0x00\n        /* \"s1911027_2.sol\":10024:10034  msg.sender */\n      caller\n        /* \"s1911027_2.sol\":10016:10035  Players[msg.sender] */\n      0xffffffffffffffffffffffffffffffffffffffff\n      and\n      0xffffffffffffffffffffffffffffffffffffffff\n      and\n      dup2\n      mstore\n      0x20\n      add\n      swap1\n      dup2\n      mstore\n      0x20\n      add\n      0x00\n      keccak256\n        /* \"s1911027_2.sol\":10016:10047  Players[msg.sender].hostAddress */\n      0x01\n      add\n      0x00\n      swap1\n      sload\n      swap1\n      0x0100\n      exp\n      swap1\n      div\n      0xffffffffffffffffffffffffffffffffffffffff\n      and\n        /* \"s1911027_2.sol\":10003:10015  resetGameAll */\n      tag_80\n        /* \"s1911027_2.sol\":10003:10048  resetGameAll(Players[msg.sender].hostAddress) */\n      jump\t// in\n    tag_104:\n        /* \"s1911027_2.sol\":9740:10064  if (currGame.guestSecretNumber != 0) {\r... */\n    tag_103:\n        /* \"s1911027_2.sol\":8338:10075  {\r... */\n      pop\n        /* \"s1911027_2.sol\":8306:10075  function terminateGame() public {\r... */\n      jump\t// out\n        /* \"s1911027_2.sol\":2741:3265  function createPublicGame(bytes32 hostHash) payable public {\r... */\n    tag_36:\n        /* \"s1911027_2.sol\":2862:2863  0 */\n      0x00\n        /* \"s1911027_2.sol\":2819:2864  Players[msg.sender].hostAddress == address(0) */\n      0xffffffffffffffffffffffffffffffffffffffff\n      and\n        /* \"s1911027_2.sol\":2819:2826  Players */\n      0x01\n        /* \"s1911027_2.sol\":2819:2838  Players[msg.sender] */\n      0x00\n        /* \"s1911027_2.sol\":2827:2837  msg.sender */\n      caller\n        /* \"s1911027_2.sol\":2819:2838  Players[msg.sender] */\n      0xffffffffffffffffffffffffffffffffffffffff\n      and\n      0xffffffffffffffffffffffffffffffffffffffff\n      and\n      dup2\n      mstore\n      0x20\n      add\n      swap1\n      dup2\n      mstore\n      0x20\n      add\n      0x00\n      keccak256\n        /* \"s1911027_2.sol\":2819:2850  Players[msg.sender].hostAddress */\n      0x01\n      add\n      0x00\n      swap1\n      sload\n      swap1\n      0x0100\n      exp\n      swap1\n      div\n      0xffffffffffffffffffffffffffffffffffffffff\n      and\n        /* \"s1911027_2.sol\":2819:2864  Players[msg.sender].hostAddress == address(0) */\n      0xffffffffffffffffffffffffffffffffffffffff\n      and\n      eq\n        /* \"s1911027_2.sol\":2811:2890  require(Players[msg.sender].hostAddress == address(0), \"You already in a game\") */\n      tag_106\n      jumpi\n      mload(0x40)\n      0x08c379a000000000000000000000000000000000000000000000000000000000\n      dup2\n      mstore\n      0x04\n      add\n      tag_107\n      swap1\n      tag_108\n      jump\t// in\n    tag_107:\n      mload(0x40)\n      dup1\n      swap2\n      sub\n      swap1\n      revert\n    tag_106:\n        /* \"s1911027_2.sol\":2952:2959  3 ether */\n      0x29a2241af62c0000\n        /* \"s1911027_2.sol\":2939:2948  msg.value */\n      callvalue\n        /* \"s1911027_2.sol\":2909:2916  Players */\n      0x01\n        /* \"s1911027_2.sol\":2909:2928  Players[msg.sender] */\n      0x00\n        /* \"s1911027_2.sol\":2917:2927  msg.sender */\n      caller\n        /* \"s1911027_2.sol\":2909:2928  Players[msg.sender] */\n      0xffffffffffffffffffffffffffffffffffffffff\n      and\n      0xffffffffffffffffffffffffffffffffffffffff\n      and\n      dup2\n      mstore\n      0x20\n      add\n      swap1\n      dup2\n      mstore\n      0x20\n      add\n      0x00\n      keccak256\n        /* \"s1911027_2.sol\":2909:2936  Players[msg.sender].balance */\n      0x00\n      add\n      sload\n        /* \"s1911027_2.sol\":2909:2948  Players[msg.sender].balance + msg.value */\n      tag_109\n      swap2\n      swap1\n      tag_90\n      jump\t// in\n    tag_109:\n        /* \"s1911027_2.sol\":2909:2959  Players[msg.sender].balance + msg.value >= 3 ether */\n      lt\n      iszero\n        /* \"s1911027_2.sol\":2901:3012  require(Players[msg.sender].balance + msg.value >= 3 ether, \"You should have at least 3 eth to start the game\") */\n      tag_110\n      jumpi\n      mload(0x40)\n      0x08c379a000000000000000000000000000000000000000000000000000000000\n      dup2\n      mstore\n      0x04\n      add\n      tag_111\n      swap1\n      tag_112\n      jump\t// in\n    tag_111:\n      mload(0x40)\n      dup1\n      swap2\n      sub\n      swap1\n      revert\n    tag_110:\n        /* \"s1911027_2.sol\":3023:3042  Game memory newGame */\n      0x00\n        /* \"s1911027_2.sol\":3045:3113  Game(msg.sender, hostHash, 0, address(0), 0, 0, block.number, false) */\n      mload(0x40)\n      dup1\n      0x0100\n      add\n      0x40\n      mstore\n      dup1\n        /* \"s1911027_2.sol\":3050:3060  msg.sender */\n      caller\n        /* \"s1911027_2.sol\":3045:3113  Game(msg.sender, hostHash, 0, address(0), 0, 0, block.number, false) */\n      0xffffffffffffffffffffffffffffffffffffffff\n      and\n      dup2\n      mstore\n      0x20\n      add\n        /* \"s1911027_2.sol\":3062:3070  hostHash */\n      dup4\n        /* \"s1911027_2.sol\":3045:3113  Game(msg.sender, hostHash, 0, address(0), 0, 0, block.number, false) */\n      dup2\n      mstore\n      0x20\n      add\n        /* \"s1911027_2.sol\":3072:3073  0 */\n      0x00\n        /* \"s1911027_2.sol\":3045:3113  Game(msg.sender, hostHash, 0, address(0), 0, 0, block.number, false) */\n      dup2\n      mstore\n      0x20\n      add\n        /* \"s1911027_2.sol\":3083:3084  0 */\n      0x00\n        /* \"s1911027_2.sol\":3045:3113  Game(msg.sender, hostHash, 0, address(0), 0, 0, block.number, false) */\n      0xffffffffffffffffffffffffffffffffffffffff\n      and\n      dup2\n      mstore\n      0x20\n      add\n        /* \"s1911027_2.sol\":3087:3088  0 */\n      0x00\n        /* \"s1911027_2.sol\":3045:3113  Game(msg.sender, hostHash, 0, address(0), 0, 0, block.number, false) */\n      dup1\n      shl\n      dup2\n      mstore\n      0x20\n      add\n        /* \"s1911027_2.sol\":3090:3091  0 */\n      0x00\n        /* \"s1911027_2.sol\":3045:3113  Game(msg.sender, hostHash, 0, address(0), 0, 0, block.number, false) */\n      dup2\n      mstore\n      0x20\n      add\n        /* \"s1911027_2.sol\":3093:3105  block.number */\n      number\n        /* \"s1911027_2.sol\":3045:3113  Game(msg.sender, hostHash, 0, address(0), 0, 0, block.number, false) */\n      dup2\n      mstore\n      0x20\n      add\n        /* \"s1911027_2.sol\":3107:3112  false */\n      0x00\n        /* \"s1911027_2.sol\":3045:3113  Game(msg.sender, hostHash, 0, address(0), 0, 0, block.number, false) */\n      iszero\n      iszero\n      dup2\n      mstore\n      pop\n        /* \"s1911027_2.sol\":3023:3113  Game memory newGame = Game(msg.sender, hostHash, 0, address(0), 0, 0, block.number, false) */\n      swap1\n      pop\n        /* \"s1911027_2.sol\":3144:3151  newGame */\n      dup1\n        /* \"s1911027_2.sol\":3124:3129  Games */\n      0x02\n        /* \"s1911027_2.sol\":3124:3141  Games[msg.sender] */\n      0x00\n        /* \"s1911027_2.sol\":3130:3140  msg.sender */\n      caller\n        /* \"s1911027_2.sol\":3124:3141  Games[msg.sender] */\n      0xffffffffffffffffffffffffffffffffffffffff\n      and\n      0xffffffffffffffffffffffffffffffffffffffff\n      and\n      dup2\n      mstore\n      0x20\n      add\n      swap1\n      dup2\n      mstore\n      0x20\n      add\n      0x00\n      keccak256\n        /* \"s1911027_2.sol\":3124:3151  Games[msg.sender] = newGame */\n      0x00\n      dup3\n      add\n      mload\n      dup2\n      0x00\n      add\n      exp(0x0100, 0x00)\n      dup2\n      sload\n      dup2\n      0xffffffffffffffffffffffffffffffffffffffff\n      mul\n      not\n      and\n      swap1\n      dup4\n      0xffffffffffffffffffffffffffffffffffffffff\n      and\n      mul\n      or\n      swap1\n      sstore\n      pop\n      0x20\n      dup3\n      add\n      mload\n      dup2\n      0x01\n      add\n      sstore\n      0x40\n      dup3\n      add\n      mload\n      dup2\n      0x02\n      add\n      sstore\n      0x60\n      dup3\n      add\n      mload\n      dup2\n      0x03\n      add\n      exp(0x0100, 0x00)\n      dup2\n      sload\n      dup2\n      0xffffffffffffffffffffffffffffffffffffffff\n      mul\n      not\n      and\n      swap1\n      dup4\n      0xffffffffffffffffffffffffffffffffffffffff\n      and\n      mul\n      or\n      swap1\n      sstore\n      pop\n      0x80\n      dup3\n      add\n      mload\n      dup2\n      0x04\n      add\n      sstore\n      0xa0\n      dup3\n      add\n      mload\n      dup2\n      0x05\n      add\n      sstore\n      0xc0\n      dup3\n      add\n      mload\n      dup2\n      0x06\n      add\n      sstore\n      0xe0\n      dup3\n      add\n      mload\n      dup2\n      0x07\n      add\n      exp(0x0100, 0x00)\n      dup2\n      sload\n      dup2\n      0xff\n      mul\n      not\n      and\n      swap1\n      dup4\n      iszero\n      iszero\n      mul\n      or\n      swap1\n      sstore\n      pop\n      swap1\n      pop\n      pop\n        /* \"s1911027_2.sol\":3193:3202  msg.value */\n      callvalue\n        /* \"s1911027_2.sol\":3162:3169  Players */\n      0x01\n        /* \"s1911027_2.sol\":3162:3181  Players[msg.sender] */\n      0x00\n        /* \"s1911027_2.sol\":3170:3180  msg.sender */\n      caller\n        /* \"s1911027_2.sol\":3162:3181  Players[msg.sender] */\n      0xffffffffffffffffffffffffffffffffffffffff\n      and\n      0xffffffffffffffffffffffffffffffffffffffff\n      and\n      dup2\n      mstore\n      0x20\n      add\n      swap1\n      dup2\n      mstore\n      0x20\n      add\n      0x00\n      keccak256\n        /* \"s1911027_2.sol\":3162:3189  Players[msg.sender].balance */\n      0x00\n      add\n      0x00\n        /* \"s1911027_2.sol\":3162:3202  Players[msg.sender].balance += msg.value */\n      dup3\n      dup3\n      sload\n      tag_113\n      swap2\n      swap1\n      tag_90\n      jump\t// in\n    tag_113:\n      swap3\n      pop\n      pop\n      dup2\n      swap1\n      sstore\n      pop\n        /* \"s1911027_2.sol\":3247:3257  msg.sender */\n      caller\n        /* \"s1911027_2.sol\":3213:3220  Players */\n      0x01\n        /* \"s1911027_2.sol\":3213:3232  Players[msg.sender] */\n      0x00\n        /* \"s1911027_2.sol\":3221:3231  msg.sender */\n      caller\n        /* \"s1911027_2.sol\":3213:3232  Players[msg.sender] */\n      0xffffffffffffffffffffffffffffffffffffffff\n      and\n      0xffffffffffffffffffffffffffffffffffffffff\n      and\n      dup2\n      mstore\n      0x20\n      add\n      swap1\n      dup2\n      mstore\n      0x20\n      add\n      0x00\n      keccak256\n        /* \"s1911027_2.sol\":3213:3244  Players[msg.sender].hostAddress */\n      0x01\n      add\n      0x00\n        /* \"s1911027_2.sol\":3213:3257  Players[msg.sender].hostAddress = msg.sender */\n      0x0100\n      exp\n      dup2\n      sload\n      dup2\n      0xffffffffffffffffffffffffffffffffffffffff\n      mul\n      not\n      and\n      swap1\n      dup4\n      0xffffffffffffffffffffffffffffffffffffffff\n      and\n      mul\n      or\n      swap1\n      sstore\n      pop\n        /* \"s1911027_2.sol\":2800:3265  {\r... */\n      pop\n        /* \"s1911027_2.sol\":2741:3265  function createPublicGame(bytes32 hostHash) payable public {\r... */\n      pop\n      jump\t// out\n        /* \"s1911027_2.sol\":5131:6629  function verification(uint256 secretNumber) public {\r... */\n    tag_40:\n        /* \"s1911027_2.sol\":5331:5332  0 */\n      0x00\n        /* \"s1911027_2.sol\":5275:5333  Games[Players[msg.sender].hostAddress].guest != address(0) */\n      0xffffffffffffffffffffffffffffffffffffffff\n      and\n        /* \"s1911027_2.sol\":5275:5280  Games */\n      0x02\n        /* \"s1911027_2.sol\":5275:5313  Games[Players[msg.sender].hostAddress] */\n      0x00\n        /* \"s1911027_2.sol\":5281:5288  Players */\n      0x01\n        /* \"s1911027_2.sol\":5281:5300  Players[msg.sender] */\n      0x00\n        /* \"s1911027_2.sol\":5289:5299  msg.sender */\n      caller\n        /* \"s1911027_2.sol\":5281:5300  Players[msg.sender] */\n      0xffffffffffffffffffffffffffffffffffffffff\n      and\n      0xffffffffffffffffffffffffffffffffffffffff\n      and\n      dup2\n      mstore\n      0x20\n      add\n      swap1\n      dup2\n      mstore\n      0x20\n      add\n      0x00\n      keccak256\n        /* \"s1911027_2.sol\":5281:5312  Players[msg.sender].hostAddress */\n      0x01\n      add\n      0x00\n      swap1\n      sload\n      swap1\n      0x0100\n      exp\n      swap1\n      div\n      0xffffffffffffffffffffffffffffffffffffffff\n      and\n        /* \"s1911027_2.sol\":5275:5313  Games[Players[msg.sender].hostAddress] */\n      0xffffffffffffffffffffffffffffffffffffffff\n      and\n      0xffffffffffffffffffffffffffffffffffffffff\n      and\n      dup2\n      mstore\n      0x20\n      add\n      swap1\n      dup2\n      mstore\n      0x20\n      add\n      0x00\n      keccak256\n        /* \"s1911027_2.sol\":5275:5319  Games[Players[msg.sender].hostAddress].guest */\n      0x03\n      add\n      0x00\n      swap1\n      sload\n      swap1\n      0x0100\n      exp\n      swap1\n      div\n      0xffffffffffffffffffffffffffffffffffffffff\n      and\n        /* \"s1911027_2.sol\":5275:5333  Games[Players[msg.sender].hostAddress].guest != address(0) */\n      0xffffffffffffffffffffffffffffffffffffffff\n      and\n      eq\n      iszero\n        /* \"s1911027_2.sol\":5267:5372  require(Games[Players[msg.sender].hostAddress].guest != address(0), \"Waiting for guest to join the game\") */\n      tag_115\n      jumpi\n      mload(0x40)\n      0x08c379a000000000000000000000000000000000000000000000000000000000\n      dup2\n      mstore\n      0x04\n      add\n      tag_116\n      swap1\n      tag_117\n      jump\t// in\n    tag_116:\n      mload(0x40)\n      dup1\n      swap2\n      sub\n      swap1\n      revert\n    tag_115:\n        /* \"s1911027_2.sol\":5446:5447  0 */\n      0x00\n        /* \"s1911027_2.sol\":5391:5448  Games[Players[msg.sender].hostAddress].host != address(0) */\n      0xffffffffffffffffffffffffffffffffffffffff\n      and\n        /* \"s1911027_2.sol\":5391:5396  Games */\n      0x02\n        /* \"s1911027_2.sol\":5391:5429  Games[Players[msg.sender].hostAddress] */\n      0x00\n        /* \"s1911027_2.sol\":5397:5404  Players */\n      0x01\n        /* \"s1911027_2.sol\":5397:5416  Players[msg.sender] */\n      0x00\n        /* \"s1911027_2.sol\":5405:5415  msg.sender */\n      caller\n        /* \"s1911027_2.sol\":5397:5416  Players[msg.sender] */\n      0xffffffffffffffffffffffffffffffffffffffff\n      and\n      0xffffffffffffffffffffffffffffffffffffffff\n      and\n      dup2\n      mstore\n      0x20\n      add\n      swap1\n      dup2\n      mstore\n      0x20\n      add\n      0x00\n      keccak256\n        /* \"s1911027_2.sol\":5397:5428  Players[msg.sender].hostAddress */\n      0x01\n      add\n      0x00\n      swap1\n      sload\n      swap1\n      0x0100\n      exp\n      swap1\n      div\n      0xffffffffffffffffffffffffffffffffffffffff\n      and\n        /* \"s1911027_2.sol\":5391:5429  Games[Players[msg.sender].hostAddress] */\n      0xffffffffffffffffffffffffffffffffffffffff\n      and\n      0xffffffffffffffffffffffffffffffffffffffff\n      and\n      dup2\n      mstore\n      0x20\n      add\n      swap1\n      dup2\n      mstore\n      0x20\n      add\n      0x00\n      keccak256\n        /* \"s1911027_2.sol\":5391:5434  Games[Players[msg.sender].hostAddress].host */\n      0x00\n      add\n      0x00\n      swap1\n      sload\n      swap1\n      0x0100\n      exp\n      swap1\n      div\n      0xffffffffffffffffffffffffffffffffffffffff\n      and\n        /* \"s1911027_2.sol\":5391:5448  Games[Players[msg.sender].hostAddress].host != address(0) */\n      0xffffffffffffffffffffffffffffffffffffffff\n      and\n      eq\n      iszero\n        /* \"s1911027_2.sol\":5383:5487  require(Games[Players[msg.sender].hostAddress].host != address(0), \"Can not find the host of your game\") */\n      tag_118\n      jumpi\n      mload(0x40)\n      0x08c379a000000000000000000000000000000000000000000000000000000000\n      dup2\n      mstore\n      0x04\n      add\n      tag_119\n      swap1\n      tag_120\n      jump\t// in\n    tag_119:\n      mload(0x40)\n      dup1\n      swap2\n      sub\n      swap1\n      revert\n    tag_118:\n        /* \"s1911027_2.sol\":5585:5595  msg.sender */\n      caller\n        /* \"s1911027_2.sol\":5538:5595  Games[Players[msg.sender].hostAddress].host == msg.sender */\n      0xffffffffffffffffffffffffffffffffffffffff\n      and\n        /* \"s1911027_2.sol\":5538:5543  Games */\n      0x02\n        /* \"s1911027_2.sol\":5538:5576  Games[Players[msg.sender].hostAddress] */\n      0x00\n        /* \"s1911027_2.sol\":5544:5551  Players */\n      0x01\n        /* \"s1911027_2.sol\":5544:5563  Players[msg.sender] */\n      0x00\n        /* \"s1911027_2.sol\":5552:5562  msg.sender */\n      caller\n        /* \"s1911027_2.sol\":5544:5563  Players[msg.sender] */\n      0xffffffffffffffffffffffffffffffffffffffff\n      and\n      0xffffffffffffffffffffffffffffffffffffffff\n      and\n      dup2\n      mstore\n      0x20\n      add\n      swap1\n      dup2\n      mstore\n      0x20\n      add\n      0x00\n      keccak256\n        /* \"s1911027_2.sol\":5544:5575  Players[msg.sender].hostAddress */\n      0x01\n      add\n      0x00\n      swap1\n      sload\n      swap1\n      0x0100\n      exp\n      swap1\n      div\n      0xffffffffffffffffffffffffffffffffffffffff\n      and\n        /* \"s1911027_2.sol\":5538:5576  Games[Players[msg.sender].hostAddress] */\n      0xffffffffffffffffffffffffffffffffffffffff\n      and\n      0xffffffffffffffffffffffffffffffffffffffff\n      and\n      dup2\n      mstore\n      0x20\n      add\n      swap1\n      dup2\n      mstore\n      0x20\n      add\n      0x00\n      keccak256\n        /* \"s1911027_2.sol\":5538:5581  Games[Players[msg.sender].hostAddress].host */\n      0x00\n      add\n      0x00\n      swap1\n      sload\n      swap1\n      0x0100\n      exp\n      swap1\n      div\n      0xffffffffffffffffffffffffffffffffffffffff\n      and\n        /* \"s1911027_2.sol\":5538:5595  Games[Players[msg.sender].hostAddress].host == msg.sender */\n      0xffffffffffffffffffffffffffffffffffffffff\n      and\n      eq\n        /* \"s1911027_2.sol\":5534:6548  if (Games[Players[msg.sender].hostAddress].host == msg.sender) {\r... */\n      iszero\n      tag_121\n      jumpi\n        /* \"s1911027_2.sol\":5679:5680  0 */\n      0x00\n        /* \"s1911027_2.sol\":5620:5625  Games */\n      0x02\n        /* \"s1911027_2.sol\":5620:5658  Games[Players[msg.sender].hostAddress] */\n      0x00\n        /* \"s1911027_2.sol\":5626:5633  Players */\n      0x01\n        /* \"s1911027_2.sol\":5626:5645  Players[msg.sender] */\n      0x00\n        /* \"s1911027_2.sol\":5634:5644  msg.sender */\n      caller\n        /* \"s1911027_2.sol\":5626:5645  Players[msg.sender] */\n      0xffffffffffffffffffffffffffffffffffffffff\n      and\n      0xffffffffffffffffffffffffffffffffffffffff\n      and\n      dup2\n      mstore\n      0x20\n      add\n      swap1\n      dup2\n      mstore\n      0x20\n      add\n      0x00\n      keccak256\n        /* \"s1911027_2.sol\":5626:5657  Players[msg.sender].hostAddress */\n      0x01\n      add\n      0x00\n      swap1\n      sload\n      swap1\n      0x0100\n      exp\n      swap1\n      div\n      0xffffffffffffffffffffffffffffffffffffffff\n      and\n        /* \"s1911027_2.sol\":5620:5658  Games[Players[msg.sender].hostAddress] */\n      0xffffffffffffffffffffffffffffffffffffffff\n      and\n      0xffffffffffffffffffffffffffffffffffffffff\n      and\n      dup2\n      mstore\n      0x20\n      add\n      swap1\n      dup2\n      mstore\n      0x20\n      add\n      0x00\n      keccak256\n        /* \"s1911027_2.sol\":5620:5675  Games[Players[msg.sender].hostAddress].hostSecretNumber */\n      0x02\n      add\n      sload\n        /* \"s1911027_2.sol\":5620:5680  Games[Players[msg.sender].hostAddress].hostSecretNumber == 0 */\n      eq\n        /* \"s1911027_2.sol\":5612:5723  require(Games[Players[msg.sender].hostAddress].hostSecretNumber == 0, \"The secret number of host has verified\") */\n      tag_122\n      jumpi\n      mload(0x40)\n      0x08c379a000000000000000000000000000000000000000000000000000000000\n      dup2\n      mstore\n      0x04\n      add\n      tag_123\n      swap1\n      tag_124\n      jump\t// in\n    tag_123:\n      mload(0x40)\n      dup1\n      swap2\n      sub\n      swap1\n      revert\n    tag_122:\n        /* \"s1911027_2.sol\":5793:5814  getHash(secretNumber) */\n      tag_125\n        /* \"s1911027_2.sol\":5801:5813  secretNumber */\n      dup2\n        /* \"s1911027_2.sol\":5793:5800  getHash */\n      tag_27\n        /* \"s1911027_2.sol\":5793:5814  getHash(secretNumber) */\n      jump\t// in\n    tag_125:\n        /* \"s1911027_2.sol\":5742:5747  Games */\n      0x02\n        /* \"s1911027_2.sol\":5742:5780  Games[Players[msg.sender].hostAddress] */\n      0x00\n        /* \"s1911027_2.sol\":5748:5755  Players */\n      0x01\n        /* \"s1911027_2.sol\":5748:5767  Players[msg.sender] */\n      0x00\n        /* \"s1911027_2.sol\":5756:5766  msg.sender */\n      caller\n        /* \"s1911027_2.sol\":5748:5767  Players[msg.sender] */\n      0xffffffffffffffffffffffffffffffffffffffff\n      and\n      0xffffffffffffffffffffffffffffffffffffffff\n      and\n      dup2\n      mstore\n      0x20\n      add\n      swap1\n      dup2\n      mstore\n      0x20\n      add\n      0x00\n      keccak256\n        /* \"s1911027_2.sol\":5748:5779  Players[msg.sender].hostAddress */\n      0x01\n      add\n      0x00\n      swap1\n      sload\n      swap1\n      0x0100\n      exp\n      swap1\n      div\n      0xffffffffffffffffffffffffffffffffffffffff\n      and\n        /* \"s1911027_2.sol\":5742:5780  Games[Players[msg.sender].hostAddress] */\n      0xffffffffffffffffffffffffffffffffffffffff\n      and\n      0xffffffffffffffffffffffffffffffffffffffff\n      and\n      dup2\n      mstore\n      0x20\n      add\n      swap1\n      dup2\n      mstore\n      0x20\n      add\n      0x00\n      keccak256\n        /* \"s1911027_2.sol\":5742:5789  Games[Players[msg.sender].hostAddress].hostHash */\n      0x01\n      add\n      sload\n        /* \"s1911027_2.sol\":5742:5814  Games[Players[msg.sender].hostAddress].hostHash == getHash(secretNumber) */\n      eq\n        /* \"s1911027_2.sol\":5738:6011  if (Games[Players[msg.sender].hostAddress].hostHash == getHash(secretNumber)) {\r... */\n      iszero\n      tag_126\n      jumpi\n        /* \"s1911027_2.sol\":5893:5905  secretNumber */\n      dup1\n        /* \"s1911027_2.sol\":5835:5840  Games */\n      0x02\n        /* \"s1911027_2.sol\":5835:5873  Games[Players[msg.sender].hostAddress] */\n      0x00\n        /* \"s1911027_2.sol\":5841:5848  Players */\n      0x01\n        /* \"s1911027_2.sol\":5841:5860  Players[msg.sender] */\n      0x00\n        /* \"s1911027_2.sol\":5849:5859  msg.sender */\n      caller\n        /* \"s1911027_2.sol\":5841:5860  Players[msg.sender] */\n      0xffffffffffffffffffffffffffffffffffffffff\n      and\n      0xffffffffffffffffffffffffffffffffffffffff\n      and\n      dup2\n      mstore\n      0x20\n      add\n      swap1\n      dup2\n      mstore\n      0x20\n      add\n      0x00\n      keccak256\n        /* \"s1911027_2.sol\":5841:5872  Players[msg.sender].hostAddress */\n      0x01\n      add\n      0x00\n      swap1\n      sload\n      swap1\n      0x0100\n      exp\n      swap1\n      div\n      0xffffffffffffffffffffffffffffffffffffffff\n      and\n        /* \"s1911027_2.sol\":5835:5873  Games[Players[msg.sender].hostAddress] */\n      0xffffffffffffffffffffffffffffffffffffffff\n      and\n      0xffffffffffffffffffffffffffffffffffffffff\n      and\n      dup2\n      mstore\n      0x20\n      add\n      swap1\n      dup2\n      mstore\n      0x20\n      add\n      0x00\n      keccak256\n        /* \"s1911027_2.sol\":5835:5890  Games[Players[msg.sender].hostAddress].hostSecretNumber */\n      0x02\n      add\n        /* \"s1911027_2.sol\":5835:5905  Games[Players[msg.sender].hostAddress].hostSecretNumber = secretNumber */\n      dup2\n      swap1\n      sstore\n      pop\n        /* \"s1911027_2.sol\":5738:6011  if (Games[Players[msg.sender].hostAddress].hostHash == getHash(secretNumber)) {\r... */\n      jump(tag_127)\n    tag_126:\n        /* \"s1911027_2.sol\":5946:5995  revert(\"The secretNumber of host does not match\") */\n      mload(0x40)\n      0x08c379a000000000000000000000000000000000000000000000000000000000\n      dup2\n      mstore\n      0x04\n      add\n      tag_128\n      swap1\n      tag_129\n      jump\t// in\n    tag_128:\n      mload(0x40)\n      dup1\n      swap2\n      sub\n      swap1\n      revert\n        /* \"s1911027_2.sol\":5738:6011  if (Games[Players[msg.sender].hostAddress].hostHash == getHash(secretNumber)) {\r... */\n    tag_127:\n        /* \"s1911027_2.sol\":5534:6548  if (Games[Players[msg.sender].hostAddress].host == msg.sender) {\r... */\n      jump(tag_130)\n    tag_121:\n        /* \"s1911027_2.sol\":6080:6090  msg.sender */\n      caller\n        /* \"s1911027_2.sol\":6032:6090  Games[Players[msg.sender].hostAddress].guest == msg.sender */\n      0xffffffffffffffffffffffffffffffffffffffff\n      and\n        /* \"s1911027_2.sol\":6032:6037  Games */\n      0x02\n        /* \"s1911027_2.sol\":6032:6070  Games[Players[msg.sender].hostAddress] */\n      0x00\n        /* \"s1911027_2.sol\":6038:6045  Players */\n      0x01\n        /* \"s1911027_2.sol\":6038:6057  Players[msg.sender] */\n      0x00\n        /* \"s1911027_2.sol\":6046:6056  msg.sender */\n      caller\n        /* \"s1911027_2.sol\":6038:6057  Players[msg.sender] */\n      0xffffffffffffffffffffffffffffffffffffffff\n      and\n      0xffffffffffffffffffffffffffffffffffffffff\n      and\n      dup2\n      mstore\n      0x20\n      add\n      swap1\n      dup2\n      mstore\n      0x20\n      add\n      0x00\n      keccak256\n        /* \"s1911027_2.sol\":6038:6069  Players[msg.sender].hostAddress */\n      0x01\n      add\n      0x00\n      swap1\n      sload\n      swap1\n      0x0100\n      exp\n      swap1\n      div\n      0xffffffffffffffffffffffffffffffffffffffff\n      and\n        /* \"s1911027_2.sol\":6032:6070  Games[Players[msg.sender].hostAddress] */\n      0xffffffffffffffffffffffffffffffffffffffff\n      and\n      0xffffffffffffffffffffffffffffffffffffffff\n      and\n      dup2\n      mstore\n      0x20\n      add\n      swap1\n      dup2\n      mstore\n      0x20\n      add\n      0x00\n      keccak256\n        /* \"s1911027_2.sol\":6032:6076  Games[Players[msg.sender].hostAddress].guest */\n      0x03\n      add\n      0x00\n      swap1\n      sload\n      swap1\n      0x0100\n      exp\n      swap1\n      div\n      0xffffffffffffffffffffffffffffffffffffffff\n      and\n        /* \"s1911027_2.sol\":6032:6090  Games[Players[msg.sender].hostAddress].guest == msg.sender */\n      0xffffffffffffffffffffffffffffffffffffffff\n      and\n      eq\n        /* \"s1911027_2.sol\":6028:6548  if (Games[Players[msg.sender].hostAddress].guest == msg.sender) { // verification for guest\r... */\n      iszero\n      tag_131\n      jumpi\n        /* \"s1911027_2.sol\":6201:6202  0 */\n      0x00\n        /* \"s1911027_2.sol\":6141:6146  Games */\n      0x02\n        /* \"s1911027_2.sol\":6141:6179  Games[Players[msg.sender].hostAddress] */\n      0x00\n        /* \"s1911027_2.sol\":6147:6154  Players */\n      0x01\n        /* \"s1911027_2.sol\":6147:6166  Players[msg.sender] */\n      0x00\n        /* \"s1911027_2.sol\":6155:6165  msg.sender */\n      caller\n        /* \"s1911027_2.sol\":6147:6166  Players[msg.sender] */\n      0xffffffffffffffffffffffffffffffffffffffff\n      and\n      0xffffffffffffffffffffffffffffffffffffffff\n      and\n      dup2\n      mstore\n      0x20\n      add\n      swap1\n      dup2\n      mstore\n      0x20\n      add\n      0x00\n      keccak256\n        /* \"s1911027_2.sol\":6147:6178  Players[msg.sender].hostAddress */\n      0x01\n      add\n      0x00\n      swap1\n      sload\n      swap1\n      0x0100\n      exp\n      swap1\n      div\n      0xffffffffffffffffffffffffffffffffffffffff\n      and\n        /* \"s1911027_2.sol\":6141:6179  Games[Players[msg.sender].hostAddress] */\n      0xffffffffffffffffffffffffffffffffffffffff\n      and\n      0xffffffffffffffffffffffffffffffffffffffff\n      and\n      dup2\n      mstore\n      0x20\n      add\n      swap1\n      dup2\n      mstore\n      0x20\n      add\n      0x00\n      keccak256\n        /* \"s1911027_2.sol\":6141:6197  Games[Players[msg.sender].hostAddress].guestSecretNumber */\n      0x05\n      add\n      sload\n        /* \"s1911027_2.sol\":6141:6202  Games[Players[msg.sender].hostAddress].guestSecretNumber == 0 */\n      eq\n        /* \"s1911027_2.sol\":6133:6246  require(Games[Players[msg.sender].hostAddress].guestSecretNumber == 0, \"The secret number of guest has verified\") */\n      tag_132\n      jumpi\n      mload(0x40)\n      0x08c379a000000000000000000000000000000000000000000000000000000000\n      dup2\n      mstore\n      0x04\n      add\n      tag_133\n      swap1\n      tag_134\n      jump\t// in\n    tag_133:\n      mload(0x40)\n      dup1\n      swap2\n      sub\n      swap1\n      revert\n    tag_132:\n        /* \"s1911027_2.sol\":6317:6338  getHash(secretNumber) */\n      tag_135\n        /* \"s1911027_2.sol\":6325:6337  secretNumber */\n      dup2\n        /* \"s1911027_2.sol\":6317:6324  getHash */\n      tag_27\n        /* \"s1911027_2.sol\":6317:6338  getHash(secretNumber) */\n      jump\t// in\n    tag_135:\n        /* \"s1911027_2.sol\":6265:6270  Games */\n      0x02\n        /* \"s1911027_2.sol\":6265:6303  Games[Players[msg.sender].hostAddress] */\n      0x00\n        /* \"s1911027_2.sol\":6271:6278  Players */\n      0x01\n        /* \"s1911027_2.sol\":6271:6290  Players[msg.sender] */\n      0x00\n        /* \"s1911027_2.sol\":6279:6289  msg.sender */\n      caller\n        /* \"s1911027_2.sol\":6271:6290  Players[msg.sender] */\n      0xffffffffffffffffffffffffffffffffffffffff\n      and\n      0xffffffffffffffffffffffffffffffffffffffff\n      and\n      dup2\n      mstore\n      0x20\n      add\n      swap1\n      dup2\n      mstore\n      0x20\n      add\n      0x00\n      keccak256\n        /* \"s1911027_2.sol\":6271:6302  Players[msg.sender].hostAddress */\n      0x01\n      add\n      0x00\n      swap1\n      sload\n      swap1\n      0x0100\n      exp\n      swap1\n      div\n      0xffffffffffffffffffffffffffffffffffffffff\n      and\n        /* \"s1911027_2.sol\":6265:6303  Games[Players[msg.sender].hostAddress] */\n      0xffffffffffffffffffffffffffffffffffffffff\n      and\n      0xffffffffffffffffffffffffffffffffffffffff\n      and\n      dup2\n      mstore\n      0x20\n      add\n      swap1\n      dup2\n      mstore\n      0x20\n      add\n      0x00\n      keccak256\n        /* \"s1911027_2.sol\":6265:6313  Games[Players[msg.sender].hostAddress].guestHash */\n      0x04\n      add\n      sload\n        /* \"s1911027_2.sol\":6265:6338  Games[Players[msg.sender].hostAddress].guestHash == getHash(secretNumber) */\n      eq\n        /* \"s1911027_2.sol\":6261:6537  if (Games[Players[msg.sender].hostAddress].guestHash == getHash(secretNumber)) {\r... */\n      iszero\n      tag_136\n      jumpi\n        /* \"s1911027_2.sol\":6418:6430  secretNumber */\n      dup1\n        /* \"s1911027_2.sol\":6359:6364  Games */\n      0x02\n        /* \"s1911027_2.sol\":6359:6397  Games[Players[msg.sender].hostAddress] */\n      0x00\n        /* \"s1911027_2.sol\":6365:6372  Players */\n      0x01\n        /* \"s1911027_2.sol\":6365:6384  Players[msg.sender] */\n      0x00\n        /* \"s1911027_2.sol\":6373:6383  msg.sender */\n      caller\n        /* \"s1911027_2.sol\":6365:6384  Players[msg.sender] */\n      0xffffffffffffffffffffffffffffffffffffffff\n      and\n      0xffffffffffffffffffffffffffffffffffffffff\n      and\n      dup2\n      mstore\n      0x20\n      add\n      swap1\n      dup2\n      mstore\n      0x20\n      add\n      0x00\n      keccak256\n        /* \"s1911027_2.sol\":6365:6396  Players[msg.sender].hostAddress */\n      0x01\n      add\n      0x00\n      swap1\n      sload\n      swap1\n      0x0100\n      exp\n      swap1\n      div\n      0xffffffffffffffffffffffffffffffffffffffff\n      and\n        /* \"s1911027_2.sol\":6359:6397  Games[Players[msg.sender].hostAddress] */\n      0xffffffffffffffffffffffffffffffffffffffff\n      and\n      0xffffffffffffffffffffffffffffffffffffffff\n      and\n      dup2\n      mstore\n      0x20\n      add\n      swap1\n      dup2\n      mstore\n      0x20\n      add\n      0x00\n      keccak256\n        /* \"s1911027_2.sol\":6359:6415  Games[Players[msg.sender].hostAddress].guestSecretNumber */\n      0x05\n      add\n        /* \"s1911027_2.sol\":6359:6430  Games[Players[msg.sender].hostAddress].guestSecretNumber = secretNumber */\n      dup2\n      swap1\n      sstore\n      pop\n        /* \"s1911027_2.sol\":6261:6537  if (Games[Players[msg.sender].hostAddress].guestHash == getHash(secretNumber)) {\r... */\n      jump(tag_137)\n    tag_136:\n        /* \"s1911027_2.sol\":6471:6521  revert(\"The secretNumber of guest does not match\") */\n      mload(0x40)\n      0x08c379a000000000000000000000000000000000000000000000000000000000\n      dup2\n      mstore\n      0x04\n      add\n      tag_138\n      swap1\n      tag_139\n      jump\t// in\n    tag_138:\n      mload(0x40)\n      dup1\n      swap2\n      sub\n      swap1\n      revert\n        /* \"s1911027_2.sol\":6261:6537  if (Games[Players[msg.sender].hostAddress].guestHash == getHash(secretNumber)) {\r... */\n    tag_137:\n        /* \"s1911027_2.sol\":6028:6548  if (Games[Players[msg.sender].hostAddress].guest == msg.sender) { // verification for guest\r... */\n    tag_131:\n        /* \"s1911027_2.sol\":5534:6548  if (Games[Players[msg.sender].hostAddress].host == msg.sender) {\r... */\n    tag_130:\n        /* \"s1911027_2.sol\":6609:6621  block.number */\n      number\n        /* \"s1911027_2.sol\":6558:6563  Games */\n      0x02\n        /* \"s1911027_2.sol\":6558:6596  Games[Players[msg.sender].hostAddress] */\n      0x00\n        /* \"s1911027_2.sol\":6564:6571  Players */\n      0x01\n        /* \"s1911027_2.sol\":6564:6583  Players[msg.sender] */\n      0x00\n        /* \"s1911027_2.sol\":6572:6582  msg.sender */\n      caller\n        /* \"s1911027_2.sol\":6564:6583  Players[msg.sender] */\n      0xffffffffffffffffffffffffffffffffffffffff\n      and\n      0xffffffffffffffffffffffffffffffffffffffff\n      and\n      dup2\n      mstore\n      0x20\n      add\n      swap1\n      dup2\n      mstore\n      0x20\n      add\n      0x00\n      keccak256\n        /* \"s1911027_2.sol\":6564:6595  Players[msg.sender].hostAddress */\n      0x01\n      add\n      0x00\n      swap1\n      sload\n      swap1\n      0x0100\n      exp\n      swap1\n      div\n      0xffffffffffffffffffffffffffffffffffffffff\n      and\n        /* \"s1911027_2.sol\":6558:6596  Games[Players[msg.sender].hostAddress] */\n      0xffffffffffffffffffffffffffffffffffffffff\n      and\n      0xffffffffffffffffffffffffffffffffffffffff\n      and\n      dup2\n      mstore\n      0x20\n      add\n      swap1\n      dup2\n      mstore\n      0x20\n      add\n      0x00\n      keccak256\n        /* \"s1911027_2.sol\":6558:6606  Games[Players[msg.sender].hostAddress].lastBlock */\n      0x06\n      add\n        /* \"s1911027_2.sol\":6558:6621  Games[Players[msg.sender].hostAddress].lastBlock = block.number */\n      dup2\n      swap1\n      sstore\n      pop\n        /* \"s1911027_2.sol\":5131:6629  function verification(uint256 secretNumber) public {\r... */\n      pop\n      jump\t// out\n        /* \"s1911027_2.sol\":6637:7972  function roll() public {\r... */\n    tag_43:\n        /* \"s1911027_2.sol\":6808:6809  0 */\n      0x00\n        /* \"s1911027_2.sol\":6753:6810  Games[Players[msg.sender].hostAddress].host != address(0) */\n      0xffffffffffffffffffffffffffffffffffffffff\n      and\n        /* \"s1911027_2.sol\":6753:6758  Games */\n      0x02\n        /* \"s1911027_2.sol\":6753:6791  Games[Players[msg.sender].hostAddress] */\n      0x00\n        /* \"s1911027_2.sol\":6759:6766  Players */\n      0x01\n        /* \"s1911027_2.sol\":6759:6778  Players[msg.sender] */\n      0x00\n        /* \"s1911027_2.sol\":6767:6777  msg.sender */\n      caller\n        /* \"s1911027_2.sol\":6759:6778  Players[msg.sender] */\n      0xffffffffffffffffffffffffffffffffffffffff\n      and\n      0xffffffffffffffffffffffffffffffffffffffff\n      and\n      dup2\n      mstore\n      0x20\n      add\n      swap1\n      dup2\n      mstore\n      0x20\n      add\n      0x00\n      keccak256\n        /* \"s1911027_2.sol\":6759:6790  Players[msg.sender].hostAddress */\n      0x01\n      add\n      0x00\n      swap1\n      sload\n      swap1\n      0x0100\n      exp\n      swap1\n      div\n      0xffffffffffffffffffffffffffffffffffffffff\n      and\n        /* \"s1911027_2.sol\":6753:6791  Games[Players[msg.sender].hostAddress] */\n      0xffffffffffffffffffffffffffffffffffffffff\n      and\n      0xffffffffffffffffffffffffffffffffffffffff\n      and\n      dup2\n      mstore\n      0x20\n      add\n      swap1\n      dup2\n      mstore\n      0x20\n      add\n      0x00\n      keccak256\n        /* \"s1911027_2.sol\":6753:6796  Games[Players[msg.sender].hostAddress].host */\n      0x00\n      add\n      0x00\n      swap1\n      sload\n      swap1\n      0x0100\n      exp\n      swap1\n      div\n      0xffffffffffffffffffffffffffffffffffffffff\n      and\n        /* \"s1911027_2.sol\":6753:6810  Games[Players[msg.sender].hostAddress].host != address(0) */\n      0xffffffffffffffffffffffffffffffffffffffff\n      and\n      eq\n      iszero\n        /* \"s1911027_2.sol\":6745:6836  require(Games[Players[msg.sender].hostAddress].host != address(0), \"You are not in a game\") */\n      tag_141\n      jumpi\n      mload(0x40)\n      0x08c379a000000000000000000000000000000000000000000000000000000000\n      dup2\n      mstore\n      0x04\n      add\n      tag_142\n      swap1\n      tag_72\n      jump\t// in\n    tag_142:\n      mload(0x40)\n      dup1\n      swap2\n      sub\n      swap1\n      revert\n    tag_141:\n        /* \"s1911027_2.sol\":6911:6912  0 */\n      0x00\n        /* \"s1911027_2.sol\":6855:6913  Games[Players[msg.sender].hostAddress].guest != address(0) */\n      0xffffffffffffffffffffffffffffffffffffffff\n      and\n        /* \"s1911027_2.sol\":6855:6860  Games */\n      0x02\n        /* \"s1911027_2.sol\":6855:6893  Games[Players[msg.sender].hostAddress] */\n      0x00\n        /* \"s1911027_2.sol\":6861:6868  Players */\n      0x01\n        /* \"s1911027_2.sol\":6861:6880  Players[msg.sender] */\n      0x00\n        /* \"s1911027_2.sol\":6869:6879  msg.sender */\n      caller\n        /* \"s1911027_2.sol\":6861:6880  Players[msg.sender] */\n      0xffffffffffffffffffffffffffffffffffffffff\n      and\n      0xffffffffffffffffffffffffffffffffffffffff\n      and\n      dup2\n      mstore\n      0x20\n      add\n      swap1\n      dup2\n      mstore\n      0x20\n      add\n      0x00\n      keccak256\n        /* \"s1911027_2.sol\":6861:6892  Players[msg.sender].hostAddress */\n      0x01\n      add\n      0x00\n      swap1\n      sload\n      swap1\n      0x0100\n      exp\n      swap1\n      div\n      0xffffffffffffffffffffffffffffffffffffffff\n      and\n        /* \"s1911027_2.sol\":6855:6893  Games[Players[msg.sender].hostAddress] */\n      0xffffffffffffffffffffffffffffffffffffffff\n      and\n      0xffffffffffffffffffffffffffffffffffffffff\n      and\n      dup2\n      mstore\n      0x20\n      add\n      swap1\n      dup2\n      mstore\n      0x20\n      add\n      0x00\n      keccak256\n        /* \"s1911027_2.sol\":6855:6899  Games[Players[msg.sender].hostAddress].guest */\n      0x03\n      add\n      0x00\n      swap1\n      sload\n      swap1\n      0x0100\n      exp\n      swap1\n      div\n      0xffffffffffffffffffffffffffffffffffffffff\n      and\n        /* \"s1911027_2.sol\":6855:6913  Games[Players[msg.sender].hostAddress].guest != address(0) */\n      0xffffffffffffffffffffffffffffffffffffffff\n      and\n      eq\n      iszero\n        /* \"s1911027_2.sol\":6847:6940  require(Games[Players[msg.sender].hostAddress].guest != address(0), \"no guest join the game\") */\n      tag_143\n      jumpi\n      mload(0x40)\n      0x08c379a000000000000000000000000000000000000000000000000000000000\n      dup2\n      mstore\n      0x04\n      add\n      tag_144\n      swap1\n      tag_145\n      jump\t// in\n    tag_144:\n      mload(0x40)\n      dup1\n      swap2\n      sub\n      swap1\n      revert\n    tag_143:\n        /* \"s1911027_2.sol\":7018:7019  0 */\n      0x00\n        /* \"s1911027_2.sol\":6959:6964  Games */\n      0x02\n        /* \"s1911027_2.sol\":6959:6997  Games[Players[msg.sender].hostAddress] */\n      0x00\n        /* \"s1911027_2.sol\":6965:6972  Players */\n      0x01\n        /* \"s1911027_2.sol\":6965:6984  Players[msg.sender] */\n      0x00\n        /* \"s1911027_2.sol\":6973:6983  msg.sender */\n      caller\n        /* \"s1911027_2.sol\":6965:6984  Players[msg.sender] */\n      0xffffffffffffffffffffffffffffffffffffffff\n      and\n      0xffffffffffffffffffffffffffffffffffffffff\n      and\n      dup2\n      mstore\n      0x20\n      add\n      swap1\n      dup2\n      mstore\n      0x20\n      add\n      0x00\n      keccak256\n        /* \"s1911027_2.sol\":6965:6996  Players[msg.sender].hostAddress */\n      0x01\n      add\n      0x00\n      swap1\n      sload\n      swap1\n      0x0100\n      exp\n      swap1\n      div\n      0xffffffffffffffffffffffffffffffffffffffff\n      and\n        /* \"s1911027_2.sol\":6959:6997  Games[Players[msg.sender].hostAddress] */\n      0xffffffffffffffffffffffffffffffffffffffff\n      and\n      0xffffffffffffffffffffffffffffffffffffffff\n      and\n      dup2\n      mstore\n      0x20\n      add\n      swap1\n      dup2\n      mstore\n      0x20\n      add\n      0x00\n      keccak256\n        /* \"s1911027_2.sol\":6959:7014  Games[Players[msg.sender].hostAddress].hostSecretNumber */\n      0x02\n      add\n      sload\n        /* \"s1911027_2.sol\":6959:7019  Games[Players[msg.sender].hostAddress].hostSecretNumber != 0 */\n      eq\n      iszero\n        /* \"s1911027_2.sol\":6951:7048  require(Games[Players[msg.sender].hostAddress].hostSecretNumber != 0, \"The host is not verified\") */\n      tag_146\n      jumpi\n      mload(0x40)\n      0x08c379a000000000000000000000000000000000000000000000000000000000\n      dup2\n      mstore\n      0x04\n      add\n      tag_147\n      swap1\n      tag_148\n      jump\t// in\n    tag_147:\n      mload(0x40)\n      dup1\n      swap2\n      sub\n      swap1\n      revert\n    tag_146:\n        /* \"s1911027_2.sol\":7127:7128  0 */\n      0x00\n        /* \"s1911027_2.sol\":7067:7072  Games */\n      0x02\n        /* \"s1911027_2.sol\":7067:7105  Games[Players[msg.sender].hostAddress] */\n      0x00\n        /* \"s1911027_2.sol\":7073:7080  Players */\n      0x01\n        /* \"s1911027_2.sol\":7073:7092  Players[msg.sender] */\n      0x00\n        /* \"s1911027_2.sol\":7081:7091  msg.sender */\n      caller\n        /* \"s1911027_2.sol\":7073:7092  Players[msg.sender] */\n      0xffffffffffffffffffffffffffffffffffffffff\n      and\n      0xffffffffffffffffffffffffffffffffffffffff\n      and\n      dup2\n      mstore\n      0x20\n      add\n      swap1\n      dup2\n      mstore\n      0x20\n      add\n      0x00\n      keccak256\n        /* \"s1911027_2.sol\":7073:7104  Players[msg.sender].hostAddress */\n      0x01\n      add\n      0x00\n      swap1\n      sload\n      swap1\n      0x0100\n      exp\n      swap1\n      div\n      0xffffffffffffffffffffffffffffffffffffffff\n      and\n        /* \"s1911027_2.sol\":7067:7105  Games[Players[msg.sender].hostAddress] */\n      0xffffffffffffffffffffffffffffffffffffffff\n      and\n      0xffffffffffffffffffffffffffffffffffffffff\n      and\n      dup2\n      mstore\n      0x20\n      add\n      swap1\n      dup2\n      mstore\n      0x20\n      add\n      0x00\n      keccak256\n        /* \"s1911027_2.sol\":7067:7123  Games[Players[msg.sender].hostAddress].guestSecretNumber */\n      0x05\n      add\n      sload\n        /* \"s1911027_2.sol\":7067:7128  Games[Players[msg.sender].hostAddress].guestSecretNumber != 0 */\n      eq\n      iszero\n        /* \"s1911027_2.sol\":7059:7158  require(Games[Players[msg.sender].hostAddress].guestSecretNumber != 0, \"The guest is not verified\") */\n      tag_149\n      jumpi\n      mload(0x40)\n      0x08c379a000000000000000000000000000000000000000000000000000000000\n      dup2\n      mstore\n      0x04\n      add\n      tag_150\n      swap1\n      tag_151\n      jump\t// in\n    tag_150:\n      mload(0x40)\n      dup1\n      swap2\n      sub\n      swap1\n      revert\n    tag_149:\n        /* \"s1911027_2.sol\":7244:7245  3 */\n      0x03\n        /* \"s1911027_2.sol\":7192:7197  Games */\n      0x02\n        /* \"s1911027_2.sol\":7192:7230  Games[Players[msg.sender].hostAddress] */\n      0x00\n        /* \"s1911027_2.sol\":7198:7205  Players */\n      0x01\n        /* \"s1911027_2.sol\":7198:7217  Players[msg.sender] */\n      0x00\n        /* \"s1911027_2.sol\":7206:7216  msg.sender */\n      caller\n        /* \"s1911027_2.sol\":7198:7217  Players[msg.sender] */\n      0xffffffffffffffffffffffffffffffffffffffff\n      and\n      0xffffffffffffffffffffffffffffffffffffffff\n      and\n      dup2\n      mstore\n      0x20\n      add\n      swap1\n      dup2\n      mstore\n      0x20\n      add\n      0x00\n      keccak256\n        /* \"s1911027_2.sol\":7198:7229  Players[msg.sender].hostAddress */\n      0x01\n      add\n      0x00\n      swap1\n      sload\n      swap1\n      0x0100\n      exp\n      swap1\n      div\n      0xffffffffffffffffffffffffffffffffffffffff\n      and\n        /* \"s1911027_2.sol\":7192:7230  Games[Players[msg.sender].hostAddress] */\n      0xffffffffffffffffffffffffffffffffffffffff\n      and\n      0xffffffffffffffffffffffffffffffffffffffff\n      and\n      dup2\n      mstore\n      0x20\n      add\n      swap1\n      dup2\n      mstore\n      0x20\n      add\n      0x00\n      keccak256\n        /* \"s1911027_2.sol\":7192:7240  Games[Players[msg.sender].hostAddress].lastBlock */\n      0x06\n      add\n      sload\n        /* \"s1911027_2.sol\":7177:7189  block.number */\n      number\n        /* \"s1911027_2.sol\":7177:7240  block.number - Games[Players[msg.sender].hostAddress].lastBlock */\n      tag_152\n      swap2\n      swap1\n      tag_75\n      jump\t// in\n    tag_152:\n        /* \"s1911027_2.sol\":7177:7245  block.number - Games[Players[msg.sender].hostAddress].lastBlock >= 3 */\n      lt\n      iszero\n        /* \"s1911027_2.sol\":7169:7284  require(block.number - Games[Players[msg.sender].hostAddress].lastBlock >= 3, \"Wait more blocks for start rolling\") */\n      tag_153\n      jumpi\n      mload(0x40)\n      0x08c379a000000000000000000000000000000000000000000000000000000000\n      dup2\n      mstore\n      0x04\n      add\n      tag_154\n      swap1\n      tag_155\n      jump\t// in\n    tag_154:\n      mload(0x40)\n      dup1\n      swap2\n      sub\n      swap1\n      revert\n    tag_153:\n        /* \"s1911027_2.sol\":7305:7330  uint256 lastModifiedBlock */\n      0x00\n        /* \"s1911027_2.sol\":7384:7385  3 */\n      0x03\n        /* \"s1911027_2.sol\":7333:7338  Games */\n      0x02\n        /* \"s1911027_2.sol\":7333:7371  Games[Players[msg.sender].hostAddress] */\n      0x00\n        /* \"s1911027_2.sol\":7339:7346  Players */\n      0x01\n        /* \"s1911027_2.sol\":7339:7358  Players[msg.sender] */\n      0x00\n        /* \"s1911027_2.sol\":7347:7357  msg.sender */\n      caller\n        /* \"s1911027_2.sol\":7339:7358  Players[msg.sender] */\n      0xffffffffffffffffffffffffffffffffffffffff\n      and\n      0xffffffffffffffffffffffffffffffffffffffff\n      and\n      dup2\n      mstore\n      0x20\n      add\n      swap1\n      dup2\n      mstore\n      0x20\n      add\n      0x00\n      keccak256\n        /* \"s1911027_2.sol\":7339:7370  Players[msg.sender].hostAddress */\n      0x01\n      add\n      0x00\n      swap1\n      sload\n      swap1\n      0x0100\n      exp\n      swap1\n      div\n      0xffffffffffffffffffffffffffffffffffffffff\n      and\n        /* \"s1911027_2.sol\":7333:7371  Games[Players[msg.sender].hostAddress] */\n      0xffffffffffffffffffffffffffffffffffffffff\n      and\n      0xffffffffffffffffffffffffffffffffffffffff\n      and\n      dup2\n      mstore\n      0x20\n      add\n      swap1\n      dup2\n      mstore\n      0x20\n      add\n      0x00\n      keccak256\n        /* \"s1911027_2.sol\":7333:7381  Games[Players[msg.sender].hostAddress].lastBlock */\n      0x06\n      add\n      sload\n        /* \"s1911027_2.sol\":7333:7385  Games[Players[msg.sender].hostAddress].lastBlock + 3 */\n      tag_156\n      swap2\n      swap1\n      tag_90\n      jump\t// in\n    tag_156:\n        /* \"s1911027_2.sol\":7305:7385  uint256 lastModifiedBlock = Games[Players[msg.sender].hostAddress].lastBlock + 3 */\n      swap1\n      pop\n        /* \"s1911027_2.sol\":7396:7416  Game memory currGame */\n      0x00\n        /* \"s1911027_2.sol\":7419:7424  Games */\n      0x02\n        /* \"s1911027_2.sol\":7419:7457  Games[Players[msg.sender].hostAddress] */\n      0x00\n        /* \"s1911027_2.sol\":7425:7432  Players */\n      0x01\n        /* \"s1911027_2.sol\":7425:7444  Players[msg.sender] */\n      0x00\n        /* \"s1911027_2.sol\":7433:7443  msg.sender */\n      caller\n        /* \"s1911027_2.sol\":7425:7444  Players[msg.sender] */\n      0xffffffffffffffffffffffffffffffffffffffff\n      and\n      0xffffffffffffffffffffffffffffffffffffffff\n      and\n      dup2\n      mstore\n      0x20\n      add\n      swap1\n      dup2\n      mstore\n      0x20\n      add\n      0x00\n      keccak256\n        /* \"s1911027_2.sol\":7425:7456  Players[msg.sender].hostAddress */\n      0x01\n      add\n      0x00\n      swap1\n      sload\n      swap1\n      0x0100\n      exp\n      swap1\n      div\n      0xffffffffffffffffffffffffffffffffffffffff\n      and\n        /* \"s1911027_2.sol\":7419:7457  Games[Players[msg.sender].hostAddress] */\n      0xffffffffffffffffffffffffffffffffffffffff\n      and\n      0xffffffffffffffffffffffffffffffffffffffff\n      and\n      dup2\n      mstore\n      0x20\n      add\n      swap1\n      dup2\n      mstore\n      0x20\n      add\n      0x00\n      keccak256\n        /* \"s1911027_2.sol\":7396:7457  Game memory currGame = Games[Players[msg.sender].hostAddress] */\n      mload(0x40)\n      dup1\n      0x0100\n      add\n      0x40\n      mstore\n      swap1\n      dup2\n      0x00\n      dup3\n      add\n      0x00\n      swap1\n      sload\n      swap1\n      0x0100\n      exp\n      swap1\n      div\n      0xffffffffffffffffffffffffffffffffffffffff\n      and\n      0xffffffffffffffffffffffffffffffffffffffff\n      and\n      0xffffffffffffffffffffffffffffffffffffffff\n      and\n      dup2\n      mstore\n      0x20\n      add\n      0x01\n      dup3\n      add\n      sload\n      dup2\n      mstore\n      0x20\n      add\n      0x02\n      dup3\n      add\n      sload\n      dup2\n      mstore\n      0x20\n      add\n      0x03\n      dup3\n      add\n      0x00\n      swap1\n      sload\n      swap1\n      0x0100\n      exp\n      swap1\n      div\n      0xffffffffffffffffffffffffffffffffffffffff\n      and\n      0xffffffffffffffffffffffffffffffffffffffff\n      and\n      0xffffffffffffffffffffffffffffffffffffffff\n      and\n      dup2\n      mstore\n      0x20\n      add\n      0x04\n      dup3\n      add\n      sload\n      dup2\n      mstore\n      0x20\n      add\n      0x05\n      dup3\n      add\n      sload\n      dup2\n      mstore\n      0x20\n      add\n      0x06\n      dup3\n      add\n      sload\n      dup2\n      mstore\n      0x20\n      add\n      0x07\n      dup3\n      add\n      0x00\n      swap1\n      sload\n      swap1\n      0x0100\n      exp\n      swap1\n      div\n      0xff\n      and\n      iszero\n      iszero\n      iszero\n      iszero\n      dup2\n      mstore\n      pop\n      pop\n      swap1\n      pop\n        /* \"s1911027_2.sol\":7470:7482  uint256 dice */\n      0x00\n        /* \"s1911027_2.sol\":7603:7604  6 */\n      0x06\n        /* \"s1911027_2.sol\":7552:7560  currGame */\n      dup3\n        /* \"s1911027_2.sol\":7552:7578  currGame.guestSecretNumber */\n      0xa0\n      add\n      mload\n        /* \"s1911027_2.sol\":7524:7532  currGame */\n      dup4\n        /* \"s1911027_2.sol\":7524:7549  currGame.hostSecretNumber */\n      0x40\n      add\n      mload\n        /* \"s1911027_2.sol\":7524:7578  currGame.hostSecretNumber ^ currGame.guestSecretNumber */\n      xor\n        /* \"s1911027_2.sol\":7580:7597  lastModifiedBlock */\n      dup5\n        /* \"s1911027_2.sol\":7507:7598  abi.encodePacked(currGame.hostSecretNumber ^ currGame.guestSecretNumber, lastModifiedBlock) */\n      add(0x20, mload(0x40))\n      tag_157\n      swap3\n      swap2\n      swap1\n      tag_158\n      jump\t// in\n    tag_157:\n      mload(0x40)\n      0x20\n      dup2\n      dup4\n      sub\n      sub\n      dup2\n      mstore\n      swap1\n      0x40\n      mstore\n        /* \"s1911027_2.sol\":7497:7599  keccak256(abi.encodePacked(currGame.hostSecretNumber ^ currGame.guestSecretNumber, lastModifiedBlock)) */\n      dup1\n      mload\n      swap1\n      0x20\n      add\n      keccak256\n        /* \"s1911027_2.sol\":7489:7600  uint256(keccak256(abi.encodePacked(currGame.hostSecretNumber ^ currGame.guestSecretNumber, lastModifiedBlock))) */\n      0x00\n      shr\n        /* \"s1911027_2.sol\":7489:7604  uint256(keccak256(abi.encodePacked(currGame.hostSecretNumber ^ currGame.guestSecretNumber, lastModifiedBlock))) % 6 */\n      tag_159\n      swap2\n      swap1\n      tag_160\n      jump\t// in\n    tag_159:\n        /* \"s1911027_2.sol\":7485:7486  1 */\n      0x01\n        /* \"s1911027_2.sol\":7485:7604  1 + uint256(keccak256(abi.encodePacked(currGame.hostSecretNumber ^ currGame.guestSecretNumber, lastModifiedBlock))) % 6 */\n      tag_161\n      swap2\n      swap1\n      tag_90\n      jump\t// in\n    tag_161:\n        /* \"s1911027_2.sol\":7470:7604  uint256 dice = 1 + uint256(keccak256(abi.encodePacked(currGame.hostSecretNumber ^ currGame.guestSecretNumber, lastModifiedBlock))) % 6 */\n      swap1\n      pop\n        /* \"s1911027_2.sol\":7628:7629  4 */\n      0x04\n        /* \"s1911027_2.sol\":7621:7625  dice */\n      dup2\n        /* \"s1911027_2.sol\":7621:7629  dice < 4 */\n      lt\n        /* \"s1911027_2.sol\":7617:7927  if (dice < 4) {\r... */\n      iszero\n      tag_162\n      jumpi\n        /* \"s1911027_2.sol\":7687:7694  1 ether */\n      0x0de0b6b3a7640000\n        /* \"s1911027_2.sol\":7680:7684  dice */\n      dup2\n        /* \"s1911027_2.sol\":7680:7694  dice * 1 ether */\n      tag_163\n      swap2\n      swap1\n      tag_164\n      jump\t// in\n    tag_163:\n        /* \"s1911027_2.sol\":7646:7653  Players */\n      0x01\n        /* \"s1911027_2.sol\":7646:7668  Players[currGame.host] */\n      0x00\n        /* \"s1911027_2.sol\":7654:7662  currGame */\n      dup5\n        /* \"s1911027_2.sol\":7654:7667  currGame.host */\n      0x00\n      add\n      mload\n        /* \"s1911027_2.sol\":7646:7668  Players[currGame.host] */\n      0xffffffffffffffffffffffffffffffffffffffff\n      and\n      0xffffffffffffffffffffffffffffffffffffffff\n      and\n      dup2\n      mstore\n      0x20\n      add\n      swap1\n      dup2\n      mstore\n      0x20\n      add\n      0x00\n      keccak256\n        /* \"s1911027_2.sol\":7646:7676  Players[currGame.host].balance */\n      0x00\n      add\n      0x00\n        /* \"s1911027_2.sol\":7646:7694  Players[currGame.host].balance += dice * 1 ether */\n      dup3\n      dup3\n      sload\n      tag_165\n      swap2\n      swap1\n      tag_90\n      jump\t// in\n    tag_165:\n      swap3\n      pop\n      pop\n      dup2\n      swap1\n      sstore\n      pop\n        /* \"s1911027_2.sol\":7751:7758  1 ether */\n      0x0de0b6b3a7640000\n        /* \"s1911027_2.sol\":7744:7748  dice */\n      dup2\n        /* \"s1911027_2.sol\":7744:7758  dice * 1 ether */\n      tag_166\n      swap2\n      swap1\n      tag_164\n      jump\t// in\n    tag_166:\n        /* \"s1911027_2.sol\":7709:7716  Players */\n      0x01\n        /* \"s1911027_2.sol\":7709:7732  Players[currGame.guest] */\n      0x00\n        /* \"s1911027_2.sol\":7717:7725  currGame */\n      dup5\n        /* \"s1911027_2.sol\":7717:7731  currGame.guest */\n      0x60\n      add\n      mload\n        /* \"s1911027_2.sol\":7709:7732  Players[currGame.guest] */\n      0xffffffffffffffffffffffffffffffffffffffff\n      and\n      0xffffffffffffffffffffffffffffffffffffffff\n      and\n      dup2\n      mstore\n      0x20\n      add\n      swap1\n      dup2\n      mstore\n      0x20\n      add\n      0x00\n      keccak256\n        /* \"s1911027_2.sol\":7709:7740  Players[currGame.guest].balance */\n      0x00\n      add\n      0x00\n        /* \"s1911027_2.sol\":7709:7758  Players[currGame.guest].balance -= dice * 1 ether */\n      dup3\n      dup3\n      sload\n      tag_167\n      swap2\n      swap1\n      tag_75\n      jump\t// in\n    tag_167:\n      swap3\n      pop\n      pop\n      dup2\n      swap1\n      sstore\n      pop\n        /* \"s1911027_2.sol\":7617:7927  if (dice < 4) {\r... */\n      jump(tag_168)\n    tag_162:\n        /* \"s1911027_2.sol\":7838:7845  1 ether */\n      0x0de0b6b3a7640000\n        /* \"s1911027_2.sol\":7833:7834  3 */\n      0x03\n        /* \"s1911027_2.sol\":7826:7830  dice */\n      dup3\n        /* \"s1911027_2.sol\":7826:7834  dice - 3 */\n      tag_169\n      swap2\n      swap1\n      tag_75\n      jump\t// in\n    tag_169:\n        /* \"s1911027_2.sol\":7825:7845  (dice - 3) * 1 ether */\n      tag_170\n      swap2\n      swap1\n      tag_164\n      jump\t// in\n    tag_170:\n        /* \"s1911027_2.sol\":7791:7798  Players */\n      0x01\n        /* \"s1911027_2.sol\":7791:7813  Players[currGame.host] */\n      0x00\n        /* \"s1911027_2.sol\":7799:7807  currGame */\n      dup5\n        /* \"s1911027_2.sol\":7799:7812  currGame.host */\n      0x00\n      add\n      mload\n        /* \"s1911027_2.sol\":7791:7813  Players[currGame.host] */\n      0xffffffffffffffffffffffffffffffffffffffff\n      and\n      0xffffffffffffffffffffffffffffffffffffffff\n      and\n      dup2\n      mstore\n      0x20\n      add\n      swap1\n      dup2\n      mstore\n      0x20\n      add\n      0x00\n      keccak256\n        /* \"s1911027_2.sol\":7791:7821  Players[currGame.host].balance */\n      0x00\n      add\n      0x00\n        /* \"s1911027_2.sol\":7791:7845  Players[currGame.host].balance -= (dice - 3) * 1 ether */\n      dup3\n      dup3\n      sload\n      tag_171\n      swap2\n      swap1\n      tag_75\n      jump\t// in\n    tag_171:\n      swap3\n      pop\n      pop\n      dup2\n      swap1\n      sstore\n      pop\n        /* \"s1911027_2.sol\":7908:7915  1 ether */\n      0x0de0b6b3a7640000\n        /* \"s1911027_2.sol\":7903:7904  3 */\n      0x03\n        /* \"s1911027_2.sol\":7896:7900  dice */\n      dup3\n        /* \"s1911027_2.sol\":7896:7904  dice - 3 */\n      tag_172\n      swap2\n      swap1\n      tag_75\n      jump\t// in\n    tag_172:\n        /* \"s1911027_2.sol\":7895:7915  (dice - 3) * 1 ether */\n      tag_173\n      swap2\n      swap1\n      tag_164\n      jump\t// in\n    tag_173:\n        /* \"s1911027_2.sol\":7860:7867  Players */\n      0x01\n        /* \"s1911027_2.sol\":7860:7883  Players[currGame.guest] */\n      0x00\n        /* \"s1911027_2.sol\":7868:7876  currGame */\n      dup5\n        /* \"s1911027_2.sol\":7868:7882  currGame.guest */\n      0x60\n      add\n      mload\n        /* \"s1911027_2.sol\":7860:7883  Players[currGame.guest] */\n      0xffffffffffffffffffffffffffffffffffffffff\n      and\n      0xffffffffffffffffffffffffffffffffffffffff\n      and\n      dup2\n      mstore\n      0x20\n      add\n      swap1\n      dup2\n      mstore\n      0x20\n      add\n      0x00\n      keccak256\n        /* \"s1911027_2.sol\":7860:7891  Players[currGame.guest].balance */\n      0x00\n      add\n      0x00\n        /* \"s1911027_2.sol\":7860:7915  Players[currGame.guest].balance += (dice - 3) * 1 ether */\n      dup3\n      dup3\n      sload\n      tag_174\n      swap2\n      swap1\n      tag_90\n      jump\t// in\n    tag_174:\n      swap3\n      pop\n      pop\n      dup2\n      swap1\n      sstore\n      pop\n        /* \"s1911027_2.sol\":7617:7927  if (dice < 4) {\r... */\n    tag_168:\n        /* \"s1911027_2.sol\":7937:7964  resetGameAll(currGame.host) */\n      tag_175\n        /* \"s1911027_2.sol\":7950:7958  currGame */\n      dup3\n        /* \"s1911027_2.sol\":7950:7963  currGame.host */\n      0x00\n      add\n      mload\n        /* \"s1911027_2.sol\":7937:7949  resetGameAll */\n      tag_80\n        /* \"s1911027_2.sol\":7937:7964  resetGameAll(currGame.host) */\n      jump\t// in\n    tag_175:\n        /* \"s1911027_2.sol\":6660:7972  {\r... */\n      pop\n      pop\n      pop\n        /* \"s1911027_2.sol\":6637:7972  function roll() public {\r... */\n      jump\t// out\n        /* \"s1911027_2.sol\":2635:2672  mapping(address => Game) public Games */\n    tag_47:\n      mstore(0x20, 0x02)\n      dup1\n      0x00\n      mstore\n      keccak256(0x00, 0x40)\n      0x00\n      swap2\n      pop\n      swap1\n      pop\n      dup1\n      0x00\n      add\n      0x00\n      swap1\n      sload\n      swap1\n      0x0100\n      exp\n      swap1\n      div\n      0xffffffffffffffffffffffffffffffffffffffff\n      and\n      swap1\n      dup1\n      0x01\n      add\n      sload\n      swap1\n      dup1\n      0x02\n      add\n      sload\n      swap1\n      dup1\n      0x03\n      add\n      0x00\n      swap1\n      sload\n      swap1\n      0x0100\n      exp\n      swap1\n      div\n      0xffffffffffffffffffffffffffffffffffffffff\n      and\n      swap1\n      dup1\n      0x04\n      add\n      sload\n      swap1\n      dup1\n      0x05\n      add\n      sload\n      swap1\n      dup1\n      0x06\n      add\n      sload\n      swap1\n      dup1\n      0x07\n      add\n      0x00\n      swap1\n      sload\n      swap1\n      0x0100\n      exp\n      swap1\n      div\n      0xff\n      and\n      swap1\n      pop\n      dup9\n      jump\t// out\n        /* \"s1911027_2.sol\":4074:5054  function joinGame(address hostAddress, bytes32 guestHash) payable public {\r... */\n    tag_53:\n        /* \"s1911027_2.sol\":4209:4210  0 */\n      0x00\n        /* \"s1911027_2.sol\":4166:4211  Players[msg.sender].hostAddress == address(0) */\n      0xffffffffffffffffffffffffffffffffffffffff\n      and\n        /* \"s1911027_2.sol\":4166:4173  Players */\n      0x01\n        /* \"s1911027_2.sol\":4166:4185  Players[msg.sender] */\n      0x00\n        /* \"s1911027_2.sol\":4174:4184  msg.sender */\n      caller\n        /* \"s1911027_2.sol\":4166:4185  Players[msg.sender] */\n      0xffffffffffffffffffffffffffffffffffffffff\n      and\n      0xffffffffffffffffffffffffffffffffffffffff\n      and\n      dup2\n      mstore\n      0x20\n      add\n      swap1\n      dup2\n      mstore\n      0x20\n      add\n      0x00\n      keccak256\n        /* \"s1911027_2.sol\":4166:4197  Players[msg.sender].hostAddress */\n      0x01\n      add\n      0x00\n      swap1\n      sload\n      swap1\n      0x0100\n      exp\n      swap1\n      div\n      0xffffffffffffffffffffffffffffffffffffffff\n      and\n        /* \"s1911027_2.sol\":4166:4211  Players[msg.sender].hostAddress == address(0) */\n      0xffffffffffffffffffffffffffffffffffffffff\n      and\n      eq\n        /* \"s1911027_2.sol\":4158:4237  require(Players[msg.sender].hostAddress == address(0), \"You already in a game\") */\n      tag_177\n      jumpi\n      mload(0x40)\n      0x08c379a000000000000000000000000000000000000000000000000000000000\n      dup2\n      mstore\n      0x04\n      add\n      tag_178\n      swap1\n      tag_108\n      jump\t// in\n    tag_178:\n      mload(0x40)\n      dup1\n      swap2\n      sub\n      swap1\n      revert\n    tag_177:\n        /* \"s1911027_2.sol\":4271:4281  msg.sender */\n      caller\n        /* \"s1911027_2.sol\":4256:4281  hostAddress != msg.sender */\n      0xffffffffffffffffffffffffffffffffffffffff\n      and\n        /* \"s1911027_2.sol\":4256:4267  hostAddress */\n      dup3\n        /* \"s1911027_2.sol\":4256:4281  hostAddress != msg.sender */\n      0xffffffffffffffffffffffffffffffffffffffff\n      and\n      eq\n      iszero\n        /* \"s1911027_2.sol\":4248:4319  require(hostAddress != msg.sender, \"You can not play against yourself\") */\n      tag_179\n      jumpi\n      mload(0x40)\n      0x08c379a000000000000000000000000000000000000000000000000000000000\n      dup2\n      mstore\n      0x04\n      add\n      tag_180\n      swap1\n      tag_181\n      jump\t// in\n    tag_180:\n      mload(0x40)\n      dup1\n      swap2\n      sub\n      swap1\n      revert\n    tag_179:\n        /* \"s1911027_2.sol\":4365:4376  hostAddress */\n      dup2\n        /* \"s1911027_2.sol\":4338:4376  Games[hostAddress].host == hostAddress */\n      0xffffffffffffffffffffffffffffffffffffffff\n      and\n        /* \"s1911027_2.sol\":4338:4343  Games */\n      0x02\n        /* \"s1911027_2.sol\":4338:4356  Games[hostAddress] */\n      0x00\n        /* \"s1911027_2.sol\":4344:4355  hostAddress */\n      dup5\n        /* \"s1911027_2.sol\":4338:4356  Games[hostAddress] */\n      0xffffffffffffffffffffffffffffffffffffffff\n      and\n      0xffffffffffffffffffffffffffffffffffffffff\n      and\n      dup2\n      mstore\n      0x20\n      add\n      swap1\n      dup2\n      mstore\n      0x20\n      add\n      0x00\n      keccak256\n        /* \"s1911027_2.sol\":4338:4361  Games[hostAddress].host */\n      0x00\n      add\n      0x00\n      swap1\n      sload\n      swap1\n      0x0100\n      exp\n      swap1\n      div\n      0xffffffffffffffffffffffffffffffffffffffff\n      and\n        /* \"s1911027_2.sol\":4338:4376  Games[hostAddress].host == hostAddress */\n      0xffffffffffffffffffffffffffffffffffffffff\n      and\n      eq\n        /* \"s1911027_2.sol\":4330:4410  require(Games[hostAddress].host == hostAddress, \"The user didn't create a game\") */\n      tag_182\n      jumpi\n      mload(0x40)\n      0x08c379a000000000000000000000000000000000000000000000000000000000\n      dup2\n      mstore\n      0x04\n      add\n      tag_183\n      swap1\n      tag_184\n      jump\t// in\n    tag_183:\n      mload(0x40)\n      dup1\n      swap2\n      sub\n      swap1\n      revert\n    tag_182:\n        /* \"s1911027_2.sol\":4457:4467  msg.sender */\n      caller\n        /* \"s1911027_2.sol\":4429:4467  Games[hostAddress].guest == msg.sender */\n      0xffffffffffffffffffffffffffffffffffffffff\n      and\n        /* \"s1911027_2.sol\":4429:4434  Games */\n      0x02\n        /* \"s1911027_2.sol\":4429:4447  Games[hostAddress] */\n      0x00\n        /* \"s1911027_2.sol\":4435:4446  hostAddress */\n      dup5\n        /* \"s1911027_2.sol\":4429:4447  Games[hostAddress] */\n      0xffffffffffffffffffffffffffffffffffffffff\n      and\n      0xffffffffffffffffffffffffffffffffffffffff\n      and\n      dup2\n      mstore\n      0x20\n      add\n      swap1\n      dup2\n      mstore\n      0x20\n      add\n      0x00\n      keccak256\n        /* \"s1911027_2.sol\":4429:4453  Games[hostAddress].guest */\n      0x03\n      add\n      0x00\n      swap1\n      sload\n      swap1\n      0x0100\n      exp\n      swap1\n      div\n      0xffffffffffffffffffffffffffffffffffffffff\n      and\n        /* \"s1911027_2.sol\":4429:4467  Games[hostAddress].guest == msg.sender */\n      0xffffffffffffffffffffffffffffffffffffffff\n      and\n      eq\n        /* \"s1911027_2.sol\":4429:4509  Games[hostAddress].guest == msg.sender || Games[hostAddress].guest == address(0) */\n      dup1\n      tag_185\n      jumpi\n      pop\n        /* \"s1911027_2.sol\":4507:4508  0 */\n      0x00\n        /* \"s1911027_2.sol\":4471:4509  Games[hostAddress].guest == address(0) */\n      0xffffffffffffffffffffffffffffffffffffffff\n      and\n        /* \"s1911027_2.sol\":4471:4476  Games */\n      0x02\n        /* \"s1911027_2.sol\":4471:4489  Games[hostAddress] */\n      0x00\n        /* \"s1911027_2.sol\":4477:4488  hostAddress */\n      dup5\n        /* \"s1911027_2.sol\":4471:4489  Games[hostAddress] */\n      0xffffffffffffffffffffffffffffffffffffffff\n      and\n      0xffffffffffffffffffffffffffffffffffffffff\n      and\n      dup2\n      mstore\n      0x20\n      add\n      swap1\n      dup2\n      mstore\n      0x20\n      add\n      0x00\n      keccak256\n        /* \"s1911027_2.sol\":4471:4495  Games[hostAddress].guest */\n      0x03\n      add\n      0x00\n      swap1\n      sload\n      swap1\n      0x0100\n      exp\n      swap1\n      div\n      0xffffffffffffffffffffffffffffffffffffffff\n      and\n        /* \"s1911027_2.sol\":4471:4509  Games[hostAddress].guest == address(0) */\n      0xffffffffffffffffffffffffffffffffffffffff\n      and\n      eq\n        /* \"s1911027_2.sol\":4429:4509  Games[hostAddress].guest == msg.sender || Games[hostAddress].guest == address(0) */\n    tag_185:\n        /* \"s1911027_2.sol\":4421:4560  require(Games[hostAddress].guest == msg.sender || Games[hostAddress].guest == address(0) , \"Your are not welcome to participate this game\") */\n      tag_186\n      jumpi\n      mload(0x40)\n      0x08c379a000000000000000000000000000000000000000000000000000000000\n      dup2\n      mstore\n      0x04\n      add\n      tag_187\n      swap1\n      tag_188\n      jump\t// in\n    tag_187:\n      mload(0x40)\n      dup1\n      swap2\n      sub\n      swap1\n      revert\n    tag_186:\n        /* \"s1911027_2.sol\":4610:4619  guestHash */\n      dup1\n        /* \"s1911027_2.sol\":4579:4584  Games */\n      0x02\n        /* \"s1911027_2.sol\":4579:4597  Games[hostAddress] */\n      0x00\n        /* \"s1911027_2.sol\":4585:4596  hostAddress */\n      dup5\n        /* \"s1911027_2.sol\":4579:4597  Games[hostAddress] */\n      0xffffffffffffffffffffffffffffffffffffffff\n      and\n      0xffffffffffffffffffffffffffffffffffffffff\n      and\n      dup2\n      mstore\n      0x20\n      add\n      swap1\n      dup2\n      mstore\n      0x20\n      add\n      0x00\n      keccak256\n        /* \"s1911027_2.sol\":4579:4606  Games[hostAddress].hostHash */\n      0x01\n      add\n      sload\n        /* \"s1911027_2.sol\":4579:4619  Games[hostAddress].hostHash != guestHash */\n      eq\n      iszero\n        /* \"s1911027_2.sol\":4571:4662  require(Games[hostAddress].hostHash != guestHash, \"Hash collision, please use other value\") */\n      tag_189\n      jumpi\n      mload(0x40)\n      0x08c379a000000000000000000000000000000000000000000000000000000000\n      dup2\n      mstore\n      0x04\n      add\n      tag_190\n      swap1\n      tag_191\n      jump\t// in\n    tag_190:\n      mload(0x40)\n      dup1\n      swap2\n      sub\n      swap1\n      revert\n    tag_189:\n        /* \"s1911027_2.sol\":4724:4731  3 ether */\n      0x29a2241af62c0000\n        /* \"s1911027_2.sol\":4711:4720  msg.value */\n      callvalue\n        /* \"s1911027_2.sol\":4681:4688  Players */\n      0x01\n        /* \"s1911027_2.sol\":4681:4700  Players[msg.sender] */\n      0x00\n        /* \"s1911027_2.sol\":4689:4699  msg.sender */\n      caller\n        /* \"s1911027_2.sol\":4681:4700  Players[msg.sender] */\n      0xffffffffffffffffffffffffffffffffffffffff\n      and\n      0xffffffffffffffffffffffffffffffffffffffff\n      and\n      dup2\n      mstore\n      0x20\n      add\n      swap1\n      dup2\n      mstore\n      0x20\n      add\n      0x00\n      keccak256\n        /* \"s1911027_2.sol\":4681:4708  Players[msg.sender].balance */\n      0x00\n      add\n      sload\n        /* \"s1911027_2.sol\":4681:4720  Players[msg.sender].balance + msg.value */\n      tag_192\n      swap2\n      swap1\n      tag_90\n      jump\t// in\n    tag_192:\n        /* \"s1911027_2.sol\":4681:4731  Players[msg.sender].balance + msg.value >= 3 ether */\n      lt\n      iszero\n        /* \"s1911027_2.sol\":4673:4784  require(Players[msg.sender].balance + msg.value >= 3 ether, \"You should have at least 3 eth to start the game\") */\n      tag_193\n      jumpi\n      mload(0x40)\n      0x08c379a000000000000000000000000000000000000000000000000000000000\n      dup2\n      mstore\n      0x04\n      add\n      tag_194\n      swap1\n      tag_112\n      jump\t// in\n    tag_194:\n      mload(0x40)\n      dup1\n      swap2\n      sub\n      swap1\n      revert\n    tag_193:\n        /* \"s1911027_2.sol\":4824:4834  msg.sender */\n      caller\n        /* \"s1911027_2.sol\":4797:4802  Games */\n      0x02\n        /* \"s1911027_2.sol\":4797:4815  Games[hostAddress] */\n      0x00\n        /* \"s1911027_2.sol\":4803:4814  hostAddress */\n      dup5\n        /* \"s1911027_2.sol\":4797:4815  Games[hostAddress] */\n      0xffffffffffffffffffffffffffffffffffffffff\n      and\n      0xffffffffffffffffffffffffffffffffffffffff\n      and\n      dup2\n      mstore\n      0x20\n      add\n      swap1\n      dup2\n      mstore\n      0x20\n      add\n      0x00\n      keccak256\n        /* \"s1911027_2.sol\":4797:4821  Games[hostAddress].guest */\n      0x03\n      add\n      0x00\n        /* \"s1911027_2.sol\":4797:4834  Games[hostAddress].guest = msg.sender */\n      0x0100\n      exp\n      dup2\n      sload\n      dup2\n      0xffffffffffffffffffffffffffffffffffffffff\n      mul\n      not\n      and\n      swap1\n      dup4\n      0xffffffffffffffffffffffffffffffffffffffff\n      and\n      mul\n      or\n      swap1\n      sstore\n      pop\n        /* \"s1911027_2.sol\":4876:4885  guestHash */\n      dup1\n        /* \"s1911027_2.sol\":4845:4850  Games */\n      0x02\n        /* \"s1911027_2.sol\":4845:4863  Games[hostAddress] */\n      0x00\n        /* \"s1911027_2.sol\":4851:4862  hostAddress */\n      dup5\n        /* \"s1911027_2.sol\":4845:4863  Games[hostAddress] */\n      0xffffffffffffffffffffffffffffffffffffffff\n      and\n      0xffffffffffffffffffffffffffffffffffffffff\n      and\n      dup2\n      mstore\n      0x20\n      add\n      swap1\n      dup2\n      mstore\n      0x20\n      add\n      0x00\n      keccak256\n        /* \"s1911027_2.sol\":4845:4873  Games[hostAddress].guestHash */\n      0x04\n      add\n        /* \"s1911027_2.sol\":4845:4885  Games[hostAddress].guestHash = guestHash */\n      dup2\n      swap1\n      sstore\n      pop\n        /* \"s1911027_2.sol\":4927:4939  block.number */\n      number\n        /* \"s1911027_2.sol\":4896:4901  Games */\n      0x02\n        /* \"s1911027_2.sol\":4896:4914  Games[hostAddress] */\n      0x00\n        /* \"s1911027_2.sol\":4902:4913  hostAddress */\n      dup5\n        /* \"s1911027_2.sol\":4896:4914  Games[hostAddress] */\n      0xffffffffffffffffffffffffffffffffffffffff\n      and\n      0xffffffffffffffffffffffffffffffffffffffff\n      and\n      dup2\n      mstore\n      0x20\n      add\n      swap1\n      dup2\n      mstore\n      0x20\n      add\n      0x00\n      keccak256\n        /* \"s1911027_2.sol\":4896:4924  Games[hostAddress].lastBlock */\n      0x06\n      add\n        /* \"s1911027_2.sol\":4896:4939  Games[hostAddress].lastBlock = block.number */\n      dup2\n      swap1\n      sstore\n      pop\n        /* \"s1911027_2.sol\":4981:4990  msg.value */\n      callvalue\n        /* \"s1911027_2.sol\":4950:4957  Players */\n      0x01\n        /* \"s1911027_2.sol\":4950:4969  Players[msg.sender] */\n      0x00\n        /* \"s1911027_2.sol\":4958:4968  msg.sender */\n      caller\n        /* \"s1911027_2.sol\":4950:4969  Players[msg.sender] */\n      0xffffffffffffffffffffffffffffffffffffffff\n      and\n      0xffffffffffffffffffffffffffffffffffffffff\n      and\n      dup2\n      mstore\n      0x20\n      add\n      swap1\n      dup2\n      mstore\n      0x20\n      add\n      0x00\n      keccak256\n        /* \"s1911027_2.sol\":4950:4977  Players[msg.sender].balance */\n      0x00\n      add\n      0x00\n        /* \"s1911027_2.sol\":4950:4990  Players[msg.sender].balance += msg.value */\n      dup3\n      dup3\n      sload\n      tag_195\n      swap2\n      swap1\n      tag_90\n      jump\t// in\n    tag_195:\n      swap3\n      pop\n      pop\n      dup2\n      swap1\n      sstore\n      pop\n        /* \"s1911027_2.sol\":5035:5046  hostAddress */\n      dup2\n        /* \"s1911027_2.sol\":5001:5008  Players */\n      0x01\n        /* \"s1911027_2.sol\":5001:5020  Players[msg.sender] */\n      0x00\n        /* \"s1911027_2.sol\":5009:5019  msg.sender */\n      caller\n        /* \"s1911027_2.sol\":5001:5020  Players[msg.sender] */\n      0xffffffffffffffffffffffffffffffffffffffff\n      and\n      0xffffffffffffffffffffffffffffffffffffffff\n      and\n      dup2\n      mstore\n      0x20\n      add\n      swap1\n      dup2\n      mstore\n      0x20\n      add\n      0x00\n      keccak256\n        /* \"s1911027_2.sol\":5001:5032  Players[msg.sender].hostAddress */\n      0x01\n      add\n      0x00\n        /* \"s1911027_2.sol\":5001:5046  Players[msg.sender].hostAddress = hostAddress */\n      0x0100\n      exp\n      dup2\n      sload\n      dup2\n      0xffffffffffffffffffffffffffffffffffffffff\n      mul\n      not\n      and\n      swap1\n      dup4\n      0xffffffffffffffffffffffffffffffffffffffff\n      and\n      mul\n      or\n      swap1\n      sstore\n      pop\n        /* \"s1911027_2.sol\":4074:5054  function joinGame(address hostAddress, bytes32 guestHash) payable public {\r... */\n      pop\n      pop\n      jump\t// out\n        /* \"s1911027_2.sol\":3332:3971  function createPrivateGame(address guestAddress, bytes32 hostHash) payable public{\r... */\n    tag_56:\n        /* \"s1911027_2.sol\":3475:3476  0 */\n      0x00\n        /* \"s1911027_2.sol\":3432:3477  Players[msg.sender].hostAddress == address(0) */\n      0xffffffffffffffffffffffffffffffffffffffff\n      and\n        /* \"s1911027_2.sol\":3432:3439  Players */\n      0x01\n        /* \"s1911027_2.sol\":3432:3451  Players[msg.sender] */\n      0x00\n        /* \"s1911027_2.sol\":3440:3450  msg.sender */\n      caller\n        /* \"s1911027_2.sol\":3432:3451  Players[msg.sender] */\n      0xffffffffffffffffffffffffffffffffffffffff\n      and\n      0xffffffffffffffffffffffffffffffffffffffff\n      and\n      dup2\n      mstore\n      0x20\n      add\n      swap1\n      dup2\n      mstore\n      0x20\n      add\n      0x00\n      keccak256\n        /* \"s1911027_2.sol\":3432:3463  Players[msg.sender].hostAddress */\n      0x01\n      add\n      0x00\n      swap1\n      sload\n      swap1\n      0x0100\n      exp\n      swap1\n      div\n      0xffffffffffffffffffffffffffffffffffffffff\n      and\n        /* \"s1911027_2.sol\":3432:3477  Players[msg.sender].hostAddress == address(0) */\n      0xffffffffffffffffffffffffffffffffffffffff\n      and\n      eq\n        /* \"s1911027_2.sol\":3424:3503  require(Players[msg.sender].hostAddress == address(0), \"You already in a game\") */\n      tag_197\n      jumpi\n      mload(0x40)\n      0x08c379a000000000000000000000000000000000000000000000000000000000\n      dup2\n      mstore\n      0x04\n      add\n      tag_198\n      swap1\n      tag_108\n      jump\t// in\n    tag_198:\n      mload(0x40)\n      dup1\n      swap2\n      sub\n      swap1\n      revert\n    tag_197:\n        /* \"s1911027_2.sol\":3538:3548  msg.sender */\n      caller\n        /* \"s1911027_2.sol\":3522:3548  guestAddress != msg.sender */\n      0xffffffffffffffffffffffffffffffffffffffff\n      and\n        /* \"s1911027_2.sol\":3522:3534  guestAddress */\n      dup3\n        /* \"s1911027_2.sol\":3522:3548  guestAddress != msg.sender */\n      0xffffffffffffffffffffffffffffffffffffffff\n      and\n      eq\n      iszero\n        /* \"s1911027_2.sol\":3514:3586  require(guestAddress != msg.sender, \"You can not play against yourself\") */\n      tag_199\n      jumpi\n      mload(0x40)\n      0x08c379a000000000000000000000000000000000000000000000000000000000\n      dup2\n      mstore\n      0x04\n      add\n      tag_200\n      swap1\n      tag_181\n      jump\t// in\n    tag_200:\n      mload(0x40)\n      dup1\n      swap2\n      sub\n      swap1\n      revert\n    tag_199:\n        /* \"s1911027_2.sol\":3648:3655  3 ether */\n      0x29a2241af62c0000\n        /* \"s1911027_2.sol\":3635:3644  msg.value */\n      callvalue\n        /* \"s1911027_2.sol\":3605:3612  Players */\n      0x01\n        /* \"s1911027_2.sol\":3605:3624  Players[msg.sender] */\n      0x00\n        /* \"s1911027_2.sol\":3613:3623  msg.sender */\n      caller\n        /* \"s1911027_2.sol\":3605:3624  Players[msg.sender] */\n      0xffffffffffffffffffffffffffffffffffffffff\n      and\n      0xffffffffffffffffffffffffffffffffffffffff\n      and\n      dup2\n      mstore\n      0x20\n      add\n      swap1\n      dup2\n      mstore\n      0x20\n      add\n      0x00\n      keccak256\n        /* \"s1911027_2.sol\":3605:3632  Players[msg.sender].balance */\n      0x00\n      add\n      sload\n        /* \"s1911027_2.sol\":3605:3644  Players[msg.sender].balance + msg.value */\n      tag_201\n      swap2\n      swap1\n      tag_90\n      jump\t// in\n    tag_201:\n        /* \"s1911027_2.sol\":3605:3655  Players[msg.sender].balance + msg.value >= 3 ether */\n      lt\n      iszero\n        /* \"s1911027_2.sol\":3597:3708  require(Players[msg.sender].balance + msg.value >= 3 ether, \"You should have at least 3 eth to start the game\") */\n      tag_202\n      jumpi\n      mload(0x40)\n      0x08c379a000000000000000000000000000000000000000000000000000000000\n      dup2\n      mstore\n      0x04\n      add\n      tag_203\n      swap1\n      tag_112\n      jump\t// in\n    tag_203:\n      mload(0x40)\n      dup1\n      swap2\n      sub\n      swap1\n      revert\n    tag_202:\n        /* \"s1911027_2.sol\":3729:3748  Game memory newGame */\n      0x00\n        /* \"s1911027_2.sol\":3751:3819  Game(msg.sender, hostHash, 0, address(0), 0, 0, block.number, false) */\n      mload(0x40)\n      dup1\n      0x0100\n      add\n      0x40\n      mstore\n      dup1\n        /* \"s1911027_2.sol\":3756:3766  msg.sender */\n      caller\n        /* \"s1911027_2.sol\":3751:3819  Game(msg.sender, hostHash, 0, address(0), 0, 0, block.number, false) */\n      0xffffffffffffffffffffffffffffffffffffffff\n      and\n      dup2\n      mstore\n      0x20\n      add\n        /* \"s1911027_2.sol\":3768:3776  hostHash */\n      dup4\n        /* \"s1911027_2.sol\":3751:3819  Game(msg.sender, hostHash, 0, address(0), 0, 0, block.number, false) */\n      dup2\n      mstore\n      0x20\n      add\n        /* \"s1911027_2.sol\":3778:3779  0 */\n      0x00\n        /* \"s1911027_2.sol\":3751:3819  Game(msg.sender, hostHash, 0, address(0), 0, 0, block.number, false) */\n      dup2\n      mstore\n      0x20\n      add\n        /* \"s1911027_2.sol\":3789:3790  0 */\n      0x00\n        /* \"s1911027_2.sol\":3751:3819  Game(msg.sender, hostHash, 0, address(0), 0, 0, block.number, false) */\n      0xffffffffffffffffffffffffffffffffffffffff\n      and\n      dup2\n      mstore\n      0x20\n      add\n        /* \"s1911027_2.sol\":3793:3794  0 */\n      0x00\n        /* \"s1911027_2.sol\":3751:3819  Game(msg.sender, hostHash, 0, address(0), 0, 0, block.number, false) */\n      dup1\n      shl\n      dup2\n      mstore\n      0x20\n      add\n        /* \"s1911027_2.sol\":3796:3797  0 */\n      0x00\n        /* \"s1911027_2.sol\":3751:3819  Game(msg.sender, hostHash, 0, address(0), 0, 0, block.number, false) */\n      dup2\n      mstore\n      0x20\n      add\n        /* \"s1911027_2.sol\":3799:3811  block.number */\n      number\n        /* \"s1911027_2.sol\":3751:3819  Game(msg.sender, hostHash, 0, address(0), 0, 0, block.number, false) */\n      dup2\n      mstore\n      0x20\n      add\n        /* \"s1911027_2.sol\":3813:3818  false */\n      0x00\n        /* \"s1911027_2.sol\":3751:3819  Game(msg.sender, hostHash, 0, address(0), 0, 0, block.number, false) */\n      iszero\n      iszero\n      dup2\n      mstore\n      pop\n        /* \"s1911027_2.sol\":3729:3819  Game memory newGame = Game(msg.sender, hostHash, 0, address(0), 0, 0, block.number, false) */\n      swap1\n      pop\n        /* \"s1911027_2.sol\":3850:3857  newGame */\n      dup1\n        /* \"s1911027_2.sol\":3830:3835  Games */\n      0x02\n        /* \"s1911027_2.sol\":3830:3847  Games[msg.sender] */\n      0x00\n        /* \"s1911027_2.sol\":3836:3846  msg.sender */\n      caller\n        /* \"s1911027_2.sol\":3830:3847  Games[msg.sender] */\n      0xffffffffffffffffffffffffffffffffffffffff\n      and\n      0xffffffffffffffffffffffffffffffffffffffff\n      and\n      dup2\n      mstore\n      0x20\n      add\n      swap1\n      dup2\n      mstore\n      0x20\n      add\n      0x00\n      keccak256\n        /* \"s1911027_2.sol\":3830:3857  Games[msg.sender] = newGame */\n      0x00\n      dup3\n      add\n      mload\n      dup2\n      0x00\n      add\n      exp(0x0100, 0x00)\n      dup2\n      sload\n      dup2\n      0xffffffffffffffffffffffffffffffffffffffff\n      mul\n      not\n      and\n      swap1\n      dup4\n      0xffffffffffffffffffffffffffffffffffffffff\n      and\n      mul\n      or\n      swap1\n      sstore\n      pop\n      0x20\n      dup3\n      add\n      mload\n      dup2\n      0x01\n      add\n      sstore\n      0x40\n      dup3\n      add\n      mload\n      dup2\n      0x02\n      add\n      sstore\n      0x60\n      dup3\n      add\n      mload\n      dup2\n      0x03\n      add\n      exp(0x0100, 0x00)\n      dup2\n      sload\n      dup2\n      0xffffffffffffffffffffffffffffffffffffffff\n      mul\n      not\n      and\n      swap1\n      dup4\n      0xffffffffffffffffffffffffffffffffffffffff\n      and\n      mul\n      or\n      swap1\n      sstore\n      pop\n      0x80\n      dup3\n      add\n      mload\n      dup2\n      0x04\n      add\n      sstore\n      0xa0\n      dup3\n      add\n      mload\n      dup2\n      0x05\n      add\n      sstore\n      0xc0\n      dup3\n      add\n      mload\n      dup2\n      0x06\n      add\n      sstore\n      0xe0\n      dup3\n      add\n      mload\n      dup2\n      0x07\n      add\n      exp(0x0100, 0x00)\n      dup2\n      sload\n      dup2\n      0xff\n      mul\n      not\n      and\n      swap1\n      dup4\n      iszero\n      iszero\n      mul\n      or\n      swap1\n      sstore\n      pop\n      swap1\n      pop\n      pop\n        /* \"s1911027_2.sol\":3899:3908  msg.value */\n      callvalue\n        /* \"s1911027_2.sol\":3868:3875  Players */\n      0x01\n        /* \"s1911027_2.sol\":3868:3887  Players[msg.sender] */\n      0x00\n        /* \"s1911027_2.sol\":3876:3886  msg.sender */\n      caller\n        /* \"s1911027_2.sol\":3868:3887  Players[msg.sender] */\n      0xffffffffffffffffffffffffffffffffffffffff\n      and\n      0xffffffffffffffffffffffffffffffffffffffff\n      and\n      dup2\n      mstore\n      0x20\n      add\n      swap1\n      dup2\n      mstore\n      0x20\n      add\n      0x00\n      keccak256\n        /* \"s1911027_2.sol\":3868:3895  Players[msg.sender].balance */\n      0x00\n      add\n      0x00\n        /* \"s1911027_2.sol\":3868:3908  Players[msg.sender].balance += msg.value */\n      dup3\n      dup3\n      sload\n      tag_204\n      swap2\n      swap1\n      tag_90\n      jump\t// in\n    tag_204:\n      swap3\n      pop\n      pop\n      dup2\n      swap1\n      sstore\n      pop\n        /* \"s1911027_2.sol\":3953:3963  msg.sender */\n      caller\n        /* \"s1911027_2.sol\":3919:3926  Players */\n      0x01\n        /* \"s1911027_2.sol\":3919:3938  Players[msg.sender] */\n      0x00\n        /* \"s1911027_2.sol\":3927:3937  msg.sender */\n      caller\n        /* \"s1911027_2.sol\":3919:3938  Players[msg.sender] */\n      0xffffffffffffffffffffffffffffffffffffffff\n      and\n      0xffffffffffffffffffffffffffffffffffffffff\n      and\n      dup2\n      mstore\n      0x20\n      add\n      swap1\n      dup2\n      mstore\n      0x20\n      add\n      0x00\n      keccak256\n        /* \"s1911027_2.sol\":3919:3950  Players[msg.sender].hostAddress */\n      0x01\n      add\n      0x00\n        /* \"s1911027_2.sol\":3919:3963  Players[msg.sender].hostAddress = msg.sender */\n      0x0100\n      exp\n      dup2\n      sload\n      dup2\n      0xffffffffffffffffffffffffffffffffffffffff\n      mul\n      not\n      and\n      swap1\n      dup4\n      0xffffffffffffffffffffffffffffffffffffffff\n      and\n      mul\n      or\n      swap1\n      sstore\n      pop\n        /* \"s1911027_2.sol\":3413:3971  {\r... */\n      pop\n        /* \"s1911027_2.sol\":3332:3971  function createPrivateGame(address guestAddress, bytes32 hostHash) payable public{\r... */\n      pop\n      pop\n      jump\t// out\n        /* \"s1911027_2.sol\":7986:8298  function resetGameAll(address _hostAddress) private {\r... */\n    tag_80:\n        /* \"s1911027_2.sol\":8049:8069  Game memory nullGame */\n      tag_206\n      tag_207\n      jump\t// in\n    tag_206:\n        /* \"s1911027_2.sol\":8106:8110  true */\n      0x01\n        /* \"s1911027_2.sol\":8080:8088  nullGame */\n      dup2\n        /* \"s1911027_2.sol\":8080:8103  nullGame.withdrawPermit */\n      0xe0\n      add\n        /* \"s1911027_2.sol\":8080:8110  nullGame.withdrawPermit = true */\n      swap1\n      iszero\n      iszero\n      swap1\n      dup2\n      iszero\n      iszero\n      dup2\n      mstore\n      pop\n      pop\n        /* \"s1911027_2.sol\":8177:8178  0 */\n      0x00\n        /* \"s1911027_2.sol\":8121:8128  Players */\n      0x01\n        /* \"s1911027_2.sol\":8121:8154  Players[Games[_hostAddress].host] */\n      0x00\n        /* \"s1911027_2.sol\":8129:8134  Games */\n      0x02\n        /* \"s1911027_2.sol\":8129:8148  Games[_hostAddress] */\n      0x00\n        /* \"s1911027_2.sol\":8135:8147  _hostAddress */\n      dup7\n        /* \"s1911027_2.sol\":8129:8148  Games[_hostAddress] */\n      0xffffffffffffffffffffffffffffffffffffffff\n      and\n      0xffffffffffffffffffffffffffffffffffffffff\n      and\n      dup2\n      mstore\n      0x20\n      add\n      swap1\n      dup2\n      mstore\n      0x20\n      add\n      0x00\n      keccak256\n        /* \"s1911027_2.sol\":8129:8153  Games[_hostAddress].host */\n      0x00\n      add\n      0x00\n      swap1\n      sload\n      swap1\n      0x0100\n      exp\n      swap1\n      div\n      0xffffffffffffffffffffffffffffffffffffffff\n      and\n        /* \"s1911027_2.sol\":8121:8154  Players[Games[_hostAddress].host] */\n      0xffffffffffffffffffffffffffffffffffffffff\n      and\n      0xffffffffffffffffffffffffffffffffffffffff\n      and\n      dup2\n      mstore\n      0x20\n      add\n      swap1\n      dup2\n      mstore\n      0x20\n      add\n      0x00\n      keccak256\n        /* \"s1911027_2.sol\":8121:8166  Players[Games[_hostAddress].host].hostAddress */\n      0x01\n      add\n      0x00\n        /* \"s1911027_2.sol\":8121:8179  Players[Games[_hostAddress].host].hostAddress = address(0) */\n      0x0100\n      exp\n      dup2\n      sload\n      dup2\n      0xffffffffffffffffffffffffffffffffffffffff\n      mul\n      not\n      and\n      swap1\n      dup4\n      0xffffffffffffffffffffffffffffffffffffffff\n      and\n      mul\n      or\n      swap1\n      sstore\n      pop\n        /* \"s1911027_2.sol\":8247:8248  0 */\n      0x00\n        /* \"s1911027_2.sol\":8190:8197  Players */\n      0x01\n        /* \"s1911027_2.sol\":8190:8224  Players[Games[_hostAddress].guest] */\n      0x00\n        /* \"s1911027_2.sol\":8198:8203  Games */\n      0x02\n        /* \"s1911027_2.sol\":8198:8217  Games[_hostAddress] */\n      0x00\n        /* \"s1911027_2.sol\":8204:8216  _hostAddress */\n      dup7\n        /* \"s1911027_2.sol\":8198:8217  Games[_hostAddress] */\n      0xffffffffffffffffffffffffffffffffffffffff\n      and\n      0xffffffffffffffffffffffffffffffffffffffff\n      and\n      dup2\n      mstore\n      0x20\n      add\n      swap1\n      dup2\n      mstore\n      0x20\n      add\n      0x00\n      keccak256\n        /* \"s1911027_2.sol\":8198:8223  Games[_hostAddress].guest */\n      0x03\n      add\n      0x00\n      swap1\n      sload\n      swap1\n      0x0100\n      exp\n      swap1\n      div\n      0xffffffffffffffffffffffffffffffffffffffff\n      and\n        /* \"s1911027_2.sol\":8190:8224  Players[Games[_hostAddress].guest] */\n      0xffffffffffffffffffffffffffffffffffffffff\n      and\n      0xffffffffffffffffffffffffffffffffffffffff\n      and\n      dup2\n      mstore\n      0x20\n      add\n      swap1\n      dup2\n      mstore\n      0x20\n      add\n      0x00\n      keccak256\n        /* \"s1911027_2.sol\":8190:8236  Players[Games[_hostAddress].guest].hostAddress */\n      0x01\n      add\n      0x00\n        /* \"s1911027_2.sol\":8190:8249  Players[Games[_hostAddress].guest].hostAddress = address(0) */\n      0x0100\n      exp\n      dup2\n      sload\n      dup2\n      0xffffffffffffffffffffffffffffffffffffffff\n      mul\n      not\n      and\n      swap1\n      dup4\n      0xffffffffffffffffffffffffffffffffffffffff\n      and\n      mul\n      or\n      swap1\n      sstore\n      pop\n        /* \"s1911027_2.sol\":8282:8290  nullGame */\n      dup1\n        /* \"s1911027_2.sol\":8260:8265  Games */\n      0x02\n        /* \"s1911027_2.sol\":8260:8279  Games[_hostAddress] */\n      0x00\n        /* \"s1911027_2.sol\":8266:8278  _hostAddress */\n      dup5\n        /* \"s1911027_2.sol\":8260:8279  Games[_hostAddress] */\n      0xffffffffffffffffffffffffffffffffffffffff\n      and\n      0xffffffffffffffffffffffffffffffffffffffff\n      and\n      dup2\n      mstore\n      0x20\n      add\n      swap1\n      dup2\n      mstore\n      0x20\n      add\n      0x00\n      keccak256\n        /* \"s1911027_2.sol\":8260:8290  Games[_hostAddress] = nullGame */\n      0x00\n      dup3\n      add\n      mload\n      dup2\n      0x00\n      add\n      exp(0x0100, 0x00)\n      dup2\n      sload\n      dup2\n      0xffffffffffffffffffffffffffffffffffffffff\n      mul\n      not\n      and\n      swap1\n      dup4\n      0xffffffffffffffffffffffffffffffffffffffff\n      and\n      mul\n      or\n      swap1\n      sstore\n      pop\n      0x20\n      dup3\n      add\n      mload\n      dup2\n      0x01\n      add\n      sstore\n      0x40\n      dup3\n      add\n      mload\n      dup2\n      0x02\n      add\n      sstore\n      0x60\n      dup3\n      add\n      mload\n      dup2\n      0x03\n      add\n      exp(0x0100, 0x00)\n      dup2\n      sload\n      dup2\n      0xffffffffffffffffffffffffffffffffffffffff\n      mul\n      not\n      and\n      swap1\n      dup4\n      0xffffffffffffffffffffffffffffffffffffffff\n      and\n      mul\n      or\n      swap1\n      sstore\n      pop\n      0x80\n      dup3\n      add\n      mload\n      dup2\n      0x04\n      add\n      sstore\n      0xa0\n      dup3\n      add\n      mload\n      dup2\n      0x05\n      add\n      sstore\n      0xc0\n      dup3\n      add\n      mload\n      dup2\n      0x06\n      add\n      sstore\n      0xe0\n      dup3\n      add\n      mload\n      dup2\n      0x07\n      add\n      exp(0x0100, 0x00)\n      dup2\n      sload\n      dup2\n      0xff\n      mul\n      not\n      and\n      swap1\n      dup4\n      iszero\n      iszero\n      mul\n      or\n      swap1\n      sstore\n      pop\n      swap1\n      pop\n      pop\n        /* \"s1911027_2.sol\":8038:8298  {\r... */\n      pop\n        /* \"s1911027_2.sol\":7986:8298  function resetGameAll(address _hostAddress) private {\r... */\n      pop\n      jump\t// out\n    tag_207:\n      mload(0x40)\n      dup1\n      0x0100\n      add\n      0x40\n      mstore\n      dup1\n      and(0xffffffffffffffffffffffffffffffffffffffff, 0x00)\n      dup2\n      mstore\n      0x20\n      add\n      0x00\n      dup1\n      not\n      and\n      dup2\n      mstore\n      0x20\n      add\n      0x00\n      dup2\n      mstore\n      0x20\n      add\n      and(0xffffffffffffffffffffffffffffffffffffffff, 0x00)\n      dup2\n      mstore\n      0x20\n      add\n      0x00\n      dup1\n      not\n      and\n      dup2\n      mstore\n      0x20\n      add\n      0x00\n      dup2\n      mstore\n      0x20\n      add\n      0x00\n      dup2\n      mstore\n      0x20\n      add\n      iszero(iszero(0x00))\n      dup2\n      mstore\n      pop\n      swap1\n      jump\t// out\n        /* \"#utility.yul\":7:146   */\n    tag_209:\n        /* \"#utility.yul\":53:58   */\n      0x00\n        /* \"#utility.yul\":91:97   */\n      dup2\n        /* \"#utility.yul\":78:98   */\n      calldataload\n        /* \"#utility.yul\":69:98   */\n      swap1\n      pop\n        /* \"#utility.yul\":107:140   */\n      tag_211\n        /* \"#utility.yul\":134:139   */\n      dup2\n        /* \"#utility.yul\":107:140   */\n      tag_212\n      jump\t// in\n    tag_211:\n        /* \"#utility.yul\":7:146   */\n      swap3\n      swap2\n      pop\n      pop\n      jump\t// out\n        /* \"#utility.yul\":152:291   */\n    tag_213:\n        /* \"#utility.yul\":198:203   */\n      0x00\n        /* \"#utility.yul\":236:242   */\n      dup2\n        /* \"#utility.yul\":223:243   */\n      calldataload\n        /* \"#utility.yul\":214:243   */\n      swap1\n      pop\n        /* \"#utility.yul\":252:285   */\n      tag_215\n        /* \"#utility.yul\":279:284   */\n      dup2\n        /* \"#utility.yul\":252:285   */\n      tag_216\n      jump\t// in\n    tag_215:\n        /* \"#utility.yul\":152:291   */\n      swap3\n      swap2\n      pop\n      pop\n      jump\t// out\n        /* \"#utility.yul\":297:436   */\n    tag_217:\n        /* \"#utility.yul\":343:348   */\n      0x00\n        /* \"#utility.yul\":381:387   */\n      dup2\n        /* \"#utility.yul\":368:388   */\n      calldataload\n        /* \"#utility.yul\":359:388   */\n      swap1\n      pop\n        /* \"#utility.yul\":397:430   */\n      tag_219\n        /* \"#utility.yul\":424:429   */\n      dup2\n        /* \"#utility.yul\":397:430   */\n      tag_220\n      jump\t// in\n    tag_219:\n        /* \"#utility.yul\":297:436   */\n      swap3\n      swap2\n      pop\n      pop\n      jump\t// out\n        /* \"#utility.yul\":442:771   */\n    tag_16:\n        /* \"#utility.yul\":501:507   */\n      0x00\n        /* \"#utility.yul\":550:552   */\n      0x20\n        /* \"#utility.yul\":538:547   */\n      dup3\n        /* \"#utility.yul\":529:536   */\n      dup5\n        /* \"#utility.yul\":525:548   */\n      sub\n        /* \"#utility.yul\":521:553   */\n      slt\n        /* \"#utility.yul\":518:637   */\n      iszero\n      tag_222\n      jumpi\n        /* \"#utility.yul\":556:635   */\n      tag_223\n      tag_224\n      jump\t// in\n    tag_223:\n        /* \"#utility.yul\":518:637   */\n    tag_222:\n        /* \"#utility.yul\":676:677   */\n      0x00\n        /* \"#utility.yul\":701:754   */\n      tag_225\n        /* \"#utility.yul\":746:753   */\n      dup5\n        /* \"#utility.yul\":737:743   */\n      dup3\n        /* \"#utility.yul\":726:735   */\n      dup6\n        /* \"#utility.yul\":722:744   */\n      add\n        /* \"#utility.yul\":701:754   */\n      tag_209\n      jump\t// in\n    tag_225:\n        /* \"#utility.yul\":691:754   */\n      swap2\n      pop\n        /* \"#utility.yul\":647:764   */\n      pop\n        /* \"#utility.yul\":442:771   */\n      swap3\n      swap2\n      pop\n      pop\n      jump\t// out\n        /* \"#utility.yul\":777:1251   */\n    tag_52:\n        /* \"#utility.yul\":845:851   */\n      0x00\n        /* \"#utility.yul\":853:859   */\n      dup1\n        /* \"#utility.yul\":902:904   */\n      0x40\n        /* \"#utility.yul\":890:899   */\n      dup4\n        /* \"#utility.yul\":881:888   */\n      dup6\n        /* \"#utility.yul\":877:900   */\n      sub\n        /* \"#utility.yul\":873:905   */\n      slt\n        /* \"#utility.yul\":870:989   */\n      iszero\n      tag_227\n      jumpi\n        /* \"#utility.yul\":908:987   */\n      tag_228\n      tag_224\n      jump\t// in\n    tag_228:\n        /* \"#utility.yul\":870:989   */\n    tag_227:\n        /* \"#utility.yul\":1028:1029   */\n      0x00\n        /* \"#utility.yul\":1053:1106   */\n      tag_229\n        /* \"#utility.yul\":1098:1105   */\n      dup6\n        /* \"#utility.yul\":1089:1095   */\n      dup3\n        /* \"#utility.yul\":1078:1087   */\n      dup7\n        /* \"#utility.yul\":1074:1096   */\n      add\n        /* \"#utility.yul\":1053:1106   */\n      tag_209\n      jump\t// in\n    tag_229:\n        /* \"#utility.yul\":1043:1106   */\n      swap3\n      pop\n        /* \"#utility.yul\":999:1116   */\n      pop\n        /* \"#utility.yul\":1155:1157   */\n      0x20\n        /* \"#utility.yul\":1181:1234   */\n      tag_230\n        /* \"#utility.yul\":1226:1233   */\n      dup6\n        /* \"#utility.yul\":1217:1223   */\n      dup3\n        /* \"#utility.yul\":1206:1215   */\n      dup7\n        /* \"#utility.yul\":1202:1224   */\n      add\n        /* \"#utility.yul\":1181:1234   */\n      tag_213\n      jump\t// in\n    tag_230:\n        /* \"#utility.yul\":1171:1234   */\n      swap2\n      pop\n        /* \"#utility.yul\":1126:1244   */\n      pop\n        /* \"#utility.yul\":777:1251   */\n      swap3\n      pop\n      swap3\n      swap1\n      pop\n      jump\t// out\n        /* \"#utility.yul\":1257:1586   */\n    tag_35:\n        /* \"#utility.yul\":1316:1322   */\n      0x00\n        /* \"#utility.yul\":1365:1367   */\n      0x20\n        /* \"#utility.yul\":1353:1362   */\n      dup3\n        /* \"#utility.yul\":1344:1351   */\n      dup5\n        /* \"#utility.yul\":1340:1363   */\n      sub\n        /* \"#utility.yul\":1336:1368   */\n      slt\n        /* \"#utility.yul\":1333:1452   */\n      iszero\n      tag_232\n      jumpi\n        /* \"#utility.yul\":1371:1450   */\n      tag_233\n      tag_224\n      jump\t// in\n    tag_233:\n        /* \"#utility.yul\":1333:1452   */\n    tag_232:\n        /* \"#utility.yul\":1491:1492   */\n      0x00\n        /* \"#utility.yul\":1516:1569   */\n      tag_234\n        /* \"#utility.yul\":1561:1568   */\n      dup5\n        /* \"#utility.yul\":1552:1558   */\n      dup3\n        /* \"#utility.yul\":1541:1550   */\n      dup6\n        /* \"#utility.yul\":1537:1559   */\n      add\n        /* \"#utility.yul\":1516:1569   */\n      tag_213\n      jump\t// in\n    tag_234:\n        /* \"#utility.yul\":1506:1569   */\n      swap2\n      pop\n        /* \"#utility.yul\":1462:1579   */\n      pop\n        /* \"#utility.yul\":1257:1586   */\n      swap3\n      swap2\n      pop\n      pop\n      jump\t// out\n        /* \"#utility.yul\":1592:1921   */\n    tag_26:\n        /* \"#utility.yul\":1651:1657   */\n      0x00\n        /* \"#utility.yul\":1700:1702   */\n      0x20\n        /* \"#utility.yul\":1688:1697   */\n      dup3\n        /* \"#utility.yul\":1679:1686   */\n      dup5\n        /* \"#utility.yul\":1675:1698   */\n      sub\n        /* \"#utility.yul\":1671:1703   */\n      slt\n        /* \"#utility.yul\":1668:1787   */\n      iszero\n      tag_236\n      jumpi\n        /* \"#utility.yul\":1706:1785   */\n      tag_237\n      tag_224\n      jump\t// in\n    tag_237:\n        /* \"#utility.yul\":1668:1787   */\n    tag_236:\n        /* \"#utility.yul\":1826:1827   */\n      0x00\n        /* \"#utility.yul\":1851:1904   */\n      tag_238\n        /* \"#utility.yul\":1896:1903   */\n      dup5\n        /* \"#utility.yul\":1887:1893   */\n      dup3\n        /* \"#utility.yul\":1876:1885   */\n      dup6\n        /* \"#utility.yul\":1872:1894   */\n      add\n        /* \"#utility.yul\":1851:1904   */\n      tag_217\n      jump\t// in\n    tag_238:\n        /* \"#utility.yul\":1841:1904   */\n      swap2\n      pop\n        /* \"#utility.yul\":1797:1914   */\n      pop\n        /* \"#utility.yul\":1592:1921   */\n      swap3\n      swap2\n      pop\n      pop\n      jump\t// out\n        /* \"#utility.yul\":1927:2045   */\n    tag_239:\n        /* \"#utility.yul\":2014:2038   */\n      tag_241\n        /* \"#utility.yul\":2032:2037   */\n      dup2\n        /* \"#utility.yul\":2014:2038   */\n      tag_242\n      jump\t// in\n    tag_241:\n        /* \"#utility.yul\":2009:2012   */\n      dup3\n        /* \"#utility.yul\":2002:2039   */\n      mstore\n        /* \"#utility.yul\":1927:2045   */\n      pop\n      pop\n      jump\t// out\n        /* \"#utility.yul\":2051:2160   */\n    tag_243:\n        /* \"#utility.yul\":2132:2153   */\n      tag_245\n        /* \"#utility.yul\":2147:2152   */\n      dup2\n        /* \"#utility.yul\":2132:2153   */\n      tag_246\n      jump\t// in\n    tag_245:\n        /* \"#utility.yul\":2127:2130   */\n      dup3\n        /* \"#utility.yul\":2120:2154   */\n      mstore\n        /* \"#utility.yul\":2051:2160   */\n      pop\n      pop\n      jump\t// out\n        /* \"#utility.yul\":2166:2284   */\n    tag_247:\n        /* \"#utility.yul\":2253:2277   */\n      tag_249\n        /* \"#utility.yul\":2271:2276   */\n      dup2\n        /* \"#utility.yul\":2253:2277   */\n      tag_250\n      jump\t// in\n    tag_249:\n        /* \"#utility.yul\":2248:2251   */\n      dup3\n        /* \"#utility.yul\":2241:2278   */\n      mstore\n        /* \"#utility.yul\":2166:2284   */\n      pop\n      pop\n      jump\t// out\n        /* \"#utility.yul\":2290:2656   */\n    tag_251:\n        /* \"#utility.yul\":2432:2435   */\n      0x00\n        /* \"#utility.yul\":2453:2520   */\n      tag_253\n        /* \"#utility.yul\":2517:2519   */\n      0x27\n        /* \"#utility.yul\":2512:2515   */\n      dup4\n        /* \"#utility.yul\":2453:2520   */\n      tag_254\n      jump\t// in\n    tag_253:\n        /* \"#utility.yul\":2446:2520   */\n      swap2\n      pop\n        /* \"#utility.yul\":2529:2622   */\n      tag_255\n        /* \"#utility.yul\":2618:2621   */\n      dup3\n        /* \"#utility.yul\":2529:2622   */\n      tag_256\n      jump\t// in\n    tag_255:\n        /* \"#utility.yul\":2647:2649   */\n      0x40\n        /* \"#utility.yul\":2642:2645   */\n      dup3\n        /* \"#utility.yul\":2638:2650   */\n      add\n        /* \"#utility.yul\":2631:2650   */\n      swap1\n      pop\n        /* \"#utility.yul\":2290:2656   */\n      swap2\n      swap1\n      pop\n      jump\t// out\n        /* \"#utility.yul\":2662:3028   */\n    tag_257:\n        /* \"#utility.yul\":2804:2807   */\n      0x00\n        /* \"#utility.yul\":2825:2892   */\n      tag_259\n        /* \"#utility.yul\":2889:2891   */\n      0x19\n        /* \"#utility.yul\":2884:2887   */\n      dup4\n        /* \"#utility.yul\":2825:2892   */\n      tag_254\n      jump\t// in\n    tag_259:\n        /* \"#utility.yul\":2818:2892   */\n      swap2\n      pop\n        /* \"#utility.yul\":2901:2994   */\n      tag_260\n        /* \"#utility.yul\":2990:2993   */\n      dup3\n        /* \"#utility.yul\":2901:2994   */\n      tag_261\n      jump\t// in\n    tag_260:\n        /* \"#utility.yul\":3019:3021   */\n      0x20\n        /* \"#utility.yul\":3014:3017   */\n      dup3\n        /* \"#utility.yul\":3010:3022   */\n      add\n        /* \"#utility.yul\":3003:3022   */\n      swap1\n      pop\n        /* \"#utility.yul\":2662:3028   */\n      swap2\n      swap1\n      pop\n      jump\t// out\n        /* \"#utility.yul\":3034:3400   */\n    tag_262:\n        /* \"#utility.yul\":3176:3179   */\n      0x00\n        /* \"#utility.yul\":3197:3264   */\n      tag_264\n        /* \"#utility.yul\":3261:3263   */\n      0x26\n        /* \"#utility.yul\":3256:3259   */\n      dup4\n        /* \"#utility.yul\":3197:3264   */\n      tag_254\n      jump\t// in\n    tag_264:\n        /* \"#utility.yul\":3190:3264   */\n      swap2\n      pop\n        /* \"#utility.yul\":3273:3366   */\n      tag_265\n        /* \"#utility.yul\":3362:3365   */\n      dup3\n        /* \"#utility.yul\":3273:3366   */\n      tag_266\n      jump\t// in\n    tag_265:\n        /* \"#utility.yul\":3391:3393   */\n      0x40\n        /* \"#utility.yul\":3386:3389   */\n      dup3\n        /* \"#utility.yul\":3382:3394   */\n      add\n        /* \"#utility.yul\":3375:3394   */\n      swap1\n      pop\n        /* \"#utility.yul\":3034:3400   */\n      swap2\n      swap1\n      pop\n      jump\t// out\n        /* \"#utility.yul\":3406:3772   */\n    tag_267:\n        /* \"#utility.yul\":3548:3551   */\n      0x00\n        /* \"#utility.yul\":3569:3636   */\n      tag_269\n        /* \"#utility.yul\":3633:3635   */\n      0x22\n        /* \"#utility.yul\":3628:3631   */\n      dup4\n        /* \"#utility.yul\":3569:3636   */\n      tag_254\n      jump\t// in\n    tag_269:\n        /* \"#utility.yul\":3562:3636   */\n      swap2\n      pop\n        /* \"#utility.yul\":3645:3738   */\n      tag_270\n        /* \"#utility.yul\":3734:3737   */\n      dup3\n        /* \"#utility.yul\":3645:3738   */\n      tag_271\n      jump\t// in\n    tag_270:\n        /* \"#utility.yul\":3763:3765   */\n      0x40\n        /* \"#utility.yul\":3758:3761   */\n      dup3\n        /* \"#utility.yul\":3754:3766   */\n      add\n        /* \"#utility.yul\":3747:3766   */\n      swap1\n      pop\n        /* \"#utility.yul\":3406:3772   */\n      swap2\n      swap1\n      pop\n      jump\t// out\n        /* \"#utility.yul\":3778:4144   */\n    tag_272:\n        /* \"#utility.yul\":3920:3923   */\n      0x00\n        /* \"#utility.yul\":3941:4008   */\n      tag_274\n        /* \"#utility.yul\":4005:4007   */\n      0x16\n        /* \"#utility.yul\":4000:4003   */\n      dup4\n        /* \"#utility.yul\":3941:4008   */\n      tag_254\n      jump\t// in\n    tag_274:\n        /* \"#utility.yul\":3934:4008   */\n      swap2\n      pop\n        /* \"#utility.yul\":4017:4110   */\n      tag_275\n        /* \"#utility.yul\":4106:4109   */\n      dup3\n        /* \"#utility.yul\":4017:4110   */\n      tag_276\n      jump\t// in\n    tag_275:\n        /* \"#utility.yul\":4135:4137   */\n      0x20\n        /* \"#utility.yul\":4130:4133   */\n      dup3\n        /* \"#utility.yul\":4126:4138   */\n      add\n        /* \"#utility.yul\":4119:4138   */\n      swap1\n      pop\n        /* \"#utility.yul\":3778:4144   */\n      swap2\n      swap1\n      pop\n      jump\t// out\n        /* \"#utility.yul\":4150:4516   */\n    tag_277:\n        /* \"#utility.yul\":4292:4295   */\n      0x00\n        /* \"#utility.yul\":4313:4380   */\n      tag_279\n        /* \"#utility.yul\":4377:4379   */\n      0x30\n        /* \"#utility.yul\":4372:4375   */\n      dup4\n        /* \"#utility.yul\":4313:4380   */\n      tag_254\n      jump\t// in\n    tag_279:\n        /* \"#utility.yul\":4306:4380   */\n      swap2\n      pop\n        /* \"#utility.yul\":4389:4482   */\n      tag_280\n        /* \"#utility.yul\":4478:4481   */\n      dup3\n        /* \"#utility.yul\":4389:4482   */\n      tag_281\n      jump\t// in\n    tag_280:\n        /* \"#utility.yul\":4507:4509   */\n      0x40\n        /* \"#utility.yul\":4502:4505   */\n      dup3\n        /* \"#utility.yul\":4498:4510   */\n      add\n        /* \"#utility.yul\":4491:4510   */\n      swap1\n      pop\n        /* \"#utility.yul\":4150:4516   */\n      swap2\n      swap1\n      pop\n      jump\t// out\n        /* \"#utility.yul\":4522:4888   */\n    tag_282:\n        /* \"#utility.yul\":4664:4667   */\n      0x00\n        /* \"#utility.yul\":4685:4752   */\n      tag_284\n        /* \"#utility.yul\":4749:4751   */\n      0x15\n        /* \"#utility.yul\":4744:4747   */\n      dup4\n        /* \"#utility.yul\":4685:4752   */\n      tag_254\n      jump\t// in\n    tag_284:\n        /* \"#utility.yul\":4678:4752   */\n      swap2\n      pop\n        /* \"#utility.yul\":4761:4854   */\n      tag_285\n        /* \"#utility.yul\":4850:4853   */\n      dup3\n        /* \"#utility.yul\":4761:4854   */\n      tag_286\n      jump\t// in\n    tag_285:\n        /* \"#utility.yul\":4879:4881   */\n      0x20\n        /* \"#utility.yul\":4874:4877   */\n      dup3\n        /* \"#utility.yul\":4870:4882   */\n      add\n        /* \"#utility.yul\":4863:4882   */\n      swap1\n      pop\n        /* \"#utility.yul\":4522:4888   */\n      swap2\n      swap1\n      pop\n      jump\t// out\n        /* \"#utility.yul\":4894:5260   */\n    tag_287:\n        /* \"#utility.yul\":5036:5039   */\n      0x00\n        /* \"#utility.yul\":5057:5124   */\n      tag_289\n        /* \"#utility.yul\":5121:5123   */\n      0x22\n        /* \"#utility.yul\":5116:5119   */\n      dup4\n        /* \"#utility.yul\":5057:5124   */\n      tag_254\n      jump\t// in\n    tag_289:\n        /* \"#utility.yul\":5050:5124   */\n      swap2\n      pop\n        /* \"#utility.yul\":5133:5226   */\n      tag_290\n        /* \"#utility.yul\":5222:5225   */\n      dup3\n        /* \"#utility.yul\":5133:5226   */\n      tag_291\n      jump\t// in\n    tag_290:\n        /* \"#utility.yul\":5251:5253   */\n      0x40\n        /* \"#utility.yul\":5246:5249   */\n      dup3\n        /* \"#utility.yul\":5242:5254   */\n      add\n        /* \"#utility.yul\":5235:5254   */\n      swap1\n      pop\n        /* \"#utility.yul\":4894:5260   */\n      swap2\n      swap1\n      pop\n      jump\t// out\n        /* \"#utility.yul\":5266:5632   */\n    tag_292:\n        /* \"#utility.yul\":5408:5411   */\n      0x00\n        /* \"#utility.yul\":5429:5496   */\n      tag_294\n        /* \"#utility.yul\":5493:5495   */\n      0x1d\n        /* \"#utility.yul\":5488:5491   */\n      dup4\n        /* \"#utility.yul\":5429:5496   */\n      tag_254\n      jump\t// in\n    tag_294:\n        /* \"#utility.yul\":5422:5496   */\n      swap2\n      pop\n        /* \"#utility.yul\":5505:5598   */\n      tag_295\n        /* \"#utility.yul\":5594:5597   */\n      dup3\n        /* \"#utility.yul\":5505:5598   */\n      tag_296\n      jump\t// in\n    tag_295:\n        /* \"#utility.yul\":5623:5625   */\n      0x20\n        /* \"#utility.yul\":5618:5621   */\n      dup3\n        /* \"#utility.yul\":5614:5626   */\n      add\n        /* \"#utility.yul\":5607:5626   */\n      swap1\n      pop\n        /* \"#utility.yul\":5266:5632   */\n      swap2\n      swap1\n      pop\n      jump\t// out\n        /* \"#utility.yul\":5638:6004   */\n    tag_297:\n        /* \"#utility.yul\":5780:5783   */\n      0x00\n        /* \"#utility.yul\":5801:5868   */\n      tag_299\n        /* \"#utility.yul\":5865:5867   */\n      0x21\n        /* \"#utility.yul\":5860:5863   */\n      dup4\n        /* \"#utility.yul\":5801:5868   */\n      tag_254\n      jump\t// in\n    tag_299:\n        /* \"#utility.yul\":5794:5868   */\n      swap2\n      pop\n        /* \"#utility.yul\":5877:5970   */\n      tag_300\n        /* \"#utility.yul\":5966:5969   */\n      dup3\n        /* \"#utility.yul\":5877:5970   */\n      tag_301\n      jump\t// in\n    tag_300:\n        /* \"#utility.yul\":5995:5997   */\n      0x40\n        /* \"#utility.yul\":5990:5993   */\n      dup3\n        /* \"#utility.yul\":5986:5998   */\n      add\n        /* \"#utility.yul\":5979:5998   */\n      swap1\n      pop\n        /* \"#utility.yul\":5638:6004   */\n      swap2\n      swap1\n      pop\n      jump\t// out\n        /* \"#utility.yul\":6010:6376   */\n    tag_302:\n        /* \"#utility.yul\":6152:6155   */\n      0x00\n        /* \"#utility.yul\":6173:6240   */\n      tag_304\n        /* \"#utility.yul\":6237:6239   */\n      0x2d\n        /* \"#utility.yul\":6232:6235   */\n      dup4\n        /* \"#utility.yul\":6173:6240   */\n      tag_254\n      jump\t// in\n    tag_304:\n        /* \"#utility.yul\":6166:6240   */\n      swap2\n      pop\n        /* \"#utility.yul\":6249:6342   */\n      tag_305\n        /* \"#utility.yul\":6338:6341   */\n      dup3\n        /* \"#utility.yul\":6249:6342   */\n      tag_306\n      jump\t// in\n    tag_305:\n        /* \"#utility.yul\":6367:6369   */\n      0x40\n        /* \"#utility.yul\":6362:6365   */\n      dup3\n        /* \"#utility.yul\":6358:6370   */\n      add\n        /* \"#utility.yul\":6351:6370   */\n      swap1\n      pop\n        /* \"#utility.yul\":6010:6376   */\n      swap2\n      swap1\n      pop\n      jump\t// out\n        /* \"#utility.yul\":6382:6748   */\n    tag_307:\n        /* \"#utility.yul\":6524:6527   */\n      0x00\n        /* \"#utility.yul\":6545:6612   */\n      tag_309\n        /* \"#utility.yul\":6609:6611   */\n      0x2a\n        /* \"#utility.yul\":6604:6607   */\n      dup4\n        /* \"#utility.yul\":6545:6612   */\n      tag_254\n      jump\t// in\n    tag_309:\n        /* \"#utility.yul\":6538:6612   */\n      swap2\n      pop\n        /* \"#utility.yul\":6621:6714   */\n      tag_310\n        /* \"#utility.yul\":6710:6713   */\n      dup3\n        /* \"#utility.yul\":6621:6714   */\n      tag_311\n      jump\t// in\n    tag_310:\n        /* \"#utility.yul\":6739:6741   */\n      0x40\n        /* \"#utility.yul\":6734:6737   */\n      dup3\n        /* \"#utility.yul\":6730:6742   */\n      add\n        /* \"#utility.yul\":6723:6742   */\n      swap1\n      pop\n        /* \"#utility.yul\":6382:6748   */\n      swap2\n      swap1\n      pop\n      jump\t// out\n        /* \"#utility.yul\":6754:7120   */\n    tag_312:\n        /* \"#utility.yul\":6896:6899   */\n      0x00\n        /* \"#utility.yul\":6917:6984   */\n      tag_314\n        /* \"#utility.yul\":6981:6983   */\n      0x22\n        /* \"#utility.yul\":6976:6979   */\n      dup4\n        /* \"#utility.yul\":6917:6984   */\n      tag_254\n      jump\t// in\n    tag_314:\n        /* \"#utility.yul\":6910:6984   */\n      swap2\n      pop\n        /* \"#utility.yul\":6993:7086   */\n      tag_315\n        /* \"#utility.yul\":7082:7085   */\n      dup3\n        /* \"#utility.yul\":6993:7086   */\n      tag_316\n      jump\t// in\n    tag_315:\n        /* \"#utility.yul\":7111:7113   */\n      0x40\n        /* \"#utility.yul\":7106:7109   */\n      dup3\n        /* \"#utility.yul\":7102:7114   */\n      add\n        /* \"#utility.yul\":7095:7114   */\n      swap1\n      pop\n        /* \"#utility.yul\":6754:7120   */\n      swap2\n      swap1\n      pop\n      jump\t// out\n        /* \"#utility.yul\":7126:7492   */\n    tag_317:\n        /* \"#utility.yul\":7268:7271   */\n      0x00\n        /* \"#utility.yul\":7289:7356   */\n      tag_319\n        /* \"#utility.yul\":7353:7355   */\n      0x13\n        /* \"#utility.yul\":7348:7351   */\n      dup4\n        /* \"#utility.yul\":7289:7356   */\n      tag_254\n      jump\t// in\n    tag_319:\n        /* \"#utility.yul\":7282:7356   */\n      swap2\n      pop\n        /* \"#utility.yul\":7365:7458   */\n      tag_320\n        /* \"#utility.yul\":7454:7457   */\n      dup3\n        /* \"#utility.yul\":7365:7458   */\n      tag_321\n      jump\t// in\n    tag_320:\n        /* \"#utility.yul\":7483:7485   */\n      0x20\n        /* \"#utility.yul\":7478:7481   */\n      dup3\n        /* \"#utility.yul\":7474:7486   */\n      add\n        /* \"#utility.yul\":7467:7486   */\n      swap1\n      pop\n        /* \"#utility.yul\":7126:7492   */\n      swap2\n      swap1\n      pop\n      jump\t// out\n        /* \"#utility.yul\":7498:7864   */\n    tag_322:\n        /* \"#utility.yul\":7640:7643   */\n      0x00\n        /* \"#utility.yul\":7661:7728   */\n      tag_324\n        /* \"#utility.yul\":7725:7727   */\n      0x27\n        /* \"#utility.yul\":7720:7723   */\n      dup4\n        /* \"#utility.yul\":7661:7728   */\n      tag_254\n      jump\t// in\n    tag_324:\n        /* \"#utility.yul\":7654:7728   */\n      swap2\n      pop\n        /* \"#utility.yul\":7737:7830   */\n      tag_325\n        /* \"#utility.yul\":7826:7829   */\n      dup3\n        /* \"#utility.yul\":7737:7830   */\n      tag_326\n      jump\t// in\n    tag_325:\n        /* \"#utility.yul\":7855:7857   */\n      0x40\n        /* \"#utility.yul\":7850:7853   */\n      dup3\n        /* \"#utility.yul\":7846:7858   */\n      add\n        /* \"#utility.yul\":7839:7858   */\n      swap1\n      pop\n        /* \"#utility.yul\":7498:7864   */\n      swap2\n      swap1\n      pop\n      jump\t// out\n        /* \"#utility.yul\":7870:8236   */\n    tag_327:\n        /* \"#utility.yul\":8012:8015   */\n      0x00\n        /* \"#utility.yul\":8033:8100   */\n      tag_329\n        /* \"#utility.yul\":8097:8099   */\n      0x28\n        /* \"#utility.yul\":8092:8095   */\n      dup4\n        /* \"#utility.yul\":8033:8100   */\n      tag_254\n      jump\t// in\n    tag_329:\n        /* \"#utility.yul\":8026:8100   */\n      swap2\n      pop\n        /* \"#utility.yul\":8109:8202   */\n      tag_330\n        /* \"#utility.yul\":8198:8201   */\n      dup3\n        /* \"#utility.yul\":8109:8202   */\n      tag_331\n      jump\t// in\n    tag_330:\n        /* \"#utility.yul\":8227:8229   */\n      0x40\n        /* \"#utility.yul\":8222:8225   */\n      dup3\n        /* \"#utility.yul\":8218:8230   */\n      add\n        /* \"#utility.yul\":8211:8230   */\n      swap1\n      pop\n        /* \"#utility.yul\":7870:8236   */\n      swap2\n      swap1\n      pop\n      jump\t// out\n        /* \"#utility.yul\":8242:8608   */\n    tag_332:\n        /* \"#utility.yul\":8384:8387   */\n      0x00\n        /* \"#utility.yul\":8405:8472   */\n      tag_334\n        /* \"#utility.yul\":8469:8471   */\n      0x18\n        /* \"#utility.yul\":8464:8467   */\n      dup4\n        /* \"#utility.yul\":8405:8472   */\n      tag_254\n      jump\t// in\n    tag_334:\n        /* \"#utility.yul\":8398:8472   */\n      swap2\n      pop\n        /* \"#utility.yul\":8481:8574   */\n      tag_335\n        /* \"#utility.yul\":8570:8573   */\n      dup3\n        /* \"#utility.yul\":8481:8574   */\n      tag_336\n      jump\t// in\n    tag_335:\n        /* \"#utility.yul\":8599:8601   */\n      0x20\n        /* \"#utility.yul\":8594:8597   */\n      dup3\n        /* \"#utility.yul\":8590:8602   */\n      add\n        /* \"#utility.yul\":8583:8602   */\n      swap1\n      pop\n        /* \"#utility.yul\":8242:8608   */\n      swap2\n      swap1\n      pop\n      jump\t// out\n        /* \"#utility.yul\":8614:8980   */\n    tag_337:\n        /* \"#utility.yul\":8756:8759   */\n      0x00\n        /* \"#utility.yul\":8777:8844   */\n      tag_339\n        /* \"#utility.yul\":8841:8843   */\n      0x26\n        /* \"#utility.yul\":8836:8839   */\n      dup4\n        /* \"#utility.yul\":8777:8844   */\n      tag_254\n      jump\t// in\n    tag_339:\n        /* \"#utility.yul\":8770:8844   */\n      swap2\n      pop\n        /* \"#utility.yul\":8853:8946   */\n      tag_340\n        /* \"#utility.yul\":8942:8945   */\n      dup3\n        /* \"#utility.yul\":8853:8946   */\n      tag_341\n      jump\t// in\n    tag_340:\n        /* \"#utility.yul\":8971:8973   */\n      0x40\n        /* \"#utility.yul\":8966:8969   */\n      dup3\n        /* \"#utility.yul\":8962:8974   */\n      add\n        /* \"#utility.yul\":8955:8974   */\n      swap1\n      pop\n        /* \"#utility.yul\":8614:8980   */\n      swap2\n      swap1\n      pop\n      jump\t// out\n        /* \"#utility.yul\":8986:9352   */\n    tag_342:\n        /* \"#utility.yul\":9128:9131   */\n      0x00\n        /* \"#utility.yul\":9149:9216   */\n      tag_344\n        /* \"#utility.yul\":9213:9215   */\n      0x2a\n        /* \"#utility.yul\":9208:9211   */\n      dup4\n        /* \"#utility.yul\":9149:9216   */\n      tag_254\n      jump\t// in\n    tag_344:\n        /* \"#utility.yul\":9142:9216   */\n      swap2\n      pop\n        /* \"#utility.yul\":9225:9318   */\n      tag_345\n        /* \"#utility.yul\":9314:9317   */\n      dup3\n        /* \"#utility.yul\":9225:9318   */\n      tag_346\n      jump\t// in\n    tag_345:\n        /* \"#utility.yul\":9343:9345   */\n      0x40\n        /* \"#utility.yul\":9338:9341   */\n      dup3\n        /* \"#utility.yul\":9334:9346   */\n      add\n        /* \"#utility.yul\":9327:9346   */\n      swap1\n      pop\n        /* \"#utility.yul\":8986:9352   */\n      swap2\n      swap1\n      pop\n      jump\t// out\n        /* \"#utility.yul\":9358:9724   */\n    tag_347:\n        /* \"#utility.yul\":9500:9503   */\n      0x00\n        /* \"#utility.yul\":9521:9588   */\n      tag_349\n        /* \"#utility.yul\":9585:9587   */\n      0x1f\n        /* \"#utility.yul\":9580:9583   */\n      dup4\n        /* \"#utility.yul\":9521:9588   */\n      tag_254\n      jump\t// in\n    tag_349:\n        /* \"#utility.yul\":9514:9588   */\n      swap2\n      pop\n        /* \"#utility.yul\":9597:9690   */\n      tag_350\n        /* \"#utility.yul\":9686:9689   */\n      dup3\n        /* \"#utility.yul\":9597:9690   */\n      tag_351\n      jump\t// in\n    tag_350:\n        /* \"#utility.yul\":9715:9717   */\n      0x20\n        /* \"#utility.yul\":9710:9713   */\n      dup3\n        /* \"#utility.yul\":9706:9718   */\n      add\n        /* \"#utility.yul\":9699:9718   */\n      swap1\n      pop\n        /* \"#utility.yul\":9358:9724   */\n      swap2\n      swap1\n      pop\n      jump\t// out\n        /* \"#utility.yul\":9730:10096   */\n    tag_352:\n        /* \"#utility.yul\":9872:9875   */\n      0x00\n        /* \"#utility.yul\":9893:9960   */\n      tag_354\n        /* \"#utility.yul\":9957:9959   */\n      0x2a\n        /* \"#utility.yul\":9952:9955   */\n      dup4\n        /* \"#utility.yul\":9893:9960   */\n      tag_254\n      jump\t// in\n    tag_354:\n        /* \"#utility.yul\":9886:9960   */\n      swap2\n      pop\n        /* \"#utility.yul\":9969:10062   */\n      tag_355\n        /* \"#utility.yul\":10058:10061   */\n      dup3\n        /* \"#utility.yul\":9969:10062   */\n      tag_356\n      jump\t// in\n    tag_355:\n        /* \"#utility.yul\":10087:10089   */\n      0x40\n        /* \"#utility.yul\":10082:10085   */\n      dup3\n        /* \"#utility.yul\":10078:10090   */\n      add\n        /* \"#utility.yul\":10071:10090   */\n      swap1\n      pop\n        /* \"#utility.yul\":9730:10096   */\n      swap2\n      swap1\n      pop\n      jump\t// out\n        /* \"#utility.yul\":10102:10468   */\n    tag_357:\n        /* \"#utility.yul\":10244:10247   */\n      0x00\n        /* \"#utility.yul\":10265:10332   */\n      tag_359\n        /* \"#utility.yul\":10329:10331   */\n      0x15\n        /* \"#utility.yul\":10324:10327   */\n      dup4\n        /* \"#utility.yul\":10265:10332   */\n      tag_254\n      jump\t// in\n    tag_359:\n        /* \"#utility.yul\":10258:10332   */\n      swap2\n      pop\n        /* \"#utility.yul\":10341:10434   */\n      tag_360\n        /* \"#utility.yul\":10430:10433   */\n      dup3\n        /* \"#utility.yul\":10341:10434   */\n      tag_361\n      jump\t// in\n    tag_360:\n        /* \"#utility.yul\":10459:10461   */\n      0x20\n        /* \"#utility.yul\":10454:10457   */\n      dup3\n        /* \"#utility.yul\":10450:10462   */\n      add\n        /* \"#utility.yul\":10443:10462   */\n      swap1\n      pop\n        /* \"#utility.yul\":10102:10468   */\n      swap2\n      swap1\n      pop\n      jump\t// out\n        /* \"#utility.yul\":10474:10592   */\n    tag_362:\n        /* \"#utility.yul\":10561:10585   */\n      tag_364\n        /* \"#utility.yul\":10579:10584   */\n      dup2\n        /* \"#utility.yul\":10561:10585   */\n      tag_365\n      jump\t// in\n    tag_364:\n        /* \"#utility.yul\":10556:10559   */\n      dup3\n        /* \"#utility.yul\":10549:10586   */\n      mstore\n        /* \"#utility.yul\":10474:10592   */\n      pop\n      pop\n      jump\t// out\n        /* \"#utility.yul\":10598:10755   */\n    tag_366:\n        /* \"#utility.yul\":10703:10748   */\n      tag_368\n        /* \"#utility.yul\":10723:10747   */\n      tag_369\n        /* \"#utility.yul\":10741:10746   */\n      dup3\n        /* \"#utility.yul\":10723:10747   */\n      tag_365\n      jump\t// in\n    tag_369:\n        /* \"#utility.yul\":10703:10748   */\n      tag_370\n      jump\t// in\n    tag_368:\n        /* \"#utility.yul\":10698:10701   */\n      dup3\n        /* \"#utility.yul\":10691:10749   */\n      mstore\n        /* \"#utility.yul\":10598:10755   */\n      pop\n      pop\n      jump\t// out\n        /* \"#utility.yul\":10761:11017   */\n    tag_68:\n        /* \"#utility.yul\":10873:10876   */\n      0x00\n        /* \"#utility.yul\":10888:10963   */\n      tag_372\n        /* \"#utility.yul\":10959:10962   */\n      dup3\n        /* \"#utility.yul\":10950:10956   */\n      dup5\n        /* \"#utility.yul\":10888:10963   */\n      tag_366\n      jump\t// in\n    tag_372:\n        /* \"#utility.yul\":10988:10990   */\n      0x20\n        /* \"#utility.yul\":10983:10986   */\n      dup3\n        /* \"#utility.yul\":10979:10991   */\n      add\n        /* \"#utility.yul\":10972:10991   */\n      swap2\n      pop\n        /* \"#utility.yul\":11008:11011   */\n      dup2\n        /* \"#utility.yul\":11001:11011   */\n      swap1\n      pop\n        /* \"#utility.yul\":10761:11017   */\n      swap3\n      swap2\n      pop\n      pop\n      jump\t// out\n        /* \"#utility.yul\":11023:11420   */\n    tag_158:\n        /* \"#utility.yul\":11163:11166   */\n      0x00\n        /* \"#utility.yul\":11178:11253   */\n      tag_374\n        /* \"#utility.yul\":11249:11252   */\n      dup3\n        /* \"#utility.yul\":11240:11246   */\n      dup6\n        /* \"#utility.yul\":11178:11253   */\n      tag_366\n      jump\t// in\n    tag_374:\n        /* \"#utility.yul\":11278:11280   */\n      0x20\n        /* \"#utility.yul\":11273:11276   */\n      dup3\n        /* \"#utility.yul\":11269:11281   */\n      add\n        /* \"#utility.yul\":11262:11281   */\n      swap2\n      pop\n        /* \"#utility.yul\":11291:11366   */\n      tag_375\n        /* \"#utility.yul\":11362:11365   */\n      dup3\n        /* \"#utility.yul\":11353:11359   */\n      dup5\n        /* \"#utility.yul\":11291:11366   */\n      tag_366\n      jump\t// in\n    tag_375:\n        /* \"#utility.yul\":11391:11393   */\n      0x20\n        /* \"#utility.yul\":11386:11389   */\n      dup3\n        /* \"#utility.yul\":11382:11394   */\n      add\n        /* \"#utility.yul\":11375:11394   */\n      swap2\n      pop\n        /* \"#utility.yul\":11411:11414   */\n      dup2\n        /* \"#utility.yul\":11404:11414   */\n      swap1\n      pop\n        /* \"#utility.yul\":11023:11420   */\n      swap4\n      swap3\n      pop\n      pop\n      pop\n      jump\t// out\n        /* \"#utility.yul\":11426:12411   */\n    tag_49:\n        /* \"#utility.yul\":11709:11713   */\n      0x00\n        /* \"#utility.yul\":11747:11750   */\n      0x0100\n        /* \"#utility.yul\":11736:11745   */\n      dup3\n        /* \"#utility.yul\":11732:11751   */\n      add\n        /* \"#utility.yul\":11724:11751   */\n      swap1\n      pop\n        /* \"#utility.yul\":11761:11832   */\n      tag_377\n        /* \"#utility.yul\":11829:11830   */\n      0x00\n        /* \"#utility.yul\":11818:11827   */\n      dup4\n        /* \"#utility.yul\":11814:11831   */\n      add\n        /* \"#utility.yul\":11805:11811   */\n      dup12\n        /* \"#utility.yul\":11761:11832   */\n      tag_239\n      jump\t// in\n    tag_377:\n        /* \"#utility.yul\":11842:11914   */\n      tag_378\n        /* \"#utility.yul\":11910:11912   */\n      0x20\n        /* \"#utility.yul\":11899:11908   */\n      dup4\n        /* \"#utility.yul\":11895:11913   */\n      add\n        /* \"#utility.yul\":11886:11892   */\n      dup11\n        /* \"#utility.yul\":11842:11914   */\n      tag_247\n      jump\t// in\n    tag_378:\n        /* \"#utility.yul\":11924:11996   */\n      tag_379\n        /* \"#utility.yul\":11992:11994   */\n      0x40\n        /* \"#utility.yul\":11981:11990   */\n      dup4\n        /* \"#utility.yul\":11977:11995   */\n      add\n        /* \"#utility.yul\":11968:11974   */\n      dup10\n        /* \"#utility.yul\":11924:11996   */\n      tag_362\n      jump\t// in\n    tag_379:\n        /* \"#utility.yul\":12006:12078   */\n      tag_380\n        /* \"#utility.yul\":12074:12076   */\n      0x60\n        /* \"#utility.yul\":12063:12072   */\n      dup4\n        /* \"#utility.yul\":12059:12077   */\n      add\n        /* \"#utility.yul\":12050:12056   */\n      dup9\n        /* \"#utility.yul\":12006:12078   */\n      tag_239\n      jump\t// in\n    tag_380:\n        /* \"#utility.yul\":12088:12161   */\n      tag_381\n        /* \"#utility.yul\":12156:12159   */\n      0x80\n        /* \"#utility.yul\":12145:12154   */\n      dup4\n        /* \"#utility.yul\":12141:12160   */\n      add\n        /* \"#utility.yul\":12132:12138   */\n      dup8\n        /* \"#utility.yul\":12088:12161   */\n      tag_247\n      jump\t// in\n    tag_381:\n        /* \"#utility.yul\":12171:12244   */\n      tag_382\n        /* \"#utility.yul\":12239:12242   */\n      0xa0\n        /* \"#utility.yul\":12228:12237   */\n      dup4\n        /* \"#utility.yul\":12224:12243   */\n      add\n        /* \"#utility.yul\":12215:12221   */\n      dup7\n        /* \"#utility.yul\":12171:12244   */\n      tag_362\n      jump\t// in\n    tag_382:\n        /* \"#utility.yul\":12254:12327   */\n      tag_383\n        /* \"#utility.yul\":12322:12325   */\n      0xc0\n        /* \"#utility.yul\":12311:12320   */\n      dup4\n        /* \"#utility.yul\":12307:12326   */\n      add\n        /* \"#utility.yul\":12298:12304   */\n      dup6\n        /* \"#utility.yul\":12254:12327   */\n      tag_362\n      jump\t// in\n    tag_383:\n        /* \"#utility.yul\":12337:12404   */\n      tag_384\n        /* \"#utility.yul\":12399:12402   */\n      0xe0\n        /* \"#utility.yul\":12388:12397   */\n      dup4\n        /* \"#utility.yul\":12384:12403   */\n      add\n        /* \"#utility.yul\":12375:12381   */\n      dup5\n        /* \"#utility.yul\":12337:12404   */\n      tag_243\n      jump\t// in\n    tag_384:\n        /* \"#utility.yul\":11426:12411   */\n      swap10\n      swap9\n      pop\n      pop\n      pop\n      pop\n      pop\n      pop\n      pop\n      pop\n      pop\n      jump\t// out\n        /* \"#utility.yul\":12417:12639   */\n    tag_29:\n        /* \"#utility.yul\":12510:12514   */\n      0x00\n        /* \"#utility.yul\":12548:12550   */\n      0x20\n        /* \"#utility.yul\":12537:12546   */\n      dup3\n        /* \"#utility.yul\":12533:12551   */\n      add\n        /* \"#utility.yul\":12525:12551   */\n      swap1\n      pop\n        /* \"#utility.yul\":12561:12632   */\n      tag_386\n        /* \"#utility.yul\":12629:12630   */\n      0x00\n        /* \"#utility.yul\":12618:12627   */\n      dup4\n        /* \"#utility.yul\":12614:12631   */\n      add\n        /* \"#utility.yul\":12605:12611   */\n      dup5\n        /* \"#utility.yul\":12561:12632   */\n      tag_247\n      jump\t// in\n    tag_386:\n        /* \"#utility.yul\":12417:12639   */\n      swap3\n      swap2\n      pop\n      pop\n      jump\t// out\n        /* \"#utility.yul\":12645:13064   */\n    tag_129:\n        /* \"#utility.yul\":12811:12815   */\n      0x00\n        /* \"#utility.yul\":12849:12851   */\n      0x20\n        /* \"#utility.yul\":12838:12847   */\n      dup3\n        /* \"#utility.yul\":12834:12852   */\n      add\n        /* \"#utility.yul\":12826:12852   */\n      swap1\n      pop\n        /* \"#utility.yul\":12898:12907   */\n      dup2\n        /* \"#utility.yul\":12892:12896   */\n      dup2\n        /* \"#utility.yul\":12888:12908   */\n      sub\n        /* \"#utility.yul\":12884:12885   */\n      0x00\n        /* \"#utility.yul\":12873:12882   */\n      dup4\n        /* \"#utility.yul\":12869:12886   */\n      add\n        /* \"#utility.yul\":12862:12909   */\n      mstore\n        /* \"#utility.yul\":12926:13057   */\n      tag_388\n        /* \"#utility.yul\":13052:13056   */\n      dup2\n        /* \"#utility.yul\":12926:13057   */\n      tag_251\n      jump\t// in\n    tag_388:\n        /* \"#utility.yul\":12918:13057   */\n      swap1\n      pop\n        /* \"#utility.yul\":12645:13064   */\n      swap2\n      swap1\n      pop\n      jump\t// out\n        /* \"#utility.yul\":13070:13489   */\n    tag_151:\n        /* \"#utility.yul\":13236:13240   */\n      0x00\n        /* \"#utility.yul\":13274:13276   */\n      0x20\n        /* \"#utility.yul\":13263:13272   */\n      dup3\n        /* \"#utility.yul\":13259:13277   */\n      add\n        /* \"#utility.yul\":13251:13277   */\n      swap1\n      pop\n        /* \"#utility.yul\":13323:13332   */\n      dup2\n        /* \"#utility.yul\":13317:13321   */\n      dup2\n        /* \"#utility.yul\":13313:13333   */\n      sub\n        /* \"#utility.yul\":13309:13310   */\n      0x00\n        /* \"#utility.yul\":13298:13307   */\n      dup4\n        /* \"#utility.yul\":13294:13311   */\n      add\n        /* \"#utility.yul\":13287:13334   */\n      mstore\n        /* \"#utility.yul\":13351:13482   */\n      tag_390\n        /* \"#utility.yul\":13477:13481   */\n      dup2\n        /* \"#utility.yul\":13351:13482   */\n      tag_257\n      jump\t// in\n    tag_390:\n        /* \"#utility.yul\":13343:13482   */\n      swap1\n      pop\n        /* \"#utility.yul\":13070:13489   */\n      swap2\n      swap1\n      pop\n      jump\t// out\n        /* \"#utility.yul\":13495:13914   */\n    tag_191:\n        /* \"#utility.yul\":13661:13665   */\n      0x00\n        /* \"#utility.yul\":13699:13701   */\n      0x20\n        /* \"#utility.yul\":13688:13697   */\n      dup3\n        /* \"#utility.yul\":13684:13702   */\n      add\n        /* \"#utility.yul\":13676:13702   */\n      swap1\n      pop\n        /* \"#utility.yul\":13748:13757   */\n      dup2\n        /* \"#utility.yul\":13742:13746   */\n      dup2\n        /* \"#utility.yul\":13738:13758   */\n      sub\n        /* \"#utility.yul\":13734:13735   */\n      0x00\n        /* \"#utility.yul\":13723:13732   */\n      dup4\n        /* \"#utility.yul\":13719:13736   */\n      add\n        /* \"#utility.yul\":13712:13759   */\n      mstore\n        /* \"#utility.yul\":13776:13907   */\n      tag_392\n        /* \"#utility.yul\":13902:13906   */\n      dup2\n        /* \"#utility.yul\":13776:13907   */\n      tag_262\n      jump\t// in\n    tag_392:\n        /* \"#utility.yul\":13768:13907   */\n      swap1\n      pop\n        /* \"#utility.yul\":13495:13914   */\n      swap2\n      swap1\n      pop\n      jump\t// out\n        /* \"#utility.yul\":13920:14339   */\n    tag_155:\n        /* \"#utility.yul\":14086:14090   */\n      0x00\n        /* \"#utility.yul\":14124:14126   */\n      0x20\n        /* \"#utility.yul\":14113:14122   */\n      dup3\n        /* \"#utility.yul\":14109:14127   */\n      add\n        /* \"#utility.yul\":14101:14127   */\n      swap1\n      pop\n        /* \"#utility.yul\":14173:14182   */\n      dup2\n        /* \"#utility.yul\":14167:14171   */\n      dup2\n        /* \"#utility.yul\":14163:14183   */\n      sub\n        /* \"#utility.yul\":14159:14160   */\n      0x00\n        /* \"#utility.yul\":14148:14157   */\n      dup4\n        /* \"#utility.yul\":14144:14161   */\n      add\n        /* \"#utility.yul\":14137:14184   */\n      mstore\n        /* \"#utility.yul\":14201:14332   */\n      tag_394\n        /* \"#utility.yul\":14327:14331   */\n      dup2\n        /* \"#utility.yul\":14201:14332   */\n      tag_267\n      jump\t// in\n    tag_394:\n        /* \"#utility.yul\":14193:14332   */\n      swap1\n      pop\n        /* \"#utility.yul\":13920:14339   */\n      swap2\n      swap1\n      pop\n      jump\t// out\n        /* \"#utility.yul\":14345:14764   */\n    tag_145:\n        /* \"#utility.yul\":14511:14515   */\n      0x00\n        /* \"#utility.yul\":14549:14551   */\n      0x20\n        /* \"#utility.yul\":14538:14547   */\n      dup3\n        /* \"#utility.yul\":14534:14552   */\n      add\n        /* \"#utility.yul\":14526:14552   */\n      swap1\n      pop\n        /* \"#utility.yul\":14598:14607   */\n      dup2\n        /* \"#utility.yul\":14592:14596   */\n      dup2\n        /* \"#utility.yul\":14588:14608   */\n      sub\n        /* \"#utility.yul\":14584:14585   */\n      0x00\n        /* \"#utility.yul\":14573:14582   */\n      dup4\n        /* \"#utility.yul\":14569:14586   */\n      add\n        /* \"#utility.yul\":14562:14609   */\n      mstore\n        /* \"#utility.yul\":14626:14757   */\n      tag_396\n        /* \"#utility.yul\":14752:14756   */\n      dup2\n        /* \"#utility.yul\":14626:14757   */\n      tag_272\n      jump\t// in\n    tag_396:\n        /* \"#utility.yul\":14618:14757   */\n      swap1\n      pop\n        /* \"#utility.yul\":14345:14764   */\n      swap2\n      swap1\n      pop\n      jump\t// out\n        /* \"#utility.yul\":14770:15189   */\n    tag_112:\n        /* \"#utility.yul\":14936:14940   */\n      0x00\n        /* \"#utility.yul\":14974:14976   */\n      0x20\n        /* \"#utility.yul\":14963:14972   */\n      dup3\n        /* \"#utility.yul\":14959:14977   */\n      add\n        /* \"#utility.yul\":14951:14977   */\n      swap1\n      pop\n        /* \"#utility.yul\":15023:15032   */\n      dup2\n        /* \"#utility.yul\":15017:15021   */\n      dup2\n        /* \"#utility.yul\":15013:15033   */\n      sub\n        /* \"#utility.yul\":15009:15010   */\n      0x00\n        /* \"#utility.yul\":14998:15007   */\n      dup4\n        /* \"#utility.yul\":14994:15011   */\n      add\n        /* \"#utility.yul\":14987:15034   */\n      mstore\n        /* \"#utility.yul\":15051:15182   */\n      tag_398\n        /* \"#utility.yul\":15177:15181   */\n      dup2\n        /* \"#utility.yul\":15051:15182   */\n      tag_277\n      jump\t// in\n    tag_398:\n        /* \"#utility.yul\":15043:15182   */\n      swap1\n      pop\n        /* \"#utility.yul\":14770:15189   */\n      swap2\n      swap1\n      pop\n      jump\t// out\n        /* \"#utility.yul\":15195:15614   */\n    tag_108:\n        /* \"#utility.yul\":15361:15365   */\n      0x00\n        /* \"#utility.yul\":15399:15401   */\n      0x20\n        /* \"#utility.yul\":15388:15397   */\n      dup3\n        /* \"#utility.yul\":15384:15402   */\n      add\n        /* \"#utility.yul\":15376:15402   */\n      swap1\n      pop\n        /* \"#utility.yul\":15448:15457   */\n      dup2\n        /* \"#utility.yul\":15442:15446   */\n      dup2\n        /* \"#utility.yul\":15438:15458   */\n      sub\n        /* \"#utility.yul\":15434:15435   */\n      0x00\n        /* \"#utility.yul\":15423:15432   */\n      dup4\n        /* \"#utility.yul\":15419:15436   */\n      add\n        /* \"#utility.yul\":15412:15459   */\n      mstore\n        /* \"#utility.yul\":15476:15607   */\n      tag_400\n        /* \"#utility.yul\":15602:15606   */\n      dup2\n        /* \"#utility.yul\":15476:15607   */\n      tag_282\n      jump\t// in\n    tag_400:\n        /* \"#utility.yul\":15468:15607   */\n      swap1\n      pop\n        /* \"#utility.yul\":15195:15614   */\n      swap2\n      swap1\n      pop\n      jump\t// out\n        /* \"#utility.yul\":15620:16039   */\n    tag_120:\n        /* \"#utility.yul\":15786:15790   */\n      0x00\n        /* \"#utility.yul\":15824:15826   */\n      0x20\n        /* \"#utility.yul\":15813:15822   */\n      dup3\n        /* \"#utility.yul\":15809:15827   */\n      add\n        /* \"#utility.yul\":15801:15827   */\n      swap1\n      pop\n        /* \"#utility.yul\":15873:15882   */\n      dup2\n        /* \"#utility.yul\":15867:15871   */\n      dup2\n        /* \"#utility.yul\":15863:15883   */\n      sub\n        /* \"#utility.yul\":15859:15860   */\n      0x00\n        /* \"#utility.yul\":15848:15857   */\n      dup4\n        /* \"#utility.yul\":15844:15861   */\n      add\n        /* \"#utility.yul\":15837:15884   */\n      mstore\n        /* \"#utility.yul\":15901:16032   */\n      tag_402\n        /* \"#utility.yul\":16027:16031   */\n      dup2\n        /* \"#utility.yul\":15901:16032   */\n      tag_287\n      jump\t// in\n    tag_402:\n        /* \"#utility.yul\":15893:16032   */\n      swap1\n      pop\n        /* \"#utility.yul\":15620:16039   */\n      swap2\n      swap1\n      pop\n      jump\t// out\n        /* \"#utility.yul\":16045:16464   */\n    tag_184:\n        /* \"#utility.yul\":16211:16215   */\n      0x00\n        /* \"#utility.yul\":16249:16251   */\n      0x20\n        /* \"#utility.yul\":16238:16247   */\n      dup3\n        /* \"#utility.yul\":16234:16252   */\n      add\n        /* \"#utility.yul\":16226:16252   */\n      swap1\n      pop\n        /* \"#utility.yul\":16298:16307   */\n      dup2\n        /* \"#utility.yul\":16292:16296   */\n      dup2\n        /* \"#utility.yul\":16288:16308   */\n      sub\n        /* \"#utility.yul\":16284:16285   */\n      0x00\n        /* \"#utility.yul\":16273:16282   */\n      dup4\n        /* \"#utility.yul\":16269:16286   */\n      add\n        /* \"#utility.yul\":16262:16309   */\n      mstore\n        /* \"#utility.yul\":16326:16457   */\n      tag_404\n        /* \"#utility.yul\":16452:16456   */\n      dup2\n        /* \"#utility.yul\":16326:16457   */\n      tag_292\n      jump\t// in\n    tag_404:\n        /* \"#utility.yul\":16318:16457   */\n      swap1\n      pop\n        /* \"#utility.yul\":16045:16464   */\n      swap2\n      swap1\n      pop\n      jump\t// out\n        /* \"#utility.yul\":16470:16889   */\n    tag_181:\n        /* \"#utility.yul\":16636:16640   */\n      0x00\n        /* \"#utility.yul\":16674:16676   */\n      0x20\n        /* \"#utility.yul\":16663:16672   */\n      dup3\n        /* \"#utility.yul\":16659:16677   */\n      add\n        /* \"#utility.yul\":16651:16677   */\n      swap1\n      pop\n        /* \"#utility.yul\":16723:16732   */\n      dup2\n        /* \"#utility.yul\":16717:16721   */\n      dup2\n        /* \"#utility.yul\":16713:16733   */\n      sub\n        /* \"#utility.yul\":16709:16710   */\n      0x00\n        /* \"#utility.yul\":16698:16707   */\n      dup4\n        /* \"#utility.yul\":16694:16711   */\n      add\n        /* \"#utility.yul\":16687:16734   */\n      mstore\n        /* \"#utility.yul\":16751:16882   */\n      tag_406\n        /* \"#utility.yul\":16877:16881   */\n      dup2\n        /* \"#utility.yul\":16751:16882   */\n      tag_297\n      jump\t// in\n    tag_406:\n        /* \"#utility.yul\":16743:16882   */\n      swap1\n      pop\n        /* \"#utility.yul\":16470:16889   */\n      swap2\n      swap1\n      pop\n      jump\t// out\n        /* \"#utility.yul\":16895:17314   */\n    tag_188:\n        /* \"#utility.yul\":17061:17065   */\n      0x00\n        /* \"#utility.yul\":17099:17101   */\n      0x20\n        /* \"#utility.yul\":17088:17097   */\n      dup3\n        /* \"#utility.yul\":17084:17102   */\n      add\n        /* \"#utility.yul\":17076:17102   */\n      swap1\n      pop\n        /* \"#utility.yul\":17148:17157   */\n      dup2\n        /* \"#utility.yul\":17142:17146   */\n      dup2\n        /* \"#utility.yul\":17138:17158   */\n      sub\n        /* \"#utility.yul\":17134:17135   */\n      0x00\n        /* \"#utility.yul\":17123:17132   */\n      dup4\n        /* \"#utility.yul\":17119:17136   */\n      add\n        /* \"#utility.yul\":17112:17159   */\n      mstore\n        /* \"#utility.yul\":17176:17307   */\n      tag_408\n        /* \"#utility.yul\":17302:17306   */\n      dup2\n        /* \"#utility.yul\":17176:17307   */\n      tag_302\n      jump\t// in\n    tag_408:\n        /* \"#utility.yul\":17168:17307   */\n      swap1\n      pop\n        /* \"#utility.yul\":16895:17314   */\n      swap2\n      swap1\n      pop\n      jump\t// out\n        /* \"#utility.yul\":17320:17739   */\n    tag_86:\n        /* \"#utility.yul\":17486:17490   */\n      0x00\n        /* \"#utility.yul\":17524:17526   */\n      0x20\n        /* \"#utility.yul\":17513:17522   */\n      dup3\n        /* \"#utility.yul\":17509:17527   */\n      add\n        /* \"#utility.yul\":17501:17527   */\n      swap1\n      pop\n        /* \"#utility.yul\":17573:17582   */\n      dup2\n        /* \"#utility.yul\":17567:17571   */\n      dup2\n        /* \"#utility.yul\":17563:17583   */\n      sub\n        /* \"#utility.yul\":17559:17560   */\n      0x00\n        /* \"#utility.yul\":17548:17557   */\n      dup4\n        /* \"#utility.yul\":17544:17561   */\n      add\n        /* \"#utility.yul\":17537:17584   */\n      mstore\n        /* \"#utility.yul\":17601:17732   */\n      tag_410\n        /* \"#utility.yul\":17727:17731   */\n      dup2\n        /* \"#utility.yul\":17601:17732   */\n      tag_307\n      jump\t// in\n    tag_410:\n        /* \"#utility.yul\":17593:17732   */\n      swap1\n      pop\n        /* \"#utility.yul\":17320:17739   */\n      swap2\n      swap1\n      pop\n      jump\t// out\n        /* \"#utility.yul\":17745:18164   */\n    tag_117:\n        /* \"#utility.yul\":17911:17915   */\n      0x00\n        /* \"#utility.yul\":17949:17951   */\n      0x20\n        /* \"#utility.yul\":17938:17947   */\n      dup3\n        /* \"#utility.yul\":17934:17952   */\n      add\n        /* \"#utility.yul\":17926:17952   */\n      swap1\n      pop\n        /* \"#utility.yul\":17998:18007   */\n      dup2\n        /* \"#utility.yul\":17992:17996   */\n      dup2\n        /* \"#utility.yul\":17988:18008   */\n      sub\n        /* \"#utility.yul\":17984:17985   */\n      0x00\n        /* \"#utility.yul\":17973:17982   */\n      dup4\n        /* \"#utility.yul\":17969:17986   */\n      add\n        /* \"#utility.yul\":17962:18009   */\n      mstore\n        /* \"#utility.yul\":18026:18157   */\n      tag_412\n        /* \"#utility.yul\":18152:18156   */\n      dup2\n        /* \"#utility.yul\":18026:18157   */\n      tag_312\n      jump\t// in\n    tag_412:\n        /* \"#utility.yul\":18018:18157   */\n      swap1\n      pop\n        /* \"#utility.yul\":17745:18164   */\n      swap2\n      swap1\n      pop\n      jump\t// out\n        /* \"#utility.yul\":18170:18589   */\n    tag_60:\n        /* \"#utility.yul\":18336:18340   */\n      0x00\n        /* \"#utility.yul\":18374:18376   */\n      0x20\n        /* \"#utility.yul\":18363:18372   */\n      dup3\n        /* \"#utility.yul\":18359:18377   */\n      add\n        /* \"#utility.yul\":18351:18377   */\n      swap1\n      pop\n        /* \"#utility.yul\":18423:18432   */\n      dup2\n        /* \"#utility.yul\":18417:18421   */\n      dup2\n        /* \"#utility.yul\":18413:18433   */\n      sub\n        /* \"#utility.yul\":18409:18410   */\n      0x00\n        /* \"#utility.yul\":18398:18407   */\n      dup4\n        /* \"#utility.yul\":18394:18411   */\n      add\n        /* \"#utility.yul\":18387:18434   */\n      mstore\n        /* \"#utility.yul\":18451:18582   */\n      tag_414\n        /* \"#utility.yul\":18577:18581   */\n      dup2\n        /* \"#utility.yul\":18451:18582   */\n      tag_317\n      jump\t// in\n    tag_414:\n        /* \"#utility.yul\":18443:18582   */\n      swap1\n      pop\n        /* \"#utility.yul\":18170:18589   */\n      swap2\n      swap1\n      pop\n      jump\t// out\n        /* \"#utility.yul\":18595:19014   */\n    tag_134:\n        /* \"#utility.yul\":18761:18765   */\n      0x00\n        /* \"#utility.yul\":18799:18801   */\n      0x20\n        /* \"#utility.yul\":18788:18797   */\n      dup3\n        /* \"#utility.yul\":18784:18802   */\n      add\n        /* \"#utility.yul\":18776:18802   */\n      swap1\n      pop\n        /* \"#utility.yul\":18848:18857   */\n      dup2\n        /* \"#utility.yul\":18842:18846   */\n      dup2\n        /* \"#utility.yul\":18838:18858   */\n      sub\n        /* \"#utility.yul\":18834:18835   */\n      0x00\n        /* \"#utility.yul\":18823:18832   */\n      dup4\n        /* \"#utility.yul\":18819:18836   */\n      add\n        /* \"#utility.yul\":18812:18859   */\n      mstore\n        /* \"#utility.yul\":18876:19007   */\n      tag_416\n        /* \"#utility.yul\":19002:19006   */\n      dup2\n        /* \"#utility.yul\":18876:19007   */\n      tag_322\n      jump\t// in\n    tag_416:\n        /* \"#utility.yul\":18868:19007   */\n      swap1\n      pop\n        /* \"#utility.yul\":18595:19014   */\n      swap2\n      swap1\n      pop\n      jump\t// out\n        /* \"#utility.yul\":19020:19439   */\n    tag_139:\n        /* \"#utility.yul\":19186:19190   */\n      0x00\n        /* \"#utility.yul\":19224:19226   */\n      0x20\n        /* \"#utility.yul\":19213:19222   */\n      dup3\n        /* \"#utility.yul\":19209:19227   */\n      add\n        /* \"#utility.yul\":19201:19227   */\n      swap1\n      pop\n        /* \"#utility.yul\":19273:19282   */\n      dup2\n        /* \"#utility.yul\":19267:19271   */\n      dup2\n        /* \"#utility.yul\":19263:19283   */\n      sub\n        /* \"#utility.yul\":19259:19260   */\n      0x00\n        /* \"#utility.yul\":19248:19257   */\n      dup4\n        /* \"#utility.yul\":19244:19261   */\n      add\n        /* \"#utility.yul\":19237:19284   */\n      mstore\n        /* \"#utility.yul\":19301:19432   */\n      tag_418\n        /* \"#utility.yul\":19427:19431   */\n      dup2\n        /* \"#utility.yul\":19301:19432   */\n      tag_327\n      jump\t// in\n    tag_418:\n        /* \"#utility.yul\":19293:19432   */\n      swap1\n      pop\n        /* \"#utility.yul\":19020:19439   */\n      swap2\n      swap1\n      pop\n      jump\t// out\n        /* \"#utility.yul\":19445:19864   */\n    tag_148:\n        /* \"#utility.yul\":19611:19615   */\n      0x00\n        /* \"#utility.yul\":19649:19651   */\n      0x20\n        /* \"#utility.yul\":19638:19647   */\n      dup3\n        /* \"#utility.yul\":19634:19652   */\n      add\n        /* \"#utility.yul\":19626:19652   */\n      swap1\n      pop\n        /* \"#utility.yul\":19698:19707   */\n      dup2\n        /* \"#utility.yul\":19692:19696   */\n      dup2\n        /* \"#utility.yul\":19688:19708   */\n      sub\n        /* \"#utility.yul\":19684:19685   */\n      0x00\n        /* \"#utility.yul\":19673:19682   */\n      dup4\n        /* \"#utility.yul\":19669:19686   */\n      add\n        /* \"#utility.yul\":19662:19709   */\n      mstore\n        /* \"#utility.yul\":19726:19857   */\n      tag_420\n        /* \"#utility.yul\":19852:19856   */\n      dup2\n        /* \"#utility.yul\":19726:19857   */\n      tag_332\n      jump\t// in\n    tag_420:\n        /* \"#utility.yul\":19718:19857   */\n      swap1\n      pop\n        /* \"#utility.yul\":19445:19864   */\n      swap2\n      swap1\n      pop\n      jump\t// out\n        /* \"#utility.yul\":19870:20289   */\n    tag_124:\n        /* \"#utility.yul\":20036:20040   */\n      0x00\n        /* \"#utility.yul\":20074:20076   */\n      0x20\n        /* \"#utility.yul\":20063:20072   */\n      dup3\n        /* \"#utility.yul\":20059:20077   */\n      add\n        /* \"#utility.yul\":20051:20077   */\n      swap1\n      pop\n        /* \"#utility.yul\":20123:20132   */\n      dup2\n        /* \"#utility.yul\":20117:20121   */\n      dup2\n        /* \"#utility.yul\":20113:20133   */\n      sub\n        /* \"#utility.yul\":20109:20110   */\n      0x00\n        /* \"#utility.yul\":20098:20107   */\n      dup4\n        /* \"#utility.yul\":20094:20111   */\n      add\n        /* \"#utility.yul\":20087:20134   */\n      mstore\n        /* \"#utility.yul\":20151:20282   */\n      tag_422\n        /* \"#utility.yul\":20277:20281   */\n      dup2\n        /* \"#utility.yul\":20151:20282   */\n      tag_337\n      jump\t// in\n    tag_422:\n        /* \"#utility.yul\":20143:20282   */\n      swap1\n      pop\n        /* \"#utility.yul\":19870:20289   */\n      swap2\n      swap1\n      pop\n      jump\t// out\n        /* \"#utility.yul\":20295:20714   */\n    tag_78:\n        /* \"#utility.yul\":20461:20465   */\n      0x00\n        /* \"#utility.yul\":20499:20501   */\n      0x20\n        /* \"#utility.yul\":20488:20497   */\n      dup3\n        /* \"#utility.yul\":20484:20502   */\n      add\n        /* \"#utility.yul\":20476:20502   */\n      swap1\n      pop\n        /* \"#utility.yul\":20548:20557   */\n      dup2\n        /* \"#utility.yul\":20542:20546   */\n      dup2\n        /* \"#utility.yul\":20538:20558   */\n      sub\n        /* \"#utility.yul\":20534:20535   */\n      0x00\n        /* \"#utility.yul\":20523:20532   */\n      dup4\n        /* \"#utility.yul\":20519:20536   */\n      add\n        /* \"#utility.yul\":20512:20559   */\n      mstore\n        /* \"#utility.yul\":20576:20707   */\n      tag_424\n        /* \"#utility.yul\":20702:20706   */\n      dup2\n        /* \"#utility.yul\":20576:20707   */\n      tag_342\n      jump\t// in\n    tag_424:\n        /* \"#utility.yul\":20568:20707   */\n      swap1\n      pop\n        /* \"#utility.yul\":20295:20714   */\n      swap2\n      swap1\n      pop\n      jump\t// out\n        /* \"#utility.yul\":20720:21139   */\n    tag_63:\n        /* \"#utility.yul\":20886:20890   */\n      0x00\n        /* \"#utility.yul\":20924:20926   */\n      0x20\n        /* \"#utility.yul\":20913:20922   */\n      dup3\n        /* \"#utility.yul\":20909:20927   */\n      add\n        /* \"#utility.yul\":20901:20927   */\n      swap1\n      pop\n        /* \"#utility.yul\":20973:20982   */\n      dup2\n        /* \"#utility.yul\":20967:20971   */\n      dup2\n        /* \"#utility.yul\":20963:20983   */\n      sub\n        /* \"#utility.yul\":20959:20960   */\n      0x00\n        /* \"#utility.yul\":20948:20957   */\n      dup4\n        /* \"#utility.yul\":20944:20961   */\n      add\n        /* \"#utility.yul\":20937:20984   */\n      mstore\n        /* \"#utility.yul\":21001:21132   */\n      tag_426\n        /* \"#utility.yul\":21127:21131   */\n      dup2\n        /* \"#utility.yul\":21001:21132   */\n      tag_347\n      jump\t// in\n    tag_426:\n        /* \"#utility.yul\":20993:21132   */\n      swap1\n      pop\n        /* \"#utility.yul\":20720:21139   */\n      swap2\n      swap1\n      pop\n      jump\t// out\n        /* \"#utility.yul\":21145:21564   */\n    tag_98:\n        /* \"#utility.yul\":21311:21315   */\n      0x00\n        /* \"#utility.yul\":21349:21351   */\n      0x20\n        /* \"#utility.yul\":21338:21347   */\n      dup3\n        /* \"#utility.yul\":21334:21352   */\n      add\n        /* \"#utility.yul\":21326:21352   */\n      swap1\n      pop\n        /* \"#utility.yul\":21398:21407   */\n      dup2\n        /* \"#utility.yul\":21392:21396   */\n      dup2\n        /* \"#utility.yul\":21388:21408   */\n      sub\n        /* \"#utility.yul\":21384:21385   */\n      0x00\n        /* \"#utility.yul\":21373:21382   */\n      dup4\n        /* \"#utility.yul\":21369:21386   */\n      add\n        /* \"#utility.yul\":21362:21409   */\n      mstore\n        /* \"#utility.yul\":21426:21557   */\n      tag_428\n        /* \"#utility.yul\":21552:21556   */\n      dup2\n        /* \"#utility.yul\":21426:21557   */\n      tag_352\n      jump\t// in\n    tag_428:\n        /* \"#utility.yul\":21418:21557   */\n      swap1\n      pop\n        /* \"#utility.yul\":21145:21564   */\n      swap2\n      swap1\n      pop\n      jump\t// out\n        /* \"#utility.yul\":21570:21989   */\n    tag_72:\n        /* \"#utility.yul\":21736:21740   */\n      0x00\n        /* \"#utility.yul\":21774:21776   */\n      0x20\n        /* \"#utility.yul\":21763:21772   */\n      dup3\n        /* \"#utility.yul\":21759:21777   */\n      add\n        /* \"#utility.yul\":21751:21777   */\n      swap1\n      pop\n        /* \"#utility.yul\":21823:21832   */\n      dup2\n        /* \"#utility.yul\":21817:21821   */\n      dup2\n        /* \"#utility.yul\":21813:21833   */\n      sub\n        /* \"#utility.yul\":21809:21810   */\n      0x00\n        /* \"#utility.yul\":21798:21807   */\n      dup4\n        /* \"#utility.yul\":21794:21811   */\n      add\n        /* \"#utility.yul\":21787:21834   */\n      mstore\n        /* \"#utility.yul\":21851:21982   */\n      tag_430\n        /* \"#utility.yul\":21977:21981   */\n      dup2\n        /* \"#utility.yul\":21851:21982   */\n      tag_357\n      jump\t// in\n    tag_430:\n        /* \"#utility.yul\":21843:21982   */\n      swap1\n      pop\n        /* \"#utility.yul\":21570:21989   */\n      swap2\n      swap1\n      pop\n      jump\t// out\n        /* \"#utility.yul\":21995:22327   */\n    tag_19:\n        /* \"#utility.yul\":22116:22120   */\n      0x00\n        /* \"#utility.yul\":22154:22156   */\n      0x40\n        /* \"#utility.yul\":22143:22152   */\n      dup3\n        /* \"#utility.yul\":22139:22157   */\n      add\n        /* \"#utility.yul\":22131:22157   */\n      swap1\n      pop\n        /* \"#utility.yul\":22167:22238   */\n      tag_432\n        /* \"#utility.yul\":22235:22236   */\n      0x00\n        /* \"#utility.yul\":22224:22233   */\n      dup4\n        /* \"#utility.yul\":22220:22237   */\n      add\n        /* \"#utility.yul\":22211:22217   */\n      dup6\n        /* \"#utility.yul\":22167:22238   */\n      tag_362\n      jump\t// in\n    tag_432:\n        /* \"#utility.yul\":22248:22320   */\n      tag_433\n        /* \"#utility.yul\":22316:22318   */\n      0x20\n        /* \"#utility.yul\":22305:22314   */\n      dup4\n        /* \"#utility.yul\":22301:22319   */\n      add\n        /* \"#utility.yul\":22292:22298   */\n      dup5\n        /* \"#utility.yul\":22248:22320   */\n      tag_239\n      jump\t// in\n    tag_433:\n        /* \"#utility.yul\":21995:22327   */\n      swap4\n      swap3\n      pop\n      pop\n      pop\n      jump\t// out\n        /* \"#utility.yul\":22414:22583   */\n    tag_254:\n        /* \"#utility.yul\":22498:22509   */\n      0x00\n        /* \"#utility.yul\":22532:22538   */\n      dup3\n        /* \"#utility.yul\":22527:22530   */\n      dup3\n        /* \"#utility.yul\":22520:22539   */\n      mstore\n        /* \"#utility.yul\":22572:22576   */\n      0x20\n        /* \"#utility.yul\":22567:22570   */\n      dup3\n        /* \"#utility.yul\":22563:22577   */\n      add\n        /* \"#utility.yul\":22548:22577   */\n      swap1\n      pop\n        /* \"#utility.yul\":22414:22583   */\n      swap3\n      swap2\n      pop\n      pop\n      jump\t// out\n        /* \"#utility.yul\":22589:22894   */\n    tag_90:\n        /* \"#utility.yul\":22629:22632   */\n      0x00\n        /* \"#utility.yul\":22648:22668   */\n      tag_438\n        /* \"#utility.yul\":22666:22667   */\n      dup3\n        /* \"#utility.yul\":22648:22668   */\n      tag_365\n      jump\t// in\n    tag_438:\n        /* \"#utility.yul\":22643:22668   */\n      swap2\n      pop\n        /* \"#utility.yul\":22682:22702   */\n      tag_439\n        /* \"#utility.yul\":22700:22701   */\n      dup4\n        /* \"#utility.yul\":22682:22702   */\n      tag_365\n      jump\t// in\n    tag_439:\n        /* \"#utility.yul\":22677:22702   */\n      swap3\n      pop\n        /* \"#utility.yul\":22836:22837   */\n      dup3\n        /* \"#utility.yul\":22768:22834   */\n      0xffffffffffffffffffffffffffffffffffffffffffffffffffffffffffffffff\n        /* \"#utility.yul\":22764:22838   */\n      sub\n        /* \"#utility.yul\":22761:22762   */\n      dup3\n        /* \"#utility.yul\":22758:22839   */\n      gt\n        /* \"#utility.yul\":22755:22862   */\n      iszero\n      tag_440\n      jumpi\n        /* \"#utility.yul\":22842:22860   */\n      tag_441\n      tag_442\n      jump\t// in\n    tag_441:\n        /* \"#utility.yul\":22755:22862   */\n    tag_440:\n        /* \"#utility.yul\":22886:22887   */\n      dup3\n        /* \"#utility.yul\":22883:22884   */\n      dup3\n        /* \"#utility.yul\":22879:22888   */\n      add\n        /* \"#utility.yul\":22872:22888   */\n      swap1\n      pop\n        /* \"#utility.yul\":22589:22894   */\n      swap3\n      swap2\n      pop\n      pop\n      jump\t// out\n        /* \"#utility.yul\":22900:23248   */\n    tag_164:\n        /* \"#utility.yul\":22940:22947   */\n      0x00\n        /* \"#utility.yul\":22963:22983   */\n      tag_444\n        /* \"#utility.yul\":22981:22982   */\n      dup3\n        /* \"#utility.yul\":22963:22983   */\n      tag_365\n      jump\t// in\n    tag_444:\n        /* \"#utility.yul\":22958:22983   */\n      swap2\n      pop\n        /* \"#utility.yul\":22997:23017   */\n      tag_445\n        /* \"#utility.yul\":23015:23016   */\n      dup4\n        /* \"#utility.yul\":22997:23017   */\n      tag_365\n      jump\t// in\n    tag_445:\n        /* \"#utility.yul\":22992:23017   */\n      swap3\n      pop\n        /* \"#utility.yul\":23185:23186   */\n      dup2\n        /* \"#utility.yul\":23117:23183   */\n      0xffffffffffffffffffffffffffffffffffffffffffffffffffffffffffffffff\n        /* \"#utility.yul\":23113:23187   */\n      div\n        /* \"#utility.yul\":23110:23111   */\n      dup4\n        /* \"#utility.yul\":23107:23188   */\n      gt\n        /* \"#utility.yul\":23102:23103   */\n      dup3\n        /* \"#utility.yul\":23095:23104   */\n      iszero\n        /* \"#utility.yul\":23088:23105   */\n      iszero\n        /* \"#utility.yul\":23084:23189   */\n      and\n        /* \"#utility.yul\":23081:23212   */\n      iszero\n      tag_446\n      jumpi\n        /* \"#utility.yul\":23192:23210   */\n      tag_447\n      tag_442\n      jump\t// in\n    tag_447:\n        /* \"#utility.yul\":23081:23212   */\n    tag_446:\n        /* \"#utility.yul\":23240:23241   */\n      dup3\n        /* \"#utility.yul\":23237:23238   */\n      dup3\n        /* \"#utility.yul\":23233:23242   */\n      mul\n        /* \"#utility.yul\":23222:23242   */\n      swap1\n      pop\n        /* \"#utility.yul\":22900:23248   */\n      swap3\n      swap2\n      pop\n      pop\n      jump\t// out\n        /* \"#utility.yul\":23254:23445   */\n    tag_75:\n        /* \"#utility.yul\":23294:23298   */\n      0x00\n        /* \"#utility.yul\":23314:23334   */\n      tag_449\n        /* \"#utility.yul\":23332:23333   */\n      dup3\n        /* \"#utility.yul\":23314:23334   */\n      tag_365\n      jump\t// in\n    tag_449:\n        /* \"#utility.yul\":23309:23334   */\n      swap2\n      pop\n        /* \"#utility.yul\":23348:23368   */\n      tag_450\n        /* \"#utility.yul\":23366:23367   */\n      dup4\n        /* \"#utility.yul\":23348:23368   */\n      tag_365\n      jump\t// in\n    tag_450:\n        /* \"#utility.yul\":23343:23368   */\n      swap3\n      pop\n        /* \"#utility.yul\":23387:23388   */\n      dup3\n        /* \"#utility.yul\":23384:23385   */\n      dup3\n        /* \"#utility.yul\":23381:23389   */\n      lt\n        /* \"#utility.yul\":23378:23412   */\n      iszero\n      tag_451\n      jumpi\n        /* \"#utility.yul\":23392:23410   */\n      tag_452\n      tag_442\n      jump\t// in\n    tag_452:\n        /* \"#utility.yul\":23378:23412   */\n    tag_451:\n        /* \"#utility.yul\":23437:23438   */\n      dup3\n        /* \"#utility.yul\":23434:23435   */\n      dup3\n        /* \"#utility.yul\":23430:23439   */\n      sub\n        /* \"#utility.yul\":23422:23439   */\n      swap1\n      pop\n        /* \"#utility.yul\":23254:23445   */\n      swap3\n      swap2\n      pop\n      pop\n      jump\t// out\n        /* \"#utility.yul\":23451:23547   */\n    tag_242:\n        /* \"#utility.yul\":23488:23495   */\n      0x00\n        /* \"#utility.yul\":23517:23541   */\n      tag_454\n        /* \"#utility.yul\":23535:23540   */\n      dup3\n        /* \"#utility.yul\":23517:23541   */\n      tag_455\n      jump\t// in\n    tag_454:\n        /* \"#utility.yul\":23506:23541   */\n      swap1\n      pop\n        /* \"#utility.yul\":23451:23547   */\n      swap2\n      swap1\n      pop\n      jump\t// out\n        /* \"#utility.yul\":23553:23643   */\n    tag_246:\n        /* \"#utility.yul\":23587:23594   */\n      0x00\n        /* \"#utility.yul\":23630:23635   */\n      dup2\n        /* \"#utility.yul\":23623:23636   */\n      iszero\n        /* \"#utility.yul\":23616:23637   */\n      iszero\n        /* \"#utility.yul\":23605:23637   */\n      swap1\n      pop\n        /* \"#utility.yul\":23553:23643   */\n      swap2\n      swap1\n      pop\n      jump\t// out\n        /* \"#utility.yul\":23649:23726   */\n    tag_250:\n        /* \"#utility.yul\":23686:23693   */\n      0x00\n        /* \"#utility.yul\":23715:23720   */\n      dup2\n        /* \"#utility.yul\":23704:23720   */\n      swap1\n      pop\n        /* \"#utility.yul\":23649:23726   */\n      swap2\n      swap1\n      pop\n      jump\t// out\n        /* \"#utility.yul\":23732:23858   */\n    tag_455:\n        /* \"#utility.yul\":23769:23776   */\n      0x00\n        /* \"#utility.yul\":23809:23851   */\n      0xffffffffffffffffffffffffffffffffffffffff\n        /* \"#utility.yul\":23802:23807   */\n      dup3\n        /* \"#utility.yul\":23798:23852   */\n      and\n        /* \"#utility.yul\":23787:23852   */\n      swap1\n      pop\n        /* \"#utility.yul\":23732:23858   */\n      swap2\n      swap1\n      pop\n      jump\t// out\n        /* \"#utility.yul\":23864:23941   */\n    tag_365:\n        /* \"#utility.yul\":23901:23908   */\n      0x00\n        /* \"#utility.yul\":23930:23935   */\n      dup2\n        /* \"#utility.yul\":23919:23935   */\n      swap1\n      pop\n        /* \"#utility.yul\":23864:23941   */\n      swap2\n      swap1\n      pop\n      jump\t// out\n        /* \"#utility.yul\":23947:24026   */\n    tag_370:\n        /* \"#utility.yul\":23986:23993   */\n      0x00\n        /* \"#utility.yul\":24015:24020   */\n      dup2\n        /* \"#utility.yul\":24004:24020   */\n      swap1\n      pop\n        /* \"#utility.yul\":23947:24026   */\n      swap2\n      swap1\n      pop\n      jump\t// out\n        /* \"#utility.yul\":24032:24208   */\n    tag_160:\n        /* \"#utility.yul\":24064:24065   */\n      0x00\n        /* \"#utility.yul\":24081:24101   */\n      tag_462\n        /* \"#utility.yul\":24099:24100   */\n      dup3\n        /* \"#utility.yul\":24081:24101   */\n      tag_365\n      jump\t// in\n    tag_462:\n        /* \"#utility.yul\":24076:24101   */\n      swap2\n      pop\n        /* \"#utility.yul\":24115:24135   */\n      tag_463\n        /* \"#utility.yul\":24133:24134   */\n      dup4\n        /* \"#utility.yul\":24115:24135   */\n      tag_365\n      jump\t// in\n    tag_463:\n        /* \"#utility.yul\":24110:24135   */\n      swap3\n      pop\n        /* \"#utility.yul\":24154:24155   */\n      dup3\n        /* \"#utility.yul\":24144:24179   */\n      tag_464\n      jumpi\n        /* \"#utility.yul\":24159:24177   */\n      tag_465\n      tag_466\n      jump\t// in\n    tag_465:\n        /* \"#utility.yul\":24144:24179   */\n    tag_464:\n        /* \"#utility.yul\":24200:24201   */\n      dup3\n        /* \"#utility.yul\":24197:24198   */\n      dup3\n        /* \"#utility.yul\":24193:24202   */\n      mod\n        /* \"#utility.yul\":24188:24202   */\n      swap1\n      pop\n        /* \"#utility.yul\":24032:24208   */\n      swap3\n      swap2\n      pop\n      pop\n      jump\t// out\n        /* \"#utility.yul\":24214:24394   */\n    tag_442:\n        /* \"#utility.yul\":24262:24339   */\n      0x4e487b7100000000000000000000000000000000000000000000000000000000\n        /* \"#utility.yul\":24259:24260   */\n      0x00\n        /* \"#utility.yul\":24252:24340   */\n      mstore\n        /* \"#utility.yul\":24359:24363   */\n      0x11\n        /* \"#utility.yul\":24356:24357   */\n      0x04\n        /* \"#utility.yul\":24349:24364   */\n      mstore\n        /* \"#utility.yul\":24383:24387   */\n      0x24\n        /* \"#utility.yul\":24380:24381   */\n      0x00\n        /* \"#utility.yul\":24373:24388   */\n      revert\n        /* \"#utility.yul\":24400:24580   */\n    tag_466:\n        /* \"#utility.yul\":24448:24525   */\n      0x4e487b7100000000000000000000000000000000000000000000000000000000\n        /* \"#utility.yul\":24445:24446   */\n      0x00\n        /* \"#utility.yul\":24438:24526   */\n      mstore\n        /* \"#utility.yul\":24545:24549   */\n      0x12\n        /* \"#utility.yul\":24542:24543   */\n      0x04\n        /* \"#utility.yul\":24535:24550   */\n      mstore\n        /* \"#utility.yul\":24569:24573   */\n      0x24\n        /* \"#utility.yul\":24566:24567   */\n      0x00\n        /* \"#utility.yul\":24559:24574   */\n      revert\n        /* \"#utility.yul\":24709:24826   */\n    tag_224:\n        /* \"#utility.yul\":24818:24819   */\n      0x00\n        /* \"#utility.yul\":24815:24816   */\n      dup1\n        /* \"#utility.yul\":24808:24820   */\n      revert\n        /* \"#utility.yul\":24832:25058   */\n    tag_256:\n        /* \"#utility.yul\":24972:25006   */\n      0x546865207365637265744e756d626572206f6620686f737420646f6573206e6f\n        /* \"#utility.yul\":24968:24969   */\n      0x00\n        /* \"#utility.yul\":24960:24966   */\n      dup3\n        /* \"#utility.yul\":24956:24970   */\n      add\n        /* \"#utility.yul\":24949:25007   */\n      mstore\n        /* \"#utility.yul\":25041:25050   */\n      0x74206d6174636800000000000000000000000000000000000000000000000000\n        /* \"#utility.yul\":25036:25038   */\n      0x20\n        /* \"#utility.yul\":25028:25034   */\n      dup3\n        /* \"#utility.yul\":25024:25039   */\n      add\n        /* \"#utility.yul\":25017:25051   */\n      mstore\n        /* \"#utility.yul\":24832:25058   */\n      pop\n      jump\t// out\n        /* \"#utility.yul\":25064:25239   */\n    tag_261:\n        /* \"#utility.yul\":25204:25231   */\n      0x546865206775657374206973206e6f7420766572696669656400000000000000\n        /* \"#utility.yul\":25200:25201   */\n      0x00\n        /* \"#utility.yul\":25192:25198   */\n      dup3\n        /* \"#utility.yul\":25188:25202   */\n      add\n        /* \"#utility.yul\":25181:25232   */\n      mstore\n        /* \"#utility.yul\":25064:25239   */\n      pop\n      jump\t// out\n        /* \"#utility.yul\":25245:25470   */\n    tag_266:\n        /* \"#utility.yul\":25385:25419   */\n      0x4861736820636f6c6c6973696f6e2c20706c6561736520757365206f74686572\n        /* \"#utility.yul\":25381:25382   */\n      0x00\n        /* \"#utility.yul\":25373:25379   */\n      dup3\n        /* \"#utility.yul\":25369:25383   */\n      add\n        /* \"#utility.yul\":25362:25420   */\n      mstore\n        /* \"#utility.yul\":25454:25462   */\n      0x2076616c75650000000000000000000000000000000000000000000000000000\n        /* \"#utility.yul\":25449:25451   */\n      0x20\n        /* \"#utility.yul\":25441:25447   */\n      dup3\n        /* \"#utility.yul\":25437:25452   */\n      add\n        /* \"#utility.yul\":25430:25463   */\n      mstore\n        /* \"#utility.yul\":25245:25470   */\n      pop\n      jump\t// out\n        /* \"#utility.yul\":25476:25697   */\n    tag_271:\n        /* \"#utility.yul\":25616:25650   */\n      0x57616974206d6f726520626c6f636b7320666f7220737461727420726f6c6c69\n        /* \"#utility.yul\":25612:25613   */\n      0x00\n        /* \"#utility.yul\":25604:25610   */\n      dup3\n        /* \"#utility.yul\":25600:25614   */\n      add\n        /* \"#utility.yul\":25593:25651   */\n      mstore\n        /* \"#utility.yul\":25685:25689   */\n      0x6e67000000000000000000000000000000000000000000000000000000000000\n        /* \"#utility.yul\":25680:25682   */\n      0x20\n        /* \"#utility.yul\":25672:25678   */\n      dup3\n        /* \"#utility.yul\":25668:25683   */\n      add\n        /* \"#utility.yul\":25661:25690   */\n      mstore\n        /* \"#utility.yul\":25476:25697   */\n      pop\n      jump\t// out\n        /* \"#utility.yul\":25703:25875   */\n    tag_276:\n        /* \"#utility.yul\":25843:25867   */\n      0x6e6f206775657374206a6f696e207468652067616d6500000000000000000000\n        /* \"#utility.yul\":25839:25840   */\n      0x00\n        /* \"#utility.yul\":25831:25837   */\n      dup3\n        /* \"#utility.yul\":25827:25841   */\n      add\n        /* \"#utility.yul\":25820:25868   */\n      mstore\n        /* \"#utility.yul\":25703:25875   */\n      pop\n      jump\t// out\n        /* \"#utility.yul\":25881:26116   */\n    tag_281:\n        /* \"#utility.yul\":26021:26055   */\n      0x596f752073686f756c642068617665206174206c656173742033206574682074\n        /* \"#utility.yul\":26017:26018   */\n      0x00\n        /* \"#utility.yul\":26009:26015   */\n      dup3\n        /* \"#utility.yul\":26005:26019   */\n      add\n        /* \"#utility.yul\":25998:26056   */\n      mstore\n        /* \"#utility.yul\":26090:26108   */\n      0x6f207374617274207468652067616d6500000000000000000000000000000000\n        /* \"#utility.yul\":26085:26087   */\n      0x20\n        /* \"#utility.yul\":26077:26083   */\n      dup3\n        /* \"#utility.yul\":26073:26088   */\n      add\n        /* \"#utility.yul\":26066:26109   */\n      mstore\n        /* \"#utility.yul\":25881:26116   */\n      pop\n      jump\t// out\n        /* \"#utility.yul\":26122:26293   */\n    tag_286:\n        /* \"#utility.yul\":26262:26285   */\n      0x596f7520616c726561647920696e20612067616d650000000000000000000000\n        /* \"#utility.yul\":26258:26259   */\n      0x00\n        /* \"#utility.yul\":26250:26256   */\n      dup3\n        /* \"#utility.yul\":26246:26260   */\n      add\n        /* \"#utility.yul\":26239:26286   */\n      mstore\n        /* \"#utility.yul\":26122:26293   */\n      pop\n      jump\t// out\n        /* \"#utility.yul\":26299:26520   */\n    tag_291:\n        /* \"#utility.yul\":26439:26473   */\n      0x43616e206e6f742066696e642074686520686f7374206f6620796f7572206761\n        /* \"#utility.yul\":26435:26436   */\n      0x00\n        /* \"#utility.yul\":26427:26433   */\n      dup3\n        /* \"#utility.yul\":26423:26437   */\n      add\n        /* \"#utility.yul\":26416:26474   */\n      mstore\n        /* \"#utility.yul\":26508:26512   */\n      0x6d65000000000000000000000000000000000000000000000000000000000000\n        /* \"#utility.yul\":26503:26505   */\n      0x20\n        /* \"#utility.yul\":26495:26501   */\n      dup3\n        /* \"#utility.yul\":26491:26506   */\n      add\n        /* \"#utility.yul\":26484:26513   */\n      mstore\n        /* \"#utility.yul\":26299:26520   */\n      pop\n      jump\t// out\n        /* \"#utility.yul\":26526:26705   */\n    tag_296:\n        /* \"#utility.yul\":26666:26697   */\n      0x5468652075736572206469646e27742063726561746520612067616d65000000\n        /* \"#utility.yul\":26662:26663   */\n      0x00\n        /* \"#utility.yul\":26654:26660   */\n      dup3\n        /* \"#utility.yul\":26650:26664   */\n      add\n        /* \"#utility.yul\":26643:26698   */\n      mstore\n        /* \"#utility.yul\":26526:26705   */\n      pop\n      jump\t// out\n        /* \"#utility.yul\":26711:26931   */\n    tag_301:\n        /* \"#utility.yul\":26851:26885   */\n      0x596f752063616e206e6f7420706c617920616761696e737420796f757273656c\n        /* \"#utility.yul\":26847:26848   */\n      0x00\n        /* \"#utility.yul\":26839:26845   */\n      dup3\n        /* \"#utility.yul\":26835:26849   */\n      add\n        /* \"#utility.yul\":26828:26886   */\n      mstore\n        /* \"#utility.yul\":26920:26923   */\n      0x6600000000000000000000000000000000000000000000000000000000000000\n        /* \"#utility.yul\":26915:26917   */\n      0x20\n        /* \"#utility.yul\":26907:26913   */\n      dup3\n        /* \"#utility.yul\":26903:26918   */\n      add\n        /* \"#utility.yul\":26896:26924   */\n      mstore\n        /* \"#utility.yul\":26711:26931   */\n      pop\n      jump\t// out\n        /* \"#utility.yul\":26937:27169   */\n    tag_306:\n        /* \"#utility.yul\":27077:27111   */\n      0x596f757220617265206e6f742077656c636f6d6520746f207061727469636970\n        /* \"#utility.yul\":27073:27074   */\n      0x00\n        /* \"#utility.yul\":27065:27071   */\n      dup3\n        /* \"#utility.yul\":27061:27075   */\n      add\n        /* \"#utility.yul\":27054:27112   */\n      mstore\n        /* \"#utility.yul\":27146:27161   */\n      0x61746520746869732067616d6500000000000000000000000000000000000000\n        /* \"#utility.yul\":27141:27143   */\n      0x20\n        /* \"#utility.yul\":27133:27139   */\n      dup3\n        /* \"#utility.yul\":27129:27144   */\n      add\n        /* \"#utility.yul\":27122:27162   */\n      mstore\n        /* \"#utility.yul\":26937:27169   */\n      pop\n      jump\t// out\n        /* \"#utility.yul\":27175:27404   */\n    tag_311:\n        /* \"#utility.yul\":27315:27349   */\n      0x596f752063616e6e6f74207465726d696e617465207468652067616d65206e6f\n        /* \"#utility.yul\":27311:27312   */\n      0x00\n        /* \"#utility.yul\":27303:27309   */\n      dup3\n        /* \"#utility.yul\":27299:27313   */\n      add\n        /* \"#utility.yul\":27292:27350   */\n      mstore\n        /* \"#utility.yul\":27384:27396   */\n      0x772c20636865636b203200000000000000000000000000000000000000000000\n        /* \"#utility.yul\":27379:27381   */\n      0x20\n        /* \"#utility.yul\":27371:27377   */\n      dup3\n        /* \"#utility.yul\":27367:27382   */\n      add\n        /* \"#utility.yul\":27360:27397   */\n      mstore\n        /* \"#utility.yul\":27175:27404   */\n      pop\n      jump\t// out\n        /* \"#utility.yul\":27410:27631   */\n    tag_316:\n        /* \"#utility.yul\":27550:27584   */\n      0x57616974696e6720666f7220677565737420746f206a6f696e20746865206761\n        /* \"#utility.yul\":27546:27547   */\n      0x00\n        /* \"#utility.yul\":27538:27544   */\n      dup3\n        /* \"#utility.yul\":27534:27548   */\n      add\n        /* \"#utility.yul\":27527:27585   */\n      mstore\n        /* \"#utility.yul\":27619:27623   */\n      0x6d65000000000000000000000000000000000000000000000000000000000000\n        /* \"#utility.yul\":27614:27616   */\n      0x20\n        /* \"#utility.yul\":27606:27612   */\n      dup3\n        /* \"#utility.yul\":27602:27617   */\n      add\n        /* \"#utility.yul\":27595:27624   */\n      mstore\n        /* \"#utility.yul\":27410:27631   */\n      pop\n      jump\t// out\n        /* \"#utility.yul\":27637:27806   */\n    tag_321:\n        /* \"#utility.yul\":27777:27798   */\n      0x4e6f206d6f6e657920696e2062616c616e636500000000000000000000000000\n        /* \"#utility.yul\":27773:27774   */\n      0x00\n        /* \"#utility.yul\":27765:27771   */\n      dup3\n        /* \"#utility.yul\":27761:27775   */\n      add\n        /* \"#utility.yul\":27754:27799   */\n      mstore\n        /* \"#utility.yul\":27637:27806   */\n      pop\n      jump\t// out\n        /* \"#utility.yul\":27812:28038   */\n    tag_326:\n        /* \"#utility.yul\":27952:27986   */\n      0x54686520736563726574206e756d626572206f66206775657374206861732076\n        /* \"#utility.yul\":27948:27949   */\n      0x00\n        /* \"#utility.yul\":27940:27946   */\n      dup3\n        /* \"#utility.yul\":27936:27950   */\n      add\n        /* \"#utility.yul\":27929:27987   */\n      mstore\n        /* \"#utility.yul\":28021:28030   */\n      0x6572696669656400000000000000000000000000000000000000000000000000\n        /* \"#utility.yul\":28016:28018   */\n      0x20\n        /* \"#utility.yul\":28008:28014   */\n      dup3\n        /* \"#utility.yul\":28004:28019   */\n      add\n        /* \"#utility.yul\":27997:28031   */\n      mstore\n        /* \"#utility.yul\":27812:28038   */\n      pop\n      jump\t// out\n        /* \"#utility.yul\":28044:28271   */\n    tag_331:\n        /* \"#utility.yul\":28184:28218   */\n      0x546865207365637265744e756d626572206f6620677565737420646f6573206e\n        /* \"#utility.yul\":28180:28181   */\n      0x00\n        /* \"#utility.yul\":28172:28178   */\n      dup3\n        /* \"#utility.yul\":28168:28182   */\n      add\n        /* \"#utility.yul\":28161:28219   */\n      mstore\n        /* \"#utility.yul\":28253:28263   */\n      0x6f74206d61746368000000000000000000000000000000000000000000000000\n        /* \"#utility.yul\":28248:28250   */\n      0x20\n        /* \"#utility.yul\":28240:28246   */\n      dup3\n        /* \"#utility.yul\":28236:28251   */\n      add\n        /* \"#utility.yul\":28229:28264   */\n      mstore\n        /* \"#utility.yul\":28044:28271   */\n      pop\n      jump\t// out\n        /* \"#utility.yul\":28277:28451   */\n    tag_336:\n        /* \"#utility.yul\":28417:28443   */\n      0x54686520686f7374206973206e6f742076657269666965640000000000000000\n        /* \"#utility.yul\":28413:28414   */\n      0x00\n        /* \"#utility.yul\":28405:28411   */\n      dup3\n        /* \"#utility.yul\":28401:28415   */\n      add\n        /* \"#utility.yul\":28394:28444   */\n      mstore\n        /* \"#utility.yul\":28277:28451   */\n      pop\n      jump\t// out\n        /* \"#utility.yul\":28457:28682   */\n    tag_341:\n        /* \"#utility.yul\":28597:28631   */\n      0x54686520736563726574206e756d626572206f6620686f737420686173207665\n        /* \"#utility.yul\":28593:28594   */\n      0x00\n        /* \"#utility.yul\":28585:28591   */\n      dup3\n        /* \"#utility.yul\":28581:28595   */\n      add\n        /* \"#utility.yul\":28574:28632   */\n      mstore\n        /* \"#utility.yul\":28666:28674   */\n      0x7269666965640000000000000000000000000000000000000000000000000000\n        /* \"#utility.yul\":28661:28663   */\n      0x20\n        /* \"#utility.yul\":28653:28659   */\n      dup3\n        /* \"#utility.yul\":28649:28664   */\n      add\n        /* \"#utility.yul\":28642:28675   */\n      mstore\n        /* \"#utility.yul\":28457:28682   */\n      pop\n      jump\t// out\n        /* \"#utility.yul\":28688:28917   */\n    tag_346:\n        /* \"#utility.yul\":28828:28862   */\n      0x596f752063616e6e6f74207465726d696e617465207468652067616d65206e6f\n        /* \"#utility.yul\":28824:28825   */\n      0x00\n        /* \"#utility.yul\":28816:28822   */\n      dup3\n        /* \"#utility.yul\":28812:28826   */\n      add\n        /* \"#utility.yul\":28805:28863   */\n      mstore\n        /* \"#utility.yul\":28897:28909   */\n      0x772c20636865636b203100000000000000000000000000000000000000000000\n        /* \"#utility.yul\":28892:28894   */\n      0x20\n        /* \"#utility.yul\":28884:28890   */\n      dup3\n        /* \"#utility.yul\":28880:28895   */\n      add\n        /* \"#utility.yul\":28873:28910   */\n      mstore\n        /* \"#utility.yul\":28688:28917   */\n      pop\n      jump\t// out\n        /* \"#utility.yul\":28923:29104   */\n    tag_351:\n        /* \"#utility.yul\":29063:29096   */\n      0x43616e6e6f7420776974686472617720647572696e67207468652067616d6500\n        /* \"#utility.yul\":29059:29060   */\n      0x00\n        /* \"#utility.yul\":29051:29057   */\n      dup3\n        /* \"#utility.yul\":29047:29061   */\n      add\n        /* \"#utility.yul\":29040:29097   */\n      mstore\n        /* \"#utility.yul\":28923:29104   */\n      pop\n      jump\t// out\n        /* \"#utility.yul\":29110:29339   */\n    tag_356:\n        /* \"#utility.yul\":29250:29284   */\n      0x596f752063616e6e6f74207465726d696e617465207468652067616d65206e6f\n        /* \"#utility.yul\":29246:29247   */\n      0x00\n        /* \"#utility.yul\":29238:29244   */\n      dup3\n        /* \"#utility.yul\":29234:29248   */\n      add\n        /* \"#utility.yul\":29227:29285   */\n      mstore\n        /* \"#utility.yul\":29319:29331   */\n      0x772c20636865636b203300000000000000000000000000000000000000000000\n        /* \"#utility.yul\":29314:29316   */\n      0x20\n        /* \"#utility.yul\":29306:29312   */\n      dup3\n        /* \"#utility.yul\":29302:29317   */\n      add\n        /* \"#utility.yul\":29295:29332   */\n      mstore\n        /* \"#utility.yul\":29110:29339   */\n      pop\n      jump\t// out\n        /* \"#utility.yul\":29345:29516   */\n    tag_361:\n        /* \"#utility.yul\":29485:29508   */\n      0x596f7520617265206e6f7420696e20612067616d650000000000000000000000\n        /* \"#utility.yul\":29481:29482   */\n      0x00\n        /* \"#utility.yul\":29473:29479   */\n      dup3\n        /* \"#utility.yul\":29469:29483   */\n      add\n        /* \"#utility.yul\":29462:29509   */\n      mstore\n        /* \"#utility.yul\":29345:29516   */\n      pop\n      jump\t// out\n        /* \"#utility.yul\":29522:29644   */\n    tag_212:\n        /* \"#utility.yul\":29595:29619   */\n      tag_495\n        /* \"#utility.yul\":29613:29618   */\n      dup2\n        /* \"#utility.yul\":29595:29619   */\n      tag_242\n      jump\t// in\n    tag_495:\n        /* \"#utility.yul\":29588:29593   */\n      dup2\n        /* \"#utility.yul\":29585:29620   */\n      eq\n        /* \"#utility.yul\":29575:29638   */\n      tag_496\n      jumpi\n        /* \"#utility.yul\":29634:29635   */\n      0x00\n        /* \"#utility.yul\":29631:29632   */\n      dup1\n        /* \"#utility.yul\":29624:29636   */\n      revert\n        /* \"#utility.yul\":29575:29638   */\n    tag_496:\n        /* \"#utility.yul\":29522:29644   */\n      pop\n      jump\t// out\n        /* \"#utility.yul\":29650:29772   */\n    tag_216:\n        /* \"#utility.yul\":29723:29747   */\n      tag_498\n        /* \"#utility.yul\":29741:29746   */\n      dup2\n        /* \"#utility.yul\":29723:29747   */\n      tag_250\n      jump\t// in\n    tag_498:\n        /* \"#utility.yul\":29716:29721   */\n      dup2\n        /* \"#utility.yul\":29713:29748   */\n      eq\n        /* \"#utility.yul\":29703:29766   */\n      tag_499\n      jumpi\n        /* \"#utility.yul\":29762:29763   */\n      0x00\n        /* \"#utility.yul\":29759:29760   */\n      dup1\n        /* \"#utility.yul\":29752:29764   */\n      revert\n        /* \"#utility.yul\":29703:29766   */\n    tag_499:\n        /* \"#utility.yul\":29650:29772   */\n      pop\n      jump\t// out\n        /* \"#utility.yul\":29778:29900   */\n    tag_220:\n        /* \"#utility.yul\":29851:29875   */\n      tag_501\n        /* \"#utility.yul\":29869:29874   */\n      dup2\n        /* \"#utility.yul\":29851:29875   */\n      tag_365\n      jump\t// in\n    tag_501:\n        /* \"#utility.yul\":29844:29849   */\n      dup2\n        /* \"#utility.yul\":29841:29876   */\n      eq\n        /* \"#utility.yul\":29831:29894   */\n      tag_502\n      jumpi\n        /* \"#utility.yul\":29890:29891   */\n      0x00\n        /* \"#utility.yul\":29887:29888   */\n      dup1\n        /* \"#utility.yul\":29880:29892   */\n      revert\n        /* \"#utility.yul\":29831:29894   */\n    tag_502:\n        /* \"#utility.yul\":29778:29900   */\n      pop\n      jump\t// out\n\n    auxdata: 0xa26469706673582212202b8e9cfe6f411342870c6ca86a78ff1e3e64fcce62c131326bd5bbb80e5ab99a64736f6c63430008070033\n}\n",
				"bytecode": {
					"linkReferences": {},
					"object": "608060405273ed047bbd6cdbf009bd7788eb93192b630bab4a5e6000806101000a81548173ffffffffffffffffffffffffffffffffffffffff021916908373ffffffffffffffffffffffffffffffffffffffff16021790555034801561006457600080fd5b506142c6806100746000396000f3fe6080604052600436106100915760003560e01c8063c05a911c11610059578063c05a911c14610160578063cd5e3c5d14610189578063e367b5d5146101a0578063e810c81f146101e4578063ed02cb7c1461020057610091565b80632bff8dd61461009657806351cff8d9146100d45780636b2fafa9146100f057806397661f311461012d578063c027733814610144575b600080fd5b3480156100a257600080fd5b506100bd60048036038101906100b891906132e7565b61021c565b6040516100cb929190613aa3565b60405180910390f35b6100ee60048036038101906100e991906132e7565b610260565b005b3480156100fc57600080fd5b5061011760048036038101906101129190613381565b610455565b60405161012491906137c8565b60405180910390f35b34801561013957600080fd5b50610142610485565b005b61015e60048036038101906101599190613354565b610bfd565b005b34801561016c57600080fd5b5061018760048036038101906101829190613381565b610fda565b005b34801561019557600080fd5b5061019e6119ed565b005b3480156101ac57600080fd5b506101c760048036038101906101c291906132e7565b6123c2565b6040516101db98979695949392919061374a565b60405180910390f35b6101fe60048036038101906101f99190613314565b612457565b005b61021a60048036038101906102159190613314565b612ada565b005b60016020528060005260406000206000915090508060000154908060010160009054906101000a900473ffffffffffffffffffffffffffffffffffffffff16905082565b6000600160003373ffffffffffffffffffffffffffffffffffffffff1673ffffffffffffffffffffffffffffffffffffffff16815260200190815260200160002060000154116102e5576040517f08c379a00000000000000000000000000000000000000000000000000000000081526004016102dc90613983565b60405180910390fd5b60011515600260008373ffffffffffffffffffffffffffffffffffffffff1673ffffffffffffffffffffffffffffffffffffffff16815260200190815260200160002060070160009054906101000a900460ff1615151461037b576040517f08c379a000000000000000000000000000000000000000000000000000000000815260040161037290613a43565b60405180910390fd5b6000600160003373ffffffffffffffffffffffffffffffffffffffff1673ffffffffffffffffffffffffffffffffffffffff1681526020019081526020016000206000015490506000600160003373ffffffffffffffffffffffffffffffffffffffff1673ffffffffffffffffffffffffffffffffffffffff168152602001908152602001600020600001819055503373ffffffffffffffffffffffffffffffffffffffff166108fc829081150290604051600060405180830381858888f19350505050158015610450573d6000803e3d6000fd5b505050565b6000816040516020016104689190613703565b604051602081830303815290604052805190602001209050919050565b600073ffffffffffffffffffffffffffffffffffffffff16600160003373ffffffffffffffffffffffffffffffffffffffff1673ffffffffffffffffffffffffffffffffffffffff16815260200190815260200160002060010160009054906101000a900473ffffffffffffffffffffffffffffffffffffffff1673ffffffffffffffffffffffffffffffffffffffff161415610557576040517f08c379a000000000000000000000000000000000000000000000000000000000815260040161054e90613a83565b60405180910390fd5b600060026000600160003373ffffffffffffffffffffffffffffffffffffffff1673ffffffffffffffffffffffffffffffffffffffff16815260200190815260200160002060010160009054906101000a900473ffffffffffffffffffffffffffffffffffffffff1673ffffffffffffffffffffffffffffffffffffffff1673ffffffffffffffffffffffffffffffffffffffff168152602001908152602001600020604051806101000160405290816000820160009054906101000a900473ffffffffffffffffffffffffffffffffffffffff1673ffffffffffffffffffffffffffffffffffffffff1673ffffffffffffffffffffffffffffffffffffffff16815260200160018201548152602001600282015481526020016003820160009054906101000a900473ffffffffffffffffffffffffffffffffffffffff1673ffffffffffffffffffffffffffffffffffffffff1673ffffffffffffffffffffffffffffffffffffffff1681526020016004820154815260200160058201548152602001600682015481526020016007820160009054906101000a900460ff16151515158152505090506000801b816080015114156107d35760038160c00151436107229190613b8d565b1015610763576040517f08c379a000000000000000000000000000000000000000000000000000000000815260040161075a90613a23565b60405180910390fd5b6107ce600160003373ffffffffffffffffffffffffffffffffffffffff1673ffffffffffffffffffffffffffffffffffffffff16815260200190815260200160002060010160009054906101000a900473ffffffffffffffffffffffffffffffffffffffff16612f27565b6109e7565b60008160a0015114156109e65760148160c00151436107f29190613b8d565b1015610833576040517f08c379a000000000000000000000000000000000000000000000000000000000815260040161082a90613943565b60405180910390fd5b600081604001511461097957670de0b6b3a764000060016000836060015173ffffffffffffffffffffffffffffffffffffffff1673ffffffffffffffffffffffffffffffffffffffff168152602001908152602001600020600001600082825461089d9190613b8d565b92505081905550670de0b6b3a764000060016000836000015173ffffffffffffffffffffffffffffffffffffffff1673ffffffffffffffffffffffffffffffffffffffff16815260200190815260200160002060000160008282546109029190613add565b92505081905550610974600160003373ffffffffffffffffffffffffffffffffffffffff1673ffffffffffffffffffffffffffffffffffffffff16815260200190815260200160002060010160009054906101000a900473ffffffffffffffffffffffffffffffffffffffff16612f27565b6109e5565b6109e4600160003373ffffffffffffffffffffffffffffffffffffffff1673ffffffffffffffffffffffffffffffffffffffff16815260200190815260200160002060010160009054906101000a900473ffffffffffffffffffffffffffffffffffffffff16612f27565b5b5b5b600081604001511415610a485760148160c0015143610a069190613b8d565b1015610a47576040517f08c379a0000000000000000000000000000000000000000000000000000000008152600401610a3e90613a63565b60405180910390fd5b5b60008160a0015114610b8e57670de0b6b3a764000060016000836000015173ffffffffffffffffffffffffffffffffffffffff1673ffffffffffffffffffffffffffffffffffffffff1681526020019081526020016000206000016000828254610ab29190613b8d565b92505081905550670de0b6b3a764000060016000836060015173ffffffffffffffffffffffffffffffffffffffff1673ffffffffffffffffffffffffffffffffffffffff1681526020019081526020016000206000016000828254610b179190613add565b92505081905550610b89600160003373ffffffffffffffffffffffffffffffffffffffff1673ffffffffffffffffffffffffffffffffffffffff16815260200190815260200160002060010160009054906101000a900473ffffffffffffffffffffffffffffffffffffffff16612f27565b610bfa565b610bf9600160003373ffffffffffffffffffffffffffffffffffffffff1673ffffffffffffffffffffffffffffffffffffffff16815260200190815260200160002060010160009054906101000a900473ffffffffffffffffffffffffffffffffffffffff16612f27565b5b50565b600073ffffffffffffffffffffffffffffffffffffffff16600160003373ffffffffffffffffffffffffffffffffffffffff1673ffffffffffffffffffffffffffffffffffffffff16815260200190815260200160002060010160009054906101000a900473ffffffffffffffffffffffffffffffffffffffff1673ffffffffffffffffffffffffffffffffffffffff1614610cce576040517f08c379a0000000000000000000000000000000000000000000000000000000008152600401610cc5906138a3565b60405180910390fd5b6729a2241af62c000034600160003373ffffffffffffffffffffffffffffffffffffffff1673ffffffffffffffffffffffffffffffffffffffff16815260200190815260200160002060000154610d259190613add565b1015610d66576040517f08c379a0000000000000000000000000000000000000000000000000000000008152600401610d5d90613883565b60405180910390fd5b60006040518061010001604052803373ffffffffffffffffffffffffffffffffffffffff16815260200183815260200160008152602001600073ffffffffffffffffffffffffffffffffffffffff1681526020016000801b81526020016000815260200143815260200160001515815250905080600260003373ffffffffffffffffffffffffffffffffffffffff1673ffffffffffffffffffffffffffffffffffffffff16815260200190815260200160002060008201518160000160006101000a81548173ffffffffffffffffffffffffffffffffffffffff021916908373ffffffffffffffffffffffffffffffffffffffff160217905550602082015181600101556040820151816002015560608201518160030160006101000a81548173ffffffffffffffffffffffffffffffffffffffff021916908373ffffffffffffffffffffffffffffffffffffffff1602179055506080820151816004015560a0820151816005015560c0820151816006015560e08201518160070160006101000a81548160ff02191690831515021790555090505034600160003373ffffffffffffffffffffffffffffffffffffffff1673ffffffffffffffffffffffffffffffffffffffff1681526020019081526020016000206000016000828254610f4e9190613add565b9250508190555033600160003373ffffffffffffffffffffffffffffffffffffffff1673ffffffffffffffffffffffffffffffffffffffff16815260200190815260200160002060010160006101000a81548173ffffffffffffffffffffffffffffffffffffffff021916908373ffffffffffffffffffffffffffffffffffffffff1602179055505050565b600073ffffffffffffffffffffffffffffffffffffffff1660026000600160003373ffffffffffffffffffffffffffffffffffffffff1673ffffffffffffffffffffffffffffffffffffffff16815260200190815260200160002060010160009054906101000a900473ffffffffffffffffffffffffffffffffffffffff1673ffffffffffffffffffffffffffffffffffffffff1673ffffffffffffffffffffffffffffffffffffffff16815260200190815260200160002060030160009054906101000a900473ffffffffffffffffffffffffffffffffffffffff1673ffffffffffffffffffffffffffffffffffffffff16141561110e576040517f08c379a000000000000000000000000000000000000000000000000000000000815260040161110590613963565b60405180910390fd5b600073ffffffffffffffffffffffffffffffffffffffff1660026000600160003373ffffffffffffffffffffffffffffffffffffffff1673ffffffffffffffffffffffffffffffffffffffff16815260200190815260200160002060010160009054906101000a900473ffffffffffffffffffffffffffffffffffffffff1673ffffffffffffffffffffffffffffffffffffffff1673ffffffffffffffffffffffffffffffffffffffff16815260200190815260200160002060000160009054906101000a900473ffffffffffffffffffffffffffffffffffffffff1673ffffffffffffffffffffffffffffffffffffffff161415611242576040517f08c379a0000000000000000000000000000000000000000000000000000000008152600401611239906138c3565b60405180910390fd5b3373ffffffffffffffffffffffffffffffffffffffff1660026000600160003373ffffffffffffffffffffffffffffffffffffffff1673ffffffffffffffffffffffffffffffffffffffff16815260200190815260200160002060010160009054906101000a900473ffffffffffffffffffffffffffffffffffffffff1673ffffffffffffffffffffffffffffffffffffffff1673ffffffffffffffffffffffffffffffffffffffff16815260200190815260200160002060000160009054906101000a900473ffffffffffffffffffffffffffffffffffffffff1673ffffffffffffffffffffffffffffffffffffffff1614156115c357600060026000600160003373ffffffffffffffffffffffffffffffffffffffff1673ffffffffffffffffffffffffffffffffffffffff16815260200190815260200160002060010160009054906101000a900473ffffffffffffffffffffffffffffffffffffffff1673ffffffffffffffffffffffffffffffffffffffff1673ffffffffffffffffffffffffffffffffffffffff1681526020019081526020016000206002015414611421576040517f08c379a000000000000000000000000000000000000000000000000000000000815260040161141890613a03565b60405180910390fd5b61142a81610455565b60026000600160003373ffffffffffffffffffffffffffffffffffffffff1673ffffffffffffffffffffffffffffffffffffffff16815260200190815260200160002060010160009054906101000a900473ffffffffffffffffffffffffffffffffffffffff1673ffffffffffffffffffffffffffffffffffffffff1673ffffffffffffffffffffffffffffffffffffffff168152602001908152602001600020600101541415611583578060026000600160003373ffffffffffffffffffffffffffffffffffffffff1673ffffffffffffffffffffffffffffffffffffffff16815260200190815260200160002060010160009054906101000a900473ffffffffffffffffffffffffffffffffffffffff1673ffffffffffffffffffffffffffffffffffffffff1673ffffffffffffffffffffffffffffffffffffffff168152602001908152602001600020600201819055506115be565b6040517f08c379a00000000000000000000000000000000000000000000000000000000081526004016115b5906137e3565b60405180910390fd5b611941565b3373ffffffffffffffffffffffffffffffffffffffff1660026000600160003373ffffffffffffffffffffffffffffffffffffffff1673ffffffffffffffffffffffffffffffffffffffff16815260200190815260200160002060010160009054906101000a900473ffffffffffffffffffffffffffffffffffffffff1673ffffffffffffffffffffffffffffffffffffffff1673ffffffffffffffffffffffffffffffffffffffff16815260200190815260200160002060030160009054906101000a900473ffffffffffffffffffffffffffffffffffffffff1673ffffffffffffffffffffffffffffffffffffffff16141561194057600060026000600160003373ffffffffffffffffffffffffffffffffffffffff1673ffffffffffffffffffffffffffffffffffffffff16815260200190815260200160002060010160009054906101000a900473ffffffffffffffffffffffffffffffffffffffff1673ffffffffffffffffffffffffffffffffffffffff1673ffffffffffffffffffffffffffffffffffffffff16815260200190815260200160002060050154146117a2576040517f08c379a0000000000000000000000000000000000000000000000000000000008152600401611799906139a3565b60405180910390fd5b6117ab81610455565b60026000600160003373ffffffffffffffffffffffffffffffffffffffff1673ffffffffffffffffffffffffffffffffffffffff16815260200190815260200160002060010160009054906101000a900473ffffffffffffffffffffffffffffffffffffffff1673ffffffffffffffffffffffffffffffffffffffff1673ffffffffffffffffffffffffffffffffffffffff168152602001908152602001600020600401541415611904578060026000600160003373ffffffffffffffffffffffffffffffffffffffff1673ffffffffffffffffffffffffffffffffffffffff16815260200190815260200160002060010160009054906101000a900473ffffffffffffffffffffffffffffffffffffffff1673ffffffffffffffffffffffffffffffffffffffff1673ffffffffffffffffffffffffffffffffffffffff1681526020019081526020016000206005018190555061193f565b6040517f08c379a0000000000000000000000000000000000000000000000000000000008152600401611936906139c3565b60405180910390fd5b5b5b4360026000600160003373ffffffffffffffffffffffffffffffffffffffff1673ffffffffffffffffffffffffffffffffffffffff16815260200190815260200160002060010160009054906101000a900473ffffffffffffffffffffffffffffffffffffffff1673ffffffffffffffffffffffffffffffffffffffff1673ffffffffffffffffffffffffffffffffffffffff1681526020019081526020016000206006018190555050565b600073ffffffffffffffffffffffffffffffffffffffff1660026000600160003373ffffffffffffffffffffffffffffffffffffffff1673ffffffffffffffffffffffffffffffffffffffff16815260200190815260200160002060010160009054906101000a900473ffffffffffffffffffffffffffffffffffffffff1673ffffffffffffffffffffffffffffffffffffffff1673ffffffffffffffffffffffffffffffffffffffff16815260200190815260200160002060000160009054906101000a900473ffffffffffffffffffffffffffffffffffffffff1673ffffffffffffffffffffffffffffffffffffffff161415611b21576040517f08c379a0000000000000000000000000000000000000000000000000000000008152600401611b1890613a83565b60405180910390fd5b600073ffffffffffffffffffffffffffffffffffffffff1660026000600160003373ffffffffffffffffffffffffffffffffffffffff1673ffffffffffffffffffffffffffffffffffffffff16815260200190815260200160002060010160009054906101000a900473ffffffffffffffffffffffffffffffffffffffff1673ffffffffffffffffffffffffffffffffffffffff1673ffffffffffffffffffffffffffffffffffffffff16815260200190815260200160002060030160009054906101000a900473ffffffffffffffffffffffffffffffffffffffff1673ffffffffffffffffffffffffffffffffffffffff161415611c55576040517f08c379a0000000000000000000000000000000000000000000000000000000008152600401611c4c90613863565b60405180910390fd5b600060026000600160003373ffffffffffffffffffffffffffffffffffffffff1673ffffffffffffffffffffffffffffffffffffffff16815260200190815260200160002060010160009054906101000a900473ffffffffffffffffffffffffffffffffffffffff1673ffffffffffffffffffffffffffffffffffffffff1673ffffffffffffffffffffffffffffffffffffffff168152602001908152602001600020600201541415611d3d576040517f08c379a0000000000000000000000000000000000000000000000000000000008152600401611d34906139e3565b60405180910390fd5b600060026000600160003373ffffffffffffffffffffffffffffffffffffffff1673ffffffffffffffffffffffffffffffffffffffff16815260200190815260200160002060010160009054906101000a900473ffffffffffffffffffffffffffffffffffffffff1673ffffffffffffffffffffffffffffffffffffffff1673ffffffffffffffffffffffffffffffffffffffff168152602001908152602001600020600501541415611e25576040517f08c379a0000000000000000000000000000000000000000000000000000000008152600401611e1c90613803565b60405180910390fd5b600360026000600160003373ffffffffffffffffffffffffffffffffffffffff1673ffffffffffffffffffffffffffffffffffffffff16815260200190815260200160002060010160009054906101000a900473ffffffffffffffffffffffffffffffffffffffff1673ffffffffffffffffffffffffffffffffffffffff1673ffffffffffffffffffffffffffffffffffffffff1681526020019081526020016000206006015443611ed79190613b8d565b1015611f18576040517f08c379a0000000000000000000000000000000000000000000000000000000008152600401611f0f90613843565b60405180910390fd5b6000600360026000600160003373ffffffffffffffffffffffffffffffffffffffff1673ffffffffffffffffffffffffffffffffffffffff16815260200190815260200160002060010160009054906101000a900473ffffffffffffffffffffffffffffffffffffffff1673ffffffffffffffffffffffffffffffffffffffff1673ffffffffffffffffffffffffffffffffffffffff16815260200190815260200160002060060154611fcb9190613add565b9050600060026000600160003373ffffffffffffffffffffffffffffffffffffffff1673ffffffffffffffffffffffffffffffffffffffff16815260200190815260200160002060010160009054906101000a900473ffffffffffffffffffffffffffffffffffffffff1673ffffffffffffffffffffffffffffffffffffffff1673ffffffffffffffffffffffffffffffffffffffff168152602001908152602001600020604051806101000160405290816000820160009054906101000a900473ffffffffffffffffffffffffffffffffffffffff1673ffffffffffffffffffffffffffffffffffffffff1673ffffffffffffffffffffffffffffffffffffffff16815260200160018201548152602001600282015481526020016003820160009054906101000a900473ffffffffffffffffffffffffffffffffffffffff1673ffffffffffffffffffffffffffffffffffffffff1673ffffffffffffffffffffffffffffffffffffffff1681526020016004820154815260200160058201548152602001600682015481526020016007820160009054906101000a900460ff1615151515815250509050600060068260a001518360400151188460405160200161219892919061371e565b6040516020818303038152906040528051906020012060001c6121bb9190613c1d565b60016121c79190613add565b905060048110156122b757670de0b6b3a7640000816121e69190613b33565b60016000846000015173ffffffffffffffffffffffffffffffffffffffff1673ffffffffffffffffffffffffffffffffffffffff168152602001908152602001600020600001600082825461223b9190613add565b92505081905550670de0b6b3a7640000816122569190613b33565b60016000846060015173ffffffffffffffffffffffffffffffffffffffff1673ffffffffffffffffffffffffffffffffffffffff16815260200190815260200160002060000160008282546122ab9190613b8d565b925050819055506123b0565b670de0b6b3a76400006003826122cd9190613b8d565b6122d79190613b33565b60016000846000015173ffffffffffffffffffffffffffffffffffffffff1673ffffffffffffffffffffffffffffffffffffffff168152602001908152602001600020600001600082825461232c9190613b8d565b92505081905550670de0b6b3a76400006003826123499190613b8d565b6123539190613b33565b60016000846060015173ffffffffffffffffffffffffffffffffffffffff1673ffffffffffffffffffffffffffffffffffffffff16815260200190815260200160002060000160008282546123a89190613add565b925050819055505b6123bd8260000151612f27565b505050565b60026020528060005260406000206000915090508060000160009054906101000a900473ffffffffffffffffffffffffffffffffffffffff16908060010154908060020154908060030160009054906101000a900473ffffffffffffffffffffffffffffffffffffffff16908060040154908060050154908060060154908060070160009054906101000a900460ff16905088565b600073ffffffffffffffffffffffffffffffffffffffff16600160003373ffffffffffffffffffffffffffffffffffffffff1673ffffffffffffffffffffffffffffffffffffffff16815260200190815260200160002060010160009054906101000a900473ffffffffffffffffffffffffffffffffffffffff1673ffffffffffffffffffffffffffffffffffffffff1614612528576040517f08c379a000000000000000000000000000000000000000000000000000000000815260040161251f906138a3565b60405180910390fd5b3373ffffffffffffffffffffffffffffffffffffffff168273ffffffffffffffffffffffffffffffffffffffff161415612597576040517f08c379a000000000000000000000000000000000000000000000000000000000815260040161258e90613903565b60405180910390fd5b8173ffffffffffffffffffffffffffffffffffffffff16600260008473ffffffffffffffffffffffffffffffffffffffff1673ffffffffffffffffffffffffffffffffffffffff16815260200190815260200160002060000160009054906101000a900473ffffffffffffffffffffffffffffffffffffffff1673ffffffffffffffffffffffffffffffffffffffff1614612667576040517f08c379a000000000000000000000000000000000000000000000000000000000815260040161265e906138e3565b60405180910390fd5b3373ffffffffffffffffffffffffffffffffffffffff16600260008473ffffffffffffffffffffffffffffffffffffffff1673ffffffffffffffffffffffffffffffffffffffff16815260200190815260200160002060030160009054906101000a900473ffffffffffffffffffffffffffffffffffffffff1673ffffffffffffffffffffffffffffffffffffffff1614806127915750600073ffffffffffffffffffffffffffffffffffffffff16600260008473ffffffffffffffffffffffffffffffffffffffff1673ffffffffffffffffffffffffffffffffffffffff16815260200190815260200160002060030160009054906101000a900473ffffffffffffffffffffffffffffffffffffffff1673ffffffffffffffffffffffffffffffffffffffff16145b6127d0576040517f08c379a00000000000000000000000000000000000000000000000000000000081526004016127c790613923565b60405180910390fd5b80600260008473ffffffffffffffffffffffffffffffffffffffff1673ffffffffffffffffffffffffffffffffffffffff168152602001908152602001600020600101541415612855576040517f08c379a000000000000000000000000000000000000000000000000000000000815260040161284c90613823565b60405180910390fd5b6729a2241af62c000034600160003373ffffffffffffffffffffffffffffffffffffffff1673ffffffffffffffffffffffffffffffffffffffff168152602001908152602001600020600001546128ac9190613add565b10156128ed576040517f08c379a00000000000000000000000000000000000000000000000000000000081526004016128e490613883565b60405180910390fd5b33600260008473ffffffffffffffffffffffffffffffffffffffff1673ffffffffffffffffffffffffffffffffffffffff16815260200190815260200160002060030160006101000a81548173ffffffffffffffffffffffffffffffffffffffff021916908373ffffffffffffffffffffffffffffffffffffffff16021790555080600260008473ffffffffffffffffffffffffffffffffffffffff1673ffffffffffffffffffffffffffffffffffffffff1681526020019081526020016000206004018190555043600260008473ffffffffffffffffffffffffffffffffffffffff1673ffffffffffffffffffffffffffffffffffffffff1681526020019081526020016000206006018190555034600160003373ffffffffffffffffffffffffffffffffffffffff1673ffffffffffffffffffffffffffffffffffffffff1681526020019081526020016000206000016000828254612a4e9190613add565b9250508190555081600160003373ffffffffffffffffffffffffffffffffffffffff1673ffffffffffffffffffffffffffffffffffffffff16815260200190815260200160002060010160006101000a81548173ffffffffffffffffffffffffffffffffffffffff021916908373ffffffffffffffffffffffffffffffffffffffff1602179055505050565b600073ffffffffffffffffffffffffffffffffffffffff16600160003373ffffffffffffffffffffffffffffffffffffffff1673ffffffffffffffffffffffffffffffffffffffff16815260200190815260200160002060010160009054906101000a900473ffffffffffffffffffffffffffffffffffffffff1673ffffffffffffffffffffffffffffffffffffffff1614612bab576040517f08c379a0000000000000000000000000000000000000000000000000000000008152600401612ba2906138a3565b60405180910390fd5b3373ffffffffffffffffffffffffffffffffffffffff168273ffffffffffffffffffffffffffffffffffffffff161415612c1a576040517f08c379a0000000000000000000000000000000000000000000000000000000008152600401612c1190613903565b60405180910390fd5b6729a2241af62c000034600160003373ffffffffffffffffffffffffffffffffffffffff1673ffffffffffffffffffffffffffffffffffffffff16815260200190815260200160002060000154612c719190613add565b1015612cb2576040517f08c379a0000000000000000000000000000000000000000000000000000000008152600401612ca990613883565b60405180910390fd5b60006040518061010001604052803373ffffffffffffffffffffffffffffffffffffffff16815260200183815260200160008152602001600073ffffffffffffffffffffffffffffffffffffffff1681526020016000801b81526020016000815260200143815260200160001515815250905080600260003373ffffffffffffffffffffffffffffffffffffffff1673ffffffffffffffffffffffffffffffffffffffff16815260200190815260200160002060008201518160000160006101000a81548173ffffffffffffffffffffffffffffffffffffffff021916908373ffffffffffffffffffffffffffffffffffffffff160217905550602082015181600101556040820151816002015560608201518160030160006101000a81548173ffffffffffffffffffffffffffffffffffffffff021916908373ffffffffffffffffffffffffffffffffffffffff1602179055506080820151816004015560a0820151816005015560c0820151816006015560e08201518160070160006101000a81548160ff02191690831515021790555090505034600160003373ffffffffffffffffffffffffffffffffffffffff1673ffffffffffffffffffffffffffffffffffffffff1681526020019081526020016000206000016000828254612e9a9190613add565b9250508190555033600160003373ffffffffffffffffffffffffffffffffffffffff1673ffffffffffffffffffffffffffffffffffffffff16815260200190815260200160002060010160006101000a81548173ffffffffffffffffffffffffffffffffffffffff021916908373ffffffffffffffffffffffffffffffffffffffff160217905550505050565b612f2f61322f565b60018160e0019015159081151581525050600060016000600260008673ffffffffffffffffffffffffffffffffffffffff1673ffffffffffffffffffffffffffffffffffffffff16815260200190815260200160002060000160009054906101000a900473ffffffffffffffffffffffffffffffffffffffff1673ffffffffffffffffffffffffffffffffffffffff1673ffffffffffffffffffffffffffffffffffffffff16815260200190815260200160002060010160006101000a81548173ffffffffffffffffffffffffffffffffffffffff021916908373ffffffffffffffffffffffffffffffffffffffff160217905550600060016000600260008673ffffffffffffffffffffffffffffffffffffffff1673ffffffffffffffffffffffffffffffffffffffff16815260200190815260200160002060030160009054906101000a900473ffffffffffffffffffffffffffffffffffffffff1673ffffffffffffffffffffffffffffffffffffffff1673ffffffffffffffffffffffffffffffffffffffff16815260200190815260200160002060010160006101000a81548173ffffffffffffffffffffffffffffffffffffffff021916908373ffffffffffffffffffffffffffffffffffffffff16021790555080600260008473ffffffffffffffffffffffffffffffffffffffff1673ffffffffffffffffffffffffffffffffffffffff16815260200190815260200160002060008201518160000160006101000a81548173ffffffffffffffffffffffffffffffffffffffff021916908373ffffffffffffffffffffffffffffffffffffffff160217905550602082015181600101556040820151816002015560608201518160030160006101000a81548173ffffffffffffffffffffffffffffffffffffffff021916908373ffffffffffffffffffffffffffffffffffffffff1602179055506080820151816004015560a0820151816005015560c0820151816006015560e08201518160070160006101000a81548160ff0219169083151502179055509050505050565b604051806101000160405280600073ffffffffffffffffffffffffffffffffffffffff1681526020016000801916815260200160008152602001600073ffffffffffffffffffffffffffffffffffffffff1681526020016000801916815260200160008152602001600081526020016000151581525090565b6000813590506132b78161424b565b92915050565b6000813590506132cc81614262565b92915050565b6000813590506132e181614279565b92915050565b6000602082840312156132fd576132fc613cac565b5b600061330b848285016132a8565b91505092915050565b6000806040838503121561332b5761332a613cac565b5b6000613339858286016132a8565b925050602061334a858286016132bd565b9150509250929050565b60006020828403121561336a57613369613cac565b5b6000613378848285016132bd565b91505092915050565b60006020828403121561339757613396613cac565b5b60006133a5848285016132d2565b91505092915050565b6133b781613bc1565b82525050565b6133c681613bd3565b82525050565b6133d581613bdf565b82525050565b60006133e8602783613acc565b91506133f382613cb1565b604082019050919050565b600061340b601983613acc565b915061341682613d00565b602082019050919050565b600061342e602683613acc565b915061343982613d29565b604082019050919050565b6000613451602283613acc565b915061345c82613d78565b604082019050919050565b6000613474601683613acc565b915061347f82613dc7565b602082019050919050565b6000613497603083613acc565b91506134a282613df0565b604082019050919050565b60006134ba601583613acc565b91506134c582613e3f565b602082019050919050565b60006134dd602283613acc565b91506134e882613e68565b604082019050919050565b6000613500601d83613acc565b915061350b82613eb7565b602082019050919050565b6000613523602183613acc565b915061352e82613ee0565b604082019050919050565b6000613546602d83613acc565b915061355182613f2f565b604082019050919050565b6000613569602a83613acc565b915061357482613f7e565b604082019050919050565b600061358c602283613acc565b915061359782613fcd565b604082019050919050565b60006135af601383613acc565b91506135ba8261401c565b602082019050919050565b60006135d2602783613acc565b91506135dd82614045565b604082019050919050565b60006135f5602883613acc565b915061360082614094565b604082019050919050565b6000613618601883613acc565b9150613623826140e3565b602082019050919050565b600061363b602683613acc565b91506136468261410c565b604082019050919050565b600061365e602a83613acc565b91506136698261415b565b604082019050919050565b6000613681601f83613acc565b915061368c826141aa565b602082019050919050565b60006136a4602a83613acc565b91506136af826141d3565b604082019050919050565b60006136c7601583613acc565b91506136d282614222565b602082019050919050565b6136e681613c09565b82525050565b6136fd6136f882613c09565b613c13565b82525050565b600061370f82846136ec565b60208201915081905092915050565b600061372a82856136ec565b60208201915061373a82846136ec565b6020820191508190509392505050565b600061010082019050613760600083018b6133ae565b61376d602083018a6133cc565b61377a60408301896136dd565b61378760608301886133ae565b61379460808301876133cc565b6137a160a08301866136dd565b6137ae60c08301856136dd565b6137bb60e08301846133bd565b9998505050505050505050565b60006020820190506137dd60008301846133cc565b92915050565b600060208201905081810360008301526137fc816133db565b9050919050565b6000602082019050818103600083015261381c816133fe565b9050919050565b6000602082019050818103600083015261383c81613421565b9050919050565b6000602082019050818103600083015261385c81613444565b9050919050565b6000602082019050818103600083015261387c81613467565b9050919050565b6000602082019050818103600083015261389c8161348a565b9050919050565b600060208201905081810360008301526138bc816134ad565b9050919050565b600060208201905081810360008301526138dc816134d0565b9050919050565b600060208201905081810360008301526138fc816134f3565b9050919050565b6000602082019050818103600083015261391c81613516565b9050919050565b6000602082019050818103600083015261393c81613539565b9050919050565b6000602082019050818103600083015261395c8161355c565b9050919050565b6000602082019050818103600083015261397c8161357f565b9050919050565b6000602082019050818103600083015261399c816135a2565b9050919050565b600060208201905081810360008301526139bc816135c5565b9050919050565b600060208201905081810360008301526139dc816135e8565b9050919050565b600060208201905081810360008301526139fc8161360b565b9050919050565b60006020820190508181036000830152613a1c8161362e565b9050919050565b60006020820190508181036000830152613a3c81613651565b9050919050565b60006020820190508181036000830152613a5c81613674565b9050919050565b60006020820190508181036000830152613a7c81613697565b9050919050565b60006020820190508181036000830152613a9c816136ba565b9050919050565b6000604082019050613ab860008301856136dd565b613ac560208301846133ae565b9392505050565b600082825260208201905092915050565b6000613ae882613c09565b9150613af383613c09565b9250827fffffffffffffffffffffffffffffffffffffffffffffffffffffffffffffffff03821115613b2857613b27613c4e565b5b828201905092915050565b6000613b3e82613c09565b9150613b4983613c09565b9250817fffffffffffffffffffffffffffffffffffffffffffffffffffffffffffffffff0483118215151615613b8257613b81613c4e565b5b828202905092915050565b6000613b9882613c09565b9150613ba383613c09565b925082821015613bb657613bb5613c4e565b5b828203905092915050565b6000613bcc82613be9565b9050919050565b60008115159050919050565b6000819050919050565b600073ffffffffffffffffffffffffffffffffffffffff82169050919050565b6000819050919050565b6000819050919050565b6000613c2882613c09565b9150613c3383613c09565b925082613c4357613c42613c7d565b5b828206905092915050565b7f4e487b7100000000000000000000000000000000000000000000000000000000600052601160045260246000fd5b7f4e487b7100000000000000000000000000000000000000000000000000000000600052601260045260246000fd5b600080fd5b7f546865207365637265744e756d626572206f6620686f737420646f6573206e6f60008201527f74206d6174636800000000000000000000000000000000000000000000000000602082015250565b7f546865206775657374206973206e6f7420766572696669656400000000000000600082015250565b7f4861736820636f6c6c6973696f6e2c20706c6561736520757365206f7468657260008201527f2076616c75650000000000000000000000000000000000000000000000000000602082015250565b7f57616974206d6f726520626c6f636b7320666f7220737461727420726f6c6c6960008201527f6e67000000000000000000000000000000000000000000000000000000000000602082015250565b7f6e6f206775657374206a6f696e207468652067616d6500000000000000000000600082015250565b7f596f752073686f756c642068617665206174206c65617374203320657468207460008201527f6f207374617274207468652067616d6500000000000000000000000000000000602082015250565b7f596f7520616c726561647920696e20612067616d650000000000000000000000600082015250565b7f43616e206e6f742066696e642074686520686f7374206f6620796f757220676160008201527f6d65000000000000000000000000000000000000000000000000000000000000602082015250565b7f5468652075736572206469646e27742063726561746520612067616d65000000600082015250565b7f596f752063616e206e6f7420706c617920616761696e737420796f757273656c60008201527f6600000000000000000000000000000000000000000000000000000000000000602082015250565b7f596f757220617265206e6f742077656c636f6d6520746f20706172746963697060008201527f61746520746869732067616d6500000000000000000000000000000000000000602082015250565b7f596f752063616e6e6f74207465726d696e617465207468652067616d65206e6f60008201527f772c20636865636b203200000000000000000000000000000000000000000000602082015250565b7f57616974696e6720666f7220677565737420746f206a6f696e2074686520676160008201527f6d65000000000000000000000000000000000000000000000000000000000000602082015250565b7f4e6f206d6f6e657920696e2062616c616e636500000000000000000000000000600082015250565b7f54686520736563726574206e756d626572206f6620677565737420686173207660008201527f6572696669656400000000000000000000000000000000000000000000000000602082015250565b7f546865207365637265744e756d626572206f6620677565737420646f6573206e60008201527f6f74206d61746368000000000000000000000000000000000000000000000000602082015250565b7f54686520686f7374206973206e6f742076657269666965640000000000000000600082015250565b7f54686520736563726574206e756d626572206f6620686f73742068617320766560008201527f7269666965640000000000000000000000000000000000000000000000000000602082015250565b7f596f752063616e6e6f74207465726d696e617465207468652067616d65206e6f60008201527f772c20636865636b203100000000000000000000000000000000000000000000602082015250565b7f43616e6e6f7420776974686472617720647572696e67207468652067616d6500600082015250565b7f596f752063616e6e6f74207465726d696e617465207468652067616d65206e6f60008201527f772c20636865636b203300000000000000000000000000000000000000000000602082015250565b7f596f7520617265206e6f7420696e20612067616d650000000000000000000000600082015250565b61425481613bc1565b811461425f57600080fd5b50565b61426b81613bdf565b811461427657600080fd5b50565b61428281613c09565b811461428d57600080fd5b5056fea26469706673582212202b8e9cfe6f411342870c6ca86a78ff1e3e64fcce62c131326bd5bbb80e5ab99a64736f6c63430008070033",
					"opcodes": "PUSH1 0x80 PUSH1 0x40 MSTORE PUSH20 0xED047BBD6CDBF009BD7788EB93192B630BAB4A5E PUSH1 0x0 DUP1 PUSH2 0x100 EXP DUP2 SLOAD DUP2 PUSH20 0xFFFFFFFFFFFFFFFFFFFFFFFFFFFFFFFFFFFFFFFF MUL NOT AND SWAP1 DUP4 PUSH20 0xFFFFFFFFFFFFFFFFFFFFFFFFFFFFFFFFFFFFFFFF AND MUL OR SWAP1 SSTORE POP CALLVALUE DUP1 ISZERO PUSH2 0x64 JUMPI PUSH1 0x0 DUP1 REVERT JUMPDEST POP PUSH2 0x42C6 DUP1 PUSH2 0x74 PUSH1 0x0 CODECOPY PUSH1 0x0 RETURN INVALID PUSH1 0x80 PUSH1 0x40 MSTORE PUSH1 0x4 CALLDATASIZE LT PUSH2 0x91 JUMPI PUSH1 0x0 CALLDATALOAD PUSH1 0xE0 SHR DUP1 PUSH4 0xC05A911C GT PUSH2 0x59 JUMPI DUP1 PUSH4 0xC05A911C EQ PUSH2 0x160 JUMPI DUP1 PUSH4 0xCD5E3C5D EQ PUSH2 0x189 JUMPI DUP1 PUSH4 0xE367B5D5 EQ PUSH2 0x1A0 JUMPI DUP1 PUSH4 0xE810C81F EQ PUSH2 0x1E4 JUMPI DUP1 PUSH4 0xED02CB7C EQ PUSH2 0x200 JUMPI PUSH2 0x91 JUMP JUMPDEST DUP1 PUSH4 0x2BFF8DD6 EQ PUSH2 0x96 JUMPI DUP1 PUSH4 0x51CFF8D9 EQ PUSH2 0xD4 JUMPI DUP1 PUSH4 0x6B2FAFA9 EQ PUSH2 0xF0 JUMPI DUP1 PUSH4 0x97661F31 EQ PUSH2 0x12D JUMPI DUP1 PUSH4 0xC0277338 EQ PUSH2 0x144 JUMPI JUMPDEST PUSH1 0x0 DUP1 REVERT JUMPDEST CALLVALUE DUP1 ISZERO PUSH2 0xA2 JUMPI PUSH1 0x0 DUP1 REVERT JUMPDEST POP PUSH2 0xBD PUSH1 0x4 DUP1 CALLDATASIZE SUB DUP2 ADD SWAP1 PUSH2 0xB8 SWAP2 SWAP1 PUSH2 0x32E7 JUMP JUMPDEST PUSH2 0x21C JUMP JUMPDEST PUSH1 0x40 MLOAD PUSH2 0xCB SWAP3 SWAP2 SWAP1 PUSH2 0x3AA3 JUMP JUMPDEST PUSH1 0x40 MLOAD DUP1 SWAP2 SUB SWAP1 RETURN JUMPDEST PUSH2 0xEE PUSH1 0x4 DUP1 CALLDATASIZE SUB DUP2 ADD SWAP1 PUSH2 0xE9 SWAP2 SWAP1 PUSH2 0x32E7 JUMP JUMPDEST PUSH2 0x260 JUMP JUMPDEST STOP JUMPDEST CALLVALUE DUP1 ISZERO PUSH2 0xFC JUMPI PUSH1 0x0 DUP1 REVERT JUMPDEST POP PUSH2 0x117 PUSH1 0x4 DUP1 CALLDATASIZE SUB DUP2 ADD SWAP1 PUSH2 0x112 SWAP2 SWAP1 PUSH2 0x3381 JUMP JUMPDEST PUSH2 0x455 JUMP JUMPDEST PUSH1 0x40 MLOAD PUSH2 0x124 SWAP2 SWAP1 PUSH2 0x37C8 JUMP JUMPDEST PUSH1 0x40 MLOAD DUP1 SWAP2 SUB SWAP1 RETURN JUMPDEST CALLVALUE DUP1 ISZERO PUSH2 0x139 JUMPI PUSH1 0x0 DUP1 REVERT JUMPDEST POP PUSH2 0x142 PUSH2 0x485 JUMP JUMPDEST STOP JUMPDEST PUSH2 0x15E PUSH1 0x4 DUP1 CALLDATASIZE SUB DUP2 ADD SWAP1 PUSH2 0x159 SWAP2 SWAP1 PUSH2 0x3354 JUMP JUMPDEST PUSH2 0xBFD JUMP JUMPDEST STOP JUMPDEST CALLVALUE DUP1 ISZERO PUSH2 0x16C JUMPI PUSH1 0x0 DUP1 REVERT JUMPDEST POP PUSH2 0x187 PUSH1 0x4 DUP1 CALLDATASIZE SUB DUP2 ADD SWAP1 PUSH2 0x182 SWAP2 SWAP1 PUSH2 0x3381 JUMP JUMPDEST PUSH2 0xFDA JUMP JUMPDEST STOP JUMPDEST CALLVALUE DUP1 ISZERO PUSH2 0x195 JUMPI PUSH1 0x0 DUP1 REVERT JUMPDEST POP PUSH2 0x19E PUSH2 0x19ED JUMP JUMPDEST STOP JUMPDEST CALLVALUE DUP1 ISZERO PUSH2 0x1AC JUMPI PUSH1 0x0 DUP1 REVERT JUMPDEST POP PUSH2 0x1C7 PUSH1 0x4 DUP1 CALLDATASIZE SUB DUP2 ADD SWAP1 PUSH2 0x1C2 SWAP2 SWAP1 PUSH2 0x32E7 JUMP JUMPDEST PUSH2 0x23C2 JUMP JUMPDEST PUSH1 0x40 MLOAD PUSH2 0x1DB SWAP9 SWAP8 SWAP7 SWAP6 SWAP5 SWAP4 SWAP3 SWAP2 SWAP1 PUSH2 0x374A JUMP JUMPDEST PUSH1 0x40 MLOAD DUP1 SWAP2 SUB SWAP1 RETURN JUMPDEST PUSH2 0x1FE PUSH1 0x4 DUP1 CALLDATASIZE SUB DUP2 ADD SWAP1 PUSH2 0x1F9 SWAP2 SWAP1 PUSH2 0x3314 JUMP JUMPDEST PUSH2 0x2457 JUMP JUMPDEST STOP JUMPDEST PUSH2 0x21A PUSH1 0x4 DUP1 CALLDATASIZE SUB DUP2 ADD SWAP1 PUSH2 0x215 SWAP2 SWAP1 PUSH2 0x3314 JUMP JUMPDEST PUSH2 0x2ADA JUMP JUMPDEST STOP JUMPDEST PUSH1 0x1 PUSH1 0x20 MSTORE DUP1 PUSH1 0x0 MSTORE PUSH1 0x40 PUSH1 0x0 KECCAK256 PUSH1 0x0 SWAP2 POP SWAP1 POP DUP1 PUSH1 0x0 ADD SLOAD SWAP1 DUP1 PUSH1 0x1 ADD PUSH1 0x0 SWAP1 SLOAD SWAP1 PUSH2 0x100 EXP SWAP1 DIV PUSH20 0xFFFFFFFFFFFFFFFFFFFFFFFFFFFFFFFFFFFFFFFF AND SWAP1 POP DUP3 JUMP JUMPDEST PUSH1 0x0 PUSH1 0x1 PUSH1 0x0 CALLER PUSH20 0xFFFFFFFFFFFFFFFFFFFFFFFFFFFFFFFFFFFFFFFF AND PUSH20 0xFFFFFFFFFFFFFFFFFFFFFFFFFFFFFFFFFFFFFFFF AND DUP2 MSTORE PUSH1 0x20 ADD SWAP1 DUP2 MSTORE PUSH1 0x20 ADD PUSH1 0x0 KECCAK256 PUSH1 0x0 ADD SLOAD GT PUSH2 0x2E5 JUMPI PUSH1 0x40 MLOAD PUSH32 0x8C379A000000000000000000000000000000000000000000000000000000000 DUP2 MSTORE PUSH1 0x4 ADD PUSH2 0x2DC SWAP1 PUSH2 0x3983 JUMP JUMPDEST PUSH1 0x40 MLOAD DUP1 SWAP2 SUB SWAP1 REVERT JUMPDEST PUSH1 0x1 ISZERO ISZERO PUSH1 0x2 PUSH1 0x0 DUP4 PUSH20 0xFFFFFFFFFFFFFFFFFFFFFFFFFFFFFFFFFFFFFFFF AND PUSH20 0xFFFFFFFFFFFFFFFFFFFFFFFFFFFFFFFFFFFFFFFF AND DUP2 MSTORE PUSH1 0x20 ADD SWAP1 DUP2 MSTORE PUSH1 0x20 ADD PUSH1 0x0 KECCAK256 PUSH1 0x7 ADD PUSH1 0x0 SWAP1 SLOAD SWAP1 PUSH2 0x100 EXP SWAP1 DIV PUSH1 0xFF AND ISZERO ISZERO EQ PUSH2 0x37B JUMPI PUSH1 0x40 MLOAD PUSH32 0x8C379A000000000000000000000000000000000000000000000000000000000 DUP2 MSTORE PUSH1 0x4 ADD PUSH2 0x372 SWAP1 PUSH2 0x3A43 JUMP JUMPDEST PUSH1 0x40 MLOAD DUP1 SWAP2 SUB SWAP1 REVERT JUMPDEST PUSH1 0x0 PUSH1 0x1 PUSH1 0x0 CALLER PUSH20 0xFFFFFFFFFFFFFFFFFFFFFFFFFFFFFFFFFFFFFFFF AND PUSH20 0xFFFFFFFFFFFFFFFFFFFFFFFFFFFFFFFFFFFFFFFF AND DUP2 MSTORE PUSH1 0x20 ADD SWAP1 DUP2 MSTORE PUSH1 0x20 ADD PUSH1 0x0 KECCAK256 PUSH1 0x0 ADD SLOAD SWAP1 POP PUSH1 0x0 PUSH1 0x1 PUSH1 0x0 CALLER PUSH20 0xFFFFFFFFFFFFFFFFFFFFFFFFFFFFFFFFFFFFFFFF AND PUSH20 0xFFFFFFFFFFFFFFFFFFFFFFFFFFFFFFFFFFFFFFFF AND DUP2 MSTORE PUSH1 0x20 ADD SWAP1 DUP2 MSTORE PUSH1 0x20 ADD PUSH1 0x0 KECCAK256 PUSH1 0x0 ADD DUP2 SWAP1 SSTORE POP CALLER PUSH20 0xFFFFFFFFFFFFFFFFFFFFFFFFFFFFFFFFFFFFFFFF AND PUSH2 0x8FC DUP3 SWAP1 DUP2 ISZERO MUL SWAP1 PUSH1 0x40 MLOAD PUSH1 0x0 PUSH1 0x40 MLOAD DUP1 DUP4 SUB DUP2 DUP6 DUP9 DUP9 CALL SWAP4 POP POP POP POP ISZERO DUP1 ISZERO PUSH2 0x450 JUMPI RETURNDATASIZE PUSH1 0x0 DUP1 RETURNDATACOPY RETURNDATASIZE PUSH1 0x0 REVERT JUMPDEST POP POP POP JUMP JUMPDEST PUSH1 0x0 DUP2 PUSH1 0x40 MLOAD PUSH1 0x20 ADD PUSH2 0x468 SWAP2 SWAP1 PUSH2 0x3703 JUMP JUMPDEST PUSH1 0x40 MLOAD PUSH1 0x20 DUP2 DUP4 SUB SUB DUP2 MSTORE SWAP1 PUSH1 0x40 MSTORE DUP1 MLOAD SWAP1 PUSH1 0x20 ADD KECCAK256 SWAP1 POP SWAP2 SWAP1 POP JUMP JUMPDEST PUSH1 0x0 PUSH20 0xFFFFFFFFFFFFFFFFFFFFFFFFFFFFFFFFFFFFFFFF AND PUSH1 0x1 PUSH1 0x0 CALLER PUSH20 0xFFFFFFFFFFFFFFFFFFFFFFFFFFFFFFFFFFFFFFFF AND PUSH20 0xFFFFFFFFFFFFFFFFFFFFFFFFFFFFFFFFFFFFFFFF AND DUP2 MSTORE PUSH1 0x20 ADD SWAP1 DUP2 MSTORE PUSH1 0x20 ADD PUSH1 0x0 KECCAK256 PUSH1 0x1 ADD PUSH1 0x0 SWAP1 SLOAD SWAP1 PUSH2 0x100 EXP SWAP1 DIV PUSH20 0xFFFFFFFFFFFFFFFFFFFFFFFFFFFFFFFFFFFFFFFF AND PUSH20 0xFFFFFFFFFFFFFFFFFFFFFFFFFFFFFFFFFFFFFFFF AND EQ ISZERO PUSH2 0x557 JUMPI PUSH1 0x40 MLOAD PUSH32 0x8C379A000000000000000000000000000000000000000000000000000000000 DUP2 MSTORE PUSH1 0x4 ADD PUSH2 0x54E SWAP1 PUSH2 0x3A83 JUMP JUMPDEST PUSH1 0x40 MLOAD DUP1 SWAP2 SUB SWAP1 REVERT JUMPDEST PUSH1 0x0 PUSH1 0x2 PUSH1 0x0 PUSH1 0x1 PUSH1 0x0 CALLER PUSH20 0xFFFFFFFFFFFFFFFFFFFFFFFFFFFFFFFFFFFFFFFF AND PUSH20 0xFFFFFFFFFFFFFFFFFFFFFFFFFFFFFFFFFFFFFFFF AND DUP2 MSTORE PUSH1 0x20 ADD SWAP1 DUP2 MSTORE PUSH1 0x20 ADD PUSH1 0x0 KECCAK256 PUSH1 0x1 ADD PUSH1 0x0 SWAP1 SLOAD SWAP1 PUSH2 0x100 EXP SWAP1 DIV PUSH20 0xFFFFFFFFFFFFFFFFFFFFFFFFFFFFFFFFFFFFFFFF AND PUSH20 0xFFFFFFFFFFFFFFFFFFFFFFFFFFFFFFFFFFFFFFFF AND PUSH20 0xFFFFFFFFFFFFFFFFFFFFFFFFFFFFFFFFFFFFFFFF AND DUP2 MSTORE PUSH1 0x20 ADD SWAP1 DUP2 MSTORE PUSH1 0x20 ADD PUSH1 0x0 KECCAK256 PUSH1 0x40 MLOAD DUP1 PUSH2 0x100 ADD PUSH1 0x40 MSTORE SWAP1 DUP2 PUSH1 0x0 DUP3 ADD PUSH1 0x0 SWAP1 SLOAD SWAP1 PUSH2 0x100 EXP SWAP1 DIV PUSH20 0xFFFFFFFFFFFFFFFFFFFFFFFFFFFFFFFFFFFFFFFF AND PUSH20 0xFFFFFFFFFFFFFFFFFFFFFFFFFFFFFFFFFFFFFFFF AND PUSH20 0xFFFFFFFFFFFFFFFFFFFFFFFFFFFFFFFFFFFFFFFF AND DUP2 MSTORE PUSH1 0x20 ADD PUSH1 0x1 DUP3 ADD SLOAD DUP2 MSTORE PUSH1 0x20 ADD PUSH1 0x2 DUP3 ADD SLOAD DUP2 MSTORE PUSH1 0x20 ADD PUSH1 0x3 DUP3 ADD PUSH1 0x0 SWAP1 SLOAD SWAP1 PUSH2 0x100 EXP SWAP1 DIV PUSH20 0xFFFFFFFFFFFFFFFFFFFFFFFFFFFFFFFFFFFFFFFF AND PUSH20 0xFFFFFFFFFFFFFFFFFFFFFFFFFFFFFFFFFFFFFFFF AND PUSH20 0xFFFFFFFFFFFFFFFFFFFFFFFFFFFFFFFFFFFFFFFF AND DUP2 MSTORE PUSH1 0x20 ADD PUSH1 0x4 DUP3 ADD SLOAD DUP2 MSTORE PUSH1 0x20 ADD PUSH1 0x5 DUP3 ADD SLOAD DUP2 MSTORE PUSH1 0x20 ADD PUSH1 0x6 DUP3 ADD SLOAD DUP2 MSTORE PUSH1 0x20 ADD PUSH1 0x7 DUP3 ADD PUSH1 0x0 SWAP1 SLOAD SWAP1 PUSH2 0x100 EXP SWAP1 DIV PUSH1 0xFF AND ISZERO ISZERO ISZERO ISZERO DUP2 MSTORE POP POP SWAP1 POP PUSH1 0x0 DUP1 SHL DUP2 PUSH1 0x80 ADD MLOAD EQ ISZERO PUSH2 0x7D3 JUMPI PUSH1 0x3 DUP2 PUSH1 0xC0 ADD MLOAD NUMBER PUSH2 0x722 SWAP2 SWAP1 PUSH2 0x3B8D JUMP JUMPDEST LT ISZERO PUSH2 0x763 JUMPI PUSH1 0x40 MLOAD PUSH32 0x8C379A000000000000000000000000000000000000000000000000000000000 DUP2 MSTORE PUSH1 0x4 ADD PUSH2 0x75A SWAP1 PUSH2 0x3A23 JUMP JUMPDEST PUSH1 0x40 MLOAD DUP1 SWAP2 SUB SWAP1 REVERT JUMPDEST PUSH2 0x7CE PUSH1 0x1 PUSH1 0x0 CALLER PUSH20 0xFFFFFFFFFFFFFFFFFFFFFFFFFFFFFFFFFFFFFFFF AND PUSH20 0xFFFFFFFFFFFFFFFFFFFFFFFFFFFFFFFFFFFFFFFF AND DUP2 MSTORE PUSH1 0x20 ADD SWAP1 DUP2 MSTORE PUSH1 0x20 ADD PUSH1 0x0 KECCAK256 PUSH1 0x1 ADD PUSH1 0x0 SWAP1 SLOAD SWAP1 PUSH2 0x100 EXP SWAP1 DIV PUSH20 0xFFFFFFFFFFFFFFFFFFFFFFFFFFFFFFFFFFFFFFFF AND PUSH2 0x2F27 JUMP JUMPDEST PUSH2 0x9E7 JUMP JUMPDEST PUSH1 0x0 DUP2 PUSH1 0xA0 ADD MLOAD EQ ISZERO PUSH2 0x9E6 JUMPI PUSH1 0x14 DUP2 PUSH1 0xC0 ADD MLOAD NUMBER PUSH2 0x7F2 SWAP2 SWAP1 PUSH2 0x3B8D JUMP JUMPDEST LT ISZERO PUSH2 0x833 JUMPI PUSH1 0x40 MLOAD PUSH32 0x8C379A000000000000000000000000000000000000000000000000000000000 DUP2 MSTORE PUSH1 0x4 ADD PUSH2 0x82A SWAP1 PUSH2 0x3943 JUMP JUMPDEST PUSH1 0x40 MLOAD DUP1 SWAP2 SUB SWAP1 REVERT JUMPDEST PUSH1 0x0 DUP2 PUSH1 0x40 ADD MLOAD EQ PUSH2 0x979 JUMPI PUSH8 0xDE0B6B3A7640000 PUSH1 0x1 PUSH1 0x0 DUP4 PUSH1 0x60 ADD MLOAD PUSH20 0xFFFFFFFFFFFFFFFFFFFFFFFFFFFFFFFFFFFFFFFF AND PUSH20 0xFFFFFFFFFFFFFFFFFFFFFFFFFFFFFFFFFFFFFFFF AND DUP2 MSTORE PUSH1 0x20 ADD SWAP1 DUP2 MSTORE PUSH1 0x20 ADD PUSH1 0x0 KECCAK256 PUSH1 0x0 ADD PUSH1 0x0 DUP3 DUP3 SLOAD PUSH2 0x89D SWAP2 SWAP1 PUSH2 0x3B8D JUMP JUMPDEST SWAP3 POP POP DUP2 SWAP1 SSTORE POP PUSH8 0xDE0B6B3A7640000 PUSH1 0x1 PUSH1 0x0 DUP4 PUSH1 0x0 ADD MLOAD PUSH20 0xFFFFFFFFFFFFFFFFFFFFFFFFFFFFFFFFFFFFFFFF AND PUSH20 0xFFFFFFFFFFFFFFFFFFFFFFFFFFFFFFFFFFFFFFFF AND DUP2 MSTORE PUSH1 0x20 ADD SWAP1 DUP2 MSTORE PUSH1 0x20 ADD PUSH1 0x0 KECCAK256 PUSH1 0x0 ADD PUSH1 0x0 DUP3 DUP3 SLOAD PUSH2 0x902 SWAP2 SWAP1 PUSH2 0x3ADD JUMP JUMPDEST SWAP3 POP POP DUP2 SWAP1 SSTORE POP PUSH2 0x974 PUSH1 0x1 PUSH1 0x0 CALLER PUSH20 0xFFFFFFFFFFFFFFFFFFFFFFFFFFFFFFFFFFFFFFFF AND PUSH20 0xFFFFFFFFFFFFFFFFFFFFFFFFFFFFFFFFFFFFFFFF AND DUP2 MSTORE PUSH1 0x20 ADD SWAP1 DUP2 MSTORE PUSH1 0x20 ADD PUSH1 0x0 KECCAK256 PUSH1 0x1 ADD PUSH1 0x0 SWAP1 SLOAD SWAP1 PUSH2 0x100 EXP SWAP1 DIV PUSH20 0xFFFFFFFFFFFFFFFFFFFFFFFFFFFFFFFFFFFFFFFF AND PUSH2 0x2F27 JUMP JUMPDEST PUSH2 0x9E5 JUMP JUMPDEST PUSH2 0x9E4 PUSH1 0x1 PUSH1 0x0 CALLER PUSH20 0xFFFFFFFFFFFFFFFFFFFFFFFFFFFFFFFFFFFFFFFF AND PUSH20 0xFFFFFFFFFFFFFFFFFFFFFFFFFFFFFFFFFFFFFFFF AND DUP2 MSTORE PUSH1 0x20 ADD SWAP1 DUP2 MSTORE PUSH1 0x20 ADD PUSH1 0x0 KECCAK256 PUSH1 0x1 ADD PUSH1 0x0 SWAP1 SLOAD SWAP1 PUSH2 0x100 EXP SWAP1 DIV PUSH20 0xFFFFFFFFFFFFFFFFFFFFFFFFFFFFFFFFFFFFFFFF AND PUSH2 0x2F27 JUMP JUMPDEST JUMPDEST JUMPDEST JUMPDEST PUSH1 0x0 DUP2 PUSH1 0x40 ADD MLOAD EQ ISZERO PUSH2 0xA48 JUMPI PUSH1 0x14 DUP2 PUSH1 0xC0 ADD MLOAD NUMBER PUSH2 0xA06 SWAP2 SWAP1 PUSH2 0x3B8D JUMP JUMPDEST LT ISZERO PUSH2 0xA47 JUMPI PUSH1 0x40 MLOAD PUSH32 0x8C379A000000000000000000000000000000000000000000000000000000000 DUP2 MSTORE PUSH1 0x4 ADD PUSH2 0xA3E SWAP1 PUSH2 0x3A63 JUMP JUMPDEST PUSH1 0x40 MLOAD DUP1 SWAP2 SUB SWAP1 REVERT JUMPDEST JUMPDEST PUSH1 0x0 DUP2 PUSH1 0xA0 ADD MLOAD EQ PUSH2 0xB8E JUMPI PUSH8 0xDE0B6B3A7640000 PUSH1 0x1 PUSH1 0x0 DUP4 PUSH1 0x0 ADD MLOAD PUSH20 0xFFFFFFFFFFFFFFFFFFFFFFFFFFFFFFFFFFFFFFFF AND PUSH20 0xFFFFFFFFFFFFFFFFFFFFFFFFFFFFFFFFFFFFFFFF AND DUP2 MSTORE PUSH1 0x20 ADD SWAP1 DUP2 MSTORE PUSH1 0x20 ADD PUSH1 0x0 KECCAK256 PUSH1 0x0 ADD PUSH1 0x0 DUP3 DUP3 SLOAD PUSH2 0xAB2 SWAP2 SWAP1 PUSH2 0x3B8D JUMP JUMPDEST SWAP3 POP POP DUP2 SWAP1 SSTORE POP PUSH8 0xDE0B6B3A7640000 PUSH1 0x1 PUSH1 0x0 DUP4 PUSH1 0x60 ADD MLOAD PUSH20 0xFFFFFFFFFFFFFFFFFFFFFFFFFFFFFFFFFFFFFFFF AND PUSH20 0xFFFFFFFFFFFFFFFFFFFFFFFFFFFFFFFFFFFFFFFF AND DUP2 MSTORE PUSH1 0x20 ADD SWAP1 DUP2 MSTORE PUSH1 0x20 ADD PUSH1 0x0 KECCAK256 PUSH1 0x0 ADD PUSH1 0x0 DUP3 DUP3 SLOAD PUSH2 0xB17 SWAP2 SWAP1 PUSH2 0x3ADD JUMP JUMPDEST SWAP3 POP POP DUP2 SWAP1 SSTORE POP PUSH2 0xB89 PUSH1 0x1 PUSH1 0x0 CALLER PUSH20 0xFFFFFFFFFFFFFFFFFFFFFFFFFFFFFFFFFFFFFFFF AND PUSH20 0xFFFFFFFFFFFFFFFFFFFFFFFFFFFFFFFFFFFFFFFF AND DUP2 MSTORE PUSH1 0x20 ADD SWAP1 DUP2 MSTORE PUSH1 0x20 ADD PUSH1 0x0 KECCAK256 PUSH1 0x1 ADD PUSH1 0x0 SWAP1 SLOAD SWAP1 PUSH2 0x100 EXP SWAP1 DIV PUSH20 0xFFFFFFFFFFFFFFFFFFFFFFFFFFFFFFFFFFFFFFFF AND PUSH2 0x2F27 JUMP JUMPDEST PUSH2 0xBFA JUMP JUMPDEST PUSH2 0xBF9 PUSH1 0x1 PUSH1 0x0 CALLER PUSH20 0xFFFFFFFFFFFFFFFFFFFFFFFFFFFFFFFFFFFFFFFF AND PUSH20 0xFFFFFFFFFFFFFFFFFFFFFFFFFFFFFFFFFFFFFFFF AND DUP2 MSTORE PUSH1 0x20 ADD SWAP1 DUP2 MSTORE PUSH1 0x20 ADD PUSH1 0x0 KECCAK256 PUSH1 0x1 ADD PUSH1 0x0 SWAP1 SLOAD SWAP1 PUSH2 0x100 EXP SWAP1 DIV PUSH20 0xFFFFFFFFFFFFFFFFFFFFFFFFFFFFFFFFFFFFFFFF AND PUSH2 0x2F27 JUMP JUMPDEST JUMPDEST POP JUMP JUMPDEST PUSH1 0x0 PUSH20 0xFFFFFFFFFFFFFFFFFFFFFFFFFFFFFFFFFFFFFFFF AND PUSH1 0x1 PUSH1 0x0 CALLER PUSH20 0xFFFFFFFFFFFFFFFFFFFFFFFFFFFFFFFFFFFFFFFF AND PUSH20 0xFFFFFFFFFFFFFFFFFFFFFFFFFFFFFFFFFFFFFFFF AND DUP2 MSTORE PUSH1 0x20 ADD SWAP1 DUP2 MSTORE PUSH1 0x20 ADD PUSH1 0x0 KECCAK256 PUSH1 0x1 ADD PUSH1 0x0 SWAP1 SLOAD SWAP1 PUSH2 0x100 EXP SWAP1 DIV PUSH20 0xFFFFFFFFFFFFFFFFFFFFFFFFFFFFFFFFFFFFFFFF AND PUSH20 0xFFFFFFFFFFFFFFFFFFFFFFFFFFFFFFFFFFFFFFFF AND EQ PUSH2 0xCCE JUMPI PUSH1 0x40 MLOAD PUSH32 0x8C379A000000000000000000000000000000000000000000000000000000000 DUP2 MSTORE PUSH1 0x4 ADD PUSH2 0xCC5 SWAP1 PUSH2 0x38A3 JUMP JUMPDEST PUSH1 0x40 MLOAD DUP1 SWAP2 SUB SWAP1 REVERT JUMPDEST PUSH8 0x29A2241AF62C0000 CALLVALUE PUSH1 0x1 PUSH1 0x0 CALLER PUSH20 0xFFFFFFFFFFFFFFFFFFFFFFFFFFFFFFFFFFFFFFFF AND PUSH20 0xFFFFFFFFFFFFFFFFFFFFFFFFFFFFFFFFFFFFFFFF AND DUP2 MSTORE PUSH1 0x20 ADD SWAP1 DUP2 MSTORE PUSH1 0x20 ADD PUSH1 0x0 KECCAK256 PUSH1 0x0 ADD SLOAD PUSH2 0xD25 SWAP2 SWAP1 PUSH2 0x3ADD JUMP JUMPDEST LT ISZERO PUSH2 0xD66 JUMPI PUSH1 0x40 MLOAD PUSH32 0x8C379A000000000000000000000000000000000000000000000000000000000 DUP2 MSTORE PUSH1 0x4 ADD PUSH2 0xD5D SWAP1 PUSH2 0x3883 JUMP JUMPDEST PUSH1 0x40 MLOAD DUP1 SWAP2 SUB SWAP1 REVERT JUMPDEST PUSH1 0x0 PUSH1 0x40 MLOAD DUP1 PUSH2 0x100 ADD PUSH1 0x40 MSTORE DUP1 CALLER PUSH20 0xFFFFFFFFFFFFFFFFFFFFFFFFFFFFFFFFFFFFFFFF AND DUP2 MSTORE PUSH1 0x20 ADD DUP4 DUP2 MSTORE PUSH1 0x20 ADD PUSH1 0x0 DUP2 MSTORE PUSH1 0x20 ADD PUSH1 0x0 PUSH20 0xFFFFFFFFFFFFFFFFFFFFFFFFFFFFFFFFFFFFFFFF AND DUP2 MSTORE PUSH1 0x20 ADD PUSH1 0x0 DUP1 SHL DUP2 MSTORE PUSH1 0x20 ADD PUSH1 0x0 DUP2 MSTORE PUSH1 0x20 ADD NUMBER DUP2 MSTORE PUSH1 0x20 ADD PUSH1 0x0 ISZERO ISZERO DUP2 MSTORE POP SWAP1 POP DUP1 PUSH1 0x2 PUSH1 0x0 CALLER PUSH20 0xFFFFFFFFFFFFFFFFFFFFFFFFFFFFFFFFFFFFFFFF AND PUSH20 0xFFFFFFFFFFFFFFFFFFFFFFFFFFFFFFFFFFFFFFFF AND DUP2 MSTORE PUSH1 0x20 ADD SWAP1 DUP2 MSTORE PUSH1 0x20 ADD PUSH1 0x0 KECCAK256 PUSH1 0x0 DUP3 ADD MLOAD DUP2 PUSH1 0x0 ADD PUSH1 0x0 PUSH2 0x100 EXP DUP2 SLOAD DUP2 PUSH20 0xFFFFFFFFFFFFFFFFFFFFFFFFFFFFFFFFFFFFFFFF MUL NOT AND SWAP1 DUP4 PUSH20 0xFFFFFFFFFFFFFFFFFFFFFFFFFFFFFFFFFFFFFFFF AND MUL OR SWAP1 SSTORE POP PUSH1 0x20 DUP3 ADD MLOAD DUP2 PUSH1 0x1 ADD SSTORE PUSH1 0x40 DUP3 ADD MLOAD DUP2 PUSH1 0x2 ADD SSTORE PUSH1 0x60 DUP3 ADD MLOAD DUP2 PUSH1 0x3 ADD PUSH1 0x0 PUSH2 0x100 EXP DUP2 SLOAD DUP2 PUSH20 0xFFFFFFFFFFFFFFFFFFFFFFFFFFFFFFFFFFFFFFFF MUL NOT AND SWAP1 DUP4 PUSH20 0xFFFFFFFFFFFFFFFFFFFFFFFFFFFFFFFFFFFFFFFF AND MUL OR SWAP1 SSTORE POP PUSH1 0x80 DUP3 ADD MLOAD DUP2 PUSH1 0x4 ADD SSTORE PUSH1 0xA0 DUP3 ADD MLOAD DUP2 PUSH1 0x5 ADD SSTORE PUSH1 0xC0 DUP3 ADD MLOAD DUP2 PUSH1 0x6 ADD SSTORE PUSH1 0xE0 DUP3 ADD MLOAD DUP2 PUSH1 0x7 ADD PUSH1 0x0 PUSH2 0x100 EXP DUP2 SLOAD DUP2 PUSH1 0xFF MUL NOT AND SWAP1 DUP4 ISZERO ISZERO MUL OR SWAP1 SSTORE POP SWAP1 POP POP CALLVALUE PUSH1 0x1 PUSH1 0x0 CALLER PUSH20 0xFFFFFFFFFFFFFFFFFFFFFFFFFFFFFFFFFFFFFFFF AND PUSH20 0xFFFFFFFFFFFFFFFFFFFFFFFFFFFFFFFFFFFFFFFF AND DUP2 MSTORE PUSH1 0x20 ADD SWAP1 DUP2 MSTORE PUSH1 0x20 ADD PUSH1 0x0 KECCAK256 PUSH1 0x0 ADD PUSH1 0x0 DUP3 DUP3 SLOAD PUSH2 0xF4E SWAP2 SWAP1 PUSH2 0x3ADD JUMP JUMPDEST SWAP3 POP POP DUP2 SWAP1 SSTORE POP CALLER PUSH1 0x1 PUSH1 0x0 CALLER PUSH20 0xFFFFFFFFFFFFFFFFFFFFFFFFFFFFFFFFFFFFFFFF AND PUSH20 0xFFFFFFFFFFFFFFFFFFFFFFFFFFFFFFFFFFFFFFFF AND DUP2 MSTORE PUSH1 0x20 ADD SWAP1 DUP2 MSTORE PUSH1 0x20 ADD PUSH1 0x0 KECCAK256 PUSH1 0x1 ADD PUSH1 0x0 PUSH2 0x100 EXP DUP2 SLOAD DUP2 PUSH20 0xFFFFFFFFFFFFFFFFFFFFFFFFFFFFFFFFFFFFFFFF MUL NOT AND SWAP1 DUP4 PUSH20 0xFFFFFFFFFFFFFFFFFFFFFFFFFFFFFFFFFFFFFFFF AND MUL OR SWAP1 SSTORE POP POP POP JUMP JUMPDEST PUSH1 0x0 PUSH20 0xFFFFFFFFFFFFFFFFFFFFFFFFFFFFFFFFFFFFFFFF AND PUSH1 0x2 PUSH1 0x0 PUSH1 0x1 PUSH1 0x0 CALLER PUSH20 0xFFFFFFFFFFFFFFFFFFFFFFFFFFFFFFFFFFFFFFFF AND PUSH20 0xFFFFFFFFFFFFFFFFFFFFFFFFFFFFFFFFFFFFFFFF AND DUP2 MSTORE PUSH1 0x20 ADD SWAP1 DUP2 MSTORE PUSH1 0x20 ADD PUSH1 0x0 KECCAK256 PUSH1 0x1 ADD PUSH1 0x0 SWAP1 SLOAD SWAP1 PUSH2 0x100 EXP SWAP1 DIV PUSH20 0xFFFFFFFFFFFFFFFFFFFFFFFFFFFFFFFFFFFFFFFF AND PUSH20 0xFFFFFFFFFFFFFFFFFFFFFFFFFFFFFFFFFFFFFFFF AND PUSH20 0xFFFFFFFFFFFFFFFFFFFFFFFFFFFFFFFFFFFFFFFF AND DUP2 MSTORE PUSH1 0x20 ADD SWAP1 DUP2 MSTORE PUSH1 0x20 ADD PUSH1 0x0 KECCAK256 PUSH1 0x3 ADD PUSH1 0x0 SWAP1 SLOAD SWAP1 PUSH2 0x100 EXP SWAP1 DIV PUSH20 0xFFFFFFFFFFFFFFFFFFFFFFFFFFFFFFFFFFFFFFFF AND PUSH20 0xFFFFFFFFFFFFFFFFFFFFFFFFFFFFFFFFFFFFFFFF AND EQ ISZERO PUSH2 0x110E JUMPI PUSH1 0x40 MLOAD PUSH32 0x8C379A000000000000000000000000000000000000000000000000000000000 DUP2 MSTORE PUSH1 0x4 ADD PUSH2 0x1105 SWAP1 PUSH2 0x3963 JUMP JUMPDEST PUSH1 0x40 MLOAD DUP1 SWAP2 SUB SWAP1 REVERT JUMPDEST PUSH1 0x0 PUSH20 0xFFFFFFFFFFFFFFFFFFFFFFFFFFFFFFFFFFFFFFFF AND PUSH1 0x2 PUSH1 0x0 PUSH1 0x1 PUSH1 0x0 CALLER PUSH20 0xFFFFFFFFFFFFFFFFFFFFFFFFFFFFFFFFFFFFFFFF AND PUSH20 0xFFFFFFFFFFFFFFFFFFFFFFFFFFFFFFFFFFFFFFFF AND DUP2 MSTORE PUSH1 0x20 ADD SWAP1 DUP2 MSTORE PUSH1 0x20 ADD PUSH1 0x0 KECCAK256 PUSH1 0x1 ADD PUSH1 0x0 SWAP1 SLOAD SWAP1 PUSH2 0x100 EXP SWAP1 DIV PUSH20 0xFFFFFFFFFFFFFFFFFFFFFFFFFFFFFFFFFFFFFFFF AND PUSH20 0xFFFFFFFFFFFFFFFFFFFFFFFFFFFFFFFFFFFFFFFF AND PUSH20 0xFFFFFFFFFFFFFFFFFFFFFFFFFFFFFFFFFFFFFFFF AND DUP2 MSTORE PUSH1 0x20 ADD SWAP1 DUP2 MSTORE PUSH1 0x20 ADD PUSH1 0x0 KECCAK256 PUSH1 0x0 ADD PUSH1 0x0 SWAP1 SLOAD SWAP1 PUSH2 0x100 EXP SWAP1 DIV PUSH20 0xFFFFFFFFFFFFFFFFFFFFFFFFFFFFFFFFFFFFFFFF AND PUSH20 0xFFFFFFFFFFFFFFFFFFFFFFFFFFFFFFFFFFFFFFFF AND EQ ISZERO PUSH2 0x1242 JUMPI PUSH1 0x40 MLOAD PUSH32 0x8C379A000000000000000000000000000000000000000000000000000000000 DUP2 MSTORE PUSH1 0x4 ADD PUSH2 0x1239 SWAP1 PUSH2 0x38C3 JUMP JUMPDEST PUSH1 0x40 MLOAD DUP1 SWAP2 SUB SWAP1 REVERT JUMPDEST CALLER PUSH20 0xFFFFFFFFFFFFFFFFFFFFFFFFFFFFFFFFFFFFFFFF AND PUSH1 0x2 PUSH1 0x0 PUSH1 0x1 PUSH1 0x0 CALLER PUSH20 0xFFFFFFFFFFFFFFFFFFFFFFFFFFFFFFFFFFFFFFFF AND PUSH20 0xFFFFFFFFFFFFFFFFFFFFFFFFFFFFFFFFFFFFFFFF AND DUP2 MSTORE PUSH1 0x20 ADD SWAP1 DUP2 MSTORE PUSH1 0x20 ADD PUSH1 0x0 KECCAK256 PUSH1 0x1 ADD PUSH1 0x0 SWAP1 SLOAD SWAP1 PUSH2 0x100 EXP SWAP1 DIV PUSH20 0xFFFFFFFFFFFFFFFFFFFFFFFFFFFFFFFFFFFFFFFF AND PUSH20 0xFFFFFFFFFFFFFFFFFFFFFFFFFFFFFFFFFFFFFFFF AND PUSH20 0xFFFFFFFFFFFFFFFFFFFFFFFFFFFFFFFFFFFFFFFF AND DUP2 MSTORE PUSH1 0x20 ADD SWAP1 DUP2 MSTORE PUSH1 0x20 ADD PUSH1 0x0 KECCAK256 PUSH1 0x0 ADD PUSH1 0x0 SWAP1 SLOAD SWAP1 PUSH2 0x100 EXP SWAP1 DIV PUSH20 0xFFFFFFFFFFFFFFFFFFFFFFFFFFFFFFFFFFFFFFFF AND PUSH20 0xFFFFFFFFFFFFFFFFFFFFFFFFFFFFFFFFFFFFFFFF AND EQ ISZERO PUSH2 0x15C3 JUMPI PUSH1 0x0 PUSH1 0x2 PUSH1 0x0 PUSH1 0x1 PUSH1 0x0 CALLER PUSH20 0xFFFFFFFFFFFFFFFFFFFFFFFFFFFFFFFFFFFFFFFF AND PUSH20 0xFFFFFFFFFFFFFFFFFFFFFFFFFFFFFFFFFFFFFFFF AND DUP2 MSTORE PUSH1 0x20 ADD SWAP1 DUP2 MSTORE PUSH1 0x20 ADD PUSH1 0x0 KECCAK256 PUSH1 0x1 ADD PUSH1 0x0 SWAP1 SLOAD SWAP1 PUSH2 0x100 EXP SWAP1 DIV PUSH20 0xFFFFFFFFFFFFFFFFFFFFFFFFFFFFFFFFFFFFFFFF AND PUSH20 0xFFFFFFFFFFFFFFFFFFFFFFFFFFFFFFFFFFFFFFFF AND PUSH20 0xFFFFFFFFFFFFFFFFFFFFFFFFFFFFFFFFFFFFFFFF AND DUP2 MSTORE PUSH1 0x20 ADD SWAP1 DUP2 MSTORE PUSH1 0x20 ADD PUSH1 0x0 KECCAK256 PUSH1 0x2 ADD SLOAD EQ PUSH2 0x1421 JUMPI PUSH1 0x40 MLOAD PUSH32 0x8C379A000000000000000000000000000000000000000000000000000000000 DUP2 MSTORE PUSH1 0x4 ADD PUSH2 0x1418 SWAP1 PUSH2 0x3A03 JUMP JUMPDEST PUSH1 0x40 MLOAD DUP1 SWAP2 SUB SWAP1 REVERT JUMPDEST PUSH2 0x142A DUP2 PUSH2 0x455 JUMP JUMPDEST PUSH1 0x2 PUSH1 0x0 PUSH1 0x1 PUSH1 0x0 CALLER PUSH20 0xFFFFFFFFFFFFFFFFFFFFFFFFFFFFFFFFFFFFFFFF AND PUSH20 0xFFFFFFFFFFFFFFFFFFFFFFFFFFFFFFFFFFFFFFFF AND DUP2 MSTORE PUSH1 0x20 ADD SWAP1 DUP2 MSTORE PUSH1 0x20 ADD PUSH1 0x0 KECCAK256 PUSH1 0x1 ADD PUSH1 0x0 SWAP1 SLOAD SWAP1 PUSH2 0x100 EXP SWAP1 DIV PUSH20 0xFFFFFFFFFFFFFFFFFFFFFFFFFFFFFFFFFFFFFFFF AND PUSH20 0xFFFFFFFFFFFFFFFFFFFFFFFFFFFFFFFFFFFFFFFF AND PUSH20 0xFFFFFFFFFFFFFFFFFFFFFFFFFFFFFFFFFFFFFFFF AND DUP2 MSTORE PUSH1 0x20 ADD SWAP1 DUP2 MSTORE PUSH1 0x20 ADD PUSH1 0x0 KECCAK256 PUSH1 0x1 ADD SLOAD EQ ISZERO PUSH2 0x1583 JUMPI DUP1 PUSH1 0x2 PUSH1 0x0 PUSH1 0x1 PUSH1 0x0 CALLER PUSH20 0xFFFFFFFFFFFFFFFFFFFFFFFFFFFFFFFFFFFFFFFF AND PUSH20 0xFFFFFFFFFFFFFFFFFFFFFFFFFFFFFFFFFFFFFFFF AND DUP2 MSTORE PUSH1 0x20 ADD SWAP1 DUP2 MSTORE PUSH1 0x20 ADD PUSH1 0x0 KECCAK256 PUSH1 0x1 ADD PUSH1 0x0 SWAP1 SLOAD SWAP1 PUSH2 0x100 EXP SWAP1 DIV PUSH20 0xFFFFFFFFFFFFFFFFFFFFFFFFFFFFFFFFFFFFFFFF AND PUSH20 0xFFFFFFFFFFFFFFFFFFFFFFFFFFFFFFFFFFFFFFFF AND PUSH20 0xFFFFFFFFFFFFFFFFFFFFFFFFFFFFFFFFFFFFFFFF AND DUP2 MSTORE PUSH1 0x20 ADD SWAP1 DUP2 MSTORE PUSH1 0x20 ADD PUSH1 0x0 KECCAK256 PUSH1 0x2 ADD DUP2 SWAP1 SSTORE POP PUSH2 0x15BE JUMP JUMPDEST PUSH1 0x40 MLOAD PUSH32 0x8C379A000000000000000000000000000000000000000000000000000000000 DUP2 MSTORE PUSH1 0x4 ADD PUSH2 0x15B5 SWAP1 PUSH2 0x37E3 JUMP JUMPDEST PUSH1 0x40 MLOAD DUP1 SWAP2 SUB SWAP1 REVERT JUMPDEST PUSH2 0x1941 JUMP JUMPDEST CALLER PUSH20 0xFFFFFFFFFFFFFFFFFFFFFFFFFFFFFFFFFFFFFFFF AND PUSH1 0x2 PUSH1 0x0 PUSH1 0x1 PUSH1 0x0 CALLER PUSH20 0xFFFFFFFFFFFFFFFFFFFFFFFFFFFFFFFFFFFFFFFF AND PUSH20 0xFFFFFFFFFFFFFFFFFFFFFFFFFFFFFFFFFFFFFFFF AND DUP2 MSTORE PUSH1 0x20 ADD SWAP1 DUP2 MSTORE PUSH1 0x20 ADD PUSH1 0x0 KECCAK256 PUSH1 0x1 ADD PUSH1 0x0 SWAP1 SLOAD SWAP1 PUSH2 0x100 EXP SWAP1 DIV PUSH20 0xFFFFFFFFFFFFFFFFFFFFFFFFFFFFFFFFFFFFFFFF AND PUSH20 0xFFFFFFFFFFFFFFFFFFFFFFFFFFFFFFFFFFFFFFFF AND PUSH20 0xFFFFFFFFFFFFFFFFFFFFFFFFFFFFFFFFFFFFFFFF AND DUP2 MSTORE PUSH1 0x20 ADD SWAP1 DUP2 MSTORE PUSH1 0x20 ADD PUSH1 0x0 KECCAK256 PUSH1 0x3 ADD PUSH1 0x0 SWAP1 SLOAD SWAP1 PUSH2 0x100 EXP SWAP1 DIV PUSH20 0xFFFFFFFFFFFFFFFFFFFFFFFFFFFFFFFFFFFFFFFF AND PUSH20 0xFFFFFFFFFFFFFFFFFFFFFFFFFFFFFFFFFFFFFFFF AND EQ ISZERO PUSH2 0x1940 JUMPI PUSH1 0x0 PUSH1 0x2 PUSH1 0x0 PUSH1 0x1 PUSH1 0x0 CALLER PUSH20 0xFFFFFFFFFFFFFFFFFFFFFFFFFFFFFFFFFFFFFFFF AND PUSH20 0xFFFFFFFFFFFFFFFFFFFFFFFFFFFFFFFFFFFFFFFF AND DUP2 MSTORE PUSH1 0x20 ADD SWAP1 DUP2 MSTORE PUSH1 0x20 ADD PUSH1 0x0 KECCAK256 PUSH1 0x1 ADD PUSH1 0x0 SWAP1 SLOAD SWAP1 PUSH2 0x100 EXP SWAP1 DIV PUSH20 0xFFFFFFFFFFFFFFFFFFFFFFFFFFFFFFFFFFFFFFFF AND PUSH20 0xFFFFFFFFFFFFFFFFFFFFFFFFFFFFFFFFFFFFFFFF AND PUSH20 0xFFFFFFFFFFFFFFFFFFFFFFFFFFFFFFFFFFFFFFFF AND DUP2 MSTORE PUSH1 0x20 ADD SWAP1 DUP2 MSTORE PUSH1 0x20 ADD PUSH1 0x0 KECCAK256 PUSH1 0x5 ADD SLOAD EQ PUSH2 0x17A2 JUMPI PUSH1 0x40 MLOAD PUSH32 0x8C379A000000000000000000000000000000000000000000000000000000000 DUP2 MSTORE PUSH1 0x4 ADD PUSH2 0x1799 SWAP1 PUSH2 0x39A3 JUMP JUMPDEST PUSH1 0x40 MLOAD DUP1 SWAP2 SUB SWAP1 REVERT JUMPDEST PUSH2 0x17AB DUP2 PUSH2 0x455 JUMP JUMPDEST PUSH1 0x2 PUSH1 0x0 PUSH1 0x1 PUSH1 0x0 CALLER PUSH20 0xFFFFFFFFFFFFFFFFFFFFFFFFFFFFFFFFFFFFFFFF AND PUSH20 0xFFFFFFFFFFFFFFFFFFFFFFFFFFFFFFFFFFFFFFFF AND DUP2 MSTORE PUSH1 0x20 ADD SWAP1 DUP2 MSTORE PUSH1 0x20 ADD PUSH1 0x0 KECCAK256 PUSH1 0x1 ADD PUSH1 0x0 SWAP1 SLOAD SWAP1 PUSH2 0x100 EXP SWAP1 DIV PUSH20 0xFFFFFFFFFFFFFFFFFFFFFFFFFFFFFFFFFFFFFFFF AND PUSH20 0xFFFFFFFFFFFFFFFFFFFFFFFFFFFFFFFFFFFFFFFF AND PUSH20 0xFFFFFFFFFFFFFFFFFFFFFFFFFFFFFFFFFFFFFFFF AND DUP2 MSTORE PUSH1 0x20 ADD SWAP1 DUP2 MSTORE PUSH1 0x20 ADD PUSH1 0x0 KECCAK256 PUSH1 0x4 ADD SLOAD EQ ISZERO PUSH2 0x1904 JUMPI DUP1 PUSH1 0x2 PUSH1 0x0 PUSH1 0x1 PUSH1 0x0 CALLER PUSH20 0xFFFFFFFFFFFFFFFFFFFFFFFFFFFFFFFFFFFFFFFF AND PUSH20 0xFFFFFFFFFFFFFFFFFFFFFFFFFFFFFFFFFFFFFFFF AND DUP2 MSTORE PUSH1 0x20 ADD SWAP1 DUP2 MSTORE PUSH1 0x20 ADD PUSH1 0x0 KECCAK256 PUSH1 0x1 ADD PUSH1 0x0 SWAP1 SLOAD SWAP1 PUSH2 0x100 EXP SWAP1 DIV PUSH20 0xFFFFFFFFFFFFFFFFFFFFFFFFFFFFFFFFFFFFFFFF AND PUSH20 0xFFFFFFFFFFFFFFFFFFFFFFFFFFFFFFFFFFFFFFFF AND PUSH20 0xFFFFFFFFFFFFFFFFFFFFFFFFFFFFFFFFFFFFFFFF AND DUP2 MSTORE PUSH1 0x20 ADD SWAP1 DUP2 MSTORE PUSH1 0x20 ADD PUSH1 0x0 KECCAK256 PUSH1 0x5 ADD DUP2 SWAP1 SSTORE POP PUSH2 0x193F JUMP JUMPDEST PUSH1 0x40 MLOAD PUSH32 0x8C379A000000000000000000000000000000000000000000000000000000000 DUP2 MSTORE PUSH1 0x4 ADD PUSH2 0x1936 SWAP1 PUSH2 0x39C3 JUMP JUMPDEST PUSH1 0x40 MLOAD DUP1 SWAP2 SUB SWAP1 REVERT JUMPDEST JUMPDEST JUMPDEST NUMBER PUSH1 0x2 PUSH1 0x0 PUSH1 0x1 PUSH1 0x0 CALLER PUSH20 0xFFFFFFFFFFFFFFFFFFFFFFFFFFFFFFFFFFFFFFFF AND PUSH20 0xFFFFFFFFFFFFFFFFFFFFFFFFFFFFFFFFFFFFFFFF AND DUP2 MSTORE PUSH1 0x20 ADD SWAP1 DUP2 MSTORE PUSH1 0x20 ADD PUSH1 0x0 KECCAK256 PUSH1 0x1 ADD PUSH1 0x0 SWAP1 SLOAD SWAP1 PUSH2 0x100 EXP SWAP1 DIV PUSH20 0xFFFFFFFFFFFFFFFFFFFFFFFFFFFFFFFFFFFFFFFF AND PUSH20 0xFFFFFFFFFFFFFFFFFFFFFFFFFFFFFFFFFFFFFFFF AND PUSH20 0xFFFFFFFFFFFFFFFFFFFFFFFFFFFFFFFFFFFFFFFF AND DUP2 MSTORE PUSH1 0x20 ADD SWAP1 DUP2 MSTORE PUSH1 0x20 ADD PUSH1 0x0 KECCAK256 PUSH1 0x6 ADD DUP2 SWAP1 SSTORE POP POP JUMP JUMPDEST PUSH1 0x0 PUSH20 0xFFFFFFFFFFFFFFFFFFFFFFFFFFFFFFFFFFFFFFFF AND PUSH1 0x2 PUSH1 0x0 PUSH1 0x1 PUSH1 0x0 CALLER PUSH20 0xFFFFFFFFFFFFFFFFFFFFFFFFFFFFFFFFFFFFFFFF AND PUSH20 0xFFFFFFFFFFFFFFFFFFFFFFFFFFFFFFFFFFFFFFFF AND DUP2 MSTORE PUSH1 0x20 ADD SWAP1 DUP2 MSTORE PUSH1 0x20 ADD PUSH1 0x0 KECCAK256 PUSH1 0x1 ADD PUSH1 0x0 SWAP1 SLOAD SWAP1 PUSH2 0x100 EXP SWAP1 DIV PUSH20 0xFFFFFFFFFFFFFFFFFFFFFFFFFFFFFFFFFFFFFFFF AND PUSH20 0xFFFFFFFFFFFFFFFFFFFFFFFFFFFFFFFFFFFFFFFF AND PUSH20 0xFFFFFFFFFFFFFFFFFFFFFFFFFFFFFFFFFFFFFFFF AND DUP2 MSTORE PUSH1 0x20 ADD SWAP1 DUP2 MSTORE PUSH1 0x20 ADD PUSH1 0x0 KECCAK256 PUSH1 0x0 ADD PUSH1 0x0 SWAP1 SLOAD SWAP1 PUSH2 0x100 EXP SWAP1 DIV PUSH20 0xFFFFFFFFFFFFFFFFFFFFFFFFFFFFFFFFFFFFFFFF AND PUSH20 0xFFFFFFFFFFFFFFFFFFFFFFFFFFFFFFFFFFFFFFFF AND EQ ISZERO PUSH2 0x1B21 JUMPI PUSH1 0x40 MLOAD PUSH32 0x8C379A000000000000000000000000000000000000000000000000000000000 DUP2 MSTORE PUSH1 0x4 ADD PUSH2 0x1B18 SWAP1 PUSH2 0x3A83 JUMP JUMPDEST PUSH1 0x40 MLOAD DUP1 SWAP2 SUB SWAP1 REVERT JUMPDEST PUSH1 0x0 PUSH20 0xFFFFFFFFFFFFFFFFFFFFFFFFFFFFFFFFFFFFFFFF AND PUSH1 0x2 PUSH1 0x0 PUSH1 0x1 PUSH1 0x0 CALLER PUSH20 0xFFFFFFFFFFFFFFFFFFFFFFFFFFFFFFFFFFFFFFFF AND PUSH20 0xFFFFFFFFFFFFFFFFFFFFFFFFFFFFFFFFFFFFFFFF AND DUP2 MSTORE PUSH1 0x20 ADD SWAP1 DUP2 MSTORE PUSH1 0x20 ADD PUSH1 0x0 KECCAK256 PUSH1 0x1 ADD PUSH1 0x0 SWAP1 SLOAD SWAP1 PUSH2 0x100 EXP SWAP1 DIV PUSH20 0xFFFFFFFFFFFFFFFFFFFFFFFFFFFFFFFFFFFFFFFF AND PUSH20 0xFFFFFFFFFFFFFFFFFFFFFFFFFFFFFFFFFFFFFFFF AND PUSH20 0xFFFFFFFFFFFFFFFFFFFFFFFFFFFFFFFFFFFFFFFF AND DUP2 MSTORE PUSH1 0x20 ADD SWAP1 DUP2 MSTORE PUSH1 0x20 ADD PUSH1 0x0 KECCAK256 PUSH1 0x3 ADD PUSH1 0x0 SWAP1 SLOAD SWAP1 PUSH2 0x100 EXP SWAP1 DIV PUSH20 0xFFFFFFFFFFFFFFFFFFFFFFFFFFFFFFFFFFFFFFFF AND PUSH20 0xFFFFFFFFFFFFFFFFFFFFFFFFFFFFFFFFFFFFFFFF AND EQ ISZERO PUSH2 0x1C55 JUMPI PUSH1 0x40 MLOAD PUSH32 0x8C379A000000000000000000000000000000000000000000000000000000000 DUP2 MSTORE PUSH1 0x4 ADD PUSH2 0x1C4C SWAP1 PUSH2 0x3863 JUMP JUMPDEST PUSH1 0x40 MLOAD DUP1 SWAP2 SUB SWAP1 REVERT JUMPDEST PUSH1 0x0 PUSH1 0x2 PUSH1 0x0 PUSH1 0x1 PUSH1 0x0 CALLER PUSH20 0xFFFFFFFFFFFFFFFFFFFFFFFFFFFFFFFFFFFFFFFF AND PUSH20 0xFFFFFFFFFFFFFFFFFFFFFFFFFFFFFFFFFFFFFFFF AND DUP2 MSTORE PUSH1 0x20 ADD SWAP1 DUP2 MSTORE PUSH1 0x20 ADD PUSH1 0x0 KECCAK256 PUSH1 0x1 ADD PUSH1 0x0 SWAP1 SLOAD SWAP1 PUSH2 0x100 EXP SWAP1 DIV PUSH20 0xFFFFFFFFFFFFFFFFFFFFFFFFFFFFFFFFFFFFFFFF AND PUSH20 0xFFFFFFFFFFFFFFFFFFFFFFFFFFFFFFFFFFFFFFFF AND PUSH20 0xFFFFFFFFFFFFFFFFFFFFFFFFFFFFFFFFFFFFFFFF AND DUP2 MSTORE PUSH1 0x20 ADD SWAP1 DUP2 MSTORE PUSH1 0x20 ADD PUSH1 0x0 KECCAK256 PUSH1 0x2 ADD SLOAD EQ ISZERO PUSH2 0x1D3D JUMPI PUSH1 0x40 MLOAD PUSH32 0x8C379A000000000000000000000000000000000000000000000000000000000 DUP2 MSTORE PUSH1 0x4 ADD PUSH2 0x1D34 SWAP1 PUSH2 0x39E3 JUMP JUMPDEST PUSH1 0x40 MLOAD DUP1 SWAP2 SUB SWAP1 REVERT JUMPDEST PUSH1 0x0 PUSH1 0x2 PUSH1 0x0 PUSH1 0x1 PUSH1 0x0 CALLER PUSH20 0xFFFFFFFFFFFFFFFFFFFFFFFFFFFFFFFFFFFFFFFF AND PUSH20 0xFFFFFFFFFFFFFFFFFFFFFFFFFFFFFFFFFFFFFFFF AND DUP2 MSTORE PUSH1 0x20 ADD SWAP1 DUP2 MSTORE PUSH1 0x20 ADD PUSH1 0x0 KECCAK256 PUSH1 0x1 ADD PUSH1 0x0 SWAP1 SLOAD SWAP1 PUSH2 0x100 EXP SWAP1 DIV PUSH20 0xFFFFFFFFFFFFFFFFFFFFFFFFFFFFFFFFFFFFFFFF AND PUSH20 0xFFFFFFFFFFFFFFFFFFFFFFFFFFFFFFFFFFFFFFFF AND PUSH20 0xFFFFFFFFFFFFFFFFFFFFFFFFFFFFFFFFFFFFFFFF AND DUP2 MSTORE PUSH1 0x20 ADD SWAP1 DUP2 MSTORE PUSH1 0x20 ADD PUSH1 0x0 KECCAK256 PUSH1 0x5 ADD SLOAD EQ ISZERO PUSH2 0x1E25 JUMPI PUSH1 0x40 MLOAD PUSH32 0x8C379A000000000000000000000000000000000000000000000000000000000 DUP2 MSTORE PUSH1 0x4 ADD PUSH2 0x1E1C SWAP1 PUSH2 0x3803 JUMP JUMPDEST PUSH1 0x40 MLOAD DUP1 SWAP2 SUB SWAP1 REVERT JUMPDEST PUSH1 0x3 PUSH1 0x2 PUSH1 0x0 PUSH1 0x1 PUSH1 0x0 CALLER PUSH20 0xFFFFFFFFFFFFFFFFFFFFFFFFFFFFFFFFFFFFFFFF AND PUSH20 0xFFFFFFFFFFFFFFFFFFFFFFFFFFFFFFFFFFFFFFFF AND DUP2 MSTORE PUSH1 0x20 ADD SWAP1 DUP2 MSTORE PUSH1 0x20 ADD PUSH1 0x0 KECCAK256 PUSH1 0x1 ADD PUSH1 0x0 SWAP1 SLOAD SWAP1 PUSH2 0x100 EXP SWAP1 DIV PUSH20 0xFFFFFFFFFFFFFFFFFFFFFFFFFFFFFFFFFFFFFFFF AND PUSH20 0xFFFFFFFFFFFFFFFFFFFFFFFFFFFFFFFFFFFFFFFF AND PUSH20 0xFFFFFFFFFFFFFFFFFFFFFFFFFFFFFFFFFFFFFFFF AND DUP2 MSTORE PUSH1 0x20 ADD SWAP1 DUP2 MSTORE PUSH1 0x20 ADD PUSH1 0x0 KECCAK256 PUSH1 0x6 ADD SLOAD NUMBER PUSH2 0x1ED7 SWAP2 SWAP1 PUSH2 0x3B8D JUMP JUMPDEST LT ISZERO PUSH2 0x1F18 JUMPI PUSH1 0x40 MLOAD PUSH32 0x8C379A000000000000000000000000000000000000000000000000000000000 DUP2 MSTORE PUSH1 0x4 ADD PUSH2 0x1F0F SWAP1 PUSH2 0x3843 JUMP JUMPDEST PUSH1 0x40 MLOAD DUP1 SWAP2 SUB SWAP1 REVERT JUMPDEST PUSH1 0x0 PUSH1 0x3 PUSH1 0x2 PUSH1 0x0 PUSH1 0x1 PUSH1 0x0 CALLER PUSH20 0xFFFFFFFFFFFFFFFFFFFFFFFFFFFFFFFFFFFFFFFF AND PUSH20 0xFFFFFFFFFFFFFFFFFFFFFFFFFFFFFFFFFFFFFFFF AND DUP2 MSTORE PUSH1 0x20 ADD SWAP1 DUP2 MSTORE PUSH1 0x20 ADD PUSH1 0x0 KECCAK256 PUSH1 0x1 ADD PUSH1 0x0 SWAP1 SLOAD SWAP1 PUSH2 0x100 EXP SWAP1 DIV PUSH20 0xFFFFFFFFFFFFFFFFFFFFFFFFFFFFFFFFFFFFFFFF AND PUSH20 0xFFFFFFFFFFFFFFFFFFFFFFFFFFFFFFFFFFFFFFFF AND PUSH20 0xFFFFFFFFFFFFFFFFFFFFFFFFFFFFFFFFFFFFFFFF AND DUP2 MSTORE PUSH1 0x20 ADD SWAP1 DUP2 MSTORE PUSH1 0x20 ADD PUSH1 0x0 KECCAK256 PUSH1 0x6 ADD SLOAD PUSH2 0x1FCB SWAP2 SWAP1 PUSH2 0x3ADD JUMP JUMPDEST SWAP1 POP PUSH1 0x0 PUSH1 0x2 PUSH1 0x0 PUSH1 0x1 PUSH1 0x0 CALLER PUSH20 0xFFFFFFFFFFFFFFFFFFFFFFFFFFFFFFFFFFFFFFFF AND PUSH20 0xFFFFFFFFFFFFFFFFFFFFFFFFFFFFFFFFFFFFFFFF AND DUP2 MSTORE PUSH1 0x20 ADD SWAP1 DUP2 MSTORE PUSH1 0x20 ADD PUSH1 0x0 KECCAK256 PUSH1 0x1 ADD PUSH1 0x0 SWAP1 SLOAD SWAP1 PUSH2 0x100 EXP SWAP1 DIV PUSH20 0xFFFFFFFFFFFFFFFFFFFFFFFFFFFFFFFFFFFFFFFF AND PUSH20 0xFFFFFFFFFFFFFFFFFFFFFFFFFFFFFFFFFFFFFFFF AND PUSH20 0xFFFFFFFFFFFFFFFFFFFFFFFFFFFFFFFFFFFFFFFF AND DUP2 MSTORE PUSH1 0x20 ADD SWAP1 DUP2 MSTORE PUSH1 0x20 ADD PUSH1 0x0 KECCAK256 PUSH1 0x40 MLOAD DUP1 PUSH2 0x100 ADD PUSH1 0x40 MSTORE SWAP1 DUP2 PUSH1 0x0 DUP3 ADD PUSH1 0x0 SWAP1 SLOAD SWAP1 PUSH2 0x100 EXP SWAP1 DIV PUSH20 0xFFFFFFFFFFFFFFFFFFFFFFFFFFFFFFFFFFFFFFFF AND PUSH20 0xFFFFFFFFFFFFFFFFFFFFFFFFFFFFFFFFFFFFFFFF AND PUSH20 0xFFFFFFFFFFFFFFFFFFFFFFFFFFFFFFFFFFFFFFFF AND DUP2 MSTORE PUSH1 0x20 ADD PUSH1 0x1 DUP3 ADD SLOAD DUP2 MSTORE PUSH1 0x20 ADD PUSH1 0x2 DUP3 ADD SLOAD DUP2 MSTORE PUSH1 0x20 ADD PUSH1 0x3 DUP3 ADD PUSH1 0x0 SWAP1 SLOAD SWAP1 PUSH2 0x100 EXP SWAP1 DIV PUSH20 0xFFFFFFFFFFFFFFFFFFFFFFFFFFFFFFFFFFFFFFFF AND PUSH20 0xFFFFFFFFFFFFFFFFFFFFFFFFFFFFFFFFFFFFFFFF AND PUSH20 0xFFFFFFFFFFFFFFFFFFFFFFFFFFFFFFFFFFFFFFFF AND DUP2 MSTORE PUSH1 0x20 ADD PUSH1 0x4 DUP3 ADD SLOAD DUP2 MSTORE PUSH1 0x20 ADD PUSH1 0x5 DUP3 ADD SLOAD DUP2 MSTORE PUSH1 0x20 ADD PUSH1 0x6 DUP3 ADD SLOAD DUP2 MSTORE PUSH1 0x20 ADD PUSH1 0x7 DUP3 ADD PUSH1 0x0 SWAP1 SLOAD SWAP1 PUSH2 0x100 EXP SWAP1 DIV PUSH1 0xFF AND ISZERO ISZERO ISZERO ISZERO DUP2 MSTORE POP POP SWAP1 POP PUSH1 0x0 PUSH1 0x6 DUP3 PUSH1 0xA0 ADD MLOAD DUP4 PUSH1 0x40 ADD MLOAD XOR DUP5 PUSH1 0x40 MLOAD PUSH1 0x20 ADD PUSH2 0x2198 SWAP3 SWAP2 SWAP1 PUSH2 0x371E JUMP JUMPDEST PUSH1 0x40 MLOAD PUSH1 0x20 DUP2 DUP4 SUB SUB DUP2 MSTORE SWAP1 PUSH1 0x40 MSTORE DUP1 MLOAD SWAP1 PUSH1 0x20 ADD KECCAK256 PUSH1 0x0 SHR PUSH2 0x21BB SWAP2 SWAP1 PUSH2 0x3C1D JUMP JUMPDEST PUSH1 0x1 PUSH2 0x21C7 SWAP2 SWAP1 PUSH2 0x3ADD JUMP JUMPDEST SWAP1 POP PUSH1 0x4 DUP2 LT ISZERO PUSH2 0x22B7 JUMPI PUSH8 0xDE0B6B3A7640000 DUP2 PUSH2 0x21E6 SWAP2 SWAP1 PUSH2 0x3B33 JUMP JUMPDEST PUSH1 0x1 PUSH1 0x0 DUP5 PUSH1 0x0 ADD MLOAD PUSH20 0xFFFFFFFFFFFFFFFFFFFFFFFFFFFFFFFFFFFFFFFF AND PUSH20 0xFFFFFFFFFFFFFFFFFFFFFFFFFFFFFFFFFFFFFFFF AND DUP2 MSTORE PUSH1 0x20 ADD SWAP1 DUP2 MSTORE PUSH1 0x20 ADD PUSH1 0x0 KECCAK256 PUSH1 0x0 ADD PUSH1 0x0 DUP3 DUP3 SLOAD PUSH2 0x223B SWAP2 SWAP1 PUSH2 0x3ADD JUMP JUMPDEST SWAP3 POP POP DUP2 SWAP1 SSTORE POP PUSH8 0xDE0B6B3A7640000 DUP2 PUSH2 0x2256 SWAP2 SWAP1 PUSH2 0x3B33 JUMP JUMPDEST PUSH1 0x1 PUSH1 0x0 DUP5 PUSH1 0x60 ADD MLOAD PUSH20 0xFFFFFFFFFFFFFFFFFFFFFFFFFFFFFFFFFFFFFFFF AND PUSH20 0xFFFFFFFFFFFFFFFFFFFFFFFFFFFFFFFFFFFFFFFF AND DUP2 MSTORE PUSH1 0x20 ADD SWAP1 DUP2 MSTORE PUSH1 0x20 ADD PUSH1 0x0 KECCAK256 PUSH1 0x0 ADD PUSH1 0x0 DUP3 DUP3 SLOAD PUSH2 0x22AB SWAP2 SWAP1 PUSH2 0x3B8D JUMP JUMPDEST SWAP3 POP POP DUP2 SWAP1 SSTORE POP PUSH2 0x23B0 JUMP JUMPDEST PUSH8 0xDE0B6B3A7640000 PUSH1 0x3 DUP3 PUSH2 0x22CD SWAP2 SWAP1 PUSH2 0x3B8D JUMP JUMPDEST PUSH2 0x22D7 SWAP2 SWAP1 PUSH2 0x3B33 JUMP JUMPDEST PUSH1 0x1 PUSH1 0x0 DUP5 PUSH1 0x0 ADD MLOAD PUSH20 0xFFFFFFFFFFFFFFFFFFFFFFFFFFFFFFFFFFFFFFFF AND PUSH20 0xFFFFFFFFFFFFFFFFFFFFFFFFFFFFFFFFFFFFFFFF AND DUP2 MSTORE PUSH1 0x20 ADD SWAP1 DUP2 MSTORE PUSH1 0x20 ADD PUSH1 0x0 KECCAK256 PUSH1 0x0 ADD PUSH1 0x0 DUP3 DUP3 SLOAD PUSH2 0x232C SWAP2 SWAP1 PUSH2 0x3B8D JUMP JUMPDEST SWAP3 POP POP DUP2 SWAP1 SSTORE POP PUSH8 0xDE0B6B3A7640000 PUSH1 0x3 DUP3 PUSH2 0x2349 SWAP2 SWAP1 PUSH2 0x3B8D JUMP JUMPDEST PUSH2 0x2353 SWAP2 SWAP1 PUSH2 0x3B33 JUMP JUMPDEST PUSH1 0x1 PUSH1 0x0 DUP5 PUSH1 0x60 ADD MLOAD PUSH20 0xFFFFFFFFFFFFFFFFFFFFFFFFFFFFFFFFFFFFFFFF AND PUSH20 0xFFFFFFFFFFFFFFFFFFFFFFFFFFFFFFFFFFFFFFFF AND DUP2 MSTORE PUSH1 0x20 ADD SWAP1 DUP2 MSTORE PUSH1 0x20 ADD PUSH1 0x0 KECCAK256 PUSH1 0x0 ADD PUSH1 0x0 DUP3 DUP3 SLOAD PUSH2 0x23A8 SWAP2 SWAP1 PUSH2 0x3ADD JUMP JUMPDEST SWAP3 POP POP DUP2 SWAP1 SSTORE POP JUMPDEST PUSH2 0x23BD DUP3 PUSH1 0x0 ADD MLOAD PUSH2 0x2F27 JUMP JUMPDEST POP POP POP JUMP JUMPDEST PUSH1 0x2 PUSH1 0x20 MSTORE DUP1 PUSH1 0x0 MSTORE PUSH1 0x40 PUSH1 0x0 KECCAK256 PUSH1 0x0 SWAP2 POP SWAP1 POP DUP1 PUSH1 0x0 ADD PUSH1 0x0 SWAP1 SLOAD SWAP1 PUSH2 0x100 EXP SWAP1 DIV PUSH20 0xFFFFFFFFFFFFFFFFFFFFFFFFFFFFFFFFFFFFFFFF AND SWAP1 DUP1 PUSH1 0x1 ADD SLOAD SWAP1 DUP1 PUSH1 0x2 ADD SLOAD SWAP1 DUP1 PUSH1 0x3 ADD PUSH1 0x0 SWAP1 SLOAD SWAP1 PUSH2 0x100 EXP SWAP1 DIV PUSH20 0xFFFFFFFFFFFFFFFFFFFFFFFFFFFFFFFFFFFFFFFF AND SWAP1 DUP1 PUSH1 0x4 ADD SLOAD SWAP1 DUP1 PUSH1 0x5 ADD SLOAD SWAP1 DUP1 PUSH1 0x6 ADD SLOAD SWAP1 DUP1 PUSH1 0x7 ADD PUSH1 0x0 SWAP1 SLOAD SWAP1 PUSH2 0x100 EXP SWAP1 DIV PUSH1 0xFF AND SWAP1 POP DUP9 JUMP JUMPDEST PUSH1 0x0 PUSH20 0xFFFFFFFFFFFFFFFFFFFFFFFFFFFFFFFFFFFFFFFF AND PUSH1 0x1 PUSH1 0x0 CALLER PUSH20 0xFFFFFFFFFFFFFFFFFFFFFFFFFFFFFFFFFFFFFFFF AND PUSH20 0xFFFFFFFFFFFFFFFFFFFFFFFFFFFFFFFFFFFFFFFF AND DUP2 MSTORE PUSH1 0x20 ADD SWAP1 DUP2 MSTORE PUSH1 0x20 ADD PUSH1 0x0 KECCAK256 PUSH1 0x1 ADD PUSH1 0x0 SWAP1 SLOAD SWAP1 PUSH2 0x100 EXP SWAP1 DIV PUSH20 0xFFFFFFFFFFFFFFFFFFFFFFFFFFFFFFFFFFFFFFFF AND PUSH20 0xFFFFFFFFFFFFFFFFFFFFFFFFFFFFFFFFFFFFFFFF AND EQ PUSH2 0x2528 JUMPI PUSH1 0x40 MLOAD PUSH32 0x8C379A000000000000000000000000000000000000000000000000000000000 DUP2 MSTORE PUSH1 0x4 ADD PUSH2 0x251F SWAP1 PUSH2 0x38A3 JUMP JUMPDEST PUSH1 0x40 MLOAD DUP1 SWAP2 SUB SWAP1 REVERT JUMPDEST CALLER PUSH20 0xFFFFFFFFFFFFFFFFFFFFFFFFFFFFFFFFFFFFFFFF AND DUP3 PUSH20 0xFFFFFFFFFFFFFFFFFFFFFFFFFFFFFFFFFFFFFFFF AND EQ ISZERO PUSH2 0x2597 JUMPI PUSH1 0x40 MLOAD PUSH32 0x8C379A000000000000000000000000000000000000000000000000000000000 DUP2 MSTORE PUSH1 0x4 ADD PUSH2 0x258E SWAP1 PUSH2 0x3903 JUMP JUMPDEST PUSH1 0x40 MLOAD DUP1 SWAP2 SUB SWAP1 REVERT JUMPDEST DUP2 PUSH20 0xFFFFFFFFFFFFFFFFFFFFFFFFFFFFFFFFFFFFFFFF AND PUSH1 0x2 PUSH1 0x0 DUP5 PUSH20 0xFFFFFFFFFFFFFFFFFFFFFFFFFFFFFFFFFFFFFFFF AND PUSH20 0xFFFFFFFFFFFFFFFFFFFFFFFFFFFFFFFFFFFFFFFF AND DUP2 MSTORE PUSH1 0x20 ADD SWAP1 DUP2 MSTORE PUSH1 0x20 ADD PUSH1 0x0 KECCAK256 PUSH1 0x0 ADD PUSH1 0x0 SWAP1 SLOAD SWAP1 PUSH2 0x100 EXP SWAP1 DIV PUSH20 0xFFFFFFFFFFFFFFFFFFFFFFFFFFFFFFFFFFFFFFFF AND PUSH20 0xFFFFFFFFFFFFFFFFFFFFFFFFFFFFFFFFFFFFFFFF AND EQ PUSH2 0x2667 JUMPI PUSH1 0x40 MLOAD PUSH32 0x8C379A000000000000000000000000000000000000000000000000000000000 DUP2 MSTORE PUSH1 0x4 ADD PUSH2 0x265E SWAP1 PUSH2 0x38E3 JUMP JUMPDEST PUSH1 0x40 MLOAD DUP1 SWAP2 SUB SWAP1 REVERT JUMPDEST CALLER PUSH20 0xFFFFFFFFFFFFFFFFFFFFFFFFFFFFFFFFFFFFFFFF AND PUSH1 0x2 PUSH1 0x0 DUP5 PUSH20 0xFFFFFFFFFFFFFFFFFFFFFFFFFFFFFFFFFFFFFFFF AND PUSH20 0xFFFFFFFFFFFFFFFFFFFFFFFFFFFFFFFFFFFFFFFF AND DUP2 MSTORE PUSH1 0x20 ADD SWAP1 DUP2 MSTORE PUSH1 0x20 ADD PUSH1 0x0 KECCAK256 PUSH1 0x3 ADD PUSH1 0x0 SWAP1 SLOAD SWAP1 PUSH2 0x100 EXP SWAP1 DIV PUSH20 0xFFFFFFFFFFFFFFFFFFFFFFFFFFFFFFFFFFFFFFFF AND PUSH20 0xFFFFFFFFFFFFFFFFFFFFFFFFFFFFFFFFFFFFFFFF AND EQ DUP1 PUSH2 0x2791 JUMPI POP PUSH1 0x0 PUSH20 0xFFFFFFFFFFFFFFFFFFFFFFFFFFFFFFFFFFFFFFFF AND PUSH1 0x2 PUSH1 0x0 DUP5 PUSH20 0xFFFFFFFFFFFFFFFFFFFFFFFFFFFFFFFFFFFFFFFF AND PUSH20 0xFFFFFFFFFFFFFFFFFFFFFFFFFFFFFFFFFFFFFFFF AND DUP2 MSTORE PUSH1 0x20 ADD SWAP1 DUP2 MSTORE PUSH1 0x20 ADD PUSH1 0x0 KECCAK256 PUSH1 0x3 ADD PUSH1 0x0 SWAP1 SLOAD SWAP1 PUSH2 0x100 EXP SWAP1 DIV PUSH20 0xFFFFFFFFFFFFFFFFFFFFFFFFFFFFFFFFFFFFFFFF AND PUSH20 0xFFFFFFFFFFFFFFFFFFFFFFFFFFFFFFFFFFFFFFFF AND EQ JUMPDEST PUSH2 0x27D0 JUMPI PUSH1 0x40 MLOAD PUSH32 0x8C379A000000000000000000000000000000000000000000000000000000000 DUP2 MSTORE PUSH1 0x4 ADD PUSH2 0x27C7 SWAP1 PUSH2 0x3923 JUMP JUMPDEST PUSH1 0x40 MLOAD DUP1 SWAP2 SUB SWAP1 REVERT JUMPDEST DUP1 PUSH1 0x2 PUSH1 0x0 DUP5 PUSH20 0xFFFFFFFFFFFFFFFFFFFFFFFFFFFFFFFFFFFFFFFF AND PUSH20 0xFFFFFFFFFFFFFFFFFFFFFFFFFFFFFFFFFFFFFFFF AND DUP2 MSTORE PUSH1 0x20 ADD SWAP1 DUP2 MSTORE PUSH1 0x20 ADD PUSH1 0x0 KECCAK256 PUSH1 0x1 ADD SLOAD EQ ISZERO PUSH2 0x2855 JUMPI PUSH1 0x40 MLOAD PUSH32 0x8C379A000000000000000000000000000000000000000000000000000000000 DUP2 MSTORE PUSH1 0x4 ADD PUSH2 0x284C SWAP1 PUSH2 0x3823 JUMP JUMPDEST PUSH1 0x40 MLOAD DUP1 SWAP2 SUB SWAP1 REVERT JUMPDEST PUSH8 0x29A2241AF62C0000 CALLVALUE PUSH1 0x1 PUSH1 0x0 CALLER PUSH20 0xFFFFFFFFFFFFFFFFFFFFFFFFFFFFFFFFFFFFFFFF AND PUSH20 0xFFFFFFFFFFFFFFFFFFFFFFFFFFFFFFFFFFFFFFFF AND DUP2 MSTORE PUSH1 0x20 ADD SWAP1 DUP2 MSTORE PUSH1 0x20 ADD PUSH1 0x0 KECCAK256 PUSH1 0x0 ADD SLOAD PUSH2 0x28AC SWAP2 SWAP1 PUSH2 0x3ADD JUMP JUMPDEST LT ISZERO PUSH2 0x28ED JUMPI PUSH1 0x40 MLOAD PUSH32 0x8C379A000000000000000000000000000000000000000000000000000000000 DUP2 MSTORE PUSH1 0x4 ADD PUSH2 0x28E4 SWAP1 PUSH2 0x3883 JUMP JUMPDEST PUSH1 0x40 MLOAD DUP1 SWAP2 SUB SWAP1 REVERT JUMPDEST CALLER PUSH1 0x2 PUSH1 0x0 DUP5 PUSH20 0xFFFFFFFFFFFFFFFFFFFFFFFFFFFFFFFFFFFFFFFF AND PUSH20 0xFFFFFFFFFFFFFFFFFFFFFFFFFFFFFFFFFFFFFFFF AND DUP2 MSTORE PUSH1 0x20 ADD SWAP1 DUP2 MSTORE PUSH1 0x20 ADD PUSH1 0x0 KECCAK256 PUSH1 0x3 ADD PUSH1 0x0 PUSH2 0x100 EXP DUP2 SLOAD DUP2 PUSH20 0xFFFFFFFFFFFFFFFFFFFFFFFFFFFFFFFFFFFFFFFF MUL NOT AND SWAP1 DUP4 PUSH20 0xFFFFFFFFFFFFFFFFFFFFFFFFFFFFFFFFFFFFFFFF AND MUL OR SWAP1 SSTORE POP DUP1 PUSH1 0x2 PUSH1 0x0 DUP5 PUSH20 0xFFFFFFFFFFFFFFFFFFFFFFFFFFFFFFFFFFFFFFFF AND PUSH20 0xFFFFFFFFFFFFFFFFFFFFFFFFFFFFFFFFFFFFFFFF AND DUP2 MSTORE PUSH1 0x20 ADD SWAP1 DUP2 MSTORE PUSH1 0x20 ADD PUSH1 0x0 KECCAK256 PUSH1 0x4 ADD DUP2 SWAP1 SSTORE POP NUMBER PUSH1 0x2 PUSH1 0x0 DUP5 PUSH20 0xFFFFFFFFFFFFFFFFFFFFFFFFFFFFFFFFFFFFFFFF AND PUSH20 0xFFFFFFFFFFFFFFFFFFFFFFFFFFFFFFFFFFFFFFFF AND DUP2 MSTORE PUSH1 0x20 ADD SWAP1 DUP2 MSTORE PUSH1 0x20 ADD PUSH1 0x0 KECCAK256 PUSH1 0x6 ADD DUP2 SWAP1 SSTORE POP CALLVALUE PUSH1 0x1 PUSH1 0x0 CALLER PUSH20 0xFFFFFFFFFFFFFFFFFFFFFFFFFFFFFFFFFFFFFFFF AND PUSH20 0xFFFFFFFFFFFFFFFFFFFFFFFFFFFFFFFFFFFFFFFF AND DUP2 MSTORE PUSH1 0x20 ADD SWAP1 DUP2 MSTORE PUSH1 0x20 ADD PUSH1 0x0 KECCAK256 PUSH1 0x0 ADD PUSH1 0x0 DUP3 DUP3 SLOAD PUSH2 0x2A4E SWAP2 SWAP1 PUSH2 0x3ADD JUMP JUMPDEST SWAP3 POP POP DUP2 SWAP1 SSTORE POP DUP2 PUSH1 0x1 PUSH1 0x0 CALLER PUSH20 0xFFFFFFFFFFFFFFFFFFFFFFFFFFFFFFFFFFFFFFFF AND PUSH20 0xFFFFFFFFFFFFFFFFFFFFFFFFFFFFFFFFFFFFFFFF AND DUP2 MSTORE PUSH1 0x20 ADD SWAP1 DUP2 MSTORE PUSH1 0x20 ADD PUSH1 0x0 KECCAK256 PUSH1 0x1 ADD PUSH1 0x0 PUSH2 0x100 EXP DUP2 SLOAD DUP2 PUSH20 0xFFFFFFFFFFFFFFFFFFFFFFFFFFFFFFFFFFFFFFFF MUL NOT AND SWAP1 DUP4 PUSH20 0xFFFFFFFFFFFFFFFFFFFFFFFFFFFFFFFFFFFFFFFF AND MUL OR SWAP1 SSTORE POP POP POP JUMP JUMPDEST PUSH1 0x0 PUSH20 0xFFFFFFFFFFFFFFFFFFFFFFFFFFFFFFFFFFFFFFFF AND PUSH1 0x1 PUSH1 0x0 CALLER PUSH20 0xFFFFFFFFFFFFFFFFFFFFFFFFFFFFFFFFFFFFFFFF AND PUSH20 0xFFFFFFFFFFFFFFFFFFFFFFFFFFFFFFFFFFFFFFFF AND DUP2 MSTORE PUSH1 0x20 ADD SWAP1 DUP2 MSTORE PUSH1 0x20 ADD PUSH1 0x0 KECCAK256 PUSH1 0x1 ADD PUSH1 0x0 SWAP1 SLOAD SWAP1 PUSH2 0x100 EXP SWAP1 DIV PUSH20 0xFFFFFFFFFFFFFFFFFFFFFFFFFFFFFFFFFFFFFFFF AND PUSH20 0xFFFFFFFFFFFFFFFFFFFFFFFFFFFFFFFFFFFFFFFF AND EQ PUSH2 0x2BAB JUMPI PUSH1 0x40 MLOAD PUSH32 0x8C379A000000000000000000000000000000000000000000000000000000000 DUP2 MSTORE PUSH1 0x4 ADD PUSH2 0x2BA2 SWAP1 PUSH2 0x38A3 JUMP JUMPDEST PUSH1 0x40 MLOAD DUP1 SWAP2 SUB SWAP1 REVERT JUMPDEST CALLER PUSH20 0xFFFFFFFFFFFFFFFFFFFFFFFFFFFFFFFFFFFFFFFF AND DUP3 PUSH20 0xFFFFFFFFFFFFFFFFFFFFFFFFFFFFFFFFFFFFFFFF AND EQ ISZERO PUSH2 0x2C1A JUMPI PUSH1 0x40 MLOAD PUSH32 0x8C379A000000000000000000000000000000000000000000000000000000000 DUP2 MSTORE PUSH1 0x4 ADD PUSH2 0x2C11 SWAP1 PUSH2 0x3903 JUMP JUMPDEST PUSH1 0x40 MLOAD DUP1 SWAP2 SUB SWAP1 REVERT JUMPDEST PUSH8 0x29A2241AF62C0000 CALLVALUE PUSH1 0x1 PUSH1 0x0 CALLER PUSH20 0xFFFFFFFFFFFFFFFFFFFFFFFFFFFFFFFFFFFFFFFF AND PUSH20 0xFFFFFFFFFFFFFFFFFFFFFFFFFFFFFFFFFFFFFFFF AND DUP2 MSTORE PUSH1 0x20 ADD SWAP1 DUP2 MSTORE PUSH1 0x20 ADD PUSH1 0x0 KECCAK256 PUSH1 0x0 ADD SLOAD PUSH2 0x2C71 SWAP2 SWAP1 PUSH2 0x3ADD JUMP JUMPDEST LT ISZERO PUSH2 0x2CB2 JUMPI PUSH1 0x40 MLOAD PUSH32 0x8C379A000000000000000000000000000000000000000000000000000000000 DUP2 MSTORE PUSH1 0x4 ADD PUSH2 0x2CA9 SWAP1 PUSH2 0x3883 JUMP JUMPDEST PUSH1 0x40 MLOAD DUP1 SWAP2 SUB SWAP1 REVERT JUMPDEST PUSH1 0x0 PUSH1 0x40 MLOAD DUP1 PUSH2 0x100 ADD PUSH1 0x40 MSTORE DUP1 CALLER PUSH20 0xFFFFFFFFFFFFFFFFFFFFFFFFFFFFFFFFFFFFFFFF AND DUP2 MSTORE PUSH1 0x20 ADD DUP4 DUP2 MSTORE PUSH1 0x20 ADD PUSH1 0x0 DUP2 MSTORE PUSH1 0x20 ADD PUSH1 0x0 PUSH20 0xFFFFFFFFFFFFFFFFFFFFFFFFFFFFFFFFFFFFFFFF AND DUP2 MSTORE PUSH1 0x20 ADD PUSH1 0x0 DUP1 SHL DUP2 MSTORE PUSH1 0x20 ADD PUSH1 0x0 DUP2 MSTORE PUSH1 0x20 ADD NUMBER DUP2 MSTORE PUSH1 0x20 ADD PUSH1 0x0 ISZERO ISZERO DUP2 MSTORE POP SWAP1 POP DUP1 PUSH1 0x2 PUSH1 0x0 CALLER PUSH20 0xFFFFFFFFFFFFFFFFFFFFFFFFFFFFFFFFFFFFFFFF AND PUSH20 0xFFFFFFFFFFFFFFFFFFFFFFFFFFFFFFFFFFFFFFFF AND DUP2 MSTORE PUSH1 0x20 ADD SWAP1 DUP2 MSTORE PUSH1 0x20 ADD PUSH1 0x0 KECCAK256 PUSH1 0x0 DUP3 ADD MLOAD DUP2 PUSH1 0x0 ADD PUSH1 0x0 PUSH2 0x100 EXP DUP2 SLOAD DUP2 PUSH20 0xFFFFFFFFFFFFFFFFFFFFFFFFFFFFFFFFFFFFFFFF MUL NOT AND SWAP1 DUP4 PUSH20 0xFFFFFFFFFFFFFFFFFFFFFFFFFFFFFFFFFFFFFFFF AND MUL OR SWAP1 SSTORE POP PUSH1 0x20 DUP3 ADD MLOAD DUP2 PUSH1 0x1 ADD SSTORE PUSH1 0x40 DUP3 ADD MLOAD DUP2 PUSH1 0x2 ADD SSTORE PUSH1 0x60 DUP3 ADD MLOAD DUP2 PUSH1 0x3 ADD PUSH1 0x0 PUSH2 0x100 EXP DUP2 SLOAD DUP2 PUSH20 0xFFFFFFFFFFFFFFFFFFFFFFFFFFFFFFFFFFFFFFFF MUL NOT AND SWAP1 DUP4 PUSH20 0xFFFFFFFFFFFFFFFFFFFFFFFFFFFFFFFFFFFFFFFF AND MUL OR SWAP1 SSTORE POP PUSH1 0x80 DUP3 ADD MLOAD DUP2 PUSH1 0x4 ADD SSTORE PUSH1 0xA0 DUP3 ADD MLOAD DUP2 PUSH1 0x5 ADD SSTORE PUSH1 0xC0 DUP3 ADD MLOAD DUP2 PUSH1 0x6 ADD SSTORE PUSH1 0xE0 DUP3 ADD MLOAD DUP2 PUSH1 0x7 ADD PUSH1 0x0 PUSH2 0x100 EXP DUP2 SLOAD DUP2 PUSH1 0xFF MUL NOT AND SWAP1 DUP4 ISZERO ISZERO MUL OR SWAP1 SSTORE POP SWAP1 POP POP CALLVALUE PUSH1 0x1 PUSH1 0x0 CALLER PUSH20 0xFFFFFFFFFFFFFFFFFFFFFFFFFFFFFFFFFFFFFFFF AND PUSH20 0xFFFFFFFFFFFFFFFFFFFFFFFFFFFFFFFFFFFFFFFF AND DUP2 MSTORE PUSH1 0x20 ADD SWAP1 DUP2 MSTORE PUSH1 0x20 ADD PUSH1 0x0 KECCAK256 PUSH1 0x0 ADD PUSH1 0x0 DUP3 DUP3 SLOAD PUSH2 0x2E9A SWAP2 SWAP1 PUSH2 0x3ADD JUMP JUMPDEST SWAP3 POP POP DUP2 SWAP1 SSTORE POP CALLER PUSH1 0x1 PUSH1 0x0 CALLER PUSH20 0xFFFFFFFFFFFFFFFFFFFFFFFFFFFFFFFFFFFFFFFF AND PUSH20 0xFFFFFFFFFFFFFFFFFFFFFFFFFFFFFFFFFFFFFFFF AND DUP2 MSTORE PUSH1 0x20 ADD SWAP1 DUP2 MSTORE PUSH1 0x20 ADD PUSH1 0x0 KECCAK256 PUSH1 0x1 ADD PUSH1 0x0 PUSH2 0x100 EXP DUP2 SLOAD DUP2 PUSH20 0xFFFFFFFFFFFFFFFFFFFFFFFFFFFFFFFFFFFFFFFF MUL NOT AND SWAP1 DUP4 PUSH20 0xFFFFFFFFFFFFFFFFFFFFFFFFFFFFFFFFFFFFFFFF AND MUL OR SWAP1 SSTORE POP POP POP POP JUMP JUMPDEST PUSH2 0x2F2F PUSH2 0x322F JUMP JUMPDEST PUSH1 0x1 DUP2 PUSH1 0xE0 ADD SWAP1 ISZERO ISZERO SWAP1 DUP2 ISZERO ISZERO DUP2 MSTORE POP POP PUSH1 0x0 PUSH1 0x1 PUSH1 0x0 PUSH1 0x2 PUSH1 0x0 DUP7 PUSH20 0xFFFFFFFFFFFFFFFFFFFFFFFFFFFFFFFFFFFFFFFF AND PUSH20 0xFFFFFFFFFFFFFFFFFFFFFFFFFFFFFFFFFFFFFFFF AND DUP2 MSTORE PUSH1 0x20 ADD SWAP1 DUP2 MSTORE PUSH1 0x20 ADD PUSH1 0x0 KECCAK256 PUSH1 0x0 ADD PUSH1 0x0 SWAP1 SLOAD SWAP1 PUSH2 0x100 EXP SWAP1 DIV PUSH20 0xFFFFFFFFFFFFFFFFFFFFFFFFFFFFFFFFFFFFFFFF AND PUSH20 0xFFFFFFFFFFFFFFFFFFFFFFFFFFFFFFFFFFFFFFFF AND PUSH20 0xFFFFFFFFFFFFFFFFFFFFFFFFFFFFFFFFFFFFFFFF AND DUP2 MSTORE PUSH1 0x20 ADD SWAP1 DUP2 MSTORE PUSH1 0x20 ADD PUSH1 0x0 KECCAK256 PUSH1 0x1 ADD PUSH1 0x0 PUSH2 0x100 EXP DUP2 SLOAD DUP2 PUSH20 0xFFFFFFFFFFFFFFFFFFFFFFFFFFFFFFFFFFFFFFFF MUL NOT AND SWAP1 DUP4 PUSH20 0xFFFFFFFFFFFFFFFFFFFFFFFFFFFFFFFFFFFFFFFF AND MUL OR SWAP1 SSTORE POP PUSH1 0x0 PUSH1 0x1 PUSH1 0x0 PUSH1 0x2 PUSH1 0x0 DUP7 PUSH20 0xFFFFFFFFFFFFFFFFFFFFFFFFFFFFFFFFFFFFFFFF AND PUSH20 0xFFFFFFFFFFFFFFFFFFFFFFFFFFFFFFFFFFFFFFFF AND DUP2 MSTORE PUSH1 0x20 ADD SWAP1 DUP2 MSTORE PUSH1 0x20 ADD PUSH1 0x0 KECCAK256 PUSH1 0x3 ADD PUSH1 0x0 SWAP1 SLOAD SWAP1 PUSH2 0x100 EXP SWAP1 DIV PUSH20 0xFFFFFFFFFFFFFFFFFFFFFFFFFFFFFFFFFFFFFFFF AND PUSH20 0xFFFFFFFFFFFFFFFFFFFFFFFFFFFFFFFFFFFFFFFF AND PUSH20 0xFFFFFFFFFFFFFFFFFFFFFFFFFFFFFFFFFFFFFFFF AND DUP2 MSTORE PUSH1 0x20 ADD SWAP1 DUP2 MSTORE PUSH1 0x20 ADD PUSH1 0x0 KECCAK256 PUSH1 0x1 ADD PUSH1 0x0 PUSH2 0x100 EXP DUP2 SLOAD DUP2 PUSH20 0xFFFFFFFFFFFFFFFFFFFFFFFFFFFFFFFFFFFFFFFF MUL NOT AND SWAP1 DUP4 PUSH20 0xFFFFFFFFFFFFFFFFFFFFFFFFFFFFFFFFFFFFFFFF AND MUL OR SWAP1 SSTORE POP DUP1 PUSH1 0x2 PUSH1 0x0 DUP5 PUSH20 0xFFFFFFFFFFFFFFFFFFFFFFFFFFFFFFFFFFFFFFFF AND PUSH20 0xFFFFFFFFFFFFFFFFFFFFFFFFFFFFFFFFFFFFFFFF AND DUP2 MSTORE PUSH1 0x20 ADD SWAP1 DUP2 MSTORE PUSH1 0x20 ADD PUSH1 0x0 KECCAK256 PUSH1 0x0 DUP3 ADD MLOAD DUP2 PUSH1 0x0 ADD PUSH1 0x0 PUSH2 0x100 EXP DUP2 SLOAD DUP2 PUSH20 0xFFFFFFFFFFFFFFFFFFFFFFFFFFFFFFFFFFFFFFFF MUL NOT AND SWAP1 DUP4 PUSH20 0xFFFFFFFFFFFFFFFFFFFFFFFFFFFFFFFFFFFFFFFF AND MUL OR SWAP1 SSTORE POP PUSH1 0x20 DUP3 ADD MLOAD DUP2 PUSH1 0x1 ADD SSTORE PUSH1 0x40 DUP3 ADD MLOAD DUP2 PUSH1 0x2 ADD SSTORE PUSH1 0x60 DUP3 ADD MLOAD DUP2 PUSH1 0x3 ADD PUSH1 0x0 PUSH2 0x100 EXP DUP2 SLOAD DUP2 PUSH20 0xFFFFFFFFFFFFFFFFFFFFFFFFFFFFFFFFFFFFFFFF MUL NOT AND SWAP1 DUP4 PUSH20 0xFFFFFFFFFFFFFFFFFFFFFFFFFFFFFFFFFFFFFFFF AND MUL OR SWAP1 SSTORE POP PUSH1 0x80 DUP3 ADD MLOAD DUP2 PUSH1 0x4 ADD SSTORE PUSH1 0xA0 DUP3 ADD MLOAD DUP2 PUSH1 0x5 ADD SSTORE PUSH1 0xC0 DUP3 ADD MLOAD DUP2 PUSH1 0x6 ADD SSTORE PUSH1 0xE0 DUP3 ADD MLOAD DUP2 PUSH1 0x7 ADD PUSH1 0x0 PUSH2 0x100 EXP DUP2 SLOAD DUP2 PUSH1 0xFF MUL NOT AND SWAP1 DUP4 ISZERO ISZERO MUL OR SWAP1 SSTORE POP SWAP1 POP POP POP POP JUMP JUMPDEST PUSH1 0x40 MLOAD DUP1 PUSH2 0x100 ADD PUSH1 0x40 MSTORE DUP1 PUSH1 0x0 PUSH20 0xFFFFFFFFFFFFFFFFFFFFFFFFFFFFFFFFFFFFFFFF AND DUP2 MSTORE PUSH1 0x20 ADD PUSH1 0x0 DUP1 NOT AND DUP2 MSTORE PUSH1 0x20 ADD PUSH1 0x0 DUP2 MSTORE PUSH1 0x20 ADD PUSH1 0x0 PUSH20 0xFFFFFFFFFFFFFFFFFFFFFFFFFFFFFFFFFFFFFFFF AND DUP2 MSTORE PUSH1 0x20 ADD PUSH1 0x0 DUP1 NOT AND DUP2 MSTORE PUSH1 0x20 ADD PUSH1 0x0 DUP2 MSTORE PUSH1 0x20 ADD PUSH1 0x0 DUP2 MSTORE PUSH1 0x20 ADD PUSH1 0x0 ISZERO ISZERO DUP2 MSTORE POP SWAP1 JUMP JUMPDEST PUSH1 0x0 DUP2 CALLDATALOAD SWAP1 POP PUSH2 0x32B7 DUP2 PUSH2 0x424B JUMP JUMPDEST SWAP3 SWAP2 POP POP JUMP JUMPDEST PUSH1 0x0 DUP2 CALLDATALOAD SWAP1 POP PUSH2 0x32CC DUP2 PUSH2 0x4262 JUMP JUMPDEST SWAP3 SWAP2 POP POP JUMP JUMPDEST PUSH1 0x0 DUP2 CALLDATALOAD SWAP1 POP PUSH2 0x32E1 DUP2 PUSH2 0x4279 JUMP JUMPDEST SWAP3 SWAP2 POP POP JUMP JUMPDEST PUSH1 0x0 PUSH1 0x20 DUP3 DUP5 SUB SLT ISZERO PUSH2 0x32FD JUMPI PUSH2 0x32FC PUSH2 0x3CAC JUMP JUMPDEST JUMPDEST PUSH1 0x0 PUSH2 0x330B DUP5 DUP3 DUP6 ADD PUSH2 0x32A8 JUMP JUMPDEST SWAP2 POP POP SWAP3 SWAP2 POP POP JUMP JUMPDEST PUSH1 0x0 DUP1 PUSH1 0x40 DUP4 DUP6 SUB SLT ISZERO PUSH2 0x332B JUMPI PUSH2 0x332A PUSH2 0x3CAC JUMP JUMPDEST JUMPDEST PUSH1 0x0 PUSH2 0x3339 DUP6 DUP3 DUP7 ADD PUSH2 0x32A8 JUMP JUMPDEST SWAP3 POP POP PUSH1 0x20 PUSH2 0x334A DUP6 DUP3 DUP7 ADD PUSH2 0x32BD JUMP JUMPDEST SWAP2 POP POP SWAP3 POP SWAP3 SWAP1 POP JUMP JUMPDEST PUSH1 0x0 PUSH1 0x20 DUP3 DUP5 SUB SLT ISZERO PUSH2 0x336A JUMPI PUSH2 0x3369 PUSH2 0x3CAC JUMP JUMPDEST JUMPDEST PUSH1 0x0 PUSH2 0x3378 DUP5 DUP3 DUP6 ADD PUSH2 0x32BD JUMP JUMPDEST SWAP2 POP POP SWAP3 SWAP2 POP POP JUMP JUMPDEST PUSH1 0x0 PUSH1 0x20 DUP3 DUP5 SUB SLT ISZERO PUSH2 0x3397 JUMPI PUSH2 0x3396 PUSH2 0x3CAC JUMP JUMPDEST JUMPDEST PUSH1 0x0 PUSH2 0x33A5 DUP5 DUP3 DUP6 ADD PUSH2 0x32D2 JUMP JUMPDEST SWAP2 POP POP SWAP3 SWAP2 POP POP JUMP JUMPDEST PUSH2 0x33B7 DUP2 PUSH2 0x3BC1 JUMP JUMPDEST DUP3 MSTORE POP POP JUMP JUMPDEST PUSH2 0x33C6 DUP2 PUSH2 0x3BD3 JUMP JUMPDEST DUP3 MSTORE POP POP JUMP JUMPDEST PUSH2 0x33D5 DUP2 PUSH2 0x3BDF JUMP JUMPDEST DUP3 MSTORE POP POP JUMP JUMPDEST PUSH1 0x0 PUSH2 0x33E8 PUSH1 0x27 DUP4 PUSH2 0x3ACC JUMP JUMPDEST SWAP2 POP PUSH2 0x33F3 DUP3 PUSH2 0x3CB1 JUMP JUMPDEST PUSH1 0x40 DUP3 ADD SWAP1 POP SWAP2 SWAP1 POP JUMP JUMPDEST PUSH1 0x0 PUSH2 0x340B PUSH1 0x19 DUP4 PUSH2 0x3ACC JUMP JUMPDEST SWAP2 POP PUSH2 0x3416 DUP3 PUSH2 0x3D00 JUMP JUMPDEST PUSH1 0x20 DUP3 ADD SWAP1 POP SWAP2 SWAP1 POP JUMP JUMPDEST PUSH1 0x0 PUSH2 0x342E PUSH1 0x26 DUP4 PUSH2 0x3ACC JUMP JUMPDEST SWAP2 POP PUSH2 0x3439 DUP3 PUSH2 0x3D29 JUMP JUMPDEST PUSH1 0x40 DUP3 ADD SWAP1 POP SWAP2 SWAP1 POP JUMP JUMPDEST PUSH1 0x0 PUSH2 0x3451 PUSH1 0x22 DUP4 PUSH2 0x3ACC JUMP JUMPDEST SWAP2 POP PUSH2 0x345C DUP3 PUSH2 0x3D78 JUMP JUMPDEST PUSH1 0x40 DUP3 ADD SWAP1 POP SWAP2 SWAP1 POP JUMP JUMPDEST PUSH1 0x0 PUSH2 0x3474 PUSH1 0x16 DUP4 PUSH2 0x3ACC JUMP JUMPDEST SWAP2 POP PUSH2 0x347F DUP3 PUSH2 0x3DC7 JUMP JUMPDEST PUSH1 0x20 DUP3 ADD SWAP1 POP SWAP2 SWAP1 POP JUMP JUMPDEST PUSH1 0x0 PUSH2 0x3497 PUSH1 0x30 DUP4 PUSH2 0x3ACC JUMP JUMPDEST SWAP2 POP PUSH2 0x34A2 DUP3 PUSH2 0x3DF0 JUMP JUMPDEST PUSH1 0x40 DUP3 ADD SWAP1 POP SWAP2 SWAP1 POP JUMP JUMPDEST PUSH1 0x0 PUSH2 0x34BA PUSH1 0x15 DUP4 PUSH2 0x3ACC JUMP JUMPDEST SWAP2 POP PUSH2 0x34C5 DUP3 PUSH2 0x3E3F JUMP JUMPDEST PUSH1 0x20 DUP3 ADD SWAP1 POP SWAP2 SWAP1 POP JUMP JUMPDEST PUSH1 0x0 PUSH2 0x34DD PUSH1 0x22 DUP4 PUSH2 0x3ACC JUMP JUMPDEST SWAP2 POP PUSH2 0x34E8 DUP3 PUSH2 0x3E68 JUMP JUMPDEST PUSH1 0x40 DUP3 ADD SWAP1 POP SWAP2 SWAP1 POP JUMP JUMPDEST PUSH1 0x0 PUSH2 0x3500 PUSH1 0x1D DUP4 PUSH2 0x3ACC JUMP JUMPDEST SWAP2 POP PUSH2 0x350B DUP3 PUSH2 0x3EB7 JUMP JUMPDEST PUSH1 0x20 DUP3 ADD SWAP1 POP SWAP2 SWAP1 POP JUMP JUMPDEST PUSH1 0x0 PUSH2 0x3523 PUSH1 0x21 DUP4 PUSH2 0x3ACC JUMP JUMPDEST SWAP2 POP PUSH2 0x352E DUP3 PUSH2 0x3EE0 JUMP JUMPDEST PUSH1 0x40 DUP3 ADD SWAP1 POP SWAP2 SWAP1 POP JUMP JUMPDEST PUSH1 0x0 PUSH2 0x3546 PUSH1 0x2D DUP4 PUSH2 0x3ACC JUMP JUMPDEST SWAP2 POP PUSH2 0x3551 DUP3 PUSH2 0x3F2F JUMP JUMPDEST PUSH1 0x40 DUP3 ADD SWAP1 POP SWAP2 SWAP1 POP JUMP JUMPDEST PUSH1 0x0 PUSH2 0x3569 PUSH1 0x2A DUP4 PUSH2 0x3ACC JUMP JUMPDEST SWAP2 POP PUSH2 0x3574 DUP3 PUSH2 0x3F7E JUMP JUMPDEST PUSH1 0x40 DUP3 ADD SWAP1 POP SWAP2 SWAP1 POP JUMP JUMPDEST PUSH1 0x0 PUSH2 0x358C PUSH1 0x22 DUP4 PUSH2 0x3ACC JUMP JUMPDEST SWAP2 POP PUSH2 0x3597 DUP3 PUSH2 0x3FCD JUMP JUMPDEST PUSH1 0x40 DUP3 ADD SWAP1 POP SWAP2 SWAP1 POP JUMP JUMPDEST PUSH1 0x0 PUSH2 0x35AF PUSH1 0x13 DUP4 PUSH2 0x3ACC JUMP JUMPDEST SWAP2 POP PUSH2 0x35BA DUP3 PUSH2 0x401C JUMP JUMPDEST PUSH1 0x20 DUP3 ADD SWAP1 POP SWAP2 SWAP1 POP JUMP JUMPDEST PUSH1 0x0 PUSH2 0x35D2 PUSH1 0x27 DUP4 PUSH2 0x3ACC JUMP JUMPDEST SWAP2 POP PUSH2 0x35DD DUP3 PUSH2 0x4045 JUMP JUMPDEST PUSH1 0x40 DUP3 ADD SWAP1 POP SWAP2 SWAP1 POP JUMP JUMPDEST PUSH1 0x0 PUSH2 0x35F5 PUSH1 0x28 DUP4 PUSH2 0x3ACC JUMP JUMPDEST SWAP2 POP PUSH2 0x3600 DUP3 PUSH2 0x4094 JUMP JUMPDEST PUSH1 0x40 DUP3 ADD SWAP1 POP SWAP2 SWAP1 POP JUMP JUMPDEST PUSH1 0x0 PUSH2 0x3618 PUSH1 0x18 DUP4 PUSH2 0x3ACC JUMP JUMPDEST SWAP2 POP PUSH2 0x3623 DUP3 PUSH2 0x40E3 JUMP JUMPDEST PUSH1 0x20 DUP3 ADD SWAP1 POP SWAP2 SWAP1 POP JUMP JUMPDEST PUSH1 0x0 PUSH2 0x363B PUSH1 0x26 DUP4 PUSH2 0x3ACC JUMP JUMPDEST SWAP2 POP PUSH2 0x3646 DUP3 PUSH2 0x410C JUMP JUMPDEST PUSH1 0x40 DUP3 ADD SWAP1 POP SWAP2 SWAP1 POP JUMP JUMPDEST PUSH1 0x0 PUSH2 0x365E PUSH1 0x2A DUP4 PUSH2 0x3ACC JUMP JUMPDEST SWAP2 POP PUSH2 0x3669 DUP3 PUSH2 0x415B JUMP JUMPDEST PUSH1 0x40 DUP3 ADD SWAP1 POP SWAP2 SWAP1 POP JUMP JUMPDEST PUSH1 0x0 PUSH2 0x3681 PUSH1 0x1F DUP4 PUSH2 0x3ACC JUMP JUMPDEST SWAP2 POP PUSH2 0x368C DUP3 PUSH2 0x41AA JUMP JUMPDEST PUSH1 0x20 DUP3 ADD SWAP1 POP SWAP2 SWAP1 POP JUMP JUMPDEST PUSH1 0x0 PUSH2 0x36A4 PUSH1 0x2A DUP4 PUSH2 0x3ACC JUMP JUMPDEST SWAP2 POP PUSH2 0x36AF DUP3 PUSH2 0x41D3 JUMP JUMPDEST PUSH1 0x40 DUP3 ADD SWAP1 POP SWAP2 SWAP1 POP JUMP JUMPDEST PUSH1 0x0 PUSH2 0x36C7 PUSH1 0x15 DUP4 PUSH2 0x3ACC JUMP JUMPDEST SWAP2 POP PUSH2 0x36D2 DUP3 PUSH2 0x4222 JUMP JUMPDEST PUSH1 0x20 DUP3 ADD SWAP1 POP SWAP2 SWAP1 POP JUMP JUMPDEST PUSH2 0x36E6 DUP2 PUSH2 0x3C09 JUMP JUMPDEST DUP3 MSTORE POP POP JUMP JUMPDEST PUSH2 0x36FD PUSH2 0x36F8 DUP3 PUSH2 0x3C09 JUMP JUMPDEST PUSH2 0x3C13 JUMP JUMPDEST DUP3 MSTORE POP POP JUMP JUMPDEST PUSH1 0x0 PUSH2 0x370F DUP3 DUP5 PUSH2 0x36EC JUMP JUMPDEST PUSH1 0x20 DUP3 ADD SWAP2 POP DUP2 SWAP1 POP SWAP3 SWAP2 POP POP JUMP JUMPDEST PUSH1 0x0 PUSH2 0x372A DUP3 DUP6 PUSH2 0x36EC JUMP JUMPDEST PUSH1 0x20 DUP3 ADD SWAP2 POP PUSH2 0x373A DUP3 DUP5 PUSH2 0x36EC JUMP JUMPDEST PUSH1 0x20 DUP3 ADD SWAP2 POP DUP2 SWAP1 POP SWAP4 SWAP3 POP POP POP JUMP JUMPDEST PUSH1 0x0 PUSH2 0x100 DUP3 ADD SWAP1 POP PUSH2 0x3760 PUSH1 0x0 DUP4 ADD DUP12 PUSH2 0x33AE JUMP JUMPDEST PUSH2 0x376D PUSH1 0x20 DUP4 ADD DUP11 PUSH2 0x33CC JUMP JUMPDEST PUSH2 0x377A PUSH1 0x40 DUP4 ADD DUP10 PUSH2 0x36DD JUMP JUMPDEST PUSH2 0x3787 PUSH1 0x60 DUP4 ADD DUP9 PUSH2 0x33AE JUMP JUMPDEST PUSH2 0x3794 PUSH1 0x80 DUP4 ADD DUP8 PUSH2 0x33CC JUMP JUMPDEST PUSH2 0x37A1 PUSH1 0xA0 DUP4 ADD DUP7 PUSH2 0x36DD JUMP JUMPDEST PUSH2 0x37AE PUSH1 0xC0 DUP4 ADD DUP6 PUSH2 0x36DD JUMP JUMPDEST PUSH2 0x37BB PUSH1 0xE0 DUP4 ADD DUP5 PUSH2 0x33BD JUMP JUMPDEST SWAP10 SWAP9 POP POP POP POP POP POP POP POP POP JUMP JUMPDEST PUSH1 0x0 PUSH1 0x20 DUP3 ADD SWAP1 POP PUSH2 0x37DD PUSH1 0x0 DUP4 ADD DUP5 PUSH2 0x33CC JUMP JUMPDEST SWAP3 SWAP2 POP POP JUMP JUMPDEST PUSH1 0x0 PUSH1 0x20 DUP3 ADD SWAP1 POP DUP2 DUP2 SUB PUSH1 0x0 DUP4 ADD MSTORE PUSH2 0x37FC DUP2 PUSH2 0x33DB JUMP JUMPDEST SWAP1 POP SWAP2 SWAP1 POP JUMP JUMPDEST PUSH1 0x0 PUSH1 0x20 DUP3 ADD SWAP1 POP DUP2 DUP2 SUB PUSH1 0x0 DUP4 ADD MSTORE PUSH2 0x381C DUP2 PUSH2 0x33FE JUMP JUMPDEST SWAP1 POP SWAP2 SWAP1 POP JUMP JUMPDEST PUSH1 0x0 PUSH1 0x20 DUP3 ADD SWAP1 POP DUP2 DUP2 SUB PUSH1 0x0 DUP4 ADD MSTORE PUSH2 0x383C DUP2 PUSH2 0x3421 JUMP JUMPDEST SWAP1 POP SWAP2 SWAP1 POP JUMP JUMPDEST PUSH1 0x0 PUSH1 0x20 DUP3 ADD SWAP1 POP DUP2 DUP2 SUB PUSH1 0x0 DUP4 ADD MSTORE PUSH2 0x385C DUP2 PUSH2 0x3444 JUMP JUMPDEST SWAP1 POP SWAP2 SWAP1 POP JUMP JUMPDEST PUSH1 0x0 PUSH1 0x20 DUP3 ADD SWAP1 POP DUP2 DUP2 SUB PUSH1 0x0 DUP4 ADD MSTORE PUSH2 0x387C DUP2 PUSH2 0x3467 JUMP JUMPDEST SWAP1 POP SWAP2 SWAP1 POP JUMP JUMPDEST PUSH1 0x0 PUSH1 0x20 DUP3 ADD SWAP1 POP DUP2 DUP2 SUB PUSH1 0x0 DUP4 ADD MSTORE PUSH2 0x389C DUP2 PUSH2 0x348A JUMP JUMPDEST SWAP1 POP SWAP2 SWAP1 POP JUMP JUMPDEST PUSH1 0x0 PUSH1 0x20 DUP3 ADD SWAP1 POP DUP2 DUP2 SUB PUSH1 0x0 DUP4 ADD MSTORE PUSH2 0x38BC DUP2 PUSH2 0x34AD JUMP JUMPDEST SWAP1 POP SWAP2 SWAP1 POP JUMP JUMPDEST PUSH1 0x0 PUSH1 0x20 DUP3 ADD SWAP1 POP DUP2 DUP2 SUB PUSH1 0x0 DUP4 ADD MSTORE PUSH2 0x38DC DUP2 PUSH2 0x34D0 JUMP JUMPDEST SWAP1 POP SWAP2 SWAP1 POP JUMP JUMPDEST PUSH1 0x0 PUSH1 0x20 DUP3 ADD SWAP1 POP DUP2 DUP2 SUB PUSH1 0x0 DUP4 ADD MSTORE PUSH2 0x38FC DUP2 PUSH2 0x34F3 JUMP JUMPDEST SWAP1 POP SWAP2 SWAP1 POP JUMP JUMPDEST PUSH1 0x0 PUSH1 0x20 DUP3 ADD SWAP1 POP DUP2 DUP2 SUB PUSH1 0x0 DUP4 ADD MSTORE PUSH2 0x391C DUP2 PUSH2 0x3516 JUMP JUMPDEST SWAP1 POP SWAP2 SWAP1 POP JUMP JUMPDEST PUSH1 0x0 PUSH1 0x20 DUP3 ADD SWAP1 POP DUP2 DUP2 SUB PUSH1 0x0 DUP4 ADD MSTORE PUSH2 0x393C DUP2 PUSH2 0x3539 JUMP JUMPDEST SWAP1 POP SWAP2 SWAP1 POP JUMP JUMPDEST PUSH1 0x0 PUSH1 0x20 DUP3 ADD SWAP1 POP DUP2 DUP2 SUB PUSH1 0x0 DUP4 ADD MSTORE PUSH2 0x395C DUP2 PUSH2 0x355C JUMP JUMPDEST SWAP1 POP SWAP2 SWAP1 POP JUMP JUMPDEST PUSH1 0x0 PUSH1 0x20 DUP3 ADD SWAP1 POP DUP2 DUP2 SUB PUSH1 0x0 DUP4 ADD MSTORE PUSH2 0x397C DUP2 PUSH2 0x357F JUMP JUMPDEST SWAP1 POP SWAP2 SWAP1 POP JUMP JUMPDEST PUSH1 0x0 PUSH1 0x20 DUP3 ADD SWAP1 POP DUP2 DUP2 SUB PUSH1 0x0 DUP4 ADD MSTORE PUSH2 0x399C DUP2 PUSH2 0x35A2 JUMP JUMPDEST SWAP1 POP SWAP2 SWAP1 POP JUMP JUMPDEST PUSH1 0x0 PUSH1 0x20 DUP3 ADD SWAP1 POP DUP2 DUP2 SUB PUSH1 0x0 DUP4 ADD MSTORE PUSH2 0x39BC DUP2 PUSH2 0x35C5 JUMP JUMPDEST SWAP1 POP SWAP2 SWAP1 POP JUMP JUMPDEST PUSH1 0x0 PUSH1 0x20 DUP3 ADD SWAP1 POP DUP2 DUP2 SUB PUSH1 0x0 DUP4 ADD MSTORE PUSH2 0x39DC DUP2 PUSH2 0x35E8 JUMP JUMPDEST SWAP1 POP SWAP2 SWAP1 POP JUMP JUMPDEST PUSH1 0x0 PUSH1 0x20 DUP3 ADD SWAP1 POP DUP2 DUP2 SUB PUSH1 0x0 DUP4 ADD MSTORE PUSH2 0x39FC DUP2 PUSH2 0x360B JUMP JUMPDEST SWAP1 POP SWAP2 SWAP1 POP JUMP JUMPDEST PUSH1 0x0 PUSH1 0x20 DUP3 ADD SWAP1 POP DUP2 DUP2 SUB PUSH1 0x0 DUP4 ADD MSTORE PUSH2 0x3A1C DUP2 PUSH2 0x362E JUMP JUMPDEST SWAP1 POP SWAP2 SWAP1 POP JUMP JUMPDEST PUSH1 0x0 PUSH1 0x20 DUP3 ADD SWAP1 POP DUP2 DUP2 SUB PUSH1 0x0 DUP4 ADD MSTORE PUSH2 0x3A3C DUP2 PUSH2 0x3651 JUMP JUMPDEST SWAP1 POP SWAP2 SWAP1 POP JUMP JUMPDEST PUSH1 0x0 PUSH1 0x20 DUP3 ADD SWAP1 POP DUP2 DUP2 SUB PUSH1 0x0 DUP4 ADD MSTORE PUSH2 0x3A5C DUP2 PUSH2 0x3674 JUMP JUMPDEST SWAP1 POP SWAP2 SWAP1 POP JUMP JUMPDEST PUSH1 0x0 PUSH1 0x20 DUP3 ADD SWAP1 POP DUP2 DUP2 SUB PUSH1 0x0 DUP4 ADD MSTORE PUSH2 0x3A7C DUP2 PUSH2 0x3697 JUMP JUMPDEST SWAP1 POP SWAP2 SWAP1 POP JUMP JUMPDEST PUSH1 0x0 PUSH1 0x20 DUP3 ADD SWAP1 POP DUP2 DUP2 SUB PUSH1 0x0 DUP4 ADD MSTORE PUSH2 0x3A9C DUP2 PUSH2 0x36BA JUMP JUMPDEST SWAP1 POP SWAP2 SWAP1 POP JUMP JUMPDEST PUSH1 0x0 PUSH1 0x40 DUP3 ADD SWAP1 POP PUSH2 0x3AB8 PUSH1 0x0 DUP4 ADD DUP6 PUSH2 0x36DD JUMP JUMPDEST PUSH2 0x3AC5 PUSH1 0x20 DUP4 ADD DUP5 PUSH2 0x33AE JUMP JUMPDEST SWAP4 SWAP3 POP POP POP JUMP JUMPDEST PUSH1 0x0 DUP3 DUP3 MSTORE PUSH1 0x20 DUP3 ADD SWAP1 POP SWAP3 SWAP2 POP POP JUMP JUMPDEST PUSH1 0x0 PUSH2 0x3AE8 DUP3 PUSH2 0x3C09 JUMP JUMPDEST SWAP2 POP PUSH2 0x3AF3 DUP4 PUSH2 0x3C09 JUMP JUMPDEST SWAP3 POP DUP3 PUSH32 0xFFFFFFFFFFFFFFFFFFFFFFFFFFFFFFFFFFFFFFFFFFFFFFFFFFFFFFFFFFFFFFFF SUB DUP3 GT ISZERO PUSH2 0x3B28 JUMPI PUSH2 0x3B27 PUSH2 0x3C4E JUMP JUMPDEST JUMPDEST DUP3 DUP3 ADD SWAP1 POP SWAP3 SWAP2 POP POP JUMP JUMPDEST PUSH1 0x0 PUSH2 0x3B3E DUP3 PUSH2 0x3C09 JUMP JUMPDEST SWAP2 POP PUSH2 0x3B49 DUP4 PUSH2 0x3C09 JUMP JUMPDEST SWAP3 POP DUP2 PUSH32 0xFFFFFFFFFFFFFFFFFFFFFFFFFFFFFFFFFFFFFFFFFFFFFFFFFFFFFFFFFFFFFFFF DIV DUP4 GT DUP3 ISZERO ISZERO AND ISZERO PUSH2 0x3B82 JUMPI PUSH2 0x3B81 PUSH2 0x3C4E JUMP JUMPDEST JUMPDEST DUP3 DUP3 MUL SWAP1 POP SWAP3 SWAP2 POP POP JUMP JUMPDEST PUSH1 0x0 PUSH2 0x3B98 DUP3 PUSH2 0x3C09 JUMP JUMPDEST SWAP2 POP PUSH2 0x3BA3 DUP4 PUSH2 0x3C09 JUMP JUMPDEST SWAP3 POP DUP3 DUP3 LT ISZERO PUSH2 0x3BB6 JUMPI PUSH2 0x3BB5 PUSH2 0x3C4E JUMP JUMPDEST JUMPDEST DUP3 DUP3 SUB SWAP1 POP SWAP3 SWAP2 POP POP JUMP JUMPDEST PUSH1 0x0 PUSH2 0x3BCC DUP3 PUSH2 0x3BE9 JUMP JUMPDEST SWAP1 POP SWAP2 SWAP1 POP JUMP JUMPDEST PUSH1 0x0 DUP2 ISZERO ISZERO SWAP1 POP SWAP2 SWAP1 POP JUMP JUMPDEST PUSH1 0x0 DUP2 SWAP1 POP SWAP2 SWAP1 POP JUMP JUMPDEST PUSH1 0x0 PUSH20 0xFFFFFFFFFFFFFFFFFFFFFFFFFFFFFFFFFFFFFFFF DUP3 AND SWAP1 POP SWAP2 SWAP1 POP JUMP JUMPDEST PUSH1 0x0 DUP2 SWAP1 POP SWAP2 SWAP1 POP JUMP JUMPDEST PUSH1 0x0 DUP2 SWAP1 POP SWAP2 SWAP1 POP JUMP JUMPDEST PUSH1 0x0 PUSH2 0x3C28 DUP3 PUSH2 0x3C09 JUMP JUMPDEST SWAP2 POP PUSH2 0x3C33 DUP4 PUSH2 0x3C09 JUMP JUMPDEST SWAP3 POP DUP3 PUSH2 0x3C43 JUMPI PUSH2 0x3C42 PUSH2 0x3C7D JUMP JUMPDEST JUMPDEST DUP3 DUP3 MOD SWAP1 POP SWAP3 SWAP2 POP POP JUMP JUMPDEST PUSH32 0x4E487B7100000000000000000000000000000000000000000000000000000000 PUSH1 0x0 MSTORE PUSH1 0x11 PUSH1 0x4 MSTORE PUSH1 0x24 PUSH1 0x0 REVERT JUMPDEST PUSH32 0x4E487B7100000000000000000000000000000000000000000000000000000000 PUSH1 0x0 MSTORE PUSH1 0x12 PUSH1 0x4 MSTORE PUSH1 0x24 PUSH1 0x0 REVERT JUMPDEST PUSH1 0x0 DUP1 REVERT JUMPDEST PUSH32 0x546865207365637265744E756D626572206F6620686F737420646F6573206E6F PUSH1 0x0 DUP3 ADD MSTORE PUSH32 0x74206D6174636800000000000000000000000000000000000000000000000000 PUSH1 0x20 DUP3 ADD MSTORE POP JUMP JUMPDEST PUSH32 0x546865206775657374206973206E6F7420766572696669656400000000000000 PUSH1 0x0 DUP3 ADD MSTORE POP JUMP JUMPDEST PUSH32 0x4861736820636F6C6C6973696F6E2C20706C6561736520757365206F74686572 PUSH1 0x0 DUP3 ADD MSTORE PUSH32 0x2076616C75650000000000000000000000000000000000000000000000000000 PUSH1 0x20 DUP3 ADD MSTORE POP JUMP JUMPDEST PUSH32 0x57616974206D6F726520626C6F636B7320666F7220737461727420726F6C6C69 PUSH1 0x0 DUP3 ADD MSTORE PUSH32 0x6E67000000000000000000000000000000000000000000000000000000000000 PUSH1 0x20 DUP3 ADD MSTORE POP JUMP JUMPDEST PUSH32 0x6E6F206775657374206A6F696E207468652067616D6500000000000000000000 PUSH1 0x0 DUP3 ADD MSTORE POP JUMP JUMPDEST PUSH32 0x596F752073686F756C642068617665206174206C656173742033206574682074 PUSH1 0x0 DUP3 ADD MSTORE PUSH32 0x6F207374617274207468652067616D6500000000000000000000000000000000 PUSH1 0x20 DUP3 ADD MSTORE POP JUMP JUMPDEST PUSH32 0x596F7520616C726561647920696E20612067616D650000000000000000000000 PUSH1 0x0 DUP3 ADD MSTORE POP JUMP JUMPDEST PUSH32 0x43616E206E6F742066696E642074686520686F7374206F6620796F7572206761 PUSH1 0x0 DUP3 ADD MSTORE PUSH32 0x6D65000000000000000000000000000000000000000000000000000000000000 PUSH1 0x20 DUP3 ADD MSTORE POP JUMP JUMPDEST PUSH32 0x5468652075736572206469646E27742063726561746520612067616D65000000 PUSH1 0x0 DUP3 ADD MSTORE POP JUMP JUMPDEST PUSH32 0x596F752063616E206E6F7420706C617920616761696E737420796F757273656C PUSH1 0x0 DUP3 ADD MSTORE PUSH32 0x6600000000000000000000000000000000000000000000000000000000000000 PUSH1 0x20 DUP3 ADD MSTORE POP JUMP JUMPDEST PUSH32 0x596F757220617265206E6F742077656C636F6D6520746F207061727469636970 PUSH1 0x0 DUP3 ADD MSTORE PUSH32 0x61746520746869732067616D6500000000000000000000000000000000000000 PUSH1 0x20 DUP3 ADD MSTORE POP JUMP JUMPDEST PUSH32 0x596F752063616E6E6F74207465726D696E617465207468652067616D65206E6F PUSH1 0x0 DUP3 ADD MSTORE PUSH32 0x772C20636865636B203200000000000000000000000000000000000000000000 PUSH1 0x20 DUP3 ADD MSTORE POP JUMP JUMPDEST PUSH32 0x57616974696E6720666F7220677565737420746F206A6F696E20746865206761 PUSH1 0x0 DUP3 ADD MSTORE PUSH32 0x6D65000000000000000000000000000000000000000000000000000000000000 PUSH1 0x20 DUP3 ADD MSTORE POP JUMP JUMPDEST PUSH32 0x4E6F206D6F6E657920696E2062616C616E636500000000000000000000000000 PUSH1 0x0 DUP3 ADD MSTORE POP JUMP JUMPDEST PUSH32 0x54686520736563726574206E756D626572206F66206775657374206861732076 PUSH1 0x0 DUP3 ADD MSTORE PUSH32 0x6572696669656400000000000000000000000000000000000000000000000000 PUSH1 0x20 DUP3 ADD MSTORE POP JUMP JUMPDEST PUSH32 0x546865207365637265744E756D626572206F6620677565737420646F6573206E PUSH1 0x0 DUP3 ADD MSTORE PUSH32 0x6F74206D61746368000000000000000000000000000000000000000000000000 PUSH1 0x20 DUP3 ADD MSTORE POP JUMP JUMPDEST PUSH32 0x54686520686F7374206973206E6F742076657269666965640000000000000000 PUSH1 0x0 DUP3 ADD MSTORE POP JUMP JUMPDEST PUSH32 0x54686520736563726574206E756D626572206F6620686F737420686173207665 PUSH1 0x0 DUP3 ADD MSTORE PUSH32 0x7269666965640000000000000000000000000000000000000000000000000000 PUSH1 0x20 DUP3 ADD MSTORE POP JUMP JUMPDEST PUSH32 0x596F752063616E6E6F74207465726D696E617465207468652067616D65206E6F PUSH1 0x0 DUP3 ADD MSTORE PUSH32 0x772C20636865636B203100000000000000000000000000000000000000000000 PUSH1 0x20 DUP3 ADD MSTORE POP JUMP JUMPDEST PUSH32 0x43616E6E6F7420776974686472617720647572696E67207468652067616D6500 PUSH1 0x0 DUP3 ADD MSTORE POP JUMP JUMPDEST PUSH32 0x596F752063616E6E6F74207465726D696E617465207468652067616D65206E6F PUSH1 0x0 DUP3 ADD MSTORE PUSH32 0x772C20636865636B203300000000000000000000000000000000000000000000 PUSH1 0x20 DUP3 ADD MSTORE POP JUMP JUMPDEST PUSH32 0x596F7520617265206E6F7420696E20612067616D650000000000000000000000 PUSH1 0x0 DUP3 ADD MSTORE POP JUMP JUMPDEST PUSH2 0x4254 DUP2 PUSH2 0x3BC1 JUMP JUMPDEST DUP2 EQ PUSH2 0x425F JUMPI PUSH1 0x0 DUP1 REVERT JUMPDEST POP JUMP JUMPDEST PUSH2 0x426B DUP2 PUSH2 0x3BDF JUMP JUMPDEST DUP2 EQ PUSH2 0x4276 JUMPI PUSH1 0x0 DUP1 REVERT JUMPDEST POP JUMP JUMPDEST PUSH2 0x4282 DUP2 PUSH2 0x3C09 JUMP JUMPDEST DUP2 EQ PUSH2 0x428D JUMPI PUSH1 0x0 DUP1 REVERT JUMPDEST POP JUMP INVALID LOG2 PUSH5 0x6970667358 0x22 SLT KECCAK256 0x2B DUP15 SWAP13 INVALID PUSH16 0x411342870C6CA86A78FF1E3E64FCCE62 0xC1 BALANCE ORIGIN PUSH12 0xD5BBB80E5AB99A64736F6C63 NUMBER STOP ADDMOD SMOD STOP CALLER "
				},
				"gasEstimates": {
					"creation": {
						"codeDepositCost": "3418800",
						"executionCost": "28087",
						"totalCost": "3446887"
					},
					"external": {
						"Games(address)": "infinite",
						"Players(address)": "infinite",
						"createPrivateGame(address,bytes32)": "infinite",
						"createPublicGame(bytes32)": "infinite",
						"getHash(uint256)": "infinite",
						"joinGame(address,bytes32)": "infinite",
						"roll()": "infinite",
						"terminateGame()": "infinite",
						"verification(uint256)": "infinite",
						"withdraw(address)": "infinite"
					},
					"internal": {
						"resetGameAll(address)": "infinite"
					}
				},
				"methodIdentifiers": {
					"Games(address)": "e367b5d5",
					"Players(address)": "2bff8dd6",
					"createPrivateGame(address,bytes32)": "ed02cb7c",
					"createPublicGame(bytes32)": "c0277338",
					"getHash(uint256)": "6b2fafa9",
					"joinGame(address,bytes32)": "e810c81f",
					"roll()": "cd5e3c5d",
					"terminateGame()": "97661f31",
					"verification(uint256)": "c05a911c",
					"withdraw(address)": "51cff8d9"
				}
			},
			"storageLayout": {
				"storage": [
					{
						"astId": 5,
						"contract": "s1911027_2.sol:DiceGame",
						"label": "owner",
						"offset": 0,
						"slot": "0",
						"type": "t_address"
					},
					{
						"astId": 32,
						"contract": "s1911027_2.sol:DiceGame",
						"label": "Players",
						"offset": 0,
						"slot": "1",
						"type": "t_mapping(t_address,t_struct(Player)10_storage)"
					},
					{
						"astId": 37,
						"contract": "s1911027_2.sol:DiceGame",
						"label": "Games",
						"offset": 0,
						"slot": "2",
						"type": "t_mapping(t_address,t_struct(Game)27_storage)"
					}
				],
				"types": {
					"t_address": {
						"encoding": "inplace",
						"label": "address",
						"numberOfBytes": "20"
					},
					"t_bool": {
						"encoding": "inplace",
						"label": "bool",
						"numberOfBytes": "1"
					},
					"t_bytes32": {
						"encoding": "inplace",
						"label": "bytes32",
						"numberOfBytes": "32"
					},
					"t_mapping(t_address,t_struct(Game)27_storage)": {
						"encoding": "mapping",
						"key": "t_address",
						"label": "mapping(address => struct DiceGame.Game)",
						"numberOfBytes": "32",
						"value": "t_struct(Game)27_storage"
					},
					"t_mapping(t_address,t_struct(Player)10_storage)": {
						"encoding": "mapping",
						"key": "t_address",
						"label": "mapping(address => struct DiceGame.Player)",
						"numberOfBytes": "32",
						"value": "t_struct(Player)10_storage"
					},
					"t_struct(Game)27_storage": {
						"encoding": "inplace",
						"label": "struct DiceGame.Game",
						"members": [
							{
								"astId": 12,
								"contract": "s1911027_2.sol:DiceGame",
								"label": "host",
								"offset": 0,
								"slot": "0",
								"type": "t_address"
							},
							{
								"astId": 14,
								"contract": "s1911027_2.sol:DiceGame",
								"label": "hostHash",
								"offset": 0,
								"slot": "1",
								"type": "t_bytes32"
							},
							{
								"astId": 16,
								"contract": "s1911027_2.sol:DiceGame",
								"label": "hostSecretNumber",
								"offset": 0,
								"slot": "2",
								"type": "t_uint256"
							},
							{
								"astId": 18,
								"contract": "s1911027_2.sol:DiceGame",
								"label": "guest",
								"offset": 0,
								"slot": "3",
								"type": "t_address"
							},
							{
								"astId": 20,
								"contract": "s1911027_2.sol:DiceGame",
								"label": "guestHash",
								"offset": 0,
								"slot": "4",
								"type": "t_bytes32"
							},
							{
								"astId": 22,
								"contract": "s1911027_2.sol:DiceGame",
								"label": "guestSecretNumber",
								"offset": 0,
								"slot": "5",
								"type": "t_uint256"
							},
							{
								"astId": 24,
								"contract": "s1911027_2.sol:DiceGame",
								"label": "lastBlock",
								"offset": 0,
								"slot": "6",
								"type": "t_uint256"
							},
							{
								"astId": 26,
								"contract": "s1911027_2.sol:DiceGame",
								"label": "withdrawPermit",
								"offset": 0,
								"slot": "7",
								"type": "t_bool"
							}
						],
						"numberOfBytes": "256"
					},
					"t_struct(Player)10_storage": {
						"encoding": "inplace",
						"label": "struct DiceGame.Player",
						"members": [
							{
								"astId": 7,
								"contract": "s1911027_2.sol:DiceGame",
								"label": "balance",
								"offset": 0,
								"slot": "0",
								"type": "t_uint256"
							},
							{
								"astId": 9,
								"contract": "s1911027_2.sol:DiceGame",
								"label": "hostAddress",
								"offset": 0,
								"slot": "1",
								"type": "t_address"
							}
						],
						"numberOfBytes": "64"
					},
					"t_uint256": {
						"encoding": "inplace",
						"label": "uint256",
						"numberOfBytes": "32"
					}
				}
			},
			"userdoc": {
				"kind": "user",
				"methods": {},
				"notice": "Gaming Rules 1. Create Game - Host input Secret Number into the getHash() function, return the hashvalue - Host can create a public game with the hashvalue or a private game with the guest address and the hashvalue. 2. Join Game - Guest input Secret Number into the getHash() function, return the hashvalue - Guest join a game with the host address and the hashvalue 3. Verification - Both players need to verify their identity before rolling the dice by input their secretNum to the function 4. Roll - The dice value will be generated based on the hash of players' secretNum and the last modified block number - After rolling, the game will be reset Additional Functions A. Terminate Game - The game can be terminate without rolling the dice in 4 conditions 1. The host can terminate the game if no guest join after 3 blocks 2. The host can terminate the game if the guest not verified the identity after 20 blocks, and get 1 eth from the guest as compensation. 3. The guest can terminate the game if the host not verified the identity after 20 blocks, and get 1 eth from the host as compensation. 4. Both player can terminate the game if both player not verified the identity ater 20 blocks B. Withdraw - Players cannot withdraw until the dice rolled.",
				"version": 1
			}
		}
	}
}