{
	"s1911027_part2_2.sol": {
		"Token": {
			"abi": [
				{
					"inputs": [],
					"stateMutability": "nonpayable",
					"type": "constructor"
				},
				{
					"anonymous": false,
					"inputs": [
						{
							"indexed": true,
							"internalType": "address",
							"name": "to",
							"type": "address"
						},
						{
							"indexed": false,
							"internalType": "uint256",
							"name": "value",
							"type": "uint256"
						}
					],
					"name": "Mint",
					"type": "event"
				},
				{
					"anonymous": false,
					"inputs": [
						{
							"indexed": true,
							"internalType": "address",
							"name": "from",
							"type": "address"
						},
						{
							"indexed": false,
							"internalType": "uint256",
							"name": "value",
							"type": "uint256"
						}
					],
					"name": "Sell",
					"type": "event"
				},
				{
					"anonymous": false,
					"inputs": [
						{
							"indexed": true,
							"internalType": "address",
							"name": "from",
							"type": "address"
						},
						{
							"indexed": true,
							"internalType": "address",
							"name": "to",
							"type": "address"
						},
						{
							"indexed": false,
							"internalType": "uint256",
							"name": "value",
							"type": "uint256"
						}
					],
					"name": "Transfer",
					"type": "event"
				},
				{
					"stateMutability": "payable",
					"type": "fallback"
				},
				{
					"inputs": [
						{
							"internalType": "address",
							"name": "_account",
							"type": "address"
						}
					],
					"name": "balanceOf",
					"outputs": [
						{
							"internalType": "uint256",
							"name": "",
							"type": "uint256"
						}
					],
					"stateMutability": "view",
					"type": "function"
				},
				{
					"inputs": [],
					"name": "close",
					"outputs": [],
					"stateMutability": "payable",
					"type": "function"
				},
				{
					"inputs": [],
					"name": "getName",
					"outputs": [
						{
							"internalType": "string",
							"name": "",
							"type": "string"
						}
					],
					"stateMutability": "view",
					"type": "function"
				},
				{
					"inputs": [],
					"name": "getPrice",
					"outputs": [
						{
							"internalType": "uint128",
							"name": "",
							"type": "uint128"
						}
					],
					"stateMutability": "view",
					"type": "function"
				},
				{
					"inputs": [],
					"name": "getSymbol",
					"outputs": [
						{
							"internalType": "string",
							"name": "",
							"type": "string"
						}
					],
					"stateMutability": "view",
					"type": "function"
				},
				{
					"inputs": [
						{
							"internalType": "address",
							"name": "to",
							"type": "address"
						},
						{
							"internalType": "uint256",
							"name": "value",
							"type": "uint256"
						}
					],
					"name": "mint",
					"outputs": [
						{
							"internalType": "bool",
							"name": "",
							"type": "bool"
						}
					],
					"stateMutability": "nonpayable",
					"type": "function"
				},
				{
					"inputs": [],
					"name": "owner",
					"outputs": [
						{
							"internalType": "address",
							"name": "",
							"type": "address"
						}
					],
					"stateMutability": "view",
					"type": "function"
				},
				{
					"inputs": [
						{
							"internalType": "uint256",
							"name": "value",
							"type": "uint256"
						}
					],
					"name": "sell",
					"outputs": [
						{
							"internalType": "bool",
							"name": "",
							"type": "bool"
						}
					],
					"stateMutability": "payable",
					"type": "function"
				},
				{
					"inputs": [],
					"name": "totalSupply",
					"outputs": [
						{
							"internalType": "uint256",
							"name": "",
							"type": "uint256"
						}
					],
					"stateMutability": "view",
					"type": "function"
				},
				{
					"inputs": [
						{
							"internalType": "address",
							"name": "to",
							"type": "address"
						},
						{
							"internalType": "uint256",
							"name": "value",
							"type": "uint256"
						}
					],
					"name": "transfer",
					"outputs": [
						{
							"internalType": "bool",
							"name": "",
							"type": "bool"
						}
					],
					"stateMutability": "nonpayable",
					"type": "function"
				}
			],
			"devdoc": {
				"kind": "dev",
				"methods": {},
				"version": 1
			},
			"evm": {
				"assembly": "    /* \"s1911027_part2_2.sol\":448:2844  contract Token {\r... */\n  mstore(0x40, 0x80)\n    /* \"s1911027_part2_2.sol\":964:1141  constructor() {\r... */\n  callvalue\n  dup1\n  iszero\n  tag_1\n  jumpi\n  0x00\n  dup1\n  revert\ntag_1:\n  pop\n    /* \"s1911027_part2_2.sol\":997:1007  msg.sender */\n  caller\n    /* \"s1911027_part2_2.sol\":989:994  owner */\n  0x00\n  dup1\n    /* \"s1911027_part2_2.sol\":989:1007  owner = msg.sender */\n  0x0100\n  exp\n  dup2\n  sload\n  dup2\n  0xffffffffffffffffffffffffffffffffffffffff\n  mul\n  not\n  and\n  swap1\n  dup4\n  0xffffffffffffffffffffffffffffffffffffffff\n  and\n  mul\n  or\n  swap1\n  sstore\n  pop\n    /* \"s1911027_part2_2.sol\":1018:1036  name = \"RuiboCoin\" */\n  mload(0x40)\n  dup1\n  0x40\n  add\n  0x40\n  mstore\n  dup1\n  0x09\n  dup2\n  mstore\n  0x20\n  add\n  0x527569626f436f696e0000000000000000000000000000000000000000000000\n  dup2\n  mstore\n  pop\n    /* \"s1911027_part2_2.sol\":1018:1022  name */\n  0x01\n    /* \"s1911027_part2_2.sol\":1018:1036  name = \"RuiboCoin\" */\n  swap1\n  dup1\n  mload\n  swap1\n  0x20\n  add\n  swap1\n  tag_4\n  swap3\n  swap2\n  swap1\n  tag_5\n  jump\t// in\ntag_4:\n  pop\n    /* \"s1911027_part2_2.sol\":1047:1061  symbol = \"RBC\" */\n  mload(0x40)\n  dup1\n  0x40\n  add\n  0x40\n  mstore\n  dup1\n  0x03\n  dup2\n  mstore\n  0x20\n  add\n  0x5242430000000000000000000000000000000000000000000000000000000000\n  dup2\n  mstore\n  pop\n    /* \"s1911027_part2_2.sol\":1047:1053  symbol */\n  0x02\n    /* \"s1911027_part2_2.sol\":1047:1061  symbol = \"RBC\" */\n  swap1\n  dup1\n  mload\n  swap1\n  0x20\n  add\n  swap1\n  tag_6\n  swap3\n  swap2\n  swap1\n  tag_5\n  jump\t// in\ntag_6:\n  pop\n    /* \"s1911027_part2_2.sol\":1080:1083  600 */\n  0x0258\n    /* \"s1911027_part2_2.sol\":1072:1077  price */\n  0x03\n  0x00\n    /* \"s1911027_part2_2.sol\":1072:1083  price = 600 */\n  0x0100\n  exp\n  dup2\n  sload\n  dup2\n  0xffffffffffffffffffffffffffffffff\n  mul\n  not\n  and\n  swap1\n  dup4\n  0xffffffffffffffffffffffffffffffff\n  and\n  mul\n  or\n  swap1\n  sstore\n  pop\n    /* \"s1911027_part2_2.sol\":1132:1133  0 */\n  0x00\n    /* \"s1911027_part2_2.sol\":1117:1129  totalSupply_ */\n  0x04\n    /* \"s1911027_part2_2.sol\":1117:1133  totalSupply_ = 0 */\n  dup2\n  swap1\n  sstore\n  pop\n    /* \"s1911027_part2_2.sol\":448:2844  contract Token {\r... */\n  jump(tag_7)\ntag_5:\n  dup3\n  dup1\n  sload\n  tag_8\n  swap1\n  tag_9\n  jump\t// in\ntag_8:\n  swap1\n  0x00\n  mstore\n  keccak256(0x00, 0x20)\n  swap1\n  0x1f\n  add\n  0x20\n  swap1\n  div\n  dup2\n  add\n  swap3\n  dup3\n  tag_11\n  jumpi\n  0x00\n  dup6\n  sstore\n  jump(tag_10)\ntag_11:\n  dup3\n  0x1f\n  lt\n  tag_12\n  jumpi\n  dup1\n  mload\n  not(0xff)\n  and\n  dup4\n  dup1\n  add\n  or\n  dup6\n  sstore\n  jump(tag_10)\ntag_12:\n  dup3\n  dup1\n  add\n  0x01\n  add\n  dup6\n  sstore\n  dup3\n  iszero\n  tag_10\n  jumpi\n  swap2\n  dup3\n  add\ntag_13:\n  dup3\n  dup2\n  gt\n  iszero\n  tag_14\n  jumpi\n  dup3\n  mload\n  dup3\n  sstore\n  swap2\n  0x20\n  add\n  swap2\n  swap1\n  0x01\n  add\n  swap1\n  jump(tag_13)\ntag_14:\ntag_10:\n  pop\n  swap1\n  pop\n  tag_15\n  swap2\n  swap1\n  tag_16\n  jump\t// in\ntag_15:\n  pop\n  swap1\n  jump\t// out\ntag_16:\ntag_17:\n  dup1\n  dup3\n  gt\n  iszero\n  tag_18\n  jumpi\n  0x00\n  dup2\n  0x00\n  swap1\n  sstore\n  pop\n  0x01\n  add\n  jump(tag_17)\ntag_18:\n  pop\n  swap1\n  jump\t// out\n    /* \"#utility.yul\":7:327   */\ntag_9:\n    /* \"#utility.yul\":51:57   */\n  0x00\n    /* \"#utility.yul\":88:89   */\n  0x02\n    /* \"#utility.yul\":82:86   */\n  dup3\n    /* \"#utility.yul\":78:90   */\n  div\n    /* \"#utility.yul\":68:90   */\n  swap1\n  pop\n    /* \"#utility.yul\":135:136   */\n  0x01\n    /* \"#utility.yul\":129:133   */\n  dup3\n    /* \"#utility.yul\":125:137   */\n  and\n    /* \"#utility.yul\":156:174   */\n  dup1\n    /* \"#utility.yul\":146:227   */\n  tag_21\n  jumpi\n    /* \"#utility.yul\":212:216   */\n  0x7f\n    /* \"#utility.yul\":204:210   */\n  dup3\n    /* \"#utility.yul\":200:217   */\n  and\n    /* \"#utility.yul\":190:217   */\n  swap2\n  pop\n    /* \"#utility.yul\":146:227   */\ntag_21:\n    /* \"#utility.yul\":274:276   */\n  0x20\n    /* \"#utility.yul\":266:272   */\n  dup3\n    /* \"#utility.yul\":263:277   */\n  lt\n    /* \"#utility.yul\":243:261   */\n  dup2\n    /* \"#utility.yul\":240:278   */\n  eq\n    /* \"#utility.yul\":237:321   */\n  iszero\n  tag_22\n  jumpi\n    /* \"#utility.yul\":293:311   */\n  tag_23\n  tag_24\n  jump\t// in\ntag_23:\n    /* \"#utility.yul\":237:321   */\ntag_22:\n    /* \"#utility.yul\":58:327   */\n  pop\n    /* \"#utility.yul\":7:327   */\n  swap2\n  swap1\n  pop\n  jump\t// out\n    /* \"#utility.yul\":333:513   */\ntag_24:\n    /* \"#utility.yul\":381:458   */\n  0x4e487b7100000000000000000000000000000000000000000000000000000000\n    /* \"#utility.yul\":378:379   */\n  0x00\n    /* \"#utility.yul\":371:459   */\n  mstore\n    /* \"#utility.yul\":478:482   */\n  0x22\n    /* \"#utility.yul\":475:476   */\n  0x04\n    /* \"#utility.yul\":468:483   */\n  mstore\n    /* \"#utility.yul\":502:506   */\n  0x24\n    /* \"#utility.yul\":499:500   */\n  0x00\n    /* \"#utility.yul\":492:507   */\n  revert\n    /* \"s1911027_part2_2.sol\":448:2844  contract Token {\r... */\ntag_7:\n  dataSize(sub_0)\n  dup1\n  dataOffset(sub_0)\n  0x00\n  codecopy\n  0x00\n  return\nstop\n\nsub_0: assembly {\n        /* \"s1911027_part2_2.sol\":448:2844  contract Token {\r... */\n      mstore(0x40, 0x80)\n      jumpi(tag_1, lt(calldatasize, 0x04))\n      shr(0xe0, calldataload(0x00))\n      dup1\n      0x70a08231\n      gt\n      tag_13\n      jumpi\n      dup1\n      0x70a08231\n      eq\n      tag_8\n      jumpi\n      dup1\n      0x8da5cb5b\n      eq\n      tag_9\n      jumpi\n      dup1\n      0x98d5fdca\n      eq\n      tag_10\n      jumpi\n      dup1\n      0xa9059cbb\n      eq\n      tag_11\n      jumpi\n      dup1\n      0xe4849b32\n      eq\n      tag_12\n      jumpi\n      jump(tag_2)\n    tag_13:\n      dup1\n      0x15070401\n      eq\n      tag_3\n      jumpi\n      dup1\n      0x17d7de7c\n      eq\n      tag_4\n      jumpi\n      dup1\n      0x18160ddd\n      eq\n      tag_5\n      jumpi\n      dup1\n      0x40c10f19\n      eq\n      tag_6\n      jumpi\n      dup1\n      0x43d726d6\n      eq\n      tag_7\n      jumpi\n      jump(tag_2)\n    tag_1:\n    tag_2:\n      stop\n        /* \"s1911027_part2_2.sol\":1502:1591  function getSymbol() public view returns (string memory) {\r... */\n    tag_3:\n      callvalue\n      dup1\n      iszero\n      tag_16\n      jumpi\n      0x00\n      dup1\n      revert\n    tag_16:\n      pop\n      tag_17\n      tag_18\n      jump\t// in\n    tag_17:\n      mload(0x40)\n      tag_19\n      swap2\n      swap1\n      tag_20\n      jump\t// in\n    tag_19:\n      mload(0x40)\n      dup1\n      swap2\n      sub\n      swap1\n      return\n        /* \"s1911027_part2_2.sol\":1409:1494  function getName() public view returns (string memory) {\r... */\n    tag_4:\n      callvalue\n      dup1\n      iszero\n      tag_21\n      jumpi\n      0x00\n      dup1\n      revert\n    tag_21:\n      pop\n      tag_22\n      tag_23\n      jump\t// in\n    tag_22:\n      mload(0x40)\n      tag_24\n      swap2\n      swap1\n      tag_20\n      jump\t// in\n    tag_24:\n      mload(0x40)\n      dup1\n      swap2\n      sub\n      swap1\n      return\n        /* \"s1911027_part2_2.sol\":1187:1278  function totalSupply() public view returns (uint256) {\r... */\n    tag_5:\n      callvalue\n      dup1\n      iszero\n      tag_25\n      jumpi\n      0x00\n      dup1\n      revert\n    tag_25:\n      pop\n      tag_26\n      tag_27\n      jump\t// in\n    tag_26:\n      mload(0x40)\n      tag_28\n      swap2\n      swap1\n      tag_29\n      jump\t// in\n    tag_28:\n      mload(0x40)\n      dup1\n      swap2\n      sub\n      swap1\n      return\n        /* \"s1911027_part2_2.sol\":1987:2254  function mint(address to, uint256 value) public returns (bool) {\r... */\n    tag_6:\n      callvalue\n      dup1\n      iszero\n      tag_30\n      jumpi\n      0x00\n      dup1\n      revert\n    tag_30:\n      pop\n      tag_31\n      0x04\n      dup1\n      calldatasize\n      sub\n      dup2\n      add\n      swap1\n      tag_32\n      swap2\n      swap1\n      tag_33\n      jump\t// in\n    tag_32:\n      tag_34\n      jump\t// in\n    tag_31:\n      mload(0x40)\n      tag_35\n      swap2\n      swap1\n      tag_36\n      jump\t// in\n    tag_35:\n      mload(0x40)\n      dup1\n      swap2\n      sub\n      swap1\n      return\n        /* \"s1911027_part2_2.sol\":2646:2839  function close() public payable{\r... */\n    tag_7:\n      tag_37\n      tag_38\n      jump\t// in\n    tag_37:\n      stop\n        /* \"s1911027_part2_2.sol\":1286:1397  function balanceOf(address _account) public view returns (uint256) {\r... */\n    tag_8:\n      callvalue\n      dup1\n      iszero\n      tag_39\n      jumpi\n      0x00\n      dup1\n      revert\n    tag_39:\n      pop\n      tag_40\n      0x04\n      dup1\n      calldatasize\n      sub\n      dup2\n      add\n      swap1\n      tag_41\n      swap2\n      swap1\n      tag_42\n      jump\t// in\n    tag_41:\n      tag_43\n      jump\t// in\n    tag_40:\n      mload(0x40)\n      tag_44\n      swap2\n      swap1\n      tag_29\n      jump\t// in\n    tag_44:\n      mload(0x40)\n      dup1\n      swap2\n      sub\n      swap1\n      return\n        /* \"s1911027_part2_2.sol\":582:602  address public owner */\n    tag_9:\n      callvalue\n      dup1\n      iszero\n      tag_45\n      jumpi\n      0x00\n      dup1\n      revert\n    tag_45:\n      pop\n      tag_46\n      tag_47\n      jump\t// in\n    tag_46:\n      mload(0x40)\n      tag_48\n      swap2\n      swap1\n      tag_49\n      jump\t// in\n    tag_48:\n      mload(0x40)\n      dup1\n      swap2\n      sub\n      swap1\n      return\n        /* \"s1911027_part2_2.sol\":1599:1680  function getPrice() public view returns (uint128) {\r... */\n    tag_10:\n      callvalue\n      dup1\n      iszero\n      tag_50\n      jumpi\n      0x00\n      dup1\n      revert\n    tag_50:\n      pop\n      tag_51\n      tag_52\n      jump\t// in\n    tag_51:\n      mload(0x40)\n      tag_53\n      swap2\n      swap1\n      tag_54\n      jump\t// in\n    tag_53:\n      mload(0x40)\n      dup1\n      swap2\n      sub\n      swap1\n      return\n        /* \"s1911027_part2_2.sol\":1688:1979  function transfer(address to, uint256 value) public returns (bool) {\r... */\n    tag_11:\n      callvalue\n      dup1\n      iszero\n      tag_55\n      jumpi\n      0x00\n      dup1\n      revert\n    tag_55:\n      pop\n      tag_56\n      0x04\n      dup1\n      calldatasize\n      sub\n      dup2\n      add\n      swap1\n      tag_57\n      swap2\n      swap1\n      tag_33\n      jump\t// in\n    tag_57:\n      tag_58\n      jump\t// in\n    tag_56:\n      mload(0x40)\n      tag_59\n      swap2\n      swap1\n      tag_36\n      jump\t// in\n    tag_59:\n      mload(0x40)\n      dup1\n      swap2\n      sub\n      swap1\n      return\n        /* \"s1911027_part2_2.sol\":2262:2636  function sell(uint256 value) public payable returns (bool) {\r... */\n    tag_12:\n      tag_60\n      0x04\n      dup1\n      calldatasize\n      sub\n      dup2\n      add\n      swap1\n      tag_61\n      swap2\n      swap1\n      tag_62\n      jump\t// in\n    tag_61:\n      tag_63\n      jump\t// in\n    tag_60:\n      mload(0x40)\n      tag_64\n      swap2\n      swap1\n      tag_36\n      jump\t// in\n    tag_64:\n      mload(0x40)\n      dup1\n      swap2\n      sub\n      swap1\n      return\n        /* \"s1911027_part2_2.sol\":1502:1591  function getSymbol() public view returns (string memory) {\r... */\n    tag_18:\n        /* \"s1911027_part2_2.sol\":1544:1557  string memory */\n      0x60\n        /* \"s1911027_part2_2.sol\":1577:1583  symbol */\n      0x02\n        /* \"s1911027_part2_2.sol\":1570:1583  return symbol */\n      dup1\n      sload\n      tag_66\n      swap1\n      tag_67\n      jump\t// in\n    tag_66:\n      dup1\n      0x1f\n      add\n      0x20\n      dup1\n      swap2\n      div\n      mul\n      0x20\n      add\n      mload(0x40)\n      swap1\n      dup2\n      add\n      0x40\n      mstore\n      dup1\n      swap3\n      swap2\n      swap1\n      dup2\n      dup2\n      mstore\n      0x20\n      add\n      dup3\n      dup1\n      sload\n      tag_68\n      swap1\n      tag_67\n      jump\t// in\n    tag_68:\n      dup1\n      iszero\n      tag_69\n      jumpi\n      dup1\n      0x1f\n      lt\n      tag_70\n      jumpi\n      0x0100\n      dup1\n      dup4\n      sload\n      div\n      mul\n      dup4\n      mstore\n      swap2\n      0x20\n      add\n      swap2\n      jump(tag_69)\n    tag_70:\n      dup3\n      add\n      swap2\n      swap1\n      0x00\n      mstore\n      keccak256(0x00, 0x20)\n      swap1\n    tag_71:\n      dup2\n      sload\n      dup2\n      mstore\n      swap1\n      0x01\n      add\n      swap1\n      0x20\n      add\n      dup1\n      dup4\n      gt\n      tag_71\n      jumpi\n      dup3\n      swap1\n      sub\n      0x1f\n      and\n      dup3\n      add\n      swap2\n    tag_69:\n      pop\n      pop\n      pop\n      pop\n      pop\n      swap1\n      pop\n        /* \"s1911027_part2_2.sol\":1502:1591  function getSymbol() public view returns (string memory) {\r... */\n      swap1\n      jump\t// out\n        /* \"s1911027_part2_2.sol\":1409:1494  function getName() public view returns (string memory) {\r... */\n    tag_23:\n        /* \"s1911027_part2_2.sol\":1449:1462  string memory */\n      0x60\n        /* \"s1911027_part2_2.sol\":1482:1486  name */\n      0x01\n        /* \"s1911027_part2_2.sol\":1475:1486  return name */\n      dup1\n      sload\n      tag_73\n      swap1\n      tag_67\n      jump\t// in\n    tag_73:\n      dup1\n      0x1f\n      add\n      0x20\n      dup1\n      swap2\n      div\n      mul\n      0x20\n      add\n      mload(0x40)\n      swap1\n      dup2\n      add\n      0x40\n      mstore\n      dup1\n      swap3\n      swap2\n      swap1\n      dup2\n      dup2\n      mstore\n      0x20\n      add\n      dup3\n      dup1\n      sload\n      tag_74\n      swap1\n      tag_67\n      jump\t// in\n    tag_74:\n      dup1\n      iszero\n      tag_75\n      jumpi\n      dup1\n      0x1f\n      lt\n      tag_76\n      jumpi\n      0x0100\n      dup1\n      dup4\n      sload\n      div\n      mul\n      dup4\n      mstore\n      swap2\n      0x20\n      add\n      swap2\n      jump(tag_75)\n    tag_76:\n      dup3\n      add\n      swap2\n      swap1\n      0x00\n      mstore\n      keccak256(0x00, 0x20)\n      swap1\n    tag_77:\n      dup2\n      sload\n      dup2\n      mstore\n      swap1\n      0x01\n      add\n      swap1\n      0x20\n      add\n      dup1\n      dup4\n      gt\n      tag_77\n      jumpi\n      dup3\n      swap1\n      sub\n      0x1f\n      and\n      dup3\n      add\n      swap2\n    tag_75:\n      pop\n      pop\n      pop\n      pop\n      pop\n      swap1\n      pop\n        /* \"s1911027_part2_2.sol\":1409:1494  function getName() public view returns (string memory) {\r... */\n      swap1\n      jump\t// out\n        /* \"s1911027_part2_2.sol\":1187:1278  function totalSupply() public view returns (uint256) {\r... */\n    tag_27:\n        /* \"s1911027_part2_2.sol\":1231:1238  uint256 */\n      0x00\n        /* \"s1911027_part2_2.sol\":1258:1270  totalSupply_ */\n      sload(0x04)\n        /* \"s1911027_part2_2.sol\":1251:1270  return totalSupply_ */\n      swap1\n      pop\n        /* \"s1911027_part2_2.sol\":1187:1278  function totalSupply() public view returns (uint256) {\r... */\n      swap1\n      jump\t// out\n        /* \"s1911027_part2_2.sol\":1987:2254  function mint(address to, uint256 value) public returns (bool) {\r... */\n    tag_34:\n        /* \"s1911027_part2_2.sol\":2044:2048  bool */\n      0x00\n        /* \"s1911027_part2_2.sol\":2084:2089  owner */\n      dup1\n      0x00\n      swap1\n      sload\n      swap1\n      0x0100\n      exp\n      swap1\n      div\n      0xffffffffffffffffffffffffffffffffffffffff\n      and\n        /* \"s1911027_part2_2.sol\":2070:2089  msg.sender == owner */\n      0xffffffffffffffffffffffffffffffffffffffff\n      and\n        /* \"s1911027_part2_2.sol\":2070:2080  msg.sender */\n      caller\n        /* \"s1911027_part2_2.sol\":2070:2089  msg.sender == owner */\n      0xffffffffffffffffffffffffffffffffffffffff\n      and\n      eq\n        /* \"s1911027_part2_2.sol\":2061:2129  require (msg.sender == owner, \"You are not the owner of this token\") */\n      tag_80\n      jumpi\n      mload(0x40)\n      0x08c379a000000000000000000000000000000000000000000000000000000000\n      dup2\n      mstore\n      0x04\n      add\n      tag_81\n      swap1\n      tag_82\n      jump\t// in\n    tag_81:\n      mload(0x40)\n      dup1\n      swap2\n      sub\n      swap1\n      revert\n    tag_80:\n        /* \"s1911027_part2_2.sol\":2156:2161  value */\n      dup2\n        /* \"s1911027_part2_2.sol\":2140:2148  balances */\n      0x05\n        /* \"s1911027_part2_2.sol\":2140:2152  balances[to] */\n      0x00\n        /* \"s1911027_part2_2.sol\":2149:2151  to */\n      dup6\n        /* \"s1911027_part2_2.sol\":2140:2152  balances[to] */\n      0xffffffffffffffffffffffffffffffffffffffff\n      and\n      0xffffffffffffffffffffffffffffffffffffffff\n      and\n      dup2\n      mstore\n      0x20\n      add\n      swap1\n      dup2\n      mstore\n      0x20\n      add\n      0x00\n      keccak256\n      0x00\n        /* \"s1911027_part2_2.sol\":2140:2161  balances[to] += value */\n      dup3\n      dup3\n      sload\n      tag_83\n      swap2\n      swap1\n      tag_84\n      jump\t// in\n    tag_83:\n      swap3\n      pop\n      pop\n      dup2\n      swap1\n      sstore\n      pop\n        /* \"s1911027_part2_2.sol\":2188:2193  value */\n      dup2\n        /* \"s1911027_part2_2.sol\":2172:2184  totalSupply_ */\n      0x04\n      0x00\n        /* \"s1911027_part2_2.sol\":2172:2193  totalSupply_ += value */\n      dup3\n      dup3\n      sload\n      tag_85\n      swap2\n      swap1\n      tag_84\n      jump\t// in\n    tag_85:\n      swap3\n      pop\n      pop\n      dup2\n      swap1\n      sstore\n      pop\n        /* \"s1911027_part2_2.sol\":2214:2216  to */\n      dup3\n        /* \"s1911027_part2_2.sol\":2209:2224  Mint(to, value) */\n      0xffffffffffffffffffffffffffffffffffffffff\n      and\n      0x0f6798a560793a54c3bcfe86a93cde1e73087d944c0ea20544137d4121396885\n        /* \"s1911027_part2_2.sol\":2218:2223  value */\n      dup4\n        /* \"s1911027_part2_2.sol\":2209:2224  Mint(to, value) */\n      mload(0x40)\n      tag_86\n      swap2\n      swap1\n      tag_29\n      jump\t// in\n    tag_86:\n      mload(0x40)\n      dup1\n      swap2\n      sub\n      swap1\n      log2\n        /* \"s1911027_part2_2.sol\":2242:2246  true */\n      0x01\n        /* \"s1911027_part2_2.sol\":2235:2246  return true */\n      swap1\n      pop\n        /* \"s1911027_part2_2.sol\":1987:2254  function mint(address to, uint256 value) public returns (bool) {\r... */\n      swap3\n      swap2\n      pop\n      pop\n      jump\t// out\n        /* \"s1911027_part2_2.sol\":2646:2839  function close() public payable{\r... */\n    tag_38:\n        /* \"s1911027_part2_2.sol\":2711:2716  owner */\n      0x00\n      dup1\n      sload\n      swap1\n      0x0100\n      exp\n      swap1\n      div\n      0xffffffffffffffffffffffffffffffffffffffff\n      and\n        /* \"s1911027_part2_2.sol\":2697:2716  msg.sender == owner */\n      0xffffffffffffffffffffffffffffffffffffffff\n      and\n        /* \"s1911027_part2_2.sol\":2697:2707  msg.sender */\n      caller\n        /* \"s1911027_part2_2.sol\":2697:2716  msg.sender == owner */\n      0xffffffffffffffffffffffffffffffffffffffff\n      and\n      eq\n        /* \"s1911027_part2_2.sol\":2688:2758  require (msg.sender == owner, \"You are not the owner of the contract\") */\n      tag_88\n      jumpi\n      mload(0x40)\n      0x08c379a000000000000000000000000000000000000000000000000000000000\n      dup2\n      mstore\n      0x04\n      add\n      tag_89\n      swap1\n      tag_90\n      jump\t// in\n    tag_89:\n      mload(0x40)\n      dup1\n      swap2\n      sub\n      swap1\n      revert\n    tag_88:\n        /* \"s1911027_part2_2.sol\":2769:2787  address payable to */\n      0x00\n        /* \"s1911027_part2_2.sol\":2798:2803  owner */\n      dup1\n      0x00\n      swap1\n      sload\n      swap1\n      0x0100\n      exp\n      swap1\n      div\n      0xffffffffffffffffffffffffffffffffffffffff\n      and\n        /* \"s1911027_part2_2.sol\":2769:2804  address payable to = payable(owner) */\n      swap1\n      pop\n        /* \"s1911027_part2_2.sol\":2828:2830  to */\n      dup1\n        /* \"s1911027_part2_2.sol\":2815:2831  selfdestruct(to) */\n      0xffffffffffffffffffffffffffffffffffffffff\n      and\n      selfdestruct\n        /* \"s1911027_part2_2.sol\":1286:1397  function balanceOf(address _account) public view returns (uint256) {\r... */\n    tag_43:\n        /* \"s1911027_part2_2.sol\":1344:1351  uint256 */\n      0x00\n        /* \"s1911027_part2_2.sol\":1371:1379  balances */\n      0x05\n        /* \"s1911027_part2_2.sol\":1371:1389  balances[_account] */\n      0x00\n        /* \"s1911027_part2_2.sol\":1380:1388  _account */\n      dup4\n        /* \"s1911027_part2_2.sol\":1371:1389  balances[_account] */\n      0xffffffffffffffffffffffffffffffffffffffff\n      and\n      0xffffffffffffffffffffffffffffffffffffffff\n      and\n      dup2\n      mstore\n      0x20\n      add\n      swap1\n      dup2\n      mstore\n      0x20\n      add\n      0x00\n      keccak256\n      sload\n        /* \"s1911027_part2_2.sol\":1364:1389  return balances[_account] */\n      swap1\n      pop\n        /* \"s1911027_part2_2.sol\":1286:1397  function balanceOf(address _account) public view returns (uint256) {\r... */\n      swap2\n      swap1\n      pop\n      jump\t// out\n        /* \"s1911027_part2_2.sol\":582:602  address public owner */\n    tag_47:\n      0x00\n      dup1\n      sload\n      swap1\n      0x0100\n      exp\n      swap1\n      div\n      0xffffffffffffffffffffffffffffffffffffffff\n      and\n      dup2\n      jump\t// out\n        /* \"s1911027_part2_2.sol\":1599:1680  function getPrice() public view returns (uint128) {\r... */\n    tag_52:\n        /* \"s1911027_part2_2.sol\":1640:1647  uint128 */\n      0x00\n        /* \"s1911027_part2_2.sol\":1667:1672  price */\n      0x03\n      0x00\n      swap1\n      sload\n      swap1\n      0x0100\n      exp\n      swap1\n      div\n      0xffffffffffffffffffffffffffffffff\n      and\n        /* \"s1911027_part2_2.sol\":1660:1672  return price */\n      swap1\n      pop\n        /* \"s1911027_part2_2.sol\":1599:1680  function getPrice() public view returns (uint128) {\r... */\n      swap1\n      jump\t// out\n        /* \"s1911027_part2_2.sol\":1688:1979  function transfer(address to, uint256 value) public returns (bool) {\r... */\n    tag_58:\n        /* \"s1911027_part2_2.sol\":1749:1753  bool */\n      0x00\n        /* \"s1911027_part2_2.sol\":1799:1804  value */\n      dup2\n        /* \"s1911027_part2_2.sol\":1775:1783  balances */\n      0x05\n        /* \"s1911027_part2_2.sol\":1775:1795  balances[msg.sender] */\n      0x00\n        /* \"s1911027_part2_2.sol\":1784:1794  msg.sender */\n      caller\n        /* \"s1911027_part2_2.sol\":1775:1795  balances[msg.sender] */\n      0xffffffffffffffffffffffffffffffffffffffff\n      and\n      0xffffffffffffffffffffffffffffffffffffffff\n      and\n      dup2\n      mstore\n      0x20\n      add\n      swap1\n      dup2\n      mstore\n      0x20\n      add\n      0x00\n      keccak256\n      sload\n        /* \"s1911027_part2_2.sol\":1775:1804  balances[msg.sender] >= value */\n      lt\n      iszero\n        /* \"s1911027_part2_2.sol\":1766:1829  require (balances[msg.sender] >= value, \"Insufficient Balance\") */\n      tag_94\n      jumpi\n      mload(0x40)\n      0x08c379a000000000000000000000000000000000000000000000000000000000\n      dup2\n      mstore\n      0x04\n      add\n      tag_95\n      swap1\n      tag_96\n      jump\t// in\n    tag_95:\n      mload(0x40)\n      dup1\n      swap2\n      sub\n      swap1\n      revert\n    tag_94:\n        /* \"s1911027_part2_2.sol\":1864:1869  value */\n      dup2\n        /* \"s1911027_part2_2.sol\":1840:1848  balances */\n      0x05\n        /* \"s1911027_part2_2.sol\":1840:1860  balances[msg.sender] */\n      0x00\n        /* \"s1911027_part2_2.sol\":1849:1859  msg.sender */\n      caller\n        /* \"s1911027_part2_2.sol\":1840:1860  balances[msg.sender] */\n      0xffffffffffffffffffffffffffffffffffffffff\n      and\n      0xffffffffffffffffffffffffffffffffffffffff\n      and\n      dup2\n      mstore\n      0x20\n      add\n      swap1\n      dup2\n      mstore\n      0x20\n      add\n      0x00\n      keccak256\n      0x00\n        /* \"s1911027_part2_2.sol\":1840:1869  balances[msg.sender] -= value */\n      dup3\n      dup3\n      sload\n      tag_97\n      swap2\n      swap1\n      tag_98\n      jump\t// in\n    tag_97:\n      swap3\n      pop\n      pop\n      dup2\n      swap1\n      sstore\n      pop\n        /* \"s1911027_part2_2.sol\":1896:1901  value */\n      dup2\n        /* \"s1911027_part2_2.sol\":1880:1888  balances */\n      0x05\n        /* \"s1911027_part2_2.sol\":1880:1892  balances[to] */\n      0x00\n        /* \"s1911027_part2_2.sol\":1889:1891  to */\n      dup6\n        /* \"s1911027_part2_2.sol\":1880:1892  balances[to] */\n      0xffffffffffffffffffffffffffffffffffffffff\n      and\n      0xffffffffffffffffffffffffffffffffffffffff\n      and\n      dup2\n      mstore\n      0x20\n      add\n      swap1\n      dup2\n      mstore\n      0x20\n      add\n      0x00\n      keccak256\n      0x00\n        /* \"s1911027_part2_2.sol\":1880:1901  balances[to] += value */\n      dup3\n      dup3\n      sload\n      tag_99\n      swap2\n      swap1\n      tag_84\n      jump\t// in\n    tag_99:\n      swap3\n      pop\n      pop\n      dup2\n      swap1\n      sstore\n      pop\n        /* \"s1911027_part2_2.sol\":1939:1941  to */\n      dup3\n        /* \"s1911027_part2_2.sol\":1918:1949  Transfer(msg.sender, to, value) */\n      0xffffffffffffffffffffffffffffffffffffffff\n      and\n        /* \"s1911027_part2_2.sol\":1927:1937  msg.sender */\n      caller\n        /* \"s1911027_part2_2.sol\":1918:1949  Transfer(msg.sender, to, value) */\n      0xffffffffffffffffffffffffffffffffffffffff\n      and\n      0xddf252ad1be2c89b69c2b068fc378daa952ba7f163c4a11628f55a4df523b3ef\n        /* \"s1911027_part2_2.sol\":1943:1948  value */\n      dup5\n        /* \"s1911027_part2_2.sol\":1918:1949  Transfer(msg.sender, to, value) */\n      mload(0x40)\n      tag_100\n      swap2\n      swap1\n      tag_29\n      jump\t// in\n    tag_100:\n      mload(0x40)\n      dup1\n      swap2\n      sub\n      swap1\n      log3\n        /* \"s1911027_part2_2.sol\":1967:1971  true */\n      0x01\n        /* \"s1911027_part2_2.sol\":1960:1971  return true */\n      swap1\n      pop\n        /* \"s1911027_part2_2.sol\":1688:1979  function transfer(address to, uint256 value) public returns (bool) {\r... */\n      swap3\n      swap2\n      pop\n      pop\n      jump\t// out\n        /* \"s1911027_part2_2.sol\":2262:2636  function sell(uint256 value) public payable returns (bool) {\r... */\n    tag_63:\n        /* \"s1911027_part2_2.sol\":2315:2319  bool */\n      0x00\n        /* \"s1911027_part2_2.sol\":2365:2370  value */\n      dup2\n        /* \"s1911027_part2_2.sol\":2341:2349  balances */\n      0x05\n        /* \"s1911027_part2_2.sol\":2341:2361  balances[msg.sender] */\n      0x00\n        /* \"s1911027_part2_2.sol\":2350:2360  msg.sender */\n      caller\n        /* \"s1911027_part2_2.sol\":2341:2361  balances[msg.sender] */\n      0xffffffffffffffffffffffffffffffffffffffff\n      and\n      0xffffffffffffffffffffffffffffffffffffffff\n      and\n      dup2\n      mstore\n      0x20\n      add\n      swap1\n      dup2\n      mstore\n      0x20\n      add\n      0x00\n      keccak256\n      sload\n        /* \"s1911027_part2_2.sol\":2341:2370  balances[msg.sender] >= value */\n      lt\n      iszero\n        /* \"s1911027_part2_2.sol\":2332:2403  require (balances[msg.sender] >= value, \"You don't have enough tokens\") */\n      tag_102\n      jumpi\n      mload(0x40)\n      0x08c379a000000000000000000000000000000000000000000000000000000000\n      dup2\n      mstore\n      0x04\n      add\n      tag_103\n      swap1\n      tag_104\n      jump\t// in\n    tag_103:\n      mload(0x40)\n      dup1\n      swap2\n      sub\n      swap1\n      revert\n    tag_102:\n        /* \"s1911027_part2_2.sol\":2414:2428  uint256 refund */\n      0x00\n        /* \"s1911027_part2_2.sol\":2439:2444  price */\n      0x03\n      0x00\n      swap1\n      sload\n      swap1\n      0x0100\n      exp\n      swap1\n      div\n      0xffffffffffffffffffffffffffffffff\n      and\n        /* \"s1911027_part2_2.sol\":2431:2444  value * price */\n      0xffffffffffffffffffffffffffffffff\n      and\n        /* \"s1911027_part2_2.sol\":2431:2436  value */\n      dup4\n        /* \"s1911027_part2_2.sol\":2431:2444  value * price */\n      tag_105\n      swap2\n      swap1\n      tag_106\n      jump\t// in\n    tag_105:\n        /* \"s1911027_part2_2.sol\":2414:2444  uint256 refund = value * price */\n      swap1\n      pop\n        /* \"s1911027_part2_2.sol\":2479:2484  value */\n      dup3\n        /* \"s1911027_part2_2.sol\":2455:2463  balances */\n      0x05\n        /* \"s1911027_part2_2.sol\":2455:2475  balances[msg.sender] */\n      0x00\n        /* \"s1911027_part2_2.sol\":2464:2474  msg.sender */\n      caller\n        /* \"s1911027_part2_2.sol\":2455:2475  balances[msg.sender] */\n      0xffffffffffffffffffffffffffffffffffffffff\n      and\n      0xffffffffffffffffffffffffffffffffffffffff\n      and\n      dup2\n      mstore\n      0x20\n      add\n      swap1\n      dup2\n      mstore\n      0x20\n      add\n      0x00\n      keccak256\n      0x00\n        /* \"s1911027_part2_2.sol\":2455:2484  balances[msg.sender] -= value */\n      dup3\n      dup3\n      sload\n      tag_107\n      swap2\n      swap1\n      tag_98\n      jump\t// in\n    tag_107:\n      swap3\n      pop\n      pop\n      dup2\n      swap1\n      sstore\n      pop\n        /* \"s1911027_part2_2.sol\":2511:2516  value */\n      dup3\n        /* \"s1911027_part2_2.sol\":2495:2507  totalSupply_ */\n      0x04\n      0x00\n        /* \"s1911027_part2_2.sol\":2495:2516  totalSupply_ -= value */\n      dup3\n      dup3\n      sload\n      tag_108\n      swap2\n      swap1\n      tag_98\n      jump\t// in\n    tag_108:\n      swap3\n      pop\n      pop\n      dup2\n      swap1\n      sstore\n      pop\n        /* \"s1911027_part2_2.sol\":2527:2536  customLib */\n      linkerSymbol(\"be9d473edd39fc4a7d08243a3fb71a82693631a5cba887cbf0ea79d54c79b2a3\")\n        /* \"s1911027_part2_2.sol\":2527:2547  customLib.customSend */\n      0xc0ba8f42\n        /* \"s1911027_part2_2.sol\":2548:2554  refund */\n      dup3\n        /* \"s1911027_part2_2.sol\":2556:2566  msg.sender */\n      caller\n        /* \"s1911027_part2_2.sol\":2527:2567  customLib.customSend(refund, msg.sender) */\n      mload(0x40)\n      dup4\n      0xffffffff\n      and\n      0xe0\n      shl\n      dup2\n      mstore\n      0x04\n      add\n      tag_109\n      swap3\n      swap2\n      swap1\n      tag_110\n      jump\t// in\n    tag_109:\n      0x20\n      mload(0x40)\n      dup1\n      dup4\n      sub\n      dup2\n      dup7\n      dup1\n      extcodesize\n      iszero\n      dup1\n      iszero\n      tag_111\n      jumpi\n      0x00\n      dup1\n      revert\n    tag_111:\n      pop\n      gas\n      delegatecall\n      iszero\n      dup1\n      iszero\n      tag_113\n      jumpi\n      returndatasize\n      0x00\n      dup1\n      returndatacopy\n      revert(0x00, returndatasize)\n    tag_113:\n      pop\n      pop\n      pop\n      pop\n      mload(0x40)\n      returndatasize\n      not(0x1f)\n      0x1f\n      dup3\n      add\n      and\n      dup3\n      add\n      dup1\n      0x40\n      mstore\n      pop\n      dup2\n      add\n      swap1\n      tag_114\n      swap2\n      swap1\n      tag_115\n      jump\t// in\n    tag_114:\n      pop\n        /* \"s1911027_part2_2.sol\":2588:2598  msg.sender */\n      caller\n        /* \"s1911027_part2_2.sol\":2583:2606  Sell(msg.sender, value) */\n      0xffffffffffffffffffffffffffffffffffffffff\n      and\n      0x5e5e995ce3133561afceaa51a9a154d5db228cd7525d34df5185582c18d3df09\n        /* \"s1911027_part2_2.sol\":2600:2605  value */\n      dup5\n        /* \"s1911027_part2_2.sol\":2583:2606  Sell(msg.sender, value) */\n      mload(0x40)\n      tag_116\n      swap2\n      swap1\n      tag_29\n      jump\t// in\n    tag_116:\n      mload(0x40)\n      dup1\n      swap2\n      sub\n      swap1\n      log2\n        /* \"s1911027_part2_2.sol\":2624:2628  true */\n      0x01\n        /* \"s1911027_part2_2.sol\":2617:2628  return true */\n      swap2\n      pop\n      pop\n        /* \"s1911027_part2_2.sol\":2262:2636  function sell(uint256 value) public payable returns (bool) {\r... */\n      swap2\n      swap1\n      pop\n      jump\t// out\n        /* \"#utility.yul\":7:146   */\n    tag_118:\n        /* \"#utility.yul\":53:58   */\n      0x00\n        /* \"#utility.yul\":91:97   */\n      dup2\n        /* \"#utility.yul\":78:98   */\n      calldataload\n        /* \"#utility.yul\":69:98   */\n      swap1\n      pop\n        /* \"#utility.yul\":107:140   */\n      tag_120\n        /* \"#utility.yul\":134:139   */\n      dup2\n        /* \"#utility.yul\":107:140   */\n      tag_121\n      jump\t// in\n    tag_120:\n        /* \"#utility.yul\":7:146   */\n      swap3\n      swap2\n      pop\n      pop\n      jump\t// out\n        /* \"#utility.yul\":152:289   */\n    tag_122:\n        /* \"#utility.yul\":206:211   */\n      0x00\n        /* \"#utility.yul\":237:243   */\n      dup2\n        /* \"#utility.yul\":231:244   */\n      mload\n        /* \"#utility.yul\":222:244   */\n      swap1\n      pop\n        /* \"#utility.yul\":253:283   */\n      tag_124\n        /* \"#utility.yul\":277:282   */\n      dup2\n        /* \"#utility.yul\":253:283   */\n      tag_125\n      jump\t// in\n    tag_124:\n        /* \"#utility.yul\":152:289   */\n      swap3\n      swap2\n      pop\n      pop\n      jump\t// out\n        /* \"#utility.yul\":295:434   */\n    tag_126:\n        /* \"#utility.yul\":341:346   */\n      0x00\n        /* \"#utility.yul\":379:385   */\n      dup2\n        /* \"#utility.yul\":366:386   */\n      calldataload\n        /* \"#utility.yul\":357:386   */\n      swap1\n      pop\n        /* \"#utility.yul\":395:428   */\n      tag_128\n        /* \"#utility.yul\":422:427   */\n      dup2\n        /* \"#utility.yul\":395:428   */\n      tag_129\n      jump\t// in\n    tag_128:\n        /* \"#utility.yul\":295:434   */\n      swap3\n      swap2\n      pop\n      pop\n      jump\t// out\n        /* \"#utility.yul\":440:769   */\n    tag_42:\n        /* \"#utility.yul\":499:505   */\n      0x00\n        /* \"#utility.yul\":548:550   */\n      0x20\n        /* \"#utility.yul\":536:545   */\n      dup3\n        /* \"#utility.yul\":527:534   */\n      dup5\n        /* \"#utility.yul\":523:546   */\n      sub\n        /* \"#utility.yul\":519:551   */\n      slt\n        /* \"#utility.yul\":516:635   */\n      iszero\n      tag_131\n      jumpi\n        /* \"#utility.yul\":554:633   */\n      tag_132\n      tag_133\n      jump\t// in\n    tag_132:\n        /* \"#utility.yul\":516:635   */\n    tag_131:\n        /* \"#utility.yul\":674:675   */\n      0x00\n        /* \"#utility.yul\":699:752   */\n      tag_134\n        /* \"#utility.yul\":744:751   */\n      dup5\n        /* \"#utility.yul\":735:741   */\n      dup3\n        /* \"#utility.yul\":724:733   */\n      dup6\n        /* \"#utility.yul\":720:742   */\n      add\n        /* \"#utility.yul\":699:752   */\n      tag_118\n      jump\t// in\n    tag_134:\n        /* \"#utility.yul\":689:752   */\n      swap2\n      pop\n        /* \"#utility.yul\":645:762   */\n      pop\n        /* \"#utility.yul\":440:769   */\n      swap3\n      swap2\n      pop\n      pop\n      jump\t// out\n        /* \"#utility.yul\":775:1249   */\n    tag_33:\n        /* \"#utility.yul\":843:849   */\n      0x00\n        /* \"#utility.yul\":851:857   */\n      dup1\n        /* \"#utility.yul\":900:902   */\n      0x40\n        /* \"#utility.yul\":888:897   */\n      dup4\n        /* \"#utility.yul\":879:886   */\n      dup6\n        /* \"#utility.yul\":875:898   */\n      sub\n        /* \"#utility.yul\":871:903   */\n      slt\n        /* \"#utility.yul\":868:987   */\n      iszero\n      tag_136\n      jumpi\n        /* \"#utility.yul\":906:985   */\n      tag_137\n      tag_133\n      jump\t// in\n    tag_137:\n        /* \"#utility.yul\":868:987   */\n    tag_136:\n        /* \"#utility.yul\":1026:1027   */\n      0x00\n        /* \"#utility.yul\":1051:1104   */\n      tag_138\n        /* \"#utility.yul\":1096:1103   */\n      dup6\n        /* \"#utility.yul\":1087:1093   */\n      dup3\n        /* \"#utility.yul\":1076:1085   */\n      dup7\n        /* \"#utility.yul\":1072:1094   */\n      add\n        /* \"#utility.yul\":1051:1104   */\n      tag_118\n      jump\t// in\n    tag_138:\n        /* \"#utility.yul\":1041:1104   */\n      swap3\n      pop\n        /* \"#utility.yul\":997:1114   */\n      pop\n        /* \"#utility.yul\":1153:1155   */\n      0x20\n        /* \"#utility.yul\":1179:1232   */\n      tag_139\n        /* \"#utility.yul\":1224:1231   */\n      dup6\n        /* \"#utility.yul\":1215:1221   */\n      dup3\n        /* \"#utility.yul\":1204:1213   */\n      dup7\n        /* \"#utility.yul\":1200:1222   */\n      add\n        /* \"#utility.yul\":1179:1232   */\n      tag_126\n      jump\t// in\n    tag_139:\n        /* \"#utility.yul\":1169:1232   */\n      swap2\n      pop\n        /* \"#utility.yul\":1124:1242   */\n      pop\n        /* \"#utility.yul\":775:1249   */\n      swap3\n      pop\n      swap3\n      swap1\n      pop\n      jump\t// out\n        /* \"#utility.yul\":1255:1600   */\n    tag_115:\n        /* \"#utility.yul\":1322:1328   */\n      0x00\n        /* \"#utility.yul\":1371:1373   */\n      0x20\n        /* \"#utility.yul\":1359:1368   */\n      dup3\n        /* \"#utility.yul\":1350:1357   */\n      dup5\n        /* \"#utility.yul\":1346:1369   */\n      sub\n        /* \"#utility.yul\":1342:1374   */\n      slt\n        /* \"#utility.yul\":1339:1458   */\n      iszero\n      tag_141\n      jumpi\n        /* \"#utility.yul\":1377:1456   */\n      tag_142\n      tag_133\n      jump\t// in\n    tag_142:\n        /* \"#utility.yul\":1339:1458   */\n    tag_141:\n        /* \"#utility.yul\":1497:1498   */\n      0x00\n        /* \"#utility.yul\":1522:1583   */\n      tag_143\n        /* \"#utility.yul\":1575:1582   */\n      dup5\n        /* \"#utility.yul\":1566:1572   */\n      dup3\n        /* \"#utility.yul\":1555:1564   */\n      dup6\n        /* \"#utility.yul\":1551:1573   */\n      add\n        /* \"#utility.yul\":1522:1583   */\n      tag_122\n      jump\t// in\n    tag_143:\n        /* \"#utility.yul\":1512:1583   */\n      swap2\n      pop\n        /* \"#utility.yul\":1468:1593   */\n      pop\n        /* \"#utility.yul\":1255:1600   */\n      swap3\n      swap2\n      pop\n      pop\n      jump\t// out\n        /* \"#utility.yul\":1606:1935   */\n    tag_62:\n        /* \"#utility.yul\":1665:1671   */\n      0x00\n        /* \"#utility.yul\":1714:1716   */\n      0x20\n        /* \"#utility.yul\":1702:1711   */\n      dup3\n        /* \"#utility.yul\":1693:1700   */\n      dup5\n        /* \"#utility.yul\":1689:1712   */\n      sub\n        /* \"#utility.yul\":1685:1717   */\n      slt\n        /* \"#utility.yul\":1682:1801   */\n      iszero\n      tag_145\n      jumpi\n        /* \"#utility.yul\":1720:1799   */\n      tag_146\n      tag_133\n      jump\t// in\n    tag_146:\n        /* \"#utility.yul\":1682:1801   */\n    tag_145:\n        /* \"#utility.yul\":1840:1841   */\n      0x00\n        /* \"#utility.yul\":1865:1918   */\n      tag_147\n        /* \"#utility.yul\":1910:1917   */\n      dup5\n        /* \"#utility.yul\":1901:1907   */\n      dup3\n        /* \"#utility.yul\":1890:1899   */\n      dup6\n        /* \"#utility.yul\":1886:1908   */\n      add\n        /* \"#utility.yul\":1865:1918   */\n      tag_126\n      jump\t// in\n    tag_147:\n        /* \"#utility.yul\":1855:1918   */\n      swap2\n      pop\n        /* \"#utility.yul\":1811:1928   */\n      pop\n        /* \"#utility.yul\":1606:1935   */\n      swap3\n      swap2\n      pop\n      pop\n      jump\t// out\n        /* \"#utility.yul\":1941:2059   */\n    tag_148:\n        /* \"#utility.yul\":2028:2052   */\n      tag_150\n        /* \"#utility.yul\":2046:2051   */\n      dup2\n        /* \"#utility.yul\":2028:2052   */\n      tag_151\n      jump\t// in\n    tag_150:\n        /* \"#utility.yul\":2023:2026   */\n      dup3\n        /* \"#utility.yul\":2016:2053   */\n      mstore\n        /* \"#utility.yul\":1941:2059   */\n      pop\n      pop\n      jump\t// out\n        /* \"#utility.yul\":2065:2191   */\n    tag_152:\n        /* \"#utility.yul\":2160:2184   */\n      tag_154\n        /* \"#utility.yul\":2178:2183   */\n      dup2\n        /* \"#utility.yul\":2160:2184   */\n      tag_151\n      jump\t// in\n    tag_154:\n        /* \"#utility.yul\":2155:2158   */\n      dup3\n        /* \"#utility.yul\":2148:2185   */\n      mstore\n        /* \"#utility.yul\":2065:2191   */\n      pop\n      pop\n      jump\t// out\n        /* \"#utility.yul\":2197:2306   */\n    tag_155:\n        /* \"#utility.yul\":2278:2299   */\n      tag_157\n        /* \"#utility.yul\":2293:2298   */\n      dup2\n        /* \"#utility.yul\":2278:2299   */\n      tag_158\n      jump\t// in\n    tag_157:\n        /* \"#utility.yul\":2273:2276   */\n      dup3\n        /* \"#utility.yul\":2266:2300   */\n      mstore\n        /* \"#utility.yul\":2197:2306   */\n      pop\n      pop\n      jump\t// out\n        /* \"#utility.yul\":2312:2676   */\n    tag_159:\n        /* \"#utility.yul\":2400:2403   */\n      0x00\n        /* \"#utility.yul\":2428:2467   */\n      tag_161\n        /* \"#utility.yul\":2461:2466   */\n      dup3\n        /* \"#utility.yul\":2428:2467   */\n      tag_162\n      jump\t// in\n    tag_161:\n        /* \"#utility.yul\":2483:2554   */\n      tag_163\n        /* \"#utility.yul\":2547:2553   */\n      dup2\n        /* \"#utility.yul\":2542:2545   */\n      dup6\n        /* \"#utility.yul\":2483:2554   */\n      tag_164\n      jump\t// in\n    tag_163:\n        /* \"#utility.yul\":2476:2554   */\n      swap4\n      pop\n        /* \"#utility.yul\":2563:2615   */\n      tag_165\n        /* \"#utility.yul\":2608:2614   */\n      dup2\n        /* \"#utility.yul\":2603:2606   */\n      dup6\n        /* \"#utility.yul\":2596:2600   */\n      0x20\n        /* \"#utility.yul\":2589:2594   */\n      dup7\n        /* \"#utility.yul\":2585:2601   */\n      add\n        /* \"#utility.yul\":2563:2615   */\n      tag_166\n      jump\t// in\n    tag_165:\n        /* \"#utility.yul\":2640:2669   */\n      tag_167\n        /* \"#utility.yul\":2662:2668   */\n      dup2\n        /* \"#utility.yul\":2640:2669   */\n      tag_168\n      jump\t// in\n    tag_167:\n        /* \"#utility.yul\":2635:2638   */\n      dup5\n        /* \"#utility.yul\":2631:2670   */\n      add\n        /* \"#utility.yul\":2624:2670   */\n      swap2\n      pop\n        /* \"#utility.yul\":2404:2676   */\n      pop\n        /* \"#utility.yul\":2312:2676   */\n      swap3\n      swap2\n      pop\n      pop\n      jump\t// out\n        /* \"#utility.yul\":2682:3048   */\n    tag_169:\n        /* \"#utility.yul\":2824:2827   */\n      0x00\n        /* \"#utility.yul\":2845:2912   */\n      tag_171\n        /* \"#utility.yul\":2909:2911   */\n      0x1c\n        /* \"#utility.yul\":2904:2907   */\n      dup4\n        /* \"#utility.yul\":2845:2912   */\n      tag_164\n      jump\t// in\n    tag_171:\n        /* \"#utility.yul\":2838:2912   */\n      swap2\n      pop\n        /* \"#utility.yul\":2921:3014   */\n      tag_172\n        /* \"#utility.yul\":3010:3013   */\n      dup3\n        /* \"#utility.yul\":2921:3014   */\n      tag_173\n      jump\t// in\n    tag_172:\n        /* \"#utility.yul\":3039:3041   */\n      0x20\n        /* \"#utility.yul\":3034:3037   */\n      dup3\n        /* \"#utility.yul\":3030:3042   */\n      add\n        /* \"#utility.yul\":3023:3042   */\n      swap1\n      pop\n        /* \"#utility.yul\":2682:3048   */\n      swap2\n      swap1\n      pop\n      jump\t// out\n        /* \"#utility.yul\":3054:3420   */\n    tag_174:\n        /* \"#utility.yul\":3196:3199   */\n      0x00\n        /* \"#utility.yul\":3217:3284   */\n      tag_176\n        /* \"#utility.yul\":3281:3283   */\n      0x14\n        /* \"#utility.yul\":3276:3279   */\n      dup4\n        /* \"#utility.yul\":3217:3284   */\n      tag_164\n      jump\t// in\n    tag_176:\n        /* \"#utility.yul\":3210:3284   */\n      swap2\n      pop\n        /* \"#utility.yul\":3293:3386   */\n      tag_177\n        /* \"#utility.yul\":3382:3385   */\n      dup3\n        /* \"#utility.yul\":3293:3386   */\n      tag_178\n      jump\t// in\n    tag_177:\n        /* \"#utility.yul\":3411:3413   */\n      0x20\n        /* \"#utility.yul\":3406:3409   */\n      dup3\n        /* \"#utility.yul\":3402:3414   */\n      add\n        /* \"#utility.yul\":3395:3414   */\n      swap1\n      pop\n        /* \"#utility.yul\":3054:3420   */\n      swap2\n      swap1\n      pop\n      jump\t// out\n        /* \"#utility.yul\":3426:3792   */\n    tag_179:\n        /* \"#utility.yul\":3568:3571   */\n      0x00\n        /* \"#utility.yul\":3589:3656   */\n      tag_181\n        /* \"#utility.yul\":3653:3655   */\n      0x25\n        /* \"#utility.yul\":3648:3651   */\n      dup4\n        /* \"#utility.yul\":3589:3656   */\n      tag_164\n      jump\t// in\n    tag_181:\n        /* \"#utility.yul\":3582:3656   */\n      swap2\n      pop\n        /* \"#utility.yul\":3665:3758   */\n      tag_182\n        /* \"#utility.yul\":3754:3757   */\n      dup3\n        /* \"#utility.yul\":3665:3758   */\n      tag_183\n      jump\t// in\n    tag_182:\n        /* \"#utility.yul\":3783:3785   */\n      0x40\n        /* \"#utility.yul\":3778:3781   */\n      dup3\n        /* \"#utility.yul\":3774:3786   */\n      add\n        /* \"#utility.yul\":3767:3786   */\n      swap1\n      pop\n        /* \"#utility.yul\":3426:3792   */\n      swap2\n      swap1\n      pop\n      jump\t// out\n        /* \"#utility.yul\":3798:4164   */\n    tag_184:\n        /* \"#utility.yul\":3940:3943   */\n      0x00\n        /* \"#utility.yul\":3961:4028   */\n      tag_186\n        /* \"#utility.yul\":4025:4027   */\n      0x23\n        /* \"#utility.yul\":4020:4023   */\n      dup4\n        /* \"#utility.yul\":3961:4028   */\n      tag_164\n      jump\t// in\n    tag_186:\n        /* \"#utility.yul\":3954:4028   */\n      swap2\n      pop\n        /* \"#utility.yul\":4037:4130   */\n      tag_187\n        /* \"#utility.yul\":4126:4129   */\n      dup3\n        /* \"#utility.yul\":4037:4130   */\n      tag_188\n      jump\t// in\n    tag_187:\n        /* \"#utility.yul\":4155:4157   */\n      0x40\n        /* \"#utility.yul\":4150:4153   */\n      dup3\n        /* \"#utility.yul\":4146:4158   */\n      add\n        /* \"#utility.yul\":4139:4158   */\n      swap1\n      pop\n        /* \"#utility.yul\":3798:4164   */\n      swap2\n      swap1\n      pop\n      jump\t// out\n        /* \"#utility.yul\":4170:4288   */\n    tag_189:\n        /* \"#utility.yul\":4257:4281   */\n      tag_191\n        /* \"#utility.yul\":4275:4280   */\n      dup2\n        /* \"#utility.yul\":4257:4281   */\n      tag_192\n      jump\t// in\n    tag_191:\n        /* \"#utility.yul\":4252:4255   */\n      dup3\n        /* \"#utility.yul\":4245:4282   */\n      mstore\n        /* \"#utility.yul\":4170:4288   */\n      pop\n      pop\n      jump\t// out\n        /* \"#utility.yul\":4294:4412   */\n    tag_193:\n        /* \"#utility.yul\":4381:4405   */\n      tag_195\n        /* \"#utility.yul\":4399:4404   */\n      dup2\n        /* \"#utility.yul\":4381:4405   */\n      tag_196\n      jump\t// in\n    tag_195:\n        /* \"#utility.yul\":4376:4379   */\n      dup3\n        /* \"#utility.yul\":4369:4406   */\n      mstore\n        /* \"#utility.yul\":4294:4412   */\n      pop\n      pop\n      jump\t// out\n        /* \"#utility.yul\":4418:4544   */\n    tag_197:\n        /* \"#utility.yul\":4513:4537   */\n      tag_199\n        /* \"#utility.yul\":4531:4536   */\n      dup2\n        /* \"#utility.yul\":4513:4537   */\n      tag_196\n      jump\t// in\n    tag_199:\n        /* \"#utility.yul\":4508:4511   */\n      dup3\n        /* \"#utility.yul\":4501:4538   */\n      mstore\n        /* \"#utility.yul\":4418:4544   */\n      pop\n      pop\n      jump\t// out\n        /* \"#utility.yul\":4550:4772   */\n    tag_49:\n        /* \"#utility.yul\":4643:4647   */\n      0x00\n        /* \"#utility.yul\":4681:4683   */\n      0x20\n        /* \"#utility.yul\":4670:4679   */\n      dup3\n        /* \"#utility.yul\":4666:4684   */\n      add\n        /* \"#utility.yul\":4658:4684   */\n      swap1\n      pop\n        /* \"#utility.yul\":4694:4765   */\n      tag_201\n        /* \"#utility.yul\":4762:4763   */\n      0x00\n        /* \"#utility.yul\":4751:4760   */\n      dup4\n        /* \"#utility.yul\":4747:4764   */\n      add\n        /* \"#utility.yul\":4738:4744   */\n      dup5\n        /* \"#utility.yul\":4694:4765   */\n      tag_148\n      jump\t// in\n    tag_201:\n        /* \"#utility.yul\":4550:4772   */\n      swap3\n      swap2\n      pop\n      pop\n      jump\t// out\n        /* \"#utility.yul\":4778:4988   */\n    tag_36:\n        /* \"#utility.yul\":4865:4869   */\n      0x00\n        /* \"#utility.yul\":4903:4905   */\n      0x20\n        /* \"#utility.yul\":4892:4901   */\n      dup3\n        /* \"#utility.yul\":4888:4906   */\n      add\n        /* \"#utility.yul\":4880:4906   */\n      swap1\n      pop\n        /* \"#utility.yul\":4916:4981   */\n      tag_203\n        /* \"#utility.yul\":4978:4979   */\n      0x00\n        /* \"#utility.yul\":4967:4976   */\n      dup4\n        /* \"#utility.yul\":4963:4980   */\n      add\n        /* \"#utility.yul\":4954:4960   */\n      dup5\n        /* \"#utility.yul\":4916:4981   */\n      tag_155\n      jump\t// in\n    tag_203:\n        /* \"#utility.yul\":4778:4988   */\n      swap3\n      swap2\n      pop\n      pop\n      jump\t// out\n        /* \"#utility.yul\":4994:5307   */\n    tag_20:\n        /* \"#utility.yul\":5107:5111   */\n      0x00\n        /* \"#utility.yul\":5145:5147   */\n      0x20\n        /* \"#utility.yul\":5134:5143   */\n      dup3\n        /* \"#utility.yul\":5130:5148   */\n      add\n        /* \"#utility.yul\":5122:5148   */\n      swap1\n      pop\n        /* \"#utility.yul\":5194:5203   */\n      dup2\n        /* \"#utility.yul\":5188:5192   */\n      dup2\n        /* \"#utility.yul\":5184:5204   */\n      sub\n        /* \"#utility.yul\":5180:5181   */\n      0x00\n        /* \"#utility.yul\":5169:5178   */\n      dup4\n        /* \"#utility.yul\":5165:5182   */\n      add\n        /* \"#utility.yul\":5158:5205   */\n      mstore\n        /* \"#utility.yul\":5222:5300   */\n      tag_205\n        /* \"#utility.yul\":5295:5299   */\n      dup2\n        /* \"#utility.yul\":5286:5292   */\n      dup5\n        /* \"#utility.yul\":5222:5300   */\n      tag_159\n      jump\t// in\n    tag_205:\n        /* \"#utility.yul\":5214:5300   */\n      swap1\n      pop\n        /* \"#utility.yul\":4994:5307   */\n      swap3\n      swap2\n      pop\n      pop\n      jump\t// out\n        /* \"#utility.yul\":5313:5732   */\n    tag_104:\n        /* \"#utility.yul\":5479:5483   */\n      0x00\n        /* \"#utility.yul\":5517:5519   */\n      0x20\n        /* \"#utility.yul\":5506:5515   */\n      dup3\n        /* \"#utility.yul\":5502:5520   */\n      add\n        /* \"#utility.yul\":5494:5520   */\n      swap1\n      pop\n        /* \"#utility.yul\":5566:5575   */\n      dup2\n        /* \"#utility.yul\":5560:5564   */\n      dup2\n        /* \"#utility.yul\":5556:5576   */\n      sub\n        /* \"#utility.yul\":5552:5553   */\n      0x00\n        /* \"#utility.yul\":5541:5550   */\n      dup4\n        /* \"#utility.yul\":5537:5554   */\n      add\n        /* \"#utility.yul\":5530:5577   */\n      mstore\n        /* \"#utility.yul\":5594:5725   */\n      tag_207\n        /* \"#utility.yul\":5720:5724   */\n      dup2\n        /* \"#utility.yul\":5594:5725   */\n      tag_169\n      jump\t// in\n    tag_207:\n        /* \"#utility.yul\":5586:5725   */\n      swap1\n      pop\n        /* \"#utility.yul\":5313:5732   */\n      swap2\n      swap1\n      pop\n      jump\t// out\n        /* \"#utility.yul\":5738:6157   */\n    tag_96:\n        /* \"#utility.yul\":5904:5908   */\n      0x00\n        /* \"#utility.yul\":5942:5944   */\n      0x20\n        /* \"#utility.yul\":5931:5940   */\n      dup3\n        /* \"#utility.yul\":5927:5945   */\n      add\n        /* \"#utility.yul\":5919:5945   */\n      swap1\n      pop\n        /* \"#utility.yul\":5991:6000   */\n      dup2\n        /* \"#utility.yul\":5985:5989   */\n      dup2\n        /* \"#utility.yul\":5981:6001   */\n      sub\n        /* \"#utility.yul\":5977:5978   */\n      0x00\n        /* \"#utility.yul\":5966:5975   */\n      dup4\n        /* \"#utility.yul\":5962:5979   */\n      add\n        /* \"#utility.yul\":5955:6002   */\n      mstore\n        /* \"#utility.yul\":6019:6150   */\n      tag_209\n        /* \"#utility.yul\":6145:6149   */\n      dup2\n        /* \"#utility.yul\":6019:6150   */\n      tag_174\n      jump\t// in\n    tag_209:\n        /* \"#utility.yul\":6011:6150   */\n      swap1\n      pop\n        /* \"#utility.yul\":5738:6157   */\n      swap2\n      swap1\n      pop\n      jump\t// out\n        /* \"#utility.yul\":6163:6582   */\n    tag_90:\n        /* \"#utility.yul\":6329:6333   */\n      0x00\n        /* \"#utility.yul\":6367:6369   */\n      0x20\n        /* \"#utility.yul\":6356:6365   */\n      dup3\n        /* \"#utility.yul\":6352:6370   */\n      add\n        /* \"#utility.yul\":6344:6370   */\n      swap1\n      pop\n        /* \"#utility.yul\":6416:6425   */\n      dup2\n        /* \"#utility.yul\":6410:6414   */\n      dup2\n        /* \"#utility.yul\":6406:6426   */\n      sub\n        /* \"#utility.yul\":6402:6403   */\n      0x00\n        /* \"#utility.yul\":6391:6400   */\n      dup4\n        /* \"#utility.yul\":6387:6404   */\n      add\n        /* \"#utility.yul\":6380:6427   */\n      mstore\n        /* \"#utility.yul\":6444:6575   */\n      tag_211\n        /* \"#utility.yul\":6570:6574   */\n      dup2\n        /* \"#utility.yul\":6444:6575   */\n      tag_179\n      jump\t// in\n    tag_211:\n        /* \"#utility.yul\":6436:6575   */\n      swap1\n      pop\n        /* \"#utility.yul\":6163:6582   */\n      swap2\n      swap1\n      pop\n      jump\t// out\n        /* \"#utility.yul\":6588:7007   */\n    tag_82:\n        /* \"#utility.yul\":6754:6758   */\n      0x00\n        /* \"#utility.yul\":6792:6794   */\n      0x20\n        /* \"#utility.yul\":6781:6790   */\n      dup3\n        /* \"#utility.yul\":6777:6795   */\n      add\n        /* \"#utility.yul\":6769:6795   */\n      swap1\n      pop\n        /* \"#utility.yul\":6841:6850   */\n      dup2\n        /* \"#utility.yul\":6835:6839   */\n      dup2\n        /* \"#utility.yul\":6831:6851   */\n      sub\n        /* \"#utility.yul\":6827:6828   */\n      0x00\n        /* \"#utility.yul\":6816:6825   */\n      dup4\n        /* \"#utility.yul\":6812:6829   */\n      add\n        /* \"#utility.yul\":6805:6852   */\n      mstore\n        /* \"#utility.yul\":6869:7000   */\n      tag_213\n        /* \"#utility.yul\":6995:6999   */\n      dup2\n        /* \"#utility.yul\":6869:7000   */\n      tag_184\n      jump\t// in\n    tag_213:\n        /* \"#utility.yul\":6861:7000   */\n      swap1\n      pop\n        /* \"#utility.yul\":6588:7007   */\n      swap2\n      swap1\n      pop\n      jump\t// out\n        /* \"#utility.yul\":7013:7235   */\n    tag_54:\n        /* \"#utility.yul\":7106:7110   */\n      0x00\n        /* \"#utility.yul\":7144:7146   */\n      0x20\n        /* \"#utility.yul\":7133:7142   */\n      dup3\n        /* \"#utility.yul\":7129:7147   */\n      add\n        /* \"#utility.yul\":7121:7147   */\n      swap1\n      pop\n        /* \"#utility.yul\":7157:7228   */\n      tag_215\n        /* \"#utility.yul\":7225:7226   */\n      0x00\n        /* \"#utility.yul\":7214:7223   */\n      dup4\n        /* \"#utility.yul\":7210:7227   */\n      add\n        /* \"#utility.yul\":7201:7207   */\n      dup5\n        /* \"#utility.yul\":7157:7228   */\n      tag_189\n      jump\t// in\n    tag_215:\n        /* \"#utility.yul\":7013:7235   */\n      swap3\n      swap2\n      pop\n      pop\n      jump\t// out\n        /* \"#utility.yul\":7241:7463   */\n    tag_29:\n        /* \"#utility.yul\":7334:7338   */\n      0x00\n        /* \"#utility.yul\":7372:7374   */\n      0x20\n        /* \"#utility.yul\":7361:7370   */\n      dup3\n        /* \"#utility.yul\":7357:7375   */\n      add\n        /* \"#utility.yul\":7349:7375   */\n      swap1\n      pop\n        /* \"#utility.yul\":7385:7456   */\n      tag_217\n        /* \"#utility.yul\":7453:7454   */\n      0x00\n        /* \"#utility.yul\":7442:7451   */\n      dup4\n        /* \"#utility.yul\":7438:7455   */\n      add\n        /* \"#utility.yul\":7429:7435   */\n      dup5\n        /* \"#utility.yul\":7385:7456   */\n      tag_193\n      jump\t// in\n    tag_217:\n        /* \"#utility.yul\":7241:7463   */\n      swap3\n      swap2\n      pop\n      pop\n      jump\t// out\n        /* \"#utility.yul\":7469:7825   */\n    tag_110:\n        /* \"#utility.yul\":7598:7602   */\n      0x00\n        /* \"#utility.yul\":7636:7638   */\n      0x40\n        /* \"#utility.yul\":7625:7634   */\n      dup3\n        /* \"#utility.yul\":7621:7639   */\n      add\n        /* \"#utility.yul\":7613:7639   */\n      swap1\n      pop\n        /* \"#utility.yul\":7649:7728   */\n      tag_219\n        /* \"#utility.yul\":7725:7726   */\n      0x00\n        /* \"#utility.yul\":7714:7723   */\n      dup4\n        /* \"#utility.yul\":7710:7727   */\n      add\n        /* \"#utility.yul\":7701:7707   */\n      dup6\n        /* \"#utility.yul\":7649:7728   */\n      tag_197\n      jump\t// in\n    tag_219:\n        /* \"#utility.yul\":7738:7818   */\n      tag_220\n        /* \"#utility.yul\":7814:7816   */\n      0x20\n        /* \"#utility.yul\":7803:7812   */\n      dup4\n        /* \"#utility.yul\":7799:7817   */\n      add\n        /* \"#utility.yul\":7790:7796   */\n      dup5\n        /* \"#utility.yul\":7738:7818   */\n      tag_152\n      jump\t// in\n    tag_220:\n        /* \"#utility.yul\":7469:7825   */\n      swap4\n      swap3\n      pop\n      pop\n      pop\n      jump\t// out\n        /* \"#utility.yul\":7912:8011   */\n    tag_162:\n        /* \"#utility.yul\":7964:7970   */\n      0x00\n        /* \"#utility.yul\":7998:8003   */\n      dup2\n        /* \"#utility.yul\":7992:8004   */\n      mload\n        /* \"#utility.yul\":7982:8004   */\n      swap1\n      pop\n        /* \"#utility.yul\":7912:8011   */\n      swap2\n      swap1\n      pop\n      jump\t// out\n        /* \"#utility.yul\":8017:8186   */\n    tag_164:\n        /* \"#utility.yul\":8101:8112   */\n      0x00\n        /* \"#utility.yul\":8135:8141   */\n      dup3\n        /* \"#utility.yul\":8130:8133   */\n      dup3\n        /* \"#utility.yul\":8123:8142   */\n      mstore\n        /* \"#utility.yul\":8175:8179   */\n      0x20\n        /* \"#utility.yul\":8170:8173   */\n      dup3\n        /* \"#utility.yul\":8166:8180   */\n      add\n        /* \"#utility.yul\":8151:8180   */\n      swap1\n      pop\n        /* \"#utility.yul\":8017:8186   */\n      swap3\n      swap2\n      pop\n      pop\n      jump\t// out\n        /* \"#utility.yul\":8192:8497   */\n    tag_84:\n        /* \"#utility.yul\":8232:8235   */\n      0x00\n        /* \"#utility.yul\":8251:8271   */\n      tag_226\n        /* \"#utility.yul\":8269:8270   */\n      dup3\n        /* \"#utility.yul\":8251:8271   */\n      tag_196\n      jump\t// in\n    tag_226:\n        /* \"#utility.yul\":8246:8271   */\n      swap2\n      pop\n        /* \"#utility.yul\":8285:8305   */\n      tag_227\n        /* \"#utility.yul\":8303:8304   */\n      dup4\n        /* \"#utility.yul\":8285:8305   */\n      tag_196\n      jump\t// in\n    tag_227:\n        /* \"#utility.yul\":8280:8305   */\n      swap3\n      pop\n        /* \"#utility.yul\":8439:8440   */\n      dup3\n        /* \"#utility.yul\":8371:8437   */\n      0xffffffffffffffffffffffffffffffffffffffffffffffffffffffffffffffff\n        /* \"#utility.yul\":8367:8441   */\n      sub\n        /* \"#utility.yul\":8364:8365   */\n      dup3\n        /* \"#utility.yul\":8361:8442   */\n      gt\n        /* \"#utility.yul\":8358:8465   */\n      iszero\n      tag_228\n      jumpi\n        /* \"#utility.yul\":8445:8463   */\n      tag_229\n      tag_230\n      jump\t// in\n    tag_229:\n        /* \"#utility.yul\":8358:8465   */\n    tag_228:\n        /* \"#utility.yul\":8489:8490   */\n      dup3\n        /* \"#utility.yul\":8486:8487   */\n      dup3\n        /* \"#utility.yul\":8482:8491   */\n      add\n        /* \"#utility.yul\":8475:8491   */\n      swap1\n      pop\n        /* \"#utility.yul\":8192:8497   */\n      swap3\n      swap2\n      pop\n      pop\n      jump\t// out\n        /* \"#utility.yul\":8503:8851   */\n    tag_106:\n        /* \"#utility.yul\":8543:8550   */\n      0x00\n        /* \"#utility.yul\":8566:8586   */\n      tag_232\n        /* \"#utility.yul\":8584:8585   */\n      dup3\n        /* \"#utility.yul\":8566:8586   */\n      tag_196\n      jump\t// in\n    tag_232:\n        /* \"#utility.yul\":8561:8586   */\n      swap2\n      pop\n        /* \"#utility.yul\":8600:8620   */\n      tag_233\n        /* \"#utility.yul\":8618:8619   */\n      dup4\n        /* \"#utility.yul\":8600:8620   */\n      tag_196\n      jump\t// in\n    tag_233:\n        /* \"#utility.yul\":8595:8620   */\n      swap3\n      pop\n        /* \"#utility.yul\":8788:8789   */\n      dup2\n        /* \"#utility.yul\":8720:8786   */\n      0xffffffffffffffffffffffffffffffffffffffffffffffffffffffffffffffff\n        /* \"#utility.yul\":8716:8790   */\n      div\n        /* \"#utility.yul\":8713:8714   */\n      dup4\n        /* \"#utility.yul\":8710:8791   */\n      gt\n        /* \"#utility.yul\":8705:8706   */\n      dup3\n        /* \"#utility.yul\":8698:8707   */\n      iszero\n        /* \"#utility.yul\":8691:8708   */\n      iszero\n        /* \"#utility.yul\":8687:8792   */\n      and\n        /* \"#utility.yul\":8684:8815   */\n      iszero\n      tag_234\n      jumpi\n        /* \"#utility.yul\":8795:8813   */\n      tag_235\n      tag_230\n      jump\t// in\n    tag_235:\n        /* \"#utility.yul\":8684:8815   */\n    tag_234:\n        /* \"#utility.yul\":8843:8844   */\n      dup3\n        /* \"#utility.yul\":8840:8841   */\n      dup3\n        /* \"#utility.yul\":8836:8845   */\n      mul\n        /* \"#utility.yul\":8825:8845   */\n      swap1\n      pop\n        /* \"#utility.yul\":8503:8851   */\n      swap3\n      swap2\n      pop\n      pop\n      jump\t// out\n        /* \"#utility.yul\":8857:9048   */\n    tag_98:\n        /* \"#utility.yul\":8897:8901   */\n      0x00\n        /* \"#utility.yul\":8917:8937   */\n      tag_237\n        /* \"#utility.yul\":8935:8936   */\n      dup3\n        /* \"#utility.yul\":8917:8937   */\n      tag_196\n      jump\t// in\n    tag_237:\n        /* \"#utility.yul\":8912:8937   */\n      swap2\n      pop\n        /* \"#utility.yul\":8951:8971   */\n      tag_238\n        /* \"#utility.yul\":8969:8970   */\n      dup4\n        /* \"#utility.yul\":8951:8971   */\n      tag_196\n      jump\t// in\n    tag_238:\n        /* \"#utility.yul\":8946:8971   */\n      swap3\n      pop\n        /* \"#utility.yul\":8990:8991   */\n      dup3\n        /* \"#utility.yul\":8987:8988   */\n      dup3\n        /* \"#utility.yul\":8984:8992   */\n      lt\n        /* \"#utility.yul\":8981:9015   */\n      iszero\n      tag_239\n      jumpi\n        /* \"#utility.yul\":8995:9013   */\n      tag_240\n      tag_230\n      jump\t// in\n    tag_240:\n        /* \"#utility.yul\":8981:9015   */\n    tag_239:\n        /* \"#utility.yul\":9040:9041   */\n      dup3\n        /* \"#utility.yul\":9037:9038   */\n      dup3\n        /* \"#utility.yul\":9033:9042   */\n      sub\n        /* \"#utility.yul\":9025:9042   */\n      swap1\n      pop\n        /* \"#utility.yul\":8857:9048   */\n      swap3\n      swap2\n      pop\n      pop\n      jump\t// out\n        /* \"#utility.yul\":9054:9150   */\n    tag_151:\n        /* \"#utility.yul\":9091:9098   */\n      0x00\n        /* \"#utility.yul\":9120:9144   */\n      tag_242\n        /* \"#utility.yul\":9138:9143   */\n      dup3\n        /* \"#utility.yul\":9120:9144   */\n      tag_243\n      jump\t// in\n    tag_242:\n        /* \"#utility.yul\":9109:9144   */\n      swap1\n      pop\n        /* \"#utility.yul\":9054:9150   */\n      swap2\n      swap1\n      pop\n      jump\t// out\n        /* \"#utility.yul\":9156:9246   */\n    tag_158:\n        /* \"#utility.yul\":9190:9197   */\n      0x00\n        /* \"#utility.yul\":9233:9238   */\n      dup2\n        /* \"#utility.yul\":9226:9239   */\n      iszero\n        /* \"#utility.yul\":9219:9240   */\n      iszero\n        /* \"#utility.yul\":9208:9240   */\n      swap1\n      pop\n        /* \"#utility.yul\":9156:9246   */\n      swap2\n      swap1\n      pop\n      jump\t// out\n        /* \"#utility.yul\":9252:9370   */\n    tag_192:\n        /* \"#utility.yul\":9289:9296   */\n      0x00\n        /* \"#utility.yul\":9329:9363   */\n      0xffffffffffffffffffffffffffffffff\n        /* \"#utility.yul\":9322:9327   */\n      dup3\n        /* \"#utility.yul\":9318:9364   */\n      and\n        /* \"#utility.yul\":9307:9364   */\n      swap1\n      pop\n        /* \"#utility.yul\":9252:9370   */\n      swap2\n      swap1\n      pop\n      jump\t// out\n        /* \"#utility.yul\":9376:9502   */\n    tag_243:\n        /* \"#utility.yul\":9413:9420   */\n      0x00\n        /* \"#utility.yul\":9453:9495   */\n      0xffffffffffffffffffffffffffffffffffffffff\n        /* \"#utility.yul\":9446:9451   */\n      dup3\n        /* \"#utility.yul\":9442:9496   */\n      and\n        /* \"#utility.yul\":9431:9496   */\n      swap1\n      pop\n        /* \"#utility.yul\":9376:9502   */\n      swap2\n      swap1\n      pop\n      jump\t// out\n        /* \"#utility.yul\":9508:9585   */\n    tag_196:\n        /* \"#utility.yul\":9545:9552   */\n      0x00\n        /* \"#utility.yul\":9574:9579   */\n      dup2\n        /* \"#utility.yul\":9563:9579   */\n      swap1\n      pop\n        /* \"#utility.yul\":9508:9585   */\n      swap2\n      swap1\n      pop\n      jump\t// out\n        /* \"#utility.yul\":9591:9898   */\n    tag_166:\n        /* \"#utility.yul\":9659:9660   */\n      0x00\n        /* \"#utility.yul\":9669:9782   */\n    tag_249:\n        /* \"#utility.yul\":9683:9689   */\n      dup4\n        /* \"#utility.yul\":9680:9681   */\n      dup2\n        /* \"#utility.yul\":9677:9690   */\n      lt\n        /* \"#utility.yul\":9669:9782   */\n      iszero\n      tag_251\n      jumpi\n        /* \"#utility.yul\":9768:9769   */\n      dup1\n        /* \"#utility.yul\":9763:9766   */\n      dup3\n        /* \"#utility.yul\":9759:9770   */\n      add\n        /* \"#utility.yul\":9753:9771   */\n      mload\n        /* \"#utility.yul\":9749:9750   */\n      dup2\n        /* \"#utility.yul\":9744:9747   */\n      dup5\n        /* \"#utility.yul\":9740:9751   */\n      add\n        /* \"#utility.yul\":9733:9772   */\n      mstore\n        /* \"#utility.yul\":9705:9707   */\n      0x20\n        /* \"#utility.yul\":9702:9703   */\n      dup2\n        /* \"#utility.yul\":9698:9708   */\n      add\n        /* \"#utility.yul\":9693:9708   */\n      swap1\n      pop\n        /* \"#utility.yul\":9669:9782   */\n      jump(tag_249)\n    tag_251:\n        /* \"#utility.yul\":9800:9806   */\n      dup4\n        /* \"#utility.yul\":9797:9798   */\n      dup2\n        /* \"#utility.yul\":9794:9807   */\n      gt\n        /* \"#utility.yul\":9791:9892   */\n      iszero\n      tag_252\n      jumpi\n        /* \"#utility.yul\":9880:9881   */\n      0x00\n        /* \"#utility.yul\":9871:9877   */\n      dup5\n        /* \"#utility.yul\":9866:9869   */\n      dup5\n        /* \"#utility.yul\":9862:9878   */\n      add\n        /* \"#utility.yul\":9855:9882   */\n      mstore\n        /* \"#utility.yul\":9791:9892   */\n    tag_252:\n        /* \"#utility.yul\":9640:9898   */\n      pop\n        /* \"#utility.yul\":9591:9898   */\n      pop\n      pop\n      pop\n      jump\t// out\n        /* \"#utility.yul\":9904:10224   */\n    tag_67:\n        /* \"#utility.yul\":9948:9954   */\n      0x00\n        /* \"#utility.yul\":9985:9986   */\n      0x02\n        /* \"#utility.yul\":9979:9983   */\n      dup3\n        /* \"#utility.yul\":9975:9987   */\n      div\n        /* \"#utility.yul\":9965:9987   */\n      swap1\n      pop\n        /* \"#utility.yul\":10032:10033   */\n      0x01\n        /* \"#utility.yul\":10026:10030   */\n      dup3\n        /* \"#utility.yul\":10022:10034   */\n      and\n        /* \"#utility.yul\":10053:10071   */\n      dup1\n        /* \"#utility.yul\":10043:10124   */\n      tag_254\n      jumpi\n        /* \"#utility.yul\":10109:10113   */\n      0x7f\n        /* \"#utility.yul\":10101:10107   */\n      dup3\n        /* \"#utility.yul\":10097:10114   */\n      and\n        /* \"#utility.yul\":10087:10114   */\n      swap2\n      pop\n        /* \"#utility.yul\":10043:10124   */\n    tag_254:\n        /* \"#utility.yul\":10171:10173   */\n      0x20\n        /* \"#utility.yul\":10163:10169   */\n      dup3\n        /* \"#utility.yul\":10160:10174   */\n      lt\n        /* \"#utility.yul\":10140:10158   */\n      dup2\n        /* \"#utility.yul\":10137:10175   */\n      eq\n        /* \"#utility.yul\":10134:10218   */\n      iszero\n      tag_255\n      jumpi\n        /* \"#utility.yul\":10190:10208   */\n      tag_256\n      tag_257\n      jump\t// in\n    tag_256:\n        /* \"#utility.yul\":10134:10218   */\n    tag_255:\n        /* \"#utility.yul\":9955:10224   */\n      pop\n        /* \"#utility.yul\":9904:10224   */\n      swap2\n      swap1\n      pop\n      jump\t// out\n        /* \"#utility.yul\":10230:10410   */\n    tag_230:\n        /* \"#utility.yul\":10278:10355   */\n      0x4e487b7100000000000000000000000000000000000000000000000000000000\n        /* \"#utility.yul\":10275:10276   */\n      0x00\n        /* \"#utility.yul\":10268:10356   */\n      mstore\n        /* \"#utility.yul\":10375:10379   */\n      0x11\n        /* \"#utility.yul\":10372:10373   */\n      0x04\n        /* \"#utility.yul\":10365:10380   */\n      mstore\n        /* \"#utility.yul\":10399:10403   */\n      0x24\n        /* \"#utility.yul\":10396:10397   */\n      0x00\n        /* \"#utility.yul\":10389:10404   */\n      revert\n        /* \"#utility.yul\":10416:10596   */\n    tag_257:\n        /* \"#utility.yul\":10464:10541   */\n      0x4e487b7100000000000000000000000000000000000000000000000000000000\n        /* \"#utility.yul\":10461:10462   */\n      0x00\n        /* \"#utility.yul\":10454:10542   */\n      mstore\n        /* \"#utility.yul\":10561:10565   */\n      0x22\n        /* \"#utility.yul\":10558:10559   */\n      0x04\n        /* \"#utility.yul\":10551:10566   */\n      mstore\n        /* \"#utility.yul\":10585:10589   */\n      0x24\n        /* \"#utility.yul\":10582:10583   */\n      0x00\n        /* \"#utility.yul\":10575:10590   */\n      revert\n        /* \"#utility.yul\":10725:10842   */\n    tag_133:\n        /* \"#utility.yul\":10834:10835   */\n      0x00\n        /* \"#utility.yul\":10831:10832   */\n      dup1\n        /* \"#utility.yul\":10824:10836   */\n      revert\n        /* \"#utility.yul\":10848:10950   */\n    tag_168:\n        /* \"#utility.yul\":10889:10895   */\n      0x00\n        /* \"#utility.yul\":10940:10942   */\n      0x1f\n        /* \"#utility.yul\":10936:10943   */\n      not\n        /* \"#utility.yul\":10931:10933   */\n      0x1f\n        /* \"#utility.yul\":10924:10929   */\n      dup4\n        /* \"#utility.yul\":10920:10934   */\n      add\n        /* \"#utility.yul\":10916:10944   */\n      and\n        /* \"#utility.yul\":10906:10944   */\n      swap1\n      pop\n        /* \"#utility.yul\":10848:10950   */\n      swap2\n      swap1\n      pop\n      jump\t// out\n        /* \"#utility.yul\":10956:11134   */\n    tag_173:\n        /* \"#utility.yul\":11096:11126   */\n      0x596f7520646f6e2774206861766520656e6f75676820746f6b656e7300000000\n        /* \"#utility.yul\":11092:11093   */\n      0x00\n        /* \"#utility.yul\":11084:11090   */\n      dup3\n        /* \"#utility.yul\":11080:11094   */\n      add\n        /* \"#utility.yul\":11073:11127   */\n      mstore\n        /* \"#utility.yul\":10956:11134   */\n      pop\n      jump\t// out\n        /* \"#utility.yul\":11140:11310   */\n    tag_178:\n        /* \"#utility.yul\":11280:11302   */\n      0x496e73756666696369656e742042616c616e6365000000000000000000000000\n        /* \"#utility.yul\":11276:11277   */\n      0x00\n        /* \"#utility.yul\":11268:11274   */\n      dup3\n        /* \"#utility.yul\":11264:11278   */\n      add\n        /* \"#utility.yul\":11257:11303   */\n      mstore\n        /* \"#utility.yul\":11140:11310   */\n      pop\n      jump\t// out\n        /* \"#utility.yul\":11316:11540   */\n    tag_183:\n        /* \"#utility.yul\":11456:11490   */\n      0x596f7520617265206e6f7420746865206f776e6572206f662074686520636f6e\n        /* \"#utility.yul\":11452:11453   */\n      0x00\n        /* \"#utility.yul\":11444:11450   */\n      dup3\n        /* \"#utility.yul\":11440:11454   */\n      add\n        /* \"#utility.yul\":11433:11491   */\n      mstore\n        /* \"#utility.yul\":11525:11532   */\n      0x7472616374000000000000000000000000000000000000000000000000000000\n        /* \"#utility.yul\":11520:11522   */\n      0x20\n        /* \"#utility.yul\":11512:11518   */\n      dup3\n        /* \"#utility.yul\":11508:11523   */\n      add\n        /* \"#utility.yul\":11501:11533   */\n      mstore\n        /* \"#utility.yul\":11316:11540   */\n      pop\n      jump\t// out\n        /* \"#utility.yul\":11546:11768   */\n    tag_188:\n        /* \"#utility.yul\":11686:11720   */\n      0x596f7520617265206e6f7420746865206f776e6572206f66207468697320746f\n        /* \"#utility.yul\":11682:11683   */\n      0x00\n        /* \"#utility.yul\":11674:11680   */\n      dup3\n        /* \"#utility.yul\":11670:11684   */\n      add\n        /* \"#utility.yul\":11663:11721   */\n      mstore\n        /* \"#utility.yul\":11755:11760   */\n      0x6b656e0000000000000000000000000000000000000000000000000000000000\n        /* \"#utility.yul\":11750:11752   */\n      0x20\n        /* \"#utility.yul\":11742:11748   */\n      dup3\n        /* \"#utility.yul\":11738:11753   */\n      add\n        /* \"#utility.yul\":11731:11761   */\n      mstore\n        /* \"#utility.yul\":11546:11768   */\n      pop\n      jump\t// out\n        /* \"#utility.yul\":11774:11896   */\n    tag_121:\n        /* \"#utility.yul\":11847:11871   */\n      tag_269\n        /* \"#utility.yul\":11865:11870   */\n      dup2\n        /* \"#utility.yul\":11847:11871   */\n      tag_151\n      jump\t// in\n    tag_269:\n        /* \"#utility.yul\":11840:11845   */\n      dup2\n        /* \"#utility.yul\":11837:11872   */\n      eq\n        /* \"#utility.yul\":11827:11890   */\n      tag_270\n      jumpi\n        /* \"#utility.yul\":11886:11887   */\n      0x00\n        /* \"#utility.yul\":11883:11884   */\n      dup1\n        /* \"#utility.yul\":11876:11888   */\n      revert\n        /* \"#utility.yul\":11827:11890   */\n    tag_270:\n        /* \"#utility.yul\":11774:11896   */\n      pop\n      jump\t// out\n        /* \"#utility.yul\":11902:12018   */\n    tag_125:\n        /* \"#utility.yul\":11972:11993   */\n      tag_272\n        /* \"#utility.yul\":11987:11992   */\n      dup2\n        /* \"#utility.yul\":11972:11993   */\n      tag_158\n      jump\t// in\n    tag_272:\n        /* \"#utility.yul\":11965:11970   */\n      dup2\n        /* \"#utility.yul\":11962:11994   */\n      eq\n        /* \"#utility.yul\":11952:12012   */\n      tag_273\n      jumpi\n        /* \"#utility.yul\":12008:12009   */\n      0x00\n        /* \"#utility.yul\":12005:12006   */\n      dup1\n        /* \"#utility.yul\":11998:12010   */\n      revert\n        /* \"#utility.yul\":11952:12012   */\n    tag_273:\n        /* \"#utility.yul\":11902:12018   */\n      pop\n      jump\t// out\n        /* \"#utility.yul\":12024:12146   */\n    tag_129:\n        /* \"#utility.yul\":12097:12121   */\n      tag_275\n        /* \"#utility.yul\":12115:12120   */\n      dup2\n        /* \"#utility.yul\":12097:12121   */\n      tag_196\n      jump\t// in\n    tag_275:\n        /* \"#utility.yul\":12090:12095   */\n      dup2\n        /* \"#utility.yul\":12087:12122   */\n      eq\n        /* \"#utility.yul\":12077:12140   */\n      tag_276\n      jumpi\n        /* \"#utility.yul\":12136:12137   */\n      0x00\n        /* \"#utility.yul\":12133:12134   */\n      dup1\n        /* \"#utility.yul\":12126:12138   */\n      revert\n        /* \"#utility.yul\":12077:12140   */\n    tag_276:\n        /* \"#utility.yul\":12024:12146   */\n      pop\n      jump\t// out\n\n    auxdata: 0xa2646970667358221220a3e3a35dddb090880503e0e23915aacd4c3ad6887a0f7245c30ddc822d1c6e8e64736f6c63430008070033\n}\n",
				"bytecode": {
					"linkReferences": {
						"s1911027_part2_2.sol": {
							"customLib": [
								{
									"length": 20,
									"start": 2934
								}
							]
						}
					},
					"object": "60806040523480156200001157600080fd5b50336000806101000a81548173ffffffffffffffffffffffffffffffffffffffff021916908373ffffffffffffffffffffffffffffffffffffffff1602179055506040518060400160405280600981526020017f527569626f436f696e0000000000000000000000000000000000000000000000815250600190805190602001906200009f92919062000137565b506040518060400160405280600381526020017f524243000000000000000000000000000000000000000000000000000000000081525060029080519060200190620000ed92919062000137565b50610258600360006101000a8154816fffffffffffffffffffffffffffffffff02191690836fffffffffffffffffffffffffffffffff16021790555060006004819055506200024c565b8280546200014590620001e7565b90600052602060002090601f016020900481019282620001695760008555620001b5565b82601f106200018457805160ff1916838001178555620001b5565b82800160010185558215620001b5579182015b82811115620001b457825182559160200191906001019062000197565b5b509050620001c49190620001c8565b5090565b5b80821115620001e3576000816000905550600101620001c9565b5090565b600060028204905060018216806200020057607f821691505b602082108114156200021757620002166200021d565b5b50919050565b7f4e487b7100000000000000000000000000000000000000000000000000000000600052602260045260246000fd5b6110fe806200025c6000396000f3fe6080604052600436106100955760003560e01c806370a082311161005957806370a08231146101605780638da5cb5b1461019d57806398d5fdca146101c8578063a9059cbb146101f3578063e4849b321461023057610096565b8063150704011461009857806317d7de7c146100c357806318160ddd146100ee57806340c10f191461011957806343d726d61461015657610096565b5b005b3480156100a457600080fd5b506100ad610260565b6040516100ba9190610c55565b60405180910390f35b3480156100cf57600080fd5b506100d86102f2565b6040516100e59190610c55565b60405180910390f35b3480156100fa57600080fd5b50610103610384565b6040516101109190610d12565b60405180910390f35b34801561012557600080fd5b50610140600480360381019061013b9190610a66565b61038e565b60405161014d9190610c3a565b60405180910390f35b61015e6104e6565b005b34801561016c57600080fd5b5061018760048036038101906101829190610a39565b6105b3565b6040516101949190610d12565b60405180910390f35b3480156101a957600080fd5b506101b26105fc565b6040516101bf9190610c1f565b60405180910390f35b3480156101d457600080fd5b506101dd610620565b6040516101ea9190610cf7565b60405180910390f35b3480156101ff57600080fd5b5061021a60048036038101906102159190610a66565b610646565b6040516102279190610c3a565b60405180910390f35b61024a60048036038101906102459190610ad3565b6107e5565b6040516102579190610c3a565b60405180910390f35b60606002805461026f90610eed565b80601f016020809104026020016040519081016040528092919081815260200182805461029b90610eed565b80156102e85780601f106102bd576101008083540402835291602001916102e8565b820191906000526020600020905b8154815290600101906020018083116102cb57829003601f168201915b5050505050905090565b60606001805461030190610eed565b80601f016020809104026020016040519081016040528092919081815260200182805461032d90610eed565b801561037a5780601f1061034f5761010080835404028352916020019161037a565b820191906000526020600020905b81548152906001019060200180831161035d57829003601f168201915b5050505050905090565b6000600454905090565b60008060009054906101000a900473ffffffffffffffffffffffffffffffffffffffff1673ffffffffffffffffffffffffffffffffffffffff163373ffffffffffffffffffffffffffffffffffffffff161461041f576040517f08c379a000000000000000000000000000000000000000000000000000000000815260040161041690610cd7565b60405180910390fd5b81600560008573ffffffffffffffffffffffffffffffffffffffff1673ffffffffffffffffffffffffffffffffffffffff168152602001908152602001600020600082825461046e9190610d72565b9250508190555081600460008282546104879190610d72565b925050819055508273ffffffffffffffffffffffffffffffffffffffff167f0f6798a560793a54c3bcfe86a93cde1e73087d944c0ea20544137d4121396885836040516104d49190610d12565b60405180910390a26001905092915050565b60008054906101000a900473ffffffffffffffffffffffffffffffffffffffff1673ffffffffffffffffffffffffffffffffffffffff163373ffffffffffffffffffffffffffffffffffffffff1614610574576040517f08c379a000000000000000000000000000000000000000000000000000000000815260040161056b90610cb7565b60405180910390fd5b60008060009054906101000a900473ffffffffffffffffffffffffffffffffffffffff1690508073ffffffffffffffffffffffffffffffffffffffff16ff5b6000600560008373ffffffffffffffffffffffffffffffffffffffff1673ffffffffffffffffffffffffffffffffffffffff168152602001908152602001600020549050919050565b60008054906101000a900473ffffffffffffffffffffffffffffffffffffffff1681565b6000600360009054906101000a90046fffffffffffffffffffffffffffffffff16905090565b600081600560003373ffffffffffffffffffffffffffffffffffffffff1673ffffffffffffffffffffffffffffffffffffffff1681526020019081526020016000205410156106ca576040517f08c379a00000000000000000000000000000000000000000000000000000000081526004016106c190610c97565b60405180910390fd5b81600560003373ffffffffffffffffffffffffffffffffffffffff1673ffffffffffffffffffffffffffffffffffffffff16815260200190815260200160002060008282546107199190610e22565b9250508190555081600560008573ffffffffffffffffffffffffffffffffffffffff1673ffffffffffffffffffffffffffffffffffffffff168152602001908152602001600020600082825461076f9190610d72565b925050819055508273ffffffffffffffffffffffffffffffffffffffff163373ffffffffffffffffffffffffffffffffffffffff167fddf252ad1be2c89b69c2b068fc378daa952ba7f163c4a11628f55a4df523b3ef846040516107d39190610d12565b60405180910390a36001905092915050565b600081600560003373ffffffffffffffffffffffffffffffffffffffff1673ffffffffffffffffffffffffffffffffffffffff168152602001908152602001600020541015610869576040517f08c379a000000000000000000000000000000000000000000000000000000000815260040161086090610c77565b60405180910390fd5b6000600360009054906101000a90046fffffffffffffffffffffffffffffffff166fffffffffffffffffffffffffffffffff16836108a79190610dc8565b905082600560003373ffffffffffffffffffffffffffffffffffffffff1673ffffffffffffffffffffffffffffffffffffffff16815260200190815260200160002060008282546108f89190610e22565b9250508190555082600460008282546109119190610e22565b9250508190555073__$be9d473edd39fc4a7d08243a3fb71a8269$__63c0ba8f4282336040518363ffffffff1660e01b8152600401610951929190610d2d565b60206040518083038186803b15801561096957600080fd5b505af415801561097d573d6000803e3d6000fd5b505050506040513d601f19601f820116820180604052508101906109a19190610aa6565b503373ffffffffffffffffffffffffffffffffffffffff167f5e5e995ce3133561afceaa51a9a154d5db228cd7525d34df5185582c18d3df09846040516109e89190610d12565b60405180910390a26001915050919050565b600081359050610a0981611083565b92915050565b600081519050610a1e8161109a565b92915050565b600081359050610a33816110b1565b92915050565b600060208284031215610a4f57610a4e610f7d565b5b6000610a5d848285016109fa565b91505092915050565b60008060408385031215610a7d57610a7c610f7d565b5b6000610a8b858286016109fa565b9250506020610a9c85828601610a24565b9150509250929050565b600060208284031215610abc57610abb610f7d565b5b6000610aca84828501610a0f565b91505092915050565b600060208284031215610ae957610ae8610f7d565b5b6000610af784828501610a24565b91505092915050565b610b0981610e56565b82525050565b610b1881610e56565b82525050565b610b2781610e68565b82525050565b6000610b3882610d56565b610b428185610d61565b9350610b52818560208601610eba565b610b5b81610f82565b840191505092915050565b6000610b73601c83610d61565b9150610b7e82610f93565b602082019050919050565b6000610b96601483610d61565b9150610ba182610fbc565b602082019050919050565b6000610bb9602583610d61565b9150610bc482610fe5565b604082019050919050565b6000610bdc602383610d61565b9150610be782611034565b604082019050919050565b610bfb81610e74565b82525050565b610c0a81610eb0565b82525050565b610c1981610eb0565b82525050565b6000602082019050610c346000830184610b00565b92915050565b6000602082019050610c4f6000830184610b1e565b92915050565b60006020820190508181036000830152610c6f8184610b2d565b905092915050565b60006020820190508181036000830152610c9081610b66565b9050919050565b60006020820190508181036000830152610cb081610b89565b9050919050565b60006020820190508181036000830152610cd081610bac565b9050919050565b60006020820190508181036000830152610cf081610bcf565b9050919050565b6000602082019050610d0c6000830184610bf2565b92915050565b6000602082019050610d276000830184610c01565b92915050565b6000604082019050610d426000830185610c10565b610d4f6020830184610b0f565b9392505050565b600081519050919050565b600082825260208201905092915050565b6000610d7d82610eb0565b9150610d8883610eb0565b9250827fffffffffffffffffffffffffffffffffffffffffffffffffffffffffffffffff03821115610dbd57610dbc610f1f565b5b828201905092915050565b6000610dd382610eb0565b9150610dde83610eb0565b9250817fffffffffffffffffffffffffffffffffffffffffffffffffffffffffffffffff0483118215151615610e1757610e16610f1f565b5b828202905092915050565b6000610e2d82610eb0565b9150610e3883610eb0565b925082821015610e4b57610e4a610f1f565b5b828203905092915050565b6000610e6182610e90565b9050919050565b60008115159050919050565b60006fffffffffffffffffffffffffffffffff82169050919050565b600073ffffffffffffffffffffffffffffffffffffffff82169050919050565b6000819050919050565b60005b83811015610ed8578082015181840152602081019050610ebd565b83811115610ee7576000848401525b50505050565b60006002820490506001821680610f0557607f821691505b60208210811415610f1957610f18610f4e565b5b50919050565b7f4e487b7100000000000000000000000000000000000000000000000000000000600052601160045260246000fd5b7f4e487b7100000000000000000000000000000000000000000000000000000000600052602260045260246000fd5b600080fd5b6000601f19601f8301169050919050565b7f596f7520646f6e2774206861766520656e6f75676820746f6b656e7300000000600082015250565b7f496e73756666696369656e742042616c616e6365000000000000000000000000600082015250565b7f596f7520617265206e6f7420746865206f776e6572206f662074686520636f6e60008201527f7472616374000000000000000000000000000000000000000000000000000000602082015250565b7f596f7520617265206e6f7420746865206f776e6572206f66207468697320746f60008201527f6b656e0000000000000000000000000000000000000000000000000000000000602082015250565b61108c81610e56565b811461109757600080fd5b50565b6110a381610e68565b81146110ae57600080fd5b50565b6110ba81610eb0565b81146110c557600080fd5b5056fea2646970667358221220a3e3a35dddb090880503e0e23915aacd4c3ad6887a0f7245c30ddc822d1c6e8e64736f6c63430008070033",
					"opcodes": "PUSH1 0x80 PUSH1 0x40 MSTORE CALLVALUE DUP1 ISZERO PUSH3 0x11 JUMPI PUSH1 0x0 DUP1 REVERT JUMPDEST POP CALLER PUSH1 0x0 DUP1 PUSH2 0x100 EXP DUP2 SLOAD DUP2 PUSH20 0xFFFFFFFFFFFFFFFFFFFFFFFFFFFFFFFFFFFFFFFF MUL NOT AND SWAP1 DUP4 PUSH20 0xFFFFFFFFFFFFFFFFFFFFFFFFFFFFFFFFFFFFFFFF AND MUL OR SWAP1 SSTORE POP PUSH1 0x40 MLOAD DUP1 PUSH1 0x40 ADD PUSH1 0x40 MSTORE DUP1 PUSH1 0x9 DUP2 MSTORE PUSH1 0x20 ADD PUSH32 0x527569626F436F696E0000000000000000000000000000000000000000000000 DUP2 MSTORE POP PUSH1 0x1 SWAP1 DUP1 MLOAD SWAP1 PUSH1 0x20 ADD SWAP1 PUSH3 0x9F SWAP3 SWAP2 SWAP1 PUSH3 0x137 JUMP JUMPDEST POP PUSH1 0x40 MLOAD DUP1 PUSH1 0x40 ADD PUSH1 0x40 MSTORE DUP1 PUSH1 0x3 DUP2 MSTORE PUSH1 0x20 ADD PUSH32 0x5242430000000000000000000000000000000000000000000000000000000000 DUP2 MSTORE POP PUSH1 0x2 SWAP1 DUP1 MLOAD SWAP1 PUSH1 0x20 ADD SWAP1 PUSH3 0xED SWAP3 SWAP2 SWAP1 PUSH3 0x137 JUMP JUMPDEST POP PUSH2 0x258 PUSH1 0x3 PUSH1 0x0 PUSH2 0x100 EXP DUP2 SLOAD DUP2 PUSH16 0xFFFFFFFFFFFFFFFFFFFFFFFFFFFFFFFF MUL NOT AND SWAP1 DUP4 PUSH16 0xFFFFFFFFFFFFFFFFFFFFFFFFFFFFFFFF AND MUL OR SWAP1 SSTORE POP PUSH1 0x0 PUSH1 0x4 DUP2 SWAP1 SSTORE POP PUSH3 0x24C JUMP JUMPDEST DUP3 DUP1 SLOAD PUSH3 0x145 SWAP1 PUSH3 0x1E7 JUMP JUMPDEST SWAP1 PUSH1 0x0 MSTORE PUSH1 0x20 PUSH1 0x0 KECCAK256 SWAP1 PUSH1 0x1F ADD PUSH1 0x20 SWAP1 DIV DUP2 ADD SWAP3 DUP3 PUSH3 0x169 JUMPI PUSH1 0x0 DUP6 SSTORE PUSH3 0x1B5 JUMP JUMPDEST DUP3 PUSH1 0x1F LT PUSH3 0x184 JUMPI DUP1 MLOAD PUSH1 0xFF NOT AND DUP4 DUP1 ADD OR DUP6 SSTORE PUSH3 0x1B5 JUMP JUMPDEST DUP3 DUP1 ADD PUSH1 0x1 ADD DUP6 SSTORE DUP3 ISZERO PUSH3 0x1B5 JUMPI SWAP2 DUP3 ADD JUMPDEST DUP3 DUP2 GT ISZERO PUSH3 0x1B4 JUMPI DUP3 MLOAD DUP3 SSTORE SWAP2 PUSH1 0x20 ADD SWAP2 SWAP1 PUSH1 0x1 ADD SWAP1 PUSH3 0x197 JUMP JUMPDEST JUMPDEST POP SWAP1 POP PUSH3 0x1C4 SWAP2 SWAP1 PUSH3 0x1C8 JUMP JUMPDEST POP SWAP1 JUMP JUMPDEST JUMPDEST DUP1 DUP3 GT ISZERO PUSH3 0x1E3 JUMPI PUSH1 0x0 DUP2 PUSH1 0x0 SWAP1 SSTORE POP PUSH1 0x1 ADD PUSH3 0x1C9 JUMP JUMPDEST POP SWAP1 JUMP JUMPDEST PUSH1 0x0 PUSH1 0x2 DUP3 DIV SWAP1 POP PUSH1 0x1 DUP3 AND DUP1 PUSH3 0x200 JUMPI PUSH1 0x7F DUP3 AND SWAP2 POP JUMPDEST PUSH1 0x20 DUP3 LT DUP2 EQ ISZERO PUSH3 0x217 JUMPI PUSH3 0x216 PUSH3 0x21D JUMP JUMPDEST JUMPDEST POP SWAP2 SWAP1 POP JUMP JUMPDEST PUSH32 0x4E487B7100000000000000000000000000000000000000000000000000000000 PUSH1 0x0 MSTORE PUSH1 0x22 PUSH1 0x4 MSTORE PUSH1 0x24 PUSH1 0x0 REVERT JUMPDEST PUSH2 0x10FE DUP1 PUSH3 0x25C PUSH1 0x0 CODECOPY PUSH1 0x0 RETURN INVALID PUSH1 0x80 PUSH1 0x40 MSTORE PUSH1 0x4 CALLDATASIZE LT PUSH2 0x95 JUMPI PUSH1 0x0 CALLDATALOAD PUSH1 0xE0 SHR DUP1 PUSH4 0x70A08231 GT PUSH2 0x59 JUMPI DUP1 PUSH4 0x70A08231 EQ PUSH2 0x160 JUMPI DUP1 PUSH4 0x8DA5CB5B EQ PUSH2 0x19D JUMPI DUP1 PUSH4 0x98D5FDCA EQ PUSH2 0x1C8 JUMPI DUP1 PUSH4 0xA9059CBB EQ PUSH2 0x1F3 JUMPI DUP1 PUSH4 0xE4849B32 EQ PUSH2 0x230 JUMPI PUSH2 0x96 JUMP JUMPDEST DUP1 PUSH4 0x15070401 EQ PUSH2 0x98 JUMPI DUP1 PUSH4 0x17D7DE7C EQ PUSH2 0xC3 JUMPI DUP1 PUSH4 0x18160DDD EQ PUSH2 0xEE JUMPI DUP1 PUSH4 0x40C10F19 EQ PUSH2 0x119 JUMPI DUP1 PUSH4 0x43D726D6 EQ PUSH2 0x156 JUMPI PUSH2 0x96 JUMP JUMPDEST JUMPDEST STOP JUMPDEST CALLVALUE DUP1 ISZERO PUSH2 0xA4 JUMPI PUSH1 0x0 DUP1 REVERT JUMPDEST POP PUSH2 0xAD PUSH2 0x260 JUMP JUMPDEST PUSH1 0x40 MLOAD PUSH2 0xBA SWAP2 SWAP1 PUSH2 0xC55 JUMP JUMPDEST PUSH1 0x40 MLOAD DUP1 SWAP2 SUB SWAP1 RETURN JUMPDEST CALLVALUE DUP1 ISZERO PUSH2 0xCF JUMPI PUSH1 0x0 DUP1 REVERT JUMPDEST POP PUSH2 0xD8 PUSH2 0x2F2 JUMP JUMPDEST PUSH1 0x40 MLOAD PUSH2 0xE5 SWAP2 SWAP1 PUSH2 0xC55 JUMP JUMPDEST PUSH1 0x40 MLOAD DUP1 SWAP2 SUB SWAP1 RETURN JUMPDEST CALLVALUE DUP1 ISZERO PUSH2 0xFA JUMPI PUSH1 0x0 DUP1 REVERT JUMPDEST POP PUSH2 0x103 PUSH2 0x384 JUMP JUMPDEST PUSH1 0x40 MLOAD PUSH2 0x110 SWAP2 SWAP1 PUSH2 0xD12 JUMP JUMPDEST PUSH1 0x40 MLOAD DUP1 SWAP2 SUB SWAP1 RETURN JUMPDEST CALLVALUE DUP1 ISZERO PUSH2 0x125 JUMPI PUSH1 0x0 DUP1 REVERT JUMPDEST POP PUSH2 0x140 PUSH1 0x4 DUP1 CALLDATASIZE SUB DUP2 ADD SWAP1 PUSH2 0x13B SWAP2 SWAP1 PUSH2 0xA66 JUMP JUMPDEST PUSH2 0x38E JUMP JUMPDEST PUSH1 0x40 MLOAD PUSH2 0x14D SWAP2 SWAP1 PUSH2 0xC3A JUMP JUMPDEST PUSH1 0x40 MLOAD DUP1 SWAP2 SUB SWAP1 RETURN JUMPDEST PUSH2 0x15E PUSH2 0x4E6 JUMP JUMPDEST STOP JUMPDEST CALLVALUE DUP1 ISZERO PUSH2 0x16C JUMPI PUSH1 0x0 DUP1 REVERT JUMPDEST POP PUSH2 0x187 PUSH1 0x4 DUP1 CALLDATASIZE SUB DUP2 ADD SWAP1 PUSH2 0x182 SWAP2 SWAP1 PUSH2 0xA39 JUMP JUMPDEST PUSH2 0x5B3 JUMP JUMPDEST PUSH1 0x40 MLOAD PUSH2 0x194 SWAP2 SWAP1 PUSH2 0xD12 JUMP JUMPDEST PUSH1 0x40 MLOAD DUP1 SWAP2 SUB SWAP1 RETURN JUMPDEST CALLVALUE DUP1 ISZERO PUSH2 0x1A9 JUMPI PUSH1 0x0 DUP1 REVERT JUMPDEST POP PUSH2 0x1B2 PUSH2 0x5FC JUMP JUMPDEST PUSH1 0x40 MLOAD PUSH2 0x1BF SWAP2 SWAP1 PUSH2 0xC1F JUMP JUMPDEST PUSH1 0x40 MLOAD DUP1 SWAP2 SUB SWAP1 RETURN JUMPDEST CALLVALUE DUP1 ISZERO PUSH2 0x1D4 JUMPI PUSH1 0x0 DUP1 REVERT JUMPDEST POP PUSH2 0x1DD PUSH2 0x620 JUMP JUMPDEST PUSH1 0x40 MLOAD PUSH2 0x1EA SWAP2 SWAP1 PUSH2 0xCF7 JUMP JUMPDEST PUSH1 0x40 MLOAD DUP1 SWAP2 SUB SWAP1 RETURN JUMPDEST CALLVALUE DUP1 ISZERO PUSH2 0x1FF JUMPI PUSH1 0x0 DUP1 REVERT JUMPDEST POP PUSH2 0x21A PUSH1 0x4 DUP1 CALLDATASIZE SUB DUP2 ADD SWAP1 PUSH2 0x215 SWAP2 SWAP1 PUSH2 0xA66 JUMP JUMPDEST PUSH2 0x646 JUMP JUMPDEST PUSH1 0x40 MLOAD PUSH2 0x227 SWAP2 SWAP1 PUSH2 0xC3A JUMP JUMPDEST PUSH1 0x40 MLOAD DUP1 SWAP2 SUB SWAP1 RETURN JUMPDEST PUSH2 0x24A PUSH1 0x4 DUP1 CALLDATASIZE SUB DUP2 ADD SWAP1 PUSH2 0x245 SWAP2 SWAP1 PUSH2 0xAD3 JUMP JUMPDEST PUSH2 0x7E5 JUMP JUMPDEST PUSH1 0x40 MLOAD PUSH2 0x257 SWAP2 SWAP1 PUSH2 0xC3A JUMP JUMPDEST PUSH1 0x40 MLOAD DUP1 SWAP2 SUB SWAP1 RETURN JUMPDEST PUSH1 0x60 PUSH1 0x2 DUP1 SLOAD PUSH2 0x26F SWAP1 PUSH2 0xEED JUMP JUMPDEST DUP1 PUSH1 0x1F ADD PUSH1 0x20 DUP1 SWAP2 DIV MUL PUSH1 0x20 ADD PUSH1 0x40 MLOAD SWAP1 DUP2 ADD PUSH1 0x40 MSTORE DUP1 SWAP3 SWAP2 SWAP1 DUP2 DUP2 MSTORE PUSH1 0x20 ADD DUP3 DUP1 SLOAD PUSH2 0x29B SWAP1 PUSH2 0xEED JUMP JUMPDEST DUP1 ISZERO PUSH2 0x2E8 JUMPI DUP1 PUSH1 0x1F LT PUSH2 0x2BD JUMPI PUSH2 0x100 DUP1 DUP4 SLOAD DIV MUL DUP4 MSTORE SWAP2 PUSH1 0x20 ADD SWAP2 PUSH2 0x2E8 JUMP JUMPDEST DUP3 ADD SWAP2 SWAP1 PUSH1 0x0 MSTORE PUSH1 0x20 PUSH1 0x0 KECCAK256 SWAP1 JUMPDEST DUP2 SLOAD DUP2 MSTORE SWAP1 PUSH1 0x1 ADD SWAP1 PUSH1 0x20 ADD DUP1 DUP4 GT PUSH2 0x2CB JUMPI DUP3 SWAP1 SUB PUSH1 0x1F AND DUP3 ADD SWAP2 JUMPDEST POP POP POP POP POP SWAP1 POP SWAP1 JUMP JUMPDEST PUSH1 0x60 PUSH1 0x1 DUP1 SLOAD PUSH2 0x301 SWAP1 PUSH2 0xEED JUMP JUMPDEST DUP1 PUSH1 0x1F ADD PUSH1 0x20 DUP1 SWAP2 DIV MUL PUSH1 0x20 ADD PUSH1 0x40 MLOAD SWAP1 DUP2 ADD PUSH1 0x40 MSTORE DUP1 SWAP3 SWAP2 SWAP1 DUP2 DUP2 MSTORE PUSH1 0x20 ADD DUP3 DUP1 SLOAD PUSH2 0x32D SWAP1 PUSH2 0xEED JUMP JUMPDEST DUP1 ISZERO PUSH2 0x37A JUMPI DUP1 PUSH1 0x1F LT PUSH2 0x34F JUMPI PUSH2 0x100 DUP1 DUP4 SLOAD DIV MUL DUP4 MSTORE SWAP2 PUSH1 0x20 ADD SWAP2 PUSH2 0x37A JUMP JUMPDEST DUP3 ADD SWAP2 SWAP1 PUSH1 0x0 MSTORE PUSH1 0x20 PUSH1 0x0 KECCAK256 SWAP1 JUMPDEST DUP2 SLOAD DUP2 MSTORE SWAP1 PUSH1 0x1 ADD SWAP1 PUSH1 0x20 ADD DUP1 DUP4 GT PUSH2 0x35D JUMPI DUP3 SWAP1 SUB PUSH1 0x1F AND DUP3 ADD SWAP2 JUMPDEST POP POP POP POP POP SWAP1 POP SWAP1 JUMP JUMPDEST PUSH1 0x0 PUSH1 0x4 SLOAD SWAP1 POP SWAP1 JUMP JUMPDEST PUSH1 0x0 DUP1 PUSH1 0x0 SWAP1 SLOAD SWAP1 PUSH2 0x100 EXP SWAP1 DIV PUSH20 0xFFFFFFFFFFFFFFFFFFFFFFFFFFFFFFFFFFFFFFFF AND PUSH20 0xFFFFFFFFFFFFFFFFFFFFFFFFFFFFFFFFFFFFFFFF AND CALLER PUSH20 0xFFFFFFFFFFFFFFFFFFFFFFFFFFFFFFFFFFFFFFFF AND EQ PUSH2 0x41F JUMPI PUSH1 0x40 MLOAD PUSH32 0x8C379A000000000000000000000000000000000000000000000000000000000 DUP2 MSTORE PUSH1 0x4 ADD PUSH2 0x416 SWAP1 PUSH2 0xCD7 JUMP JUMPDEST PUSH1 0x40 MLOAD DUP1 SWAP2 SUB SWAP1 REVERT JUMPDEST DUP2 PUSH1 0x5 PUSH1 0x0 DUP6 PUSH20 0xFFFFFFFFFFFFFFFFFFFFFFFFFFFFFFFFFFFFFFFF AND PUSH20 0xFFFFFFFFFFFFFFFFFFFFFFFFFFFFFFFFFFFFFFFF AND DUP2 MSTORE PUSH1 0x20 ADD SWAP1 DUP2 MSTORE PUSH1 0x20 ADD PUSH1 0x0 KECCAK256 PUSH1 0x0 DUP3 DUP3 SLOAD PUSH2 0x46E SWAP2 SWAP1 PUSH2 0xD72 JUMP JUMPDEST SWAP3 POP POP DUP2 SWAP1 SSTORE POP DUP2 PUSH1 0x4 PUSH1 0x0 DUP3 DUP3 SLOAD PUSH2 0x487 SWAP2 SWAP1 PUSH2 0xD72 JUMP JUMPDEST SWAP3 POP POP DUP2 SWAP1 SSTORE POP DUP3 PUSH20 0xFFFFFFFFFFFFFFFFFFFFFFFFFFFFFFFFFFFFFFFF AND PUSH32 0xF6798A560793A54C3BCFE86A93CDE1E73087D944C0EA20544137D4121396885 DUP4 PUSH1 0x40 MLOAD PUSH2 0x4D4 SWAP2 SWAP1 PUSH2 0xD12 JUMP JUMPDEST PUSH1 0x40 MLOAD DUP1 SWAP2 SUB SWAP1 LOG2 PUSH1 0x1 SWAP1 POP SWAP3 SWAP2 POP POP JUMP JUMPDEST PUSH1 0x0 DUP1 SLOAD SWAP1 PUSH2 0x100 EXP SWAP1 DIV PUSH20 0xFFFFFFFFFFFFFFFFFFFFFFFFFFFFFFFFFFFFFFFF AND PUSH20 0xFFFFFFFFFFFFFFFFFFFFFFFFFFFFFFFFFFFFFFFF AND CALLER PUSH20 0xFFFFFFFFFFFFFFFFFFFFFFFFFFFFFFFFFFFFFFFF AND EQ PUSH2 0x574 JUMPI PUSH1 0x40 MLOAD PUSH32 0x8C379A000000000000000000000000000000000000000000000000000000000 DUP2 MSTORE PUSH1 0x4 ADD PUSH2 0x56B SWAP1 PUSH2 0xCB7 JUMP JUMPDEST PUSH1 0x40 MLOAD DUP1 SWAP2 SUB SWAP1 REVERT JUMPDEST PUSH1 0x0 DUP1 PUSH1 0x0 SWAP1 SLOAD SWAP1 PUSH2 0x100 EXP SWAP1 DIV PUSH20 0xFFFFFFFFFFFFFFFFFFFFFFFFFFFFFFFFFFFFFFFF AND SWAP1 POP DUP1 PUSH20 0xFFFFFFFFFFFFFFFFFFFFFFFFFFFFFFFFFFFFFFFF AND SELFDESTRUCT JUMPDEST PUSH1 0x0 PUSH1 0x5 PUSH1 0x0 DUP4 PUSH20 0xFFFFFFFFFFFFFFFFFFFFFFFFFFFFFFFFFFFFFFFF AND PUSH20 0xFFFFFFFFFFFFFFFFFFFFFFFFFFFFFFFFFFFFFFFF AND DUP2 MSTORE PUSH1 0x20 ADD SWAP1 DUP2 MSTORE PUSH1 0x20 ADD PUSH1 0x0 KECCAK256 SLOAD SWAP1 POP SWAP2 SWAP1 POP JUMP JUMPDEST PUSH1 0x0 DUP1 SLOAD SWAP1 PUSH2 0x100 EXP SWAP1 DIV PUSH20 0xFFFFFFFFFFFFFFFFFFFFFFFFFFFFFFFFFFFFFFFF AND DUP2 JUMP JUMPDEST PUSH1 0x0 PUSH1 0x3 PUSH1 0x0 SWAP1 SLOAD SWAP1 PUSH2 0x100 EXP SWAP1 DIV PUSH16 0xFFFFFFFFFFFFFFFFFFFFFFFFFFFFFFFF AND SWAP1 POP SWAP1 JUMP JUMPDEST PUSH1 0x0 DUP2 PUSH1 0x5 PUSH1 0x0 CALLER PUSH20 0xFFFFFFFFFFFFFFFFFFFFFFFFFFFFFFFFFFFFFFFF AND PUSH20 0xFFFFFFFFFFFFFFFFFFFFFFFFFFFFFFFFFFFFFFFF AND DUP2 MSTORE PUSH1 0x20 ADD SWAP1 DUP2 MSTORE PUSH1 0x20 ADD PUSH1 0x0 KECCAK256 SLOAD LT ISZERO PUSH2 0x6CA JUMPI PUSH1 0x40 MLOAD PUSH32 0x8C379A000000000000000000000000000000000000000000000000000000000 DUP2 MSTORE PUSH1 0x4 ADD PUSH2 0x6C1 SWAP1 PUSH2 0xC97 JUMP JUMPDEST PUSH1 0x40 MLOAD DUP1 SWAP2 SUB SWAP1 REVERT JUMPDEST DUP2 PUSH1 0x5 PUSH1 0x0 CALLER PUSH20 0xFFFFFFFFFFFFFFFFFFFFFFFFFFFFFFFFFFFFFFFF AND PUSH20 0xFFFFFFFFFFFFFFFFFFFFFFFFFFFFFFFFFFFFFFFF AND DUP2 MSTORE PUSH1 0x20 ADD SWAP1 DUP2 MSTORE PUSH1 0x20 ADD PUSH1 0x0 KECCAK256 PUSH1 0x0 DUP3 DUP3 SLOAD PUSH2 0x719 SWAP2 SWAP1 PUSH2 0xE22 JUMP JUMPDEST SWAP3 POP POP DUP2 SWAP1 SSTORE POP DUP2 PUSH1 0x5 PUSH1 0x0 DUP6 PUSH20 0xFFFFFFFFFFFFFFFFFFFFFFFFFFFFFFFFFFFFFFFF AND PUSH20 0xFFFFFFFFFFFFFFFFFFFFFFFFFFFFFFFFFFFFFFFF AND DUP2 MSTORE PUSH1 0x20 ADD SWAP1 DUP2 MSTORE PUSH1 0x20 ADD PUSH1 0x0 KECCAK256 PUSH1 0x0 DUP3 DUP3 SLOAD PUSH2 0x76F SWAP2 SWAP1 PUSH2 0xD72 JUMP JUMPDEST SWAP3 POP POP DUP2 SWAP1 SSTORE POP DUP3 PUSH20 0xFFFFFFFFFFFFFFFFFFFFFFFFFFFFFFFFFFFFFFFF AND CALLER PUSH20 0xFFFFFFFFFFFFFFFFFFFFFFFFFFFFFFFFFFFFFFFF AND PUSH32 0xDDF252AD1BE2C89B69C2B068FC378DAA952BA7F163C4A11628F55A4DF523B3EF DUP5 PUSH1 0x40 MLOAD PUSH2 0x7D3 SWAP2 SWAP1 PUSH2 0xD12 JUMP JUMPDEST PUSH1 0x40 MLOAD DUP1 SWAP2 SUB SWAP1 LOG3 PUSH1 0x1 SWAP1 POP SWAP3 SWAP2 POP POP JUMP JUMPDEST PUSH1 0x0 DUP2 PUSH1 0x5 PUSH1 0x0 CALLER PUSH20 0xFFFFFFFFFFFFFFFFFFFFFFFFFFFFFFFFFFFFFFFF AND PUSH20 0xFFFFFFFFFFFFFFFFFFFFFFFFFFFFFFFFFFFFFFFF AND DUP2 MSTORE PUSH1 0x20 ADD SWAP1 DUP2 MSTORE PUSH1 0x20 ADD PUSH1 0x0 KECCAK256 SLOAD LT ISZERO PUSH2 0x869 JUMPI PUSH1 0x40 MLOAD PUSH32 0x8C379A000000000000000000000000000000000000000000000000000000000 DUP2 MSTORE PUSH1 0x4 ADD PUSH2 0x860 SWAP1 PUSH2 0xC77 JUMP JUMPDEST PUSH1 0x40 MLOAD DUP1 SWAP2 SUB SWAP1 REVERT JUMPDEST PUSH1 0x0 PUSH1 0x3 PUSH1 0x0 SWAP1 SLOAD SWAP1 PUSH2 0x100 EXP SWAP1 DIV PUSH16 0xFFFFFFFFFFFFFFFFFFFFFFFFFFFFFFFF AND PUSH16 0xFFFFFFFFFFFFFFFFFFFFFFFFFFFFFFFF AND DUP4 PUSH2 0x8A7 SWAP2 SWAP1 PUSH2 0xDC8 JUMP JUMPDEST SWAP1 POP DUP3 PUSH1 0x5 PUSH1 0x0 CALLER PUSH20 0xFFFFFFFFFFFFFFFFFFFFFFFFFFFFFFFFFFFFFFFF AND PUSH20 0xFFFFFFFFFFFFFFFFFFFFFFFFFFFFFFFFFFFFFFFF AND DUP2 MSTORE PUSH1 0x20 ADD SWAP1 DUP2 MSTORE PUSH1 0x20 ADD PUSH1 0x0 KECCAK256 PUSH1 0x0 DUP3 DUP3 SLOAD PUSH2 0x8F8 SWAP2 SWAP1 PUSH2 0xE22 JUMP JUMPDEST SWAP3 POP POP DUP2 SWAP1 SSTORE POP DUP3 PUSH1 0x4 PUSH1 0x0 DUP3 DUP3 SLOAD PUSH2 0x911 SWAP2 SWAP1 PUSH2 0xE22 JUMP JUMPDEST SWAP3 POP POP DUP2 SWAP1 SSTORE POP PUSH20 0x0 PUSH4 0xC0BA8F42 DUP3 CALLER PUSH1 0x40 MLOAD DUP4 PUSH4 0xFFFFFFFF AND PUSH1 0xE0 SHL DUP2 MSTORE PUSH1 0x4 ADD PUSH2 0x951 SWAP3 SWAP2 SWAP1 PUSH2 0xD2D JUMP JUMPDEST PUSH1 0x20 PUSH1 0x40 MLOAD DUP1 DUP4 SUB DUP2 DUP7 DUP1 EXTCODESIZE ISZERO DUP1 ISZERO PUSH2 0x969 JUMPI PUSH1 0x0 DUP1 REVERT JUMPDEST POP GAS DELEGATECALL ISZERO DUP1 ISZERO PUSH2 0x97D JUMPI RETURNDATASIZE PUSH1 0x0 DUP1 RETURNDATACOPY RETURNDATASIZE PUSH1 0x0 REVERT JUMPDEST POP POP POP POP PUSH1 0x40 MLOAD RETURNDATASIZE PUSH1 0x1F NOT PUSH1 0x1F DUP3 ADD AND DUP3 ADD DUP1 PUSH1 0x40 MSTORE POP DUP2 ADD SWAP1 PUSH2 0x9A1 SWAP2 SWAP1 PUSH2 0xAA6 JUMP JUMPDEST POP CALLER PUSH20 0xFFFFFFFFFFFFFFFFFFFFFFFFFFFFFFFFFFFFFFFF AND PUSH32 0x5E5E995CE3133561AFCEAA51A9A154D5DB228CD7525D34DF5185582C18D3DF09 DUP5 PUSH1 0x40 MLOAD PUSH2 0x9E8 SWAP2 SWAP1 PUSH2 0xD12 JUMP JUMPDEST PUSH1 0x40 MLOAD DUP1 SWAP2 SUB SWAP1 LOG2 PUSH1 0x1 SWAP2 POP POP SWAP2 SWAP1 POP JUMP JUMPDEST PUSH1 0x0 DUP2 CALLDATALOAD SWAP1 POP PUSH2 0xA09 DUP2 PUSH2 0x1083 JUMP JUMPDEST SWAP3 SWAP2 POP POP JUMP JUMPDEST PUSH1 0x0 DUP2 MLOAD SWAP1 POP PUSH2 0xA1E DUP2 PUSH2 0x109A JUMP JUMPDEST SWAP3 SWAP2 POP POP JUMP JUMPDEST PUSH1 0x0 DUP2 CALLDATALOAD SWAP1 POP PUSH2 0xA33 DUP2 PUSH2 0x10B1 JUMP JUMPDEST SWAP3 SWAP2 POP POP JUMP JUMPDEST PUSH1 0x0 PUSH1 0x20 DUP3 DUP5 SUB SLT ISZERO PUSH2 0xA4F JUMPI PUSH2 0xA4E PUSH2 0xF7D JUMP JUMPDEST JUMPDEST PUSH1 0x0 PUSH2 0xA5D DUP5 DUP3 DUP6 ADD PUSH2 0x9FA JUMP JUMPDEST SWAP2 POP POP SWAP3 SWAP2 POP POP JUMP JUMPDEST PUSH1 0x0 DUP1 PUSH1 0x40 DUP4 DUP6 SUB SLT ISZERO PUSH2 0xA7D JUMPI PUSH2 0xA7C PUSH2 0xF7D JUMP JUMPDEST JUMPDEST PUSH1 0x0 PUSH2 0xA8B DUP6 DUP3 DUP7 ADD PUSH2 0x9FA JUMP JUMPDEST SWAP3 POP POP PUSH1 0x20 PUSH2 0xA9C DUP6 DUP3 DUP7 ADD PUSH2 0xA24 JUMP JUMPDEST SWAP2 POP POP SWAP3 POP SWAP3 SWAP1 POP JUMP JUMPDEST PUSH1 0x0 PUSH1 0x20 DUP3 DUP5 SUB SLT ISZERO PUSH2 0xABC JUMPI PUSH2 0xABB PUSH2 0xF7D JUMP JUMPDEST JUMPDEST PUSH1 0x0 PUSH2 0xACA DUP5 DUP3 DUP6 ADD PUSH2 0xA0F JUMP JUMPDEST SWAP2 POP POP SWAP3 SWAP2 POP POP JUMP JUMPDEST PUSH1 0x0 PUSH1 0x20 DUP3 DUP5 SUB SLT ISZERO PUSH2 0xAE9 JUMPI PUSH2 0xAE8 PUSH2 0xF7D JUMP JUMPDEST JUMPDEST PUSH1 0x0 PUSH2 0xAF7 DUP5 DUP3 DUP6 ADD PUSH2 0xA24 JUMP JUMPDEST SWAP2 POP POP SWAP3 SWAP2 POP POP JUMP JUMPDEST PUSH2 0xB09 DUP2 PUSH2 0xE56 JUMP JUMPDEST DUP3 MSTORE POP POP JUMP JUMPDEST PUSH2 0xB18 DUP2 PUSH2 0xE56 JUMP JUMPDEST DUP3 MSTORE POP POP JUMP JUMPDEST PUSH2 0xB27 DUP2 PUSH2 0xE68 JUMP JUMPDEST DUP3 MSTORE POP POP JUMP JUMPDEST PUSH1 0x0 PUSH2 0xB38 DUP3 PUSH2 0xD56 JUMP JUMPDEST PUSH2 0xB42 DUP2 DUP6 PUSH2 0xD61 JUMP JUMPDEST SWAP4 POP PUSH2 0xB52 DUP2 DUP6 PUSH1 0x20 DUP7 ADD PUSH2 0xEBA JUMP JUMPDEST PUSH2 0xB5B DUP2 PUSH2 0xF82 JUMP JUMPDEST DUP5 ADD SWAP2 POP POP SWAP3 SWAP2 POP POP JUMP JUMPDEST PUSH1 0x0 PUSH2 0xB73 PUSH1 0x1C DUP4 PUSH2 0xD61 JUMP JUMPDEST SWAP2 POP PUSH2 0xB7E DUP3 PUSH2 0xF93 JUMP JUMPDEST PUSH1 0x20 DUP3 ADD SWAP1 POP SWAP2 SWAP1 POP JUMP JUMPDEST PUSH1 0x0 PUSH2 0xB96 PUSH1 0x14 DUP4 PUSH2 0xD61 JUMP JUMPDEST SWAP2 POP PUSH2 0xBA1 DUP3 PUSH2 0xFBC JUMP JUMPDEST PUSH1 0x20 DUP3 ADD SWAP1 POP SWAP2 SWAP1 POP JUMP JUMPDEST PUSH1 0x0 PUSH2 0xBB9 PUSH1 0x25 DUP4 PUSH2 0xD61 JUMP JUMPDEST SWAP2 POP PUSH2 0xBC4 DUP3 PUSH2 0xFE5 JUMP JUMPDEST PUSH1 0x40 DUP3 ADD SWAP1 POP SWAP2 SWAP1 POP JUMP JUMPDEST PUSH1 0x0 PUSH2 0xBDC PUSH1 0x23 DUP4 PUSH2 0xD61 JUMP JUMPDEST SWAP2 POP PUSH2 0xBE7 DUP3 PUSH2 0x1034 JUMP JUMPDEST PUSH1 0x40 DUP3 ADD SWAP1 POP SWAP2 SWAP1 POP JUMP JUMPDEST PUSH2 0xBFB DUP2 PUSH2 0xE74 JUMP JUMPDEST DUP3 MSTORE POP POP JUMP JUMPDEST PUSH2 0xC0A DUP2 PUSH2 0xEB0 JUMP JUMPDEST DUP3 MSTORE POP POP JUMP JUMPDEST PUSH2 0xC19 DUP2 PUSH2 0xEB0 JUMP JUMPDEST DUP3 MSTORE POP POP JUMP JUMPDEST PUSH1 0x0 PUSH1 0x20 DUP3 ADD SWAP1 POP PUSH2 0xC34 PUSH1 0x0 DUP4 ADD DUP5 PUSH2 0xB00 JUMP JUMPDEST SWAP3 SWAP2 POP POP JUMP JUMPDEST PUSH1 0x0 PUSH1 0x20 DUP3 ADD SWAP1 POP PUSH2 0xC4F PUSH1 0x0 DUP4 ADD DUP5 PUSH2 0xB1E JUMP JUMPDEST SWAP3 SWAP2 POP POP JUMP JUMPDEST PUSH1 0x0 PUSH1 0x20 DUP3 ADD SWAP1 POP DUP2 DUP2 SUB PUSH1 0x0 DUP4 ADD MSTORE PUSH2 0xC6F DUP2 DUP5 PUSH2 0xB2D JUMP JUMPDEST SWAP1 POP SWAP3 SWAP2 POP POP JUMP JUMPDEST PUSH1 0x0 PUSH1 0x20 DUP3 ADD SWAP1 POP DUP2 DUP2 SUB PUSH1 0x0 DUP4 ADD MSTORE PUSH2 0xC90 DUP2 PUSH2 0xB66 JUMP JUMPDEST SWAP1 POP SWAP2 SWAP1 POP JUMP JUMPDEST PUSH1 0x0 PUSH1 0x20 DUP3 ADD SWAP1 POP DUP2 DUP2 SUB PUSH1 0x0 DUP4 ADD MSTORE PUSH2 0xCB0 DUP2 PUSH2 0xB89 JUMP JUMPDEST SWAP1 POP SWAP2 SWAP1 POP JUMP JUMPDEST PUSH1 0x0 PUSH1 0x20 DUP3 ADD SWAP1 POP DUP2 DUP2 SUB PUSH1 0x0 DUP4 ADD MSTORE PUSH2 0xCD0 DUP2 PUSH2 0xBAC JUMP JUMPDEST SWAP1 POP SWAP2 SWAP1 POP JUMP JUMPDEST PUSH1 0x0 PUSH1 0x20 DUP3 ADD SWAP1 POP DUP2 DUP2 SUB PUSH1 0x0 DUP4 ADD MSTORE PUSH2 0xCF0 DUP2 PUSH2 0xBCF JUMP JUMPDEST SWAP1 POP SWAP2 SWAP1 POP JUMP JUMPDEST PUSH1 0x0 PUSH1 0x20 DUP3 ADD SWAP1 POP PUSH2 0xD0C PUSH1 0x0 DUP4 ADD DUP5 PUSH2 0xBF2 JUMP JUMPDEST SWAP3 SWAP2 POP POP JUMP JUMPDEST PUSH1 0x0 PUSH1 0x20 DUP3 ADD SWAP1 POP PUSH2 0xD27 PUSH1 0x0 DUP4 ADD DUP5 PUSH2 0xC01 JUMP JUMPDEST SWAP3 SWAP2 POP POP JUMP JUMPDEST PUSH1 0x0 PUSH1 0x40 DUP3 ADD SWAP1 POP PUSH2 0xD42 PUSH1 0x0 DUP4 ADD DUP6 PUSH2 0xC10 JUMP JUMPDEST PUSH2 0xD4F PUSH1 0x20 DUP4 ADD DUP5 PUSH2 0xB0F JUMP JUMPDEST SWAP4 SWAP3 POP POP POP JUMP JUMPDEST PUSH1 0x0 DUP2 MLOAD SWAP1 POP SWAP2 SWAP1 POP JUMP JUMPDEST PUSH1 0x0 DUP3 DUP3 MSTORE PUSH1 0x20 DUP3 ADD SWAP1 POP SWAP3 SWAP2 POP POP JUMP JUMPDEST PUSH1 0x0 PUSH2 0xD7D DUP3 PUSH2 0xEB0 JUMP JUMPDEST SWAP2 POP PUSH2 0xD88 DUP4 PUSH2 0xEB0 JUMP JUMPDEST SWAP3 POP DUP3 PUSH32 0xFFFFFFFFFFFFFFFFFFFFFFFFFFFFFFFFFFFFFFFFFFFFFFFFFFFFFFFFFFFFFFFF SUB DUP3 GT ISZERO PUSH2 0xDBD JUMPI PUSH2 0xDBC PUSH2 0xF1F JUMP JUMPDEST JUMPDEST DUP3 DUP3 ADD SWAP1 POP SWAP3 SWAP2 POP POP JUMP JUMPDEST PUSH1 0x0 PUSH2 0xDD3 DUP3 PUSH2 0xEB0 JUMP JUMPDEST SWAP2 POP PUSH2 0xDDE DUP4 PUSH2 0xEB0 JUMP JUMPDEST SWAP3 POP DUP2 PUSH32 0xFFFFFFFFFFFFFFFFFFFFFFFFFFFFFFFFFFFFFFFFFFFFFFFFFFFFFFFFFFFFFFFF DIV DUP4 GT DUP3 ISZERO ISZERO AND ISZERO PUSH2 0xE17 JUMPI PUSH2 0xE16 PUSH2 0xF1F JUMP JUMPDEST JUMPDEST DUP3 DUP3 MUL SWAP1 POP SWAP3 SWAP2 POP POP JUMP JUMPDEST PUSH1 0x0 PUSH2 0xE2D DUP3 PUSH2 0xEB0 JUMP JUMPDEST SWAP2 POP PUSH2 0xE38 DUP4 PUSH2 0xEB0 JUMP JUMPDEST SWAP3 POP DUP3 DUP3 LT ISZERO PUSH2 0xE4B JUMPI PUSH2 0xE4A PUSH2 0xF1F JUMP JUMPDEST JUMPDEST DUP3 DUP3 SUB SWAP1 POP SWAP3 SWAP2 POP POP JUMP JUMPDEST PUSH1 0x0 PUSH2 0xE61 DUP3 PUSH2 0xE90 JUMP JUMPDEST SWAP1 POP SWAP2 SWAP1 POP JUMP JUMPDEST PUSH1 0x0 DUP2 ISZERO ISZERO SWAP1 POP SWAP2 SWAP1 POP JUMP JUMPDEST PUSH1 0x0 PUSH16 0xFFFFFFFFFFFFFFFFFFFFFFFFFFFFFFFF DUP3 AND SWAP1 POP SWAP2 SWAP1 POP JUMP JUMPDEST PUSH1 0x0 PUSH20 0xFFFFFFFFFFFFFFFFFFFFFFFFFFFFFFFFFFFFFFFF DUP3 AND SWAP1 POP SWAP2 SWAP1 POP JUMP JUMPDEST PUSH1 0x0 DUP2 SWAP1 POP SWAP2 SWAP1 POP JUMP JUMPDEST PUSH1 0x0 JUMPDEST DUP4 DUP2 LT ISZERO PUSH2 0xED8 JUMPI DUP1 DUP3 ADD MLOAD DUP2 DUP5 ADD MSTORE PUSH1 0x20 DUP2 ADD SWAP1 POP PUSH2 0xEBD JUMP JUMPDEST DUP4 DUP2 GT ISZERO PUSH2 0xEE7 JUMPI PUSH1 0x0 DUP5 DUP5 ADD MSTORE JUMPDEST POP POP POP POP JUMP JUMPDEST PUSH1 0x0 PUSH1 0x2 DUP3 DIV SWAP1 POP PUSH1 0x1 DUP3 AND DUP1 PUSH2 0xF05 JUMPI PUSH1 0x7F DUP3 AND SWAP2 POP JUMPDEST PUSH1 0x20 DUP3 LT DUP2 EQ ISZERO PUSH2 0xF19 JUMPI PUSH2 0xF18 PUSH2 0xF4E JUMP JUMPDEST JUMPDEST POP SWAP2 SWAP1 POP JUMP JUMPDEST PUSH32 0x4E487B7100000000000000000000000000000000000000000000000000000000 PUSH1 0x0 MSTORE PUSH1 0x11 PUSH1 0x4 MSTORE PUSH1 0x24 PUSH1 0x0 REVERT JUMPDEST PUSH32 0x4E487B7100000000000000000000000000000000000000000000000000000000 PUSH1 0x0 MSTORE PUSH1 0x22 PUSH1 0x4 MSTORE PUSH1 0x24 PUSH1 0x0 REVERT JUMPDEST PUSH1 0x0 DUP1 REVERT JUMPDEST PUSH1 0x0 PUSH1 0x1F NOT PUSH1 0x1F DUP4 ADD AND SWAP1 POP SWAP2 SWAP1 POP JUMP JUMPDEST PUSH32 0x596F7520646F6E2774206861766520656E6F75676820746F6B656E7300000000 PUSH1 0x0 DUP3 ADD MSTORE POP JUMP JUMPDEST PUSH32 0x496E73756666696369656E742042616C616E6365000000000000000000000000 PUSH1 0x0 DUP3 ADD MSTORE POP JUMP JUMPDEST PUSH32 0x596F7520617265206E6F7420746865206F776E6572206F662074686520636F6E PUSH1 0x0 DUP3 ADD MSTORE PUSH32 0x7472616374000000000000000000000000000000000000000000000000000000 PUSH1 0x20 DUP3 ADD MSTORE POP JUMP JUMPDEST PUSH32 0x596F7520617265206E6F7420746865206F776E6572206F66207468697320746F PUSH1 0x0 DUP3 ADD MSTORE PUSH32 0x6B656E0000000000000000000000000000000000000000000000000000000000 PUSH1 0x20 DUP3 ADD MSTORE POP JUMP JUMPDEST PUSH2 0x108C DUP2 PUSH2 0xE56 JUMP JUMPDEST DUP2 EQ PUSH2 0x1097 JUMPI PUSH1 0x0 DUP1 REVERT JUMPDEST POP JUMP JUMPDEST PUSH2 0x10A3 DUP2 PUSH2 0xE68 JUMP JUMPDEST DUP2 EQ PUSH2 0x10AE JUMPI PUSH1 0x0 DUP1 REVERT JUMPDEST POP JUMP JUMPDEST PUSH2 0x10BA DUP2 PUSH2 0xEB0 JUMP JUMPDEST DUP2 EQ PUSH2 0x10C5 JUMPI PUSH1 0x0 DUP1 REVERT JUMPDEST POP JUMP INVALID LOG2 PUSH5 0x6970667358 0x22 SLT KECCAK256 LOG3 0xE3 LOG3 0x5D 0xDD 0xB0 SWAP1 DUP9 SDIV SUB 0xE0 0xE2 CODECOPY ISZERO 0xAA 0xCD 0x4C GASPRICE 0xD6 DUP9 PUSH27 0xF7245C30DDC822D1C6E8E64736F6C634300080700330000000000 "
				},
				"gasEstimates": {
					"creation": {
						"codeDepositCost": "870000",
						"executionCost": "infinite",
						"totalCost": "infinite"
					},
					"external": {
						"": "196",
						"balanceOf(address)": "2841",
						"close()": "32123",
						"getName()": "infinite",
						"getPrice()": "2523",
						"getSymbol()": "infinite",
						"mint(address,uint256)": "infinite",
						"owner()": "2533",
						"sell(uint256)": "infinite",
						"totalSupply()": "2482",
						"transfer(address,uint256)": "infinite"
					}
				},
				"methodIdentifiers": {
					"balanceOf(address)": "70a08231",
					"close()": "43d726d6",
					"getName()": "17d7de7c",
					"getPrice()": "98d5fdca",
					"getSymbol()": "15070401",
					"mint(address,uint256)": "40c10f19",
					"owner()": "8da5cb5b",
					"sell(uint256)": "e4849b32",
					"totalSupply()": "18160ddd",
					"transfer(address,uint256)": "a9059cbb"
				}
			},
			"storageLayout": {
				"storage": [
					{
						"astId": 47,
						"contract": "s1911027_part2_2.sol:Token",
						"label": "owner",
						"offset": 0,
						"slot": "0",
						"type": "t_address"
					},
					{
						"astId": 69,
						"contract": "s1911027_part2_2.sol:Token",
						"label": "name",
						"offset": 0,
						"slot": "1",
						"type": "t_string_storage"
					},
					{
						"astId": 71,
						"contract": "s1911027_part2_2.sol:Token",
						"label": "symbol",
						"offset": 0,
						"slot": "2",
						"type": "t_string_storage"
					},
					{
						"astId": 73,
						"contract": "s1911027_part2_2.sol:Token",
						"label": "price",
						"offset": 0,
						"slot": "3",
						"type": "t_uint128"
					},
					{
						"astId": 75,
						"contract": "s1911027_part2_2.sol:Token",
						"label": "totalSupply_",
						"offset": 0,
						"slot": "4",
						"type": "t_uint256"
					},
					{
						"astId": 79,
						"contract": "s1911027_part2_2.sol:Token",
						"label": "balances",
						"offset": 0,
						"slot": "5",
						"type": "t_mapping(t_address,t_uint256)"
					}
				],
				"types": {
					"t_address": {
						"encoding": "inplace",
						"label": "address",
						"numberOfBytes": "20"
					},
					"t_mapping(t_address,t_uint256)": {
						"encoding": "mapping",
						"key": "t_address",
						"label": "mapping(address => uint256)",
						"numberOfBytes": "32",
						"value": "t_uint256"
					},
					"t_string_storage": {
						"encoding": "bytes",
						"label": "string",
						"numberOfBytes": "32"
					},
					"t_uint128": {
						"encoding": "inplace",
						"label": "uint128",
						"numberOfBytes": "16"
					},
					"t_uint256": {
						"encoding": "inplace",
						"label": "uint256",
						"numberOfBytes": "32"
					}
				}
			},
			"userdoc": {
				"kind": "user",
				"methods": {},
				"version": 1
			}
		}
	}
}