{
	"contracts/bdl cw2..sol": {
		"DiceGame": {
			"abi": [
				{
					"inputs": [
						{
							"internalType": "bytes32",
							"name": "ciphertext",
							"type": "bytes32"
						}
					],
					"name": "enterA",
					"outputs": [],
					"stateMutability": "payable",
					"type": "function"
				},
				{
					"inputs": [
						{
							"internalType": "bytes32",
							"name": "ciphertext",
							"type": "bytes32"
						}
					],
					"name": "enterB",
					"outputs": [],
					"stateMutability": "payable",
					"type": "function"
				},
				{
					"inputs": [
						{
							"internalType": "uint256",
							"name": "value",
							"type": "uint256"
						}
					],
					"name": "getHash",
					"outputs": [
						{
							"internalType": "bytes32",
							"name": "",
							"type": "bytes32"
						}
					],
					"stateMutability": "view",
					"type": "function"
				},
				{
					"inputs": [],
					"name": "getResultAndFund",
					"outputs": [
						{
							"internalType": "uint256",
							"name": "",
							"type": "uint256"
						}
					],
					"stateMutability": "view",
					"type": "function"
				},
				{
					"inputs": [],
					"name": "reset",
					"outputs": [],
					"stateMutability": "nonpayable",
					"type": "function"
				},
				{
					"inputs": [],
					"name": "resetAndWithdraw",
					"outputs": [],
					"stateMutability": "nonpayable",
					"type": "function"
				},
				{
					"inputs": [
						{
							"internalType": "uint256",
							"name": "value",
							"type": "uint256"
						}
					],
					"name": "roll",
					"outputs": [
						{
							"internalType": "uint256",
							"name": "",
							"type": "uint256"
						}
					],
					"stateMutability": "nonpayable",
					"type": "function"
				}
			],
			"devdoc": {
				"kind": "dev",
				"methods": {},
				"version": 1
			},
			"evm": {
				"assembly": "    /* \"contracts/bdl cw2..sol\":579:4649  contract DiceGame {\r... */\n  mstore(0x40, 0x80)\n    /* \"contracts/bdl cw2..sol\":635:639  1e18 */\n  0x0de0b6b3a7640000\n    /* \"contracts/bdl cw2..sol\":617:639  uint256 unitETH = 1e18 */\n  0x00\n  sstore\n    /* \"contracts/bdl cw2..sol\":932:933  0 */\n  0x00\n    /* \"contracts/bdl cw2..sol\":917:933  uint256 dice = 0 */\n  0x06\n  sstore\n    /* \"contracts/bdl cw2..sol\":579:4649  contract DiceGame {\r... */\n  callvalue\n  dup1\n  iszero\n  tag_1\n  jumpi\n  0x00\n  dup1\n  revert\ntag_1:\n  pop\n  dataSize(sub_0)\n  dup1\n  dataOffset(sub_0)\n  0x00\n  codecopy\n  0x00\n  return\nstop\n\nsub_0: assembly {\n        /* \"contracts/bdl cw2..sol\":579:4649  contract DiceGame {\r... */\n      mstore(0x40, 0x80)\n      jumpi(tag_1, lt(calldatasize, 0x04))\n      shr(0xe0, calldataload(0x00))\n      dup1\n      0x6b2fafa9\n      gt\n      tag_9\n      jumpi\n      dup1\n      0x6b2fafa9\n      eq\n      tag_5\n      jumpi\n      dup1\n      0x755b55ad\n      eq\n      tag_6\n      jumpi\n      dup1\n      0xd826f88f\n      eq\n      tag_7\n      jumpi\n      dup1\n      0xf147c8de\n      eq\n      tag_8\n      jumpi\n      jump(tag_1)\n    tag_9:\n      dup1\n      0x1f7b4f30\n      eq\n      tag_2\n      jumpi\n      dup1\n      0x23fdeeb8\n      eq\n      tag_3\n      jumpi\n      dup1\n      0x2717605f\n      eq\n      tag_4\n      jumpi\n    tag_1:\n      0x00\n      dup1\n      revert\n        /* \"contracts/bdl cw2..sol\":2362:3466  function roll(uint256 value) public returns (uint256){\r... */\n    tag_2:\n      callvalue\n      dup1\n      iszero\n      tag_10\n      jumpi\n      0x00\n      dup1\n      revert\n    tag_10:\n      pop\n      tag_11\n      0x04\n      dup1\n      calldatasize\n      sub\n      dup2\n      add\n      swap1\n      tag_12\n      swap2\n      swap1\n      tag_13\n      jump\t// in\n    tag_12:\n      tag_14\n      jump\t// in\n    tag_11:\n      mload(0x40)\n      tag_15\n      swap2\n      swap1\n      tag_16\n      jump\t// in\n    tag_15:\n      mload(0x40)\n      dup1\n      swap2\n      sub\n      swap1\n      return\n        /* \"contracts/bdl cw2..sol\":3526:3629  function getResultAndFund() public view returns (uint256) {\r... */\n    tag_3:\n      callvalue\n      dup1\n      iszero\n      tag_17\n      jumpi\n      0x00\n      dup1\n      revert\n    tag_17:\n      pop\n      tag_18\n      tag_19\n      jump\t// in\n    tag_18:\n      mload(0x40)\n      tag_20\n      swap2\n      swap1\n      tag_16\n      jump\t// in\n    tag_20:\n      mload(0x40)\n      dup1\n      swap2\n      sub\n      swap1\n      return\n        /* \"contracts/bdl cw2..sol\":1044:1551  function enterA(bytes32 ciphertext) public payable{\r... */\n    tag_4:\n      tag_21\n      0x04\n      dup1\n      calldatasize\n      sub\n      dup2\n      add\n      swap1\n      tag_22\n      swap2\n      swap1\n      tag_23\n      jump\t// in\n    tag_22:\n      tag_24\n      jump\t// in\n    tag_21:\n      stop\n        /* \"contracts/bdl cw2..sol\":4523:4644  function getHash(uint256 value) public view returns (bytes32){\r... */\n    tag_5:\n      callvalue\n      dup1\n      iszero\n      tag_25\n      jumpi\n      0x00\n      dup1\n      revert\n    tag_25:\n      pop\n      tag_26\n      0x04\n      dup1\n      calldatasize\n      sub\n      dup2\n      add\n      swap1\n      tag_27\n      swap2\n      swap1\n      tag_13\n      jump\t// in\n    tag_27:\n      tag_28\n      jump\t// in\n    tag_26:\n      mload(0x40)\n      tag_29\n      swap2\n      swap1\n      tag_30\n      jump\t// in\n    tag_29:\n      mload(0x40)\n      dup1\n      swap2\n      sub\n      swap1\n      return\n        /* \"contracts/bdl cw2..sol\":1661:2168  function enterB(bytes32 ciphertext) public payable{\r... */\n    tag_6:\n      tag_31\n      0x04\n      dup1\n      calldatasize\n      sub\n      dup2\n      add\n      swap1\n      tag_32\n      swap2\n      swap1\n      tag_23\n      jump\t// in\n    tag_32:\n      tag_33\n      jump\t// in\n    tag_31:\n      stop\n        /* \"contracts/bdl cw2..sol\":3760:4128  function reset() public {\r... */\n    tag_7:\n      callvalue\n      dup1\n      iszero\n      tag_34\n      jumpi\n      0x00\n      dup1\n      revert\n    tag_34:\n      pop\n      tag_35\n      tag_36\n      jump\t// in\n    tag_35:\n      stop\n        /* \"contracts/bdl cw2..sol\":4283:4502  function resetAndWithdraw() public {\r... */\n    tag_8:\n      callvalue\n      dup1\n      iszero\n      tag_37\n      jumpi\n      0x00\n      dup1\n      revert\n    tag_37:\n      pop\n      tag_38\n      tag_39\n      jump\t// in\n    tag_38:\n      stop\n        /* \"contracts/bdl cw2..sol\":2362:3466  function roll(uint256 value) public returns (uint256){\r... */\n    tag_14:\n        /* \"contracts/bdl cw2..sol\":2407:2414  uint256 */\n      0x00\n        /* \"contracts/bdl cw2..sol\":2502:2512  msg.sender */\n      caller\n        /* \"contracts/bdl cw2..sol\":2452:2512  commitment[keccak256(abi.encodePacked(value))] == msg.sender */\n      0xffffffffffffffffffffffffffffffffffffffff\n      and\n        /* \"contracts/bdl cw2..sol\":2452:2462  commitment */\n      0x02\n        /* \"contracts/bdl cw2..sol\":2452:2498  commitment[keccak256(abi.encodePacked(value))] */\n      0x00\n        /* \"contracts/bdl cw2..sol\":2490:2495  value */\n      dup5\n        /* \"contracts/bdl cw2..sol\":2473:2496  abi.encodePacked(value) */\n      add(0x20, mload(0x40))\n      tag_41\n      swap2\n      swap1\n      tag_42\n      jump\t// in\n    tag_41:\n      mload(0x40)\n      0x20\n      dup2\n      dup4\n      sub\n      sub\n      dup2\n      mstore\n      swap1\n      0x40\n      mstore\n        /* \"contracts/bdl cw2..sol\":2463:2497  keccak256(abi.encodePacked(value)) */\n      dup1\n      mload\n      swap1\n      0x20\n      add\n      keccak256\n        /* \"contracts/bdl cw2..sol\":2452:2498  commitment[keccak256(abi.encodePacked(value))] */\n      dup2\n      mstore\n      0x20\n      add\n      swap1\n      dup2\n      mstore\n      0x20\n      add\n      0x00\n      keccak256\n      0x00\n      swap1\n      sload\n      swap1\n      0x0100\n      exp\n      swap1\n      div\n      0xffffffffffffffffffffffffffffffffffffffff\n      and\n        /* \"contracts/bdl cw2..sol\":2452:2512  commitment[keccak256(abi.encodePacked(value))] == msg.sender */\n      0xffffffffffffffffffffffffffffffffffffffff\n      and\n      eq\n        /* \"contracts/bdl cw2..sol\":2444:2527  require(commitment[keccak256(abi.encodePacked(value))] == msg.sender, \"Not found!\") */\n      tag_43\n      jumpi\n      mload(0x40)\n      0x08c379a000000000000000000000000000000000000000000000000000000000\n      dup2\n      mstore\n      0x04\n      add\n      tag_44\n      swap1\n      tag_45\n      jump\t// in\n    tag_44:\n      mload(0x40)\n      dup1\n      swap2\n      sub\n      swap1\n      revert\n    tag_43:\n        /* \"contracts/bdl cw2..sol\":2565:2566  0 */\n      0x00\n        /* \"contracts/bdl cw2..sol\":2546:2567  playerA != address(0) */\n      0xffffffffffffffffffffffffffffffffffffffff\n      and\n        /* \"contracts/bdl cw2..sol\":2546:2553  playerA */\n      0x04\n      0x00\n      swap1\n      sload\n      swap1\n      0x0100\n      exp\n      swap1\n      div\n      0xffffffffffffffffffffffffffffffffffffffff\n      and\n        /* \"contracts/bdl cw2..sol\":2546:2567  playerA != address(0) */\n      0xffffffffffffffffffffffffffffffffffffffff\n      and\n      eq\n      iszero\n        /* \"contracts/bdl cw2..sol\":2538:2588  require(playerA != address(0), \"wait for playerA\") */\n      tag_46\n      jumpi\n      mload(0x40)\n      0x08c379a000000000000000000000000000000000000000000000000000000000\n      dup2\n      mstore\n      0x04\n      add\n      tag_47\n      swap1\n      tag_48\n      jump\t// in\n    tag_47:\n      mload(0x40)\n      dup1\n      swap2\n      sub\n      swap1\n      revert\n    tag_46:\n        /* \"contracts/bdl cw2..sol\":2626:2627  0 */\n      0x00\n        /* \"contracts/bdl cw2..sol\":2607:2628  playerB != address(0) */\n      0xffffffffffffffffffffffffffffffffffffffff\n      and\n        /* \"contracts/bdl cw2..sol\":2607:2614  playerB */\n      0x05\n      0x00\n      swap1\n      sload\n      swap1\n      0x0100\n      exp\n      swap1\n      div\n      0xffffffffffffffffffffffffffffffffffffffff\n      and\n        /* \"contracts/bdl cw2..sol\":2607:2628  playerB != address(0) */\n      0xffffffffffffffffffffffffffffffffffffffff\n      and\n      eq\n      iszero\n        /* \"contracts/bdl cw2..sol\":2599:2649  require(playerB != address(0), \"wait for playerB\") */\n      tag_49\n      jumpi\n      mload(0x40)\n      0x08c379a000000000000000000000000000000000000000000000000000000000\n      dup2\n      mstore\n      0x04\n      add\n      tag_50\n      swap1\n      tag_51\n      jump\t// in\n    tag_50:\n      mload(0x40)\n      dup1\n      swap2\n      sub\n      swap1\n      revert\n    tag_49:\n        /* \"contracts/bdl cw2..sol\":2676:2677  0 */\n      0x00\n        /* \"contracts/bdl cw2..sol\":2668:2672  dice */\n      sload(0x06)\n        /* \"contracts/bdl cw2..sol\":2668:2677  dice == 0 */\n      eq\n        /* \"contracts/bdl cw2..sol\":2660:2716  require(dice == 0, \"don't repeat until all users reset\") */\n      tag_52\n      jumpi\n      mload(0x40)\n      0x08c379a000000000000000000000000000000000000000000000000000000000\n      dup2\n      mstore\n      0x04\n      add\n      tag_53\n      swap1\n      tag_54\n      jump\t// in\n    tag_53:\n      mload(0x40)\n      dup1\n      swap2\n      sub\n      swap1\n      revert\n    tag_52:\n        /* \"contracts/bdl cw2..sol\":2803:2804  0 */\n      0x00\n        /* \"contracts/bdl cw2..sol\":2746:2756  commitment */\n      0x02\n        /* \"contracts/bdl cw2..sol\":2746:2792  commitment[keccak256(abi.encodePacked(value))] */\n      0x00\n        /* \"contracts/bdl cw2..sol\":2784:2789  value */\n      dup5\n        /* \"contracts/bdl cw2..sol\":2767:2790  abi.encodePacked(value) */\n      add(0x20, mload(0x40))\n      tag_55\n      swap2\n      swap1\n      tag_42\n      jump\t// in\n    tag_55:\n      mload(0x40)\n      0x20\n      dup2\n      dup4\n      sub\n      sub\n      dup2\n      mstore\n      swap1\n      0x40\n      mstore\n        /* \"contracts/bdl cw2..sol\":2757:2791  keccak256(abi.encodePacked(value)) */\n      dup1\n      mload\n      swap1\n      0x20\n      add\n      keccak256\n        /* \"contracts/bdl cw2..sol\":2746:2792  commitment[keccak256(abi.encodePacked(value))] */\n      dup2\n      mstore\n      0x20\n      add\n      swap1\n      dup2\n      mstore\n      0x20\n      add\n      0x00\n      keccak256\n      0x00\n        /* \"contracts/bdl cw2..sol\":2746:2805  commitment[keccak256(abi.encodePacked(value))] = address(0) */\n      0x0100\n      exp\n      dup2\n      sload\n      dup2\n      0xffffffffffffffffffffffffffffffffffffffff\n      mul\n      not\n      and\n      swap1\n      dup4\n      0xffffffffffffffffffffffffffffffffffffffff\n      and\n      mul\n      or\n      swap1\n      sstore\n      pop\n        /* \"contracts/bdl cw2..sol\":2843:2848  value */\n      dup2\n        /* \"contracts/bdl cw2..sol\":2816:2828  random_value */\n      0x03\n        /* \"contracts/bdl cw2..sol\":2816:2840  random_value[msg.sender] */\n      0x00\n        /* \"contracts/bdl cw2..sol\":2829:2839  msg.sender */\n      caller\n        /* \"contracts/bdl cw2..sol\":2816:2840  random_value[msg.sender] */\n      0xffffffffffffffffffffffffffffffffffffffff\n      and\n      0xffffffffffffffffffffffffffffffffffffffff\n      and\n      dup2\n      mstore\n      0x20\n      add\n      swap1\n      dup2\n      mstore\n      0x20\n      add\n      0x00\n      keccak256\n        /* \"contracts/bdl cw2..sol\":2816:2848  random_value[msg.sender] = value */\n      dup2\n      swap1\n      sstore\n      pop\n        /* \"contracts/bdl cw2..sol\":2887:2888  0 */\n      0x00\n        /* \"contracts/bdl cw2..sol\":2862:2874  random_value */\n      0x03\n        /* \"contracts/bdl cw2..sol\":2862:2883  random_value[playerA] */\n      0x00\n        /* \"contracts/bdl cw2..sol\":2875:2882  playerA */\n      0x04\n      0x00\n      swap1\n      sload\n      swap1\n      0x0100\n      exp\n      swap1\n      div\n      0xffffffffffffffffffffffffffffffffffffffff\n      and\n        /* \"contracts/bdl cw2..sol\":2862:2883  random_value[playerA] */\n      0xffffffffffffffffffffffffffffffffffffffff\n      and\n      0xffffffffffffffffffffffffffffffffffffffff\n      and\n      dup2\n      mstore\n      0x20\n      add\n      swap1\n      dup2\n      mstore\n      0x20\n      add\n      0x00\n      keccak256\n      sload\n        /* \"contracts/bdl cw2..sol\":2862:2888  random_value[playerA] == 0 */\n      eq\n        /* \"contracts/bdl cw2..sol\":2859:2924  if(random_value[playerA] == 0){\r... */\n      iszero\n      tag_56\n      jumpi\n        /* \"contracts/bdl cw2..sol\":2911:2912  0 */\n      0x00\n        /* \"contracts/bdl cw2..sol\":2904:2912  return 0 */\n      swap1\n      pop\n      jump(tag_40)\n        /* \"contracts/bdl cw2..sol\":2859:2924  if(random_value[playerA] == 0){\r... */\n    tag_56:\n        /* \"contracts/bdl cw2..sol\":2962:2963  0 */\n      0x00\n        /* \"contracts/bdl cw2..sol\":2937:2949  random_value */\n      0x03\n        /* \"contracts/bdl cw2..sol\":2937:2958  random_value[playerB] */\n      0x00\n        /* \"contracts/bdl cw2..sol\":2950:2957  playerB */\n      0x05\n      0x00\n      swap1\n      sload\n      swap1\n      0x0100\n      exp\n      swap1\n      div\n      0xffffffffffffffffffffffffffffffffffffffff\n      and\n        /* \"contracts/bdl cw2..sol\":2937:2958  random_value[playerB] */\n      0xffffffffffffffffffffffffffffffffffffffff\n      and\n      0xffffffffffffffffffffffffffffffffffffffff\n      and\n      dup2\n      mstore\n      0x20\n      add\n      swap1\n      dup2\n      mstore\n      0x20\n      add\n      0x00\n      keccak256\n      sload\n        /* \"contracts/bdl cw2..sol\":2937:2963  random_value[playerB] == 0 */\n      eq\n        /* \"contracts/bdl cw2..sol\":2934:2999  if(random_value[playerB] == 0){\r... */\n      iszero\n      tag_57\n      jumpi\n        /* \"contracts/bdl cw2..sol\":2986:2987  0 */\n      0x00\n        /* \"contracts/bdl cw2..sol\":2979:2987  return 0 */\n      swap1\n      pop\n      jump(tag_40)\n        /* \"contracts/bdl cw2..sol\":2934:2999  if(random_value[playerB] == 0){\r... */\n    tag_57:\n        /* \"contracts/bdl cw2..sol\":3126:3127  6 */\n      0x06\n        /* \"contracts/bdl cw2..sol\":3099:3111  random_value */\n      0x03\n        /* \"contracts/bdl cw2..sol\":3099:3120  random_value[playerB] */\n      0x00\n        /* \"contracts/bdl cw2..sol\":3112:3119  playerB */\n      0x05\n      0x00\n      swap1\n      sload\n      swap1\n      0x0100\n      exp\n      swap1\n      div\n      0xffffffffffffffffffffffffffffffffffffffff\n      and\n        /* \"contracts/bdl cw2..sol\":3099:3120  random_value[playerB] */\n      0xffffffffffffffffffffffffffffffffffffffff\n      and\n      0xffffffffffffffffffffffffffffffffffffffff\n      and\n      dup2\n      mstore\n      0x20\n      add\n      swap1\n      dup2\n      mstore\n      0x20\n      add\n      0x00\n      keccak256\n      sload\n        /* \"contracts/bdl cw2..sol\":3075:3087  random_value */\n      0x03\n        /* \"contracts/bdl cw2..sol\":3075:3096  random_value[playerA] */\n      0x00\n        /* \"contracts/bdl cw2..sol\":3088:3095  playerA */\n      0x04\n      0x00\n      swap1\n      sload\n      swap1\n      0x0100\n      exp\n      swap1\n      div\n      0xffffffffffffffffffffffffffffffffffffffff\n      and\n        /* \"contracts/bdl cw2..sol\":3075:3096  random_value[playerA] */\n      0xffffffffffffffffffffffffffffffffffffffff\n      and\n      0xffffffffffffffffffffffffffffffffffffffff\n      and\n      dup2\n      mstore\n      0x20\n      add\n      swap1\n      dup2\n      mstore\n      0x20\n      add\n      0x00\n      keccak256\n      sload\n        /* \"contracts/bdl cw2..sol\":3075:3120  random_value[playerA] ^ random_value[playerB] */\n      xor\n        /* \"contracts/bdl cw2..sol\":3058:3121  abi.encodePacked(random_value[playerA] ^ random_value[playerB]) */\n      add(0x20, mload(0x40))\n      tag_58\n      swap2\n      swap1\n      tag_42\n      jump\t// in\n    tag_58:\n      mload(0x40)\n      0x20\n      dup2\n      dup4\n      sub\n      sub\n      dup2\n      mstore\n      swap1\n      0x40\n      mstore\n        /* \"contracts/bdl cw2..sol\":3048:3122  keccak256(abi.encodePacked(random_value[playerA] ^ random_value[playerB])) */\n      dup1\n      mload\n      swap1\n      0x20\n      add\n      keccak256\n        /* \"contracts/bdl cw2..sol\":3040:3123  uint256(keccak256(abi.encodePacked(random_value[playerA] ^ random_value[playerB]))) */\n      0x00\n      shr\n        /* \"contracts/bdl cw2..sol\":3040:3127  uint256(keccak256(abi.encodePacked(random_value[playerA] ^ random_value[playerB]))) % 6 */\n      tag_59\n      swap2\n      swap1\n      tag_60\n      jump\t// in\n    tag_59:\n        /* \"contracts/bdl cw2..sol\":3036:3037  1 */\n      0x01\n        /* \"contracts/bdl cw2..sol\":3036:3127  1 + uint256(keccak256(abi.encodePacked(random_value[playerA] ^ random_value[playerB]))) % 6 */\n      tag_61\n      swap2\n      swap1\n      tag_62\n      jump\t// in\n    tag_61:\n        /* \"contracts/bdl cw2..sol\":3029:3033  dice */\n      0x06\n        /* \"contracts/bdl cw2..sol\":3029:3127  dice = 1 + uint256(keccak256(abi.encodePacked(random_value[playerA] ^ random_value[playerB]))) % 6 */\n      dup2\n      swap1\n      sstore\n      pop\n        /* \"contracts/bdl cw2..sol\":3148:3149  3 */\n      0x03\n        /* \"contracts/bdl cw2..sol\":3141:3145  dice */\n      sload(0x06)\n        /* \"contracts/bdl cw2..sol\":3141:3149  dice > 3 */\n      gt\n        /* \"contracts/bdl cw2..sol\":3138:3436  if(dice > 3){\r... */\n      iszero\n      tag_63\n      jumpi\n        /* \"contracts/bdl cw2..sol\":3165:3179  uint256 reward */\n      0x00\n        /* \"contracts/bdl cw2..sol\":3193:3200  unitETH */\n      dup1\n      sload\n        /* \"contracts/bdl cw2..sol\":3190:3191  3 */\n      0x03\n        /* \"contracts/bdl cw2..sol\":3183:3187  dice */\n      sload(0x06)\n        /* \"contracts/bdl cw2..sol\":3183:3191  dice - 3 */\n      tag_64\n      swap2\n      swap1\n      tag_65\n      jump\t// in\n    tag_64:\n        /* \"contracts/bdl cw2..sol\":3182:3200  (dice - 3)*unitETH */\n      tag_66\n      swap2\n      swap1\n      tag_67\n      jump\t// in\n    tag_66:\n        /* \"contracts/bdl cw2..sol\":3165:3200  uint256 reward = (dice - 3)*unitETH */\n      swap1\n      pop\n        /* \"contracts/bdl cw2..sol\":3235:3241  reward */\n      dup1\n        /* \"contracts/bdl cw2..sol\":3215:3222  balance */\n      0x01\n        /* \"contracts/bdl cw2..sol\":3215:3231  balance[playerA] */\n      0x00\n        /* \"contracts/bdl cw2..sol\":3223:3230  playerA */\n      0x04\n      0x00\n      swap1\n      sload\n      swap1\n      0x0100\n      exp\n      swap1\n      div\n      0xffffffffffffffffffffffffffffffffffffffff\n      and\n        /* \"contracts/bdl cw2..sol\":3215:3231  balance[playerA] */\n      0xffffffffffffffffffffffffffffffffffffffff\n      and\n      0xffffffffffffffffffffffffffffffffffffffff\n      and\n      dup2\n      mstore\n      0x20\n      add\n      swap1\n      dup2\n      mstore\n      0x20\n      add\n      0x00\n      keccak256\n      0x00\n        /* \"contracts/bdl cw2..sol\":3215:3241  balance[playerA] -= reward */\n      dup3\n      dup3\n      sload\n      tag_68\n      swap2\n      swap1\n      tag_65\n      jump\t// in\n    tag_68:\n      swap3\n      pop\n      pop\n      dup2\n      swap1\n      sstore\n      pop\n        /* \"contracts/bdl cw2..sol\":3276:3282  reward */\n      dup1\n        /* \"contracts/bdl cw2..sol\":3256:3263  balance */\n      0x01\n        /* \"contracts/bdl cw2..sol\":3256:3272  balance[playerB] */\n      0x00\n        /* \"contracts/bdl cw2..sol\":3264:3271  playerB */\n      0x05\n      0x00\n      swap1\n      sload\n      swap1\n      0x0100\n      exp\n      swap1\n      div\n      0xffffffffffffffffffffffffffffffffffffffff\n      and\n        /* \"contracts/bdl cw2..sol\":3256:3272  balance[playerB] */\n      0xffffffffffffffffffffffffffffffffffffffff\n      and\n      0xffffffffffffffffffffffffffffffffffffffff\n      and\n      dup2\n      mstore\n      0x20\n      add\n      swap1\n      dup2\n      mstore\n      0x20\n      add\n      0x00\n      keccak256\n      0x00\n        /* \"contracts/bdl cw2..sol\":3256:3282  balance[playerB] += reward */\n      dup3\n      dup3\n      sload\n      tag_69\n      swap2\n      swap1\n      tag_62\n      jump\t// in\n    tag_69:\n      swap3\n      pop\n      pop\n      dup2\n      swap1\n      sstore\n      pop\n        /* \"contracts/bdl cw2..sol\":3150:3294  {\r... */\n      pop\n        /* \"contracts/bdl cw2..sol\":3138:3436  if(dice > 3){\r... */\n      jump(tag_70)\n    tag_63:\n        /* \"contracts/bdl cw2..sol\":3313:3327  uint256 reward */\n      0x00\n        /* \"contracts/bdl cw2..sol\":3335:3342  unitETH */\n      dup1\n      sload\n        /* \"contracts/bdl cw2..sol\":3330:3334  dice */\n      sload(0x06)\n        /* \"contracts/bdl cw2..sol\":3330:3342  dice*unitETH */\n      tag_71\n      swap2\n      swap1\n      tag_67\n      jump\t// in\n    tag_71:\n        /* \"contracts/bdl cw2..sol\":3313:3342  uint256 reward = dice*unitETH */\n      swap1\n      pop\n        /* \"contracts/bdl cw2..sol\":3377:3383  reward */\n      dup1\n        /* \"contracts/bdl cw2..sol\":3357:3364  balance */\n      0x01\n        /* \"contracts/bdl cw2..sol\":3357:3373  balance[playerA] */\n      0x00\n        /* \"contracts/bdl cw2..sol\":3365:3372  playerA */\n      0x04\n      0x00\n      swap1\n      sload\n      swap1\n      0x0100\n      exp\n      swap1\n      div\n      0xffffffffffffffffffffffffffffffffffffffff\n      and\n        /* \"contracts/bdl cw2..sol\":3357:3373  balance[playerA] */\n      0xffffffffffffffffffffffffffffffffffffffff\n      and\n      0xffffffffffffffffffffffffffffffffffffffff\n      and\n      dup2\n      mstore\n      0x20\n      add\n      swap1\n      dup2\n      mstore\n      0x20\n      add\n      0x00\n      keccak256\n      0x00\n        /* \"contracts/bdl cw2..sol\":3357:3383  balance[playerA] += reward */\n      dup3\n      dup3\n      sload\n      tag_72\n      swap2\n      swap1\n      tag_62\n      jump\t// in\n    tag_72:\n      swap3\n      pop\n      pop\n      dup2\n      swap1\n      sstore\n      pop\n        /* \"contracts/bdl cw2..sol\":3418:3424  reward */\n      dup1\n        /* \"contracts/bdl cw2..sol\":3398:3405  balance */\n      0x01\n        /* \"contracts/bdl cw2..sol\":3398:3414  balance[playerB] */\n      0x00\n        /* \"contracts/bdl cw2..sol\":3406:3413  playerB */\n      0x05\n      0x00\n      swap1\n      sload\n      swap1\n      0x0100\n      exp\n      swap1\n      div\n      0xffffffffffffffffffffffffffffffffffffffff\n      and\n        /* \"contracts/bdl cw2..sol\":3398:3414  balance[playerB] */\n      0xffffffffffffffffffffffffffffffffffffffff\n      and\n      0xffffffffffffffffffffffffffffffffffffffff\n      and\n      dup2\n      mstore\n      0x20\n      add\n      swap1\n      dup2\n      mstore\n      0x20\n      add\n      0x00\n      keccak256\n      0x00\n        /* \"contracts/bdl cw2..sol\":3398:3424  balance[playerB] -= reward */\n      dup3\n      dup3\n      sload\n      tag_73\n      swap2\n      swap1\n      tag_65\n      jump\t// in\n    tag_73:\n      swap3\n      pop\n      pop\n      dup2\n      swap1\n      sstore\n      pop\n        /* \"contracts/bdl cw2..sol\":3298:3436  {\r... */\n      pop\n        /* \"contracts/bdl cw2..sol\":3138:3436  if(dice > 3){\r... */\n    tag_70:\n        /* \"contracts/bdl cw2..sol\":3454:3458  dice */\n      sload(0x06)\n        /* \"contracts/bdl cw2..sol\":3447:3458  return dice */\n      swap1\n      pop\n        /* \"contracts/bdl cw2..sol\":2362:3466  function roll(uint256 value) public returns (uint256){\r... */\n    tag_40:\n      swap2\n      swap1\n      pop\n      jump\t// out\n        /* \"contracts/bdl cw2..sol\":3526:3629  function getResultAndFund() public view returns (uint256) {\r... */\n    tag_19:\n        /* \"contracts/bdl cw2..sol\":3575:3582  uint256 */\n      0x00\n        /* \"contracts/bdl cw2..sol\":3602:3609  balance */\n      0x01\n        /* \"contracts/bdl cw2..sol\":3602:3621  balance[msg.sender] */\n      0x00\n        /* \"contracts/bdl cw2..sol\":3610:3620  msg.sender */\n      caller\n        /* \"contracts/bdl cw2..sol\":3602:3621  balance[msg.sender] */\n      0xffffffffffffffffffffffffffffffffffffffff\n      and\n      0xffffffffffffffffffffffffffffffffffffffff\n      and\n      dup2\n      mstore\n      0x20\n      add\n      swap1\n      dup2\n      mstore\n      0x20\n      add\n      0x00\n      keccak256\n      sload\n        /* \"contracts/bdl cw2..sol\":3595:3621  return balance[msg.sender] */\n      swap1\n      pop\n        /* \"contracts/bdl cw2..sol\":3526:3629  function getResultAndFund() public view returns (uint256) {\r... */\n      swap1\n      jump\t// out\n        /* \"contracts/bdl cw2..sol\":1044:1551  function enterA(bytes32 ciphertext) public payable{\r... */\n    tag_24:\n        /* \"contracts/bdl cw2..sol\":1166:1170  3e18 */\n      0x29a2241af62c0000\n        /* \"contracts/bdl cw2..sol\":1143:1150  balance */\n      0x01\n        /* \"contracts/bdl cw2..sol\":1143:1162  balance[msg.sender] */\n      0x00\n        /* \"contracts/bdl cw2..sol\":1151:1161  msg.sender */\n      caller\n        /* \"contracts/bdl cw2..sol\":1143:1162  balance[msg.sender] */\n      0xffffffffffffffffffffffffffffffffffffffff\n      and\n      0xffffffffffffffffffffffffffffffffffffffff\n      and\n      dup2\n      mstore\n      0x20\n      add\n      swap1\n      dup2\n      mstore\n      0x20\n      add\n      0x00\n      keccak256\n      sload\n        /* \"contracts/bdl cw2..sol\":1131:1140  msg.value */\n      callvalue\n        /* \"contracts/bdl cw2..sol\":1131:1162  msg.value + balance[msg.sender] */\n      tag_76\n      swap2\n      swap1\n      tag_62\n      jump\t// in\n    tag_76:\n        /* \"contracts/bdl cw2..sol\":1131:1170  msg.value + balance[msg.sender] >= 3e18 */\n      lt\n      iszero\n        /* \"contracts/bdl cw2..sol\":1123:1203  require(msg.value + balance[msg.sender] >= 3e18, \"value + balance must >= 3eth\") */\n      tag_77\n      jumpi\n      mload(0x40)\n      0x08c379a000000000000000000000000000000000000000000000000000000000\n      dup2\n      mstore\n      0x04\n      add\n      tag_78\n      swap1\n      tag_79\n      jump\t// in\n    tag_78:\n      mload(0x40)\n      dup1\n      swap2\n      sub\n      swap1\n      revert\n    tag_77:\n        /* \"contracts/bdl cw2..sol\":1236:1237  0 */\n      0x00\n        /* \"contracts/bdl cw2..sol\":1222:1237  ciphertext != 0 */\n      dup1\n      shl\n        /* \"contracts/bdl cw2..sol\":1222:1232  ciphertext */\n      dup2\n        /* \"contracts/bdl cw2..sol\":1222:1237  ciphertext != 0 */\n      eq\n      iszero\n        /* \"contracts/bdl cw2..sol\":1214:1270  require(ciphertext != 0, \"please submit the commitment\") */\n      tag_80\n      jumpi\n      mload(0x40)\n      0x08c379a000000000000000000000000000000000000000000000000000000000\n      dup2\n      mstore\n      0x04\n      add\n      tag_81\n      swap1\n      tag_82\n      jump\t// in\n    tag_81:\n      mload(0x40)\n      dup1\n      swap2\n      sub\n      swap1\n      revert\n    tag_80:\n        /* \"contracts/bdl cw2..sol\":1308:1309  0 */\n      0x00\n        /* \"contracts/bdl cw2..sol\":1289:1310  playerA == address(0) */\n      0xffffffffffffffffffffffffffffffffffffffff\n      and\n        /* \"contracts/bdl cw2..sol\":1289:1296  playerA */\n      0x04\n      0x00\n      swap1\n      sload\n      swap1\n      0x0100\n      exp\n      swap1\n      div\n      0xffffffffffffffffffffffffffffffffffffffff\n      and\n        /* \"contracts/bdl cw2..sol\":1289:1310  playerA == address(0) */\n      0xffffffffffffffffffffffffffffffffffffffff\n      and\n      eq\n        /* \"contracts/bdl cw2..sol\":1281:1330  require(playerA == address(0), \"A has entered !\") */\n      tag_83\n      jumpi\n      mload(0x40)\n      0x08c379a000000000000000000000000000000000000000000000000000000000\n      dup2\n      mstore\n      0x04\n      add\n      tag_84\n      swap1\n      tag_85\n      jump\t// in\n    tag_84:\n      mload(0x40)\n      dup1\n      swap2\n      sub\n      swap1\n      revert\n    tag_83:\n        /* \"contracts/bdl cw2..sol\":1360:1370  msg.sender */\n      caller\n        /* \"contracts/bdl cw2..sol\":1349:1370  playerB != msg.sender */\n      0xffffffffffffffffffffffffffffffffffffffff\n      and\n        /* \"contracts/bdl cw2..sol\":1349:1356  playerB */\n      0x05\n      0x00\n      swap1\n      sload\n      swap1\n      0x0100\n      exp\n      swap1\n      div\n      0xffffffffffffffffffffffffffffffffffffffff\n      and\n        /* \"contracts/bdl cw2..sol\":1349:1370  playerB != msg.sender */\n      0xffffffffffffffffffffffffffffffffffffffff\n      and\n      eq\n      iszero\n        /* \"contracts/bdl cw2..sol\":1341:1404  require(playerB != msg.sender, \"you have entered as playerB !\") */\n      tag_86\n      jumpi\n      mload(0x40)\n      0x08c379a000000000000000000000000000000000000000000000000000000000\n      dup2\n      mstore\n      0x04\n      add\n      tag_87\n      swap1\n      tag_88\n      jump\t// in\n    tag_87:\n      mload(0x40)\n      dup1\n      swap2\n      sub\n      swap1\n      revert\n    tag_86:\n        /* \"contracts/bdl cw2..sol\":1444:1454  msg.sender */\n      caller\n        /* \"contracts/bdl cw2..sol\":1434:1441  playerA */\n      0x04\n      0x00\n        /* \"contracts/bdl cw2..sol\":1434:1454  playerA = msg.sender */\n      0x0100\n      exp\n      dup2\n      sload\n      dup2\n      0xffffffffffffffffffffffffffffffffffffffff\n      mul\n      not\n      and\n      swap1\n      dup4\n      0xffffffffffffffffffffffffffffffffffffffff\n      and\n      mul\n      or\n      swap1\n      sstore\n      pop\n        /* \"contracts/bdl cw2..sol\":1490:1500  msg.sender */\n      caller\n        /* \"contracts/bdl cw2..sol\":1465:1475  commitment */\n      0x02\n        /* \"contracts/bdl cw2..sol\":1465:1487  commitment[ciphertext] */\n      0x00\n        /* \"contracts/bdl cw2..sol\":1476:1486  ciphertext */\n      dup4\n        /* \"contracts/bdl cw2..sol\":1465:1487  commitment[ciphertext] */\n      dup2\n      mstore\n      0x20\n      add\n      swap1\n      dup2\n      mstore\n      0x20\n      add\n      0x00\n      keccak256\n      0x00\n        /* \"contracts/bdl cw2..sol\":1465:1500  commitment[ciphertext] = msg.sender */\n      0x0100\n      exp\n      dup2\n      sload\n      dup2\n      0xffffffffffffffffffffffffffffffffffffffff\n      mul\n      not\n      and\n      swap1\n      dup4\n      0xffffffffffffffffffffffffffffffffffffffff\n      and\n      mul\n      or\n      swap1\n      sstore\n      pop\n        /* \"contracts/bdl cw2..sol\":1534:1543  msg.value */\n      callvalue\n        /* \"contracts/bdl cw2..sol\":1511:1518  balance */\n      0x01\n        /* \"contracts/bdl cw2..sol\":1511:1530  balance[msg.sender] */\n      0x00\n        /* \"contracts/bdl cw2..sol\":1519:1529  msg.sender */\n      caller\n        /* \"contracts/bdl cw2..sol\":1511:1530  balance[msg.sender] */\n      0xffffffffffffffffffffffffffffffffffffffff\n      and\n      0xffffffffffffffffffffffffffffffffffffffff\n      and\n      dup2\n      mstore\n      0x20\n      add\n      swap1\n      dup2\n      mstore\n      0x20\n      add\n      0x00\n      keccak256\n      0x00\n        /* \"contracts/bdl cw2..sol\":1511:1543  balance[msg.sender] += msg.value */\n      dup3\n      dup3\n      sload\n      tag_89\n      swap2\n      swap1\n      tag_62\n      jump\t// in\n    tag_89:\n      swap3\n      pop\n      pop\n      dup2\n      swap1\n      sstore\n      pop\n        /* \"contracts/bdl cw2..sol\":1044:1551  function enterA(bytes32 ciphertext) public payable{\r... */\n      pop\n      jump\t// out\n        /* \"contracts/bdl cw2..sol\":4523:4644  function getHash(uint256 value) public view returns (bytes32){\r... */\n    tag_28:\n        /* \"contracts/bdl cw2..sol\":4576:4583  bytes32 */\n      0x00\n        /* \"contracts/bdl cw2..sol\":4629:4634  value */\n      dup2\n        /* \"contracts/bdl cw2..sol\":4612:4635  abi.encodePacked(value) */\n      add(0x20, mload(0x40))\n      tag_91\n      swap2\n      swap1\n      tag_42\n      jump\t// in\n    tag_91:\n      mload(0x40)\n      0x20\n      dup2\n      dup4\n      sub\n      sub\n      dup2\n      mstore\n      swap1\n      0x40\n      mstore\n        /* \"contracts/bdl cw2..sol\":4602:4636  keccak256(abi.encodePacked(value)) */\n      dup1\n      mload\n      swap1\n      0x20\n      add\n      keccak256\n        /* \"contracts/bdl cw2..sol\":4595:4636  return keccak256(abi.encodePacked(value)) */\n      swap1\n      pop\n        /* \"contracts/bdl cw2..sol\":4523:4644  function getHash(uint256 value) public view returns (bytes32){\r... */\n      swap2\n      swap1\n      pop\n      jump\t// out\n        /* \"contracts/bdl cw2..sol\":1661:2168  function enterB(bytes32 ciphertext) public payable{\r... */\n    tag_33:\n        /* \"contracts/bdl cw2..sol\":1783:1787  3e18 */\n      0x29a2241af62c0000\n        /* \"contracts/bdl cw2..sol\":1760:1767  balance */\n      0x01\n        /* \"contracts/bdl cw2..sol\":1760:1779  balance[msg.sender] */\n      0x00\n        /* \"contracts/bdl cw2..sol\":1768:1778  msg.sender */\n      caller\n        /* \"contracts/bdl cw2..sol\":1760:1779  balance[msg.sender] */\n      0xffffffffffffffffffffffffffffffffffffffff\n      and\n      0xffffffffffffffffffffffffffffffffffffffff\n      and\n      dup2\n      mstore\n      0x20\n      add\n      swap1\n      dup2\n      mstore\n      0x20\n      add\n      0x00\n      keccak256\n      sload\n        /* \"contracts/bdl cw2..sol\":1748:1757  msg.value */\n      callvalue\n        /* \"contracts/bdl cw2..sol\":1748:1779  msg.value + balance[msg.sender] */\n      tag_93\n      swap2\n      swap1\n      tag_62\n      jump\t// in\n    tag_93:\n        /* \"contracts/bdl cw2..sol\":1748:1787  msg.value + balance[msg.sender] >= 3e18 */\n      lt\n      iszero\n        /* \"contracts/bdl cw2..sol\":1740:1820  require(msg.value + balance[msg.sender] >= 3e18, \"value + balance must >= 3eth\") */\n      tag_94\n      jumpi\n      mload(0x40)\n      0x08c379a000000000000000000000000000000000000000000000000000000000\n      dup2\n      mstore\n      0x04\n      add\n      tag_95\n      swap1\n      tag_79\n      jump\t// in\n    tag_95:\n      mload(0x40)\n      dup1\n      swap2\n      sub\n      swap1\n      revert\n    tag_94:\n        /* \"contracts/bdl cw2..sol\":1853:1854  0 */\n      0x00\n        /* \"contracts/bdl cw2..sol\":1839:1854  ciphertext != 0 */\n      dup1\n      shl\n        /* \"contracts/bdl cw2..sol\":1839:1849  ciphertext */\n      dup2\n        /* \"contracts/bdl cw2..sol\":1839:1854  ciphertext != 0 */\n      eq\n      iszero\n        /* \"contracts/bdl cw2..sol\":1831:1887  require(ciphertext != 0, \"please submit the commitment\") */\n      tag_96\n      jumpi\n      mload(0x40)\n      0x08c379a000000000000000000000000000000000000000000000000000000000\n      dup2\n      mstore\n      0x04\n      add\n      tag_97\n      swap1\n      tag_82\n      jump\t// in\n    tag_97:\n      mload(0x40)\n      dup1\n      swap2\n      sub\n      swap1\n      revert\n    tag_96:\n        /* \"contracts/bdl cw2..sol\":1925:1926  0 */\n      0x00\n        /* \"contracts/bdl cw2..sol\":1906:1927  playerB == address(0) */\n      0xffffffffffffffffffffffffffffffffffffffff\n      and\n        /* \"contracts/bdl cw2..sol\":1906:1913  playerB */\n      0x05\n      0x00\n      swap1\n      sload\n      swap1\n      0x0100\n      exp\n      swap1\n      div\n      0xffffffffffffffffffffffffffffffffffffffff\n      and\n        /* \"contracts/bdl cw2..sol\":1906:1927  playerB == address(0) */\n      0xffffffffffffffffffffffffffffffffffffffff\n      and\n      eq\n        /* \"contracts/bdl cw2..sol\":1898:1947  require(playerB == address(0), \"B has entered !\") */\n      tag_98\n      jumpi\n      mload(0x40)\n      0x08c379a000000000000000000000000000000000000000000000000000000000\n      dup2\n      mstore\n      0x04\n      add\n      tag_99\n      swap1\n      tag_100\n      jump\t// in\n    tag_99:\n      mload(0x40)\n      dup1\n      swap2\n      sub\n      swap1\n      revert\n    tag_98:\n        /* \"contracts/bdl cw2..sol\":1977:1987  msg.sender */\n      caller\n        /* \"contracts/bdl cw2..sol\":1966:1987  playerA != msg.sender */\n      0xffffffffffffffffffffffffffffffffffffffff\n      and\n        /* \"contracts/bdl cw2..sol\":1966:1973  playerA */\n      0x04\n      0x00\n      swap1\n      sload\n      swap1\n      0x0100\n      exp\n      swap1\n      div\n      0xffffffffffffffffffffffffffffffffffffffff\n      and\n        /* \"contracts/bdl cw2..sol\":1966:1987  playerA != msg.sender */\n      0xffffffffffffffffffffffffffffffffffffffff\n      and\n      eq\n      iszero\n        /* \"contracts/bdl cw2..sol\":1958:2021  require(playerA != msg.sender, \"you have entered as playerA !\") */\n      tag_101\n      jumpi\n      mload(0x40)\n      0x08c379a000000000000000000000000000000000000000000000000000000000\n      dup2\n      mstore\n      0x04\n      add\n      tag_102\n      swap1\n      tag_103\n      jump\t// in\n    tag_102:\n      mload(0x40)\n      dup1\n      swap2\n      sub\n      swap1\n      revert\n    tag_101:\n        /* \"contracts/bdl cw2..sol\":2061:2071  msg.sender */\n      caller\n        /* \"contracts/bdl cw2..sol\":2051:2058  playerB */\n      0x05\n      0x00\n        /* \"contracts/bdl cw2..sol\":2051:2071  playerB = msg.sender */\n      0x0100\n      exp\n      dup2\n      sload\n      dup2\n      0xffffffffffffffffffffffffffffffffffffffff\n      mul\n      not\n      and\n      swap1\n      dup4\n      0xffffffffffffffffffffffffffffffffffffffff\n      and\n      mul\n      or\n      swap1\n      sstore\n      pop\n        /* \"contracts/bdl cw2..sol\":2107:2117  msg.sender */\n      caller\n        /* \"contracts/bdl cw2..sol\":2082:2092  commitment */\n      0x02\n        /* \"contracts/bdl cw2..sol\":2082:2104  commitment[ciphertext] */\n      0x00\n        /* \"contracts/bdl cw2..sol\":2093:2103  ciphertext */\n      dup4\n        /* \"contracts/bdl cw2..sol\":2082:2104  commitment[ciphertext] */\n      dup2\n      mstore\n      0x20\n      add\n      swap1\n      dup2\n      mstore\n      0x20\n      add\n      0x00\n      keccak256\n      0x00\n        /* \"contracts/bdl cw2..sol\":2082:2117  commitment[ciphertext] = msg.sender */\n      0x0100\n      exp\n      dup2\n      sload\n      dup2\n      0xffffffffffffffffffffffffffffffffffffffff\n      mul\n      not\n      and\n      swap1\n      dup4\n      0xffffffffffffffffffffffffffffffffffffffff\n      and\n      mul\n      or\n      swap1\n      sstore\n      pop\n        /* \"contracts/bdl cw2..sol\":2151:2160  msg.value */\n      callvalue\n        /* \"contracts/bdl cw2..sol\":2128:2135  balance */\n      0x01\n        /* \"contracts/bdl cw2..sol\":2128:2147  balance[msg.sender] */\n      0x00\n        /* \"contracts/bdl cw2..sol\":2136:2146  msg.sender */\n      caller\n        /* \"contracts/bdl cw2..sol\":2128:2147  balance[msg.sender] */\n      0xffffffffffffffffffffffffffffffffffffffff\n      and\n      0xffffffffffffffffffffffffffffffffffffffff\n      and\n      dup2\n      mstore\n      0x20\n      add\n      swap1\n      dup2\n      mstore\n      0x20\n      add\n      0x00\n      keccak256\n      0x00\n        /* \"contracts/bdl cw2..sol\":2128:2160  balance[msg.sender] += msg.value */\n      dup3\n      dup3\n      sload\n      tag_104\n      swap2\n      swap1\n      tag_62\n      jump\t// in\n    tag_104:\n      swap3\n      pop\n      pop\n      dup2\n      swap1\n      sstore\n      pop\n        /* \"contracts/bdl cw2..sol\":1661:2168  function enterB(bytes32 ciphertext) public payable{\r... */\n      pop\n      jump\t// out\n        /* \"contracts/bdl cw2..sol\":3760:4128  function reset() public {\r... */\n    tag_36:\n        /* \"contracts/bdl cw2..sol\":3812:3819  playerA */\n      0x04\n      0x00\n      swap1\n      sload\n      swap1\n      0x0100\n      exp\n      swap1\n      div\n      0xffffffffffffffffffffffffffffffffffffffff\n      and\n        /* \"contracts/bdl cw2..sol\":3798:3819  msg.sender == playerA */\n      0xffffffffffffffffffffffffffffffffffffffff\n      and\n        /* \"contracts/bdl cw2..sol\":3798:3808  msg.sender */\n      caller\n        /* \"contracts/bdl cw2..sol\":3798:3819  msg.sender == playerA */\n      0xffffffffffffffffffffffffffffffffffffffff\n      and\n      eq\n        /* \"contracts/bdl cw2..sol\":3795:4026  if(msg.sender == playerA){\r... */\n      iszero\n      tag_106\n      jumpi\n        /* \"contracts/bdl cw2..sol\":3853:3854  0 */\n      0x00\n        /* \"contracts/bdl cw2..sol\":3835:3842  playerA */\n      0x04\n      0x00\n        /* \"contracts/bdl cw2..sol\":3835:3855  playerA = address(0) */\n      0x0100\n      exp\n      dup2\n      sload\n      dup2\n      0xffffffffffffffffffffffffffffffffffffffff\n      mul\n      not\n      and\n      swap1\n      dup4\n      0xffffffffffffffffffffffffffffffffffffffff\n      and\n      mul\n      or\n      swap1\n      sstore\n      pop\n        /* \"contracts/bdl cw2..sol\":3894:3895  0 */\n      0x00\n        /* \"contracts/bdl cw2..sol\":3870:3882  random_value */\n      0x03\n        /* \"contracts/bdl cw2..sol\":3870:3891  random_value[playerA] */\n      0x00\n        /* \"contracts/bdl cw2..sol\":3883:3890  playerA */\n      0x04\n      0x00\n      swap1\n      sload\n      swap1\n      0x0100\n      exp\n      swap1\n      div\n      0xffffffffffffffffffffffffffffffffffffffff\n      and\n        /* \"contracts/bdl cw2..sol\":3870:3891  random_value[playerA] */\n      0xffffffffffffffffffffffffffffffffffffffff\n      and\n      0xffffffffffffffffffffffffffffffffffffffff\n      and\n      dup2\n      mstore\n      0x20\n      add\n      swap1\n      dup2\n      mstore\n      0x20\n      add\n      0x00\n      keccak256\n        /* \"contracts/bdl cw2..sol\":3870:3895  random_value[playerA] = 0 */\n      dup2\n      swap1\n      sstore\n      pop\n        /* \"contracts/bdl cw2..sol\":3795:4026  if(msg.sender == playerA){\r... */\n      jump(tag_107)\n    tag_106:\n        /* \"contracts/bdl cw2..sol\":3931:3938  playerB */\n      0x05\n      0x00\n      swap1\n      sload\n      swap1\n      0x0100\n      exp\n      swap1\n      div\n      0xffffffffffffffffffffffffffffffffffffffff\n      and\n        /* \"contracts/bdl cw2..sol\":3917:3938  msg.sender == playerB */\n      0xffffffffffffffffffffffffffffffffffffffff\n      and\n        /* \"contracts/bdl cw2..sol\":3917:3927  msg.sender */\n      caller\n        /* \"contracts/bdl cw2..sol\":3917:3938  msg.sender == playerB */\n      0xffffffffffffffffffffffffffffffffffffffff\n      and\n      eq\n        /* \"contracts/bdl cw2..sol\":3913:4026  if (msg.sender == playerB){\r... */\n      iszero\n      tag_108\n      jumpi\n        /* \"contracts/bdl cw2..sol\":3972:3973  0 */\n      0x00\n        /* \"contracts/bdl cw2..sol\":3954:3961  playerB */\n      0x05\n      0x00\n        /* \"contracts/bdl cw2..sol\":3954:3974  playerB = address(0) */\n      0x0100\n      exp\n      dup2\n      sload\n      dup2\n      0xffffffffffffffffffffffffffffffffffffffff\n      mul\n      not\n      and\n      swap1\n      dup4\n      0xffffffffffffffffffffffffffffffffffffffff\n      and\n      mul\n      or\n      swap1\n      sstore\n      pop\n        /* \"contracts/bdl cw2..sol\":4013:4014  0 */\n      0x00\n        /* \"contracts/bdl cw2..sol\":3989:4001  random_value */\n      0x03\n        /* \"contracts/bdl cw2..sol\":3989:4010  random_value[playerB] */\n      0x00\n        /* \"contracts/bdl cw2..sol\":4002:4009  playerB */\n      0x05\n      0x00\n      swap1\n      sload\n      swap1\n      0x0100\n      exp\n      swap1\n      div\n      0xffffffffffffffffffffffffffffffffffffffff\n      and\n        /* \"contracts/bdl cw2..sol\":3989:4010  random_value[playerB] */\n      0xffffffffffffffffffffffffffffffffffffffff\n      and\n      0xffffffffffffffffffffffffffffffffffffffff\n      and\n      dup2\n      mstore\n      0x20\n      add\n      swap1\n      dup2\n      mstore\n      0x20\n      add\n      0x00\n      keccak256\n        /* \"contracts/bdl cw2..sol\":3989:4014  random_value[playerB] = 0 */\n      dup2\n      swap1\n      sstore\n      pop\n        /* \"contracts/bdl cw2..sol\":3913:4026  if (msg.sender == playerB){\r... */\n    tag_108:\n        /* \"contracts/bdl cw2..sol\":3795:4026  if(msg.sender == playerA){\r... */\n    tag_107:\n        /* \"contracts/bdl cw2..sol\":4058:4059  0 */\n      0x00\n        /* \"contracts/bdl cw2..sol\":4039:4060  playerA == address(0) */\n      0xffffffffffffffffffffffffffffffffffffffff\n      and\n        /* \"contracts/bdl cw2..sol\":4039:4046  playerA */\n      0x04\n      0x00\n      swap1\n      sload\n      swap1\n      0x0100\n      exp\n      swap1\n      div\n      0xffffffffffffffffffffffffffffffffffffffff\n      and\n        /* \"contracts/bdl cw2..sol\":4039:4060  playerA == address(0) */\n      0xffffffffffffffffffffffffffffffffffffffff\n      and\n      eq\n        /* \"contracts/bdl cw2..sol\":4039:4085  playerA == address(0) && playerB == address(0) */\n      dup1\n      iszero\n      tag_109\n      jumpi\n      pop\n        /* \"contracts/bdl cw2..sol\":4083:4084  0 */\n      0x00\n        /* \"contracts/bdl cw2..sol\":4064:4085  playerB == address(0) */\n      0xffffffffffffffffffffffffffffffffffffffff\n      and\n        /* \"contracts/bdl cw2..sol\":4064:4071  playerB */\n      0x05\n      0x00\n      swap1\n      sload\n      swap1\n      0x0100\n      exp\n      swap1\n      div\n      0xffffffffffffffffffffffffffffffffffffffff\n      and\n        /* \"contracts/bdl cw2..sol\":4064:4085  playerB == address(0) */\n      0xffffffffffffffffffffffffffffffffffffffff\n      and\n      eq\n        /* \"contracts/bdl cw2..sol\":4039:4085  playerA == address(0) && playerB == address(0) */\n    tag_109:\n        /* \"contracts/bdl cw2..sol\":4036:4121  if(playerA == address(0) && playerB == address(0)){\r... */\n      iszero\n      tag_110\n      jumpi\n        /* \"contracts/bdl cw2..sol\":4108:4109  0 */\n      0x00\n        /* \"contracts/bdl cw2..sol\":4101:4105  dice */\n      0x06\n        /* \"contracts/bdl cw2..sol\":4101:4109  dice = 0 */\n      dup2\n      swap1\n      sstore\n      pop\n        /* \"contracts/bdl cw2..sol\":4036:4121  if(playerA == address(0) && playerB == address(0)){\r... */\n    tag_110:\n        /* \"contracts/bdl cw2..sol\":3760:4128  function reset() public {\r... */\n      jump\t// out\n        /* \"contracts/bdl cw2..sol\":4283:4502  function resetAndWithdraw() public {\r... */\n    tag_39:\n        /* \"contracts/bdl cw2..sol\":4348:4355  reset() */\n      tag_112\n        /* \"contracts/bdl cw2..sol\":4348:4353  reset */\n      tag_36\n        /* \"contracts/bdl cw2..sol\":4348:4355  reset() */\n      jump\t// in\n    tag_112:\n        /* \"contracts/bdl cw2..sol\":4366:4375  uint256 b */\n      0x00\n        /* \"contracts/bdl cw2..sol\":4378:4385  balance */\n      0x01\n        /* \"contracts/bdl cw2..sol\":4378:4397  balance[msg.sender] */\n      0x00\n        /* \"contracts/bdl cw2..sol\":4386:4396  msg.sender */\n      caller\n        /* \"contracts/bdl cw2..sol\":4378:4397  balance[msg.sender] */\n      0xffffffffffffffffffffffffffffffffffffffff\n      and\n      0xffffffffffffffffffffffffffffffffffffffff\n      and\n      dup2\n      mstore\n      0x20\n      add\n      swap1\n      dup2\n      mstore\n      0x20\n      add\n      0x00\n      keccak256\n      sload\n        /* \"contracts/bdl cw2..sol\":4366:4397  uint256 b = balance[msg.sender] */\n      swap1\n      pop\n        /* \"contracts/bdl cw2..sol\":4430:4431  0 */\n      0x00\n        /* \"contracts/bdl cw2..sol\":4408:4415  balance */\n      0x01\n        /* \"contracts/bdl cw2..sol\":4408:4427  balance[msg.sender] */\n      0x00\n        /* \"contracts/bdl cw2..sol\":4416:4426  msg.sender */\n      caller\n        /* \"contracts/bdl cw2..sol\":4408:4427  balance[msg.sender] */\n      0xffffffffffffffffffffffffffffffffffffffff\n      and\n      0xffffffffffffffffffffffffffffffffffffffff\n      and\n      dup2\n      mstore\n      0x20\n      add\n      swap1\n      dup2\n      mstore\n      0x20\n      add\n      0x00\n      keccak256\n        /* \"contracts/bdl cw2..sol\":4408:4431  balance[msg.sender] = 0 */\n      dup2\n      swap1\n      sstore\n      pop\n        /* \"contracts/bdl cw2..sol\":4471:4481  msg.sender */\n      caller\n        /* \"contracts/bdl cw2..sol\":4463:4491  payable(msg.sender).transfer */\n      0xffffffffffffffffffffffffffffffffffffffff\n      and\n        /* \"contracts/bdl cw2..sol\":4463:4494  payable(msg.sender).transfer(b) */\n      0x08fc\n        /* \"contracts/bdl cw2..sol\":4492:4493  b */\n      dup3\n        /* \"contracts/bdl cw2..sol\":4463:4494  payable(msg.sender).transfer(b) */\n      swap1\n      dup2\n      iszero\n      mul\n      swap1\n      mload(0x40)\n      0x00\n      mload(0x40)\n      dup1\n      dup4\n      sub\n      dup2\n      dup6\n      dup9\n      dup9\n      call\n      swap4\n      pop\n      pop\n      pop\n      pop\n      iszero\n      dup1\n      iszero\n      tag_114\n      jumpi\n      returndatasize\n      0x00\n      dup1\n      returndatacopy\n      revert(0x00, returndatasize)\n    tag_114:\n      pop\n        /* \"contracts/bdl cw2..sol\":4318:4502  {\r... */\n      pop\n        /* \"contracts/bdl cw2..sol\":4283:4502  function resetAndWithdraw() public {\r... */\n      jump\t// out\n        /* \"#utility.yul\":7:146   */\n    tag_116:\n        /* \"#utility.yul\":53:58   */\n      0x00\n        /* \"#utility.yul\":91:97   */\n      dup2\n        /* \"#utility.yul\":78:98   */\n      calldataload\n        /* \"#utility.yul\":69:98   */\n      swap1\n      pop\n        /* \"#utility.yul\":107:140   */\n      tag_118\n        /* \"#utility.yul\":134:139   */\n      dup2\n        /* \"#utility.yul\":107:140   */\n      tag_119\n      jump\t// in\n    tag_118:\n        /* \"#utility.yul\":7:146   */\n      swap3\n      swap2\n      pop\n      pop\n      jump\t// out\n        /* \"#utility.yul\":152:291   */\n    tag_120:\n        /* \"#utility.yul\":198:203   */\n      0x00\n        /* \"#utility.yul\":236:242   */\n      dup2\n        /* \"#utility.yul\":223:243   */\n      calldataload\n        /* \"#utility.yul\":214:243   */\n      swap1\n      pop\n        /* \"#utility.yul\":252:285   */\n      tag_122\n        /* \"#utility.yul\":279:284   */\n      dup2\n        /* \"#utility.yul\":252:285   */\n      tag_123\n      jump\t// in\n    tag_122:\n        /* \"#utility.yul\":152:291   */\n      swap3\n      swap2\n      pop\n      pop\n      jump\t// out\n        /* \"#utility.yul\":297:626   */\n    tag_23:\n        /* \"#utility.yul\":356:362   */\n      0x00\n        /* \"#utility.yul\":405:407   */\n      0x20\n        /* \"#utility.yul\":393:402   */\n      dup3\n        /* \"#utility.yul\":384:391   */\n      dup5\n        /* \"#utility.yul\":380:403   */\n      sub\n        /* \"#utility.yul\":376:408   */\n      slt\n        /* \"#utility.yul\":373:492   */\n      iszero\n      tag_125\n      jumpi\n        /* \"#utility.yul\":411:490   */\n      tag_126\n      tag_127\n      jump\t// in\n    tag_126:\n        /* \"#utility.yul\":373:492   */\n    tag_125:\n        /* \"#utility.yul\":531:532   */\n      0x00\n        /* \"#utility.yul\":556:609   */\n      tag_128\n        /* \"#utility.yul\":601:608   */\n      dup5\n        /* \"#utility.yul\":592:598   */\n      dup3\n        /* \"#utility.yul\":581:590   */\n      dup6\n        /* \"#utility.yul\":577:599   */\n      add\n        /* \"#utility.yul\":556:609   */\n      tag_116\n      jump\t// in\n    tag_128:\n        /* \"#utility.yul\":546:609   */\n      swap2\n      pop\n        /* \"#utility.yul\":502:619   */\n      pop\n        /* \"#utility.yul\":297:626   */\n      swap3\n      swap2\n      pop\n      pop\n      jump\t// out\n        /* \"#utility.yul\":632:961   */\n    tag_13:\n        /* \"#utility.yul\":691:697   */\n      0x00\n        /* \"#utility.yul\":740:742   */\n      0x20\n        /* \"#utility.yul\":728:737   */\n      dup3\n        /* \"#utility.yul\":719:726   */\n      dup5\n        /* \"#utility.yul\":715:738   */\n      sub\n        /* \"#utility.yul\":711:743   */\n      slt\n        /* \"#utility.yul\":708:827   */\n      iszero\n      tag_130\n      jumpi\n        /* \"#utility.yul\":746:825   */\n      tag_131\n      tag_127\n      jump\t// in\n    tag_131:\n        /* \"#utility.yul\":708:827   */\n    tag_130:\n        /* \"#utility.yul\":866:867   */\n      0x00\n        /* \"#utility.yul\":891:944   */\n      tag_132\n        /* \"#utility.yul\":936:943   */\n      dup5\n        /* \"#utility.yul\":927:933   */\n      dup3\n        /* \"#utility.yul\":916:925   */\n      dup6\n        /* \"#utility.yul\":912:934   */\n      add\n        /* \"#utility.yul\":891:944   */\n      tag_120\n      jump\t// in\n    tag_132:\n        /* \"#utility.yul\":881:944   */\n      swap2\n      pop\n        /* \"#utility.yul\":837:954   */\n      pop\n        /* \"#utility.yul\":632:961   */\n      swap3\n      swap2\n      pop\n      pop\n      jump\t// out\n        /* \"#utility.yul\":967:1085   */\n    tag_133:\n        /* \"#utility.yul\":1054:1078   */\n      tag_135\n        /* \"#utility.yul\":1072:1077   */\n      dup2\n        /* \"#utility.yul\":1054:1078   */\n      tag_136\n      jump\t// in\n    tag_135:\n        /* \"#utility.yul\":1049:1052   */\n      dup3\n        /* \"#utility.yul\":1042:1079   */\n      mstore\n        /* \"#utility.yul\":967:1085   */\n      pop\n      pop\n      jump\t// out\n        /* \"#utility.yul\":1091:1457   */\n    tag_137:\n        /* \"#utility.yul\":1233:1236   */\n      0x00\n        /* \"#utility.yul\":1254:1321   */\n      tag_139\n        /* \"#utility.yul\":1318:1320   */\n      0x0f\n        /* \"#utility.yul\":1313:1316   */\n      dup4\n        /* \"#utility.yul\":1254:1321   */\n      tag_140\n      jump\t// in\n    tag_139:\n        /* \"#utility.yul\":1247:1321   */\n      swap2\n      pop\n        /* \"#utility.yul\":1330:1423   */\n      tag_141\n        /* \"#utility.yul\":1419:1422   */\n      dup3\n        /* \"#utility.yul\":1330:1423   */\n      tag_142\n      jump\t// in\n    tag_141:\n        /* \"#utility.yul\":1448:1450   */\n      0x20\n        /* \"#utility.yul\":1443:1446   */\n      dup3\n        /* \"#utility.yul\":1439:1451   */\n      add\n        /* \"#utility.yul\":1432:1451   */\n      swap1\n      pop\n        /* \"#utility.yul\":1091:1457   */\n      swap2\n      swap1\n      pop\n      jump\t// out\n        /* \"#utility.yul\":1463:1829   */\n    tag_143:\n        /* \"#utility.yul\":1605:1608   */\n      0x00\n        /* \"#utility.yul\":1626:1693   */\n      tag_145\n        /* \"#utility.yul\":1690:1692   */\n      0x10\n        /* \"#utility.yul\":1685:1688   */\n      dup4\n        /* \"#utility.yul\":1626:1693   */\n      tag_140\n      jump\t// in\n    tag_145:\n        /* \"#utility.yul\":1619:1693   */\n      swap2\n      pop\n        /* \"#utility.yul\":1702:1795   */\n      tag_146\n        /* \"#utility.yul\":1791:1794   */\n      dup3\n        /* \"#utility.yul\":1702:1795   */\n      tag_147\n      jump\t// in\n    tag_146:\n        /* \"#utility.yul\":1820:1822   */\n      0x20\n        /* \"#utility.yul\":1815:1818   */\n      dup3\n        /* \"#utility.yul\":1811:1823   */\n      add\n        /* \"#utility.yul\":1804:1823   */\n      swap1\n      pop\n        /* \"#utility.yul\":1463:1829   */\n      swap2\n      swap1\n      pop\n      jump\t// out\n        /* \"#utility.yul\":1835:2201   */\n    tag_148:\n        /* \"#utility.yul\":1977:1980   */\n      0x00\n        /* \"#utility.yul\":1998:2065   */\n      tag_150\n        /* \"#utility.yul\":2062:2064   */\n      0x1d\n        /* \"#utility.yul\":2057:2060   */\n      dup4\n        /* \"#utility.yul\":1998:2065   */\n      tag_140\n      jump\t// in\n    tag_150:\n        /* \"#utility.yul\":1991:2065   */\n      swap2\n      pop\n        /* \"#utility.yul\":2074:2167   */\n      tag_151\n        /* \"#utility.yul\":2163:2166   */\n      dup3\n        /* \"#utility.yul\":2074:2167   */\n      tag_152\n      jump\t// in\n    tag_151:\n        /* \"#utility.yul\":2192:2194   */\n      0x20\n        /* \"#utility.yul\":2187:2190   */\n      dup3\n        /* \"#utility.yul\":2183:2195   */\n      add\n        /* \"#utility.yul\":2176:2195   */\n      swap1\n      pop\n        /* \"#utility.yul\":1835:2201   */\n      swap2\n      swap1\n      pop\n      jump\t// out\n        /* \"#utility.yul\":2207:2573   */\n    tag_153:\n        /* \"#utility.yul\":2349:2352   */\n      0x00\n        /* \"#utility.yul\":2370:2437   */\n      tag_155\n        /* \"#utility.yul\":2434:2436   */\n      0x0f\n        /* \"#utility.yul\":2429:2432   */\n      dup4\n        /* \"#utility.yul\":2370:2437   */\n      tag_140\n      jump\t// in\n    tag_155:\n        /* \"#utility.yul\":2363:2437   */\n      swap2\n      pop\n        /* \"#utility.yul\":2446:2539   */\n      tag_156\n        /* \"#utility.yul\":2535:2538   */\n      dup3\n        /* \"#utility.yul\":2446:2539   */\n      tag_157\n      jump\t// in\n    tag_156:\n        /* \"#utility.yul\":2564:2566   */\n      0x20\n        /* \"#utility.yul\":2559:2562   */\n      dup3\n        /* \"#utility.yul\":2555:2567   */\n      add\n        /* \"#utility.yul\":2548:2567   */\n      swap1\n      pop\n        /* \"#utility.yul\":2207:2573   */\n      swap2\n      swap1\n      pop\n      jump\t// out\n        /* \"#utility.yul\":2579:2945   */\n    tag_158:\n        /* \"#utility.yul\":2721:2724   */\n      0x00\n        /* \"#utility.yul\":2742:2809   */\n      tag_160\n        /* \"#utility.yul\":2806:2808   */\n      0x22\n        /* \"#utility.yul\":2801:2804   */\n      dup4\n        /* \"#utility.yul\":2742:2809   */\n      tag_140\n      jump\t// in\n    tag_160:\n        /* \"#utility.yul\":2735:2809   */\n      swap2\n      pop\n        /* \"#utility.yul\":2818:2911   */\n      tag_161\n        /* \"#utility.yul\":2907:2910   */\n      dup3\n        /* \"#utility.yul\":2818:2911   */\n      tag_162\n      jump\t// in\n    tag_161:\n        /* \"#utility.yul\":2936:2938   */\n      0x40\n        /* \"#utility.yul\":2931:2934   */\n      dup3\n        /* \"#utility.yul\":2927:2939   */\n      add\n        /* \"#utility.yul\":2920:2939   */\n      swap1\n      pop\n        /* \"#utility.yul\":2579:2945   */\n      swap2\n      swap1\n      pop\n      jump\t// out\n        /* \"#utility.yul\":2951:3317   */\n    tag_163:\n        /* \"#utility.yul\":3093:3096   */\n      0x00\n        /* \"#utility.yul\":3114:3181   */\n      tag_165\n        /* \"#utility.yul\":3178:3180   */\n      0x1d\n        /* \"#utility.yul\":3173:3176   */\n      dup4\n        /* \"#utility.yul\":3114:3181   */\n      tag_140\n      jump\t// in\n    tag_165:\n        /* \"#utility.yul\":3107:3181   */\n      swap2\n      pop\n        /* \"#utility.yul\":3190:3283   */\n      tag_166\n        /* \"#utility.yul\":3279:3282   */\n      dup3\n        /* \"#utility.yul\":3190:3283   */\n      tag_167\n      jump\t// in\n    tag_166:\n        /* \"#utility.yul\":3308:3310   */\n      0x20\n        /* \"#utility.yul\":3303:3306   */\n      dup3\n        /* \"#utility.yul\":3299:3311   */\n      add\n        /* \"#utility.yul\":3292:3311   */\n      swap1\n      pop\n        /* \"#utility.yul\":2951:3317   */\n      swap2\n      swap1\n      pop\n      jump\t// out\n        /* \"#utility.yul\":3323:3689   */\n    tag_168:\n        /* \"#utility.yul\":3465:3468   */\n      0x00\n        /* \"#utility.yul\":3486:3553   */\n      tag_170\n        /* \"#utility.yul\":3550:3552   */\n      0x0a\n        /* \"#utility.yul\":3545:3548   */\n      dup4\n        /* \"#utility.yul\":3486:3553   */\n      tag_140\n      jump\t// in\n    tag_170:\n        /* \"#utility.yul\":3479:3553   */\n      swap2\n      pop\n        /* \"#utility.yul\":3562:3655   */\n      tag_171\n        /* \"#utility.yul\":3651:3654   */\n      dup3\n        /* \"#utility.yul\":3562:3655   */\n      tag_172\n      jump\t// in\n    tag_171:\n        /* \"#utility.yul\":3680:3682   */\n      0x20\n        /* \"#utility.yul\":3675:3678   */\n      dup3\n        /* \"#utility.yul\":3671:3683   */\n      add\n        /* \"#utility.yul\":3664:3683   */\n      swap1\n      pop\n        /* \"#utility.yul\":3323:3689   */\n      swap2\n      swap1\n      pop\n      jump\t// out\n        /* \"#utility.yul\":3695:4061   */\n    tag_173:\n        /* \"#utility.yul\":3837:3840   */\n      0x00\n        /* \"#utility.yul\":3858:3925   */\n      tag_175\n        /* \"#utility.yul\":3922:3924   */\n      0x1c\n        /* \"#utility.yul\":3917:3920   */\n      dup4\n        /* \"#utility.yul\":3858:3925   */\n      tag_140\n      jump\t// in\n    tag_175:\n        /* \"#utility.yul\":3851:3925   */\n      swap2\n      pop\n        /* \"#utility.yul\":3934:4027   */\n      tag_176\n        /* \"#utility.yul\":4023:4026   */\n      dup3\n        /* \"#utility.yul\":3934:4027   */\n      tag_177\n      jump\t// in\n    tag_176:\n        /* \"#utility.yul\":4052:4054   */\n      0x20\n        /* \"#utility.yul\":4047:4050   */\n      dup3\n        /* \"#utility.yul\":4043:4055   */\n      add\n        /* \"#utility.yul\":4036:4055   */\n      swap1\n      pop\n        /* \"#utility.yul\":3695:4061   */\n      swap2\n      swap1\n      pop\n      jump\t// out\n        /* \"#utility.yul\":4067:4433   */\n    tag_178:\n        /* \"#utility.yul\":4209:4212   */\n      0x00\n        /* \"#utility.yul\":4230:4297   */\n      tag_180\n        /* \"#utility.yul\":4294:4296   */\n      0x1c\n        /* \"#utility.yul\":4289:4292   */\n      dup4\n        /* \"#utility.yul\":4230:4297   */\n      tag_140\n      jump\t// in\n    tag_180:\n        /* \"#utility.yul\":4223:4297   */\n      swap2\n      pop\n        /* \"#utility.yul\":4306:4399   */\n      tag_181\n        /* \"#utility.yul\":4395:4398   */\n      dup3\n        /* \"#utility.yul\":4306:4399   */\n      tag_182\n      jump\t// in\n    tag_181:\n        /* \"#utility.yul\":4424:4426   */\n      0x20\n        /* \"#utility.yul\":4419:4422   */\n      dup3\n        /* \"#utility.yul\":4415:4427   */\n      add\n        /* \"#utility.yul\":4408:4427   */\n      swap1\n      pop\n        /* \"#utility.yul\":4067:4433   */\n      swap2\n      swap1\n      pop\n      jump\t// out\n        /* \"#utility.yul\":4439:4805   */\n    tag_183:\n        /* \"#utility.yul\":4581:4584   */\n      0x00\n        /* \"#utility.yul\":4602:4669   */\n      tag_185\n        /* \"#utility.yul\":4666:4668   */\n      0x10\n        /* \"#utility.yul\":4661:4664   */\n      dup4\n        /* \"#utility.yul\":4602:4669   */\n      tag_140\n      jump\t// in\n    tag_185:\n        /* \"#utility.yul\":4595:4669   */\n      swap2\n      pop\n        /* \"#utility.yul\":4678:4771   */\n      tag_186\n        /* \"#utility.yul\":4767:4770   */\n      dup3\n        /* \"#utility.yul\":4678:4771   */\n      tag_187\n      jump\t// in\n    tag_186:\n        /* \"#utility.yul\":4796:4798   */\n      0x20\n        /* \"#utility.yul\":4791:4794   */\n      dup3\n        /* \"#utility.yul\":4787:4799   */\n      add\n        /* \"#utility.yul\":4780:4799   */\n      swap1\n      pop\n        /* \"#utility.yul\":4439:4805   */\n      swap2\n      swap1\n      pop\n      jump\t// out\n        /* \"#utility.yul\":4811:4929   */\n    tag_188:\n        /* \"#utility.yul\":4898:4922   */\n      tag_190\n        /* \"#utility.yul\":4916:4921   */\n      dup2\n        /* \"#utility.yul\":4898:4922   */\n      tag_191\n      jump\t// in\n    tag_190:\n        /* \"#utility.yul\":4893:4896   */\n      dup3\n        /* \"#utility.yul\":4886:4923   */\n      mstore\n        /* \"#utility.yul\":4811:4929   */\n      pop\n      pop\n      jump\t// out\n        /* \"#utility.yul\":4935:5092   */\n    tag_192:\n        /* \"#utility.yul\":5040:5085   */\n      tag_194\n        /* \"#utility.yul\":5060:5084   */\n      tag_195\n        /* \"#utility.yul\":5078:5083   */\n      dup3\n        /* \"#utility.yul\":5060:5084   */\n      tag_191\n      jump\t// in\n    tag_195:\n        /* \"#utility.yul\":5040:5085   */\n      tag_196\n      jump\t// in\n    tag_194:\n        /* \"#utility.yul\":5035:5038   */\n      dup3\n        /* \"#utility.yul\":5028:5086   */\n      mstore\n        /* \"#utility.yul\":4935:5092   */\n      pop\n      pop\n      jump\t// out\n        /* \"#utility.yul\":5098:5354   */\n    tag_42:\n        /* \"#utility.yul\":5210:5213   */\n      0x00\n        /* \"#utility.yul\":5225:5300   */\n      tag_198\n        /* \"#utility.yul\":5296:5299   */\n      dup3\n        /* \"#utility.yul\":5287:5293   */\n      dup5\n        /* \"#utility.yul\":5225:5300   */\n      tag_192\n      jump\t// in\n    tag_198:\n        /* \"#utility.yul\":5325:5327   */\n      0x20\n        /* \"#utility.yul\":5320:5323   */\n      dup3\n        /* \"#utility.yul\":5316:5328   */\n      add\n        /* \"#utility.yul\":5309:5328   */\n      swap2\n      pop\n        /* \"#utility.yul\":5345:5348   */\n      dup2\n        /* \"#utility.yul\":5338:5348   */\n      swap1\n      pop\n        /* \"#utility.yul\":5098:5354   */\n      swap3\n      swap2\n      pop\n      pop\n      jump\t// out\n        /* \"#utility.yul\":5360:5582   */\n    tag_30:\n        /* \"#utility.yul\":5453:5457   */\n      0x00\n        /* \"#utility.yul\":5491:5493   */\n      0x20\n        /* \"#utility.yul\":5480:5489   */\n      dup3\n        /* \"#utility.yul\":5476:5494   */\n      add\n        /* \"#utility.yul\":5468:5494   */\n      swap1\n      pop\n        /* \"#utility.yul\":5504:5575   */\n      tag_200\n        /* \"#utility.yul\":5572:5573   */\n      0x00\n        /* \"#utility.yul\":5561:5570   */\n      dup4\n        /* \"#utility.yul\":5557:5574   */\n      add\n        /* \"#utility.yul\":5548:5554   */\n      dup5\n        /* \"#utility.yul\":5504:5575   */\n      tag_133\n      jump\t// in\n    tag_200:\n        /* \"#utility.yul\":5360:5582   */\n      swap3\n      swap2\n      pop\n      pop\n      jump\t// out\n        /* \"#utility.yul\":5588:6007   */\n    tag_100:\n        /* \"#utility.yul\":5754:5758   */\n      0x00\n        /* \"#utility.yul\":5792:5794   */\n      0x20\n        /* \"#utility.yul\":5781:5790   */\n      dup3\n        /* \"#utility.yul\":5777:5795   */\n      add\n        /* \"#utility.yul\":5769:5795   */\n      swap1\n      pop\n        /* \"#utility.yul\":5841:5850   */\n      dup2\n        /* \"#utility.yul\":5835:5839   */\n      dup2\n        /* \"#utility.yul\":5831:5851   */\n      sub\n        /* \"#utility.yul\":5827:5828   */\n      0x00\n        /* \"#utility.yul\":5816:5825   */\n      dup4\n        /* \"#utility.yul\":5812:5829   */\n      add\n        /* \"#utility.yul\":5805:5852   */\n      mstore\n        /* \"#utility.yul\":5869:6000   */\n      tag_202\n        /* \"#utility.yul\":5995:5999   */\n      dup2\n        /* \"#utility.yul\":5869:6000   */\n      tag_137\n      jump\t// in\n    tag_202:\n        /* \"#utility.yul\":5861:6000   */\n      swap1\n      pop\n        /* \"#utility.yul\":5588:6007   */\n      swap2\n      swap1\n      pop\n      jump\t// out\n        /* \"#utility.yul\":6013:6432   */\n    tag_51:\n        /* \"#utility.yul\":6179:6183   */\n      0x00\n        /* \"#utility.yul\":6217:6219   */\n      0x20\n        /* \"#utility.yul\":6206:6215   */\n      dup3\n        /* \"#utility.yul\":6202:6220   */\n      add\n        /* \"#utility.yul\":6194:6220   */\n      swap1\n      pop\n        /* \"#utility.yul\":6266:6275   */\n      dup2\n        /* \"#utility.yul\":6260:6264   */\n      dup2\n        /* \"#utility.yul\":6256:6276   */\n      sub\n        /* \"#utility.yul\":6252:6253   */\n      0x00\n        /* \"#utility.yul\":6241:6250   */\n      dup4\n        /* \"#utility.yul\":6237:6254   */\n      add\n        /* \"#utility.yul\":6230:6277   */\n      mstore\n        /* \"#utility.yul\":6294:6425   */\n      tag_204\n        /* \"#utility.yul\":6420:6424   */\n      dup2\n        /* \"#utility.yul\":6294:6425   */\n      tag_143\n      jump\t// in\n    tag_204:\n        /* \"#utility.yul\":6286:6425   */\n      swap1\n      pop\n        /* \"#utility.yul\":6013:6432   */\n      swap2\n      swap1\n      pop\n      jump\t// out\n        /* \"#utility.yul\":6438:6857   */\n    tag_103:\n        /* \"#utility.yul\":6604:6608   */\n      0x00\n        /* \"#utility.yul\":6642:6644   */\n      0x20\n        /* \"#utility.yul\":6631:6640   */\n      dup3\n        /* \"#utility.yul\":6627:6645   */\n      add\n        /* \"#utility.yul\":6619:6645   */\n      swap1\n      pop\n        /* \"#utility.yul\":6691:6700   */\n      dup2\n        /* \"#utility.yul\":6685:6689   */\n      dup2\n        /* \"#utility.yul\":6681:6701   */\n      sub\n        /* \"#utility.yul\":6677:6678   */\n      0x00\n        /* \"#utility.yul\":6666:6675   */\n      dup4\n        /* \"#utility.yul\":6662:6679   */\n      add\n        /* \"#utility.yul\":6655:6702   */\n      mstore\n        /* \"#utility.yul\":6719:6850   */\n      tag_206\n        /* \"#utility.yul\":6845:6849   */\n      dup2\n        /* \"#utility.yul\":6719:6850   */\n      tag_148\n      jump\t// in\n    tag_206:\n        /* \"#utility.yul\":6711:6850   */\n      swap1\n      pop\n        /* \"#utility.yul\":6438:6857   */\n      swap2\n      swap1\n      pop\n      jump\t// out\n        /* \"#utility.yul\":6863:7282   */\n    tag_85:\n        /* \"#utility.yul\":7029:7033   */\n      0x00\n        /* \"#utility.yul\":7067:7069   */\n      0x20\n        /* \"#utility.yul\":7056:7065   */\n      dup3\n        /* \"#utility.yul\":7052:7070   */\n      add\n        /* \"#utility.yul\":7044:7070   */\n      swap1\n      pop\n        /* \"#utility.yul\":7116:7125   */\n      dup2\n        /* \"#utility.yul\":7110:7114   */\n      dup2\n        /* \"#utility.yul\":7106:7126   */\n      sub\n        /* \"#utility.yul\":7102:7103   */\n      0x00\n        /* \"#utility.yul\":7091:7100   */\n      dup4\n        /* \"#utility.yul\":7087:7104   */\n      add\n        /* \"#utility.yul\":7080:7127   */\n      mstore\n        /* \"#utility.yul\":7144:7275   */\n      tag_208\n        /* \"#utility.yul\":7270:7274   */\n      dup2\n        /* \"#utility.yul\":7144:7275   */\n      tag_153\n      jump\t// in\n    tag_208:\n        /* \"#utility.yul\":7136:7275   */\n      swap1\n      pop\n        /* \"#utility.yul\":6863:7282   */\n      swap2\n      swap1\n      pop\n      jump\t// out\n        /* \"#utility.yul\":7288:7707   */\n    tag_54:\n        /* \"#utility.yul\":7454:7458   */\n      0x00\n        /* \"#utility.yul\":7492:7494   */\n      0x20\n        /* \"#utility.yul\":7481:7490   */\n      dup3\n        /* \"#utility.yul\":7477:7495   */\n      add\n        /* \"#utility.yul\":7469:7495   */\n      swap1\n      pop\n        /* \"#utility.yul\":7541:7550   */\n      dup2\n        /* \"#utility.yul\":7535:7539   */\n      dup2\n        /* \"#utility.yul\":7531:7551   */\n      sub\n        /* \"#utility.yul\":7527:7528   */\n      0x00\n        /* \"#utility.yul\":7516:7525   */\n      dup4\n        /* \"#utility.yul\":7512:7529   */\n      add\n        /* \"#utility.yul\":7505:7552   */\n      mstore\n        /* \"#utility.yul\":7569:7700   */\n      tag_210\n        /* \"#utility.yul\":7695:7699   */\n      dup2\n        /* \"#utility.yul\":7569:7700   */\n      tag_158\n      jump\t// in\n    tag_210:\n        /* \"#utility.yul\":7561:7700   */\n      swap1\n      pop\n        /* \"#utility.yul\":7288:7707   */\n      swap2\n      swap1\n      pop\n      jump\t// out\n        /* \"#utility.yul\":7713:8132   */\n    tag_88:\n        /* \"#utility.yul\":7879:7883   */\n      0x00\n        /* \"#utility.yul\":7917:7919   */\n      0x20\n        /* \"#utility.yul\":7906:7915   */\n      dup3\n        /* \"#utility.yul\":7902:7920   */\n      add\n        /* \"#utility.yul\":7894:7920   */\n      swap1\n      pop\n        /* \"#utility.yul\":7966:7975   */\n      dup2\n        /* \"#utility.yul\":7960:7964   */\n      dup2\n        /* \"#utility.yul\":7956:7976   */\n      sub\n        /* \"#utility.yul\":7952:7953   */\n      0x00\n        /* \"#utility.yul\":7941:7950   */\n      dup4\n        /* \"#utility.yul\":7937:7954   */\n      add\n        /* \"#utility.yul\":7930:7977   */\n      mstore\n        /* \"#utility.yul\":7994:8125   */\n      tag_212\n        /* \"#utility.yul\":8120:8124   */\n      dup2\n        /* \"#utility.yul\":7994:8125   */\n      tag_163\n      jump\t// in\n    tag_212:\n        /* \"#utility.yul\":7986:8125   */\n      swap1\n      pop\n        /* \"#utility.yul\":7713:8132   */\n      swap2\n      swap1\n      pop\n      jump\t// out\n        /* \"#utility.yul\":8138:8557   */\n    tag_45:\n        /* \"#utility.yul\":8304:8308   */\n      0x00\n        /* \"#utility.yul\":8342:8344   */\n      0x20\n        /* \"#utility.yul\":8331:8340   */\n      dup3\n        /* \"#utility.yul\":8327:8345   */\n      add\n        /* \"#utility.yul\":8319:8345   */\n      swap1\n      pop\n        /* \"#utility.yul\":8391:8400   */\n      dup2\n        /* \"#utility.yul\":8385:8389   */\n      dup2\n        /* \"#utility.yul\":8381:8401   */\n      sub\n        /* \"#utility.yul\":8377:8378   */\n      0x00\n        /* \"#utility.yul\":8366:8375   */\n      dup4\n        /* \"#utility.yul\":8362:8379   */\n      add\n        /* \"#utility.yul\":8355:8402   */\n      mstore\n        /* \"#utility.yul\":8419:8550   */\n      tag_214\n        /* \"#utility.yul\":8545:8549   */\n      dup2\n        /* \"#utility.yul\":8419:8550   */\n      tag_168\n      jump\t// in\n    tag_214:\n        /* \"#utility.yul\":8411:8550   */\n      swap1\n      pop\n        /* \"#utility.yul\":8138:8557   */\n      swap2\n      swap1\n      pop\n      jump\t// out\n        /* \"#utility.yul\":8563:8982   */\n    tag_82:\n        /* \"#utility.yul\":8729:8733   */\n      0x00\n        /* \"#utility.yul\":8767:8769   */\n      0x20\n        /* \"#utility.yul\":8756:8765   */\n      dup3\n        /* \"#utility.yul\":8752:8770   */\n      add\n        /* \"#utility.yul\":8744:8770   */\n      swap1\n      pop\n        /* \"#utility.yul\":8816:8825   */\n      dup2\n        /* \"#utility.yul\":8810:8814   */\n      dup2\n        /* \"#utility.yul\":8806:8826   */\n      sub\n        /* \"#utility.yul\":8802:8803   */\n      0x00\n        /* \"#utility.yul\":8791:8800   */\n      dup4\n        /* \"#utility.yul\":8787:8804   */\n      add\n        /* \"#utility.yul\":8780:8827   */\n      mstore\n        /* \"#utility.yul\":8844:8975   */\n      tag_216\n        /* \"#utility.yul\":8970:8974   */\n      dup2\n        /* \"#utility.yul\":8844:8975   */\n      tag_173\n      jump\t// in\n    tag_216:\n        /* \"#utility.yul\":8836:8975   */\n      swap1\n      pop\n        /* \"#utility.yul\":8563:8982   */\n      swap2\n      swap1\n      pop\n      jump\t// out\n        /* \"#utility.yul\":8988:9407   */\n    tag_79:\n        /* \"#utility.yul\":9154:9158   */\n      0x00\n        /* \"#utility.yul\":9192:9194   */\n      0x20\n        /* \"#utility.yul\":9181:9190   */\n      dup3\n        /* \"#utility.yul\":9177:9195   */\n      add\n        /* \"#utility.yul\":9169:9195   */\n      swap1\n      pop\n        /* \"#utility.yul\":9241:9250   */\n      dup2\n        /* \"#utility.yul\":9235:9239   */\n      dup2\n        /* \"#utility.yul\":9231:9251   */\n      sub\n        /* \"#utility.yul\":9227:9228   */\n      0x00\n        /* \"#utility.yul\":9216:9225   */\n      dup4\n        /* \"#utility.yul\":9212:9229   */\n      add\n        /* \"#utility.yul\":9205:9252   */\n      mstore\n        /* \"#utility.yul\":9269:9400   */\n      tag_218\n        /* \"#utility.yul\":9395:9399   */\n      dup2\n        /* \"#utility.yul\":9269:9400   */\n      tag_178\n      jump\t// in\n    tag_218:\n        /* \"#utility.yul\":9261:9400   */\n      swap1\n      pop\n        /* \"#utility.yul\":8988:9407   */\n      swap2\n      swap1\n      pop\n      jump\t// out\n        /* \"#utility.yul\":9413:9832   */\n    tag_48:\n        /* \"#utility.yul\":9579:9583   */\n      0x00\n        /* \"#utility.yul\":9617:9619   */\n      0x20\n        /* \"#utility.yul\":9606:9615   */\n      dup3\n        /* \"#utility.yul\":9602:9620   */\n      add\n        /* \"#utility.yul\":9594:9620   */\n      swap1\n      pop\n        /* \"#utility.yul\":9666:9675   */\n      dup2\n        /* \"#utility.yul\":9660:9664   */\n      dup2\n        /* \"#utility.yul\":9656:9676   */\n      sub\n        /* \"#utility.yul\":9652:9653   */\n      0x00\n        /* \"#utility.yul\":9641:9650   */\n      dup4\n        /* \"#utility.yul\":9637:9654   */\n      add\n        /* \"#utility.yul\":9630:9677   */\n      mstore\n        /* \"#utility.yul\":9694:9825   */\n      tag_220\n        /* \"#utility.yul\":9820:9824   */\n      dup2\n        /* \"#utility.yul\":9694:9825   */\n      tag_183\n      jump\t// in\n    tag_220:\n        /* \"#utility.yul\":9686:9825   */\n      swap1\n      pop\n        /* \"#utility.yul\":9413:9832   */\n      swap2\n      swap1\n      pop\n      jump\t// out\n        /* \"#utility.yul\":9838:10060   */\n    tag_16:\n        /* \"#utility.yul\":9931:9935   */\n      0x00\n        /* \"#utility.yul\":9969:9971   */\n      0x20\n        /* \"#utility.yul\":9958:9967   */\n      dup3\n        /* \"#utility.yul\":9954:9972   */\n      add\n        /* \"#utility.yul\":9946:9972   */\n      swap1\n      pop\n        /* \"#utility.yul\":9982:10053   */\n      tag_222\n        /* \"#utility.yul\":10050:10051   */\n      0x00\n        /* \"#utility.yul\":10039:10048   */\n      dup4\n        /* \"#utility.yul\":10035:10052   */\n      add\n        /* \"#utility.yul\":10026:10032   */\n      dup5\n        /* \"#utility.yul\":9982:10053   */\n      tag_188\n      jump\t// in\n    tag_222:\n        /* \"#utility.yul\":9838:10060   */\n      swap3\n      swap2\n      pop\n      pop\n      jump\t// out\n        /* \"#utility.yul\":10147:10316   */\n    tag_140:\n        /* \"#utility.yul\":10231:10242   */\n      0x00\n        /* \"#utility.yul\":10265:10271   */\n      dup3\n        /* \"#utility.yul\":10260:10263   */\n      dup3\n        /* \"#utility.yul\":10253:10272   */\n      mstore\n        /* \"#utility.yul\":10305:10309   */\n      0x20\n        /* \"#utility.yul\":10300:10303   */\n      dup3\n        /* \"#utility.yul\":10296:10310   */\n      add\n        /* \"#utility.yul\":10281:10310   */\n      swap1\n      pop\n        /* \"#utility.yul\":10147:10316   */\n      swap3\n      swap2\n      pop\n      pop\n      jump\t// out\n        /* \"#utility.yul\":10322:10627   */\n    tag_62:\n        /* \"#utility.yul\":10362:10365   */\n      0x00\n        /* \"#utility.yul\":10381:10401   */\n      tag_227\n        /* \"#utility.yul\":10399:10400   */\n      dup3\n        /* \"#utility.yul\":10381:10401   */\n      tag_191\n      jump\t// in\n    tag_227:\n        /* \"#utility.yul\":10376:10401   */\n      swap2\n      pop\n        /* \"#utility.yul\":10415:10435   */\n      tag_228\n        /* \"#utility.yul\":10433:10434   */\n      dup4\n        /* \"#utility.yul\":10415:10435   */\n      tag_191\n      jump\t// in\n    tag_228:\n        /* \"#utility.yul\":10410:10435   */\n      swap3\n      pop\n        /* \"#utility.yul\":10569:10570   */\n      dup3\n        /* \"#utility.yul\":10501:10567   */\n      0xffffffffffffffffffffffffffffffffffffffffffffffffffffffffffffffff\n        /* \"#utility.yul\":10497:10571   */\n      sub\n        /* \"#utility.yul\":10494:10495   */\n      dup3\n        /* \"#utility.yul\":10491:10572   */\n      gt\n        /* \"#utility.yul\":10488:10595   */\n      iszero\n      tag_229\n      jumpi\n        /* \"#utility.yul\":10575:10593   */\n      tag_230\n      tag_231\n      jump\t// in\n    tag_230:\n        /* \"#utility.yul\":10488:10595   */\n    tag_229:\n        /* \"#utility.yul\":10619:10620   */\n      dup3\n        /* \"#utility.yul\":10616:10617   */\n      dup3\n        /* \"#utility.yul\":10612:10621   */\n      add\n        /* \"#utility.yul\":10605:10621   */\n      swap1\n      pop\n        /* \"#utility.yul\":10322:10627   */\n      swap3\n      swap2\n      pop\n      pop\n      jump\t// out\n        /* \"#utility.yul\":10633:10981   */\n    tag_67:\n        /* \"#utility.yul\":10673:10680   */\n      0x00\n        /* \"#utility.yul\":10696:10716   */\n      tag_233\n        /* \"#utility.yul\":10714:10715   */\n      dup3\n        /* \"#utility.yul\":10696:10716   */\n      tag_191\n      jump\t// in\n    tag_233:\n        /* \"#utility.yul\":10691:10716   */\n      swap2\n      pop\n        /* \"#utility.yul\":10730:10750   */\n      tag_234\n        /* \"#utility.yul\":10748:10749   */\n      dup4\n        /* \"#utility.yul\":10730:10750   */\n      tag_191\n      jump\t// in\n    tag_234:\n        /* \"#utility.yul\":10725:10750   */\n      swap3\n      pop\n        /* \"#utility.yul\":10918:10919   */\n      dup2\n        /* \"#utility.yul\":10850:10916   */\n      0xffffffffffffffffffffffffffffffffffffffffffffffffffffffffffffffff\n        /* \"#utility.yul\":10846:10920   */\n      div\n        /* \"#utility.yul\":10843:10844   */\n      dup4\n        /* \"#utility.yul\":10840:10921   */\n      gt\n        /* \"#utility.yul\":10835:10836   */\n      dup3\n        /* \"#utility.yul\":10828:10837   */\n      iszero\n        /* \"#utility.yul\":10821:10838   */\n      iszero\n        /* \"#utility.yul\":10817:10922   */\n      and\n        /* \"#utility.yul\":10814:10945   */\n      iszero\n      tag_235\n      jumpi\n        /* \"#utility.yul\":10925:10943   */\n      tag_236\n      tag_231\n      jump\t// in\n    tag_236:\n        /* \"#utility.yul\":10814:10945   */\n    tag_235:\n        /* \"#utility.yul\":10973:10974   */\n      dup3\n        /* \"#utility.yul\":10970:10971   */\n      dup3\n        /* \"#utility.yul\":10966:10975   */\n      mul\n        /* \"#utility.yul\":10955:10975   */\n      swap1\n      pop\n        /* \"#utility.yul\":10633:10981   */\n      swap3\n      swap2\n      pop\n      pop\n      jump\t// out\n        /* \"#utility.yul\":10987:11178   */\n    tag_65:\n        /* \"#utility.yul\":11027:11031   */\n      0x00\n        /* \"#utility.yul\":11047:11067   */\n      tag_238\n        /* \"#utility.yul\":11065:11066   */\n      dup3\n        /* \"#utility.yul\":11047:11067   */\n      tag_191\n      jump\t// in\n    tag_238:\n        /* \"#utility.yul\":11042:11067   */\n      swap2\n      pop\n        /* \"#utility.yul\":11081:11101   */\n      tag_239\n        /* \"#utility.yul\":11099:11100   */\n      dup4\n        /* \"#utility.yul\":11081:11101   */\n      tag_191\n      jump\t// in\n    tag_239:\n        /* \"#utility.yul\":11076:11101   */\n      swap3\n      pop\n        /* \"#utility.yul\":11120:11121   */\n      dup3\n        /* \"#utility.yul\":11117:11118   */\n      dup3\n        /* \"#utility.yul\":11114:11122   */\n      lt\n        /* \"#utility.yul\":11111:11145   */\n      iszero\n      tag_240\n      jumpi\n        /* \"#utility.yul\":11125:11143   */\n      tag_241\n      tag_231\n      jump\t// in\n    tag_241:\n        /* \"#utility.yul\":11111:11145   */\n    tag_240:\n        /* \"#utility.yul\":11170:11171   */\n      dup3\n        /* \"#utility.yul\":11167:11168   */\n      dup3\n        /* \"#utility.yul\":11163:11172   */\n      sub\n        /* \"#utility.yul\":11155:11172   */\n      swap1\n      pop\n        /* \"#utility.yul\":10987:11178   */\n      swap3\n      swap2\n      pop\n      pop\n      jump\t// out\n        /* \"#utility.yul\":11184:11261   */\n    tag_136:\n        /* \"#utility.yul\":11221:11228   */\n      0x00\n        /* \"#utility.yul\":11250:11255   */\n      dup2\n        /* \"#utility.yul\":11239:11255   */\n      swap1\n      pop\n        /* \"#utility.yul\":11184:11261   */\n      swap2\n      swap1\n      pop\n      jump\t// out\n        /* \"#utility.yul\":11267:11344   */\n    tag_191:\n        /* \"#utility.yul\":11304:11311   */\n      0x00\n        /* \"#utility.yul\":11333:11338   */\n      dup2\n        /* \"#utility.yul\":11322:11338   */\n      swap1\n      pop\n        /* \"#utility.yul\":11267:11344   */\n      swap2\n      swap1\n      pop\n      jump\t// out\n        /* \"#utility.yul\":11350:11429   */\n    tag_196:\n        /* \"#utility.yul\":11389:11396   */\n      0x00\n        /* \"#utility.yul\":11418:11423   */\n      dup2\n        /* \"#utility.yul\":11407:11423   */\n      swap1\n      pop\n        /* \"#utility.yul\":11350:11429   */\n      swap2\n      swap1\n      pop\n      jump\t// out\n        /* \"#utility.yul\":11435:11611   */\n    tag_60:\n        /* \"#utility.yul\":11467:11468   */\n      0x00\n        /* \"#utility.yul\":11484:11504   */\n      tag_246\n        /* \"#utility.yul\":11502:11503   */\n      dup3\n        /* \"#utility.yul\":11484:11504   */\n      tag_191\n      jump\t// in\n    tag_246:\n        /* \"#utility.yul\":11479:11504   */\n      swap2\n      pop\n        /* \"#utility.yul\":11518:11538   */\n      tag_247\n        /* \"#utility.yul\":11536:11537   */\n      dup4\n        /* \"#utility.yul\":11518:11538   */\n      tag_191\n      jump\t// in\n    tag_247:\n        /* \"#utility.yul\":11513:11538   */\n      swap3\n      pop\n        /* \"#utility.yul\":11557:11558   */\n      dup3\n        /* \"#utility.yul\":11547:11582   */\n      tag_248\n      jumpi\n        /* \"#utility.yul\":11562:11580   */\n      tag_249\n      tag_250\n      jump\t// in\n    tag_249:\n        /* \"#utility.yul\":11547:11582   */\n    tag_248:\n        /* \"#utility.yul\":11603:11604   */\n      dup3\n        /* \"#utility.yul\":11600:11601   */\n      dup3\n        /* \"#utility.yul\":11596:11605   */\n      mod\n        /* \"#utility.yul\":11591:11605   */\n      swap1\n      pop\n        /* \"#utility.yul\":11435:11611   */\n      swap3\n      swap2\n      pop\n      pop\n      jump\t// out\n        /* \"#utility.yul\":11617:11797   */\n    tag_231:\n        /* \"#utility.yul\":11665:11742   */\n      0x4e487b7100000000000000000000000000000000000000000000000000000000\n        /* \"#utility.yul\":11662:11663   */\n      0x00\n        /* \"#utility.yul\":11655:11743   */\n      mstore\n        /* \"#utility.yul\":11762:11766   */\n      0x11\n        /* \"#utility.yul\":11759:11760   */\n      0x04\n        /* \"#utility.yul\":11752:11767   */\n      mstore\n        /* \"#utility.yul\":11786:11790   */\n      0x24\n        /* \"#utility.yul\":11783:11784   */\n      0x00\n        /* \"#utility.yul\":11776:11791   */\n      revert\n        /* \"#utility.yul\":11803:11983   */\n    tag_250:\n        /* \"#utility.yul\":11851:11928   */\n      0x4e487b7100000000000000000000000000000000000000000000000000000000\n        /* \"#utility.yul\":11848:11849   */\n      0x00\n        /* \"#utility.yul\":11841:11929   */\n      mstore\n        /* \"#utility.yul\":11948:11952   */\n      0x12\n        /* \"#utility.yul\":11945:11946   */\n      0x04\n        /* \"#utility.yul\":11938:11953   */\n      mstore\n        /* \"#utility.yul\":11972:11976   */\n      0x24\n        /* \"#utility.yul\":11969:11970   */\n      0x00\n        /* \"#utility.yul\":11962:11977   */\n      revert\n        /* \"#utility.yul\":12112:12229   */\n    tag_127:\n        /* \"#utility.yul\":12221:12222   */\n      0x00\n        /* \"#utility.yul\":12218:12219   */\n      dup1\n        /* \"#utility.yul\":12211:12223   */\n      revert\n        /* \"#utility.yul\":12235:12400   */\n    tag_142:\n        /* \"#utility.yul\":12375:12392   */\n      0x422068617320656e746572656420210000000000000000000000000000000000\n        /* \"#utility.yul\":12371:12372   */\n      0x00\n        /* \"#utility.yul\":12363:12369   */\n      dup3\n        /* \"#utility.yul\":12359:12373   */\n      add\n        /* \"#utility.yul\":12352:12393   */\n      mstore\n        /* \"#utility.yul\":12235:12400   */\n      pop\n      jump\t// out\n        /* \"#utility.yul\":12406:12572   */\n    tag_147:\n        /* \"#utility.yul\":12546:12564   */\n      0x7761697420666f7220706c617965724200000000000000000000000000000000\n        /* \"#utility.yul\":12542:12543   */\n      0x00\n        /* \"#utility.yul\":12534:12540   */\n      dup3\n        /* \"#utility.yul\":12530:12544   */\n      add\n        /* \"#utility.yul\":12523:12565   */\n      mstore\n        /* \"#utility.yul\":12406:12572   */\n      pop\n      jump\t// out\n        /* \"#utility.yul\":12578:12757   */\n    tag_152:\n        /* \"#utility.yul\":12718:12749   */\n      0x796f75206861766520656e746572656420617320706c61796572412021000000\n        /* \"#utility.yul\":12714:12715   */\n      0x00\n        /* \"#utility.yul\":12706:12712   */\n      dup3\n        /* \"#utility.yul\":12702:12716   */\n      add\n        /* \"#utility.yul\":12695:12750   */\n      mstore\n        /* \"#utility.yul\":12578:12757   */\n      pop\n      jump\t// out\n        /* \"#utility.yul\":12763:12928   */\n    tag_157:\n        /* \"#utility.yul\":12903:12920   */\n      0x412068617320656e746572656420210000000000000000000000000000000000\n        /* \"#utility.yul\":12899:12900   */\n      0x00\n        /* \"#utility.yul\":12891:12897   */\n      dup3\n        /* \"#utility.yul\":12887:12901   */\n      add\n        /* \"#utility.yul\":12880:12921   */\n      mstore\n        /* \"#utility.yul\":12763:12928   */\n      pop\n      jump\t// out\n        /* \"#utility.yul\":12934:13155   */\n    tag_162:\n        /* \"#utility.yul\":13074:13108   */\n      0x646f6e27742072657065617420756e74696c20616c6c20757365727320726573\n        /* \"#utility.yul\":13070:13071   */\n      0x00\n        /* \"#utility.yul\":13062:13068   */\n      dup3\n        /* \"#utility.yul\":13058:13072   */\n      add\n        /* \"#utility.yul\":13051:13109   */\n      mstore\n        /* \"#utility.yul\":13143:13147   */\n      0x6574000000000000000000000000000000000000000000000000000000000000\n        /* \"#utility.yul\":13138:13140   */\n      0x20\n        /* \"#utility.yul\":13130:13136   */\n      dup3\n        /* \"#utility.yul\":13126:13141   */\n      add\n        /* \"#utility.yul\":13119:13148   */\n      mstore\n        /* \"#utility.yul\":12934:13155   */\n      pop\n      jump\t// out\n        /* \"#utility.yul\":13161:13340   */\n    tag_167:\n        /* \"#utility.yul\":13301:13332   */\n      0x796f75206861766520656e746572656420617320706c61796572422021000000\n        /* \"#utility.yul\":13297:13298   */\n      0x00\n        /* \"#utility.yul\":13289:13295   */\n      dup3\n        /* \"#utility.yul\":13285:13299   */\n      add\n        /* \"#utility.yul\":13278:13333   */\n      mstore\n        /* \"#utility.yul\":13161:13340   */\n      pop\n      jump\t// out\n        /* \"#utility.yul\":13346:13506   */\n    tag_172:\n        /* \"#utility.yul\":13486:13498   */\n      0x4e6f7420666f756e642100000000000000000000000000000000000000000000\n        /* \"#utility.yul\":13482:13483   */\n      0x00\n        /* \"#utility.yul\":13474:13480   */\n      dup3\n        /* \"#utility.yul\":13470:13484   */\n      add\n        /* \"#utility.yul\":13463:13499   */\n      mstore\n        /* \"#utility.yul\":13346:13506   */\n      pop\n      jump\t// out\n        /* \"#utility.yul\":13512:13690   */\n    tag_177:\n        /* \"#utility.yul\":13652:13682   */\n      0x706c65617365207375626d69742074686520636f6d6d69746d656e7400000000\n        /* \"#utility.yul\":13648:13649   */\n      0x00\n        /* \"#utility.yul\":13640:13646   */\n      dup3\n        /* \"#utility.yul\":13636:13650   */\n      add\n        /* \"#utility.yul\":13629:13683   */\n      mstore\n        /* \"#utility.yul\":13512:13690   */\n      pop\n      jump\t// out\n        /* \"#utility.yul\":13696:13874   */\n    tag_182:\n        /* \"#utility.yul\":13836:13866   */\n      0x76616c7565202b2062616c616e6365206d757374203e3d203365746800000000\n        /* \"#utility.yul\":13832:13833   */\n      0x00\n        /* \"#utility.yul\":13824:13830   */\n      dup3\n        /* \"#utility.yul\":13820:13834   */\n      add\n        /* \"#utility.yul\":13813:13867   */\n      mstore\n        /* \"#utility.yul\":13696:13874   */\n      pop\n      jump\t// out\n        /* \"#utility.yul\":13880:14046   */\n    tag_187:\n        /* \"#utility.yul\":14020:14038   */\n      0x7761697420666f7220706c617965724100000000000000000000000000000000\n        /* \"#utility.yul\":14016:14017   */\n      0x00\n        /* \"#utility.yul\":14008:14014   */\n      dup3\n        /* \"#utility.yul\":14004:14018   */\n      add\n        /* \"#utility.yul\":13997:14039   */\n      mstore\n        /* \"#utility.yul\":13880:14046   */\n      pop\n      jump\t// out\n        /* \"#utility.yul\":14052:14174   */\n    tag_119:\n        /* \"#utility.yul\":14125:14149   */\n      tag_267\n        /* \"#utility.yul\":14143:14148   */\n      dup2\n        /* \"#utility.yul\":14125:14149   */\n      tag_136\n      jump\t// in\n    tag_267:\n        /* \"#utility.yul\":14118:14123   */\n      dup2\n        /* \"#utility.yul\":14115:14150   */\n      eq\n        /* \"#utility.yul\":14105:14168   */\n      tag_268\n      jumpi\n        /* \"#utility.yul\":14164:14165   */\n      0x00\n        /* \"#utility.yul\":14161:14162   */\n      dup1\n        /* \"#utility.yul\":14154:14166   */\n      revert\n        /* \"#utility.yul\":14105:14168   */\n    tag_268:\n        /* \"#utility.yul\":14052:14174   */\n      pop\n      jump\t// out\n        /* \"#utility.yul\":14180:14302   */\n    tag_123:\n        /* \"#utility.yul\":14253:14277   */\n      tag_270\n        /* \"#utility.yul\":14271:14276   */\n      dup2\n        /* \"#utility.yul\":14253:14277   */\n      tag_191\n      jump\t// in\n    tag_270:\n        /* \"#utility.yul\":14246:14251   */\n      dup2\n        /* \"#utility.yul\":14243:14278   */\n      eq\n        /* \"#utility.yul\":14233:14296   */\n      tag_271\n      jumpi\n        /* \"#utility.yul\":14292:14293   */\n      0x00\n        /* \"#utility.yul\":14289:14290   */\n      dup1\n        /* \"#utility.yul\":14282:14294   */\n      revert\n        /* \"#utility.yul\":14233:14296   */\n    tag_271:\n        /* \"#utility.yul\":14180:14302   */\n      pop\n      jump\t// out\n\n    auxdata: 0xa26469706673582212208204849c1821e3f24930bf67963150f520cf95fd7dd1d3ef3604b67a5c99e46b64736f6c63430008070033\n}\n",
				"bytecode": {
					"linkReferences": {},
					"object": "6080604052670de0b6b3a7640000600055600060065534801561002157600080fd5b506119e9806100316000396000f3fe6080604052600436106100705760003560e01c80636b2fafa91161004e5780636b2fafa9146100f9578063755b55ad14610136578063d826f88f14610152578063f147c8de1461016957610070565b80631f7b4f301461007557806323fdeeb8146100b25780632717605f146100dd575b600080fd5b34801561008157600080fd5b5061009c600480360381019061009791906112cd565b610180565b6040516100a99190611603565b60405180910390f35b3480156100be57600080fd5b506100c7610891565b6040516100d49190611603565b60405180910390f35b6100f760048036038101906100f291906112a0565b6108d8565b005b34801561010557600080fd5b50610120600480360381019061011b91906112cd565b610bc1565b60405161012d91906114a8565b60405180910390f35b610150600480360381019061014b91906112a0565b610bf1565b005b34801561015e57600080fd5b50610167610eda565b005b34801561017557600080fd5b5061017e61119b565b005b60003373ffffffffffffffffffffffffffffffffffffffff1660026000846040516020016101ae919061148d565b60405160208183030381529060405280519060200120815260200190815260200160002060009054906101000a900473ffffffffffffffffffffffffffffffffffffffff1673ffffffffffffffffffffffffffffffffffffffff1614610249576040517f08c379a000000000000000000000000000000000000000000000000000000000815260040161024090611583565b60405180910390fd5b600073ffffffffffffffffffffffffffffffffffffffff16600460009054906101000a900473ffffffffffffffffffffffffffffffffffffffff1673ffffffffffffffffffffffffffffffffffffffff1614156102db576040517f08c379a00000000000000000000000000000000000000000000000000000000081526004016102d2906115e3565b60405180910390fd5b600073ffffffffffffffffffffffffffffffffffffffff16600560009054906101000a900473ffffffffffffffffffffffffffffffffffffffff1673ffffffffffffffffffffffffffffffffffffffff16141561036d576040517f08c379a0000000000000000000000000000000000000000000000000000000008152600401610364906114e3565b60405180910390fd5b6000600654146103b2576040517f08c379a00000000000000000000000000000000000000000000000000000000081526004016103a990611543565b60405180910390fd5b600060026000846040516020016103c9919061148d565b60405160208183030381529060405280519060200120815260200190815260200160002060006101000a81548173ffffffffffffffffffffffffffffffffffffffff021916908373ffffffffffffffffffffffffffffffffffffffff16021790555081600360003373ffffffffffffffffffffffffffffffffffffffff1673ffffffffffffffffffffffffffffffffffffffff16815260200190815260200160002081905550600060036000600460009054906101000a900473ffffffffffffffffffffffffffffffffffffffff1673ffffffffffffffffffffffffffffffffffffffff1673ffffffffffffffffffffffffffffffffffffffff1681526020019081526020016000205414156104e2576000905061088c565b600060036000600560009054906101000a900473ffffffffffffffffffffffffffffffffffffffff1673ffffffffffffffffffffffffffffffffffffffff1673ffffffffffffffffffffffffffffffffffffffff168152602001908152602001600020541415610555576000905061088c565b600660036000600560009054906101000a900473ffffffffffffffffffffffffffffffffffffffff1673ffffffffffffffffffffffffffffffffffffffff1673ffffffffffffffffffffffffffffffffffffffff1681526020019081526020016000205460036000600460009054906101000a900473ffffffffffffffffffffffffffffffffffffffff1673ffffffffffffffffffffffffffffffffffffffff1673ffffffffffffffffffffffffffffffffffffffff168152602001908152602001600020541860405160200161062c919061148d565b6040516020818303038152906040528051906020012060001c61064f9190611731565b600161065b919061162f565b600681905550600360065411156107815760008054600360065461067f91906116df565b6106899190611685565b90508060016000600460009054906101000a900473ffffffffffffffffffffffffffffffffffffffff1673ffffffffffffffffffffffffffffffffffffffff1673ffffffffffffffffffffffffffffffffffffffff16815260200190815260200160002060008282546106fc91906116df565b925050819055508060016000600560009054906101000a900473ffffffffffffffffffffffffffffffffffffffff1673ffffffffffffffffffffffffffffffffffffffff1673ffffffffffffffffffffffffffffffffffffffff1681526020019081526020016000206000828254610774919061162f565b9250508190555050610886565b600080546006546107929190611685565b90508060016000600460009054906101000a900473ffffffffffffffffffffffffffffffffffffffff1673ffffffffffffffffffffffffffffffffffffffff1673ffffffffffffffffffffffffffffffffffffffff1681526020019081526020016000206000828254610805919061162f565b925050819055508060016000600560009054906101000a900473ffffffffffffffffffffffffffffffffffffffff1673ffffffffffffffffffffffffffffffffffffffff1673ffffffffffffffffffffffffffffffffffffffff168152602001908152602001600020600082825461087d91906116df565b92505081905550505b60065490505b919050565b6000600160003373ffffffffffffffffffffffffffffffffffffffff1673ffffffffffffffffffffffffffffffffffffffff16815260200190815260200160002054905090565b6729a2241af62c0000600160003373ffffffffffffffffffffffffffffffffffffffff1673ffffffffffffffffffffffffffffffffffffffff168152602001908152602001600020543461092c919061162f565b101561096d576040517f08c379a0000000000000000000000000000000000000000000000000000000008152600401610964906115c3565b60405180910390fd5b6000801b8114156109b3576040517f08c379a00000000000000000000000000000000000000000000000000000000081526004016109aa906115a3565b60405180910390fd5b600073ffffffffffffffffffffffffffffffffffffffff16600460009054906101000a900473ffffffffffffffffffffffffffffffffffffffff1673ffffffffffffffffffffffffffffffffffffffff1614610a44576040517f08c379a0000000000000000000000000000000000000000000000000000000008152600401610a3b90611523565b60405180910390fd5b3373ffffffffffffffffffffffffffffffffffffffff16600560009054906101000a900473ffffffffffffffffffffffffffffffffffffffff1673ffffffffffffffffffffffffffffffffffffffff161415610ad5576040517f08c379a0000000000000000000000000000000000000000000000000000000008152600401610acc90611563565b60405180910390fd5b33600460006101000a81548173ffffffffffffffffffffffffffffffffffffffff021916908373ffffffffffffffffffffffffffffffffffffffff160217905550336002600083815260200190815260200160002060006101000a81548173ffffffffffffffffffffffffffffffffffffffff021916908373ffffffffffffffffffffffffffffffffffffffff16021790555034600160003373ffffffffffffffffffffffffffffffffffffffff1673ffffffffffffffffffffffffffffffffffffffff1681526020019081526020016000206000828254610bb7919061162f565b9250508190555050565b600081604051602001610bd4919061148d565b604051602081830303815290604052805190602001209050919050565b6729a2241af62c0000600160003373ffffffffffffffffffffffffffffffffffffffff1673ffffffffffffffffffffffffffffffffffffffff1681526020019081526020016000205434610c45919061162f565b1015610c86576040517f08c379a0000000000000000000000000000000000000000000000000000000008152600401610c7d906115c3565b60405180910390fd5b6000801b811415610ccc576040517f08c379a0000000000000000000000000000000000000000000000000000000008152600401610cc3906115a3565b60405180910390fd5b600073ffffffffffffffffffffffffffffffffffffffff16600560009054906101000a900473ffffffffffffffffffffffffffffffffffffffff1673ffffffffffffffffffffffffffffffffffffffff1614610d5d576040517f08c379a0000000000000000000000000000000000000000000000000000000008152600401610d54906114c3565b60405180910390fd5b3373ffffffffffffffffffffffffffffffffffffffff16600460009054906101000a900473ffffffffffffffffffffffffffffffffffffffff1673ffffffffffffffffffffffffffffffffffffffff161415610dee576040517f08c379a0000000000000000000000000000000000000000000000000000000008152600401610de590611503565b60405180910390fd5b33600560006101000a81548173ffffffffffffffffffffffffffffffffffffffff021916908373ffffffffffffffffffffffffffffffffffffffff160217905550336002600083815260200190815260200160002060006101000a81548173ffffffffffffffffffffffffffffffffffffffff021916908373ffffffffffffffffffffffffffffffffffffffff16021790555034600160003373ffffffffffffffffffffffffffffffffffffffff1673ffffffffffffffffffffffffffffffffffffffff1681526020019081526020016000206000828254610ed0919061162f565b9250508190555050565b600460009054906101000a900473ffffffffffffffffffffffffffffffffffffffff1673ffffffffffffffffffffffffffffffffffffffff163373ffffffffffffffffffffffffffffffffffffffff161415610fde576000600460006101000a81548173ffffffffffffffffffffffffffffffffffffffff021916908373ffffffffffffffffffffffffffffffffffffffff160217905550600060036000600460009054906101000a900473ffffffffffffffffffffffffffffffffffffffff1673ffffffffffffffffffffffffffffffffffffffff1673ffffffffffffffffffffffffffffffffffffffff168152602001908152602001600020819055506110df565b600560009054906101000a900473ffffffffffffffffffffffffffffffffffffffff1673ffffffffffffffffffffffffffffffffffffffff163373ffffffffffffffffffffffffffffffffffffffff1614156110de576000600560006101000a81548173ffffffffffffffffffffffffffffffffffffffff021916908373ffffffffffffffffffffffffffffffffffffffff160217905550600060036000600560009054906101000a900473ffffffffffffffffffffffffffffffffffffffff1673ffffffffffffffffffffffffffffffffffffffff1673ffffffffffffffffffffffffffffffffffffffff168152602001908152602001600020819055505b5b600073ffffffffffffffffffffffffffffffffffffffff16600460009054906101000a900473ffffffffffffffffffffffffffffffffffffffff1673ffffffffffffffffffffffffffffffffffffffff1614801561118b5750600073ffffffffffffffffffffffffffffffffffffffff16600560009054906101000a900473ffffffffffffffffffffffffffffffffffffffff1673ffffffffffffffffffffffffffffffffffffffff16145b156111995760006006819055505b565b6111a3610eda565b6000600160003373ffffffffffffffffffffffffffffffffffffffff1673ffffffffffffffffffffffffffffffffffffffff1681526020019081526020016000205490506000600160003373ffffffffffffffffffffffffffffffffffffffff1673ffffffffffffffffffffffffffffffffffffffff168152602001908152602001600020819055503373ffffffffffffffffffffffffffffffffffffffff166108fc829081150290604051600060405180830381858888f19350505050158015611272573d6000803e3d6000fd5b5050565b60008135905061128581611985565b92915050565b60008135905061129a8161199c565b92915050565b6000602082840312156112b6576112b56117c0565b5b60006112c484828501611276565b91505092915050565b6000602082840312156112e3576112e26117c0565b5b60006112f18482850161128b565b91505092915050565b61130381611713565b82525050565b6000611316600f8361161e565b9150611321826117c5565b602082019050919050565b600061133960108361161e565b9150611344826117ee565b602082019050919050565b600061135c601d8361161e565b915061136782611817565b602082019050919050565b600061137f600f8361161e565b915061138a82611840565b602082019050919050565b60006113a260228361161e565b91506113ad82611869565b604082019050919050565b60006113c5601d8361161e565b91506113d0826118b8565b602082019050919050565b60006113e8600a8361161e565b91506113f3826118e1565b602082019050919050565b600061140b601c8361161e565b91506114168261190a565b602082019050919050565b600061142e601c8361161e565b915061143982611933565b602082019050919050565b600061145160108361161e565b915061145c8261195c565b602082019050919050565b6114708161171d565b82525050565b6114876114828261171d565b611727565b82525050565b60006114998284611476565b60208201915081905092915050565b60006020820190506114bd60008301846112fa565b92915050565b600060208201905081810360008301526114dc81611309565b9050919050565b600060208201905081810360008301526114fc8161132c565b9050919050565b6000602082019050818103600083015261151c8161134f565b9050919050565b6000602082019050818103600083015261153c81611372565b9050919050565b6000602082019050818103600083015261155c81611395565b9050919050565b6000602082019050818103600083015261157c816113b8565b9050919050565b6000602082019050818103600083015261159c816113db565b9050919050565b600060208201905081810360008301526115bc816113fe565b9050919050565b600060208201905081810360008301526115dc81611421565b9050919050565b600060208201905081810360008301526115fc81611444565b9050919050565b60006020820190506116186000830184611467565b92915050565b600082825260208201905092915050565b600061163a8261171d565b91506116458361171d565b9250827fffffffffffffffffffffffffffffffffffffffffffffffffffffffffffffffff0382111561167a57611679611762565b5b828201905092915050565b60006116908261171d565b915061169b8361171d565b9250817fffffffffffffffffffffffffffffffffffffffffffffffffffffffffffffffff04831182151516156116d4576116d3611762565b5b828202905092915050565b60006116ea8261171d565b91506116f58361171d565b92508282101561170857611707611762565b5b828203905092915050565b6000819050919050565b6000819050919050565b6000819050919050565b600061173c8261171d565b91506117478361171d565b92508261175757611756611791565b5b828206905092915050565b7f4e487b7100000000000000000000000000000000000000000000000000000000600052601160045260246000fd5b7f4e487b7100000000000000000000000000000000000000000000000000000000600052601260045260246000fd5b600080fd5b7f422068617320656e746572656420210000000000000000000000000000000000600082015250565b7f7761697420666f7220706c617965724200000000000000000000000000000000600082015250565b7f796f75206861766520656e746572656420617320706c61796572412021000000600082015250565b7f412068617320656e746572656420210000000000000000000000000000000000600082015250565b7f646f6e27742072657065617420756e74696c20616c6c2075736572732072657360008201527f6574000000000000000000000000000000000000000000000000000000000000602082015250565b7f796f75206861766520656e746572656420617320706c61796572422021000000600082015250565b7f4e6f7420666f756e642100000000000000000000000000000000000000000000600082015250565b7f706c65617365207375626d69742074686520636f6d6d69746d656e7400000000600082015250565b7f76616c7565202b2062616c616e6365206d757374203e3d203365746800000000600082015250565b7f7761697420666f7220706c617965724100000000000000000000000000000000600082015250565b61198e81611713565b811461199957600080fd5b50565b6119a58161171d565b81146119b057600080fd5b5056fea26469706673582212208204849c1821e3f24930bf67963150f520cf95fd7dd1d3ef3604b67a5c99e46b64736f6c63430008070033",
					"opcodes": "PUSH1 0x80 PUSH1 0x40 MSTORE PUSH8 0xDE0B6B3A7640000 PUSH1 0x0 SSTORE PUSH1 0x0 PUSH1 0x6 SSTORE CALLVALUE DUP1 ISZERO PUSH2 0x21 JUMPI PUSH1 0x0 DUP1 REVERT JUMPDEST POP PUSH2 0x19E9 DUP1 PUSH2 0x31 PUSH1 0x0 CODECOPY PUSH1 0x0 RETURN INVALID PUSH1 0x80 PUSH1 0x40 MSTORE PUSH1 0x4 CALLDATASIZE LT PUSH2 0x70 JUMPI PUSH1 0x0 CALLDATALOAD PUSH1 0xE0 SHR DUP1 PUSH4 0x6B2FAFA9 GT PUSH2 0x4E JUMPI DUP1 PUSH4 0x6B2FAFA9 EQ PUSH2 0xF9 JUMPI DUP1 PUSH4 0x755B55AD EQ PUSH2 0x136 JUMPI DUP1 PUSH4 0xD826F88F EQ PUSH2 0x152 JUMPI DUP1 PUSH4 0xF147C8DE EQ PUSH2 0x169 JUMPI PUSH2 0x70 JUMP JUMPDEST DUP1 PUSH4 0x1F7B4F30 EQ PUSH2 0x75 JUMPI DUP1 PUSH4 0x23FDEEB8 EQ PUSH2 0xB2 JUMPI DUP1 PUSH4 0x2717605F EQ PUSH2 0xDD JUMPI JUMPDEST PUSH1 0x0 DUP1 REVERT JUMPDEST CALLVALUE DUP1 ISZERO PUSH2 0x81 JUMPI PUSH1 0x0 DUP1 REVERT JUMPDEST POP PUSH2 0x9C PUSH1 0x4 DUP1 CALLDATASIZE SUB DUP2 ADD SWAP1 PUSH2 0x97 SWAP2 SWAP1 PUSH2 0x12CD JUMP JUMPDEST PUSH2 0x180 JUMP JUMPDEST PUSH1 0x40 MLOAD PUSH2 0xA9 SWAP2 SWAP1 PUSH2 0x1603 JUMP JUMPDEST PUSH1 0x40 MLOAD DUP1 SWAP2 SUB SWAP1 RETURN JUMPDEST CALLVALUE DUP1 ISZERO PUSH2 0xBE JUMPI PUSH1 0x0 DUP1 REVERT JUMPDEST POP PUSH2 0xC7 PUSH2 0x891 JUMP JUMPDEST PUSH1 0x40 MLOAD PUSH2 0xD4 SWAP2 SWAP1 PUSH2 0x1603 JUMP JUMPDEST PUSH1 0x40 MLOAD DUP1 SWAP2 SUB SWAP1 RETURN JUMPDEST PUSH2 0xF7 PUSH1 0x4 DUP1 CALLDATASIZE SUB DUP2 ADD SWAP1 PUSH2 0xF2 SWAP2 SWAP1 PUSH2 0x12A0 JUMP JUMPDEST PUSH2 0x8D8 JUMP JUMPDEST STOP JUMPDEST CALLVALUE DUP1 ISZERO PUSH2 0x105 JUMPI PUSH1 0x0 DUP1 REVERT JUMPDEST POP PUSH2 0x120 PUSH1 0x4 DUP1 CALLDATASIZE SUB DUP2 ADD SWAP1 PUSH2 0x11B SWAP2 SWAP1 PUSH2 0x12CD JUMP JUMPDEST PUSH2 0xBC1 JUMP JUMPDEST PUSH1 0x40 MLOAD PUSH2 0x12D SWAP2 SWAP1 PUSH2 0x14A8 JUMP JUMPDEST PUSH1 0x40 MLOAD DUP1 SWAP2 SUB SWAP1 RETURN JUMPDEST PUSH2 0x150 PUSH1 0x4 DUP1 CALLDATASIZE SUB DUP2 ADD SWAP1 PUSH2 0x14B SWAP2 SWAP1 PUSH2 0x12A0 JUMP JUMPDEST PUSH2 0xBF1 JUMP JUMPDEST STOP JUMPDEST CALLVALUE DUP1 ISZERO PUSH2 0x15E JUMPI PUSH1 0x0 DUP1 REVERT JUMPDEST POP PUSH2 0x167 PUSH2 0xEDA JUMP JUMPDEST STOP JUMPDEST CALLVALUE DUP1 ISZERO PUSH2 0x175 JUMPI PUSH1 0x0 DUP1 REVERT JUMPDEST POP PUSH2 0x17E PUSH2 0x119B JUMP JUMPDEST STOP JUMPDEST PUSH1 0x0 CALLER PUSH20 0xFFFFFFFFFFFFFFFFFFFFFFFFFFFFFFFFFFFFFFFF AND PUSH1 0x2 PUSH1 0x0 DUP5 PUSH1 0x40 MLOAD PUSH1 0x20 ADD PUSH2 0x1AE SWAP2 SWAP1 PUSH2 0x148D JUMP JUMPDEST PUSH1 0x40 MLOAD PUSH1 0x20 DUP2 DUP4 SUB SUB DUP2 MSTORE SWAP1 PUSH1 0x40 MSTORE DUP1 MLOAD SWAP1 PUSH1 0x20 ADD KECCAK256 DUP2 MSTORE PUSH1 0x20 ADD SWAP1 DUP2 MSTORE PUSH1 0x20 ADD PUSH1 0x0 KECCAK256 PUSH1 0x0 SWAP1 SLOAD SWAP1 PUSH2 0x100 EXP SWAP1 DIV PUSH20 0xFFFFFFFFFFFFFFFFFFFFFFFFFFFFFFFFFFFFFFFF AND PUSH20 0xFFFFFFFFFFFFFFFFFFFFFFFFFFFFFFFFFFFFFFFF AND EQ PUSH2 0x249 JUMPI PUSH1 0x40 MLOAD PUSH32 0x8C379A000000000000000000000000000000000000000000000000000000000 DUP2 MSTORE PUSH1 0x4 ADD PUSH2 0x240 SWAP1 PUSH2 0x1583 JUMP JUMPDEST PUSH1 0x40 MLOAD DUP1 SWAP2 SUB SWAP1 REVERT JUMPDEST PUSH1 0x0 PUSH20 0xFFFFFFFFFFFFFFFFFFFFFFFFFFFFFFFFFFFFFFFF AND PUSH1 0x4 PUSH1 0x0 SWAP1 SLOAD SWAP1 PUSH2 0x100 EXP SWAP1 DIV PUSH20 0xFFFFFFFFFFFFFFFFFFFFFFFFFFFFFFFFFFFFFFFF AND PUSH20 0xFFFFFFFFFFFFFFFFFFFFFFFFFFFFFFFFFFFFFFFF AND EQ ISZERO PUSH2 0x2DB JUMPI PUSH1 0x40 MLOAD PUSH32 0x8C379A000000000000000000000000000000000000000000000000000000000 DUP2 MSTORE PUSH1 0x4 ADD PUSH2 0x2D2 SWAP1 PUSH2 0x15E3 JUMP JUMPDEST PUSH1 0x40 MLOAD DUP1 SWAP2 SUB SWAP1 REVERT JUMPDEST PUSH1 0x0 PUSH20 0xFFFFFFFFFFFFFFFFFFFFFFFFFFFFFFFFFFFFFFFF AND PUSH1 0x5 PUSH1 0x0 SWAP1 SLOAD SWAP1 PUSH2 0x100 EXP SWAP1 DIV PUSH20 0xFFFFFFFFFFFFFFFFFFFFFFFFFFFFFFFFFFFFFFFF AND PUSH20 0xFFFFFFFFFFFFFFFFFFFFFFFFFFFFFFFFFFFFFFFF AND EQ ISZERO PUSH2 0x36D JUMPI PUSH1 0x40 MLOAD PUSH32 0x8C379A000000000000000000000000000000000000000000000000000000000 DUP2 MSTORE PUSH1 0x4 ADD PUSH2 0x364 SWAP1 PUSH2 0x14E3 JUMP JUMPDEST PUSH1 0x40 MLOAD DUP1 SWAP2 SUB SWAP1 REVERT JUMPDEST PUSH1 0x0 PUSH1 0x6 SLOAD EQ PUSH2 0x3B2 JUMPI PUSH1 0x40 MLOAD PUSH32 0x8C379A000000000000000000000000000000000000000000000000000000000 DUP2 MSTORE PUSH1 0x4 ADD PUSH2 0x3A9 SWAP1 PUSH2 0x1543 JUMP JUMPDEST PUSH1 0x40 MLOAD DUP1 SWAP2 SUB SWAP1 REVERT JUMPDEST PUSH1 0x0 PUSH1 0x2 PUSH1 0x0 DUP5 PUSH1 0x40 MLOAD PUSH1 0x20 ADD PUSH2 0x3C9 SWAP2 SWAP1 PUSH2 0x148D JUMP JUMPDEST PUSH1 0x40 MLOAD PUSH1 0x20 DUP2 DUP4 SUB SUB DUP2 MSTORE SWAP1 PUSH1 0x40 MSTORE DUP1 MLOAD SWAP1 PUSH1 0x20 ADD KECCAK256 DUP2 MSTORE PUSH1 0x20 ADD SWAP1 DUP2 MSTORE PUSH1 0x20 ADD PUSH1 0x0 KECCAK256 PUSH1 0x0 PUSH2 0x100 EXP DUP2 SLOAD DUP2 PUSH20 0xFFFFFFFFFFFFFFFFFFFFFFFFFFFFFFFFFFFFFFFF MUL NOT AND SWAP1 DUP4 PUSH20 0xFFFFFFFFFFFFFFFFFFFFFFFFFFFFFFFFFFFFFFFF AND MUL OR SWAP1 SSTORE POP DUP2 PUSH1 0x3 PUSH1 0x0 CALLER PUSH20 0xFFFFFFFFFFFFFFFFFFFFFFFFFFFFFFFFFFFFFFFF AND PUSH20 0xFFFFFFFFFFFFFFFFFFFFFFFFFFFFFFFFFFFFFFFF AND DUP2 MSTORE PUSH1 0x20 ADD SWAP1 DUP2 MSTORE PUSH1 0x20 ADD PUSH1 0x0 KECCAK256 DUP2 SWAP1 SSTORE POP PUSH1 0x0 PUSH1 0x3 PUSH1 0x0 PUSH1 0x4 PUSH1 0x0 SWAP1 SLOAD SWAP1 PUSH2 0x100 EXP SWAP1 DIV PUSH20 0xFFFFFFFFFFFFFFFFFFFFFFFFFFFFFFFFFFFFFFFF AND PUSH20 0xFFFFFFFFFFFFFFFFFFFFFFFFFFFFFFFFFFFFFFFF AND PUSH20 0xFFFFFFFFFFFFFFFFFFFFFFFFFFFFFFFFFFFFFFFF AND DUP2 MSTORE PUSH1 0x20 ADD SWAP1 DUP2 MSTORE PUSH1 0x20 ADD PUSH1 0x0 KECCAK256 SLOAD EQ ISZERO PUSH2 0x4E2 JUMPI PUSH1 0x0 SWAP1 POP PUSH2 0x88C JUMP JUMPDEST PUSH1 0x0 PUSH1 0x3 PUSH1 0x0 PUSH1 0x5 PUSH1 0x0 SWAP1 SLOAD SWAP1 PUSH2 0x100 EXP SWAP1 DIV PUSH20 0xFFFFFFFFFFFFFFFFFFFFFFFFFFFFFFFFFFFFFFFF AND PUSH20 0xFFFFFFFFFFFFFFFFFFFFFFFFFFFFFFFFFFFFFFFF AND PUSH20 0xFFFFFFFFFFFFFFFFFFFFFFFFFFFFFFFFFFFFFFFF AND DUP2 MSTORE PUSH1 0x20 ADD SWAP1 DUP2 MSTORE PUSH1 0x20 ADD PUSH1 0x0 KECCAK256 SLOAD EQ ISZERO PUSH2 0x555 JUMPI PUSH1 0x0 SWAP1 POP PUSH2 0x88C JUMP JUMPDEST PUSH1 0x6 PUSH1 0x3 PUSH1 0x0 PUSH1 0x5 PUSH1 0x0 SWAP1 SLOAD SWAP1 PUSH2 0x100 EXP SWAP1 DIV PUSH20 0xFFFFFFFFFFFFFFFFFFFFFFFFFFFFFFFFFFFFFFFF AND PUSH20 0xFFFFFFFFFFFFFFFFFFFFFFFFFFFFFFFFFFFFFFFF AND PUSH20 0xFFFFFFFFFFFFFFFFFFFFFFFFFFFFFFFFFFFFFFFF AND DUP2 MSTORE PUSH1 0x20 ADD SWAP1 DUP2 MSTORE PUSH1 0x20 ADD PUSH1 0x0 KECCAK256 SLOAD PUSH1 0x3 PUSH1 0x0 PUSH1 0x4 PUSH1 0x0 SWAP1 SLOAD SWAP1 PUSH2 0x100 EXP SWAP1 DIV PUSH20 0xFFFFFFFFFFFFFFFFFFFFFFFFFFFFFFFFFFFFFFFF AND PUSH20 0xFFFFFFFFFFFFFFFFFFFFFFFFFFFFFFFFFFFFFFFF AND PUSH20 0xFFFFFFFFFFFFFFFFFFFFFFFFFFFFFFFFFFFFFFFF AND DUP2 MSTORE PUSH1 0x20 ADD SWAP1 DUP2 MSTORE PUSH1 0x20 ADD PUSH1 0x0 KECCAK256 SLOAD XOR PUSH1 0x40 MLOAD PUSH1 0x20 ADD PUSH2 0x62C SWAP2 SWAP1 PUSH2 0x148D JUMP JUMPDEST PUSH1 0x40 MLOAD PUSH1 0x20 DUP2 DUP4 SUB SUB DUP2 MSTORE SWAP1 PUSH1 0x40 MSTORE DUP1 MLOAD SWAP1 PUSH1 0x20 ADD KECCAK256 PUSH1 0x0 SHR PUSH2 0x64F SWAP2 SWAP1 PUSH2 0x1731 JUMP JUMPDEST PUSH1 0x1 PUSH2 0x65B SWAP2 SWAP1 PUSH2 0x162F JUMP JUMPDEST PUSH1 0x6 DUP2 SWAP1 SSTORE POP PUSH1 0x3 PUSH1 0x6 SLOAD GT ISZERO PUSH2 0x781 JUMPI PUSH1 0x0 DUP1 SLOAD PUSH1 0x3 PUSH1 0x6 SLOAD PUSH2 0x67F SWAP2 SWAP1 PUSH2 0x16DF JUMP JUMPDEST PUSH2 0x689 SWAP2 SWAP1 PUSH2 0x1685 JUMP JUMPDEST SWAP1 POP DUP1 PUSH1 0x1 PUSH1 0x0 PUSH1 0x4 PUSH1 0x0 SWAP1 SLOAD SWAP1 PUSH2 0x100 EXP SWAP1 DIV PUSH20 0xFFFFFFFFFFFFFFFFFFFFFFFFFFFFFFFFFFFFFFFF AND PUSH20 0xFFFFFFFFFFFFFFFFFFFFFFFFFFFFFFFFFFFFFFFF AND PUSH20 0xFFFFFFFFFFFFFFFFFFFFFFFFFFFFFFFFFFFFFFFF AND DUP2 MSTORE PUSH1 0x20 ADD SWAP1 DUP2 MSTORE PUSH1 0x20 ADD PUSH1 0x0 KECCAK256 PUSH1 0x0 DUP3 DUP3 SLOAD PUSH2 0x6FC SWAP2 SWAP1 PUSH2 0x16DF JUMP JUMPDEST SWAP3 POP POP DUP2 SWAP1 SSTORE POP DUP1 PUSH1 0x1 PUSH1 0x0 PUSH1 0x5 PUSH1 0x0 SWAP1 SLOAD SWAP1 PUSH2 0x100 EXP SWAP1 DIV PUSH20 0xFFFFFFFFFFFFFFFFFFFFFFFFFFFFFFFFFFFFFFFF AND PUSH20 0xFFFFFFFFFFFFFFFFFFFFFFFFFFFFFFFFFFFFFFFF AND PUSH20 0xFFFFFFFFFFFFFFFFFFFFFFFFFFFFFFFFFFFFFFFF AND DUP2 MSTORE PUSH1 0x20 ADD SWAP1 DUP2 MSTORE PUSH1 0x20 ADD PUSH1 0x0 KECCAK256 PUSH1 0x0 DUP3 DUP3 SLOAD PUSH2 0x774 SWAP2 SWAP1 PUSH2 0x162F JUMP JUMPDEST SWAP3 POP POP DUP2 SWAP1 SSTORE POP POP PUSH2 0x886 JUMP JUMPDEST PUSH1 0x0 DUP1 SLOAD PUSH1 0x6 SLOAD PUSH2 0x792 SWAP2 SWAP1 PUSH2 0x1685 JUMP JUMPDEST SWAP1 POP DUP1 PUSH1 0x1 PUSH1 0x0 PUSH1 0x4 PUSH1 0x0 SWAP1 SLOAD SWAP1 PUSH2 0x100 EXP SWAP1 DIV PUSH20 0xFFFFFFFFFFFFFFFFFFFFFFFFFFFFFFFFFFFFFFFF AND PUSH20 0xFFFFFFFFFFFFFFFFFFFFFFFFFFFFFFFFFFFFFFFF AND PUSH20 0xFFFFFFFFFFFFFFFFFFFFFFFFFFFFFFFFFFFFFFFF AND DUP2 MSTORE PUSH1 0x20 ADD SWAP1 DUP2 MSTORE PUSH1 0x20 ADD PUSH1 0x0 KECCAK256 PUSH1 0x0 DUP3 DUP3 SLOAD PUSH2 0x805 SWAP2 SWAP1 PUSH2 0x162F JUMP JUMPDEST SWAP3 POP POP DUP2 SWAP1 SSTORE POP DUP1 PUSH1 0x1 PUSH1 0x0 PUSH1 0x5 PUSH1 0x0 SWAP1 SLOAD SWAP1 PUSH2 0x100 EXP SWAP1 DIV PUSH20 0xFFFFFFFFFFFFFFFFFFFFFFFFFFFFFFFFFFFFFFFF AND PUSH20 0xFFFFFFFFFFFFFFFFFFFFFFFFFFFFFFFFFFFFFFFF AND PUSH20 0xFFFFFFFFFFFFFFFFFFFFFFFFFFFFFFFFFFFFFFFF AND DUP2 MSTORE PUSH1 0x20 ADD SWAP1 DUP2 MSTORE PUSH1 0x20 ADD PUSH1 0x0 KECCAK256 PUSH1 0x0 DUP3 DUP3 SLOAD PUSH2 0x87D SWAP2 SWAP1 PUSH2 0x16DF JUMP JUMPDEST SWAP3 POP POP DUP2 SWAP1 SSTORE POP POP JUMPDEST PUSH1 0x6 SLOAD SWAP1 POP JUMPDEST SWAP2 SWAP1 POP JUMP JUMPDEST PUSH1 0x0 PUSH1 0x1 PUSH1 0x0 CALLER PUSH20 0xFFFFFFFFFFFFFFFFFFFFFFFFFFFFFFFFFFFFFFFF AND PUSH20 0xFFFFFFFFFFFFFFFFFFFFFFFFFFFFFFFFFFFFFFFF AND DUP2 MSTORE PUSH1 0x20 ADD SWAP1 DUP2 MSTORE PUSH1 0x20 ADD PUSH1 0x0 KECCAK256 SLOAD SWAP1 POP SWAP1 JUMP JUMPDEST PUSH8 0x29A2241AF62C0000 PUSH1 0x1 PUSH1 0x0 CALLER PUSH20 0xFFFFFFFFFFFFFFFFFFFFFFFFFFFFFFFFFFFFFFFF AND PUSH20 0xFFFFFFFFFFFFFFFFFFFFFFFFFFFFFFFFFFFFFFFF AND DUP2 MSTORE PUSH1 0x20 ADD SWAP1 DUP2 MSTORE PUSH1 0x20 ADD PUSH1 0x0 KECCAK256 SLOAD CALLVALUE PUSH2 0x92C SWAP2 SWAP1 PUSH2 0x162F JUMP JUMPDEST LT ISZERO PUSH2 0x96D JUMPI PUSH1 0x40 MLOAD PUSH32 0x8C379A000000000000000000000000000000000000000000000000000000000 DUP2 MSTORE PUSH1 0x4 ADD PUSH2 0x964 SWAP1 PUSH2 0x15C3 JUMP JUMPDEST PUSH1 0x40 MLOAD DUP1 SWAP2 SUB SWAP1 REVERT JUMPDEST PUSH1 0x0 DUP1 SHL DUP2 EQ ISZERO PUSH2 0x9B3 JUMPI PUSH1 0x40 MLOAD PUSH32 0x8C379A000000000000000000000000000000000000000000000000000000000 DUP2 MSTORE PUSH1 0x4 ADD PUSH2 0x9AA SWAP1 PUSH2 0x15A3 JUMP JUMPDEST PUSH1 0x40 MLOAD DUP1 SWAP2 SUB SWAP1 REVERT JUMPDEST PUSH1 0x0 PUSH20 0xFFFFFFFFFFFFFFFFFFFFFFFFFFFFFFFFFFFFFFFF AND PUSH1 0x4 PUSH1 0x0 SWAP1 SLOAD SWAP1 PUSH2 0x100 EXP SWAP1 DIV PUSH20 0xFFFFFFFFFFFFFFFFFFFFFFFFFFFFFFFFFFFFFFFF AND PUSH20 0xFFFFFFFFFFFFFFFFFFFFFFFFFFFFFFFFFFFFFFFF AND EQ PUSH2 0xA44 JUMPI PUSH1 0x40 MLOAD PUSH32 0x8C379A000000000000000000000000000000000000000000000000000000000 DUP2 MSTORE PUSH1 0x4 ADD PUSH2 0xA3B SWAP1 PUSH2 0x1523 JUMP JUMPDEST PUSH1 0x40 MLOAD DUP1 SWAP2 SUB SWAP1 REVERT JUMPDEST CALLER PUSH20 0xFFFFFFFFFFFFFFFFFFFFFFFFFFFFFFFFFFFFFFFF AND PUSH1 0x5 PUSH1 0x0 SWAP1 SLOAD SWAP1 PUSH2 0x100 EXP SWAP1 DIV PUSH20 0xFFFFFFFFFFFFFFFFFFFFFFFFFFFFFFFFFFFFFFFF AND PUSH20 0xFFFFFFFFFFFFFFFFFFFFFFFFFFFFFFFFFFFFFFFF AND EQ ISZERO PUSH2 0xAD5 JUMPI PUSH1 0x40 MLOAD PUSH32 0x8C379A000000000000000000000000000000000000000000000000000000000 DUP2 MSTORE PUSH1 0x4 ADD PUSH2 0xACC SWAP1 PUSH2 0x1563 JUMP JUMPDEST PUSH1 0x40 MLOAD DUP1 SWAP2 SUB SWAP1 REVERT JUMPDEST CALLER PUSH1 0x4 PUSH1 0x0 PUSH2 0x100 EXP DUP2 SLOAD DUP2 PUSH20 0xFFFFFFFFFFFFFFFFFFFFFFFFFFFFFFFFFFFFFFFF MUL NOT AND SWAP1 DUP4 PUSH20 0xFFFFFFFFFFFFFFFFFFFFFFFFFFFFFFFFFFFFFFFF AND MUL OR SWAP1 SSTORE POP CALLER PUSH1 0x2 PUSH1 0x0 DUP4 DUP2 MSTORE PUSH1 0x20 ADD SWAP1 DUP2 MSTORE PUSH1 0x20 ADD PUSH1 0x0 KECCAK256 PUSH1 0x0 PUSH2 0x100 EXP DUP2 SLOAD DUP2 PUSH20 0xFFFFFFFFFFFFFFFFFFFFFFFFFFFFFFFFFFFFFFFF MUL NOT AND SWAP1 DUP4 PUSH20 0xFFFFFFFFFFFFFFFFFFFFFFFFFFFFFFFFFFFFFFFF AND MUL OR SWAP1 SSTORE POP CALLVALUE PUSH1 0x1 PUSH1 0x0 CALLER PUSH20 0xFFFFFFFFFFFFFFFFFFFFFFFFFFFFFFFFFFFFFFFF AND PUSH20 0xFFFFFFFFFFFFFFFFFFFFFFFFFFFFFFFFFFFFFFFF AND DUP2 MSTORE PUSH1 0x20 ADD SWAP1 DUP2 MSTORE PUSH1 0x20 ADD PUSH1 0x0 KECCAK256 PUSH1 0x0 DUP3 DUP3 SLOAD PUSH2 0xBB7 SWAP2 SWAP1 PUSH2 0x162F JUMP JUMPDEST SWAP3 POP POP DUP2 SWAP1 SSTORE POP POP JUMP JUMPDEST PUSH1 0x0 DUP2 PUSH1 0x40 MLOAD PUSH1 0x20 ADD PUSH2 0xBD4 SWAP2 SWAP1 PUSH2 0x148D JUMP JUMPDEST PUSH1 0x40 MLOAD PUSH1 0x20 DUP2 DUP4 SUB SUB DUP2 MSTORE SWAP1 PUSH1 0x40 MSTORE DUP1 MLOAD SWAP1 PUSH1 0x20 ADD KECCAK256 SWAP1 POP SWAP2 SWAP1 POP JUMP JUMPDEST PUSH8 0x29A2241AF62C0000 PUSH1 0x1 PUSH1 0x0 CALLER PUSH20 0xFFFFFFFFFFFFFFFFFFFFFFFFFFFFFFFFFFFFFFFF AND PUSH20 0xFFFFFFFFFFFFFFFFFFFFFFFFFFFFFFFFFFFFFFFF AND DUP2 MSTORE PUSH1 0x20 ADD SWAP1 DUP2 MSTORE PUSH1 0x20 ADD PUSH1 0x0 KECCAK256 SLOAD CALLVALUE PUSH2 0xC45 SWAP2 SWAP1 PUSH2 0x162F JUMP JUMPDEST LT ISZERO PUSH2 0xC86 JUMPI PUSH1 0x40 MLOAD PUSH32 0x8C379A000000000000000000000000000000000000000000000000000000000 DUP2 MSTORE PUSH1 0x4 ADD PUSH2 0xC7D SWAP1 PUSH2 0x15C3 JUMP JUMPDEST PUSH1 0x40 MLOAD DUP1 SWAP2 SUB SWAP1 REVERT JUMPDEST PUSH1 0x0 DUP1 SHL DUP2 EQ ISZERO PUSH2 0xCCC JUMPI PUSH1 0x40 MLOAD PUSH32 0x8C379A000000000000000000000000000000000000000000000000000000000 DUP2 MSTORE PUSH1 0x4 ADD PUSH2 0xCC3 SWAP1 PUSH2 0x15A3 JUMP JUMPDEST PUSH1 0x40 MLOAD DUP1 SWAP2 SUB SWAP1 REVERT JUMPDEST PUSH1 0x0 PUSH20 0xFFFFFFFFFFFFFFFFFFFFFFFFFFFFFFFFFFFFFFFF AND PUSH1 0x5 PUSH1 0x0 SWAP1 SLOAD SWAP1 PUSH2 0x100 EXP SWAP1 DIV PUSH20 0xFFFFFFFFFFFFFFFFFFFFFFFFFFFFFFFFFFFFFFFF AND PUSH20 0xFFFFFFFFFFFFFFFFFFFFFFFFFFFFFFFFFFFFFFFF AND EQ PUSH2 0xD5D JUMPI PUSH1 0x40 MLOAD PUSH32 0x8C379A000000000000000000000000000000000000000000000000000000000 DUP2 MSTORE PUSH1 0x4 ADD PUSH2 0xD54 SWAP1 PUSH2 0x14C3 JUMP JUMPDEST PUSH1 0x40 MLOAD DUP1 SWAP2 SUB SWAP1 REVERT JUMPDEST CALLER PUSH20 0xFFFFFFFFFFFFFFFFFFFFFFFFFFFFFFFFFFFFFFFF AND PUSH1 0x4 PUSH1 0x0 SWAP1 SLOAD SWAP1 PUSH2 0x100 EXP SWAP1 DIV PUSH20 0xFFFFFFFFFFFFFFFFFFFFFFFFFFFFFFFFFFFFFFFF AND PUSH20 0xFFFFFFFFFFFFFFFFFFFFFFFFFFFFFFFFFFFFFFFF AND EQ ISZERO PUSH2 0xDEE JUMPI PUSH1 0x40 MLOAD PUSH32 0x8C379A000000000000000000000000000000000000000000000000000000000 DUP2 MSTORE PUSH1 0x4 ADD PUSH2 0xDE5 SWAP1 PUSH2 0x1503 JUMP JUMPDEST PUSH1 0x40 MLOAD DUP1 SWAP2 SUB SWAP1 REVERT JUMPDEST CALLER PUSH1 0x5 PUSH1 0x0 PUSH2 0x100 EXP DUP2 SLOAD DUP2 PUSH20 0xFFFFFFFFFFFFFFFFFFFFFFFFFFFFFFFFFFFFFFFF MUL NOT AND SWAP1 DUP4 PUSH20 0xFFFFFFFFFFFFFFFFFFFFFFFFFFFFFFFFFFFFFFFF AND MUL OR SWAP1 SSTORE POP CALLER PUSH1 0x2 PUSH1 0x0 DUP4 DUP2 MSTORE PUSH1 0x20 ADD SWAP1 DUP2 MSTORE PUSH1 0x20 ADD PUSH1 0x0 KECCAK256 PUSH1 0x0 PUSH2 0x100 EXP DUP2 SLOAD DUP2 PUSH20 0xFFFFFFFFFFFFFFFFFFFFFFFFFFFFFFFFFFFFFFFF MUL NOT AND SWAP1 DUP4 PUSH20 0xFFFFFFFFFFFFFFFFFFFFFFFFFFFFFFFFFFFFFFFF AND MUL OR SWAP1 SSTORE POP CALLVALUE PUSH1 0x1 PUSH1 0x0 CALLER PUSH20 0xFFFFFFFFFFFFFFFFFFFFFFFFFFFFFFFFFFFFFFFF AND PUSH20 0xFFFFFFFFFFFFFFFFFFFFFFFFFFFFFFFFFFFFFFFF AND DUP2 MSTORE PUSH1 0x20 ADD SWAP1 DUP2 MSTORE PUSH1 0x20 ADD PUSH1 0x0 KECCAK256 PUSH1 0x0 DUP3 DUP3 SLOAD PUSH2 0xED0 SWAP2 SWAP1 PUSH2 0x162F JUMP JUMPDEST SWAP3 POP POP DUP2 SWAP1 SSTORE POP POP JUMP JUMPDEST PUSH1 0x4 PUSH1 0x0 SWAP1 SLOAD SWAP1 PUSH2 0x100 EXP SWAP1 DIV PUSH20 0xFFFFFFFFFFFFFFFFFFFFFFFFFFFFFFFFFFFFFFFF AND PUSH20 0xFFFFFFFFFFFFFFFFFFFFFFFFFFFFFFFFFFFFFFFF AND CALLER PUSH20 0xFFFFFFFFFFFFFFFFFFFFFFFFFFFFFFFFFFFFFFFF AND EQ ISZERO PUSH2 0xFDE JUMPI PUSH1 0x0 PUSH1 0x4 PUSH1 0x0 PUSH2 0x100 EXP DUP2 SLOAD DUP2 PUSH20 0xFFFFFFFFFFFFFFFFFFFFFFFFFFFFFFFFFFFFFFFF MUL NOT AND SWAP1 DUP4 PUSH20 0xFFFFFFFFFFFFFFFFFFFFFFFFFFFFFFFFFFFFFFFF AND MUL OR SWAP1 SSTORE POP PUSH1 0x0 PUSH1 0x3 PUSH1 0x0 PUSH1 0x4 PUSH1 0x0 SWAP1 SLOAD SWAP1 PUSH2 0x100 EXP SWAP1 DIV PUSH20 0xFFFFFFFFFFFFFFFFFFFFFFFFFFFFFFFFFFFFFFFF AND PUSH20 0xFFFFFFFFFFFFFFFFFFFFFFFFFFFFFFFFFFFFFFFF AND PUSH20 0xFFFFFFFFFFFFFFFFFFFFFFFFFFFFFFFFFFFFFFFF AND DUP2 MSTORE PUSH1 0x20 ADD SWAP1 DUP2 MSTORE PUSH1 0x20 ADD PUSH1 0x0 KECCAK256 DUP2 SWAP1 SSTORE POP PUSH2 0x10DF JUMP JUMPDEST PUSH1 0x5 PUSH1 0x0 SWAP1 SLOAD SWAP1 PUSH2 0x100 EXP SWAP1 DIV PUSH20 0xFFFFFFFFFFFFFFFFFFFFFFFFFFFFFFFFFFFFFFFF AND PUSH20 0xFFFFFFFFFFFFFFFFFFFFFFFFFFFFFFFFFFFFFFFF AND CALLER PUSH20 0xFFFFFFFFFFFFFFFFFFFFFFFFFFFFFFFFFFFFFFFF AND EQ ISZERO PUSH2 0x10DE JUMPI PUSH1 0x0 PUSH1 0x5 PUSH1 0x0 PUSH2 0x100 EXP DUP2 SLOAD DUP2 PUSH20 0xFFFFFFFFFFFFFFFFFFFFFFFFFFFFFFFFFFFFFFFF MUL NOT AND SWAP1 DUP4 PUSH20 0xFFFFFFFFFFFFFFFFFFFFFFFFFFFFFFFFFFFFFFFF AND MUL OR SWAP1 SSTORE POP PUSH1 0x0 PUSH1 0x3 PUSH1 0x0 PUSH1 0x5 PUSH1 0x0 SWAP1 SLOAD SWAP1 PUSH2 0x100 EXP SWAP1 DIV PUSH20 0xFFFFFFFFFFFFFFFFFFFFFFFFFFFFFFFFFFFFFFFF AND PUSH20 0xFFFFFFFFFFFFFFFFFFFFFFFFFFFFFFFFFFFFFFFF AND PUSH20 0xFFFFFFFFFFFFFFFFFFFFFFFFFFFFFFFFFFFFFFFF AND DUP2 MSTORE PUSH1 0x20 ADD SWAP1 DUP2 MSTORE PUSH1 0x20 ADD PUSH1 0x0 KECCAK256 DUP2 SWAP1 SSTORE POP JUMPDEST JUMPDEST PUSH1 0x0 PUSH20 0xFFFFFFFFFFFFFFFFFFFFFFFFFFFFFFFFFFFFFFFF AND PUSH1 0x4 PUSH1 0x0 SWAP1 SLOAD SWAP1 PUSH2 0x100 EXP SWAP1 DIV PUSH20 0xFFFFFFFFFFFFFFFFFFFFFFFFFFFFFFFFFFFFFFFF AND PUSH20 0xFFFFFFFFFFFFFFFFFFFFFFFFFFFFFFFFFFFFFFFF AND EQ DUP1 ISZERO PUSH2 0x118B JUMPI POP PUSH1 0x0 PUSH20 0xFFFFFFFFFFFFFFFFFFFFFFFFFFFFFFFFFFFFFFFF AND PUSH1 0x5 PUSH1 0x0 SWAP1 SLOAD SWAP1 PUSH2 0x100 EXP SWAP1 DIV PUSH20 0xFFFFFFFFFFFFFFFFFFFFFFFFFFFFFFFFFFFFFFFF AND PUSH20 0xFFFFFFFFFFFFFFFFFFFFFFFFFFFFFFFFFFFFFFFF AND EQ JUMPDEST ISZERO PUSH2 0x1199 JUMPI PUSH1 0x0 PUSH1 0x6 DUP2 SWAP1 SSTORE POP JUMPDEST JUMP JUMPDEST PUSH2 0x11A3 PUSH2 0xEDA JUMP JUMPDEST PUSH1 0x0 PUSH1 0x1 PUSH1 0x0 CALLER PUSH20 0xFFFFFFFFFFFFFFFFFFFFFFFFFFFFFFFFFFFFFFFF AND PUSH20 0xFFFFFFFFFFFFFFFFFFFFFFFFFFFFFFFFFFFFFFFF AND DUP2 MSTORE PUSH1 0x20 ADD SWAP1 DUP2 MSTORE PUSH1 0x20 ADD PUSH1 0x0 KECCAK256 SLOAD SWAP1 POP PUSH1 0x0 PUSH1 0x1 PUSH1 0x0 CALLER PUSH20 0xFFFFFFFFFFFFFFFFFFFFFFFFFFFFFFFFFFFFFFFF AND PUSH20 0xFFFFFFFFFFFFFFFFFFFFFFFFFFFFFFFFFFFFFFFF AND DUP2 MSTORE PUSH1 0x20 ADD SWAP1 DUP2 MSTORE PUSH1 0x20 ADD PUSH1 0x0 KECCAK256 DUP2 SWAP1 SSTORE POP CALLER PUSH20 0xFFFFFFFFFFFFFFFFFFFFFFFFFFFFFFFFFFFFFFFF AND PUSH2 0x8FC DUP3 SWAP1 DUP2 ISZERO MUL SWAP1 PUSH1 0x40 MLOAD PUSH1 0x0 PUSH1 0x40 MLOAD DUP1 DUP4 SUB DUP2 DUP6 DUP9 DUP9 CALL SWAP4 POP POP POP POP ISZERO DUP1 ISZERO PUSH2 0x1272 JUMPI RETURNDATASIZE PUSH1 0x0 DUP1 RETURNDATACOPY RETURNDATASIZE PUSH1 0x0 REVERT JUMPDEST POP POP JUMP JUMPDEST PUSH1 0x0 DUP2 CALLDATALOAD SWAP1 POP PUSH2 0x1285 DUP2 PUSH2 0x1985 JUMP JUMPDEST SWAP3 SWAP2 POP POP JUMP JUMPDEST PUSH1 0x0 DUP2 CALLDATALOAD SWAP1 POP PUSH2 0x129A DUP2 PUSH2 0x199C JUMP JUMPDEST SWAP3 SWAP2 POP POP JUMP JUMPDEST PUSH1 0x0 PUSH1 0x20 DUP3 DUP5 SUB SLT ISZERO PUSH2 0x12B6 JUMPI PUSH2 0x12B5 PUSH2 0x17C0 JUMP JUMPDEST JUMPDEST PUSH1 0x0 PUSH2 0x12C4 DUP5 DUP3 DUP6 ADD PUSH2 0x1276 JUMP JUMPDEST SWAP2 POP POP SWAP3 SWAP2 POP POP JUMP JUMPDEST PUSH1 0x0 PUSH1 0x20 DUP3 DUP5 SUB SLT ISZERO PUSH2 0x12E3 JUMPI PUSH2 0x12E2 PUSH2 0x17C0 JUMP JUMPDEST JUMPDEST PUSH1 0x0 PUSH2 0x12F1 DUP5 DUP3 DUP6 ADD PUSH2 0x128B JUMP JUMPDEST SWAP2 POP POP SWAP3 SWAP2 POP POP JUMP JUMPDEST PUSH2 0x1303 DUP2 PUSH2 0x1713 JUMP JUMPDEST DUP3 MSTORE POP POP JUMP JUMPDEST PUSH1 0x0 PUSH2 0x1316 PUSH1 0xF DUP4 PUSH2 0x161E JUMP JUMPDEST SWAP2 POP PUSH2 0x1321 DUP3 PUSH2 0x17C5 JUMP JUMPDEST PUSH1 0x20 DUP3 ADD SWAP1 POP SWAP2 SWAP1 POP JUMP JUMPDEST PUSH1 0x0 PUSH2 0x1339 PUSH1 0x10 DUP4 PUSH2 0x161E JUMP JUMPDEST SWAP2 POP PUSH2 0x1344 DUP3 PUSH2 0x17EE JUMP JUMPDEST PUSH1 0x20 DUP3 ADD SWAP1 POP SWAP2 SWAP1 POP JUMP JUMPDEST PUSH1 0x0 PUSH2 0x135C PUSH1 0x1D DUP4 PUSH2 0x161E JUMP JUMPDEST SWAP2 POP PUSH2 0x1367 DUP3 PUSH2 0x1817 JUMP JUMPDEST PUSH1 0x20 DUP3 ADD SWAP1 POP SWAP2 SWAP1 POP JUMP JUMPDEST PUSH1 0x0 PUSH2 0x137F PUSH1 0xF DUP4 PUSH2 0x161E JUMP JUMPDEST SWAP2 POP PUSH2 0x138A DUP3 PUSH2 0x1840 JUMP JUMPDEST PUSH1 0x20 DUP3 ADD SWAP1 POP SWAP2 SWAP1 POP JUMP JUMPDEST PUSH1 0x0 PUSH2 0x13A2 PUSH1 0x22 DUP4 PUSH2 0x161E JUMP JUMPDEST SWAP2 POP PUSH2 0x13AD DUP3 PUSH2 0x1869 JUMP JUMPDEST PUSH1 0x40 DUP3 ADD SWAP1 POP SWAP2 SWAP1 POP JUMP JUMPDEST PUSH1 0x0 PUSH2 0x13C5 PUSH1 0x1D DUP4 PUSH2 0x161E JUMP JUMPDEST SWAP2 POP PUSH2 0x13D0 DUP3 PUSH2 0x18B8 JUMP JUMPDEST PUSH1 0x20 DUP3 ADD SWAP1 POP SWAP2 SWAP1 POP JUMP JUMPDEST PUSH1 0x0 PUSH2 0x13E8 PUSH1 0xA DUP4 PUSH2 0x161E JUMP JUMPDEST SWAP2 POP PUSH2 0x13F3 DUP3 PUSH2 0x18E1 JUMP JUMPDEST PUSH1 0x20 DUP3 ADD SWAP1 POP SWAP2 SWAP1 POP JUMP JUMPDEST PUSH1 0x0 PUSH2 0x140B PUSH1 0x1C DUP4 PUSH2 0x161E JUMP JUMPDEST SWAP2 POP PUSH2 0x1416 DUP3 PUSH2 0x190A JUMP JUMPDEST PUSH1 0x20 DUP3 ADD SWAP1 POP SWAP2 SWAP1 POP JUMP JUMPDEST PUSH1 0x0 PUSH2 0x142E PUSH1 0x1C DUP4 PUSH2 0x161E JUMP JUMPDEST SWAP2 POP PUSH2 0x1439 DUP3 PUSH2 0x1933 JUMP JUMPDEST PUSH1 0x20 DUP3 ADD SWAP1 POP SWAP2 SWAP1 POP JUMP JUMPDEST PUSH1 0x0 PUSH2 0x1451 PUSH1 0x10 DUP4 PUSH2 0x161E JUMP JUMPDEST SWAP2 POP PUSH2 0x145C DUP3 PUSH2 0x195C JUMP JUMPDEST PUSH1 0x20 DUP3 ADD SWAP1 POP SWAP2 SWAP1 POP JUMP JUMPDEST PUSH2 0x1470 DUP2 PUSH2 0x171D JUMP JUMPDEST DUP3 MSTORE POP POP JUMP JUMPDEST PUSH2 0x1487 PUSH2 0x1482 DUP3 PUSH2 0x171D JUMP JUMPDEST PUSH2 0x1727 JUMP JUMPDEST DUP3 MSTORE POP POP JUMP JUMPDEST PUSH1 0x0 PUSH2 0x1499 DUP3 DUP5 PUSH2 0x1476 JUMP JUMPDEST PUSH1 0x20 DUP3 ADD SWAP2 POP DUP2 SWAP1 POP SWAP3 SWAP2 POP POP JUMP JUMPDEST PUSH1 0x0 PUSH1 0x20 DUP3 ADD SWAP1 POP PUSH2 0x14BD PUSH1 0x0 DUP4 ADD DUP5 PUSH2 0x12FA JUMP JUMPDEST SWAP3 SWAP2 POP POP JUMP JUMPDEST PUSH1 0x0 PUSH1 0x20 DUP3 ADD SWAP1 POP DUP2 DUP2 SUB PUSH1 0x0 DUP4 ADD MSTORE PUSH2 0x14DC DUP2 PUSH2 0x1309 JUMP JUMPDEST SWAP1 POP SWAP2 SWAP1 POP JUMP JUMPDEST PUSH1 0x0 PUSH1 0x20 DUP3 ADD SWAP1 POP DUP2 DUP2 SUB PUSH1 0x0 DUP4 ADD MSTORE PUSH2 0x14FC DUP2 PUSH2 0x132C JUMP JUMPDEST SWAP1 POP SWAP2 SWAP1 POP JUMP JUMPDEST PUSH1 0x0 PUSH1 0x20 DUP3 ADD SWAP1 POP DUP2 DUP2 SUB PUSH1 0x0 DUP4 ADD MSTORE PUSH2 0x151C DUP2 PUSH2 0x134F JUMP JUMPDEST SWAP1 POP SWAP2 SWAP1 POP JUMP JUMPDEST PUSH1 0x0 PUSH1 0x20 DUP3 ADD SWAP1 POP DUP2 DUP2 SUB PUSH1 0x0 DUP4 ADD MSTORE PUSH2 0x153C DUP2 PUSH2 0x1372 JUMP JUMPDEST SWAP1 POP SWAP2 SWAP1 POP JUMP JUMPDEST PUSH1 0x0 PUSH1 0x20 DUP3 ADD SWAP1 POP DUP2 DUP2 SUB PUSH1 0x0 DUP4 ADD MSTORE PUSH2 0x155C DUP2 PUSH2 0x1395 JUMP JUMPDEST SWAP1 POP SWAP2 SWAP1 POP JUMP JUMPDEST PUSH1 0x0 PUSH1 0x20 DUP3 ADD SWAP1 POP DUP2 DUP2 SUB PUSH1 0x0 DUP4 ADD MSTORE PUSH2 0x157C DUP2 PUSH2 0x13B8 JUMP JUMPDEST SWAP1 POP SWAP2 SWAP1 POP JUMP JUMPDEST PUSH1 0x0 PUSH1 0x20 DUP3 ADD SWAP1 POP DUP2 DUP2 SUB PUSH1 0x0 DUP4 ADD MSTORE PUSH2 0x159C DUP2 PUSH2 0x13DB JUMP JUMPDEST SWAP1 POP SWAP2 SWAP1 POP JUMP JUMPDEST PUSH1 0x0 PUSH1 0x20 DUP3 ADD SWAP1 POP DUP2 DUP2 SUB PUSH1 0x0 DUP4 ADD MSTORE PUSH2 0x15BC DUP2 PUSH2 0x13FE JUMP JUMPDEST SWAP1 POP SWAP2 SWAP1 POP JUMP JUMPDEST PUSH1 0x0 PUSH1 0x20 DUP3 ADD SWAP1 POP DUP2 DUP2 SUB PUSH1 0x0 DUP4 ADD MSTORE PUSH2 0x15DC DUP2 PUSH2 0x1421 JUMP JUMPDEST SWAP1 POP SWAP2 SWAP1 POP JUMP JUMPDEST PUSH1 0x0 PUSH1 0x20 DUP3 ADD SWAP1 POP DUP2 DUP2 SUB PUSH1 0x0 DUP4 ADD MSTORE PUSH2 0x15FC DUP2 PUSH2 0x1444 JUMP JUMPDEST SWAP1 POP SWAP2 SWAP1 POP JUMP JUMPDEST PUSH1 0x0 PUSH1 0x20 DUP3 ADD SWAP1 POP PUSH2 0x1618 PUSH1 0x0 DUP4 ADD DUP5 PUSH2 0x1467 JUMP JUMPDEST SWAP3 SWAP2 POP POP JUMP JUMPDEST PUSH1 0x0 DUP3 DUP3 MSTORE PUSH1 0x20 DUP3 ADD SWAP1 POP SWAP3 SWAP2 POP POP JUMP JUMPDEST PUSH1 0x0 PUSH2 0x163A DUP3 PUSH2 0x171D JUMP JUMPDEST SWAP2 POP PUSH2 0x1645 DUP4 PUSH2 0x171D JUMP JUMPDEST SWAP3 POP DUP3 PUSH32 0xFFFFFFFFFFFFFFFFFFFFFFFFFFFFFFFFFFFFFFFFFFFFFFFFFFFFFFFFFFFFFFFF SUB DUP3 GT ISZERO PUSH2 0x167A JUMPI PUSH2 0x1679 PUSH2 0x1762 JUMP JUMPDEST JUMPDEST DUP3 DUP3 ADD SWAP1 POP SWAP3 SWAP2 POP POP JUMP JUMPDEST PUSH1 0x0 PUSH2 0x1690 DUP3 PUSH2 0x171D JUMP JUMPDEST SWAP2 POP PUSH2 0x169B DUP4 PUSH2 0x171D JUMP JUMPDEST SWAP3 POP DUP2 PUSH32 0xFFFFFFFFFFFFFFFFFFFFFFFFFFFFFFFFFFFFFFFFFFFFFFFFFFFFFFFFFFFFFFFF DIV DUP4 GT DUP3 ISZERO ISZERO AND ISZERO PUSH2 0x16D4 JUMPI PUSH2 0x16D3 PUSH2 0x1762 JUMP JUMPDEST JUMPDEST DUP3 DUP3 MUL SWAP1 POP SWAP3 SWAP2 POP POP JUMP JUMPDEST PUSH1 0x0 PUSH2 0x16EA DUP3 PUSH2 0x171D JUMP JUMPDEST SWAP2 POP PUSH2 0x16F5 DUP4 PUSH2 0x171D JUMP JUMPDEST SWAP3 POP DUP3 DUP3 LT ISZERO PUSH2 0x1708 JUMPI PUSH2 0x1707 PUSH2 0x1762 JUMP JUMPDEST JUMPDEST DUP3 DUP3 SUB SWAP1 POP SWAP3 SWAP2 POP POP JUMP JUMPDEST PUSH1 0x0 DUP2 SWAP1 POP SWAP2 SWAP1 POP JUMP JUMPDEST PUSH1 0x0 DUP2 SWAP1 POP SWAP2 SWAP1 POP JUMP JUMPDEST PUSH1 0x0 DUP2 SWAP1 POP SWAP2 SWAP1 POP JUMP JUMPDEST PUSH1 0x0 PUSH2 0x173C DUP3 PUSH2 0x171D JUMP JUMPDEST SWAP2 POP PUSH2 0x1747 DUP4 PUSH2 0x171D JUMP JUMPDEST SWAP3 POP DUP3 PUSH2 0x1757 JUMPI PUSH2 0x1756 PUSH2 0x1791 JUMP JUMPDEST JUMPDEST DUP3 DUP3 MOD SWAP1 POP SWAP3 SWAP2 POP POP JUMP JUMPDEST PUSH32 0x4E487B7100000000000000000000000000000000000000000000000000000000 PUSH1 0x0 MSTORE PUSH1 0x11 PUSH1 0x4 MSTORE PUSH1 0x24 PUSH1 0x0 REVERT JUMPDEST PUSH32 0x4E487B7100000000000000000000000000000000000000000000000000000000 PUSH1 0x0 MSTORE PUSH1 0x12 PUSH1 0x4 MSTORE PUSH1 0x24 PUSH1 0x0 REVERT JUMPDEST PUSH1 0x0 DUP1 REVERT JUMPDEST PUSH32 0x422068617320656E746572656420210000000000000000000000000000000000 PUSH1 0x0 DUP3 ADD MSTORE POP JUMP JUMPDEST PUSH32 0x7761697420666F7220706C617965724200000000000000000000000000000000 PUSH1 0x0 DUP3 ADD MSTORE POP JUMP JUMPDEST PUSH32 0x796F75206861766520656E746572656420617320706C61796572412021000000 PUSH1 0x0 DUP3 ADD MSTORE POP JUMP JUMPDEST PUSH32 0x412068617320656E746572656420210000000000000000000000000000000000 PUSH1 0x0 DUP3 ADD MSTORE POP JUMP JUMPDEST PUSH32 0x646F6E27742072657065617420756E74696C20616C6C20757365727320726573 PUSH1 0x0 DUP3 ADD MSTORE PUSH32 0x6574000000000000000000000000000000000000000000000000000000000000 PUSH1 0x20 DUP3 ADD MSTORE POP JUMP JUMPDEST PUSH32 0x796F75206861766520656E746572656420617320706C61796572422021000000 PUSH1 0x0 DUP3 ADD MSTORE POP JUMP JUMPDEST PUSH32 0x4E6F7420666F756E642100000000000000000000000000000000000000000000 PUSH1 0x0 DUP3 ADD MSTORE POP JUMP JUMPDEST PUSH32 0x706C65617365207375626D69742074686520636F6D6D69746D656E7400000000 PUSH1 0x0 DUP3 ADD MSTORE POP JUMP JUMPDEST PUSH32 0x76616C7565202B2062616C616E6365206D757374203E3D203365746800000000 PUSH1 0x0 DUP3 ADD MSTORE POP JUMP JUMPDEST PUSH32 0x7761697420666F7220706C617965724100000000000000000000000000000000 PUSH1 0x0 DUP3 ADD MSTORE POP JUMP JUMPDEST PUSH2 0x198E DUP2 PUSH2 0x1713 JUMP JUMPDEST DUP2 EQ PUSH2 0x1999 JUMPI PUSH1 0x0 DUP1 REVERT JUMPDEST POP JUMP JUMPDEST PUSH2 0x19A5 DUP2 PUSH2 0x171D JUMP JUMPDEST DUP2 EQ PUSH2 0x19B0 JUMPI PUSH1 0x0 DUP1 REVERT JUMPDEST POP JUMP INVALID LOG2 PUSH5 0x6970667358 0x22 SLT KECCAK256 DUP3 DIV DUP5 SWAP13 XOR 0x21 0xE3 CALLCODE 0x49 ADDRESS 0xBF PUSH8 0x963150F520CF95FD PUSH30 0xD1D3EF3604B67A5C99E46B64736F6C634300080700330000000000000000 "
				},
				"gasEstimates": {
					"creation": {
						"codeDepositCost": "1326600",
						"executionCost": "28495",
						"totalCost": "1355095"
					},
					"external": {
						"enterA(bytes32)": "infinite",
						"enterB(bytes32)": "infinite",
						"getHash(uint256)": "infinite",
						"getResultAndFund()": "2549",
						"reset()": "45409",
						"resetAndWithdraw()": "infinite",
						"roll(uint256)": "infinite"
					}
				},
				"methodIdentifiers": {
					"enterA(bytes32)": "2717605f",
					"enterB(bytes32)": "755b55ad",
					"getHash(uint256)": "6b2fafa9",
					"getResultAndFund()": "23fdeeb8",
					"reset()": "d826f88f",
					"resetAndWithdraw()": "f147c8de",
					"roll(uint256)": "1f7b4f30"
				}
			},
			"storageLayout": {
				"storage": [
					{
						"astId": 5,
						"contract": "contracts/bdl cw2..sol:DiceGame",
						"label": "unitETH",
						"offset": 0,
						"slot": "0",
						"type": "t_uint256"
					},
					{
						"astId": 9,
						"contract": "contracts/bdl cw2..sol:DiceGame",
						"label": "balance",
						"offset": 0,
						"slot": "1",
						"type": "t_mapping(t_address,t_uint256)"
					},
					{
						"astId": 13,
						"contract": "contracts/bdl cw2..sol:DiceGame",
						"label": "commitment",
						"offset": 0,
						"slot": "2",
						"type": "t_mapping(t_bytes32,t_address)"
					},
					{
						"astId": 17,
						"contract": "contracts/bdl cw2..sol:DiceGame",
						"label": "random_value",
						"offset": 0,
						"slot": "3",
						"type": "t_mapping(t_address,t_uint256)"
					},
					{
						"astId": 19,
						"contract": "contracts/bdl cw2..sol:DiceGame",
						"label": "playerA",
						"offset": 0,
						"slot": "4",
						"type": "t_address"
					},
					{
						"astId": 21,
						"contract": "contracts/bdl cw2..sol:DiceGame",
						"label": "playerB",
						"offset": 0,
						"slot": "5",
						"type": "t_address"
					},
					{
						"astId": 24,
						"contract": "contracts/bdl cw2..sol:DiceGame",
						"label": "dice",
						"offset": 0,
						"slot": "6",
						"type": "t_uint256"
					}
				],
				"types": {
					"t_address": {
						"encoding": "inplace",
						"label": "address",
						"numberOfBytes": "20"
					},
					"t_bytes32": {
						"encoding": "inplace",
						"label": "bytes32",
						"numberOfBytes": "32"
					},
					"t_mapping(t_address,t_uint256)": {
						"encoding": "mapping",
						"key": "t_address",
						"label": "mapping(address => uint256)",
						"numberOfBytes": "32",
						"value": "t_uint256"
					},
					"t_mapping(t_bytes32,t_address)": {
						"encoding": "mapping",
						"key": "t_bytes32",
						"label": "mapping(bytes32 => address)",
						"numberOfBytes": "32",
						"value": "t_address"
					},
					"t_uint256": {
						"encoding": "inplace",
						"label": "uint256",
						"numberOfBytes": "32"
					}
				}
			},
			"userdoc": {
				"kind": "user",
				"methods": {
					"enterA(bytes32)": {
						"notice": "for playerA to attend  ciphertext: commitment scheme - commitment*"
					},
					"enterB(bytes32)": {
						"notice": "for playerB to attend  ciphertext: commitment scheme - commitment*"
					},
					"getResultAndFund()": {
						"notice": "fetch result and balance*"
					},
					"reset()": {
						"notice": "reset to start a new game wait for A and B both call the function, then reset the dice*"
					},
					"resetAndWithdraw()": {
						"notice": "reset and withdraw the balance which means A/B can reset and play the new game without withdrawing the balance*"
					},
					"roll(uint256)": {
						"notice": "roll the dice value: commitment scheme - value -> generate random number safely wait for A and B both call the function, then roll the dice.*"
					}
				},
				"notice": "1. enter process:  - A call enterA(), transfer + ciphertext - B call enterB(), transfer + ciphertext 2. roll process:  - A call roll(), value - B call roll(), value -> execute roll dice 3. result - A call getResult(), B call getResult() 4. reset or reset and withdraw  - A call reset() / resetAndWithdraw() - B call reset() / resetAndWithdraw() 5. new round of game... TODO: if A and B send the same value  emit event",
				"version": 1
			}
		}
	}
}