{
	"contracts/bdl cw2..sol": {
		"DiceGame": {
			"abi": [
				{
					"inputs": [
						{
							"internalType": "bytes32",
							"name": "ciphertext",
							"type": "bytes32"
						}
					],
					"name": "enterA",
					"outputs": [],
					"stateMutability": "payable",
					"type": "function"
				},
				{
					"inputs": [
						{
							"internalType": "bytes32",
							"name": "ciphertext",
							"type": "bytes32"
						}
					],
					"name": "enterB",
					"outputs": [],
					"stateMutability": "payable",
					"type": "function"
				},
				{
					"inputs": [],
					"name": "getResultAndFund",
					"outputs": [
						{
							"internalType": "uint256",
							"name": "",
							"type": "uint256"
						}
					],
					"stateMutability": "view",
					"type": "function"
				},
				{
					"inputs": [],
					"name": "reset",
					"outputs": [],
					"stateMutability": "nonpayable",
					"type": "function"
				},
				{
					"inputs": [],
					"name": "resetAndWithdraw",
					"outputs": [],
					"stateMutability": "nonpayable",
					"type": "function"
				},
				{
					"inputs": [
						{
							"internalType": "uint256",
							"name": "value",
							"type": "uint256"
						}
					],
					"name": "roll",
					"outputs": [
						{
							"internalType": "uint256",
							"name": "",
							"type": "uint256"
						}
					],
					"stateMutability": "nonpayable",
					"type": "function"
				}
			],
			"devdoc": {
				"kind": "dev",
				"methods": {},
				"version": 1
			},
			"evm": {
				"assembly": "    /* \"contracts/bdl cw2..sol\":579:4505  contract DiceGame {\r... */\n  mstore(0x40, 0x80)\n    /* \"contracts/bdl cw2..sol\":635:639  1e18 */\n  0x0de0b6b3a7640000\n    /* \"contracts/bdl cw2..sol\":617:639  uint256 unitETH = 1e18 */\n  0x00\n  sstore\n    /* \"contracts/bdl cw2..sol\":932:933  0 */\n  0x00\n    /* \"contracts/bdl cw2..sol\":917:933  uint256 dice = 0 */\n  0x06\n  sstore\n    /* \"contracts/bdl cw2..sol\":579:4505  contract DiceGame {\r... */\n  callvalue\n  dup1\n  iszero\n  tag_1\n  jumpi\n  0x00\n  dup1\n  revert\ntag_1:\n  pop\n  dataSize(sub_0)\n  dup1\n  dataOffset(sub_0)\n  0x00\n  codecopy\n  0x00\n  return\nstop\n\nsub_0: assembly {\n        /* \"contracts/bdl cw2..sol\":579:4505  contract DiceGame {\r... */\n      mstore(0x40, 0x80)\n      jumpi(tag_1, lt(calldatasize, 0x04))\n      shr(0xe0, calldataload(0x00))\n      dup1\n      0x1f7b4f30\n      eq\n      tag_2\n      jumpi\n      dup1\n      0x23fdeeb8\n      eq\n      tag_3\n      jumpi\n      dup1\n      0x2717605f\n      eq\n      tag_4\n      jumpi\n      dup1\n      0x755b55ad\n      eq\n      tag_5\n      jumpi\n      dup1\n      0xd826f88f\n      eq\n      tag_6\n      jumpi\n      dup1\n      0xf147c8de\n      eq\n      tag_7\n      jumpi\n    tag_1:\n      0x00\n      dup1\n      revert\n        /* \"contracts/bdl cw2..sol\":2362:3466  function roll(uint256 value) public returns (uint256){\r... */\n    tag_2:\n      callvalue\n      dup1\n      iszero\n      tag_8\n      jumpi\n      0x00\n      dup1\n      revert\n    tag_8:\n      pop\n      tag_9\n      0x04\n      dup1\n      calldatasize\n      sub\n      dup2\n      add\n      swap1\n      tag_10\n      swap2\n      swap1\n      tag_11\n      jump\t// in\n    tag_10:\n      tag_12\n      jump\t// in\n    tag_9:\n      mload(0x40)\n      tag_13\n      swap2\n      swap1\n      tag_14\n      jump\t// in\n    tag_13:\n      mload(0x40)\n      dup1\n      swap2\n      sub\n      swap1\n      return\n        /* \"contracts/bdl cw2..sol\":3526:3629  function getResultAndFund() public view returns (uint256) {\r... */\n    tag_3:\n      callvalue\n      dup1\n      iszero\n      tag_15\n      jumpi\n      0x00\n      dup1\n      revert\n    tag_15:\n      pop\n      tag_16\n      tag_17\n      jump\t// in\n    tag_16:\n      mload(0x40)\n      tag_18\n      swap2\n      swap1\n      tag_14\n      jump\t// in\n    tag_18:\n      mload(0x40)\n      dup1\n      swap2\n      sub\n      swap1\n      return\n        /* \"contracts/bdl cw2..sol\":1044:1551  function enterA(bytes32 ciphertext) public payable{\r... */\n    tag_4:\n      tag_19\n      0x04\n      dup1\n      calldatasize\n      sub\n      dup2\n      add\n      swap1\n      tag_20\n      swap2\n      swap1\n      tag_21\n      jump\t// in\n    tag_20:\n      tag_22\n      jump\t// in\n    tag_19:\n      stop\n        /* \"contracts/bdl cw2..sol\":1661:2168  function enterB(bytes32 ciphertext) public payable{\r... */\n    tag_5:\n      tag_23\n      0x04\n      dup1\n      calldatasize\n      sub\n      dup2\n      add\n      swap1\n      tag_24\n      swap2\n      swap1\n      tag_21\n      jump\t// in\n    tag_24:\n      tag_25\n      jump\t// in\n    tag_23:\n      stop\n        /* \"contracts/bdl cw2..sol\":3760:4128  function reset() public {\r... */\n    tag_6:\n      callvalue\n      dup1\n      iszero\n      tag_26\n      jumpi\n      0x00\n      dup1\n      revert\n    tag_26:\n      pop\n      tag_27\n      tag_28\n      jump\t// in\n    tag_27:\n      stop\n        /* \"contracts/bdl cw2..sol\":4283:4502  function resetAndWithdraw() public {\r... */\n    tag_7:\n      callvalue\n      dup1\n      iszero\n      tag_29\n      jumpi\n      0x00\n      dup1\n      revert\n    tag_29:\n      pop\n      tag_30\n      tag_31\n      jump\t// in\n    tag_30:\n      stop\n        /* \"contracts/bdl cw2..sol\":2362:3466  function roll(uint256 value) public returns (uint256){\r... */\n    tag_12:\n        /* \"contracts/bdl cw2..sol\":2407:2414  uint256 */\n      0x00\n        /* \"contracts/bdl cw2..sol\":2502:2512  msg.sender */\n      caller\n        /* \"contracts/bdl cw2..sol\":2452:2512  commitment[keccak256(abi.encodePacked(value))] == msg.sender */\n      0xffffffffffffffffffffffffffffffffffffffff\n      and\n        /* \"contracts/bdl cw2..sol\":2452:2462  commitment */\n      0x02\n        /* \"contracts/bdl cw2..sol\":2452:2498  commitment[keccak256(abi.encodePacked(value))] */\n      0x00\n        /* \"contracts/bdl cw2..sol\":2490:2495  value */\n      dup5\n        /* \"contracts/bdl cw2..sol\":2473:2496  abi.encodePacked(value) */\n      add(0x20, mload(0x40))\n      tag_33\n      swap2\n      swap1\n      tag_34\n      jump\t// in\n    tag_33:\n      mload(0x40)\n      0x20\n      dup2\n      dup4\n      sub\n      sub\n      dup2\n      mstore\n      swap1\n      0x40\n      mstore\n        /* \"contracts/bdl cw2..sol\":2463:2497  keccak256(abi.encodePacked(value)) */\n      dup1\n      mload\n      swap1\n      0x20\n      add\n      keccak256\n        /* \"contracts/bdl cw2..sol\":2452:2498  commitment[keccak256(abi.encodePacked(value))] */\n      dup2\n      mstore\n      0x20\n      add\n      swap1\n      dup2\n      mstore\n      0x20\n      add\n      0x00\n      keccak256\n      0x00\n      swap1\n      sload\n      swap1\n      0x0100\n      exp\n      swap1\n      div\n      0xffffffffffffffffffffffffffffffffffffffff\n      and\n        /* \"contracts/bdl cw2..sol\":2452:2512  commitment[keccak256(abi.encodePacked(value))] == msg.sender */\n      0xffffffffffffffffffffffffffffffffffffffff\n      and\n      eq\n        /* \"contracts/bdl cw2..sol\":2444:2527  require(commitment[keccak256(abi.encodePacked(value))] == msg.sender, \"Not found!\") */\n      tag_35\n      jumpi\n      mload(0x40)\n      0x08c379a000000000000000000000000000000000000000000000000000000000\n      dup2\n      mstore\n      0x04\n      add\n      tag_36\n      swap1\n      tag_37\n      jump\t// in\n    tag_36:\n      mload(0x40)\n      dup1\n      swap2\n      sub\n      swap1\n      revert\n    tag_35:\n        /* \"contracts/bdl cw2..sol\":2565:2566  0 */\n      0x00\n        /* \"contracts/bdl cw2..sol\":2546:2567  playerA != address(0) */\n      0xffffffffffffffffffffffffffffffffffffffff\n      and\n        /* \"contracts/bdl cw2..sol\":2546:2553  playerA */\n      0x04\n      0x00\n      swap1\n      sload\n      swap1\n      0x0100\n      exp\n      swap1\n      div\n      0xffffffffffffffffffffffffffffffffffffffff\n      and\n        /* \"contracts/bdl cw2..sol\":2546:2567  playerA != address(0) */\n      0xffffffffffffffffffffffffffffffffffffffff\n      and\n      eq\n      iszero\n        /* \"contracts/bdl cw2..sol\":2538:2588  require(playerA != address(0), \"wait for playerA\") */\n      tag_38\n      jumpi\n      mload(0x40)\n      0x08c379a000000000000000000000000000000000000000000000000000000000\n      dup2\n      mstore\n      0x04\n      add\n      tag_39\n      swap1\n      tag_40\n      jump\t// in\n    tag_39:\n      mload(0x40)\n      dup1\n      swap2\n      sub\n      swap1\n      revert\n    tag_38:\n        /* \"contracts/bdl cw2..sol\":2626:2627  0 */\n      0x00\n        /* \"contracts/bdl cw2..sol\":2607:2628  playerB != address(0) */\n      0xffffffffffffffffffffffffffffffffffffffff\n      and\n        /* \"contracts/bdl cw2..sol\":2607:2614  playerB */\n      0x05\n      0x00\n      swap1\n      sload\n      swap1\n      0x0100\n      exp\n      swap1\n      div\n      0xffffffffffffffffffffffffffffffffffffffff\n      and\n        /* \"contracts/bdl cw2..sol\":2607:2628  playerB != address(0) */\n      0xffffffffffffffffffffffffffffffffffffffff\n      and\n      eq\n      iszero\n        /* \"contracts/bdl cw2..sol\":2599:2649  require(playerB != address(0), \"wait for playerB\") */\n      tag_41\n      jumpi\n      mload(0x40)\n      0x08c379a000000000000000000000000000000000000000000000000000000000\n      dup2\n      mstore\n      0x04\n      add\n      tag_42\n      swap1\n      tag_43\n      jump\t// in\n    tag_42:\n      mload(0x40)\n      dup1\n      swap2\n      sub\n      swap1\n      revert\n    tag_41:\n        /* \"contracts/bdl cw2..sol\":2676:2677  0 */\n      0x00\n        /* \"contracts/bdl cw2..sol\":2668:2672  dice */\n      sload(0x06)\n        /* \"contracts/bdl cw2..sol\":2668:2677  dice == 0 */\n      eq\n        /* \"contracts/bdl cw2..sol\":2660:2716  require(dice == 0, \"don't repeat until all users reset\") */\n      tag_44\n      jumpi\n      mload(0x40)\n      0x08c379a000000000000000000000000000000000000000000000000000000000\n      dup2\n      mstore\n      0x04\n      add\n      tag_45\n      swap1\n      tag_46\n      jump\t// in\n    tag_45:\n      mload(0x40)\n      dup1\n      swap2\n      sub\n      swap1\n      revert\n    tag_44:\n        /* \"contracts/bdl cw2..sol\":2803:2804  0 */\n      0x00\n        /* \"contracts/bdl cw2..sol\":2746:2756  commitment */\n      0x02\n        /* \"contracts/bdl cw2..sol\":2746:2792  commitment[keccak256(abi.encodePacked(value))] */\n      0x00\n        /* \"contracts/bdl cw2..sol\":2784:2789  value */\n      dup5\n        /* \"contracts/bdl cw2..sol\":2767:2790  abi.encodePacked(value) */\n      add(0x20, mload(0x40))\n      tag_47\n      swap2\n      swap1\n      tag_34\n      jump\t// in\n    tag_47:\n      mload(0x40)\n      0x20\n      dup2\n      dup4\n      sub\n      sub\n      dup2\n      mstore\n      swap1\n      0x40\n      mstore\n        /* \"contracts/bdl cw2..sol\":2757:2791  keccak256(abi.encodePacked(value)) */\n      dup1\n      mload\n      swap1\n      0x20\n      add\n      keccak256\n        /* \"contracts/bdl cw2..sol\":2746:2792  commitment[keccak256(abi.encodePacked(value))] */\n      dup2\n      mstore\n      0x20\n      add\n      swap1\n      dup2\n      mstore\n      0x20\n      add\n      0x00\n      keccak256\n      0x00\n        /* \"contracts/bdl cw2..sol\":2746:2805  commitment[keccak256(abi.encodePacked(value))] = address(0) */\n      0x0100\n      exp\n      dup2\n      sload\n      dup2\n      0xffffffffffffffffffffffffffffffffffffffff\n      mul\n      not\n      and\n      swap1\n      dup4\n      0xffffffffffffffffffffffffffffffffffffffff\n      and\n      mul\n      or\n      swap1\n      sstore\n      pop\n        /* \"contracts/bdl cw2..sol\":2843:2848  value */\n      dup2\n        /* \"contracts/bdl cw2..sol\":2816:2828  random_value */\n      0x03\n        /* \"contracts/bdl cw2..sol\":2816:2840  random_value[msg.sender] */\n      0x00\n        /* \"contracts/bdl cw2..sol\":2829:2839  msg.sender */\n      caller\n        /* \"contracts/bdl cw2..sol\":2816:2840  random_value[msg.sender] */\n      0xffffffffffffffffffffffffffffffffffffffff\n      and\n      0xffffffffffffffffffffffffffffffffffffffff\n      and\n      dup2\n      mstore\n      0x20\n      add\n      swap1\n      dup2\n      mstore\n      0x20\n      add\n      0x00\n      keccak256\n        /* \"contracts/bdl cw2..sol\":2816:2848  random_value[msg.sender] = value */\n      dup2\n      swap1\n      sstore\n      pop\n        /* \"contracts/bdl cw2..sol\":2887:2888  0 */\n      0x00\n        /* \"contracts/bdl cw2..sol\":2862:2874  random_value */\n      0x03\n        /* \"contracts/bdl cw2..sol\":2862:2883  random_value[playerA] */\n      0x00\n        /* \"contracts/bdl cw2..sol\":2875:2882  playerA */\n      0x04\n      0x00\n      swap1\n      sload\n      swap1\n      0x0100\n      exp\n      swap1\n      div\n      0xffffffffffffffffffffffffffffffffffffffff\n      and\n        /* \"contracts/bdl cw2..sol\":2862:2883  random_value[playerA] */\n      0xffffffffffffffffffffffffffffffffffffffff\n      and\n      0xffffffffffffffffffffffffffffffffffffffff\n      and\n      dup2\n      mstore\n      0x20\n      add\n      swap1\n      dup2\n      mstore\n      0x20\n      add\n      0x00\n      keccak256\n      sload\n        /* \"contracts/bdl cw2..sol\":2862:2888  random_value[playerA] == 0 */\n      eq\n        /* \"contracts/bdl cw2..sol\":2859:2924  if(random_value[playerA] == 0){\r... */\n      iszero\n      tag_48\n      jumpi\n        /* \"contracts/bdl cw2..sol\":2911:2912  0 */\n      0x00\n        /* \"contracts/bdl cw2..sol\":2904:2912  return 0 */\n      swap1\n      pop\n      jump(tag_32)\n        /* \"contracts/bdl cw2..sol\":2859:2924  if(random_value[playerA] == 0){\r... */\n    tag_48:\n        /* \"contracts/bdl cw2..sol\":2962:2963  0 */\n      0x00\n        /* \"contracts/bdl cw2..sol\":2937:2949  random_value */\n      0x03\n        /* \"contracts/bdl cw2..sol\":2937:2958  random_value[playerB] */\n      0x00\n        /* \"contracts/bdl cw2..sol\":2950:2957  playerB */\n      0x05\n      0x00\n      swap1\n      sload\n      swap1\n      0x0100\n      exp\n      swap1\n      div\n      0xffffffffffffffffffffffffffffffffffffffff\n      and\n        /* \"contracts/bdl cw2..sol\":2937:2958  random_value[playerB] */\n      0xffffffffffffffffffffffffffffffffffffffff\n      and\n      0xffffffffffffffffffffffffffffffffffffffff\n      and\n      dup2\n      mstore\n      0x20\n      add\n      swap1\n      dup2\n      mstore\n      0x20\n      add\n      0x00\n      keccak256\n      sload\n        /* \"contracts/bdl cw2..sol\":2937:2963  random_value[playerB] == 0 */\n      eq\n        /* \"contracts/bdl cw2..sol\":2934:2999  if(random_value[playerB] == 0){\r... */\n      iszero\n      tag_49\n      jumpi\n        /* \"contracts/bdl cw2..sol\":2986:2987  0 */\n      0x00\n        /* \"contracts/bdl cw2..sol\":2979:2987  return 0 */\n      swap1\n      pop\n      jump(tag_32)\n        /* \"contracts/bdl cw2..sol\":2934:2999  if(random_value[playerB] == 0){\r... */\n    tag_49:\n        /* \"contracts/bdl cw2..sol\":3126:3127  6 */\n      0x06\n        /* \"contracts/bdl cw2..sol\":3099:3111  random_value */\n      0x03\n        /* \"contracts/bdl cw2..sol\":3099:3120  random_value[playerB] */\n      0x00\n        /* \"contracts/bdl cw2..sol\":3112:3119  playerB */\n      0x05\n      0x00\n      swap1\n      sload\n      swap1\n      0x0100\n      exp\n      swap1\n      div\n      0xffffffffffffffffffffffffffffffffffffffff\n      and\n        /* \"contracts/bdl cw2..sol\":3099:3120  random_value[playerB] */\n      0xffffffffffffffffffffffffffffffffffffffff\n      and\n      0xffffffffffffffffffffffffffffffffffffffff\n      and\n      dup2\n      mstore\n      0x20\n      add\n      swap1\n      dup2\n      mstore\n      0x20\n      add\n      0x00\n      keccak256\n      sload\n        /* \"contracts/bdl cw2..sol\":3075:3087  random_value */\n      0x03\n        /* \"contracts/bdl cw2..sol\":3075:3096  random_value[playerA] */\n      0x00\n        /* \"contracts/bdl cw2..sol\":3088:3095  playerA */\n      0x04\n      0x00\n      swap1\n      sload\n      swap1\n      0x0100\n      exp\n      swap1\n      div\n      0xffffffffffffffffffffffffffffffffffffffff\n      and\n        /* \"contracts/bdl cw2..sol\":3075:3096  random_value[playerA] */\n      0xffffffffffffffffffffffffffffffffffffffff\n      and\n      0xffffffffffffffffffffffffffffffffffffffff\n      and\n      dup2\n      mstore\n      0x20\n      add\n      swap1\n      dup2\n      mstore\n      0x20\n      add\n      0x00\n      keccak256\n      sload\n        /* \"contracts/bdl cw2..sol\":3075:3120  random_value[playerA] ^ random_value[playerB] */\n      xor\n        /* \"contracts/bdl cw2..sol\":3058:3121  abi.encodePacked(random_value[playerA] ^ random_value[playerB]) */\n      add(0x20, mload(0x40))\n      tag_50\n      swap2\n      swap1\n      tag_34\n      jump\t// in\n    tag_50:\n      mload(0x40)\n      0x20\n      dup2\n      dup4\n      sub\n      sub\n      dup2\n      mstore\n      swap1\n      0x40\n      mstore\n        /* \"contracts/bdl cw2..sol\":3048:3122  keccak256(abi.encodePacked(random_value[playerA] ^ random_value[playerB])) */\n      dup1\n      mload\n      swap1\n      0x20\n      add\n      keccak256\n        /* \"contracts/bdl cw2..sol\":3040:3123  uint256(keccak256(abi.encodePacked(random_value[playerA] ^ random_value[playerB]))) */\n      0x00\n      shr\n        /* \"contracts/bdl cw2..sol\":3040:3127  uint256(keccak256(abi.encodePacked(random_value[playerA] ^ random_value[playerB]))) % 6 */\n      tag_51\n      swap2\n      swap1\n      tag_52\n      jump\t// in\n    tag_51:\n        /* \"contracts/bdl cw2..sol\":3036:3037  1 */\n      0x01\n        /* \"contracts/bdl cw2..sol\":3036:3127  1 + uint256(keccak256(abi.encodePacked(random_value[playerA] ^ random_value[playerB]))) % 6 */\n      tag_53\n      swap2\n      swap1\n      tag_54\n      jump\t// in\n    tag_53:\n        /* \"contracts/bdl cw2..sol\":3029:3033  dice */\n      0x06\n        /* \"contracts/bdl cw2..sol\":3029:3127  dice = 1 + uint256(keccak256(abi.encodePacked(random_value[playerA] ^ random_value[playerB]))) % 6 */\n      dup2\n      swap1\n      sstore\n      pop\n        /* \"contracts/bdl cw2..sol\":3148:3149  3 */\n      0x03\n        /* \"contracts/bdl cw2..sol\":3141:3145  dice */\n      sload(0x06)\n        /* \"contracts/bdl cw2..sol\":3141:3149  dice > 3 */\n      gt\n        /* \"contracts/bdl cw2..sol\":3138:3436  if(dice > 3){\r... */\n      iszero\n      tag_55\n      jumpi\n        /* \"contracts/bdl cw2..sol\":3165:3179  uint256 reward */\n      0x00\n        /* \"contracts/bdl cw2..sol\":3193:3200  unitETH */\n      dup1\n      sload\n        /* \"contracts/bdl cw2..sol\":3190:3191  3 */\n      0x03\n        /* \"contracts/bdl cw2..sol\":3183:3187  dice */\n      sload(0x06)\n        /* \"contracts/bdl cw2..sol\":3183:3191  dice - 3 */\n      tag_56\n      swap2\n      swap1\n      tag_57\n      jump\t// in\n    tag_56:\n        /* \"contracts/bdl cw2..sol\":3182:3200  (dice - 3)*unitETH */\n      tag_58\n      swap2\n      swap1\n      tag_59\n      jump\t// in\n    tag_58:\n        /* \"contracts/bdl cw2..sol\":3165:3200  uint256 reward = (dice - 3)*unitETH */\n      swap1\n      pop\n        /* \"contracts/bdl cw2..sol\":3235:3241  reward */\n      dup1\n        /* \"contracts/bdl cw2..sol\":3215:3222  balance */\n      0x01\n        /* \"contracts/bdl cw2..sol\":3215:3231  balance[playerA] */\n      0x00\n        /* \"contracts/bdl cw2..sol\":3223:3230  playerA */\n      0x04\n      0x00\n      swap1\n      sload\n      swap1\n      0x0100\n      exp\n      swap1\n      div\n      0xffffffffffffffffffffffffffffffffffffffff\n      and\n        /* \"contracts/bdl cw2..sol\":3215:3231  balance[playerA] */\n      0xffffffffffffffffffffffffffffffffffffffff\n      and\n      0xffffffffffffffffffffffffffffffffffffffff\n      and\n      dup2\n      mstore\n      0x20\n      add\n      swap1\n      dup2\n      mstore\n      0x20\n      add\n      0x00\n      keccak256\n      0x00\n        /* \"contracts/bdl cw2..sol\":3215:3241  balance[playerA] -= reward */\n      dup3\n      dup3\n      sload\n      tag_60\n      swap2\n      swap1\n      tag_57\n      jump\t// in\n    tag_60:\n      swap3\n      pop\n      pop\n      dup2\n      swap1\n      sstore\n      pop\n        /* \"contracts/bdl cw2..sol\":3276:3282  reward */\n      dup1\n        /* \"contracts/bdl cw2..sol\":3256:3263  balance */\n      0x01\n        /* \"contracts/bdl cw2..sol\":3256:3272  balance[playerB] */\n      0x00\n        /* \"contracts/bdl cw2..sol\":3264:3271  playerB */\n      0x05\n      0x00\n      swap1\n      sload\n      swap1\n      0x0100\n      exp\n      swap1\n      div\n      0xffffffffffffffffffffffffffffffffffffffff\n      and\n        /* \"contracts/bdl cw2..sol\":3256:3272  balance[playerB] */\n      0xffffffffffffffffffffffffffffffffffffffff\n      and\n      0xffffffffffffffffffffffffffffffffffffffff\n      and\n      dup2\n      mstore\n      0x20\n      add\n      swap1\n      dup2\n      mstore\n      0x20\n      add\n      0x00\n      keccak256\n      0x00\n        /* \"contracts/bdl cw2..sol\":3256:3282  balance[playerB] += reward */\n      dup3\n      dup3\n      sload\n      tag_61\n      swap2\n      swap1\n      tag_54\n      jump\t// in\n    tag_61:\n      swap3\n      pop\n      pop\n      dup2\n      swap1\n      sstore\n      pop\n        /* \"contracts/bdl cw2..sol\":3150:3294  {\r... */\n      pop\n        /* \"contracts/bdl cw2..sol\":3138:3436  if(dice > 3){\r... */\n      jump(tag_62)\n    tag_55:\n        /* \"contracts/bdl cw2..sol\":3313:3327  uint256 reward */\n      0x00\n        /* \"contracts/bdl cw2..sol\":3335:3342  unitETH */\n      dup1\n      sload\n        /* \"contracts/bdl cw2..sol\":3330:3334  dice */\n      sload(0x06)\n        /* \"contracts/bdl cw2..sol\":3330:3342  dice*unitETH */\n      tag_63\n      swap2\n      swap1\n      tag_59\n      jump\t// in\n    tag_63:\n        /* \"contracts/bdl cw2..sol\":3313:3342  uint256 reward = dice*unitETH */\n      swap1\n      pop\n        /* \"contracts/bdl cw2..sol\":3377:3383  reward */\n      dup1\n        /* \"contracts/bdl cw2..sol\":3357:3364  balance */\n      0x01\n        /* \"contracts/bdl cw2..sol\":3357:3373  balance[playerA] */\n      0x00\n        /* \"contracts/bdl cw2..sol\":3365:3372  playerA */\n      0x04\n      0x00\n      swap1\n      sload\n      swap1\n      0x0100\n      exp\n      swap1\n      div\n      0xffffffffffffffffffffffffffffffffffffffff\n      and\n        /* \"contracts/bdl cw2..sol\":3357:3373  balance[playerA] */\n      0xffffffffffffffffffffffffffffffffffffffff\n      and\n      0xffffffffffffffffffffffffffffffffffffffff\n      and\n      dup2\n      mstore\n      0x20\n      add\n      swap1\n      dup2\n      mstore\n      0x20\n      add\n      0x00\n      keccak256\n      0x00\n        /* \"contracts/bdl cw2..sol\":3357:3383  balance[playerA] += reward */\n      dup3\n      dup3\n      sload\n      tag_64\n      swap2\n      swap1\n      tag_54\n      jump\t// in\n    tag_64:\n      swap3\n      pop\n      pop\n      dup2\n      swap1\n      sstore\n      pop\n        /* \"contracts/bdl cw2..sol\":3418:3424  reward */\n      dup1\n        /* \"contracts/bdl cw2..sol\":3398:3405  balance */\n      0x01\n        /* \"contracts/bdl cw2..sol\":3398:3414  balance[playerB] */\n      0x00\n        /* \"contracts/bdl cw2..sol\":3406:3413  playerB */\n      0x05\n      0x00\n      swap1\n      sload\n      swap1\n      0x0100\n      exp\n      swap1\n      div\n      0xffffffffffffffffffffffffffffffffffffffff\n      and\n        /* \"contracts/bdl cw2..sol\":3398:3414  balance[playerB] */\n      0xffffffffffffffffffffffffffffffffffffffff\n      and\n      0xffffffffffffffffffffffffffffffffffffffff\n      and\n      dup2\n      mstore\n      0x20\n      add\n      swap1\n      dup2\n      mstore\n      0x20\n      add\n      0x00\n      keccak256\n      0x00\n        /* \"contracts/bdl cw2..sol\":3398:3424  balance[playerB] -= reward */\n      dup3\n      dup3\n      sload\n      tag_65\n      swap2\n      swap1\n      tag_57\n      jump\t// in\n    tag_65:\n      swap3\n      pop\n      pop\n      dup2\n      swap1\n      sstore\n      pop\n        /* \"contracts/bdl cw2..sol\":3298:3436  {\r... */\n      pop\n        /* \"contracts/bdl cw2..sol\":3138:3436  if(dice > 3){\r... */\n    tag_62:\n        /* \"contracts/bdl cw2..sol\":3454:3458  dice */\n      sload(0x06)\n        /* \"contracts/bdl cw2..sol\":3447:3458  return dice */\n      swap1\n      pop\n        /* \"contracts/bdl cw2..sol\":2362:3466  function roll(uint256 value) public returns (uint256){\r... */\n    tag_32:\n      swap2\n      swap1\n      pop\n      jump\t// out\n        /* \"contracts/bdl cw2..sol\":3526:3629  function getResultAndFund() public view returns (uint256) {\r... */\n    tag_17:\n        /* \"contracts/bdl cw2..sol\":3575:3582  uint256 */\n      0x00\n        /* \"contracts/bdl cw2..sol\":3602:3609  balance */\n      0x01\n        /* \"contracts/bdl cw2..sol\":3602:3621  balance[msg.sender] */\n      0x00\n        /* \"contracts/bdl cw2..sol\":3610:3620  msg.sender */\n      caller\n        /* \"contracts/bdl cw2..sol\":3602:3621  balance[msg.sender] */\n      0xffffffffffffffffffffffffffffffffffffffff\n      and\n      0xffffffffffffffffffffffffffffffffffffffff\n      and\n      dup2\n      mstore\n      0x20\n      add\n      swap1\n      dup2\n      mstore\n      0x20\n      add\n      0x00\n      keccak256\n      sload\n        /* \"contracts/bdl cw2..sol\":3595:3621  return balance[msg.sender] */\n      swap1\n      pop\n        /* \"contracts/bdl cw2..sol\":3526:3629  function getResultAndFund() public view returns (uint256) {\r... */\n      swap1\n      jump\t// out\n        /* \"contracts/bdl cw2..sol\":1044:1551  function enterA(bytes32 ciphertext) public payable{\r... */\n    tag_22:\n        /* \"contracts/bdl cw2..sol\":1166:1170  3e18 */\n      0x29a2241af62c0000\n        /* \"contracts/bdl cw2..sol\":1143:1150  balance */\n      0x01\n        /* \"contracts/bdl cw2..sol\":1143:1162  balance[msg.sender] */\n      0x00\n        /* \"contracts/bdl cw2..sol\":1151:1161  msg.sender */\n      caller\n        /* \"contracts/bdl cw2..sol\":1143:1162  balance[msg.sender] */\n      0xffffffffffffffffffffffffffffffffffffffff\n      and\n      0xffffffffffffffffffffffffffffffffffffffff\n      and\n      dup2\n      mstore\n      0x20\n      add\n      swap1\n      dup2\n      mstore\n      0x20\n      add\n      0x00\n      keccak256\n      sload\n        /* \"contracts/bdl cw2..sol\":1131:1140  msg.value */\n      callvalue\n        /* \"contracts/bdl cw2..sol\":1131:1162  msg.value + balance[msg.sender] */\n      tag_68\n      swap2\n      swap1\n      tag_54\n      jump\t// in\n    tag_68:\n        /* \"contracts/bdl cw2..sol\":1131:1170  msg.value + balance[msg.sender] >= 3e18 */\n      lt\n      iszero\n        /* \"contracts/bdl cw2..sol\":1123:1203  require(msg.value + balance[msg.sender] >= 3e18, \"value + balance must >= 3eth\") */\n      tag_69\n      jumpi\n      mload(0x40)\n      0x08c379a000000000000000000000000000000000000000000000000000000000\n      dup2\n      mstore\n      0x04\n      add\n      tag_70\n      swap1\n      tag_71\n      jump\t// in\n    tag_70:\n      mload(0x40)\n      dup1\n      swap2\n      sub\n      swap1\n      revert\n    tag_69:\n        /* \"contracts/bdl cw2..sol\":1236:1237  0 */\n      0x00\n        /* \"contracts/bdl cw2..sol\":1222:1237  ciphertext != 0 */\n      dup1\n      shl\n        /* \"contracts/bdl cw2..sol\":1222:1232  ciphertext */\n      dup2\n        /* \"contracts/bdl cw2..sol\":1222:1237  ciphertext != 0 */\n      eq\n      iszero\n        /* \"contracts/bdl cw2..sol\":1214:1270  require(ciphertext != 0, \"please submit the commitment\") */\n      tag_72\n      jumpi\n      mload(0x40)\n      0x08c379a000000000000000000000000000000000000000000000000000000000\n      dup2\n      mstore\n      0x04\n      add\n      tag_73\n      swap1\n      tag_74\n      jump\t// in\n    tag_73:\n      mload(0x40)\n      dup1\n      swap2\n      sub\n      swap1\n      revert\n    tag_72:\n        /* \"contracts/bdl cw2..sol\":1308:1309  0 */\n      0x00\n        /* \"contracts/bdl cw2..sol\":1289:1310  playerA == address(0) */\n      0xffffffffffffffffffffffffffffffffffffffff\n      and\n        /* \"contracts/bdl cw2..sol\":1289:1296  playerA */\n      0x04\n      0x00\n      swap1\n      sload\n      swap1\n      0x0100\n      exp\n      swap1\n      div\n      0xffffffffffffffffffffffffffffffffffffffff\n      and\n        /* \"contracts/bdl cw2..sol\":1289:1310  playerA == address(0) */\n      0xffffffffffffffffffffffffffffffffffffffff\n      and\n      eq\n        /* \"contracts/bdl cw2..sol\":1281:1330  require(playerA == address(0), \"A has entered !\") */\n      tag_75\n      jumpi\n      mload(0x40)\n      0x08c379a000000000000000000000000000000000000000000000000000000000\n      dup2\n      mstore\n      0x04\n      add\n      tag_76\n      swap1\n      tag_77\n      jump\t// in\n    tag_76:\n      mload(0x40)\n      dup1\n      swap2\n      sub\n      swap1\n      revert\n    tag_75:\n        /* \"contracts/bdl cw2..sol\":1360:1370  msg.sender */\n      caller\n        /* \"contracts/bdl cw2..sol\":1349:1370  playerB != msg.sender */\n      0xffffffffffffffffffffffffffffffffffffffff\n      and\n        /* \"contracts/bdl cw2..sol\":1349:1356  playerB */\n      0x05\n      0x00\n      swap1\n      sload\n      swap1\n      0x0100\n      exp\n      swap1\n      div\n      0xffffffffffffffffffffffffffffffffffffffff\n      and\n        /* \"contracts/bdl cw2..sol\":1349:1370  playerB != msg.sender */\n      0xffffffffffffffffffffffffffffffffffffffff\n      and\n      eq\n      iszero\n        /* \"contracts/bdl cw2..sol\":1341:1404  require(playerB != msg.sender, \"you have entered as playerB !\") */\n      tag_78\n      jumpi\n      mload(0x40)\n      0x08c379a000000000000000000000000000000000000000000000000000000000\n      dup2\n      mstore\n      0x04\n      add\n      tag_79\n      swap1\n      tag_80\n      jump\t// in\n    tag_79:\n      mload(0x40)\n      dup1\n      swap2\n      sub\n      swap1\n      revert\n    tag_78:\n        /* \"contracts/bdl cw2..sol\":1444:1454  msg.sender */\n      caller\n        /* \"contracts/bdl cw2..sol\":1434:1441  playerA */\n      0x04\n      0x00\n        /* \"contracts/bdl cw2..sol\":1434:1454  playerA = msg.sender */\n      0x0100\n      exp\n      dup2\n      sload\n      dup2\n      0xffffffffffffffffffffffffffffffffffffffff\n      mul\n      not\n      and\n      swap1\n      dup4\n      0xffffffffffffffffffffffffffffffffffffffff\n      and\n      mul\n      or\n      swap1\n      sstore\n      pop\n        /* \"contracts/bdl cw2..sol\":1490:1500  msg.sender */\n      caller\n        /* \"contracts/bdl cw2..sol\":1465:1475  commitment */\n      0x02\n        /* \"contracts/bdl cw2..sol\":1465:1487  commitment[ciphertext] */\n      0x00\n        /* \"contracts/bdl cw2..sol\":1476:1486  ciphertext */\n      dup4\n        /* \"contracts/bdl cw2..sol\":1465:1487  commitment[ciphertext] */\n      dup2\n      mstore\n      0x20\n      add\n      swap1\n      dup2\n      mstore\n      0x20\n      add\n      0x00\n      keccak256\n      0x00\n        /* \"contracts/bdl cw2..sol\":1465:1500  commitment[ciphertext] = msg.sender */\n      0x0100\n      exp\n      dup2\n      sload\n      dup2\n      0xffffffffffffffffffffffffffffffffffffffff\n      mul\n      not\n      and\n      swap1\n      dup4\n      0xffffffffffffffffffffffffffffffffffffffff\n      and\n      mul\n      or\n      swap1\n      sstore\n      pop\n        /* \"contracts/bdl cw2..sol\":1534:1543  msg.value */\n      callvalue\n        /* \"contracts/bdl cw2..sol\":1511:1518  balance */\n      0x01\n        /* \"contracts/bdl cw2..sol\":1511:1530  balance[msg.sender] */\n      0x00\n        /* \"contracts/bdl cw2..sol\":1519:1529  msg.sender */\n      caller\n        /* \"contracts/bdl cw2..sol\":1511:1530  balance[msg.sender] */\n      0xffffffffffffffffffffffffffffffffffffffff\n      and\n      0xffffffffffffffffffffffffffffffffffffffff\n      and\n      dup2\n      mstore\n      0x20\n      add\n      swap1\n      dup2\n      mstore\n      0x20\n      add\n      0x00\n      keccak256\n      0x00\n        /* \"contracts/bdl cw2..sol\":1511:1543  balance[msg.sender] += msg.value */\n      dup3\n      dup3\n      sload\n      tag_81\n      swap2\n      swap1\n      tag_54\n      jump\t// in\n    tag_81:\n      swap3\n      pop\n      pop\n      dup2\n      swap1\n      sstore\n      pop\n        /* \"contracts/bdl cw2..sol\":1044:1551  function enterA(bytes32 ciphertext) public payable{\r... */\n      pop\n      jump\t// out\n        /* \"contracts/bdl cw2..sol\":1661:2168  function enterB(bytes32 ciphertext) public payable{\r... */\n    tag_25:\n        /* \"contracts/bdl cw2..sol\":1783:1787  3e18 */\n      0x29a2241af62c0000\n        /* \"contracts/bdl cw2..sol\":1760:1767  balance */\n      0x01\n        /* \"contracts/bdl cw2..sol\":1760:1779  balance[msg.sender] */\n      0x00\n        /* \"contracts/bdl cw2..sol\":1768:1778  msg.sender */\n      caller\n        /* \"contracts/bdl cw2..sol\":1760:1779  balance[msg.sender] */\n      0xffffffffffffffffffffffffffffffffffffffff\n      and\n      0xffffffffffffffffffffffffffffffffffffffff\n      and\n      dup2\n      mstore\n      0x20\n      add\n      swap1\n      dup2\n      mstore\n      0x20\n      add\n      0x00\n      keccak256\n      sload\n        /* \"contracts/bdl cw2..sol\":1748:1757  msg.value */\n      callvalue\n        /* \"contracts/bdl cw2..sol\":1748:1779  msg.value + balance[msg.sender] */\n      tag_83\n      swap2\n      swap1\n      tag_54\n      jump\t// in\n    tag_83:\n        /* \"contracts/bdl cw2..sol\":1748:1787  msg.value + balance[msg.sender] >= 3e18 */\n      lt\n      iszero\n        /* \"contracts/bdl cw2..sol\":1740:1820  require(msg.value + balance[msg.sender] >= 3e18, \"value + balance must >= 3eth\") */\n      tag_84\n      jumpi\n      mload(0x40)\n      0x08c379a000000000000000000000000000000000000000000000000000000000\n      dup2\n      mstore\n      0x04\n      add\n      tag_85\n      swap1\n      tag_71\n      jump\t// in\n    tag_85:\n      mload(0x40)\n      dup1\n      swap2\n      sub\n      swap1\n      revert\n    tag_84:\n        /* \"contracts/bdl cw2..sol\":1853:1854  0 */\n      0x00\n        /* \"contracts/bdl cw2..sol\":1839:1854  ciphertext != 0 */\n      dup1\n      shl\n        /* \"contracts/bdl cw2..sol\":1839:1849  ciphertext */\n      dup2\n        /* \"contracts/bdl cw2..sol\":1839:1854  ciphertext != 0 */\n      eq\n      iszero\n        /* \"contracts/bdl cw2..sol\":1831:1887  require(ciphertext != 0, \"please submit the commitment\") */\n      tag_86\n      jumpi\n      mload(0x40)\n      0x08c379a000000000000000000000000000000000000000000000000000000000\n      dup2\n      mstore\n      0x04\n      add\n      tag_87\n      swap1\n      tag_74\n      jump\t// in\n    tag_87:\n      mload(0x40)\n      dup1\n      swap2\n      sub\n      swap1\n      revert\n    tag_86:\n        /* \"contracts/bdl cw2..sol\":1925:1926  0 */\n      0x00\n        /* \"contracts/bdl cw2..sol\":1906:1927  playerB == address(0) */\n      0xffffffffffffffffffffffffffffffffffffffff\n      and\n        /* \"contracts/bdl cw2..sol\":1906:1913  playerB */\n      0x05\n      0x00\n      swap1\n      sload\n      swap1\n      0x0100\n      exp\n      swap1\n      div\n      0xffffffffffffffffffffffffffffffffffffffff\n      and\n        /* \"contracts/bdl cw2..sol\":1906:1927  playerB == address(0) */\n      0xffffffffffffffffffffffffffffffffffffffff\n      and\n      eq\n        /* \"contracts/bdl cw2..sol\":1898:1947  require(playerB == address(0), \"B has entered !\") */\n      tag_88\n      jumpi\n      mload(0x40)\n      0x08c379a000000000000000000000000000000000000000000000000000000000\n      dup2\n      mstore\n      0x04\n      add\n      tag_89\n      swap1\n      tag_90\n      jump\t// in\n    tag_89:\n      mload(0x40)\n      dup1\n      swap2\n      sub\n      swap1\n      revert\n    tag_88:\n        /* \"contracts/bdl cw2..sol\":1977:1987  msg.sender */\n      caller\n        /* \"contracts/bdl cw2..sol\":1966:1987  playerA != msg.sender */\n      0xffffffffffffffffffffffffffffffffffffffff\n      and\n        /* \"contracts/bdl cw2..sol\":1966:1973  playerA */\n      0x04\n      0x00\n      swap1\n      sload\n      swap1\n      0x0100\n      exp\n      swap1\n      div\n      0xffffffffffffffffffffffffffffffffffffffff\n      and\n        /* \"contracts/bdl cw2..sol\":1966:1987  playerA != msg.sender */\n      0xffffffffffffffffffffffffffffffffffffffff\n      and\n      eq\n      iszero\n        /* \"contracts/bdl cw2..sol\":1958:2021  require(playerA != msg.sender, \"you have entered as playerA !\") */\n      tag_91\n      jumpi\n      mload(0x40)\n      0x08c379a000000000000000000000000000000000000000000000000000000000\n      dup2\n      mstore\n      0x04\n      add\n      tag_92\n      swap1\n      tag_93\n      jump\t// in\n    tag_92:\n      mload(0x40)\n      dup1\n      swap2\n      sub\n      swap1\n      revert\n    tag_91:\n        /* \"contracts/bdl cw2..sol\":2061:2071  msg.sender */\n      caller\n        /* \"contracts/bdl cw2..sol\":2051:2058  playerB */\n      0x05\n      0x00\n        /* \"contracts/bdl cw2..sol\":2051:2071  playerB = msg.sender */\n      0x0100\n      exp\n      dup2\n      sload\n      dup2\n      0xffffffffffffffffffffffffffffffffffffffff\n      mul\n      not\n      and\n      swap1\n      dup4\n      0xffffffffffffffffffffffffffffffffffffffff\n      and\n      mul\n      or\n      swap1\n      sstore\n      pop\n        /* \"contracts/bdl cw2..sol\":2107:2117  msg.sender */\n      caller\n        /* \"contracts/bdl cw2..sol\":2082:2092  commitment */\n      0x02\n        /* \"contracts/bdl cw2..sol\":2082:2104  commitment[ciphertext] */\n      0x00\n        /* \"contracts/bdl cw2..sol\":2093:2103  ciphertext */\n      dup4\n        /* \"contracts/bdl cw2..sol\":2082:2104  commitment[ciphertext] */\n      dup2\n      mstore\n      0x20\n      add\n      swap1\n      dup2\n      mstore\n      0x20\n      add\n      0x00\n      keccak256\n      0x00\n        /* \"contracts/bdl cw2..sol\":2082:2117  commitment[ciphertext] = msg.sender */\n      0x0100\n      exp\n      dup2\n      sload\n      dup2\n      0xffffffffffffffffffffffffffffffffffffffff\n      mul\n      not\n      and\n      swap1\n      dup4\n      0xffffffffffffffffffffffffffffffffffffffff\n      and\n      mul\n      or\n      swap1\n      sstore\n      pop\n        /* \"contracts/bdl cw2..sol\":2151:2160  msg.value */\n      callvalue\n        /* \"contracts/bdl cw2..sol\":2128:2135  balance */\n      0x01\n        /* \"contracts/bdl cw2..sol\":2128:2147  balance[msg.sender] */\n      0x00\n        /* \"contracts/bdl cw2..sol\":2136:2146  msg.sender */\n      caller\n        /* \"contracts/bdl cw2..sol\":2128:2147  balance[msg.sender] */\n      0xffffffffffffffffffffffffffffffffffffffff\n      and\n      0xffffffffffffffffffffffffffffffffffffffff\n      and\n      dup2\n      mstore\n      0x20\n      add\n      swap1\n      dup2\n      mstore\n      0x20\n      add\n      0x00\n      keccak256\n      0x00\n        /* \"contracts/bdl cw2..sol\":2128:2160  balance[msg.sender] += msg.value */\n      dup3\n      dup3\n      sload\n      tag_94\n      swap2\n      swap1\n      tag_54\n      jump\t// in\n    tag_94:\n      swap3\n      pop\n      pop\n      dup2\n      swap1\n      sstore\n      pop\n        /* \"contracts/bdl cw2..sol\":1661:2168  function enterB(bytes32 ciphertext) public payable{\r... */\n      pop\n      jump\t// out\n        /* \"contracts/bdl cw2..sol\":3760:4128  function reset() public {\r... */\n    tag_28:\n        /* \"contracts/bdl cw2..sol\":3812:3819  playerA */\n      0x04\n      0x00\n      swap1\n      sload\n      swap1\n      0x0100\n      exp\n      swap1\n      div\n      0xffffffffffffffffffffffffffffffffffffffff\n      and\n        /* \"contracts/bdl cw2..sol\":3798:3819  msg.sender == playerA */\n      0xffffffffffffffffffffffffffffffffffffffff\n      and\n        /* \"contracts/bdl cw2..sol\":3798:3808  msg.sender */\n      caller\n        /* \"contracts/bdl cw2..sol\":3798:3819  msg.sender == playerA */\n      0xffffffffffffffffffffffffffffffffffffffff\n      and\n      eq\n        /* \"contracts/bdl cw2..sol\":3795:4026  if(msg.sender == playerA){\r... */\n      iszero\n      tag_96\n      jumpi\n        /* \"contracts/bdl cw2..sol\":3853:3854  0 */\n      0x00\n        /* \"contracts/bdl cw2..sol\":3835:3842  playerA */\n      0x04\n      0x00\n        /* \"contracts/bdl cw2..sol\":3835:3855  playerA = address(0) */\n      0x0100\n      exp\n      dup2\n      sload\n      dup2\n      0xffffffffffffffffffffffffffffffffffffffff\n      mul\n      not\n      and\n      swap1\n      dup4\n      0xffffffffffffffffffffffffffffffffffffffff\n      and\n      mul\n      or\n      swap1\n      sstore\n      pop\n        /* \"contracts/bdl cw2..sol\":3894:3895  0 */\n      0x00\n        /* \"contracts/bdl cw2..sol\":3870:3882  random_value */\n      0x03\n        /* \"contracts/bdl cw2..sol\":3870:3891  random_value[playerA] */\n      0x00\n        /* \"contracts/bdl cw2..sol\":3883:3890  playerA */\n      0x04\n      0x00\n      swap1\n      sload\n      swap1\n      0x0100\n      exp\n      swap1\n      div\n      0xffffffffffffffffffffffffffffffffffffffff\n      and\n        /* \"contracts/bdl cw2..sol\":3870:3891  random_value[playerA] */\n      0xffffffffffffffffffffffffffffffffffffffff\n      and\n      0xffffffffffffffffffffffffffffffffffffffff\n      and\n      dup2\n      mstore\n      0x20\n      add\n      swap1\n      dup2\n      mstore\n      0x20\n      add\n      0x00\n      keccak256\n        /* \"contracts/bdl cw2..sol\":3870:3895  random_value[playerA] = 0 */\n      dup2\n      swap1\n      sstore\n      pop\n        /* \"contracts/bdl cw2..sol\":3795:4026  if(msg.sender == playerA){\r... */\n      jump(tag_97)\n    tag_96:\n        /* \"contracts/bdl cw2..sol\":3931:3938  playerB */\n      0x05\n      0x00\n      swap1\n      sload\n      swap1\n      0x0100\n      exp\n      swap1\n      div\n      0xffffffffffffffffffffffffffffffffffffffff\n      and\n        /* \"contracts/bdl cw2..sol\":3917:3938  msg.sender == playerB */\n      0xffffffffffffffffffffffffffffffffffffffff\n      and\n        /* \"contracts/bdl cw2..sol\":3917:3927  msg.sender */\n      caller\n        /* \"contracts/bdl cw2..sol\":3917:3938  msg.sender == playerB */\n      0xffffffffffffffffffffffffffffffffffffffff\n      and\n      eq\n        /* \"contracts/bdl cw2..sol\":3913:4026  if (msg.sender == playerB){\r... */\n      iszero\n      tag_98\n      jumpi\n        /* \"contracts/bdl cw2..sol\":3972:3973  0 */\n      0x00\n        /* \"contracts/bdl cw2..sol\":3954:3961  playerB */\n      0x05\n      0x00\n        /* \"contracts/bdl cw2..sol\":3954:3974  playerB = address(0) */\n      0x0100\n      exp\n      dup2\n      sload\n      dup2\n      0xffffffffffffffffffffffffffffffffffffffff\n      mul\n      not\n      and\n      swap1\n      dup4\n      0xffffffffffffffffffffffffffffffffffffffff\n      and\n      mul\n      or\n      swap1\n      sstore\n      pop\n        /* \"contracts/bdl cw2..sol\":4013:4014  0 */\n      0x00\n        /* \"contracts/bdl cw2..sol\":3989:4001  random_value */\n      0x03\n        /* \"contracts/bdl cw2..sol\":3989:4010  random_value[playerB] */\n      0x00\n        /* \"contracts/bdl cw2..sol\":4002:4009  playerB */\n      0x05\n      0x00\n      swap1\n      sload\n      swap1\n      0x0100\n      exp\n      swap1\n      div\n      0xffffffffffffffffffffffffffffffffffffffff\n      and\n        /* \"contracts/bdl cw2..sol\":3989:4010  random_value[playerB] */\n      0xffffffffffffffffffffffffffffffffffffffff\n      and\n      0xffffffffffffffffffffffffffffffffffffffff\n      and\n      dup2\n      mstore\n      0x20\n      add\n      swap1\n      dup2\n      mstore\n      0x20\n      add\n      0x00\n      keccak256\n        /* \"contracts/bdl cw2..sol\":3989:4014  random_value[playerB] = 0 */\n      dup2\n      swap1\n      sstore\n      pop\n        /* \"contracts/bdl cw2..sol\":3913:4026  if (msg.sender == playerB){\r... */\n    tag_98:\n        /* \"contracts/bdl cw2..sol\":3795:4026  if(msg.sender == playerA){\r... */\n    tag_97:\n        /* \"contracts/bdl cw2..sol\":4058:4059  0 */\n      0x00\n        /* \"contracts/bdl cw2..sol\":4039:4060  playerA == address(0) */\n      0xffffffffffffffffffffffffffffffffffffffff\n      and\n        /* \"contracts/bdl cw2..sol\":4039:4046  playerA */\n      0x04\n      0x00\n      swap1\n      sload\n      swap1\n      0x0100\n      exp\n      swap1\n      div\n      0xffffffffffffffffffffffffffffffffffffffff\n      and\n        /* \"contracts/bdl cw2..sol\":4039:4060  playerA == address(0) */\n      0xffffffffffffffffffffffffffffffffffffffff\n      and\n      eq\n        /* \"contracts/bdl cw2..sol\":4039:4085  playerA == address(0) && playerB == address(0) */\n      dup1\n      iszero\n      tag_99\n      jumpi\n      pop\n        /* \"contracts/bdl cw2..sol\":4083:4084  0 */\n      0x00\n        /* \"contracts/bdl cw2..sol\":4064:4085  playerB == address(0) */\n      0xffffffffffffffffffffffffffffffffffffffff\n      and\n        /* \"contracts/bdl cw2..sol\":4064:4071  playerB */\n      0x05\n      0x00\n      swap1\n      sload\n      swap1\n      0x0100\n      exp\n      swap1\n      div\n      0xffffffffffffffffffffffffffffffffffffffff\n      and\n        /* \"contracts/bdl cw2..sol\":4064:4085  playerB == address(0) */\n      0xffffffffffffffffffffffffffffffffffffffff\n      and\n      eq\n        /* \"contracts/bdl cw2..sol\":4039:4085  playerA == address(0) && playerB == address(0) */\n    tag_99:\n        /* \"contracts/bdl cw2..sol\":4036:4121  if(playerA == address(0) && playerB == address(0)){\r... */\n      iszero\n      tag_100\n      jumpi\n        /* \"contracts/bdl cw2..sol\":4108:4109  0 */\n      0x00\n        /* \"contracts/bdl cw2..sol\":4101:4105  dice */\n      0x06\n        /* \"contracts/bdl cw2..sol\":4101:4109  dice = 0 */\n      dup2\n      swap1\n      sstore\n      pop\n        /* \"contracts/bdl cw2..sol\":4036:4121  if(playerA == address(0) && playerB == address(0)){\r... */\n    tag_100:\n        /* \"contracts/bdl cw2..sol\":3760:4128  function reset() public {\r... */\n      jump\t// out\n        /* \"contracts/bdl cw2..sol\":4283:4502  function resetAndWithdraw() public {\r... */\n    tag_31:\n        /* \"contracts/bdl cw2..sol\":4348:4355  reset() */\n      tag_102\n        /* \"contracts/bdl cw2..sol\":4348:4353  reset */\n      tag_28\n        /* \"contracts/bdl cw2..sol\":4348:4355  reset() */\n      jump\t// in\n    tag_102:\n        /* \"contracts/bdl cw2..sol\":4366:4375  uint256 b */\n      0x00\n        /* \"contracts/bdl cw2..sol\":4378:4385  balance */\n      0x01\n        /* \"contracts/bdl cw2..sol\":4378:4397  balance[msg.sender] */\n      0x00\n        /* \"contracts/bdl cw2..sol\":4386:4396  msg.sender */\n      caller\n        /* \"contracts/bdl cw2..sol\":4378:4397  balance[msg.sender] */\n      0xffffffffffffffffffffffffffffffffffffffff\n      and\n      0xffffffffffffffffffffffffffffffffffffffff\n      and\n      dup2\n      mstore\n      0x20\n      add\n      swap1\n      dup2\n      mstore\n      0x20\n      add\n      0x00\n      keccak256\n      sload\n        /* \"contracts/bdl cw2..sol\":4366:4397  uint256 b = balance[msg.sender] */\n      swap1\n      pop\n        /* \"contracts/bdl cw2..sol\":4430:4431  0 */\n      0x00\n        /* \"contracts/bdl cw2..sol\":4408:4415  balance */\n      0x01\n        /* \"contracts/bdl cw2..sol\":4408:4427  balance[msg.sender] */\n      0x00\n        /* \"contracts/bdl cw2..sol\":4416:4426  msg.sender */\n      caller\n        /* \"contracts/bdl cw2..sol\":4408:4427  balance[msg.sender] */\n      0xffffffffffffffffffffffffffffffffffffffff\n      and\n      0xffffffffffffffffffffffffffffffffffffffff\n      and\n      dup2\n      mstore\n      0x20\n      add\n      swap1\n      dup2\n      mstore\n      0x20\n      add\n      0x00\n      keccak256\n        /* \"contracts/bdl cw2..sol\":4408:4431  balance[msg.sender] = 0 */\n      dup2\n      swap1\n      sstore\n      pop\n        /* \"contracts/bdl cw2..sol\":4471:4481  msg.sender */\n      caller\n        /* \"contracts/bdl cw2..sol\":4463:4491  payable(msg.sender).transfer */\n      0xffffffffffffffffffffffffffffffffffffffff\n      and\n        /* \"contracts/bdl cw2..sol\":4463:4494  payable(msg.sender).transfer(b) */\n      0x08fc\n        /* \"contracts/bdl cw2..sol\":4492:4493  b */\n      dup3\n        /* \"contracts/bdl cw2..sol\":4463:4494  payable(msg.sender).transfer(b) */\n      swap1\n      dup2\n      iszero\n      mul\n      swap1\n      mload(0x40)\n      0x00\n      mload(0x40)\n      dup1\n      dup4\n      sub\n      dup2\n      dup6\n      dup9\n      dup9\n      call\n      swap4\n      pop\n      pop\n      pop\n      pop\n      iszero\n      dup1\n      iszero\n      tag_104\n      jumpi\n      returndatasize\n      0x00\n      dup1\n      returndatacopy\n      revert(0x00, returndatasize)\n    tag_104:\n      pop\n        /* \"contracts/bdl cw2..sol\":4318:4502  {\r... */\n      pop\n        /* \"contracts/bdl cw2..sol\":4283:4502  function resetAndWithdraw() public {\r... */\n      jump\t// out\n        /* \"#utility.yul\":7:146   */\n    tag_106:\n        /* \"#utility.yul\":53:58   */\n      0x00\n        /* \"#utility.yul\":91:97   */\n      dup2\n        /* \"#utility.yul\":78:98   */\n      calldataload\n        /* \"#utility.yul\":69:98   */\n      swap1\n      pop\n        /* \"#utility.yul\":107:140   */\n      tag_108\n        /* \"#utility.yul\":134:139   */\n      dup2\n        /* \"#utility.yul\":107:140   */\n      tag_109\n      jump\t// in\n    tag_108:\n        /* \"#utility.yul\":7:146   */\n      swap3\n      swap2\n      pop\n      pop\n      jump\t// out\n        /* \"#utility.yul\":152:291   */\n    tag_110:\n        /* \"#utility.yul\":198:203   */\n      0x00\n        /* \"#utility.yul\":236:242   */\n      dup2\n        /* \"#utility.yul\":223:243   */\n      calldataload\n        /* \"#utility.yul\":214:243   */\n      swap1\n      pop\n        /* \"#utility.yul\":252:285   */\n      tag_112\n        /* \"#utility.yul\":279:284   */\n      dup2\n        /* \"#utility.yul\":252:285   */\n      tag_113\n      jump\t// in\n    tag_112:\n        /* \"#utility.yul\":152:291   */\n      swap3\n      swap2\n      pop\n      pop\n      jump\t// out\n        /* \"#utility.yul\":297:626   */\n    tag_21:\n        /* \"#utility.yul\":356:362   */\n      0x00\n        /* \"#utility.yul\":405:407   */\n      0x20\n        /* \"#utility.yul\":393:402   */\n      dup3\n        /* \"#utility.yul\":384:391   */\n      dup5\n        /* \"#utility.yul\":380:403   */\n      sub\n        /* \"#utility.yul\":376:408   */\n      slt\n        /* \"#utility.yul\":373:492   */\n      iszero\n      tag_115\n      jumpi\n        /* \"#utility.yul\":411:490   */\n      tag_116\n      tag_117\n      jump\t// in\n    tag_116:\n        /* \"#utility.yul\":373:492   */\n    tag_115:\n        /* \"#utility.yul\":531:532   */\n      0x00\n        /* \"#utility.yul\":556:609   */\n      tag_118\n        /* \"#utility.yul\":601:608   */\n      dup5\n        /* \"#utility.yul\":592:598   */\n      dup3\n        /* \"#utility.yul\":581:590   */\n      dup6\n        /* \"#utility.yul\":577:599   */\n      add\n        /* \"#utility.yul\":556:609   */\n      tag_106\n      jump\t// in\n    tag_118:\n        /* \"#utility.yul\":546:609   */\n      swap2\n      pop\n        /* \"#utility.yul\":502:619   */\n      pop\n        /* \"#utility.yul\":297:626   */\n      swap3\n      swap2\n      pop\n      pop\n      jump\t// out\n        /* \"#utility.yul\":632:961   */\n    tag_11:\n        /* \"#utility.yul\":691:697   */\n      0x00\n        /* \"#utility.yul\":740:742   */\n      0x20\n        /* \"#utility.yul\":728:737   */\n      dup3\n        /* \"#utility.yul\":719:726   */\n      dup5\n        /* \"#utility.yul\":715:738   */\n      sub\n        /* \"#utility.yul\":711:743   */\n      slt\n        /* \"#utility.yul\":708:827   */\n      iszero\n      tag_120\n      jumpi\n        /* \"#utility.yul\":746:825   */\n      tag_121\n      tag_117\n      jump\t// in\n    tag_121:\n        /* \"#utility.yul\":708:827   */\n    tag_120:\n        /* \"#utility.yul\":866:867   */\n      0x00\n        /* \"#utility.yul\":891:944   */\n      tag_122\n        /* \"#utility.yul\":936:943   */\n      dup5\n        /* \"#utility.yul\":927:933   */\n      dup3\n        /* \"#utility.yul\":916:925   */\n      dup6\n        /* \"#utility.yul\":912:934   */\n      add\n        /* \"#utility.yul\":891:944   */\n      tag_110\n      jump\t// in\n    tag_122:\n        /* \"#utility.yul\":881:944   */\n      swap2\n      pop\n        /* \"#utility.yul\":837:954   */\n      pop\n        /* \"#utility.yul\":632:961   */\n      swap3\n      swap2\n      pop\n      pop\n      jump\t// out\n        /* \"#utility.yul\":967:1333   */\n    tag_123:\n        /* \"#utility.yul\":1109:1112   */\n      0x00\n        /* \"#utility.yul\":1130:1197   */\n      tag_125\n        /* \"#utility.yul\":1194:1196   */\n      0x0f\n        /* \"#utility.yul\":1189:1192   */\n      dup4\n        /* \"#utility.yul\":1130:1197   */\n      tag_126\n      jump\t// in\n    tag_125:\n        /* \"#utility.yul\":1123:1197   */\n      swap2\n      pop\n        /* \"#utility.yul\":1206:1299   */\n      tag_127\n        /* \"#utility.yul\":1295:1298   */\n      dup3\n        /* \"#utility.yul\":1206:1299   */\n      tag_128\n      jump\t// in\n    tag_127:\n        /* \"#utility.yul\":1324:1326   */\n      0x20\n        /* \"#utility.yul\":1319:1322   */\n      dup3\n        /* \"#utility.yul\":1315:1327   */\n      add\n        /* \"#utility.yul\":1308:1327   */\n      swap1\n      pop\n        /* \"#utility.yul\":967:1333   */\n      swap2\n      swap1\n      pop\n      jump\t// out\n        /* \"#utility.yul\":1339:1705   */\n    tag_129:\n        /* \"#utility.yul\":1481:1484   */\n      0x00\n        /* \"#utility.yul\":1502:1569   */\n      tag_131\n        /* \"#utility.yul\":1566:1568   */\n      0x10\n        /* \"#utility.yul\":1561:1564   */\n      dup4\n        /* \"#utility.yul\":1502:1569   */\n      tag_126\n      jump\t// in\n    tag_131:\n        /* \"#utility.yul\":1495:1569   */\n      swap2\n      pop\n        /* \"#utility.yul\":1578:1671   */\n      tag_132\n        /* \"#utility.yul\":1667:1670   */\n      dup3\n        /* \"#utility.yul\":1578:1671   */\n      tag_133\n      jump\t// in\n    tag_132:\n        /* \"#utility.yul\":1696:1698   */\n      0x20\n        /* \"#utility.yul\":1691:1694   */\n      dup3\n        /* \"#utility.yul\":1687:1699   */\n      add\n        /* \"#utility.yul\":1680:1699   */\n      swap1\n      pop\n        /* \"#utility.yul\":1339:1705   */\n      swap2\n      swap1\n      pop\n      jump\t// out\n        /* \"#utility.yul\":1711:2077   */\n    tag_134:\n        /* \"#utility.yul\":1853:1856   */\n      0x00\n        /* \"#utility.yul\":1874:1941   */\n      tag_136\n        /* \"#utility.yul\":1938:1940   */\n      0x1d\n        /* \"#utility.yul\":1933:1936   */\n      dup4\n        /* \"#utility.yul\":1874:1941   */\n      tag_126\n      jump\t// in\n    tag_136:\n        /* \"#utility.yul\":1867:1941   */\n      swap2\n      pop\n        /* \"#utility.yul\":1950:2043   */\n      tag_137\n        /* \"#utility.yul\":2039:2042   */\n      dup3\n        /* \"#utility.yul\":1950:2043   */\n      tag_138\n      jump\t// in\n    tag_137:\n        /* \"#utility.yul\":2068:2070   */\n      0x20\n        /* \"#utility.yul\":2063:2066   */\n      dup3\n        /* \"#utility.yul\":2059:2071   */\n      add\n        /* \"#utility.yul\":2052:2071   */\n      swap1\n      pop\n        /* \"#utility.yul\":1711:2077   */\n      swap2\n      swap1\n      pop\n      jump\t// out\n        /* \"#utility.yul\":2083:2449   */\n    tag_139:\n        /* \"#utility.yul\":2225:2228   */\n      0x00\n        /* \"#utility.yul\":2246:2313   */\n      tag_141\n        /* \"#utility.yul\":2310:2312   */\n      0x0f\n        /* \"#utility.yul\":2305:2308   */\n      dup4\n        /* \"#utility.yul\":2246:2313   */\n      tag_126\n      jump\t// in\n    tag_141:\n        /* \"#utility.yul\":2239:2313   */\n      swap2\n      pop\n        /* \"#utility.yul\":2322:2415   */\n      tag_142\n        /* \"#utility.yul\":2411:2414   */\n      dup3\n        /* \"#utility.yul\":2322:2415   */\n      tag_143\n      jump\t// in\n    tag_142:\n        /* \"#utility.yul\":2440:2442   */\n      0x20\n        /* \"#utility.yul\":2435:2438   */\n      dup3\n        /* \"#utility.yul\":2431:2443   */\n      add\n        /* \"#utility.yul\":2424:2443   */\n      swap1\n      pop\n        /* \"#utility.yul\":2083:2449   */\n      swap2\n      swap1\n      pop\n      jump\t// out\n        /* \"#utility.yul\":2455:2821   */\n    tag_144:\n        /* \"#utility.yul\":2597:2600   */\n      0x00\n        /* \"#utility.yul\":2618:2685   */\n      tag_146\n        /* \"#utility.yul\":2682:2684   */\n      0x22\n        /* \"#utility.yul\":2677:2680   */\n      dup4\n        /* \"#utility.yul\":2618:2685   */\n      tag_126\n      jump\t// in\n    tag_146:\n        /* \"#utility.yul\":2611:2685   */\n      swap2\n      pop\n        /* \"#utility.yul\":2694:2787   */\n      tag_147\n        /* \"#utility.yul\":2783:2786   */\n      dup3\n        /* \"#utility.yul\":2694:2787   */\n      tag_148\n      jump\t// in\n    tag_147:\n        /* \"#utility.yul\":2812:2814   */\n      0x40\n        /* \"#utility.yul\":2807:2810   */\n      dup3\n        /* \"#utility.yul\":2803:2815   */\n      add\n        /* \"#utility.yul\":2796:2815   */\n      swap1\n      pop\n        /* \"#utility.yul\":2455:2821   */\n      swap2\n      swap1\n      pop\n      jump\t// out\n        /* \"#utility.yul\":2827:3193   */\n    tag_149:\n        /* \"#utility.yul\":2969:2972   */\n      0x00\n        /* \"#utility.yul\":2990:3057   */\n      tag_151\n        /* \"#utility.yul\":3054:3056   */\n      0x1d\n        /* \"#utility.yul\":3049:3052   */\n      dup4\n        /* \"#utility.yul\":2990:3057   */\n      tag_126\n      jump\t// in\n    tag_151:\n        /* \"#utility.yul\":2983:3057   */\n      swap2\n      pop\n        /* \"#utility.yul\":3066:3159   */\n      tag_152\n        /* \"#utility.yul\":3155:3158   */\n      dup3\n        /* \"#utility.yul\":3066:3159   */\n      tag_153\n      jump\t// in\n    tag_152:\n        /* \"#utility.yul\":3184:3186   */\n      0x20\n        /* \"#utility.yul\":3179:3182   */\n      dup3\n        /* \"#utility.yul\":3175:3187   */\n      add\n        /* \"#utility.yul\":3168:3187   */\n      swap1\n      pop\n        /* \"#utility.yul\":2827:3193   */\n      swap2\n      swap1\n      pop\n      jump\t// out\n        /* \"#utility.yul\":3199:3565   */\n    tag_154:\n        /* \"#utility.yul\":3341:3344   */\n      0x00\n        /* \"#utility.yul\":3362:3429   */\n      tag_156\n        /* \"#utility.yul\":3426:3428   */\n      0x0a\n        /* \"#utility.yul\":3421:3424   */\n      dup4\n        /* \"#utility.yul\":3362:3429   */\n      tag_126\n      jump\t// in\n    tag_156:\n        /* \"#utility.yul\":3355:3429   */\n      swap2\n      pop\n        /* \"#utility.yul\":3438:3531   */\n      tag_157\n        /* \"#utility.yul\":3527:3530   */\n      dup3\n        /* \"#utility.yul\":3438:3531   */\n      tag_158\n      jump\t// in\n    tag_157:\n        /* \"#utility.yul\":3556:3558   */\n      0x20\n        /* \"#utility.yul\":3551:3554   */\n      dup3\n        /* \"#utility.yul\":3547:3559   */\n      add\n        /* \"#utility.yul\":3540:3559   */\n      swap1\n      pop\n        /* \"#utility.yul\":3199:3565   */\n      swap2\n      swap1\n      pop\n      jump\t// out\n        /* \"#utility.yul\":3571:3937   */\n    tag_159:\n        /* \"#utility.yul\":3713:3716   */\n      0x00\n        /* \"#utility.yul\":3734:3801   */\n      tag_161\n        /* \"#utility.yul\":3798:3800   */\n      0x1c\n        /* \"#utility.yul\":3793:3796   */\n      dup4\n        /* \"#utility.yul\":3734:3801   */\n      tag_126\n      jump\t// in\n    tag_161:\n        /* \"#utility.yul\":3727:3801   */\n      swap2\n      pop\n        /* \"#utility.yul\":3810:3903   */\n      tag_162\n        /* \"#utility.yul\":3899:3902   */\n      dup3\n        /* \"#utility.yul\":3810:3903   */\n      tag_163\n      jump\t// in\n    tag_162:\n        /* \"#utility.yul\":3928:3930   */\n      0x20\n        /* \"#utility.yul\":3923:3926   */\n      dup3\n        /* \"#utility.yul\":3919:3931   */\n      add\n        /* \"#utility.yul\":3912:3931   */\n      swap1\n      pop\n        /* \"#utility.yul\":3571:3937   */\n      swap2\n      swap1\n      pop\n      jump\t// out\n        /* \"#utility.yul\":3943:4309   */\n    tag_164:\n        /* \"#utility.yul\":4085:4088   */\n      0x00\n        /* \"#utility.yul\":4106:4173   */\n      tag_166\n        /* \"#utility.yul\":4170:4172   */\n      0x1c\n        /* \"#utility.yul\":4165:4168   */\n      dup4\n        /* \"#utility.yul\":4106:4173   */\n      tag_126\n      jump\t// in\n    tag_166:\n        /* \"#utility.yul\":4099:4173   */\n      swap2\n      pop\n        /* \"#utility.yul\":4182:4275   */\n      tag_167\n        /* \"#utility.yul\":4271:4274   */\n      dup3\n        /* \"#utility.yul\":4182:4275   */\n      tag_168\n      jump\t// in\n    tag_167:\n        /* \"#utility.yul\":4300:4302   */\n      0x20\n        /* \"#utility.yul\":4295:4298   */\n      dup3\n        /* \"#utility.yul\":4291:4303   */\n      add\n        /* \"#utility.yul\":4284:4303   */\n      swap1\n      pop\n        /* \"#utility.yul\":3943:4309   */\n      swap2\n      swap1\n      pop\n      jump\t// out\n        /* \"#utility.yul\":4315:4681   */\n    tag_169:\n        /* \"#utility.yul\":4457:4460   */\n      0x00\n        /* \"#utility.yul\":4478:4545   */\n      tag_171\n        /* \"#utility.yul\":4542:4544   */\n      0x10\n        /* \"#utility.yul\":4537:4540   */\n      dup4\n        /* \"#utility.yul\":4478:4545   */\n      tag_126\n      jump\t// in\n    tag_171:\n        /* \"#utility.yul\":4471:4545   */\n      swap2\n      pop\n        /* \"#utility.yul\":4554:4647   */\n      tag_172\n        /* \"#utility.yul\":4643:4646   */\n      dup3\n        /* \"#utility.yul\":4554:4647   */\n      tag_173\n      jump\t// in\n    tag_172:\n        /* \"#utility.yul\":4672:4674   */\n      0x20\n        /* \"#utility.yul\":4667:4670   */\n      dup3\n        /* \"#utility.yul\":4663:4675   */\n      add\n        /* \"#utility.yul\":4656:4675   */\n      swap1\n      pop\n        /* \"#utility.yul\":4315:4681   */\n      swap2\n      swap1\n      pop\n      jump\t// out\n        /* \"#utility.yul\":4687:4805   */\n    tag_174:\n        /* \"#utility.yul\":4774:4798   */\n      tag_176\n        /* \"#utility.yul\":4792:4797   */\n      dup2\n        /* \"#utility.yul\":4774:4798   */\n      tag_177\n      jump\t// in\n    tag_176:\n        /* \"#utility.yul\":4769:4772   */\n      dup3\n        /* \"#utility.yul\":4762:4799   */\n      mstore\n        /* \"#utility.yul\":4687:4805   */\n      pop\n      pop\n      jump\t// out\n        /* \"#utility.yul\":4811:4968   */\n    tag_178:\n        /* \"#utility.yul\":4916:4961   */\n      tag_180\n        /* \"#utility.yul\":4936:4960   */\n      tag_181\n        /* \"#utility.yul\":4954:4959   */\n      dup3\n        /* \"#utility.yul\":4936:4960   */\n      tag_177\n      jump\t// in\n    tag_181:\n        /* \"#utility.yul\":4916:4961   */\n      tag_182\n      jump\t// in\n    tag_180:\n        /* \"#utility.yul\":4911:4914   */\n      dup3\n        /* \"#utility.yul\":4904:4962   */\n      mstore\n        /* \"#utility.yul\":4811:4968   */\n      pop\n      pop\n      jump\t// out\n        /* \"#utility.yul\":4974:5230   */\n    tag_34:\n        /* \"#utility.yul\":5086:5089   */\n      0x00\n        /* \"#utility.yul\":5101:5176   */\n      tag_184\n        /* \"#utility.yul\":5172:5175   */\n      dup3\n        /* \"#utility.yul\":5163:5169   */\n      dup5\n        /* \"#utility.yul\":5101:5176   */\n      tag_178\n      jump\t// in\n    tag_184:\n        /* \"#utility.yul\":5201:5203   */\n      0x20\n        /* \"#utility.yul\":5196:5199   */\n      dup3\n        /* \"#utility.yul\":5192:5204   */\n      add\n        /* \"#utility.yul\":5185:5204   */\n      swap2\n      pop\n        /* \"#utility.yul\":5221:5224   */\n      dup2\n        /* \"#utility.yul\":5214:5224   */\n      swap1\n      pop\n        /* \"#utility.yul\":4974:5230   */\n      swap3\n      swap2\n      pop\n      pop\n      jump\t// out\n        /* \"#utility.yul\":5236:5655   */\n    tag_90:\n        /* \"#utility.yul\":5402:5406   */\n      0x00\n        /* \"#utility.yul\":5440:5442   */\n      0x20\n        /* \"#utility.yul\":5429:5438   */\n      dup3\n        /* \"#utility.yul\":5425:5443   */\n      add\n        /* \"#utility.yul\":5417:5443   */\n      swap1\n      pop\n        /* \"#utility.yul\":5489:5498   */\n      dup2\n        /* \"#utility.yul\":5483:5487   */\n      dup2\n        /* \"#utility.yul\":5479:5499   */\n      sub\n        /* \"#utility.yul\":5475:5476   */\n      0x00\n        /* \"#utility.yul\":5464:5473   */\n      dup4\n        /* \"#utility.yul\":5460:5477   */\n      add\n        /* \"#utility.yul\":5453:5500   */\n      mstore\n        /* \"#utility.yul\":5517:5648   */\n      tag_186\n        /* \"#utility.yul\":5643:5647   */\n      dup2\n        /* \"#utility.yul\":5517:5648   */\n      tag_123\n      jump\t// in\n    tag_186:\n        /* \"#utility.yul\":5509:5648   */\n      swap1\n      pop\n        /* \"#utility.yul\":5236:5655   */\n      swap2\n      swap1\n      pop\n      jump\t// out\n        /* \"#utility.yul\":5661:6080   */\n    tag_43:\n        /* \"#utility.yul\":5827:5831   */\n      0x00\n        /* \"#utility.yul\":5865:5867   */\n      0x20\n        /* \"#utility.yul\":5854:5863   */\n      dup3\n        /* \"#utility.yul\":5850:5868   */\n      add\n        /* \"#utility.yul\":5842:5868   */\n      swap1\n      pop\n        /* \"#utility.yul\":5914:5923   */\n      dup2\n        /* \"#utility.yul\":5908:5912   */\n      dup2\n        /* \"#utility.yul\":5904:5924   */\n      sub\n        /* \"#utility.yul\":5900:5901   */\n      0x00\n        /* \"#utility.yul\":5889:5898   */\n      dup4\n        /* \"#utility.yul\":5885:5902   */\n      add\n        /* \"#utility.yul\":5878:5925   */\n      mstore\n        /* \"#utility.yul\":5942:6073   */\n      tag_188\n        /* \"#utility.yul\":6068:6072   */\n      dup2\n        /* \"#utility.yul\":5942:6073   */\n      tag_129\n      jump\t// in\n    tag_188:\n        /* \"#utility.yul\":5934:6073   */\n      swap1\n      pop\n        /* \"#utility.yul\":5661:6080   */\n      swap2\n      swap1\n      pop\n      jump\t// out\n        /* \"#utility.yul\":6086:6505   */\n    tag_93:\n        /* \"#utility.yul\":6252:6256   */\n      0x00\n        /* \"#utility.yul\":6290:6292   */\n      0x20\n        /* \"#utility.yul\":6279:6288   */\n      dup3\n        /* \"#utility.yul\":6275:6293   */\n      add\n        /* \"#utility.yul\":6267:6293   */\n      swap1\n      pop\n        /* \"#utility.yul\":6339:6348   */\n      dup2\n        /* \"#utility.yul\":6333:6337   */\n      dup2\n        /* \"#utility.yul\":6329:6349   */\n      sub\n        /* \"#utility.yul\":6325:6326   */\n      0x00\n        /* \"#utility.yul\":6314:6323   */\n      dup4\n        /* \"#utility.yul\":6310:6327   */\n      add\n        /* \"#utility.yul\":6303:6350   */\n      mstore\n        /* \"#utility.yul\":6367:6498   */\n      tag_190\n        /* \"#utility.yul\":6493:6497   */\n      dup2\n        /* \"#utility.yul\":6367:6498   */\n      tag_134\n      jump\t// in\n    tag_190:\n        /* \"#utility.yul\":6359:6498   */\n      swap1\n      pop\n        /* \"#utility.yul\":6086:6505   */\n      swap2\n      swap1\n      pop\n      jump\t// out\n        /* \"#utility.yul\":6511:6930   */\n    tag_77:\n        /* \"#utility.yul\":6677:6681   */\n      0x00\n        /* \"#utility.yul\":6715:6717   */\n      0x20\n        /* \"#utility.yul\":6704:6713   */\n      dup3\n        /* \"#utility.yul\":6700:6718   */\n      add\n        /* \"#utility.yul\":6692:6718   */\n      swap1\n      pop\n        /* \"#utility.yul\":6764:6773   */\n      dup2\n        /* \"#utility.yul\":6758:6762   */\n      dup2\n        /* \"#utility.yul\":6754:6774   */\n      sub\n        /* \"#utility.yul\":6750:6751   */\n      0x00\n        /* \"#utility.yul\":6739:6748   */\n      dup4\n        /* \"#utility.yul\":6735:6752   */\n      add\n        /* \"#utility.yul\":6728:6775   */\n      mstore\n        /* \"#utility.yul\":6792:6923   */\n      tag_192\n        /* \"#utility.yul\":6918:6922   */\n      dup2\n        /* \"#utility.yul\":6792:6923   */\n      tag_139\n      jump\t// in\n    tag_192:\n        /* \"#utility.yul\":6784:6923   */\n      swap1\n      pop\n        /* \"#utility.yul\":6511:6930   */\n      swap2\n      swap1\n      pop\n      jump\t// out\n        /* \"#utility.yul\":6936:7355   */\n    tag_46:\n        /* \"#utility.yul\":7102:7106   */\n      0x00\n        /* \"#utility.yul\":7140:7142   */\n      0x20\n        /* \"#utility.yul\":7129:7138   */\n      dup3\n        /* \"#utility.yul\":7125:7143   */\n      add\n        /* \"#utility.yul\":7117:7143   */\n      swap1\n      pop\n        /* \"#utility.yul\":7189:7198   */\n      dup2\n        /* \"#utility.yul\":7183:7187   */\n      dup2\n        /* \"#utility.yul\":7179:7199   */\n      sub\n        /* \"#utility.yul\":7175:7176   */\n      0x00\n        /* \"#utility.yul\":7164:7173   */\n      dup4\n        /* \"#utility.yul\":7160:7177   */\n      add\n        /* \"#utility.yul\":7153:7200   */\n      mstore\n        /* \"#utility.yul\":7217:7348   */\n      tag_194\n        /* \"#utility.yul\":7343:7347   */\n      dup2\n        /* \"#utility.yul\":7217:7348   */\n      tag_144\n      jump\t// in\n    tag_194:\n        /* \"#utility.yul\":7209:7348   */\n      swap1\n      pop\n        /* \"#utility.yul\":6936:7355   */\n      swap2\n      swap1\n      pop\n      jump\t// out\n        /* \"#utility.yul\":7361:7780   */\n    tag_80:\n        /* \"#utility.yul\":7527:7531   */\n      0x00\n        /* \"#utility.yul\":7565:7567   */\n      0x20\n        /* \"#utility.yul\":7554:7563   */\n      dup3\n        /* \"#utility.yul\":7550:7568   */\n      add\n        /* \"#utility.yul\":7542:7568   */\n      swap1\n      pop\n        /* \"#utility.yul\":7614:7623   */\n      dup2\n        /* \"#utility.yul\":7608:7612   */\n      dup2\n        /* \"#utility.yul\":7604:7624   */\n      sub\n        /* \"#utility.yul\":7600:7601   */\n      0x00\n        /* \"#utility.yul\":7589:7598   */\n      dup4\n        /* \"#utility.yul\":7585:7602   */\n      add\n        /* \"#utility.yul\":7578:7625   */\n      mstore\n        /* \"#utility.yul\":7642:7773   */\n      tag_196\n        /* \"#utility.yul\":7768:7772   */\n      dup2\n        /* \"#utility.yul\":7642:7773   */\n      tag_149\n      jump\t// in\n    tag_196:\n        /* \"#utility.yul\":7634:7773   */\n      swap1\n      pop\n        /* \"#utility.yul\":7361:7780   */\n      swap2\n      swap1\n      pop\n      jump\t// out\n        /* \"#utility.yul\":7786:8205   */\n    tag_37:\n        /* \"#utility.yul\":7952:7956   */\n      0x00\n        /* \"#utility.yul\":7990:7992   */\n      0x20\n        /* \"#utility.yul\":7979:7988   */\n      dup3\n        /* \"#utility.yul\":7975:7993   */\n      add\n        /* \"#utility.yul\":7967:7993   */\n      swap1\n      pop\n        /* \"#utility.yul\":8039:8048   */\n      dup2\n        /* \"#utility.yul\":8033:8037   */\n      dup2\n        /* \"#utility.yul\":8029:8049   */\n      sub\n        /* \"#utility.yul\":8025:8026   */\n      0x00\n        /* \"#utility.yul\":8014:8023   */\n      dup4\n        /* \"#utility.yul\":8010:8027   */\n      add\n        /* \"#utility.yul\":8003:8050   */\n      mstore\n        /* \"#utility.yul\":8067:8198   */\n      tag_198\n        /* \"#utility.yul\":8193:8197   */\n      dup2\n        /* \"#utility.yul\":8067:8198   */\n      tag_154\n      jump\t// in\n    tag_198:\n        /* \"#utility.yul\":8059:8198   */\n      swap1\n      pop\n        /* \"#utility.yul\":7786:8205   */\n      swap2\n      swap1\n      pop\n      jump\t// out\n        /* \"#utility.yul\":8211:8630   */\n    tag_74:\n        /* \"#utility.yul\":8377:8381   */\n      0x00\n        /* \"#utility.yul\":8415:8417   */\n      0x20\n        /* \"#utility.yul\":8404:8413   */\n      dup3\n        /* \"#utility.yul\":8400:8418   */\n      add\n        /* \"#utility.yul\":8392:8418   */\n      swap1\n      pop\n        /* \"#utility.yul\":8464:8473   */\n      dup2\n        /* \"#utility.yul\":8458:8462   */\n      dup2\n        /* \"#utility.yul\":8454:8474   */\n      sub\n        /* \"#utility.yul\":8450:8451   */\n      0x00\n        /* \"#utility.yul\":8439:8448   */\n      dup4\n        /* \"#utility.yul\":8435:8452   */\n      add\n        /* \"#utility.yul\":8428:8475   */\n      mstore\n        /* \"#utility.yul\":8492:8623   */\n      tag_200\n        /* \"#utility.yul\":8618:8622   */\n      dup2\n        /* \"#utility.yul\":8492:8623   */\n      tag_159\n      jump\t// in\n    tag_200:\n        /* \"#utility.yul\":8484:8623   */\n      swap1\n      pop\n        /* \"#utility.yul\":8211:8630   */\n      swap2\n      swap1\n      pop\n      jump\t// out\n        /* \"#utility.yul\":8636:9055   */\n    tag_71:\n        /* \"#utility.yul\":8802:8806   */\n      0x00\n        /* \"#utility.yul\":8840:8842   */\n      0x20\n        /* \"#utility.yul\":8829:8838   */\n      dup3\n        /* \"#utility.yul\":8825:8843   */\n      add\n        /* \"#utility.yul\":8817:8843   */\n      swap1\n      pop\n        /* \"#utility.yul\":8889:8898   */\n      dup2\n        /* \"#utility.yul\":8883:8887   */\n      dup2\n        /* \"#utility.yul\":8879:8899   */\n      sub\n        /* \"#utility.yul\":8875:8876   */\n      0x00\n        /* \"#utility.yul\":8864:8873   */\n      dup4\n        /* \"#utility.yul\":8860:8877   */\n      add\n        /* \"#utility.yul\":8853:8900   */\n      mstore\n        /* \"#utility.yul\":8917:9048   */\n      tag_202\n        /* \"#utility.yul\":9043:9047   */\n      dup2\n        /* \"#utility.yul\":8917:9048   */\n      tag_164\n      jump\t// in\n    tag_202:\n        /* \"#utility.yul\":8909:9048   */\n      swap1\n      pop\n        /* \"#utility.yul\":8636:9055   */\n      swap2\n      swap1\n      pop\n      jump\t// out\n        /* \"#utility.yul\":9061:9480   */\n    tag_40:\n        /* \"#utility.yul\":9227:9231   */\n      0x00\n        /* \"#utility.yul\":9265:9267   */\n      0x20\n        /* \"#utility.yul\":9254:9263   */\n      dup3\n        /* \"#utility.yul\":9250:9268   */\n      add\n        /* \"#utility.yul\":9242:9268   */\n      swap1\n      pop\n        /* \"#utility.yul\":9314:9323   */\n      dup2\n        /* \"#utility.yul\":9308:9312   */\n      dup2\n        /* \"#utility.yul\":9304:9324   */\n      sub\n        /* \"#utility.yul\":9300:9301   */\n      0x00\n        /* \"#utility.yul\":9289:9298   */\n      dup4\n        /* \"#utility.yul\":9285:9302   */\n      add\n        /* \"#utility.yul\":9278:9325   */\n      mstore\n        /* \"#utility.yul\":9342:9473   */\n      tag_204\n        /* \"#utility.yul\":9468:9472   */\n      dup2\n        /* \"#utility.yul\":9342:9473   */\n      tag_169\n      jump\t// in\n    tag_204:\n        /* \"#utility.yul\":9334:9473   */\n      swap1\n      pop\n        /* \"#utility.yul\":9061:9480   */\n      swap2\n      swap1\n      pop\n      jump\t// out\n        /* \"#utility.yul\":9486:9708   */\n    tag_14:\n        /* \"#utility.yul\":9579:9583   */\n      0x00\n        /* \"#utility.yul\":9617:9619   */\n      0x20\n        /* \"#utility.yul\":9606:9615   */\n      dup3\n        /* \"#utility.yul\":9602:9620   */\n      add\n        /* \"#utility.yul\":9594:9620   */\n      swap1\n      pop\n        /* \"#utility.yul\":9630:9701   */\n      tag_206\n        /* \"#utility.yul\":9698:9699   */\n      0x00\n        /* \"#utility.yul\":9687:9696   */\n      dup4\n        /* \"#utility.yul\":9683:9700   */\n      add\n        /* \"#utility.yul\":9674:9680   */\n      dup5\n        /* \"#utility.yul\":9630:9701   */\n      tag_174\n      jump\t// in\n    tag_206:\n        /* \"#utility.yul\":9486:9708   */\n      swap3\n      swap2\n      pop\n      pop\n      jump\t// out\n        /* \"#utility.yul\":9795:9964   */\n    tag_126:\n        /* \"#utility.yul\":9879:9890   */\n      0x00\n        /* \"#utility.yul\":9913:9919   */\n      dup3\n        /* \"#utility.yul\":9908:9911   */\n      dup3\n        /* \"#utility.yul\":9901:9920   */\n      mstore\n        /* \"#utility.yul\":9953:9957   */\n      0x20\n        /* \"#utility.yul\":9948:9951   */\n      dup3\n        /* \"#utility.yul\":9944:9958   */\n      add\n        /* \"#utility.yul\":9929:9958   */\n      swap1\n      pop\n        /* \"#utility.yul\":9795:9964   */\n      swap3\n      swap2\n      pop\n      pop\n      jump\t// out\n        /* \"#utility.yul\":9970:10275   */\n    tag_54:\n        /* \"#utility.yul\":10010:10013   */\n      0x00\n        /* \"#utility.yul\":10029:10049   */\n      tag_211\n        /* \"#utility.yul\":10047:10048   */\n      dup3\n        /* \"#utility.yul\":10029:10049   */\n      tag_177\n      jump\t// in\n    tag_211:\n        /* \"#utility.yul\":10024:10049   */\n      swap2\n      pop\n        /* \"#utility.yul\":10063:10083   */\n      tag_212\n        /* \"#utility.yul\":10081:10082   */\n      dup4\n        /* \"#utility.yul\":10063:10083   */\n      tag_177\n      jump\t// in\n    tag_212:\n        /* \"#utility.yul\":10058:10083   */\n      swap3\n      pop\n        /* \"#utility.yul\":10217:10218   */\n      dup3\n        /* \"#utility.yul\":10149:10215   */\n      0xffffffffffffffffffffffffffffffffffffffffffffffffffffffffffffffff\n        /* \"#utility.yul\":10145:10219   */\n      sub\n        /* \"#utility.yul\":10142:10143   */\n      dup3\n        /* \"#utility.yul\":10139:10220   */\n      gt\n        /* \"#utility.yul\":10136:10243   */\n      iszero\n      tag_213\n      jumpi\n        /* \"#utility.yul\":10223:10241   */\n      tag_214\n      tag_215\n      jump\t// in\n    tag_214:\n        /* \"#utility.yul\":10136:10243   */\n    tag_213:\n        /* \"#utility.yul\":10267:10268   */\n      dup3\n        /* \"#utility.yul\":10264:10265   */\n      dup3\n        /* \"#utility.yul\":10260:10269   */\n      add\n        /* \"#utility.yul\":10253:10269   */\n      swap1\n      pop\n        /* \"#utility.yul\":9970:10275   */\n      swap3\n      swap2\n      pop\n      pop\n      jump\t// out\n        /* \"#utility.yul\":10281:10629   */\n    tag_59:\n        /* \"#utility.yul\":10321:10328   */\n      0x00\n        /* \"#utility.yul\":10344:10364   */\n      tag_217\n        /* \"#utility.yul\":10362:10363   */\n      dup3\n        /* \"#utility.yul\":10344:10364   */\n      tag_177\n      jump\t// in\n    tag_217:\n        /* \"#utility.yul\":10339:10364   */\n      swap2\n      pop\n        /* \"#utility.yul\":10378:10398   */\n      tag_218\n        /* \"#utility.yul\":10396:10397   */\n      dup4\n        /* \"#utility.yul\":10378:10398   */\n      tag_177\n      jump\t// in\n    tag_218:\n        /* \"#utility.yul\":10373:10398   */\n      swap3\n      pop\n        /* \"#utility.yul\":10566:10567   */\n      dup2\n        /* \"#utility.yul\":10498:10564   */\n      0xffffffffffffffffffffffffffffffffffffffffffffffffffffffffffffffff\n        /* \"#utility.yul\":10494:10568   */\n      div\n        /* \"#utility.yul\":10491:10492   */\n      dup4\n        /* \"#utility.yul\":10488:10569   */\n      gt\n        /* \"#utility.yul\":10483:10484   */\n      dup3\n        /* \"#utility.yul\":10476:10485   */\n      iszero\n        /* \"#utility.yul\":10469:10486   */\n      iszero\n        /* \"#utility.yul\":10465:10570   */\n      and\n        /* \"#utility.yul\":10462:10593   */\n      iszero\n      tag_219\n      jumpi\n        /* \"#utility.yul\":10573:10591   */\n      tag_220\n      tag_215\n      jump\t// in\n    tag_220:\n        /* \"#utility.yul\":10462:10593   */\n    tag_219:\n        /* \"#utility.yul\":10621:10622   */\n      dup3\n        /* \"#utility.yul\":10618:10619   */\n      dup3\n        /* \"#utility.yul\":10614:10623   */\n      mul\n        /* \"#utility.yul\":10603:10623   */\n      swap1\n      pop\n        /* \"#utility.yul\":10281:10629   */\n      swap3\n      swap2\n      pop\n      pop\n      jump\t// out\n        /* \"#utility.yul\":10635:10826   */\n    tag_57:\n        /* \"#utility.yul\":10675:10679   */\n      0x00\n        /* \"#utility.yul\":10695:10715   */\n      tag_222\n        /* \"#utility.yul\":10713:10714   */\n      dup3\n        /* \"#utility.yul\":10695:10715   */\n      tag_177\n      jump\t// in\n    tag_222:\n        /* \"#utility.yul\":10690:10715   */\n      swap2\n      pop\n        /* \"#utility.yul\":10729:10749   */\n      tag_223\n        /* \"#utility.yul\":10747:10748   */\n      dup4\n        /* \"#utility.yul\":10729:10749   */\n      tag_177\n      jump\t// in\n    tag_223:\n        /* \"#utility.yul\":10724:10749   */\n      swap3\n      pop\n        /* \"#utility.yul\":10768:10769   */\n      dup3\n        /* \"#utility.yul\":10765:10766   */\n      dup3\n        /* \"#utility.yul\":10762:10770   */\n      lt\n        /* \"#utility.yul\":10759:10793   */\n      iszero\n      tag_224\n      jumpi\n        /* \"#utility.yul\":10773:10791   */\n      tag_225\n      tag_215\n      jump\t// in\n    tag_225:\n        /* \"#utility.yul\":10759:10793   */\n    tag_224:\n        /* \"#utility.yul\":10818:10819   */\n      dup3\n        /* \"#utility.yul\":10815:10816   */\n      dup3\n        /* \"#utility.yul\":10811:10820   */\n      sub\n        /* \"#utility.yul\":10803:10820   */\n      swap1\n      pop\n        /* \"#utility.yul\":10635:10826   */\n      swap3\n      swap2\n      pop\n      pop\n      jump\t// out\n        /* \"#utility.yul\":10832:10909   */\n    tag_226:\n        /* \"#utility.yul\":10869:10876   */\n      0x00\n        /* \"#utility.yul\":10898:10903   */\n      dup2\n        /* \"#utility.yul\":10887:10903   */\n      swap1\n      pop\n        /* \"#utility.yul\":10832:10909   */\n      swap2\n      swap1\n      pop\n      jump\t// out\n        /* \"#utility.yul\":10915:10992   */\n    tag_177:\n        /* \"#utility.yul\":10952:10959   */\n      0x00\n        /* \"#utility.yul\":10981:10986   */\n      dup2\n        /* \"#utility.yul\":10970:10986   */\n      swap1\n      pop\n        /* \"#utility.yul\":10915:10992   */\n      swap2\n      swap1\n      pop\n      jump\t// out\n        /* \"#utility.yul\":10998:11077   */\n    tag_182:\n        /* \"#utility.yul\":11037:11044   */\n      0x00\n        /* \"#utility.yul\":11066:11071   */\n      dup2\n        /* \"#utility.yul\":11055:11071   */\n      swap1\n      pop\n        /* \"#utility.yul\":10998:11077   */\n      swap2\n      swap1\n      pop\n      jump\t// out\n        /* \"#utility.yul\":11083:11259   */\n    tag_52:\n        /* \"#utility.yul\":11115:11116   */\n      0x00\n        /* \"#utility.yul\":11132:11152   */\n      tag_231\n        /* \"#utility.yul\":11150:11151   */\n      dup3\n        /* \"#utility.yul\":11132:11152   */\n      tag_177\n      jump\t// in\n    tag_231:\n        /* \"#utility.yul\":11127:11152   */\n      swap2\n      pop\n        /* \"#utility.yul\":11166:11186   */\n      tag_232\n        /* \"#utility.yul\":11184:11185   */\n      dup4\n        /* \"#utility.yul\":11166:11186   */\n      tag_177\n      jump\t// in\n    tag_232:\n        /* \"#utility.yul\":11161:11186   */\n      swap3\n      pop\n        /* \"#utility.yul\":11205:11206   */\n      dup3\n        /* \"#utility.yul\":11195:11230   */\n      tag_233\n      jumpi\n        /* \"#utility.yul\":11210:11228   */\n      tag_234\n      tag_235\n      jump\t// in\n    tag_234:\n        /* \"#utility.yul\":11195:11230   */\n    tag_233:\n        /* \"#utility.yul\":11251:11252   */\n      dup3\n        /* \"#utility.yul\":11248:11249   */\n      dup3\n        /* \"#utility.yul\":11244:11253   */\n      mod\n        /* \"#utility.yul\":11239:11253   */\n      swap1\n      pop\n        /* \"#utility.yul\":11083:11259   */\n      swap3\n      swap2\n      pop\n      pop\n      jump\t// out\n        /* \"#utility.yul\":11265:11445   */\n    tag_215:\n        /* \"#utility.yul\":11313:11390   */\n      0x4e487b7100000000000000000000000000000000000000000000000000000000\n        /* \"#utility.yul\":11310:11311   */\n      0x00\n        /* \"#utility.yul\":11303:11391   */\n      mstore\n        /* \"#utility.yul\":11410:11414   */\n      0x11\n        /* \"#utility.yul\":11407:11408   */\n      0x04\n        /* \"#utility.yul\":11400:11415   */\n      mstore\n        /* \"#utility.yul\":11434:11438   */\n      0x24\n        /* \"#utility.yul\":11431:11432   */\n      0x00\n        /* \"#utility.yul\":11424:11439   */\n      revert\n        /* \"#utility.yul\":11451:11631   */\n    tag_235:\n        /* \"#utility.yul\":11499:11576   */\n      0x4e487b7100000000000000000000000000000000000000000000000000000000\n        /* \"#utility.yul\":11496:11497   */\n      0x00\n        /* \"#utility.yul\":11489:11577   */\n      mstore\n        /* \"#utility.yul\":11596:11600   */\n      0x12\n        /* \"#utility.yul\":11593:11594   */\n      0x04\n        /* \"#utility.yul\":11586:11601   */\n      mstore\n        /* \"#utility.yul\":11620:11624   */\n      0x24\n        /* \"#utility.yul\":11617:11618   */\n      0x00\n        /* \"#utility.yul\":11610:11625   */\n      revert\n        /* \"#utility.yul\":11760:11877   */\n    tag_117:\n        /* \"#utility.yul\":11869:11870   */\n      0x00\n        /* \"#utility.yul\":11866:11867   */\n      dup1\n        /* \"#utility.yul\":11859:11871   */\n      revert\n        /* \"#utility.yul\":11883:12048   */\n    tag_128:\n        /* \"#utility.yul\":12023:12040   */\n      0x422068617320656e746572656420210000000000000000000000000000000000\n        /* \"#utility.yul\":12019:12020   */\n      0x00\n        /* \"#utility.yul\":12011:12017   */\n      dup3\n        /* \"#utility.yul\":12007:12021   */\n      add\n        /* \"#utility.yul\":12000:12041   */\n      mstore\n        /* \"#utility.yul\":11883:12048   */\n      pop\n      jump\t// out\n        /* \"#utility.yul\":12054:12220   */\n    tag_133:\n        /* \"#utility.yul\":12194:12212   */\n      0x7761697420666f7220706c617965724200000000000000000000000000000000\n        /* \"#utility.yul\":12190:12191   */\n      0x00\n        /* \"#utility.yul\":12182:12188   */\n      dup3\n        /* \"#utility.yul\":12178:12192   */\n      add\n        /* \"#utility.yul\":12171:12213   */\n      mstore\n        /* \"#utility.yul\":12054:12220   */\n      pop\n      jump\t// out\n        /* \"#utility.yul\":12226:12405   */\n    tag_138:\n        /* \"#utility.yul\":12366:12397   */\n      0x796f75206861766520656e746572656420617320706c61796572412021000000\n        /* \"#utility.yul\":12362:12363   */\n      0x00\n        /* \"#utility.yul\":12354:12360   */\n      dup3\n        /* \"#utility.yul\":12350:12364   */\n      add\n        /* \"#utility.yul\":12343:12398   */\n      mstore\n        /* \"#utility.yul\":12226:12405   */\n      pop\n      jump\t// out\n        /* \"#utility.yul\":12411:12576   */\n    tag_143:\n        /* \"#utility.yul\":12551:12568   */\n      0x412068617320656e746572656420210000000000000000000000000000000000\n        /* \"#utility.yul\":12547:12548   */\n      0x00\n        /* \"#utility.yul\":12539:12545   */\n      dup3\n        /* \"#utility.yul\":12535:12549   */\n      add\n        /* \"#utility.yul\":12528:12569   */\n      mstore\n        /* \"#utility.yul\":12411:12576   */\n      pop\n      jump\t// out\n        /* \"#utility.yul\":12582:12803   */\n    tag_148:\n        /* \"#utility.yul\":12722:12756   */\n      0x646f6e27742072657065617420756e74696c20616c6c20757365727320726573\n        /* \"#utility.yul\":12718:12719   */\n      0x00\n        /* \"#utility.yul\":12710:12716   */\n      dup3\n        /* \"#utility.yul\":12706:12720   */\n      add\n        /* \"#utility.yul\":12699:12757   */\n      mstore\n        /* \"#utility.yul\":12791:12795   */\n      0x6574000000000000000000000000000000000000000000000000000000000000\n        /* \"#utility.yul\":12786:12788   */\n      0x20\n        /* \"#utility.yul\":12778:12784   */\n      dup3\n        /* \"#utility.yul\":12774:12789   */\n      add\n        /* \"#utility.yul\":12767:12796   */\n      mstore\n        /* \"#utility.yul\":12582:12803   */\n      pop\n      jump\t// out\n        /* \"#utility.yul\":12809:12988   */\n    tag_153:\n        /* \"#utility.yul\":12949:12980   */\n      0x796f75206861766520656e746572656420617320706c61796572422021000000\n        /* \"#utility.yul\":12945:12946   */\n      0x00\n        /* \"#utility.yul\":12937:12943   */\n      dup3\n        /* \"#utility.yul\":12933:12947   */\n      add\n        /* \"#utility.yul\":12926:12981   */\n      mstore\n        /* \"#utility.yul\":12809:12988   */\n      pop\n      jump\t// out\n        /* \"#utility.yul\":12994:13154   */\n    tag_158:\n        /* \"#utility.yul\":13134:13146   */\n      0x4e6f7420666f756e642100000000000000000000000000000000000000000000\n        /* \"#utility.yul\":13130:13131   */\n      0x00\n        /* \"#utility.yul\":13122:13128   */\n      dup3\n        /* \"#utility.yul\":13118:13132   */\n      add\n        /* \"#utility.yul\":13111:13147   */\n      mstore\n        /* \"#utility.yul\":12994:13154   */\n      pop\n      jump\t// out\n        /* \"#utility.yul\":13160:13338   */\n    tag_163:\n        /* \"#utility.yul\":13300:13330   */\n      0x706c65617365207375626d69742074686520636f6d6d69746d656e7400000000\n        /* \"#utility.yul\":13296:13297   */\n      0x00\n        /* \"#utility.yul\":13288:13294   */\n      dup3\n        /* \"#utility.yul\":13284:13298   */\n      add\n        /* \"#utility.yul\":13277:13331   */\n      mstore\n        /* \"#utility.yul\":13160:13338   */\n      pop\n      jump\t// out\n        /* \"#utility.yul\":13344:13522   */\n    tag_168:\n        /* \"#utility.yul\":13484:13514   */\n      0x76616c7565202b2062616c616e6365206d757374203e3d203365746800000000\n        /* \"#utility.yul\":13480:13481   */\n      0x00\n        /* \"#utility.yul\":13472:13478   */\n      dup3\n        /* \"#utility.yul\":13468:13482   */\n      add\n        /* \"#utility.yul\":13461:13515   */\n      mstore\n        /* \"#utility.yul\":13344:13522   */\n      pop\n      jump\t// out\n        /* \"#utility.yul\":13528:13694   */\n    tag_173:\n        /* \"#utility.yul\":13668:13686   */\n      0x7761697420666f7220706c617965724100000000000000000000000000000000\n        /* \"#utility.yul\":13664:13665   */\n      0x00\n        /* \"#utility.yul\":13656:13662   */\n      dup3\n        /* \"#utility.yul\":13652:13666   */\n      add\n        /* \"#utility.yul\":13645:13687   */\n      mstore\n        /* \"#utility.yul\":13528:13694   */\n      pop\n      jump\t// out\n        /* \"#utility.yul\":13700:13822   */\n    tag_109:\n        /* \"#utility.yul\":13773:13797   */\n      tag_252\n        /* \"#utility.yul\":13791:13796   */\n      dup2\n        /* \"#utility.yul\":13773:13797   */\n      tag_226\n      jump\t// in\n    tag_252:\n        /* \"#utility.yul\":13766:13771   */\n      dup2\n        /* \"#utility.yul\":13763:13798   */\n      eq\n        /* \"#utility.yul\":13753:13816   */\n      tag_253\n      jumpi\n        /* \"#utility.yul\":13812:13813   */\n      0x00\n        /* \"#utility.yul\":13809:13810   */\n      dup1\n        /* \"#utility.yul\":13802:13814   */\n      revert\n        /* \"#utility.yul\":13753:13816   */\n    tag_253:\n        /* \"#utility.yul\":13700:13822   */\n      pop\n      jump\t// out\n        /* \"#utility.yul\":13828:13950   */\n    tag_113:\n        /* \"#utility.yul\":13901:13925   */\n      tag_255\n        /* \"#utility.yul\":13919:13924   */\n      dup2\n        /* \"#utility.yul\":13901:13925   */\n      tag_177\n      jump\t// in\n    tag_255:\n        /* \"#utility.yul\":13894:13899   */\n      dup2\n        /* \"#utility.yul\":13891:13926   */\n      eq\n        /* \"#utility.yul\":13881:13944   */\n      tag_256\n      jumpi\n        /* \"#utility.yul\":13940:13941   */\n      0x00\n        /* \"#utility.yul\":13937:13938   */\n      dup1\n        /* \"#utility.yul\":13930:13942   */\n      revert\n        /* \"#utility.yul\":13881:13944   */\n    tag_256:\n        /* \"#utility.yul\":13828:13950   */\n      pop\n      jump\t// out\n\n    auxdata: 0xa2646970667358221220fd8fdfc0db1bd5f113294bf0bac6ef7195de19b703078a288a4763677c7ea59964736f6c63430008070033\n}\n",
				"bytecode": {
					"linkReferences": {},
					"object": "6080604052670de0b6b3a7640000600055600060065534801561002157600080fd5b50611937806100316000396000f3fe6080604052600436106100555760003560e01c80631f7b4f301461005a57806323fdeeb8146100975780632717605f146100c2578063755b55ad146100de578063d826f88f146100fa578063f147c8de14610111575b600080fd5b34801561006657600080fd5b50610081600480360381019061007c9190611245565b610128565b60405161008e9190611551565b60405180910390f35b3480156100a357600080fd5b506100ac610839565b6040516100b99190611551565b60405180910390f35b6100dc60048036038101906100d79190611218565b610880565b005b6100f860048036038101906100f39190611218565b610b69565b005b34801561010657600080fd5b5061010f610e52565b005b34801561011d57600080fd5b50610126611113565b005b60003373ffffffffffffffffffffffffffffffffffffffff16600260008460405160200161015691906113f6565b60405160208183030381529060405280519060200120815260200190815260200160002060009054906101000a900473ffffffffffffffffffffffffffffffffffffffff1673ffffffffffffffffffffffffffffffffffffffff16146101f1576040517f08c379a00000000000000000000000000000000000000000000000000000000081526004016101e8906114d1565b60405180910390fd5b600073ffffffffffffffffffffffffffffffffffffffff16600460009054906101000a900473ffffffffffffffffffffffffffffffffffffffff1673ffffffffffffffffffffffffffffffffffffffff161415610283576040517f08c379a000000000000000000000000000000000000000000000000000000000815260040161027a90611531565b60405180910390fd5b600073ffffffffffffffffffffffffffffffffffffffff16600560009054906101000a900473ffffffffffffffffffffffffffffffffffffffff1673ffffffffffffffffffffffffffffffffffffffff161415610315576040517f08c379a000000000000000000000000000000000000000000000000000000000815260040161030c90611431565b60405180910390fd5b60006006541461035a576040517f08c379a000000000000000000000000000000000000000000000000000000000815260040161035190611491565b60405180910390fd5b6000600260008460405160200161037191906113f6565b60405160208183030381529060405280519060200120815260200190815260200160002060006101000a81548173ffffffffffffffffffffffffffffffffffffffff021916908373ffffffffffffffffffffffffffffffffffffffff16021790555081600360003373ffffffffffffffffffffffffffffffffffffffff1673ffffffffffffffffffffffffffffffffffffffff16815260200190815260200160002081905550600060036000600460009054906101000a900473ffffffffffffffffffffffffffffffffffffffff1673ffffffffffffffffffffffffffffffffffffffff1673ffffffffffffffffffffffffffffffffffffffff16815260200190815260200160002054141561048a5760009050610834565b600060036000600560009054906101000a900473ffffffffffffffffffffffffffffffffffffffff1673ffffffffffffffffffffffffffffffffffffffff1673ffffffffffffffffffffffffffffffffffffffff1681526020019081526020016000205414156104fd5760009050610834565b600660036000600560009054906101000a900473ffffffffffffffffffffffffffffffffffffffff1673ffffffffffffffffffffffffffffffffffffffff1673ffffffffffffffffffffffffffffffffffffffff1681526020019081526020016000205460036000600460009054906101000a900473ffffffffffffffffffffffffffffffffffffffff1673ffffffffffffffffffffffffffffffffffffffff1673ffffffffffffffffffffffffffffffffffffffff16815260200190815260200160002054186040516020016105d491906113f6565b6040516020818303038152906040528051906020012060001c6105f7919061167f565b6001610603919061157d565b6006819055506003600654111561072957600080546003600654610627919061162d565b61063191906115d3565b90508060016000600460009054906101000a900473ffffffffffffffffffffffffffffffffffffffff1673ffffffffffffffffffffffffffffffffffffffff1673ffffffffffffffffffffffffffffffffffffffff16815260200190815260200160002060008282546106a4919061162d565b925050819055508060016000600560009054906101000a900473ffffffffffffffffffffffffffffffffffffffff1673ffffffffffffffffffffffffffffffffffffffff1673ffffffffffffffffffffffffffffffffffffffff168152602001908152602001600020600082825461071c919061157d565b925050819055505061082e565b6000805460065461073a91906115d3565b90508060016000600460009054906101000a900473ffffffffffffffffffffffffffffffffffffffff1673ffffffffffffffffffffffffffffffffffffffff1673ffffffffffffffffffffffffffffffffffffffff16815260200190815260200160002060008282546107ad919061157d565b925050819055508060016000600560009054906101000a900473ffffffffffffffffffffffffffffffffffffffff1673ffffffffffffffffffffffffffffffffffffffff1673ffffffffffffffffffffffffffffffffffffffff1681526020019081526020016000206000828254610825919061162d565b92505081905550505b60065490505b919050565b6000600160003373ffffffffffffffffffffffffffffffffffffffff1673ffffffffffffffffffffffffffffffffffffffff16815260200190815260200160002054905090565b6729a2241af62c0000600160003373ffffffffffffffffffffffffffffffffffffffff1673ffffffffffffffffffffffffffffffffffffffff16815260200190815260200160002054346108d4919061157d565b1015610915576040517f08c379a000000000000000000000000000000000000000000000000000000000815260040161090c90611511565b60405180910390fd5b6000801b81141561095b576040517f08c379a0000000000000000000000000000000000000000000000000000000008152600401610952906114f1565b60405180910390fd5b600073ffffffffffffffffffffffffffffffffffffffff16600460009054906101000a900473ffffffffffffffffffffffffffffffffffffffff1673ffffffffffffffffffffffffffffffffffffffff16146109ec576040517f08c379a00000000000000000000000000000000000000000000000000000000081526004016109e390611471565b60405180910390fd5b3373ffffffffffffffffffffffffffffffffffffffff16600560009054906101000a900473ffffffffffffffffffffffffffffffffffffffff1673ffffffffffffffffffffffffffffffffffffffff161415610a7d576040517f08c379a0000000000000000000000000000000000000000000000000000000008152600401610a74906114b1565b60405180910390fd5b33600460006101000a81548173ffffffffffffffffffffffffffffffffffffffff021916908373ffffffffffffffffffffffffffffffffffffffff160217905550336002600083815260200190815260200160002060006101000a81548173ffffffffffffffffffffffffffffffffffffffff021916908373ffffffffffffffffffffffffffffffffffffffff16021790555034600160003373ffffffffffffffffffffffffffffffffffffffff1673ffffffffffffffffffffffffffffffffffffffff1681526020019081526020016000206000828254610b5f919061157d565b9250508190555050565b6729a2241af62c0000600160003373ffffffffffffffffffffffffffffffffffffffff1673ffffffffffffffffffffffffffffffffffffffff1681526020019081526020016000205434610bbd919061157d565b1015610bfe576040517f08c379a0000000000000000000000000000000000000000000000000000000008152600401610bf590611511565b60405180910390fd5b6000801b811415610c44576040517f08c379a0000000000000000000000000000000000000000000000000000000008152600401610c3b906114f1565b60405180910390fd5b600073ffffffffffffffffffffffffffffffffffffffff16600560009054906101000a900473ffffffffffffffffffffffffffffffffffffffff1673ffffffffffffffffffffffffffffffffffffffff1614610cd5576040517f08c379a0000000000000000000000000000000000000000000000000000000008152600401610ccc90611411565b60405180910390fd5b3373ffffffffffffffffffffffffffffffffffffffff16600460009054906101000a900473ffffffffffffffffffffffffffffffffffffffff1673ffffffffffffffffffffffffffffffffffffffff161415610d66576040517f08c379a0000000000000000000000000000000000000000000000000000000008152600401610d5d90611451565b60405180910390fd5b33600560006101000a81548173ffffffffffffffffffffffffffffffffffffffff021916908373ffffffffffffffffffffffffffffffffffffffff160217905550336002600083815260200190815260200160002060006101000a81548173ffffffffffffffffffffffffffffffffffffffff021916908373ffffffffffffffffffffffffffffffffffffffff16021790555034600160003373ffffffffffffffffffffffffffffffffffffffff1673ffffffffffffffffffffffffffffffffffffffff1681526020019081526020016000206000828254610e48919061157d565b9250508190555050565b600460009054906101000a900473ffffffffffffffffffffffffffffffffffffffff1673ffffffffffffffffffffffffffffffffffffffff163373ffffffffffffffffffffffffffffffffffffffff161415610f56576000600460006101000a81548173ffffffffffffffffffffffffffffffffffffffff021916908373ffffffffffffffffffffffffffffffffffffffff160217905550600060036000600460009054906101000a900473ffffffffffffffffffffffffffffffffffffffff1673ffffffffffffffffffffffffffffffffffffffff1673ffffffffffffffffffffffffffffffffffffffff16815260200190815260200160002081905550611057565b600560009054906101000a900473ffffffffffffffffffffffffffffffffffffffff1673ffffffffffffffffffffffffffffffffffffffff163373ffffffffffffffffffffffffffffffffffffffff161415611056576000600560006101000a81548173ffffffffffffffffffffffffffffffffffffffff021916908373ffffffffffffffffffffffffffffffffffffffff160217905550600060036000600560009054906101000a900473ffffffffffffffffffffffffffffffffffffffff1673ffffffffffffffffffffffffffffffffffffffff1673ffffffffffffffffffffffffffffffffffffffff168152602001908152602001600020819055505b5b600073ffffffffffffffffffffffffffffffffffffffff16600460009054906101000a900473ffffffffffffffffffffffffffffffffffffffff1673ffffffffffffffffffffffffffffffffffffffff161480156111035750600073ffffffffffffffffffffffffffffffffffffffff16600560009054906101000a900473ffffffffffffffffffffffffffffffffffffffff1673ffffffffffffffffffffffffffffffffffffffff16145b156111115760006006819055505b565b61111b610e52565b6000600160003373ffffffffffffffffffffffffffffffffffffffff1673ffffffffffffffffffffffffffffffffffffffff1681526020019081526020016000205490506000600160003373ffffffffffffffffffffffffffffffffffffffff1673ffffffffffffffffffffffffffffffffffffffff168152602001908152602001600020819055503373ffffffffffffffffffffffffffffffffffffffff166108fc829081150290604051600060405180830381858888f193505050501580156111ea573d6000803e3d6000fd5b5050565b6000813590506111fd816118d3565b92915050565b600081359050611212816118ea565b92915050565b60006020828403121561122e5761122d61170e565b5b600061123c848285016111ee565b91505092915050565b60006020828403121561125b5761125a61170e565b5b600061126984828501611203565b91505092915050565b600061127f600f8361156c565b915061128a82611713565b602082019050919050565b60006112a260108361156c565b91506112ad8261173c565b602082019050919050565b60006112c5601d8361156c565b91506112d082611765565b602082019050919050565b60006112e8600f8361156c565b91506112f38261178e565b602082019050919050565b600061130b60228361156c565b9150611316826117b7565b604082019050919050565b600061132e601d8361156c565b915061133982611806565b602082019050919050565b6000611351600a8361156c565b915061135c8261182f565b602082019050919050565b6000611374601c8361156c565b915061137f82611858565b602082019050919050565b6000611397601c8361156c565b91506113a282611881565b602082019050919050565b60006113ba60108361156c565b91506113c5826118aa565b602082019050919050565b6113d98161166b565b82525050565b6113f06113eb8261166b565b611675565b82525050565b600061140282846113df565b60208201915081905092915050565b6000602082019050818103600083015261142a81611272565b9050919050565b6000602082019050818103600083015261144a81611295565b9050919050565b6000602082019050818103600083015261146a816112b8565b9050919050565b6000602082019050818103600083015261148a816112db565b9050919050565b600060208201905081810360008301526114aa816112fe565b9050919050565b600060208201905081810360008301526114ca81611321565b9050919050565b600060208201905081810360008301526114ea81611344565b9050919050565b6000602082019050818103600083015261150a81611367565b9050919050565b6000602082019050818103600083015261152a8161138a565b9050919050565b6000602082019050818103600083015261154a816113ad565b9050919050565b600060208201905061156660008301846113d0565b92915050565b600082825260208201905092915050565b60006115888261166b565b91506115938361166b565b9250827fffffffffffffffffffffffffffffffffffffffffffffffffffffffffffffffff038211156115c8576115c76116b0565b5b828201905092915050565b60006115de8261166b565b91506115e98361166b565b9250817fffffffffffffffffffffffffffffffffffffffffffffffffffffffffffffffff0483118215151615611622576116216116b0565b5b828202905092915050565b60006116388261166b565b91506116438361166b565b925082821015611656576116556116b0565b5b828203905092915050565b6000819050919050565b6000819050919050565b6000819050919050565b600061168a8261166b565b91506116958361166b565b9250826116a5576116a46116df565b5b828206905092915050565b7f4e487b7100000000000000000000000000000000000000000000000000000000600052601160045260246000fd5b7f4e487b7100000000000000000000000000000000000000000000000000000000600052601260045260246000fd5b600080fd5b7f422068617320656e746572656420210000000000000000000000000000000000600082015250565b7f7761697420666f7220706c617965724200000000000000000000000000000000600082015250565b7f796f75206861766520656e746572656420617320706c61796572412021000000600082015250565b7f412068617320656e746572656420210000000000000000000000000000000000600082015250565b7f646f6e27742072657065617420756e74696c20616c6c2075736572732072657360008201527f6574000000000000000000000000000000000000000000000000000000000000602082015250565b7f796f75206861766520656e746572656420617320706c61796572422021000000600082015250565b7f4e6f7420666f756e642100000000000000000000000000000000000000000000600082015250565b7f706c65617365207375626d69742074686520636f6d6d69746d656e7400000000600082015250565b7f76616c7565202b2062616c616e6365206d757374203e3d203365746800000000600082015250565b7f7761697420666f7220706c617965724100000000000000000000000000000000600082015250565b6118dc81611661565b81146118e757600080fd5b50565b6118f38161166b565b81146118fe57600080fd5b5056fea2646970667358221220fd8fdfc0db1bd5f113294bf0bac6ef7195de19b703078a288a4763677c7ea59964736f6c63430008070033",
					"opcodes": "PUSH1 0x80 PUSH1 0x40 MSTORE PUSH8 0xDE0B6B3A7640000 PUSH1 0x0 SSTORE PUSH1 0x0 PUSH1 0x6 SSTORE CALLVALUE DUP1 ISZERO PUSH2 0x21 JUMPI PUSH1 0x0 DUP1 REVERT JUMPDEST POP PUSH2 0x1937 DUP1 PUSH2 0x31 PUSH1 0x0 CODECOPY PUSH1 0x0 RETURN INVALID PUSH1 0x80 PUSH1 0x40 MSTORE PUSH1 0x4 CALLDATASIZE LT PUSH2 0x55 JUMPI PUSH1 0x0 CALLDATALOAD PUSH1 0xE0 SHR DUP1 PUSH4 0x1F7B4F30 EQ PUSH2 0x5A JUMPI DUP1 PUSH4 0x23FDEEB8 EQ PUSH2 0x97 JUMPI DUP1 PUSH4 0x2717605F EQ PUSH2 0xC2 JUMPI DUP1 PUSH4 0x755B55AD EQ PUSH2 0xDE JUMPI DUP1 PUSH4 0xD826F88F EQ PUSH2 0xFA JUMPI DUP1 PUSH4 0xF147C8DE EQ PUSH2 0x111 JUMPI JUMPDEST PUSH1 0x0 DUP1 REVERT JUMPDEST CALLVALUE DUP1 ISZERO PUSH2 0x66 JUMPI PUSH1 0x0 DUP1 REVERT JUMPDEST POP PUSH2 0x81 PUSH1 0x4 DUP1 CALLDATASIZE SUB DUP2 ADD SWAP1 PUSH2 0x7C SWAP2 SWAP1 PUSH2 0x1245 JUMP JUMPDEST PUSH2 0x128 JUMP JUMPDEST PUSH1 0x40 MLOAD PUSH2 0x8E SWAP2 SWAP1 PUSH2 0x1551 JUMP JUMPDEST PUSH1 0x40 MLOAD DUP1 SWAP2 SUB SWAP1 RETURN JUMPDEST CALLVALUE DUP1 ISZERO PUSH2 0xA3 JUMPI PUSH1 0x0 DUP1 REVERT JUMPDEST POP PUSH2 0xAC PUSH2 0x839 JUMP JUMPDEST PUSH1 0x40 MLOAD PUSH2 0xB9 SWAP2 SWAP1 PUSH2 0x1551 JUMP JUMPDEST PUSH1 0x40 MLOAD DUP1 SWAP2 SUB SWAP1 RETURN JUMPDEST PUSH2 0xDC PUSH1 0x4 DUP1 CALLDATASIZE SUB DUP2 ADD SWAP1 PUSH2 0xD7 SWAP2 SWAP1 PUSH2 0x1218 JUMP JUMPDEST PUSH2 0x880 JUMP JUMPDEST STOP JUMPDEST PUSH2 0xF8 PUSH1 0x4 DUP1 CALLDATASIZE SUB DUP2 ADD SWAP1 PUSH2 0xF3 SWAP2 SWAP1 PUSH2 0x1218 JUMP JUMPDEST PUSH2 0xB69 JUMP JUMPDEST STOP JUMPDEST CALLVALUE DUP1 ISZERO PUSH2 0x106 JUMPI PUSH1 0x0 DUP1 REVERT JUMPDEST POP PUSH2 0x10F PUSH2 0xE52 JUMP JUMPDEST STOP JUMPDEST CALLVALUE DUP1 ISZERO PUSH2 0x11D JUMPI PUSH1 0x0 DUP1 REVERT JUMPDEST POP PUSH2 0x126 PUSH2 0x1113 JUMP JUMPDEST STOP JUMPDEST PUSH1 0x0 CALLER PUSH20 0xFFFFFFFFFFFFFFFFFFFFFFFFFFFFFFFFFFFFFFFF AND PUSH1 0x2 PUSH1 0x0 DUP5 PUSH1 0x40 MLOAD PUSH1 0x20 ADD PUSH2 0x156 SWAP2 SWAP1 PUSH2 0x13F6 JUMP JUMPDEST PUSH1 0x40 MLOAD PUSH1 0x20 DUP2 DUP4 SUB SUB DUP2 MSTORE SWAP1 PUSH1 0x40 MSTORE DUP1 MLOAD SWAP1 PUSH1 0x20 ADD KECCAK256 DUP2 MSTORE PUSH1 0x20 ADD SWAP1 DUP2 MSTORE PUSH1 0x20 ADD PUSH1 0x0 KECCAK256 PUSH1 0x0 SWAP1 SLOAD SWAP1 PUSH2 0x100 EXP SWAP1 DIV PUSH20 0xFFFFFFFFFFFFFFFFFFFFFFFFFFFFFFFFFFFFFFFF AND PUSH20 0xFFFFFFFFFFFFFFFFFFFFFFFFFFFFFFFFFFFFFFFF AND EQ PUSH2 0x1F1 JUMPI PUSH1 0x40 MLOAD PUSH32 0x8C379A000000000000000000000000000000000000000000000000000000000 DUP2 MSTORE PUSH1 0x4 ADD PUSH2 0x1E8 SWAP1 PUSH2 0x14D1 JUMP JUMPDEST PUSH1 0x40 MLOAD DUP1 SWAP2 SUB SWAP1 REVERT JUMPDEST PUSH1 0x0 PUSH20 0xFFFFFFFFFFFFFFFFFFFFFFFFFFFFFFFFFFFFFFFF AND PUSH1 0x4 PUSH1 0x0 SWAP1 SLOAD SWAP1 PUSH2 0x100 EXP SWAP1 DIV PUSH20 0xFFFFFFFFFFFFFFFFFFFFFFFFFFFFFFFFFFFFFFFF AND PUSH20 0xFFFFFFFFFFFFFFFFFFFFFFFFFFFFFFFFFFFFFFFF AND EQ ISZERO PUSH2 0x283 JUMPI PUSH1 0x40 MLOAD PUSH32 0x8C379A000000000000000000000000000000000000000000000000000000000 DUP2 MSTORE PUSH1 0x4 ADD PUSH2 0x27A SWAP1 PUSH2 0x1531 JUMP JUMPDEST PUSH1 0x40 MLOAD DUP1 SWAP2 SUB SWAP1 REVERT JUMPDEST PUSH1 0x0 PUSH20 0xFFFFFFFFFFFFFFFFFFFFFFFFFFFFFFFFFFFFFFFF AND PUSH1 0x5 PUSH1 0x0 SWAP1 SLOAD SWAP1 PUSH2 0x100 EXP SWAP1 DIV PUSH20 0xFFFFFFFFFFFFFFFFFFFFFFFFFFFFFFFFFFFFFFFF AND PUSH20 0xFFFFFFFFFFFFFFFFFFFFFFFFFFFFFFFFFFFFFFFF AND EQ ISZERO PUSH2 0x315 JUMPI PUSH1 0x40 MLOAD PUSH32 0x8C379A000000000000000000000000000000000000000000000000000000000 DUP2 MSTORE PUSH1 0x4 ADD PUSH2 0x30C SWAP1 PUSH2 0x1431 JUMP JUMPDEST PUSH1 0x40 MLOAD DUP1 SWAP2 SUB SWAP1 REVERT JUMPDEST PUSH1 0x0 PUSH1 0x6 SLOAD EQ PUSH2 0x35A JUMPI PUSH1 0x40 MLOAD PUSH32 0x8C379A000000000000000000000000000000000000000000000000000000000 DUP2 MSTORE PUSH1 0x4 ADD PUSH2 0x351 SWAP1 PUSH2 0x1491 JUMP JUMPDEST PUSH1 0x40 MLOAD DUP1 SWAP2 SUB SWAP1 REVERT JUMPDEST PUSH1 0x0 PUSH1 0x2 PUSH1 0x0 DUP5 PUSH1 0x40 MLOAD PUSH1 0x20 ADD PUSH2 0x371 SWAP2 SWAP1 PUSH2 0x13F6 JUMP JUMPDEST PUSH1 0x40 MLOAD PUSH1 0x20 DUP2 DUP4 SUB SUB DUP2 MSTORE SWAP1 PUSH1 0x40 MSTORE DUP1 MLOAD SWAP1 PUSH1 0x20 ADD KECCAK256 DUP2 MSTORE PUSH1 0x20 ADD SWAP1 DUP2 MSTORE PUSH1 0x20 ADD PUSH1 0x0 KECCAK256 PUSH1 0x0 PUSH2 0x100 EXP DUP2 SLOAD DUP2 PUSH20 0xFFFFFFFFFFFFFFFFFFFFFFFFFFFFFFFFFFFFFFFF MUL NOT AND SWAP1 DUP4 PUSH20 0xFFFFFFFFFFFFFFFFFFFFFFFFFFFFFFFFFFFFFFFF AND MUL OR SWAP1 SSTORE POP DUP2 PUSH1 0x3 PUSH1 0x0 CALLER PUSH20 0xFFFFFFFFFFFFFFFFFFFFFFFFFFFFFFFFFFFFFFFF AND PUSH20 0xFFFFFFFFFFFFFFFFFFFFFFFFFFFFFFFFFFFFFFFF AND DUP2 MSTORE PUSH1 0x20 ADD SWAP1 DUP2 MSTORE PUSH1 0x20 ADD PUSH1 0x0 KECCAK256 DUP2 SWAP1 SSTORE POP PUSH1 0x0 PUSH1 0x3 PUSH1 0x0 PUSH1 0x4 PUSH1 0x0 SWAP1 SLOAD SWAP1 PUSH2 0x100 EXP SWAP1 DIV PUSH20 0xFFFFFFFFFFFFFFFFFFFFFFFFFFFFFFFFFFFFFFFF AND PUSH20 0xFFFFFFFFFFFFFFFFFFFFFFFFFFFFFFFFFFFFFFFF AND PUSH20 0xFFFFFFFFFFFFFFFFFFFFFFFFFFFFFFFFFFFFFFFF AND DUP2 MSTORE PUSH1 0x20 ADD SWAP1 DUP2 MSTORE PUSH1 0x20 ADD PUSH1 0x0 KECCAK256 SLOAD EQ ISZERO PUSH2 0x48A JUMPI PUSH1 0x0 SWAP1 POP PUSH2 0x834 JUMP JUMPDEST PUSH1 0x0 PUSH1 0x3 PUSH1 0x0 PUSH1 0x5 PUSH1 0x0 SWAP1 SLOAD SWAP1 PUSH2 0x100 EXP SWAP1 DIV PUSH20 0xFFFFFFFFFFFFFFFFFFFFFFFFFFFFFFFFFFFFFFFF AND PUSH20 0xFFFFFFFFFFFFFFFFFFFFFFFFFFFFFFFFFFFFFFFF AND PUSH20 0xFFFFFFFFFFFFFFFFFFFFFFFFFFFFFFFFFFFFFFFF AND DUP2 MSTORE PUSH1 0x20 ADD SWAP1 DUP2 MSTORE PUSH1 0x20 ADD PUSH1 0x0 KECCAK256 SLOAD EQ ISZERO PUSH2 0x4FD JUMPI PUSH1 0x0 SWAP1 POP PUSH2 0x834 JUMP JUMPDEST PUSH1 0x6 PUSH1 0x3 PUSH1 0x0 PUSH1 0x5 PUSH1 0x0 SWAP1 SLOAD SWAP1 PUSH2 0x100 EXP SWAP1 DIV PUSH20 0xFFFFFFFFFFFFFFFFFFFFFFFFFFFFFFFFFFFFFFFF AND PUSH20 0xFFFFFFFFFFFFFFFFFFFFFFFFFFFFFFFFFFFFFFFF AND PUSH20 0xFFFFFFFFFFFFFFFFFFFFFFFFFFFFFFFFFFFFFFFF AND DUP2 MSTORE PUSH1 0x20 ADD SWAP1 DUP2 MSTORE PUSH1 0x20 ADD PUSH1 0x0 KECCAK256 SLOAD PUSH1 0x3 PUSH1 0x0 PUSH1 0x4 PUSH1 0x0 SWAP1 SLOAD SWAP1 PUSH2 0x100 EXP SWAP1 DIV PUSH20 0xFFFFFFFFFFFFFFFFFFFFFFFFFFFFFFFFFFFFFFFF AND PUSH20 0xFFFFFFFFFFFFFFFFFFFFFFFFFFFFFFFFFFFFFFFF AND PUSH20 0xFFFFFFFFFFFFFFFFFFFFFFFFFFFFFFFFFFFFFFFF AND DUP2 MSTORE PUSH1 0x20 ADD SWAP1 DUP2 MSTORE PUSH1 0x20 ADD PUSH1 0x0 KECCAK256 SLOAD XOR PUSH1 0x40 MLOAD PUSH1 0x20 ADD PUSH2 0x5D4 SWAP2 SWAP1 PUSH2 0x13F6 JUMP JUMPDEST PUSH1 0x40 MLOAD PUSH1 0x20 DUP2 DUP4 SUB SUB DUP2 MSTORE SWAP1 PUSH1 0x40 MSTORE DUP1 MLOAD SWAP1 PUSH1 0x20 ADD KECCAK256 PUSH1 0x0 SHR PUSH2 0x5F7 SWAP2 SWAP1 PUSH2 0x167F JUMP JUMPDEST PUSH1 0x1 PUSH2 0x603 SWAP2 SWAP1 PUSH2 0x157D JUMP JUMPDEST PUSH1 0x6 DUP2 SWAP1 SSTORE POP PUSH1 0x3 PUSH1 0x6 SLOAD GT ISZERO PUSH2 0x729 JUMPI PUSH1 0x0 DUP1 SLOAD PUSH1 0x3 PUSH1 0x6 SLOAD PUSH2 0x627 SWAP2 SWAP1 PUSH2 0x162D JUMP JUMPDEST PUSH2 0x631 SWAP2 SWAP1 PUSH2 0x15D3 JUMP JUMPDEST SWAP1 POP DUP1 PUSH1 0x1 PUSH1 0x0 PUSH1 0x4 PUSH1 0x0 SWAP1 SLOAD SWAP1 PUSH2 0x100 EXP SWAP1 DIV PUSH20 0xFFFFFFFFFFFFFFFFFFFFFFFFFFFFFFFFFFFFFFFF AND PUSH20 0xFFFFFFFFFFFFFFFFFFFFFFFFFFFFFFFFFFFFFFFF AND PUSH20 0xFFFFFFFFFFFFFFFFFFFFFFFFFFFFFFFFFFFFFFFF AND DUP2 MSTORE PUSH1 0x20 ADD SWAP1 DUP2 MSTORE PUSH1 0x20 ADD PUSH1 0x0 KECCAK256 PUSH1 0x0 DUP3 DUP3 SLOAD PUSH2 0x6A4 SWAP2 SWAP1 PUSH2 0x162D JUMP JUMPDEST SWAP3 POP POP DUP2 SWAP1 SSTORE POP DUP1 PUSH1 0x1 PUSH1 0x0 PUSH1 0x5 PUSH1 0x0 SWAP1 SLOAD SWAP1 PUSH2 0x100 EXP SWAP1 DIV PUSH20 0xFFFFFFFFFFFFFFFFFFFFFFFFFFFFFFFFFFFFFFFF AND PUSH20 0xFFFFFFFFFFFFFFFFFFFFFFFFFFFFFFFFFFFFFFFF AND PUSH20 0xFFFFFFFFFFFFFFFFFFFFFFFFFFFFFFFFFFFFFFFF AND DUP2 MSTORE PUSH1 0x20 ADD SWAP1 DUP2 MSTORE PUSH1 0x20 ADD PUSH1 0x0 KECCAK256 PUSH1 0x0 DUP3 DUP3 SLOAD PUSH2 0x71C SWAP2 SWAP1 PUSH2 0x157D JUMP JUMPDEST SWAP3 POP POP DUP2 SWAP1 SSTORE POP POP PUSH2 0x82E JUMP JUMPDEST PUSH1 0x0 DUP1 SLOAD PUSH1 0x6 SLOAD PUSH2 0x73A SWAP2 SWAP1 PUSH2 0x15D3 JUMP JUMPDEST SWAP1 POP DUP1 PUSH1 0x1 PUSH1 0x0 PUSH1 0x4 PUSH1 0x0 SWAP1 SLOAD SWAP1 PUSH2 0x100 EXP SWAP1 DIV PUSH20 0xFFFFFFFFFFFFFFFFFFFFFFFFFFFFFFFFFFFFFFFF AND PUSH20 0xFFFFFFFFFFFFFFFFFFFFFFFFFFFFFFFFFFFFFFFF AND PUSH20 0xFFFFFFFFFFFFFFFFFFFFFFFFFFFFFFFFFFFFFFFF AND DUP2 MSTORE PUSH1 0x20 ADD SWAP1 DUP2 MSTORE PUSH1 0x20 ADD PUSH1 0x0 KECCAK256 PUSH1 0x0 DUP3 DUP3 SLOAD PUSH2 0x7AD SWAP2 SWAP1 PUSH2 0x157D JUMP JUMPDEST SWAP3 POP POP DUP2 SWAP1 SSTORE POP DUP1 PUSH1 0x1 PUSH1 0x0 PUSH1 0x5 PUSH1 0x0 SWAP1 SLOAD SWAP1 PUSH2 0x100 EXP SWAP1 DIV PUSH20 0xFFFFFFFFFFFFFFFFFFFFFFFFFFFFFFFFFFFFFFFF AND PUSH20 0xFFFFFFFFFFFFFFFFFFFFFFFFFFFFFFFFFFFFFFFF AND PUSH20 0xFFFFFFFFFFFFFFFFFFFFFFFFFFFFFFFFFFFFFFFF AND DUP2 MSTORE PUSH1 0x20 ADD SWAP1 DUP2 MSTORE PUSH1 0x20 ADD PUSH1 0x0 KECCAK256 PUSH1 0x0 DUP3 DUP3 SLOAD PUSH2 0x825 SWAP2 SWAP1 PUSH2 0x162D JUMP JUMPDEST SWAP3 POP POP DUP2 SWAP1 SSTORE POP POP JUMPDEST PUSH1 0x6 SLOAD SWAP1 POP JUMPDEST SWAP2 SWAP1 POP JUMP JUMPDEST PUSH1 0x0 PUSH1 0x1 PUSH1 0x0 CALLER PUSH20 0xFFFFFFFFFFFFFFFFFFFFFFFFFFFFFFFFFFFFFFFF AND PUSH20 0xFFFFFFFFFFFFFFFFFFFFFFFFFFFFFFFFFFFFFFFF AND DUP2 MSTORE PUSH1 0x20 ADD SWAP1 DUP2 MSTORE PUSH1 0x20 ADD PUSH1 0x0 KECCAK256 SLOAD SWAP1 POP SWAP1 JUMP JUMPDEST PUSH8 0x29A2241AF62C0000 PUSH1 0x1 PUSH1 0x0 CALLER PUSH20 0xFFFFFFFFFFFFFFFFFFFFFFFFFFFFFFFFFFFFFFFF AND PUSH20 0xFFFFFFFFFFFFFFFFFFFFFFFFFFFFFFFFFFFFFFFF AND DUP2 MSTORE PUSH1 0x20 ADD SWAP1 DUP2 MSTORE PUSH1 0x20 ADD PUSH1 0x0 KECCAK256 SLOAD CALLVALUE PUSH2 0x8D4 SWAP2 SWAP1 PUSH2 0x157D JUMP JUMPDEST LT ISZERO PUSH2 0x915 JUMPI PUSH1 0x40 MLOAD PUSH32 0x8C379A000000000000000000000000000000000000000000000000000000000 DUP2 MSTORE PUSH1 0x4 ADD PUSH2 0x90C SWAP1 PUSH2 0x1511 JUMP JUMPDEST PUSH1 0x40 MLOAD DUP1 SWAP2 SUB SWAP1 REVERT JUMPDEST PUSH1 0x0 DUP1 SHL DUP2 EQ ISZERO PUSH2 0x95B JUMPI PUSH1 0x40 MLOAD PUSH32 0x8C379A000000000000000000000000000000000000000000000000000000000 DUP2 MSTORE PUSH1 0x4 ADD PUSH2 0x952 SWAP1 PUSH2 0x14F1 JUMP JUMPDEST PUSH1 0x40 MLOAD DUP1 SWAP2 SUB SWAP1 REVERT JUMPDEST PUSH1 0x0 PUSH20 0xFFFFFFFFFFFFFFFFFFFFFFFFFFFFFFFFFFFFFFFF AND PUSH1 0x4 PUSH1 0x0 SWAP1 SLOAD SWAP1 PUSH2 0x100 EXP SWAP1 DIV PUSH20 0xFFFFFFFFFFFFFFFFFFFFFFFFFFFFFFFFFFFFFFFF AND PUSH20 0xFFFFFFFFFFFFFFFFFFFFFFFFFFFFFFFFFFFFFFFF AND EQ PUSH2 0x9EC JUMPI PUSH1 0x40 MLOAD PUSH32 0x8C379A000000000000000000000000000000000000000000000000000000000 DUP2 MSTORE PUSH1 0x4 ADD PUSH2 0x9E3 SWAP1 PUSH2 0x1471 JUMP JUMPDEST PUSH1 0x40 MLOAD DUP1 SWAP2 SUB SWAP1 REVERT JUMPDEST CALLER PUSH20 0xFFFFFFFFFFFFFFFFFFFFFFFFFFFFFFFFFFFFFFFF AND PUSH1 0x5 PUSH1 0x0 SWAP1 SLOAD SWAP1 PUSH2 0x100 EXP SWAP1 DIV PUSH20 0xFFFFFFFFFFFFFFFFFFFFFFFFFFFFFFFFFFFFFFFF AND PUSH20 0xFFFFFFFFFFFFFFFFFFFFFFFFFFFFFFFFFFFFFFFF AND EQ ISZERO PUSH2 0xA7D JUMPI PUSH1 0x40 MLOAD PUSH32 0x8C379A000000000000000000000000000000000000000000000000000000000 DUP2 MSTORE PUSH1 0x4 ADD PUSH2 0xA74 SWAP1 PUSH2 0x14B1 JUMP JUMPDEST PUSH1 0x40 MLOAD DUP1 SWAP2 SUB SWAP1 REVERT JUMPDEST CALLER PUSH1 0x4 PUSH1 0x0 PUSH2 0x100 EXP DUP2 SLOAD DUP2 PUSH20 0xFFFFFFFFFFFFFFFFFFFFFFFFFFFFFFFFFFFFFFFF MUL NOT AND SWAP1 DUP4 PUSH20 0xFFFFFFFFFFFFFFFFFFFFFFFFFFFFFFFFFFFFFFFF AND MUL OR SWAP1 SSTORE POP CALLER PUSH1 0x2 PUSH1 0x0 DUP4 DUP2 MSTORE PUSH1 0x20 ADD SWAP1 DUP2 MSTORE PUSH1 0x20 ADD PUSH1 0x0 KECCAK256 PUSH1 0x0 PUSH2 0x100 EXP DUP2 SLOAD DUP2 PUSH20 0xFFFFFFFFFFFFFFFFFFFFFFFFFFFFFFFFFFFFFFFF MUL NOT AND SWAP1 DUP4 PUSH20 0xFFFFFFFFFFFFFFFFFFFFFFFFFFFFFFFFFFFFFFFF AND MUL OR SWAP1 SSTORE POP CALLVALUE PUSH1 0x1 PUSH1 0x0 CALLER PUSH20 0xFFFFFFFFFFFFFFFFFFFFFFFFFFFFFFFFFFFFFFFF AND PUSH20 0xFFFFFFFFFFFFFFFFFFFFFFFFFFFFFFFFFFFFFFFF AND DUP2 MSTORE PUSH1 0x20 ADD SWAP1 DUP2 MSTORE PUSH1 0x20 ADD PUSH1 0x0 KECCAK256 PUSH1 0x0 DUP3 DUP3 SLOAD PUSH2 0xB5F SWAP2 SWAP1 PUSH2 0x157D JUMP JUMPDEST SWAP3 POP POP DUP2 SWAP1 SSTORE POP POP JUMP JUMPDEST PUSH8 0x29A2241AF62C0000 PUSH1 0x1 PUSH1 0x0 CALLER PUSH20 0xFFFFFFFFFFFFFFFFFFFFFFFFFFFFFFFFFFFFFFFF AND PUSH20 0xFFFFFFFFFFFFFFFFFFFFFFFFFFFFFFFFFFFFFFFF AND DUP2 MSTORE PUSH1 0x20 ADD SWAP1 DUP2 MSTORE PUSH1 0x20 ADD PUSH1 0x0 KECCAK256 SLOAD CALLVALUE PUSH2 0xBBD SWAP2 SWAP1 PUSH2 0x157D JUMP JUMPDEST LT ISZERO PUSH2 0xBFE JUMPI PUSH1 0x40 MLOAD PUSH32 0x8C379A000000000000000000000000000000000000000000000000000000000 DUP2 MSTORE PUSH1 0x4 ADD PUSH2 0xBF5 SWAP1 PUSH2 0x1511 JUMP JUMPDEST PUSH1 0x40 MLOAD DUP1 SWAP2 SUB SWAP1 REVERT JUMPDEST PUSH1 0x0 DUP1 SHL DUP2 EQ ISZERO PUSH2 0xC44 JUMPI PUSH1 0x40 MLOAD PUSH32 0x8C379A000000000000000000000000000000000000000000000000000000000 DUP2 MSTORE PUSH1 0x4 ADD PUSH2 0xC3B SWAP1 PUSH2 0x14F1 JUMP JUMPDEST PUSH1 0x40 MLOAD DUP1 SWAP2 SUB SWAP1 REVERT JUMPDEST PUSH1 0x0 PUSH20 0xFFFFFFFFFFFFFFFFFFFFFFFFFFFFFFFFFFFFFFFF AND PUSH1 0x5 PUSH1 0x0 SWAP1 SLOAD SWAP1 PUSH2 0x100 EXP SWAP1 DIV PUSH20 0xFFFFFFFFFFFFFFFFFFFFFFFFFFFFFFFFFFFFFFFF AND PUSH20 0xFFFFFFFFFFFFFFFFFFFFFFFFFFFFFFFFFFFFFFFF AND EQ PUSH2 0xCD5 JUMPI PUSH1 0x40 MLOAD PUSH32 0x8C379A000000000000000000000000000000000000000000000000000000000 DUP2 MSTORE PUSH1 0x4 ADD PUSH2 0xCCC SWAP1 PUSH2 0x1411 JUMP JUMPDEST PUSH1 0x40 MLOAD DUP1 SWAP2 SUB SWAP1 REVERT JUMPDEST CALLER PUSH20 0xFFFFFFFFFFFFFFFFFFFFFFFFFFFFFFFFFFFFFFFF AND PUSH1 0x4 PUSH1 0x0 SWAP1 SLOAD SWAP1 PUSH2 0x100 EXP SWAP1 DIV PUSH20 0xFFFFFFFFFFFFFFFFFFFFFFFFFFFFFFFFFFFFFFFF AND PUSH20 0xFFFFFFFFFFFFFFFFFFFFFFFFFFFFFFFFFFFFFFFF AND EQ ISZERO PUSH2 0xD66 JUMPI PUSH1 0x40 MLOAD PUSH32 0x8C379A000000000000000000000000000000000000000000000000000000000 DUP2 MSTORE PUSH1 0x4 ADD PUSH2 0xD5D SWAP1 PUSH2 0x1451 JUMP JUMPDEST PUSH1 0x40 MLOAD DUP1 SWAP2 SUB SWAP1 REVERT JUMPDEST CALLER PUSH1 0x5 PUSH1 0x0 PUSH2 0x100 EXP DUP2 SLOAD DUP2 PUSH20 0xFFFFFFFFFFFFFFFFFFFFFFFFFFFFFFFFFFFFFFFF MUL NOT AND SWAP1 DUP4 PUSH20 0xFFFFFFFFFFFFFFFFFFFFFFFFFFFFFFFFFFFFFFFF AND MUL OR SWAP1 SSTORE POP CALLER PUSH1 0x2 PUSH1 0x0 DUP4 DUP2 MSTORE PUSH1 0x20 ADD SWAP1 DUP2 MSTORE PUSH1 0x20 ADD PUSH1 0x0 KECCAK256 PUSH1 0x0 PUSH2 0x100 EXP DUP2 SLOAD DUP2 PUSH20 0xFFFFFFFFFFFFFFFFFFFFFFFFFFFFFFFFFFFFFFFF MUL NOT AND SWAP1 DUP4 PUSH20 0xFFFFFFFFFFFFFFFFFFFFFFFFFFFFFFFFFFFFFFFF AND MUL OR SWAP1 SSTORE POP CALLVALUE PUSH1 0x1 PUSH1 0x0 CALLER PUSH20 0xFFFFFFFFFFFFFFFFFFFFFFFFFFFFFFFFFFFFFFFF AND PUSH20 0xFFFFFFFFFFFFFFFFFFFFFFFFFFFFFFFFFFFFFFFF AND DUP2 MSTORE PUSH1 0x20 ADD SWAP1 DUP2 MSTORE PUSH1 0x20 ADD PUSH1 0x0 KECCAK256 PUSH1 0x0 DUP3 DUP3 SLOAD PUSH2 0xE48 SWAP2 SWAP1 PUSH2 0x157D JUMP JUMPDEST SWAP3 POP POP DUP2 SWAP1 SSTORE POP POP JUMP JUMPDEST PUSH1 0x4 PUSH1 0x0 SWAP1 SLOAD SWAP1 PUSH2 0x100 EXP SWAP1 DIV PUSH20 0xFFFFFFFFFFFFFFFFFFFFFFFFFFFFFFFFFFFFFFFF AND PUSH20 0xFFFFFFFFFFFFFFFFFFFFFFFFFFFFFFFFFFFFFFFF AND CALLER PUSH20 0xFFFFFFFFFFFFFFFFFFFFFFFFFFFFFFFFFFFFFFFF AND EQ ISZERO PUSH2 0xF56 JUMPI PUSH1 0x0 PUSH1 0x4 PUSH1 0x0 PUSH2 0x100 EXP DUP2 SLOAD DUP2 PUSH20 0xFFFFFFFFFFFFFFFFFFFFFFFFFFFFFFFFFFFFFFFF MUL NOT AND SWAP1 DUP4 PUSH20 0xFFFFFFFFFFFFFFFFFFFFFFFFFFFFFFFFFFFFFFFF AND MUL OR SWAP1 SSTORE POP PUSH1 0x0 PUSH1 0x3 PUSH1 0x0 PUSH1 0x4 PUSH1 0x0 SWAP1 SLOAD SWAP1 PUSH2 0x100 EXP SWAP1 DIV PUSH20 0xFFFFFFFFFFFFFFFFFFFFFFFFFFFFFFFFFFFFFFFF AND PUSH20 0xFFFFFFFFFFFFFFFFFFFFFFFFFFFFFFFFFFFFFFFF AND PUSH20 0xFFFFFFFFFFFFFFFFFFFFFFFFFFFFFFFFFFFFFFFF AND DUP2 MSTORE PUSH1 0x20 ADD SWAP1 DUP2 MSTORE PUSH1 0x20 ADD PUSH1 0x0 KECCAK256 DUP2 SWAP1 SSTORE POP PUSH2 0x1057 JUMP JUMPDEST PUSH1 0x5 PUSH1 0x0 SWAP1 SLOAD SWAP1 PUSH2 0x100 EXP SWAP1 DIV PUSH20 0xFFFFFFFFFFFFFFFFFFFFFFFFFFFFFFFFFFFFFFFF AND PUSH20 0xFFFFFFFFFFFFFFFFFFFFFFFFFFFFFFFFFFFFFFFF AND CALLER PUSH20 0xFFFFFFFFFFFFFFFFFFFFFFFFFFFFFFFFFFFFFFFF AND EQ ISZERO PUSH2 0x1056 JUMPI PUSH1 0x0 PUSH1 0x5 PUSH1 0x0 PUSH2 0x100 EXP DUP2 SLOAD DUP2 PUSH20 0xFFFFFFFFFFFFFFFFFFFFFFFFFFFFFFFFFFFFFFFF MUL NOT AND SWAP1 DUP4 PUSH20 0xFFFFFFFFFFFFFFFFFFFFFFFFFFFFFFFFFFFFFFFF AND MUL OR SWAP1 SSTORE POP PUSH1 0x0 PUSH1 0x3 PUSH1 0x0 PUSH1 0x5 PUSH1 0x0 SWAP1 SLOAD SWAP1 PUSH2 0x100 EXP SWAP1 DIV PUSH20 0xFFFFFFFFFFFFFFFFFFFFFFFFFFFFFFFFFFFFFFFF AND PUSH20 0xFFFFFFFFFFFFFFFFFFFFFFFFFFFFFFFFFFFFFFFF AND PUSH20 0xFFFFFFFFFFFFFFFFFFFFFFFFFFFFFFFFFFFFFFFF AND DUP2 MSTORE PUSH1 0x20 ADD SWAP1 DUP2 MSTORE PUSH1 0x20 ADD PUSH1 0x0 KECCAK256 DUP2 SWAP1 SSTORE POP JUMPDEST JUMPDEST PUSH1 0x0 PUSH20 0xFFFFFFFFFFFFFFFFFFFFFFFFFFFFFFFFFFFFFFFF AND PUSH1 0x4 PUSH1 0x0 SWAP1 SLOAD SWAP1 PUSH2 0x100 EXP SWAP1 DIV PUSH20 0xFFFFFFFFFFFFFFFFFFFFFFFFFFFFFFFFFFFFFFFF AND PUSH20 0xFFFFFFFFFFFFFFFFFFFFFFFFFFFFFFFFFFFFFFFF AND EQ DUP1 ISZERO PUSH2 0x1103 JUMPI POP PUSH1 0x0 PUSH20 0xFFFFFFFFFFFFFFFFFFFFFFFFFFFFFFFFFFFFFFFF AND PUSH1 0x5 PUSH1 0x0 SWAP1 SLOAD SWAP1 PUSH2 0x100 EXP SWAP1 DIV PUSH20 0xFFFFFFFFFFFFFFFFFFFFFFFFFFFFFFFFFFFFFFFF AND PUSH20 0xFFFFFFFFFFFFFFFFFFFFFFFFFFFFFFFFFFFFFFFF AND EQ JUMPDEST ISZERO PUSH2 0x1111 JUMPI PUSH1 0x0 PUSH1 0x6 DUP2 SWAP1 SSTORE POP JUMPDEST JUMP JUMPDEST PUSH2 0x111B PUSH2 0xE52 JUMP JUMPDEST PUSH1 0x0 PUSH1 0x1 PUSH1 0x0 CALLER PUSH20 0xFFFFFFFFFFFFFFFFFFFFFFFFFFFFFFFFFFFFFFFF AND PUSH20 0xFFFFFFFFFFFFFFFFFFFFFFFFFFFFFFFFFFFFFFFF AND DUP2 MSTORE PUSH1 0x20 ADD SWAP1 DUP2 MSTORE PUSH1 0x20 ADD PUSH1 0x0 KECCAK256 SLOAD SWAP1 POP PUSH1 0x0 PUSH1 0x1 PUSH1 0x0 CALLER PUSH20 0xFFFFFFFFFFFFFFFFFFFFFFFFFFFFFFFFFFFFFFFF AND PUSH20 0xFFFFFFFFFFFFFFFFFFFFFFFFFFFFFFFFFFFFFFFF AND DUP2 MSTORE PUSH1 0x20 ADD SWAP1 DUP2 MSTORE PUSH1 0x20 ADD PUSH1 0x0 KECCAK256 DUP2 SWAP1 SSTORE POP CALLER PUSH20 0xFFFFFFFFFFFFFFFFFFFFFFFFFFFFFFFFFFFFFFFF AND PUSH2 0x8FC DUP3 SWAP1 DUP2 ISZERO MUL SWAP1 PUSH1 0x40 MLOAD PUSH1 0x0 PUSH1 0x40 MLOAD DUP1 DUP4 SUB DUP2 DUP6 DUP9 DUP9 CALL SWAP4 POP POP POP POP ISZERO DUP1 ISZERO PUSH2 0x11EA JUMPI RETURNDATASIZE PUSH1 0x0 DUP1 RETURNDATACOPY RETURNDATASIZE PUSH1 0x0 REVERT JUMPDEST POP POP JUMP JUMPDEST PUSH1 0x0 DUP2 CALLDATALOAD SWAP1 POP PUSH2 0x11FD DUP2 PUSH2 0x18D3 JUMP JUMPDEST SWAP3 SWAP2 POP POP JUMP JUMPDEST PUSH1 0x0 DUP2 CALLDATALOAD SWAP1 POP PUSH2 0x1212 DUP2 PUSH2 0x18EA JUMP JUMPDEST SWAP3 SWAP2 POP POP JUMP JUMPDEST PUSH1 0x0 PUSH1 0x20 DUP3 DUP5 SUB SLT ISZERO PUSH2 0x122E JUMPI PUSH2 0x122D PUSH2 0x170E JUMP JUMPDEST JUMPDEST PUSH1 0x0 PUSH2 0x123C DUP5 DUP3 DUP6 ADD PUSH2 0x11EE JUMP JUMPDEST SWAP2 POP POP SWAP3 SWAP2 POP POP JUMP JUMPDEST PUSH1 0x0 PUSH1 0x20 DUP3 DUP5 SUB SLT ISZERO PUSH2 0x125B JUMPI PUSH2 0x125A PUSH2 0x170E JUMP JUMPDEST JUMPDEST PUSH1 0x0 PUSH2 0x1269 DUP5 DUP3 DUP6 ADD PUSH2 0x1203 JUMP JUMPDEST SWAP2 POP POP SWAP3 SWAP2 POP POP JUMP JUMPDEST PUSH1 0x0 PUSH2 0x127F PUSH1 0xF DUP4 PUSH2 0x156C JUMP JUMPDEST SWAP2 POP PUSH2 0x128A DUP3 PUSH2 0x1713 JUMP JUMPDEST PUSH1 0x20 DUP3 ADD SWAP1 POP SWAP2 SWAP1 POP JUMP JUMPDEST PUSH1 0x0 PUSH2 0x12A2 PUSH1 0x10 DUP4 PUSH2 0x156C JUMP JUMPDEST SWAP2 POP PUSH2 0x12AD DUP3 PUSH2 0x173C JUMP JUMPDEST PUSH1 0x20 DUP3 ADD SWAP1 POP SWAP2 SWAP1 POP JUMP JUMPDEST PUSH1 0x0 PUSH2 0x12C5 PUSH1 0x1D DUP4 PUSH2 0x156C JUMP JUMPDEST SWAP2 POP PUSH2 0x12D0 DUP3 PUSH2 0x1765 JUMP JUMPDEST PUSH1 0x20 DUP3 ADD SWAP1 POP SWAP2 SWAP1 POP JUMP JUMPDEST PUSH1 0x0 PUSH2 0x12E8 PUSH1 0xF DUP4 PUSH2 0x156C JUMP JUMPDEST SWAP2 POP PUSH2 0x12F3 DUP3 PUSH2 0x178E JUMP JUMPDEST PUSH1 0x20 DUP3 ADD SWAP1 POP SWAP2 SWAP1 POP JUMP JUMPDEST PUSH1 0x0 PUSH2 0x130B PUSH1 0x22 DUP4 PUSH2 0x156C JUMP JUMPDEST SWAP2 POP PUSH2 0x1316 DUP3 PUSH2 0x17B7 JUMP JUMPDEST PUSH1 0x40 DUP3 ADD SWAP1 POP SWAP2 SWAP1 POP JUMP JUMPDEST PUSH1 0x0 PUSH2 0x132E PUSH1 0x1D DUP4 PUSH2 0x156C JUMP JUMPDEST SWAP2 POP PUSH2 0x1339 DUP3 PUSH2 0x1806 JUMP JUMPDEST PUSH1 0x20 DUP3 ADD SWAP1 POP SWAP2 SWAP1 POP JUMP JUMPDEST PUSH1 0x0 PUSH2 0x1351 PUSH1 0xA DUP4 PUSH2 0x156C JUMP JUMPDEST SWAP2 POP PUSH2 0x135C DUP3 PUSH2 0x182F JUMP JUMPDEST PUSH1 0x20 DUP3 ADD SWAP1 POP SWAP2 SWAP1 POP JUMP JUMPDEST PUSH1 0x0 PUSH2 0x1374 PUSH1 0x1C DUP4 PUSH2 0x156C JUMP JUMPDEST SWAP2 POP PUSH2 0x137F DUP3 PUSH2 0x1858 JUMP JUMPDEST PUSH1 0x20 DUP3 ADD SWAP1 POP SWAP2 SWAP1 POP JUMP JUMPDEST PUSH1 0x0 PUSH2 0x1397 PUSH1 0x1C DUP4 PUSH2 0x156C JUMP JUMPDEST SWAP2 POP PUSH2 0x13A2 DUP3 PUSH2 0x1881 JUMP JUMPDEST PUSH1 0x20 DUP3 ADD SWAP1 POP SWAP2 SWAP1 POP JUMP JUMPDEST PUSH1 0x0 PUSH2 0x13BA PUSH1 0x10 DUP4 PUSH2 0x156C JUMP JUMPDEST SWAP2 POP PUSH2 0x13C5 DUP3 PUSH2 0x18AA JUMP JUMPDEST PUSH1 0x20 DUP3 ADD SWAP1 POP SWAP2 SWAP1 POP JUMP JUMPDEST PUSH2 0x13D9 DUP2 PUSH2 0x166B JUMP JUMPDEST DUP3 MSTORE POP POP JUMP JUMPDEST PUSH2 0x13F0 PUSH2 0x13EB DUP3 PUSH2 0x166B JUMP JUMPDEST PUSH2 0x1675 JUMP JUMPDEST DUP3 MSTORE POP POP JUMP JUMPDEST PUSH1 0x0 PUSH2 0x1402 DUP3 DUP5 PUSH2 0x13DF JUMP JUMPDEST PUSH1 0x20 DUP3 ADD SWAP2 POP DUP2 SWAP1 POP SWAP3 SWAP2 POP POP JUMP JUMPDEST PUSH1 0x0 PUSH1 0x20 DUP3 ADD SWAP1 POP DUP2 DUP2 SUB PUSH1 0x0 DUP4 ADD MSTORE PUSH2 0x142A DUP2 PUSH2 0x1272 JUMP JUMPDEST SWAP1 POP SWAP2 SWAP1 POP JUMP JUMPDEST PUSH1 0x0 PUSH1 0x20 DUP3 ADD SWAP1 POP DUP2 DUP2 SUB PUSH1 0x0 DUP4 ADD MSTORE PUSH2 0x144A DUP2 PUSH2 0x1295 JUMP JUMPDEST SWAP1 POP SWAP2 SWAP1 POP JUMP JUMPDEST PUSH1 0x0 PUSH1 0x20 DUP3 ADD SWAP1 POP DUP2 DUP2 SUB PUSH1 0x0 DUP4 ADD MSTORE PUSH2 0x146A DUP2 PUSH2 0x12B8 JUMP JUMPDEST SWAP1 POP SWAP2 SWAP1 POP JUMP JUMPDEST PUSH1 0x0 PUSH1 0x20 DUP3 ADD SWAP1 POP DUP2 DUP2 SUB PUSH1 0x0 DUP4 ADD MSTORE PUSH2 0x148A DUP2 PUSH2 0x12DB JUMP JUMPDEST SWAP1 POP SWAP2 SWAP1 POP JUMP JUMPDEST PUSH1 0x0 PUSH1 0x20 DUP3 ADD SWAP1 POP DUP2 DUP2 SUB PUSH1 0x0 DUP4 ADD MSTORE PUSH2 0x14AA DUP2 PUSH2 0x12FE JUMP JUMPDEST SWAP1 POP SWAP2 SWAP1 POP JUMP JUMPDEST PUSH1 0x0 PUSH1 0x20 DUP3 ADD SWAP1 POP DUP2 DUP2 SUB PUSH1 0x0 DUP4 ADD MSTORE PUSH2 0x14CA DUP2 PUSH2 0x1321 JUMP JUMPDEST SWAP1 POP SWAP2 SWAP1 POP JUMP JUMPDEST PUSH1 0x0 PUSH1 0x20 DUP3 ADD SWAP1 POP DUP2 DUP2 SUB PUSH1 0x0 DUP4 ADD MSTORE PUSH2 0x14EA DUP2 PUSH2 0x1344 JUMP JUMPDEST SWAP1 POP SWAP2 SWAP1 POP JUMP JUMPDEST PUSH1 0x0 PUSH1 0x20 DUP3 ADD SWAP1 POP DUP2 DUP2 SUB PUSH1 0x0 DUP4 ADD MSTORE PUSH2 0x150A DUP2 PUSH2 0x1367 JUMP JUMPDEST SWAP1 POP SWAP2 SWAP1 POP JUMP JUMPDEST PUSH1 0x0 PUSH1 0x20 DUP3 ADD SWAP1 POP DUP2 DUP2 SUB PUSH1 0x0 DUP4 ADD MSTORE PUSH2 0x152A DUP2 PUSH2 0x138A JUMP JUMPDEST SWAP1 POP SWAP2 SWAP1 POP JUMP JUMPDEST PUSH1 0x0 PUSH1 0x20 DUP3 ADD SWAP1 POP DUP2 DUP2 SUB PUSH1 0x0 DUP4 ADD MSTORE PUSH2 0x154A DUP2 PUSH2 0x13AD JUMP JUMPDEST SWAP1 POP SWAP2 SWAP1 POP JUMP JUMPDEST PUSH1 0x0 PUSH1 0x20 DUP3 ADD SWAP1 POP PUSH2 0x1566 PUSH1 0x0 DUP4 ADD DUP5 PUSH2 0x13D0 JUMP JUMPDEST SWAP3 SWAP2 POP POP JUMP JUMPDEST PUSH1 0x0 DUP3 DUP3 MSTORE PUSH1 0x20 DUP3 ADD SWAP1 POP SWAP3 SWAP2 POP POP JUMP JUMPDEST PUSH1 0x0 PUSH2 0x1588 DUP3 PUSH2 0x166B JUMP JUMPDEST SWAP2 POP PUSH2 0x1593 DUP4 PUSH2 0x166B JUMP JUMPDEST SWAP3 POP DUP3 PUSH32 0xFFFFFFFFFFFFFFFFFFFFFFFFFFFFFFFFFFFFFFFFFFFFFFFFFFFFFFFFFFFFFFFF SUB DUP3 GT ISZERO PUSH2 0x15C8 JUMPI PUSH2 0x15C7 PUSH2 0x16B0 JUMP JUMPDEST JUMPDEST DUP3 DUP3 ADD SWAP1 POP SWAP3 SWAP2 POP POP JUMP JUMPDEST PUSH1 0x0 PUSH2 0x15DE DUP3 PUSH2 0x166B JUMP JUMPDEST SWAP2 POP PUSH2 0x15E9 DUP4 PUSH2 0x166B JUMP JUMPDEST SWAP3 POP DUP2 PUSH32 0xFFFFFFFFFFFFFFFFFFFFFFFFFFFFFFFFFFFFFFFFFFFFFFFFFFFFFFFFFFFFFFFF DIV DUP4 GT DUP3 ISZERO ISZERO AND ISZERO PUSH2 0x1622 JUMPI PUSH2 0x1621 PUSH2 0x16B0 JUMP JUMPDEST JUMPDEST DUP3 DUP3 MUL SWAP1 POP SWAP3 SWAP2 POP POP JUMP JUMPDEST PUSH1 0x0 PUSH2 0x1638 DUP3 PUSH2 0x166B JUMP JUMPDEST SWAP2 POP PUSH2 0x1643 DUP4 PUSH2 0x166B JUMP JUMPDEST SWAP3 POP DUP3 DUP3 LT ISZERO PUSH2 0x1656 JUMPI PUSH2 0x1655 PUSH2 0x16B0 JUMP JUMPDEST JUMPDEST DUP3 DUP3 SUB SWAP1 POP SWAP3 SWAP2 POP POP JUMP JUMPDEST PUSH1 0x0 DUP2 SWAP1 POP SWAP2 SWAP1 POP JUMP JUMPDEST PUSH1 0x0 DUP2 SWAP1 POP SWAP2 SWAP1 POP JUMP JUMPDEST PUSH1 0x0 DUP2 SWAP1 POP SWAP2 SWAP1 POP JUMP JUMPDEST PUSH1 0x0 PUSH2 0x168A DUP3 PUSH2 0x166B JUMP JUMPDEST SWAP2 POP PUSH2 0x1695 DUP4 PUSH2 0x166B JUMP JUMPDEST SWAP3 POP DUP3 PUSH2 0x16A5 JUMPI PUSH2 0x16A4 PUSH2 0x16DF JUMP JUMPDEST JUMPDEST DUP3 DUP3 MOD SWAP1 POP SWAP3 SWAP2 POP POP JUMP JUMPDEST PUSH32 0x4E487B7100000000000000000000000000000000000000000000000000000000 PUSH1 0x0 MSTORE PUSH1 0x11 PUSH1 0x4 MSTORE PUSH1 0x24 PUSH1 0x0 REVERT JUMPDEST PUSH32 0x4E487B7100000000000000000000000000000000000000000000000000000000 PUSH1 0x0 MSTORE PUSH1 0x12 PUSH1 0x4 MSTORE PUSH1 0x24 PUSH1 0x0 REVERT JUMPDEST PUSH1 0x0 DUP1 REVERT JUMPDEST PUSH32 0x422068617320656E746572656420210000000000000000000000000000000000 PUSH1 0x0 DUP3 ADD MSTORE POP JUMP JUMPDEST PUSH32 0x7761697420666F7220706C617965724200000000000000000000000000000000 PUSH1 0x0 DUP3 ADD MSTORE POP JUMP JUMPDEST PUSH32 0x796F75206861766520656E746572656420617320706C61796572412021000000 PUSH1 0x0 DUP3 ADD MSTORE POP JUMP JUMPDEST PUSH32 0x412068617320656E746572656420210000000000000000000000000000000000 PUSH1 0x0 DUP3 ADD MSTORE POP JUMP JUMPDEST PUSH32 0x646F6E27742072657065617420756E74696C20616C6C20757365727320726573 PUSH1 0x0 DUP3 ADD MSTORE PUSH32 0x6574000000000000000000000000000000000000000000000000000000000000 PUSH1 0x20 DUP3 ADD MSTORE POP JUMP JUMPDEST PUSH32 0x796F75206861766520656E746572656420617320706C61796572422021000000 PUSH1 0x0 DUP3 ADD MSTORE POP JUMP JUMPDEST PUSH32 0x4E6F7420666F756E642100000000000000000000000000000000000000000000 PUSH1 0x0 DUP3 ADD MSTORE POP JUMP JUMPDEST PUSH32 0x706C65617365207375626D69742074686520636F6D6D69746D656E7400000000 PUSH1 0x0 DUP3 ADD MSTORE POP JUMP JUMPDEST PUSH32 0x76616C7565202B2062616C616E6365206D757374203E3D203365746800000000 PUSH1 0x0 DUP3 ADD MSTORE POP JUMP JUMPDEST PUSH32 0x7761697420666F7220706C617965724100000000000000000000000000000000 PUSH1 0x0 DUP3 ADD MSTORE POP JUMP JUMPDEST PUSH2 0x18DC DUP2 PUSH2 0x1661 JUMP JUMPDEST DUP2 EQ PUSH2 0x18E7 JUMPI PUSH1 0x0 DUP1 REVERT JUMPDEST POP JUMP JUMPDEST PUSH2 0x18F3 DUP2 PUSH2 0x166B JUMP JUMPDEST DUP2 EQ PUSH2 0x18FE JUMPI PUSH1 0x0 DUP1 REVERT JUMPDEST POP JUMP INVALID LOG2 PUSH5 0x6970667358 0x22 SLT KECCAK256 REVERT DUP16 0xDF 0xC0 0xDB SHL 0xD5 CALL SGT 0x29 0x4B CREATE 0xBA 0xC6 0xEF PUSH18 0x95DE19B703078A288A4763677C7EA5996473 PUSH16 0x6C634300080700330000000000000000 "
				},
				"gasEstimates": {
					"creation": {
						"codeDepositCost": "1291000",
						"executionCost": "28454",
						"totalCost": "1319454"
					},
					"external": {
						"enterA(bytes32)": "infinite",
						"enterB(bytes32)": "infinite",
						"getResultAndFund()": "2526",
						"reset()": "45431",
						"resetAndWithdraw()": "infinite",
						"roll(uint256)": "infinite"
					}
				},
				"methodIdentifiers": {
					"enterA(bytes32)": "2717605f",
					"enterB(bytes32)": "755b55ad",
					"getResultAndFund()": "23fdeeb8",
					"reset()": "d826f88f",
					"resetAndWithdraw()": "f147c8de",
					"roll(uint256)": "1f7b4f30"
				}
			},
			"storageLayout": {
				"storage": [
					{
						"astId": 5,
						"contract": "contracts/bdl cw2..sol:DiceGame",
						"label": "unitETH",
						"offset": 0,
						"slot": "0",
						"type": "t_uint256"
					},
					{
						"astId": 9,
						"contract": "contracts/bdl cw2..sol:DiceGame",
						"label": "balance",
						"offset": 0,
						"slot": "1",
						"type": "t_mapping(t_address,t_uint256)"
					},
					{
						"astId": 13,
						"contract": "contracts/bdl cw2..sol:DiceGame",
						"label": "commitment",
						"offset": 0,
						"slot": "2",
						"type": "t_mapping(t_bytes32,t_address)"
					},
					{
						"astId": 17,
						"contract": "contracts/bdl cw2..sol:DiceGame",
						"label": "random_value",
						"offset": 0,
						"slot": "3",
						"type": "t_mapping(t_address,t_uint256)"
					},
					{
						"astId": 19,
						"contract": "contracts/bdl cw2..sol:DiceGame",
						"label": "playerA",
						"offset": 0,
						"slot": "4",
						"type": "t_address"
					},
					{
						"astId": 21,
						"contract": "contracts/bdl cw2..sol:DiceGame",
						"label": "playerB",
						"offset": 0,
						"slot": "5",
						"type": "t_address"
					},
					{
						"astId": 24,
						"contract": "contracts/bdl cw2..sol:DiceGame",
						"label": "dice",
						"offset": 0,
						"slot": "6",
						"type": "t_uint256"
					}
				],
				"types": {
					"t_address": {
						"encoding": "inplace",
						"label": "address",
						"numberOfBytes": "20"
					},
					"t_bytes32": {
						"encoding": "inplace",
						"label": "bytes32",
						"numberOfBytes": "32"
					},
					"t_mapping(t_address,t_uint256)": {
						"encoding": "mapping",
						"key": "t_address",
						"label": "mapping(address => uint256)",
						"numberOfBytes": "32",
						"value": "t_uint256"
					},
					"t_mapping(t_bytes32,t_address)": {
						"encoding": "mapping",
						"key": "t_bytes32",
						"label": "mapping(bytes32 => address)",
						"numberOfBytes": "32",
						"value": "t_address"
					},
					"t_uint256": {
						"encoding": "inplace",
						"label": "uint256",
						"numberOfBytes": "32"
					}
				}
			},
			"userdoc": {
				"kind": "user",
				"methods": {
					"enterA(bytes32)": {
						"notice": "for playerA to attend  ciphertext: commitment scheme - commitment*"
					},
					"enterB(bytes32)": {
						"notice": "for playerB to attend  ciphertext: commitment scheme - commitment*"
					},
					"getResultAndFund()": {
						"notice": "fetch result and balance*"
					},
					"reset()": {
						"notice": "reset to start a new game wait for A and B both call the function, then reset the dice*"
					},
					"resetAndWithdraw()": {
						"notice": "reset and withdraw the balance which means A/B can reset and play the new game without withdrawing the balance*"
					},
					"roll(uint256)": {
						"notice": "roll the dice value: commitment scheme - value -> generate random number safely wait for A and B both call the function, then roll the dice.*"
					}
				},
				"notice": "1. enter process:  - A call enterA(), transfer + ciphertext - B call enterB(), transfer + ciphertext 2. roll process:  - A call roll(), value - B call roll(), value -> execute roll dice 3. result - A call getResult(), B call getResult() 4. reset or reset and withdraw  - A call reset() / resetAndWithdraw() - B call reset() / resetAndWithdraw() 5. new round of game... TODO: if A and B send the same value  emit event",
				"version": 1
			}
		}
	}
}